{
  "_format": "hh-sol-artifact-1",
  "contractName": "Counter",
  "sourceName": "contracts/Counter.sol",
  "abi": [
    {
      "inputs": [],
      "stateMutability": "nonpayable",
      "type": "constructor"
    },
    {
      "anonymous": false,
      "inputs": [
        {
          "indexed": true,
          "internalType": "address",
          "name": "user",
          "type": "address"
        },
        {
          "indexed": false,
          "internalType": "int256",
          "name": "previousCount",
          "type": "int256"
        },
        {
          "indexed": false,
          "internalType": "int256",
          "name": "newCount",
          "type": "int256"
        },
        {
          "indexed": false,
          "internalType": "uint256",
          "name": "timestamp",
          "type": "uint256"
        }
      ],
      "name": "CounterDecremented",
      "type": "event"
    },
    {
      "anonymous": false,
      "inputs": [
        {
          "indexed": true,
          "internalType": "address",
          "name": "user",
          "type": "address"
        },
        {
          "indexed": false,
          "internalType": "int256",
          "name": "previousCount",
          "type": "int256"
        },
        {
          "indexed": false,
          "internalType": "int256",
          "name": "newCount",
          "type": "int256"
        },
        {
          "indexed": false,
          "internalType": "uint256",
          "name": "timestamp",
          "type": "uint256"
        }
      ],
      "name": "CounterIncremented",
      "type": "event"
    },
    {
      "anonymous": false,
      "inputs": [
        {
          "indexed": true,
          "internalType": "address",
          "name": "owner",
          "type": "address"
        },
        {
          "indexed": false,
          "internalType": "int256",
          "name": "previousCount",
          "type": "int256"
        },
        {
          "indexed": false,
          "internalType": "uint256",
          "name": "timestamp",
          "type": "uint256"
        }
      ],
      "name": "CounterReset",
      "type": "event"
    },
    {
      "anonymous": false,
      "inputs": [
        {
          "indexed": false,
          "internalType": "int256",
          "name": "count",
          "type": "int256"
        },
        {
          "indexed": false,
          "internalType": "string",
          "name": "milestone",
          "type": "string"
        },
        {
          "indexed": false,
          "internalType": "uint256",
          "name": "timestamp",
          "type": "uint256"
        }
      ],
      "name": "MilestoneReached",
      "type": "event"
    },
    {
      "inputs": [],
      "name": "count",
      "outputs": [
        {
          "internalType": "int256",
          "name": "",
          "type": "int256"
        }
      ],
      "stateMutability": "view",
      "type": "function"
    },
    {
      "inputs": [],
      "name": "decrement",
      "outputs": [],
      "stateMutability": "nonpayable",
      "type": "function"
    },
    {
      "inputs": [
        {
          "internalType": "uint256",
          "name": "_amount",
          "type": "uint256"
        }
      ],
      "name": "decrementBy",
      "outputs": [],
      "stateMutability": "nonpayable",
      "type": "function"
    },
    {
      "inputs": [],
      "name": "getContractStats",
      "outputs": [
        {
          "internalType": "int256",
          "name": "currentCount",
          "type": "int256"
        },
        {
          "internalType": "uint256",
          "name": "totalChanges",
          "type": "uint256"
        },
        {
          "internalType": "uint256",
          "name": "totalUsers",
          "type": "uint256"
        },
        {
          "internalType": "address",
          "name": "contractOwner",
          "type": "address"
        }
      ],
      "stateMutability": "view",
      "type": "function"
    },
    {
      "inputs": [],
      "name": "getCount",
      "outputs": [
        {
          "internalType": "int256",
          "name": "",
          "type": "int256"
        }
      ],
      "stateMutability": "view",
      "type": "function"
    },
    {
      "inputs": [],
      "name": "getCountStatus",
      "outputs": [
        {
          "internalType": "string",
          "name": "",
          "type": "string"
        }
      ],
      "stateMutability": "view",
      "type": "function"
    },
    {
      "inputs": [],
      "name": "getHistoryLength",
      "outputs": [
        {
          "internalType": "uint256",
          "name": "",
          "type": "uint256"
        }
      ],
      "stateMutability": "view",
      "type": "function"
    },
    {
      "inputs": [],
      "name": "getLastUser",
      "outputs": [
        {
          "internalType": "address",
          "name": "",
          "type": "address"
        },
        {
          "internalType": "string",
          "name": "",
          "type": "string"
        },
        {
          "internalType": "uint256",
          "name": "",
          "type": "uint256"
        }
      ],
      "stateMutability": "view",
      "type": "function"
    },
    {
      "inputs": [
        {
          "internalType": "uint256",
          "name": "_count",
          "type": "uint256"
        }
      ],
      "name": "getLatestChanges",
      "outputs": [
        {
          "internalType": "address[]",
          "name": "users",
          "type": "address[]"
        },
        {
          "internalType": "int256[]",
          "name": "previousCounts",
          "type": "int256[]"
        },
        {
          "internalType": "int256[]",
          "name": "newCounts",
          "type": "int256[]"
        },
        {
          "internalType": "string[]",
          "name": "actions",
          "type": "string[]"
        },
        {
          "internalType": "uint256[]",
          "name": "timestamps",
          "type": "uint256[]"
        }
      ],
      "stateMutability": "view",
      "type": "function"
    },
    {
      "inputs": [
        {
          "internalType": "address",
          "name": "_user",
          "type": "address"
        }
      ],
      "name": "getUserStats",
      "outputs": [
        {
          "internalType": "uint256",
          "name": "increments",
          "type": "uint256"
        },
        {
          "internalType": "uint256",
          "name": "decrements",
          "type": "uint256"
        },
        {
          "internalType": "uint256",
          "name": "totalInteractions",
          "type": "uint256"
        },
        {
          "internalType": "int256",
          "name": "netContribution",
          "type": "int256"
        }
      ],
      "stateMutability": "view",
      "type": "function"
    },
    {
      "inputs": [
        {
          "internalType": "uint256",
          "name": "",
          "type": "uint256"
        }
      ],
      "name": "history",
      "outputs": [
        {
          "internalType": "address",
          "name": "user",
          "type": "address"
        },
        {
          "internalType": "int256",
          "name": "previousCount",
          "type": "int256"
        },
        {
          "internalType": "int256",
          "name": "newCount",
          "type": "int256"
        },
        {
          "internalType": "string",
          "name": "action",
          "type": "string"
        },
        {
          "internalType": "uint256",
          "name": "timestamp",
          "type": "uint256"
        }
      ],
      "stateMutability": "view",
      "type": "function"
    },
    {
      "inputs": [],
      "name": "increment",
      "outputs": [],
      "stateMutability": "nonpayable",
      "type": "function"
    },
    {
      "inputs": [
        {
          "internalType": "uint256",
          "name": "_amount",
          "type": "uint256"
        }
      ],
      "name": "incrementBy",
      "outputs": [],
      "stateMutability": "nonpayable",
      "type": "function"
    },
    {
      "inputs": [],
      "name": "owner",
      "outputs": [
        {
          "internalType": "address",
          "name": "",
          "type": "address"
        }
      ],
      "stateMutability": "view",
      "type": "function"
    },
    {
      "inputs": [],
      "name": "reset",
      "outputs": [],
      "stateMutability": "nonpayable",
      "type": "function"
    },
    {
      "inputs": [],
      "name": "totalInteractions",
      "outputs": [
        {
          "internalType": "uint256",
          "name": "",
          "type": "uint256"
        }
      ],
      "stateMutability": "view",
      "type": "function"
    },
    {
      "inputs": [
        {
          "internalType": "address",
          "name": "_newOwner",
          "type": "address"
        }
      ],
      "name": "transferOwnership",
      "outputs": [],
      "stateMutability": "nonpayable",
      "type": "function"
    },
    {
      "inputs": [
        {
          "internalType": "address",
          "name": "",
          "type": "address"
        }
      ],
      "name": "userDecrements",
      "outputs": [
        {
          "internalType": "uint256",
          "name": "",
          "type": "uint256"
        }
      ],
      "stateMutability": "view",
      "type": "function"
    },
    {
      "inputs": [
        {
          "internalType": "address",
          "name": "",
          "type": "address"
        }
      ],
      "name": "userIncrements",
      "outputs": [
        {
          "internalType": "uint256",
          "name": "",
          "type": "uint256"
        }
      ],
      "stateMutability": "view",
      "type": "function"
    },
    {
      "inputs": [
        {
          "internalType": "address",
          "name": "",
          "type": "address"
        }
      ],
      "name": "userTotalInteractions",
      "outputs": [
        {
          "internalType": "uint256",
          "name": "",
          "type": "uint256"
        }
      ],
      "stateMutability": "view",
      "type": "function"
    }
  ],
  "bytecode": "0x6080604052348015600f57600080fd5b50600180546001600160a01b031916331790556000808055600255611bd8806100396000396000f3fe608060405234801561001057600080fd5b506004361061012c5760003560e01c8063a7a38f0b116100ad578063d53d500711610071578063d53d500714610299578063d826f88f146102b9578063dfe6b5d6146102c1578063efd79930146102f2578063f2fde38b1461030957600080fd5b8063a7a38f0b1461023c578063a843651e14610260578063a87d942c14610269578063b895c26014610271578063d09de08a1461029157600080fd5b80634e43603a116100f45780634e43603a146101a15780635478f468146101d457806362f02ac2146101dc5780638b8e41dd146101f15780638da5cb5b1461021157600080fd5b806303df179c1461013157806306661abd146101465780631a85adbb146101625780632baeceb7146101865780633721b1d81461018e575b600080fd5b61014461013f3660046116a1565b61031c565b005b61014f60005481565b6040519081526020015b60405180910390f35b6101756101703660046116a1565b610569565b604051610159959493929190611798565b6101446108f1565b61014461019c3660046116a1565b610adf565b6101b46101af366004611838565b610d14565b604080519485526020850193909352918301526060820152608001610159565b60035461014f565b6101e4610d56565b6040516101599190611868565b61014f6101ff366004611838565b60046020526000908152604090205481565b600154610224906001600160a01b031681565b6040516001600160a01b039091168152602001610159565b61024f61024a3660046116a1565b610dd1565b60405161015995949392919061187b565b61014f60025481565b60005461014f565b61014f61027f366004611838565b60056020526000908152604090205481565b610144610ea9565b61014f6102a7366004611838565b60066020526000908152604090205481565b610144611085565b6102c9611230565b604080519485526020850193909352918301526001600160a01b03166060820152608001610159565b6102fa611269565b604051610159939291906118ba565b610144610317366004611838565b6113f0565b600081116103715760405162461bcd60e51b815260206004820152601d60248201527f416d6f756e74206d7573742062652067726561746572207468616e203000000060448201526064015b60405180910390fd5b60648111156103c25760405162461bcd60e51b815260206004820152601a60248201527f416d6f756e7420746f6f206c6172676520286d617820313030290000000000006044820152606401610368565b60008054908290806103d48385611904565b9091555050600280549060006103e98361192c565b9091555050336000908152600460205260408120805484929061040d908490611945565b909155505033600090815260066020526040812080549161042d8361192c565b919050555060036040518060a00160405280336001600160a01b0316815260200183815260200160005481526020018460405160200161048991906c696e6372656d656e745f62795f60981b8152600d810191909152602d0190565b60408051808303601f1901815291815290825242602092830152835460018082018655600095865294839020845160059092020180546001600160a01b0319166001600160a01b0390921691909117815591830151938201939093559181015160028301556060810151909190600382019061050590826119fd565b5060809190910151600490910155600054604080518381526020810192909252429082015233907f8ea313b89c9b92392d3eeeff9cabfa264692d1b9a1ab6726a02650e623808549906060015b60405180910390a2610565600054611492565b5050565b600354606090819081908190819086818111156105835750805b8067ffffffffffffffff81111561059c5761059c61195e565b6040519080825280602002602001820160405280156105c5578160200160208202803683370190505b5096508067ffffffffffffffff8111156105e1576105e161195e565b60405190808252806020026020018201604052801561060a578160200160208202803683370190505b5095508067ffffffffffffffff8111156106265761062661195e565b60405190808252806020026020018201604052801561064f578160200160208202803683370190505b5094508067ffffffffffffffff81111561066b5761066b61195e565b60405190808252806020026020018201604052801561069e57816020015b60608152602001906001900390816106895790505b5093508067ffffffffffffffff8111156106ba576106ba61195e565b6040519080825280602002602001820160405280156106e3578160200160208202803683370190505b50925060005b818110156108e5576000816106ff600186611abc565b6107099190611abc565b905060006003828154811061072057610720611acf565b90600052602060002090600502016040518060a00160405290816000820160009054906101000a90046001600160a01b03166001600160a01b03166001600160a01b03168152602001600182015481526020016002820154815260200160038201805461078c90611974565b80601f01602080910402602001604051908101604052809291908181526020018280546107b890611974565b80156108055780601f106107da57610100808354040283529160200191610805565b820191906000526020600020905b8154815290600101906020018083116107e857829003601f168201915b50505050508152602001600482015481525050905080600001518a848151811061083157610831611acf565b60200260200101906001600160a01b031690816001600160a01b031681525050806020015189848151811061086857610868611acf565b602002602001018181525050806040015188848151811061088b5761088b611acf565b60200260200101818152505080606001518784815181106108ae576108ae611acf565b602002602001018190525080608001518684815181106108d0576108d0611acf565b602090810291909101015250506001016106e9565b50505091939590929450565b600080549081908061090283611ae5565b9091555050600280549060006109178361192c565b90915550503360009081526005602052604081208054916109378361192c565b90915550503360009081526006602052604081208054916109578361192c565b90915550506040805160a08101825233815260208082018481526000805484860190815285518087019096526009865268191958dc995b595b9d60ba1b938601939093526060840194855242608085015260038054600181018255915283517fc2575a0e9e593c00f959f8c92f12db2869c3395a3b0502d05e2516446f71f85b600590920291820180546001600160a01b0319166001600160a01b0390921691909117815591517fc2575a0e9e593c00f959f8c92f12db2869c3395a3b0502d05e2516446f71f85c82015591517fc2575a0e9e593c00f959f8c92f12db2869c3395a3b0502d05e2516446f71f85d83015592519192917fc2575a0e9e593c00f959f8c92f12db2869c3395a3b0502d05e2516446f71f85e90910190610a7c90826119fd565b5060809190910151600490910155600054604080518381526020810192909252429082015233907f3820966baea75319a12e777644e711e3a75f7dde56ab4a410c32689d0c1686ea906060015b60405180910390a2610adc600054611492565b50565b60008111610b2f5760405162461bcd60e51b815260206004820152601d60248201527f416d6f756e74206d7573742062652067726561746572207468616e20300000006044820152606401610368565b6064811115610b805760405162461bcd60e51b815260206004820152601a60248201527f416d6f756e7420746f6f206c6172676520286d617820313030290000000000006044820152606401610368565b6000805490829080610b928385611b02565b909155505060028054906000610ba78361192c565b90915550503360009081526005602052604081208054849290610bcb908490611945565b9091555050336000908152600660205260408120805491610beb8361192c565b919050555060036040518060a00160405280336001600160a01b03168152602001838152602001600054815260200184604051602001610c4791906c64656372656d656e745f62795f60981b8152600d810191909152602d0190565b60408051808303601f1901815291815290825242602092830152835460018082018655600095865294839020845160059092020180546001600160a01b0319166001600160a01b03909216919091178155918301519382019390935591810151600283015560608101519091906003820190610cc390826119fd565b5060809190910151600490910155600054604080518381526020810192909252429082015233907f3820966baea75319a12e777644e711e3a75f7dde56ab4a410c32689d0c1686ea90606001610552565b6001600160a01b03811660009081526004602090815260408083205460058352818420546006909352908320549092610d4d8385611b02565b90509193509193565b6060600080541315610d855750604080518082019091526008815267706f73697469766560c01b602082015290565b600080541215610db257506040805180820190915260088152676e6567617469766560c01b602082015290565b506040805180820190915260048152637a65726f60e01b602082015290565b60038181548110610de157600080fd5b600091825260209091206005909102018054600182015460028301546003840180546001600160a01b03909416955091939092909190610e2090611974565b80601f0160208091040260200160405190810160405280929190818152602001828054610e4c90611974565b8015610e995780601f10610e6e57610100808354040283529160200191610e99565b820191906000526020600020905b815481529060010190602001808311610e7c57829003601f168201915b5050505050908060040154905085565b6000805490819080610eba83611b29565b909155505060028054906000610ecf8361192c565b9091555050336000908152600460205260408120805491610eef8361192c565b9091555050336000908152600660205260408120805491610f0f8361192c565b90915550506040805160a081018252338152602080820184815260008054848601908152855180870190965260098652681a5b98dc995b595b9d60ba1b938601939093526060840194855242608085015260038054600181018255915283517fc2575a0e9e593c00f959f8c92f12db2869c3395a3b0502d05e2516446f71f85b600590920291820180546001600160a01b0319166001600160a01b0390921691909117815591517fc2575a0e9e593c00f959f8c92f12db2869c3395a3b0502d05e2516446f71f85c82015591517fc2575a0e9e593c00f959f8c92f12db2869c3395a3b0502d05e2516446f71f85d83015592519192917fc2575a0e9e593c00f959f8c92f12db2869c3395a3b0502d05e2516446f71f85e9091019061103490826119fd565b5060809190910151600490910155600054604080518381526020810192909252429082015233907f8ea313b89c9b92392d3eeeff9cabfa264692d1b9a1ab6726a02650e62380854990606001610ac9565b6001546001600160a01b031633146110af5760405162461bcd60e51b815260040161036890611b41565b600080548180556002805491926110c58361192c565b90915550506040805160a0810182523381526020808201848152600083850181815285518087019096526005808752641c995cd95d60da1b948701949094526060850195865242608086015260038054600181018255925284517fc2575a0e9e593c00f959f8c92f12db2869c3395a3b0502d05e2516446f71f85b9290940291820180546001600160a01b0319166001600160a01b0390951694909417845591517fc2575a0e9e593c00f959f8c92f12db2869c3395a3b0502d05e2516446f71f85c82015590517fc2575a0e9e593c00f959f8c92f12db2869c3395a3b0502d05e2516446f71f85d8201559251919290917fc2575a0e9e593c00f959f8c92f12db2869c3395a3b0502d05e2516446f71f85e909101906111e590826119fd565b50608091909101516004909101556040805182815242602082015233917fe33484f384dc157869f6b1ff8a46b09c6a24b622cb57ac5659055a65b6e1943c910160405180910390a250565b6000805460025460035491929091819061124b57600061124f565b6003545b6001549495939490936001600160a01b0390911692509050565b60006060600080600380549050116112b95760405162461bcd60e51b8152602060048201526013602482015272139bc818da185b99d95cc81b585919481e595d606a1b6044820152606401610368565b60038054600091906112cd90600190611abc565b815481106112dd576112dd611acf565b90600052602060002090600502016040518060a00160405290816000820160009054906101000a90046001600160a01b03166001600160a01b03166001600160a01b03168152602001600182015481526020016002820154815260200160038201805461134990611974565b80601f016020809104026020016040519081016040528092919081815260200182805461137590611974565b80156113c25780601f10611397576101008083540402835291602001916113c2565b820191906000526020600020905b8154815290600101906020018083116113a557829003601f168201915b5050509183525050600491909101546020909101528051606082015160809092015190969195509350915050565b6001546001600160a01b0316331461141a5760405162461bcd60e51b815260040161036890611b41565b6001600160a01b0381166114705760405162461bcd60e51b815260206004820181905260248201527f4e6577206f776e65722063616e6e6f74206265207a65726f20616464726573736044820152606401610368565b600180546001600160a01b0319166001600160a01b0392909216919091179055565b80600a036114ee57600080516020611b8383398151915281426040516114e39291909182526060602083018190526009908301526846697273742031302160b81b6080830152604082015260a00190565b60405180910390a150565b8060640361153e57600080516020611b8383398151915281426040516114e39291909182526060602083018190526008908301526743656e747572792160c01b6080830152604082015260a00190565b806103e80361159057600080516020611b8383398151915281426040516114e39291909182526060602083018190526009908301526854686f7573616e642160b81b6080830152604082015260a00190565b80600919036115e557600080516020611b8383398151915281426040516114e3929190918252606060208301819052600c908301526b4e656761746976652031302160a01b6080830152604082015260a00190565b806063190361163f57600080516020611b8383398151915281426040516114e3929190918252606060208301819052601190830152704e656761746976652043656e747572792160781b6080830152604082015260a00190565b8015801561164f57506003546001105b15610adc57600080516020611b8383398151915281426040516114e3929190918252606060208301819052600d908301526c4261636b20746f205a65726f2160981b6080830152604082015260a00190565b6000602082840312156116b357600080fd5b5035919050565b600081518084526020840193506020830160005b828110156116ec5781518652602095860195909101906001016116ce565b5093949350505050565b6000815180845260005b8181101561171c57602081850181015186830182015201611700565b506000602082860101526020601f19601f83011685010191505092915050565b600082825180855260208501945060208160051b8301016020850160005b8381101561178c57601f198584030188526117768383516116f6565b602098890198909350919091019060010161175a565b50909695505050505050565b60a08082528651908201819052600090602088019060c0840190835b818110156117db5783516001600160a01b03168352602093840193909201916001016117b4565b505083810360208501526117ef81896116ba565b915050828103604084015261180481876116ba565b90508281036060840152611818818661173c565b9050828103608084015261182c81856116ba565b98975050505050505050565b60006020828403121561184a57600080fd5b81356001600160a01b038116811461186157600080fd5b9392505050565b60208152600061186160208301846116f6565b60018060a01b038616815284602082015283604082015260a0606082015260006118a860a08301856116f6565b90508260808301529695505050505050565b6001600160a01b03841681526060602082018190526000906118de908301856116f6565b9050826040830152949350505050565b634e487b7160e01b600052601160045260246000fd5b8082018281126000831280158216821582161715611924576119246118ee565b505092915050565b60006001820161193e5761193e6118ee565b5060010190565b80820180821115611958576119586118ee565b92915050565b634e487b7160e01b600052604160045260246000fd5b600181811c9082168061198857607f821691505b6020821081036119a857634e487b7160e01b600052602260045260246000fd5b50919050565b601f8211156119f857806000526020600020601f840160051c810160208510156119d55750805b601f840160051c820191505b818110156119f557600081556001016119e1565b50505b505050565b815167ffffffffffffffff811115611a1757611a1761195e565b611a2b81611a258454611974565b846119ae565b6020601f821160018114611a5f5760008315611a475750848201515b600019600385901b1c1916600184901b1784556119f5565b600084815260208120601f198516915b82811015611a8f5787850151825560209485019460019092019101611a6f565b5084821015611aad5786840151600019600387901b60f8161c191681555b50505050600190811b01905550565b81810381811115611958576119586118ee565b634e487b7160e01b600052603260045260246000fd5b6000600160ff1b8201611afa57611afa6118ee565b506000190190565b8181036000831280158383131683831282161715611b2257611b226118ee565b5092915050565b60006001600160ff1b01820161193e5761193e6118ee565b60208082526021908201527f4f6e6c79206f776e65722063616e2063616c6c20746869732066756e6374696f6040820152603760f91b60608201526080019056fe36241cd26bb8a74762dcdd8e58f5d383e100d793584047ec7b770dc5408ba948a2646970667358221220f6b78acb536e69325fc0c3e81993a8498bee8899b50890e30e3b5cebb1543e9b64736f6c634300081c0033",
  "linkReferences": {},
  "deployedLinkReferences": {}
}