{
  "_format": "hh-sol-artifact-1",
  "contractName": "MessageBoard",
  "sourceName": "contracts/MessageBoard.sol",
  "abi": [
    {
      "anonymous": false,
      "inputs": [
        {
          "indexed": true,
          "internalType": "uint256",
          "name": "messageId",
          "type": "uint256"
        },
        {
          "indexed": true,
          "internalType": "address",
          "name": "author",
          "type": "address"
        }
      ],
      "name": "MessageDeleted",
      "type": "event"
    },
    {
      "anonymous": false,
      "inputs": [
        {
          "indexed": true,
          "internalType": "uint256",
          "name": "messageId",
          "type": "uint256"
        },
        {
          "indexed": true,
          "internalType": "address",
          "name": "liker",
          "type": "address"
        }
      ],
      "name": "MessageLiked",
      "type": "event"
    },
    {
      "anonymous": false,
      "inputs": [
        {
          "indexed": true,
          "internalType": "uint256",
          "name": "messageId",
          "type": "uint256"
        },
        {
          "indexed": true,
          "internalType": "address",
          "name": "author",
          "type": "address"
        },
        {
          "indexed": false,
          "internalType": "string",
          "name": "content",
          "type": "string"
        }
      ],
      "name": "MessagePosted",
      "type": "event"
    },
    {
      "inputs": [
        {
          "internalType": "uint256",
          "name": "_messageId",
          "type": "uint256"
        }
      ],
      "name": "deleteMessage",
      "outputs": [],
      "stateMutability": "nonpayable",
      "type": "function"
    },
    {
      "inputs": [
        {
          "internalType": "uint256",
          "name": "_messageId",
          "type": "uint256"
        }
      ],
      "name": "getMessage",
      "outputs": [
        {
          "internalType": "uint256",
          "name": "id",
          "type": "uint256"
        },
        {
          "internalType": "address",
          "name": "author",
          "type": "address"
        },
        {
          "internalType": "string",
          "name": "content",
          "type": "string"
        },
        {
          "internalType": "uint256",
          "name": "timestamp",
          "type": "uint256"
        },
        {
          "internalType": "uint256",
          "name": "likes",
          "type": "uint256"
        },
        {
          "internalType": "bool",
          "name": "active",
          "type": "bool"
        }
      ],
      "stateMutability": "view",
      "type": "function"
    },
    {
      "inputs": [],
      "name": "getPlatformStats",
      "outputs": [
        {
          "internalType": "uint256",
          "name": "totalActiveMessages",
          "type": "uint256"
        },
        {
          "internalType": "uint256",
          "name": "totalLikesGiven",
          "type": "uint256"
        },
        {
          "internalType": "uint256",
          "name": "totalUsers",
          "type": "uint256"
        }
      ],
      "stateMutability": "view",
      "type": "function"
    },
    {
      "inputs": [],
      "name": "getRecentMessages",
      "outputs": [
        {
          "internalType": "uint256[]",
          "name": "",
          "type": "uint256[]"
        }
      ],
      "stateMutability": "view",
      "type": "function"
    },
    {
      "inputs": [],
      "name": "getTopMessages",
      "outputs": [
        {
          "internalType": "uint256[]",
          "name": "",
          "type": "uint256[]"
        }
      ],
      "stateMutability": "view",
      "type": "function"
    },
    {
      "inputs": [
        {
          "internalType": "address",
          "name": "_user",
          "type": "address"
        }
      ],
      "name": "getUserMessages",
      "outputs": [
        {
          "internalType": "uint256[]",
          "name": "",
          "type": "uint256[]"
        }
      ],
      "stateMutability": "view",
      "type": "function"
    },
    {
      "inputs": [
        {
          "internalType": "address",
          "name": "_user",
          "type": "address"
        }
      ],
      "name": "getUserStats",
      "outputs": [
        {
          "internalType": "uint256",
          "name": "messageCount",
          "type": "uint256"
        },
        {
          "internalType": "uint256",
          "name": "totalLikesReceived",
          "type": "uint256"
        }
      ],
      "stateMutability": "view",
      "type": "function"
    },
    {
      "inputs": [
        {
          "internalType": "uint256",
          "name": "",
          "type": "uint256"
        },
        {
          "internalType": "address",
          "name": "",
          "type": "address"
        }
      ],
      "name": "hasLiked",
      "outputs": [
        {
          "internalType": "bool",
          "name": "",
          "type": "bool"
        }
      ],
      "stateMutability": "view",
      "type": "function"
    },
    {
      "inputs": [
        {
          "internalType": "uint256",
          "name": "_messageId",
          "type": "uint256"
        },
        {
          "internalType": "address",
          "name": "_user",
          "type": "address"
        }
      ],
      "name": "hasUserLiked",
      "outputs": [
        {
          "internalType": "bool",
          "name": "",
          "type": "bool"
        }
      ],
      "stateMutability": "view",
      "type": "function"
    },
    {
      "inputs": [
        {
          "internalType": "uint256",
          "name": "_messageId",
          "type": "uint256"
        }
      ],
      "name": "likeMessage",
      "outputs": [],
      "stateMutability": "nonpayable",
      "type": "function"
    },
    {
      "inputs": [
        {
          "internalType": "uint256",
          "name": "",
          "type": "uint256"
        }
      ],
      "name": "messages",
      "outputs": [
        {
          "internalType": "uint256",
          "name": "id",
          "type": "uint256"
        },
        {
          "internalType": "address",
          "name": "author",
          "type": "address"
        },
        {
          "internalType": "string",
          "name": "content",
          "type": "string"
        },
        {
          "internalType": "uint256",
          "name": "timestamp",
          "type": "uint256"
        },
        {
          "internalType": "uint256",
          "name": "likes",
          "type": "uint256"
        },
        {
          "internalType": "bool",
          "name": "active",
          "type": "bool"
        }
      ],
      "stateMutability": "view",
      "type": "function"
    },
    {
      "inputs": [
        {
          "internalType": "string",
          "name": "_content",
          "type": "string"
        }
      ],
      "name": "postMessage",
      "outputs": [],
      "stateMutability": "nonpayable",
      "type": "function"
    },
    {
      "inputs": [],
      "name": "totalLikes",
      "outputs": [
        {
          "internalType": "uint256",
          "name": "",
          "type": "uint256"
        }
      ],
      "stateMutability": "view",
      "type": "function"
    },
    {
      "inputs": [],
      "name": "totalMessages",
      "outputs": [
        {
          "internalType": "uint256",
          "name": "",
          "type": "uint256"
        }
      ],
      "stateMutability": "view",
      "type": "function"
    },
    {
      "inputs": [
        {
          "internalType": "address",
          "name": "",
          "type": "address"
        }
      ],
      "name": "userMessageCount",
      "outputs": [
        {
          "internalType": "uint256",
          "name": "",
          "type": "uint256"
        }
      ],
      "stateMutability": "view",
      "type": "function"
    },
    {
      "inputs": [
        {
          "internalType": "address",
          "name": "",
          "type": "address"
        },
        {
          "internalType": "uint256",
          "name": "",
          "type": "uint256"
        }
      ],
      "name": "userMessages",
      "outputs": [
        {
          "internalType": "uint256",
          "name": "",
          "type": "uint256"
        }
      ],
      "stateMutability": "view",
      "type": "function"
    },
    {
      "inputs": [
        {
          "internalType": "address",
          "name": "",
          "type": "address"
        }
      ],
      "name": "userTotalLikes",
      "outputs": [
        {
          "internalType": "uint256",
          "name": "",
          "type": "uint256"
        }
      ],
      "stateMutability": "view",
      "type": "function"
    }
  ],
  "bytecode": "0x60808060405234601a57600160005561110d90816100208239f35b600080fdfe6080604052600436101561001257600080fd5b60003560e01c80630d80fefd14610d745780630f90d90014610d56578063136d888314610caf578063178769c914610c75578063402f0fa0146105545780634baeb4db14610a7e5780634e43603a14610a325780635a506ebc146109f85780636630f88f1461065c57806386f79edb146105a15780638fb7092c146105545780639428cda3146104fb578063951166c0146104dd57806398d63d3d1461045a578063b888690a14610307578063e0830a95146101d75763fea39311146100d757600080fd5b346101d25760003660031901126101d2576040516101606100f88183610e2d565b600a8252601f19013660208301376000805460001981019081116101be575b801515806101b4575b1561016e5780600052600360205260ff6005604060002001541661014d575b6101489061106c565b610117565b90610166818361016061014894876110c3565b52611006565b91905061013f565b5061017881611091565b9160005b82811061019557604051806101918682610fcc565b0390f35b806101a2600192846110c3565b516101ad82876110c3565b520161017c565b50600a8210610120565b634e487b7160e01b82526011600452602482fd5b600080fd5b346101d25760003660031901126101d2576040516101f660c082610e2d565b6005815260a036602083013760008054908060015b838110806102fd575b156102ba5780600052600360205260ff60056040600020015416806102a0575b610247575b61024290611006565b61020b565b91808361016061025793886110c3565b9160058303610239579050600084516004101561028c575060a084015160009081526003602052604090206004015490610239565b634e487b7160e01b81526032600452602490fd5b508060005260036020528160046040600020015411610234565b84836102c581611091565b9160005b8281106102de57604051806101918682610fcc565b806102eb600192846110c3565b516102f682876110c3565b52016102c9565b5060058310610214565b346101d25760203660031901126101d2576004358015158061044f575b61032d9061102b565b6000818152600360205260409020600101546001600160a01b031633036104175780600052600360205260ff60056040600020015416156103d257806000526003602052600560406000200160ff19815416905561038c60015461106c565b60015533600052600660205260406000206103a7815461106c565b905533907ffb2787660bc2cbdfc289209f8fc92a07a17109a8f520025df91f322e51da7947600080a3005b60405162461bcd60e51b815260206004820152601760248201527f4d65737361676520616c72656164792064656c657465640000000000000000006044820152606490fd5b60405162461bcd60e51b815260206004820152601060248201526f4e6f7420796f7572206d65737361676560801b6044820152606490fd5b506000548110610324565b346101d25760203660031901126101d2576001600160a01b0361047b610f72565b166000526004602052604060002060405190816020825491828152019160005260206000209060005b8181106104c757610191856104bb81870382610e2d565b60405191829182610fcc565b82548452602090930192600192830192016104a4565b346101d25760003660031901126101d2576020600154604051908152f35b346101d25760403660031901126101d257610514610f72565b6001600160a01b03166000908152600460205260409020805460243591908210156101d25760209161054591610f9e565b90549060031b1c604051908152f35b346101d25760403660031901126101d25761056d610f88565b600435600052600560205260406000209060018060a01b0316600052602052602060ff604060002054166040519015158152f35b346101d25760203660031901126101d25760043580151580610651575b6105c79061102b565b600052600360205260406000206040516105e081610e11565b8154815260018201546001600160a01b031660208201908152906101919061060a60028501610e4f565b93846040830152600381015480606084015260ff60056004840154938460808701520154161515928360a0820152519460018060a01b039051169560405196879687610f34565b5060005481106105be565b346101d25760203660031901126101d25760043567ffffffffffffffff81116101d257366023820112156101d257806004013567ffffffffffffffff811161088c57604051916106b6601f8301601f191660200184610e2d565b81835236602483830101116101d2578160009260246020930183860137830101528051156109b35761011881511161096057600054906106f582611006565b6000556040519161070583610e11565b8083526020830133815260408401938385526060810142815260808201906000825260a083019360018552856000526003602052604060002093518455600184019060018060a01b039051166bffffffffffffffffffffffff60a01b82541617905560028301965196875167ffffffffffffffff811161088c576107898254610dd7565b601f8111610918575b506020601f82116001146108ad57819060059798999a6000926108a2575b50508160011b916000199060031b1c19161790555b516003830155516004820155019051151560ff80198354169116179055336000526004602052604060002080546801000000000000000081101561088c5761081291600182018155610f9e565b81549060031b9083821b91600019901b1916179055336000526006602052604060002061083f8154611006565b905561084c600154611006565b6001557f16effde6b8c5f78279aca5974057ff6b6fd8c9ab5e96994c7f1b62cbfcbbd78b604051602081528061088733956020830190610ef3565b0390a3005b634e487b7160e01b600052604160045260246000fd5b015190508a806107b0565b601f1982169983600052816000209a60005b818110610900575091600598999a9b918460019594106108e7575b505050811b0190556107c5565b015160001960f88460031b161c191690558a80806108da565b838301518d556001909c019b602093840193016108bf565b826000526020600020601f830160051c81019160208410610956575b601f0160051c01905b81811061094a5750610792565b6000815560010161093d565b9091508190610934565b60405162461bcd60e51b815260206004820152602560248201527f4d65737361676520746f6f206c6f6e6720286d61782032383020636861726163604482015264746572732960d81b6064820152608490fd5b60405162461bcd60e51b815260206004820152601760248201527f4d6573736167652063616e6e6f7420626520656d7074790000000000000000006044820152606490fd5b346101d25760203660031901126101d2576001600160a01b03610a19610f72565b1660005260066020526020604060002054604051908152f35b346101d25760203660031901126101d25760406001600160a01b03610a55610f72565b168060005260066020528160002054906000526007602052816000205482519182526020820152f35b346101d25760203660031901126101d25760043580151580610c6a575b610aa49061102b565b80600052600360205260ff6005604060002001541615610c3057600081815260056020908152604080832033845290915290205460ff16610beb576000818152600360205260409020600101546001600160a01b03163314610ba6578060005260036020526004604060002001610b1b8154611006565b905560008181526005602090815260408083203384528252808320805460ff191660019081179091558484526003835281842001546001600160a01b03168352600790915290208054610b6d90611006565b9055610b7a600254611006565b60025533907f518ee79129b832b137fb93434354b830b11710eebd5204954b1da274475fa285600080a3005b60405162461bcd60e51b815260206004820152601c60248201527f43616e6e6f74206c696b6520796f7572206f776e206d657373616765000000006044820152606490fd5b60405162461bcd60e51b815260206004820152601a60248201527f416c7265616479206c696b65642074686973206d6573736167650000000000006044820152606490fd5b60405162461bcd60e51b81526020600482015260126024820152714d657373616765206e6f742061637469766560701b6044820152606490fd5b506000548110610a9b565b346101d25760203660031901126101d2576001600160a01b03610c96610f72565b1660005260076020526020604060002054604051908152f35b346101d25760003660031901126101d2576000805460015b818110610cea576060836001549060025460405192835260208301526040820152f35b80600052600360205260ff6005604060002001541680610d26575b610d12575b600101610cc7565b91610d1e600191611006565b929050610d0a565b5080600052600360205260018060a01b036001604060002001541660005260066020526040600020541515610d05565b346101d25760003660031901126101d2576020600254604051908152f35b346101d25760203660031901126101d2576004356000908152600360205260409020805460018201546001600160a01b03169161019190610db760028201610e4f565b90600381015460ff60056004840154930154169260405196879687610f34565b90600182811c92168015610e07575b6020831014610df157565b634e487b7160e01b600052602260045260246000fd5b91607f1691610de6565b60c0810190811067ffffffffffffffff82111761088c57604052565b90601f8019910116810190811067ffffffffffffffff82111761088c57604052565b9060405191826000825492610e6384610dd7565b8084529360018116908115610ed15750600114610e8a575b50610e8892500383610e2d565b565b90506000929192526020600020906000915b818310610eb5575050906020610e889282010138610e7b565b6020919350806001915483858901015201910190918492610e9c565b905060209250610e8894915060ff191682840152151560051b82010138610e7b565b919082519283825260005b848110610f1f575050826000602080949584010152601f8019910116010190565b80602080928401015182828601015201610efe565b94919260a094979693610f60928752600180871b0316602087015260c0604087015260c0860190610ef3565b95606085015260808401521515910152565b600435906001600160a01b03821682036101d257565b602435906001600160a01b03821682036101d257565b8054821015610fb65760005260206000200190600090565b634e487b7160e01b600052603260045260246000fd5b602060408183019282815284518094520192019060005b818110610ff05750505090565b8251845260209384019390920191600101610fe3565b60001981146110155760010190565b634e487b7160e01b600052601160045260246000fd5b1561103257565b60405162461bcd60e51b8152602060048201526012602482015271125b9d985b1a59081b595cdcd859d948125160721b6044820152606490fd5b8015611015576000190190565b67ffffffffffffffff811161088c5760051b60200190565b9061109b82611079565b6110a86040519182610e2d565b82815280926110b9601f1991611079565b0190602036910137565b8051821015610fb65760209160051b01019056fea26469706673582212202e283359fca8856e9c2895c907b60bcb374cac4011fbbf00078eb58ed28f182a64736f6c634300081c0033",
  "linkReferences": {},
  "deployedLinkReferences": {}
}