{
  "_format": "hh-sol-artifact-1",
  "contractName": "NFTMarketplace",
  "sourceName": "contracts/NFTMarketplace.sol",
  "abi": [
    {
      "inputs": [],
      "stateMutability": "nonpayable",
      "type": "constructor"
    },
    {
      "inputs": [
        {
          "internalType": "address",
          "name": "sender",
          "type": "address"
        },
        {
          "internalType": "uint256",
          "name": "tokenId",
          "type": "uint256"
        },
        {
          "internalType": "address",
          "name": "owner",
          "type": "address"
        }
      ],
      "name": "ERC721IncorrectOwner",
      "type": "error"
    },
    {
      "inputs": [
        {
          "internalType": "address",
          "name": "operator",
          "type": "address"
        },
        {
          "internalType": "uint256",
          "name": "tokenId",
          "type": "uint256"
        }
      ],
      "name": "ERC721InsufficientApproval",
      "type": "error"
    },
    {
      "inputs": [
        {
          "internalType": "address",
          "name": "approver",
          "type": "address"
        }
      ],
      "name": "ERC721InvalidApprover",
      "type": "error"
    },
    {
      "inputs": [
        {
          "internalType": "address",
          "name": "operator",
          "type": "address"
        }
      ],
      "name": "ERC721InvalidOperator",
      "type": "error"
    },
    {
      "inputs": [
        {
          "internalType": "address",
          "name": "owner",
          "type": "address"
        }
      ],
      "name": "ERC721InvalidOwner",
      "type": "error"
    },
    {
      "inputs": [
        {
          "internalType": "address",
          "name": "receiver",
          "type": "address"
        }
      ],
      "name": "ERC721InvalidReceiver",
      "type": "error"
    },
    {
      "inputs": [
        {
          "internalType": "address",
          "name": "sender",
          "type": "address"
        }
      ],
      "name": "ERC721InvalidSender",
      "type": "error"
    },
    {
      "inputs": [
        {
          "internalType": "uint256",
          "name": "tokenId",
          "type": "uint256"
        }
      ],
      "name": "ERC721NonexistentToken",
      "type": "error"
    },
    {
      "inputs": [],
      "name": "EnforcedPause",
      "type": "error"
    },
    {
      "inputs": [],
      "name": "ExpectedPause",
      "type": "error"
    },
    {
      "inputs": [
        {
          "internalType": "address",
          "name": "owner",
          "type": "address"
        }
      ],
      "name": "OwnableInvalidOwner",
      "type": "error"
    },
    {
      "inputs": [
        {
          "internalType": "address",
          "name": "account",
          "type": "address"
        }
      ],
      "name": "OwnableUnauthorizedAccount",
      "type": "error"
    },
    {
      "inputs": [],
      "name": "ReentrancyGuardReentrantCall",
      "type": "error"
    },
    {
      "anonymous": false,
      "inputs": [
        {
          "indexed": true,
          "internalType": "address",
          "name": "owner",
          "type": "address"
        },
        {
          "indexed": true,
          "internalType": "address",
          "name": "approved",
          "type": "address"
        },
        {
          "indexed": true,
          "internalType": "uint256",
          "name": "tokenId",
          "type": "uint256"
        }
      ],
      "name": "Approval",
      "type": "event"
    },
    {
      "anonymous": false,
      "inputs": [
        {
          "indexed": true,
          "internalType": "address",
          "name": "owner",
          "type": "address"
        },
        {
          "indexed": true,
          "internalType": "address",
          "name": "operator",
          "type": "address"
        },
        {
          "indexed": false,
          "internalType": "bool",
          "name": "approved",
          "type": "bool"
        }
      ],
      "name": "ApprovalForAll",
      "type": "event"
    },
    {
      "anonymous": false,
      "inputs": [
        {
          "indexed": true,
          "internalType": "uint256",
          "name": "tokenId",
          "type": "uint256"
        },
        {
          "indexed": true,
          "internalType": "address",
          "name": "seller",
          "type": "address"
        },
        {
          "indexed": false,
          "internalType": "uint256",
          "name": "startingPrice",
          "type": "uint256"
        },
        {
          "indexed": false,
          "internalType": "uint256",
          "name": "endTime",
          "type": "uint256"
        }
      ],
      "name": "AuctionCreated",
      "type": "event"
    },
    {
      "anonymous": false,
      "inputs": [
        {
          "indexed": true,
          "internalType": "uint256",
          "name": "tokenId",
          "type": "uint256"
        },
        {
          "indexed": true,
          "internalType": "address",
          "name": "winner",
          "type": "address"
        },
        {
          "indexed": false,
          "internalType": "uint256",
          "name": "winningBid",
          "type": "uint256"
        }
      ],
      "name": "AuctionEnded",
      "type": "event"
    },
    {
      "anonymous": false,
      "inputs": [
        {
          "indexed": false,
          "internalType": "uint256",
          "name": "_fromTokenId",
          "type": "uint256"
        },
        {
          "indexed": false,
          "internalType": "uint256",
          "name": "_toTokenId",
          "type": "uint256"
        }
      ],
      "name": "BatchMetadataUpdate",
      "type": "event"
    },
    {
      "anonymous": false,
      "inputs": [
        {
          "indexed": true,
          "internalType": "uint256",
          "name": "tokenId",
          "type": "uint256"
        },
        {
          "indexed": true,
          "internalType": "address",
          "name": "bidder",
          "type": "address"
        },
        {
          "indexed": false,
          "internalType": "uint256",
          "name": "amount",
          "type": "uint256"
        }
      ],
      "name": "BidPlaced",
      "type": "event"
    },
    {
      "anonymous": false,
      "inputs": [
        {
          "indexed": true,
          "internalType": "uint256",
          "name": "collectionId",
          "type": "uint256"
        },
        {
          "indexed": true,
          "internalType": "address",
          "name": "creator",
          "type": "address"
        },
        {
          "indexed": false,
          "internalType": "string",
          "name": "name",
          "type": "string"
        }
      ],
      "name": "CollectionCreated",
      "type": "event"
    },
    {
      "anonymous": false,
      "inputs": [
        {
          "indexed": false,
          "internalType": "uint256",
          "name": "_tokenId",
          "type": "uint256"
        }
      ],
      "name": "MetadataUpdate",
      "type": "event"
    },
    {
      "anonymous": false,
      "inputs": [
        {
          "indexed": true,
          "internalType": "uint256",
          "name": "tokenId",
          "type": "uint256"
        },
        {
          "indexed": true,
          "internalType": "address",
          "name": "seller",
          "type": "address"
        },
        {
          "indexed": false,
          "internalType": "uint256",
          "name": "price",
          "type": "uint256"
        }
      ],
      "name": "NFTListed",
      "type": "event"
    },
    {
      "anonymous": false,
      "inputs": [
        {
          "indexed": true,
          "internalType": "uint256",
          "name": "tokenId",
          "type": "uint256"
        },
        {
          "indexed": true,
          "internalType": "address",
          "name": "creator",
          "type": "address"
        },
        {
          "indexed": false,
          "internalType": "string",
          "name": "tokenURI",
          "type": "string"
        },
        {
          "indexed": false,
          "internalType": "uint256",
          "name": "royaltyPercentage",
          "type": "uint256"
        },
        {
          "indexed": false,
          "internalType": "string",
          "name": "category",
          "type": "string"
        },
        {
          "indexed": false,
          "internalType": "uint256",
          "name": "collectionId",
          "type": "uint256"
        }
      ],
      "name": "NFTMinted",
      "type": "event"
    },
    {
      "anonymous": false,
      "inputs": [
        {
          "indexed": true,
          "internalType": "uint256",
          "name": "tokenId",
          "type": "uint256"
        },
        {
          "indexed": true,
          "internalType": "address",
          "name": "seller",
          "type": "address"
        },
        {
          "indexed": true,
          "internalType": "address",
          "name": "buyer",
          "type": "address"
        },
        {
          "indexed": false,
          "internalType": "uint256",
          "name": "price",
          "type": "uint256"
        },
        {
          "indexed": false,
          "internalType": "uint256",
          "name": "royaltyAmount",
          "type": "uint256"
        },
        {
          "indexed": false,
          "internalType": "uint256",
          "name": "marketplaceFeeAmount",
          "type": "uint256"
        }
      ],
      "name": "NFTSold",
      "type": "event"
    },
    {
      "anonymous": false,
      "inputs": [
        {
          "indexed": true,
          "internalType": "address",
          "name": "previousOwner",
          "type": "address"
        },
        {
          "indexed": true,
          "internalType": "address",
          "name": "newOwner",
          "type": "address"
        }
      ],
      "name": "OwnershipTransferred",
      "type": "event"
    },
    {
      "anonymous": false,
      "inputs": [
        {
          "indexed": false,
          "internalType": "address",
          "name": "account",
          "type": "address"
        }
      ],
      "name": "Paused",
      "type": "event"
    },
    {
      "anonymous": false,
      "inputs": [
        {
          "indexed": true,
          "internalType": "uint256",
          "name": "tokenId",
          "type": "uint256"
        },
        {
          "indexed": true,
          "internalType": "address",
          "name": "creator",
          "type": "address"
        },
        {
          "indexed": false,
          "internalType": "uint256",
          "name": "amount",
          "type": "uint256"
        }
      ],
      "name": "RoyaltyPaid",
      "type": "event"
    },
    {
      "anonymous": false,
      "inputs": [
        {
          "indexed": true,
          "internalType": "address",
          "name": "from",
          "type": "address"
        },
        {
          "indexed": true,
          "internalType": "address",
          "name": "to",
          "type": "address"
        },
        {
          "indexed": true,
          "internalType": "uint256",
          "name": "tokenId",
          "type": "uint256"
        }
      ],
      "name": "Transfer",
      "type": "event"
    },
    {
      "anonymous": false,
      "inputs": [
        {
          "indexed": false,
          "internalType": "address",
          "name": "account",
          "type": "address"
        }
      ],
      "name": "Unpaused",
      "type": "event"
    },
    {
      "inputs": [],
      "name": "BASIS_POINTS",
      "outputs": [
        {
          "internalType": "uint256",
          "name": "",
          "type": "uint256"
        }
      ],
      "stateMutability": "view",
      "type": "function"
    },
    {
      "inputs": [],
      "name": "MAX_ROYALTY",
      "outputs": [
        {
          "internalType": "uint256",
          "name": "",
          "type": "uint256"
        }
      ],
      "stateMutability": "view",
      "type": "function"
    },
    {
      "inputs": [
        {
          "internalType": "uint256",
          "name": "",
          "type": "uint256"
        }
      ],
      "name": "activeAuctions",
      "outputs": [
        {
          "internalType": "uint256",
          "name": "",
          "type": "uint256"
        }
      ],
      "stateMutability": "view",
      "type": "function"
    },
    {
      "inputs": [
        {
          "internalType": "string",
          "name": "category",
          "type": "string"
        }
      ],
      "name": "addCategory",
      "outputs": [],
      "stateMutability": "nonpayable",
      "type": "function"
    },
    {
      "inputs": [
        {
          "internalType": "uint256",
          "name": "",
          "type": "uint256"
        }
      ],
      "name": "allNFTs",
      "outputs": [
        {
          "internalType": "uint256",
          "name": "",
          "type": "uint256"
        }
      ],
      "stateMutability": "view",
      "type": "function"
    },
    {
      "inputs": [
        {
          "internalType": "address",
          "name": "to",
          "type": "address"
        },
        {
          "internalType": "uint256",
          "name": "tokenId",
          "type": "uint256"
        }
      ],
      "name": "approve",
      "outputs": [],
      "stateMutability": "nonpayable",
      "type": "function"
    },
    {
      "inputs": [
        {
          "internalType": "uint256",
          "name": "",
          "type": "uint256"
        },
        {
          "internalType": "uint256",
          "name": "",
          "type": "uint256"
        }
      ],
      "name": "auctionBids",
      "outputs": [
        {
          "internalType": "address",
          "name": "bidder",
          "type": "address"
        },
        {
          "internalType": "uint256",
          "name": "amount",
          "type": "uint256"
        },
        {
          "internalType": "uint256",
          "name": "timestamp",
          "type": "uint256"
        }
      ],
      "stateMutability": "view",
      "type": "function"
    },
    {
      "inputs": [
        {
          "internalType": "uint256",
          "name": "",
          "type": "uint256"
        }
      ],
      "name": "auctions",
      "outputs": [
        {
          "internalType": "uint256",
          "name": "tokenId",
          "type": "uint256"
        },
        {
          "internalType": "address",
          "name": "seller",
          "type": "address"
        },
        {
          "internalType": "uint256",
          "name": "startingPrice",
          "type": "uint256"
        },
        {
          "internalType": "uint256",
          "name": "currentBid",
          "type": "uint256"
        },
        {
          "internalType": "address",
          "name": "currentBidder",
          "type": "address"
        },
        {
          "internalType": "uint256",
          "name": "endTime",
          "type": "uint256"
        },
        {
          "internalType": "bool",
          "name": "active",
          "type": "bool"
        },
        {
          "internalType": "bool",
          "name": "ended",
          "type": "bool"
        }
      ],
      "stateMutability": "view",
      "type": "function"
    },
    {
      "inputs": [
        {
          "internalType": "address",
          "name": "owner",
          "type": "address"
        }
      ],
      "name": "balanceOf",
      "outputs": [
        {
          "internalType": "uint256",
          "name": "",
          "type": "uint256"
        }
      ],
      "stateMutability": "view",
      "type": "function"
    },
    {
      "inputs": [
        {
          "internalType": "uint256",
          "name": "tokenId",
          "type": "uint256"
        }
      ],
      "name": "buyNFT",
      "outputs": [],
      "stateMutability": "payable",
      "type": "function"
    },
    {
      "inputs": [
        {
          "internalType": "uint256",
          "name": "",
          "type": "uint256"
        }
      ],
      "name": "categories",
      "outputs": [
        {
          "internalType": "string",
          "name": "",
          "type": "string"
        }
      ],
      "stateMutability": "view",
      "type": "function"
    },
    {
      "inputs": [
        {
          "internalType": "string",
          "name": "",
          "type": "string"
        },
        {
          "internalType": "uint256",
          "name": "",
          "type": "uint256"
        }
      ],
      "name": "categoryNFTs",
      "outputs": [
        {
          "internalType": "uint256",
          "name": "",
          "type": "uint256"
        }
      ],
      "stateMutability": "view",
      "type": "function"
    },
    {
      "inputs": [
        {
          "internalType": "uint256",
          "name": "",
          "type": "uint256"
        }
      ],
      "name": "collections",
      "outputs": [
        {
          "internalType": "uint256",
          "name": "id",
          "type": "uint256"
        },
        {
          "internalType": "string",
          "name": "name",
          "type": "string"
        },
        {
          "internalType": "string",
          "name": "description",
          "type": "string"
        },
        {
          "internalType": "address",
          "name": "creator",
          "type": "address"
        },
        {
          "internalType": "uint256",
          "name": "createdAt",
          "type": "uint256"
        },
        {
          "internalType": "bool",
          "name": "verified",
          "type": "bool"
        }
      ],
      "stateMutability": "view",
      "type": "function"
    },
    {
      "inputs": [
        {
          "internalType": "uint256",
          "name": "tokenId",
          "type": "uint256"
        },
        {
          "internalType": "uint256",
          "name": "startingPrice",
          "type": "uint256"
        },
        {
          "internalType": "uint256",
          "name": "duration",
          "type": "uint256"
        }
      ],
      "name": "createAuction",
      "outputs": [],
      "stateMutability": "nonpayable",
      "type": "function"
    },
    {
      "inputs": [
        {
          "internalType": "string",
          "name": "name",
          "type": "string"
        },
        {
          "internalType": "string",
          "name": "description",
          "type": "string"
        }
      ],
      "name": "createCollection",
      "outputs": [
        {
          "internalType": "uint256",
          "name": "",
          "type": "uint256"
        }
      ],
      "stateMutability": "nonpayable",
      "type": "function"
    },
    {
      "inputs": [
        {
          "internalType": "uint256",
          "name": "tokenId",
          "type": "uint256"
        }
      ],
      "name": "endAuction",
      "outputs": [],
      "stateMutability": "nonpayable",
      "type": "function"
    },
    {
      "inputs": [],
      "name": "getActiveAuctions",
      "outputs": [
        {
          "internalType": "uint256[]",
          "name": "",
          "type": "uint256[]"
        }
      ],
      "stateMutability": "view",
      "type": "function"
    },
    {
      "inputs": [
        {
          "internalType": "uint256",
          "name": "tokenId",
          "type": "uint256"
        }
      ],
      "name": "getApproved",
      "outputs": [
        {
          "internalType": "address",
          "name": "",
          "type": "address"
        }
      ],
      "stateMutability": "view",
      "type": "function"
    },
    {
      "inputs": [
        {
          "internalType": "uint256",
          "name": "tokenId",
          "type": "uint256"
        }
      ],
      "name": "getAuction",
      "outputs": [
        {
          "internalType": "uint256",
          "name": "id",
          "type": "uint256"
        },
        {
          "internalType": "address",
          "name": "seller",
          "type": "address"
        },
        {
          "internalType": "uint256",
          "name": "startingPrice",
          "type": "uint256"
        },
        {
          "internalType": "uint256",
          "name": "currentBid",
          "type": "uint256"
        },
        {
          "internalType": "address",
          "name": "currentBidder",
          "type": "address"
        },
        {
          "internalType": "uint256",
          "name": "endTime",
          "type": "uint256"
        },
        {
          "internalType": "bool",
          "name": "active",
          "type": "bool"
        },
        {
          "internalType": "bool",
          "name": "ended",
          "type": "bool"
        }
      ],
      "stateMutability": "view",
      "type": "function"
    },
    {
      "inputs": [
        {
          "internalType": "uint256",
          "name": "tokenId",
          "type": "uint256"
        }
      ],
      "name": "getAuctionBids",
      "outputs": [
        {
          "components": [
            {
              "internalType": "address",
              "name": "bidder",
              "type": "address"
            },
            {
              "internalType": "uint256",
              "name": "amount",
              "type": "uint256"
            },
            {
              "internalType": "uint256",
              "name": "timestamp",
              "type": "uint256"
            }
          ],
          "internalType": "struct NFTMarketplace.Bid[]",
          "name": "",
          "type": "tuple[]"
        }
      ],
      "stateMutability": "view",
      "type": "function"
    },
    {
      "inputs": [
        {
          "internalType": "uint256",
          "name": "collectionId",
          "type": "uint256"
        }
      ],
      "name": "getCollection",
      "outputs": [
        {
          "internalType": "uint256",
          "name": "id",
          "type": "uint256"
        },
        {
          "internalType": "string",
          "name": "name",
          "type": "string"
        },
        {
          "internalType": "string",
          "name": "description",
          "type": "string"
        },
        {
          "internalType": "address",
          "name": "creator",
          "type": "address"
        },
        {
          "internalType": "uint256[]",
          "name": "tokenIds",
          "type": "uint256[]"
        },
        {
          "internalType": "uint256",
          "name": "createdAt",
          "type": "uint256"
        },
        {
          "internalType": "bool",
          "name": "verified",
          "type": "bool"
        }
      ],
      "stateMutability": "view",
      "type": "function"
    },
    {
      "inputs": [],
      "name": "getMarketplaceStats",
      "outputs": [
        {
          "internalType": "uint256",
          "name": "totalNFTs",
          "type": "uint256"
        },
        {
          "internalType": "uint256",
          "name": "nftsForSaleCount",
          "type": "uint256"
        },
        {
          "internalType": "uint256",
          "name": "activeAuctionsCount",
          "type": "uint256"
        },
        {
          "internalType": "uint256",
          "name": "totalCollections",
          "type": "uint256"
        },
        {
          "internalType": "uint256",
          "name": "marketplaceFeeRate",
          "type": "uint256"
        }
      ],
      "stateMutability": "view",
      "type": "function"
    },
    {
      "inputs": [
        {
          "internalType": "uint256",
          "name": "tokenId",
          "type": "uint256"
        }
      ],
      "name": "getNFT",
      "outputs": [
        {
          "internalType": "uint256",
          "name": "id",
          "type": "uint256"
        },
        {
          "internalType": "address",
          "name": "creator",
          "type": "address"
        },
        {
          "internalType": "address",
          "name": "owner",
          "type": "address"
        },
        {
          "internalType": "uint256",
          "name": "price",
          "type": "uint256"
        },
        {
          "internalType": "bool",
          "name": "isForSale",
          "type": "bool"
        },
        {
          "internalType": "uint256",
          "name": "royaltyPercentage",
          "type": "uint256"
        },
        {
          "internalType": "uint256",
          "name": "createdAt",
          "type": "uint256"
        },
        {
          "internalType": "string",
          "name": "category",
          "type": "string"
        },
        {
          "internalType": "uint256",
          "name": "collectionId",
          "type": "uint256"
        },
        {
          "internalType": "string",
          "name": "uri",
          "type": "string"
        }
      ],
      "stateMutability": "view",
      "type": "function"
    },
    {
      "inputs": [
        {
          "internalType": "string",
          "name": "category",
          "type": "string"
        }
      ],
      "name": "getNFTsByCategory",
      "outputs": [
        {
          "internalType": "uint256[]",
          "name": "",
          "type": "uint256[]"
        }
      ],
      "stateMutability": "view",
      "type": "function"
    },
    {
      "inputs": [],
      "name": "getNFTsForSale",
      "outputs": [
        {
          "internalType": "uint256[]",
          "name": "",
          "type": "uint256[]"
        }
      ],
      "stateMutability": "view",
      "type": "function"
    },
    {
      "inputs": [
        {
          "internalType": "address",
          "name": "user",
          "type": "address"
        }
      ],
      "name": "getUserCollections",
      "outputs": [
        {
          "internalType": "uint256[]",
          "name": "",
          "type": "uint256[]"
        }
      ],
      "stateMutability": "view",
      "type": "function"
    },
    {
      "inputs": [
        {
          "internalType": "address",
          "name": "user",
          "type": "address"
        }
      ],
      "name": "getUserNFTs",
      "outputs": [
        {
          "internalType": "uint256[]",
          "name": "",
          "type": "uint256[]"
        }
      ],
      "stateMutability": "view",
      "type": "function"
    },
    {
      "inputs": [
        {
          "internalType": "address",
          "name": "owner",
          "type": "address"
        },
        {
          "internalType": "address",
          "name": "operator",
          "type": "address"
        }
      ],
      "name": "isApprovedForAll",
      "outputs": [
        {
          "internalType": "bool",
          "name": "",
          "type": "bool"
        }
      ],
      "stateMutability": "view",
      "type": "function"
    },
    {
      "inputs": [
        {
          "internalType": "uint256",
          "name": "tokenId",
          "type": "uint256"
        },
        {
          "internalType": "uint256",
          "name": "price",
          "type": "uint256"
        }
      ],
      "name": "listNFT",
      "outputs": [],
      "stateMutability": "nonpayable",
      "type": "function"
    },
    {
      "inputs": [],
      "name": "marketplaceFee",
      "outputs": [
        {
          "internalType": "uint256",
          "name": "",
          "type": "uint256"
        }
      ],
      "stateMutability": "view",
      "type": "function"
    },
    {
      "inputs": [
        {
          "internalType": "string",
          "name": "_tokenURI",
          "type": "string"
        },
        {
          "internalType": "uint256",
          "name": "royaltyPercentage",
          "type": "uint256"
        },
        {
          "internalType": "string",
          "name": "category",
          "type": "string"
        },
        {
          "internalType": "uint256",
          "name": "collectionId",
          "type": "uint256"
        }
      ],
      "name": "mintNFT",
      "outputs": [
        {
          "internalType": "uint256",
          "name": "",
          "type": "uint256"
        }
      ],
      "stateMutability": "nonpayable",
      "type": "function"
    },
    {
      "inputs": [],
      "name": "name",
      "outputs": [
        {
          "internalType": "string",
          "name": "",
          "type": "string"
        }
      ],
      "stateMutability": "view",
      "type": "function"
    },
    {
      "inputs": [
        {
          "internalType": "uint256",
          "name": "",
          "type": "uint256"
        }
      ],
      "name": "nftItems",
      "outputs": [
        {
          "internalType": "uint256",
          "name": "tokenId",
          "type": "uint256"
        },
        {
          "internalType": "address",
          "name": "creator",
          "type": "address"
        },
        {
          "internalType": "address",
          "name": "owner",
          "type": "address"
        },
        {
          "internalType": "uint256",
          "name": "price",
          "type": "uint256"
        },
        {
          "internalType": "bool",
          "name": "isForSale",
          "type": "bool"
        },
        {
          "internalType": "uint256",
          "name": "royaltyPercentage",
          "type": "uint256"
        },
        {
          "internalType": "uint256",
          "name": "createdAt",
          "type": "uint256"
        },
        {
          "internalType": "string",
          "name": "category",
          "type": "string"
        },
        {
          "internalType": "uint256",
          "name": "collectionId",
          "type": "uint256"
        }
      ],
      "stateMutability": "view",
      "type": "function"
    },
    {
      "inputs": [
        {
          "internalType": "uint256",
          "name": "",
          "type": "uint256"
        }
      ],
      "name": "nftsForSale",
      "outputs": [
        {
          "internalType": "uint256",
          "name": "",
          "type": "uint256"
        }
      ],
      "stateMutability": "view",
      "type": "function"
    },
    {
      "inputs": [],
      "name": "owner",
      "outputs": [
        {
          "internalType": "address",
          "name": "",
          "type": "address"
        }
      ],
      "stateMutability": "view",
      "type": "function"
    },
    {
      "inputs": [
        {
          "internalType": "uint256",
          "name": "tokenId",
          "type": "uint256"
        }
      ],
      "name": "ownerOf",
      "outputs": [
        {
          "internalType": "address",
          "name": "",
          "type": "address"
        }
      ],
      "stateMutability": "view",
      "type": "function"
    },
    {
      "inputs": [],
      "name": "pause",
      "outputs": [],
      "stateMutability": "nonpayable",
      "type": "function"
    },
    {
      "inputs": [],
      "name": "paused",
      "outputs": [
        {
          "internalType": "bool",
          "name": "",
          "type": "bool"
        }
      ],
      "stateMutability": "view",
      "type": "function"
    },
    {
      "inputs": [
        {
          "internalType": "address",
          "name": "",
          "type": "address"
        }
      ],
      "name": "pendingWithdrawals",
      "outputs": [
        {
          "internalType": "uint256",
          "name": "",
          "type": "uint256"
        }
      ],
      "stateMutability": "view",
      "type": "function"
    },
    {
      "inputs": [
        {
          "internalType": "uint256",
          "name": "tokenId",
          "type": "uint256"
        }
      ],
      "name": "placeBid",
      "outputs": [],
      "stateMutability": "payable",
      "type": "function"
    },
    {
      "inputs": [],
      "name": "renounceOwnership",
      "outputs": [],
      "stateMutability": "nonpayable",
      "type": "function"
    },
    {
      "inputs": [
        {
          "internalType": "address",
          "name": "from",
          "type": "address"
        },
        {
          "internalType": "address",
          "name": "to",
          "type": "address"
        },
        {
          "internalType": "uint256",
          "name": "tokenId",
          "type": "uint256"
        }
      ],
      "name": "safeTransferFrom",
      "outputs": [],
      "stateMutability": "nonpayable",
      "type": "function"
    },
    {
      "inputs": [
        {
          "internalType": "address",
          "name": "from",
          "type": "address"
        },
        {
          "internalType": "address",
          "name": "to",
          "type": "address"
        },
        {
          "internalType": "uint256",
          "name": "tokenId",
          "type": "uint256"
        },
        {
          "internalType": "bytes",
          "name": "data",
          "type": "bytes"
        }
      ],
      "name": "safeTransferFrom",
      "outputs": [],
      "stateMutability": "nonpayable",
      "type": "function"
    },
    {
      "inputs": [
        {
          "internalType": "address",
          "name": "operator",
          "type": "address"
        },
        {
          "internalType": "bool",
          "name": "approved",
          "type": "bool"
        }
      ],
      "name": "setApprovalForAll",
      "outputs": [],
      "stateMutability": "nonpayable",
      "type": "function"
    },
    {
      "inputs": [
        {
          "internalType": "uint256",
          "name": "newFee",
          "type": "uint256"
        }
      ],
      "name": "setMarketplaceFee",
      "outputs": [],
      "stateMutability": "nonpayable",
      "type": "function"
    },
    {
      "inputs": [
        {
          "internalType": "bytes4",
          "name": "interfaceId",
          "type": "bytes4"
        }
      ],
      "name": "supportsInterface",
      "outputs": [
        {
          "internalType": "bool",
          "name": "",
          "type": "bool"
        }
      ],
      "stateMutability": "view",
      "type": "function"
    },
    {
      "inputs": [],
      "name": "symbol",
      "outputs": [
        {
          "internalType": "string",
          "name": "",
          "type": "string"
        }
      ],
      "stateMutability": "view",
      "type": "function"
    },
    {
      "inputs": [
        {
          "internalType": "uint256",
          "name": "tokenId",
          "type": "uint256"
        }
      ],
      "name": "tokenURI",
      "outputs": [
        {
          "internalType": "string",
          "name": "",
          "type": "string"
        }
      ],
      "stateMutability": "view",
      "type": "function"
    },
    {
      "inputs": [
        {
          "internalType": "address",
          "name": "from",
          "type": "address"
        },
        {
          "internalType": "address",
          "name": "to",
          "type": "address"
        },
        {
          "internalType": "uint256",
          "name": "tokenId",
          "type": "uint256"
        }
      ],
      "name": "transferFrom",
      "outputs": [],
      "stateMutability": "nonpayable",
      "type": "function"
    },
    {
      "inputs": [
        {
          "internalType": "address",
          "name": "newOwner",
          "type": "address"
        }
      ],
      "name": "transferOwnership",
      "outputs": [],
      "stateMutability": "nonpayable",
      "type": "function"
    },
    {
      "inputs": [
        {
          "internalType": "uint256",
          "name": "tokenId",
          "type": "uint256"
        }
      ],
      "name": "unlistNFT",
      "outputs": [],
      "stateMutability": "nonpayable",
      "type": "function"
    },
    {
      "inputs": [],
      "name": "unpause",
      "outputs": [],
      "stateMutability": "nonpayable",
      "type": "function"
    },
    {
      "inputs": [
        {
          "internalType": "address",
          "name": "",
          "type": "address"
        },
        {
          "internalType": "uint256",
          "name": "",
          "type": "uint256"
        }
      ],
      "name": "userCollections",
      "outputs": [
        {
          "internalType": "uint256",
          "name": "",
          "type": "uint256"
        }
      ],
      "stateMutability": "view",
      "type": "function"
    },
    {
      "inputs": [
        {
          "internalType": "address",
          "name": "",
          "type": "address"
        },
        {
          "internalType": "uint256",
          "name": "",
          "type": "uint256"
        }
      ],
      "name": "userNFTs",
      "outputs": [
        {
          "internalType": "uint256",
          "name": "",
          "type": "uint256"
        }
      ],
      "stateMutability": "view",
      "type": "function"
    },
    {
      "inputs": [
        {
          "internalType": "uint256",
          "name": "collectionId",
          "type": "uint256"
        }
      ],
      "name": "verifyCollection",
      "outputs": [],
      "stateMutability": "nonpayable",
      "type": "function"
    },
    {
      "inputs": [],
      "name": "withdraw",
      "outputs": [],
      "stateMutability": "nonpayable",
      "type": "function"
    }
  ],
  "bytecode": "0x6080604052346105fd57604080519081016001600160401b038111828210176103a1576040908152600e82526d4e46544d61726b6574706c61636560901b602083015280519081016001600160401b038111828210176103a15760405260048152634e46544d60e01b602082015281516001600160401b0381116103a157610088600054610633565b601f81116105af575b50602092601f821160011461054b5792819293600092610540575b50508160011b916000199060031b1c1916176000555b80516001600160401b0381116103a1576100dd600154610633565b601f81116104e6575b50602091601f821160011461048257918192600092610477575b50508160011b916000199060031b1c1916176001555b33156104615760078054336001600160a01b0319821681179092556001600160a01b03167f8be0079c531659141344cd1fd0a4f28419497f9722a3daafe3b4186f6b6457e0600080a3600160085560fa600c556001600a556001600b55601854680100000000000000008110156103a1578060016101979201601855610602565b61038b576101a58154610633565b601f811161043f575b50600662105c9d60ea1b019055601854680100000000000000008110156103a1578060016101df9201601855610602565b61038b576101ed8154610633565b601f811161041d575b50600a644d7573696360d81b019055601854680100000000000000008110156103a1578060016102299201601855610602565b61038b576102378154610633565b601f81116103fb575b507f50686f746f6772617068790000000000000000000000000000000000000000169055601854680100000000000000008110156103a1578060016102889201601855610602565b61038b576102968154610633565b601f81116103d9575b50600c6547616d696e6760d01b019055601854680100000000000000008110156103a1578060016102d39201601855610602565b61038b576102e18154610633565b601f81116103b7575b507f436f6c6c65637469626c657300000000000000000000000000000000000000189055601854680100000000000000008110156103a1578060016103329201601855610602565b61038b576103408154610633565b601f8111610369575b50600e665574696c69747960c81b0190556040516138f590816106858239f35b6103859082600052601f6020600020910160051c81019061066d565b38610349565b634e487b7160e01b600052600060045260246000fd5b634e487b7160e01b600052604160045260246000fd5b6103d39082600052601f6020600020910160051c81019061066d565b386102ea565b6103f59082600052601f6020600020910160051c81019061066d565b3861029f565b6104179082600052601f6020600020910160051c81019061066d565b38610240565b6104399082600052601f6020600020910160051c81019061066d565b386101f6565b61045b9082600052601f6020600020910160051c81019061066d565b386101ae565b631e4fbdf760e01b600052600060045260246000fd5b015190503880610100565b601f198216926001600052806000209160005b8581106104ce575083600195106104b5575b505050811b01600155610116565b015160001960f88460031b161c191690553880806104a7565b91926020600181928685015181550194019201610495565b6001600052610530907fb10e2d527612073b26eecdfd717e6a320cf44b4afac2b0732d9fcbe2b7fa0cf6601f840160051c81019160208510610536575b601f0160051c019061066d565b386100e6565b9091508190610523565b0151905038806100ac565b601f1982169360008052806000209160005b868110610597575083600195961061057e575b505050811b016000556100c2565b015160001960f88460031b161c19169055388080610570565b9192602060018192868501518155019401920161055d565b600080526105f7907f290decd9548b62a8d60345a988386fc84ba6bc95484008f6362f93160ef3e563601f840160051c8101916020851061053657601f0160051c019061066d565b38610091565b600080fd5b60185481101561061d57601860005260206000200190600090565b634e487b7160e01b600052603260045260246000fd5b90600182811c92168015610663575b602083101461064d57565b634e487b7160e01b600052602260045260246000fd5b91607f1691610642565b818110610678575050565b6000815560010161066d56fe608080604052600436101561001357600080fd5b60003560e01c90816301ffc9a714612bb05750806306fdde0314612b0b578063081812fc14612acd578063095ea7b3146129de578063176b9b751461270e57806318d37620146126c75780631f267a831461266a57806323b872dd14612653578063291c73c3146126095780632e0dcbf7146125a257806337d327a1146125795780633ccfd60b146124aa5780633f4ba83a1461244157806342842e0e14612411578063428a6171146123c757806351ed82881461211c57806352de4ee5146120e2578063571a26a014612072578063576f7ea714611f845780635a1f3c2814611e815780635c975abb14611e5e5780635f93de4914611e045780636282139614611d515780636352211e14611d215780636a16696414611d035780637031f4ee14611c9857806370a0823114611c4257806370b4768e14611b3b578063715018a614611ade57806378bd793514611a32578063790d8596146119fa578063812d966a146119ac5780638456cb59146119525780638da5cb5b146119295780639407ea98146118cb57806394383f141461171f57806395d89b4114611652578063961f09441461159b5780639979ef45146113185780639aa5ad8c146112de578063a22cb46514611234578063b1888649146111da578063b88d4fde1461116d578063b9a2de3a14610e16578063bf162d6714610dc4578063c045720a146108d1578063c6cdbe5e14610884578063c87b56dd14610851578063cda4beef146104f2578063cf44b5d514610480578063d83e5f4d14610463578063e1f1c4a714610446578063e985e9c5146103eb578063f2fde38b14610361578063f3f43703146103275763fdbda0ec1461028757600080fd5b3461032257602036600319011261032257600435600052600f602052604060002080546102b660018301612f2e565b916102c360028201612f2e565b60018060a01b036003830154169161030c60ff6006600584015493015416926102fe604051978897885260c0602089015260c0880190612c58565b908682036040880152612c58565b9260608501526080840152151560a08301520390f35b600080fd5b34610322576020366003190112610322576001600160a01b03610348612c7d565b1660005260146020526020604060002054604051908152f35b346103225760203660031901126103225761037a612c7d565b6103826134f9565b6001600160a01b031680156103d557600780546001600160a01b0319811683179091556001600160a01b03167f8be0079c531659141344cd1fd0a4f28419497f9722a3daafe3b4186f6b6457e0600080a3005b631e4fbdf760e01b600052600060045260246000fd5b3461032257604036600319011261032257610404612c7d565b61040c612c93565b9060018060a01b0316600052600560205260406000209060018060a01b0316600052602052602060ff604060002054166040519015158152f35b346103225760003660031901126103225760206040516127108152f35b346103225760003660031901126103225760206040516103e88152f35b34610322576000366003190112610322576040516017548082526020820190601760005260206000209060005b8181106104dc576104d8856104c481870382612cfb565b604051918291602083526020830190612d8c565b0390f35b82548452602090930192600192830192016104ad565b3461032257606036600319011261032257602435600435604435610528610518836134a5565b6001600160a01b03163314613422565b60008281526002602052604090205461054b906001600160a01b03161515613386565b6105536134dc565b82156107fe57610e1081106107b95762278d0081116107745781600052600d60205260ff600460406000200154166107365781600052600e60205260ff600660406000200154166106f8576105a89042613415565b6040516105b481612cdf565b82815233602080830191825260408084018781526000606086018181526080870182815260a08801898152600160c08a0181815260e08b018681528d8752600e9099529690942098518955965192880180546001600160a01b03199081166001600160a01b0395861617909155935160028901559051600388015551600487018054909316911617905591516005840155905160069092018054915161ff0090151560081b1661ffff1990921660ff9315159390931692909217179055601754600160401b8110156106e257826106968260016106af94016017556017612e61565b90919082549060031b91821b91600019901b1916179055565b60405192835260208301527fc9050d42180a61cb0d9ebb8ad118b62fe6eab12cf12ff752c4a0cc7da9ddf62760403393a3005b634e487b7160e01b600052604160045260246000fd5b60405162461bcd60e51b815260206004820152601660248201527541756374696f6e20616c72656164792061637469766560501b6044820152606490fd5b60405162461bcd60e51b81526020600482015260166024820152754e4654206973206c697374656420666f722073616c6560501b6044820152606490fd5b60405162461bcd60e51b815260206004820152601960248201527f41756374696f6e206475726174696f6e20746f6f206c6f6e67000000000000006044820152606490fd5b60405162461bcd60e51b815260206004820152601a60248201527f41756374696f6e206475726174696f6e20746f6f2073686f72740000000000006044820152606490fd5b60405162461bcd60e51b815260206004820152602560248201527f5374617274696e67207072696365206d75737420626520677265617465722074604482015264068616e20360dc1b6064820152608490fd5b34610322576020366003190112610322576104d8610870600435613777565b604051918291602083526020830190612c58565b3461032257602036600319011261032257600435601854811015610322576108ab90612dfa565b6108bb576108706104d891612f2e565b634e487b7160e01b600052600060045260246000fd5b34610322576080366003190112610322576004356001600160401b03811161032257610901903690600401612d6e565b602435906044356001600160401b03811161032257610924903690600401612d6e565b606435906109306134dc565b6103e88411610d8c57825115610d475781151580610cdc575b600a549361095685612fd2565b600a556020956040516109698882612cfb565b600081523315610cc6576001600160a01b036109858833613522565b16610cb05787333b610bbe575b505085600052600687526109aa826040600020612ff8565b7ff8e1a15aba9398e019f0b49df1a4fde98ee17ae345cb5f6b5e2c27f5033e8ce787604051888152a160405161012081018181106001600160401b038211176106e25786610ad2878486610abc8d8f6008986040528185528085013381526040860190338252600d60608801936000855260808901956000875260a08a0198895261010060c08b019a428c5260e081019c8d52019c8d526000525260406000209b518c5560018060a01b0390511660018c019060018060a01b03166001600160601b0360a01b82541617905560018060a01b0390511660028b019060018060a01b03166001600160601b0360a01b8254161790555160038a0155511515600489019060ff801983541691151516179055565b5160058701555160068601555160078501612ff8565b5191015560155490600160401b8210156106e25786947fe32b0633df0dc99c2e0d352bbed99063d7e0e4f82acbefbbf9400a73da7bda8194610b2387610696866001610b8c98016015556015612e61565b3360005260118a52610b3987604060002061310b565b610b60876040518c818651610b518183858b01612c35565b8101601381520301902061310b565b610ba0575b610b7a60405194608086526080860190612c58565b91898501528382036040850152612c58565b9360608201528033940390a3604051908152f35b86600052600f8952610bb986600460406000200161310b565b610b65565b610bf79160405180938192630a85bd0160e11b8352336004840152600060248401528b6044840152608060648401526084830190612c58565b03816000335af18091600091610c6b575b5090610c385787610c17613356565b8051919082610c3557633250574960e11b6000523360045260246000fd5b01fd5b6001600160e01b03191663757a42ff60e11b01610c56578787610992565b633250574960e11b6000523360045260246000fd5b8981813d8311610ca9575b610c808183612cfb565b81010312610ca55751906001600160e01b031982168203610ca2575089610c08565b80fd5b5080fd5b503d610c76565b6339e3563760e11b600052600060045260246000fd5b633250574960e11b600052600060045260246000fd5b610ce9600b54841061312e565b82600052600f60205260018060a01b036003604060002001541633146109495760405162461bcd60e51b81526020600482015260166024820152752737ba1031b7b63632b1ba34b7b71031b932b0ba37b960511b6044820152606490fd5b60405162461bcd60e51b815260206004820152601960248201527f546f6b656e205552492063616e6e6f7420626520656d707479000000000000006044820152606490fd5b60405162461bcd60e51b815260206004820152601060248201526f0a4def2c2d8e8f240e8dede40d0d2ced60831b6044820152606490fd5b346103225760203660031901126103225760043560155481101561032257600090601554811015610e02576020826015829452200154604051908152f35b634e487b7160e01b82526032600452602482fd5b3461032257602036600319011261032257600435610e326135eb565b80600052600e602052604060002090600682018054610e5360ff8216613464565b600584015442106111305760ff8160081c166110f35761ffff191661010017905560005b60175490818110156110ec5782610e8d82612e46565b90549060031b1c14610ea3576001915001610e77565b60001982019182116110d657610696610ebe610ecb93612e46565b90549060031b1c91612e46565b60175480156110c05760001901610ef7610ee6826017612e61565b8154906000199060031b1b19169055565b6017555b60048201546001600160a01b031691821561108c5760207fd2aa34a4fdbbc6dff6a3e56f46e0f3ae2a31d7785ff3487aa5c95c642acea50191600360018060a01b036001830154169101549084600052600d8352846040600020612710610f64600c54866130f8565b04612710610f766005840154876130f8565b0493610f8b85610f868489613408565b613408565b6002840180546001600160a01b0319166001600160a01b038d1617905590610fb4858c8361360d565b610fbe8582613669565b8a60005260118852610fd485604060002061310b565b60005260148752610feb6040600020918254613415565b905560018060a01b03600754166000526014865261100f6040600020918254613415565b905582611029575b505050604051908152a35b6001600855005b8460017ff670029fc6f5302baba881b4ae845d1453acdf752b4c19ed81fe0fa6a686409b920160018060a01b03815416600052601482526040600020611070868254613415565b9055546040519485526001600160a01b031693a3858481611017565b50600091507fd2aa34a4fdbbc6dff6a3e56f46e0f3ae2a31d7785ff3487aa5c95c642acea5016020604051848152a3611022565b634e487b7160e01b600052603160045260246000fd5b634e487b7160e01b600052601160045260246000fd5b5050610efb565b60405162461bcd60e51b8152602060048201526015602482015274105d58dd1a5bdb88185b1c9958591e48195b991959605a1b6044820152606490fd5b60405162461bcd60e51b815260206004820152601560248201527441756374696f6e207374696c6c206f6e676f696e6760581b6044820152606490fd5b3461032257608036600319011261032257611186612c7d565b61118e612c93565b90604435606435926001600160401b0384116103225736602385011215610322576111c66111d8943690602481600401359101612d37565b926111d28383836131c5565b336137aa565b005b34610322576000366003190112610322576040516016548082526020820190601660005260206000209060005b81811061121e576104d8856104c481870382612cfb565b8254845260209093019260019283019201611207565b346103225760403660031901126103225761124d612c7d565b6024359081151590818303610322576001600160a01b03169182156112c95761129b9033600052600560205260406000208460005260205260406000209060ff801983541691151516179055565b6040519081527f17307eab39ab6107e8899845ad3d59bd9653f200f220920489ca2b5937696c3160203392a3005b82630b61174360e31b60005260045260246000fd5b34610322576020366003190112610322576001600160a01b036112ff612c7d565b1660005260126020526104d86104c4604060002061317a565b60203660031901126103225760043580600052600e60205261134460ff60066040600020015416613464565b80600052600e602052600560406000200154421015611566576113656135eb565b61136d6134dc565b80600052600e602052604060002060018060a01b0360018201541633146115215760038101805491823411156114ee57600281015434106114a95760040180549092906001600160a01b031680611488575b505034905580546001600160a01b031916331790556000818152601060205260409081902090516113ef81612cc4565b338152602081019134835260408201904282528054600160401b8110156106e25761141f91600182018155612ed8565b9390936108bb57915183546001600160a01b0319166001600160a01b03919091161783559051600183015551600291909101556040513481523391907f0e54eff26401bf69b81b26f60bd85ef47f5d85275c1d268d84f68d6897431c4790602090a36001600855005b60005260146020526114a06040600020918254613415565b905583806113bf565b60405162461bcd60e51b815260206004820152601860248201527f4269642062656c6f77207374617274696e6720707269636500000000000000006044820152606490fd5b60405162461bcd60e51b815260206004820152600b60248201526a42696420746f6f206c6f7760a81b6044820152606490fd5b60405162461bcd60e51b815260206004820152601e60248201527f43616e6e6f7420626964206f6e20796f7572206f776e2061756374696f6e00006044820152606490fd5b60405162461bcd60e51b815260206004820152600d60248201526c105d58dd1a5bdb88195b991959609a1b6044820152606490fd5b34610322576020366003190112610322576004356115bb610518826134a5565b6000818152600260205260409020546115de906001600160a01b03161515613386565b80600052600d6020526115fb60ff600460406000200154166133c9565b6000818152600d6020526040812060048101805460ff1916905560030155611622816136fc565b60405190600082527f5f9c03de076f5063cd3ebcfe8ef7aa8af378e4b35a83c77ba9777e97083879a260203393a3005b3461032257600036600319011261032257604051600060015461167481612ef4565b80845290600181169081156116fb575060011461169c575b6104d88361087081850382612cfb565b600160009081527fb10e2d527612073b26eecdfd717e6a320cf44b4afac2b0732d9fcbe2b7fa0cf6939250905b8082106116e15750909150810160200161087061168c565b9192600181602092548385880101520191019092916116c9565b60ff191660208086019190915291151560051b84019091019150610870905061168c565b346103225761172d36612ec2565b9061173a610518826134a5565b60008181526002602052604090205461175d906001600160a01b03161515613386565b6117656134dc565b81156118865780600052600d60205260ff6004604060002001541661184c5780600052600e60205260ff60066040600020015416611813576000818152600d6020526040902060038101839055600401805460ff19166001179055601654600160401b8110156106e257816106968260016117e594016016556016612e61565b6040519182527f5f9c03de076f5063cd3ebcfe8ef7aa8af378e4b35a83c77ba9777e97083879a260203393a3005b60405162461bcd60e51b815260206004820152601160248201527027232a1034b99034b71030bab1ba34b7b760791b6044820152606490fd5b60405162461bcd60e51b815260206004820152601260248201527113919508185b1c9958591e481b1a5cdd195960721b6044820152606490fd5b60405162461bcd60e51b815260206004820152601c60248201527f5072696365206d7573742062652067726561746572207468616e2030000000006044820152606490fd5b34610322576020366003190112610322576004356118e76134f9565b6103e881116118f557600c55005b60405162461bcd60e51b815260206004820152600c60248201526b08ccaca40e8dede40d0d2ced60a31b6044820152606490fd5b34610322576000366003190112610322576007546040516001600160a01b039091168152602090f35b346103225760003660031901126103225761196b6134f9565b6119736134dc565b600160ff1960095416176009557f62e78cea01bee320cd4e420270b5ea74000d11b0c9f74754ebdbfc544b05a2586020604051338152a1005b34610322576000366003190112610322576015546016549060175491600b5460001981019081116110d65760a093600c54926040519485526020850152604084015260608301526080820152f35b346103225760203660031901126103225760043560175481101561032257611a23602091612e46565b90549060031b1c604051908152f35b3461032257602036600319011261032257600435600052600e6020526040600020604051611a5f81612cdf565b6104d860e083549283815260018060a01b03600186015416948560208301526002810154806040840152600382015480606085015260018060a01b036004840154169182608086015260066005850154948560a088015201549460ff8087161515968760c084015260081c161515968791015260405198899889612e79565b3461032257600036600319011261032257611af76134f9565b600780546001600160a01b031981169091556000906001600160a01b03167f8be0079c531659141344cd1fd0a4f28419497f9722a3daafe3b4186f6b6457e08280a3005b3461032257602036600319011261032257600435600052601060205260406000208054906001600160401b0382116106e25760405191611b8160208260051b0184612cfb565b80835260208301809260005260206000206000915b838310611c045784866040519182916020830190602084525180915260408301919060005b818110611bc9575050500390f35b825180516001600160a01b03168552602081810151818701526040918201519186019190915286955060609094019390920191600101611bbb565b60036020600192604051611c1781612cc4565b848060a01b038654168152848601548382015260028601546040820152815201920192019190611b96565b34610322576020366003190112610322576001600160a01b03611c63612c7d565b168015611c825760005260036020526020604060002054604051908152f35b6322718ad960e21b600052600060045260246000fd5b34610322576040366003190112610322576004356001600160401b03811161032257611cc8903690600401612d6e565b611ce46020602435928160405193828580945193849201612c35565b81016013815203019020805482101561032257602091611a2391612e61565b34610322576000366003190112610322576020600c54604051908152f35b34610322576020366003190112610322576020611d3f6004356134a5565b6040516001600160a01b039091168152f35b3461032257602036600319011261032257600435600052600d6020526040600020805460018060a01b0360018301541691611df960018060a01b0360028301541691600381015460ff6004830154166005830154906006840154926008611dba60078701612f2e565b95015496604051998a998a5260208a0152604089015260608801521515608087015260a086015260c085015261012060e0850152610120840190612c58565b906101008301520390f35b3461032257611e1236612ec2565b9060005260106020526040600020805482101561032257606091611e3591612ed8565b5060018060a01b0381541690600260018201549101549060405192835260208301526040820152f35b3461032257600036600319011261032257602060ff600954166040519015158152f35b3461032257602036600319011261032257600435600052600f602052604060002060405190611eaf82612ca9565b80548252611ebf60018201612f2e565b9060208301918252611ed360028201612f2e565b6040840190815260038201546001600160a01b031660608501908152909390611f7590611f026004850161317a565b806080850152611f6260ff60066005880154978860a08901520154161515948560c082015251965197519260018060a01b0390511692611f54604051998a998a5260e060208b015260e08a0190612c58565b9088820360408a0152612c58565b9160608701528582036080870152612d8c565b9160a084015260c08301520390f35b3461032257602036600319011261032257600435600081815260026020526040902054611fbb906001600160a01b03161515613386565b80600052600d6020526040600020906104d882549160018060a01b036001850154169361205d60018060a01b03600283015416600383015460ff600485015416600585015490600686015492612021600761201a60088a01549a613777565b9801612f2e565b946040519b8c9b8c5260208c015260408b015260608a01521515608089015260a088015260c087015261014060e0870152610140860190612c58565b91610100850152838203610120850152612c58565b3461032257602036600319011261032257600435600052600e60205260406000208054906104d860018060a01b036001830154169160028101549360038201549160018060a01b03600482015416600660058301549201549360405197889760ff808860081c1697169589612e79565b34610322576020366003190112610322576001600160a01b03612103612c7d565b1660005260116020526104d86104c4604060002061317a565b60203660031901126103225760043560008181526002602052604090205461214e906001600160a01b03161515613386565b6121566135eb565b61215e6134dc565b80600052600d6020526040600020600481019161217e60ff8454166133c9565b6003820180549384341061238b576002840180546001600160a01b031694903386146123465760006127106121b5600c548a6130f8565b04946127106121c860058601548b6130f8565b04946121d886610f86898d613408565b84546001600160a01b03191633908117909555815460ff1916909155919055906122049086908861360d565b61220e8587613669565b33600052601160205261222585604060002061310b565b61222e856136fc565b8560005260146020526122476040600020918254613415565b905560018060a01b03600754166000526014602052604060002061226c848254613415565b9055816122e4575b508434116122ba575b604051948552602085015260408401527fe429b79bc0da8809ab9cb14bcb079af569cad6810169a98f161f26942324f5c460603394a46001600855005b6122c48534613408565b3360005260146020526122dd6040600020918254613415565b905561227d565b60010160018060a01b0381541660005260146020526040600020612309838254613415565b905560018060a01b03905416837ff670029fc6f5302baba881b4ae845d1453acdf752b4c19ed81fe0fa6a686409b6020604051858152a385612274565b60405162461bcd60e51b815260206004820152601760248201527f43616e6e6f742062757920796f7572206f776e204e46540000000000000000006044820152606490fd5b60405162461bcd60e51b8152602060048201526014602482015273125b9cdd59999a58da595b9d081c185e5b595b9d60621b6044820152606490fd5b34610322576040366003190112610322576123e0612c7d565b6001600160a01b031660009081526012602052604090208054602435919082101561032257602091611a2391612e61565b34610322576111d861242236612dc0565b9060405192612432602085612cfb565b600084526111d28383836131c5565b346103225760003660031901126103225761245a6134f9565b60095460ff8116156124995760ff19166009557f5db9ee0a495bf2e6ff9c91a7834c1ba4fdd244a5e8aa4e537bd38aeae4b073aa6020604051338152a1005b638dfc202b60e01b60005260046000fd5b34610322576000366003190112610322576124c36135eb565b336000526014602052604060002054801561253d576000808080933382526014602052816040812055335af16124f7613356565b5015612504576001600855005b60405162461bcd60e51b815260206004820152601160248201527015da5d1a191c985dd85b0819985a5b1959607a1b6044820152606490fd5b60405162461bcd60e51b81526020600482015260146024820152734e6f2066756e647320746f20776974686472617760601b6044820152606490fd5b346103225760203660031901126103225760043560165481101561032257611a23602091612e2b565b34610322576020366003190112610322576004356001600160401b038111610322576125d2903690600401612d6e565b6125da6134f9565b601854600160401b8110156106e2578060016125f99201601855612dfa565b9190916108bb576111d891612ff8565b3461032257604036600319011261032257612622612c7d565b6001600160a01b031660009081526011602052604090208054602435919082101561032257602091611a2391612e61565b34610322576111d861266436612dc0565b916131c5565b34610322576020366003190112610322576004356001600160401b038111610322576104c46126b860206126a56104d8943690600401612d6e565b8160405193828580945193849201612c35565b8101601381520301902061317a565b34610322576020366003190112610322576004356126e36134f9565b6126f0600b54821061312e565b6000908152600f60205260409020600601805460ff19166001179055005b34610322576040366003190112610322576004356001600160401b0381116103225761273e903690600401612d6e565b6024356001600160401b0381116103225761275d903690600401612d6e565b906127666134dc565b805115612999576064815111612954576101f482511161291857600b549061278d82612fd2565b600b5560405161279c81612ca9565b828152602081018281526040820194855260608201943386526080830195606087526127fb60a08501924284526127f160c08701956000875289600052600f6020526040600020975188555160018801612ff8565b5160028601612ff8565b516003840180546001600160a01b0319166001600160a01b0392909216919091179055945180516004840196916001600160401b0382116106e257600160401b82116106e2576020908854838a558084106128fb575b50019660005260206000209660005b8281106128e7576020888861288f8960068a8a51600584015551151591019060ff801983541691151516179055565b33600052601283526128a582604060002061310b565b817fb0b7b214963f2e16da9cf6ed5851757dfed306875edf1d59e030881102ef24ef604051858152806128dc339588830190612c58565b0390a3604051908152f35b60019060208351930192818b015501612860565b612912908a60005284846000209182019101612fe1565b89612851565b60405162461bcd60e51b81526020600482015260146024820152734465736372697074696f6e20746f6f206c6f6e6760601b6044820152606490fd5b60405162461bcd60e51b815260206004820152601860248201527f436f6c6c656374696f6e206e616d6520746f6f206c6f6e6700000000000000006044820152606490fd5b60405162461bcd60e51b815260206004820152601f60248201527f436f6c6c656374696f6e206e616d652063616e6e6f7420626520656d707479006044820152606490fd5b34610322576040366003190112610322576129f7612c7d565b602435612a03816134a5565b33151580612aba575b80612a8c575b612a775781906001600160a01b0384811691167f8c5be1e5ebec7d5bd14f71427d1e84f3dd0314c0f7b2291e5b200ac8c7c3b925600080a4600090815260046020526040902080546001600160a01b0319166001600160a01b03909216919091179055005b63a9fbf51f60e01b6000523360045260246000fd5b506001600160a01b038116600090815260056020908152604080832033845290915290205460ff1615612a12565b506001600160a01b038116331415612a0c565b3461032257602036600319011261032257600435612aea816134a5565b506000526004602052602060018060a01b0360406000205416604051908152f35b346103225760003660031901126103225760405160008054612b2c81612ef4565b80845290600181169081156116fb5750600114612b53576104d88361087081850382612cfb565b60008080527f290decd9548b62a8d60345a988386fc84ba6bc95484008f6362f93160ef3e563939250905b808210612b965750909150810160200161087061168c565b919260018160209254838588010152019101909291612b7e565b34610322576020366003190112610322576004359063ffffffff60e01b821680920361032257602091632483248360e11b8114908115612bf2575b5015158152f35b6380ac58cd60e01b811491508115612c24575b8115612c13575b5083612beb565b6301ffc9a760e01b14905083612c0c565b635b5e139f60e01b81149150612c05565b60005b838110612c485750506000910152565b8181015183820152602001612c38565b90602091612c7181518092818552858086019101612c35565b601f01601f1916010190565b600435906001600160a01b038216820361032257565b602435906001600160a01b038216820361032257565b60e081019081106001600160401b038211176106e257604052565b606081019081106001600160401b038211176106e257604052565b61010081019081106001600160401b038211176106e257604052565b90601f801991011681019081106001600160401b038211176106e257604052565b6001600160401b0381116106e257601f01601f191660200190565b929192612d4382612d1c565b91612d516040519384612cfb565b829481845281830111610322578281602093846000960137010152565b9080601f8301121561032257816020612d8993359101612d37565b90565b906020808351928381520192019060005b818110612daa5750505090565b8251845260209384019390920191600101612d9d565b6060906003190112610322576004356001600160a01b038116810361032257906024356001600160a01b0381168103610322579060443590565b601854811015612e1557601860005260206000200190600090565b634e487b7160e01b600052603260045260246000fd5b601654811015612e1557601660005260206000200190600090565b601754811015612e1557601760005260206000200190600090565b8054821015612e155760005260206000200190600090565b9081526001600160a01b039182166020820152604081019290925260608201929092529116608082015260a081019190915290151560c082015290151560e08201526101000190565b6040906003190112610322576004359060243590565b8054821015612e15576000526003602060002091020190600090565b90600182811c92168015612f24575b6020831014612f0e57565b634e487b7160e01b600052602260045260246000fd5b91607f1691612f03565b9060405191826000825492612f4284612ef4565b8084529360018116908115612fb05750600114612f69575b50612f6792500383612cfb565b565b90506000929192526020600020906000915b818310612f94575050906020612f679282010138612f5a565b6020919350806001915483858901015201910190918492612f7b565b905060209250612f6794915060ff191682840152151560051b82010138612f5a565b60001981146110d65760010190565b818110612fec575050565b60008155600101612fe1565b91909182516001600160401b0381116106e2576130158254612ef4565b601f81116130bb575b506020601f8211600114613059578192939460009261304e575b50508160011b916000199060031b1c1916179055565b015190503880613038565b601f1982169083600052806000209160005b8181106130a35750958360019596971061308a575b505050811b019055565b015160001960f88460031b161c19169055388080613080565b9192602060018192868b01518155019401920161306b565b6130e890836000526020600020601f840160051c810191602085106130ee575b601f0160051c0190612fe1565b3861301e565b90915081906130db565b818102929181159184041417156110d657565b90815491600160401b8310156106e25782610696916001612f6795018155612e61565b1561313557565b60405162461bcd60e51b815260206004820152601960248201527f436f6c6c656374696f6e20646f6573206e6f74206578697374000000000000006044820152606490fd5b906040519182815491828252602082019060005260206000209260005b8181106131ac575050612f6792500383612cfb565b8454835260019485019487945060209093019201613197565b6001600160a01b0390911691908215610cc6576000828152600260205260408120546001600160a01b03169383918590331515806132be575b507fddf252ad1be2c89b69c2b068fc378daa952ba7f163c4a11628f55a4df523b3ef9082613289575b83815260036020526040812060018154019055848152600260205260408120846001600160601b0360a01b82541617905580a46001600160a01b031680830361326f57505050565b6364283d7b60e01b60005260045260245260445260646000fd5b600085815260046020526040902080546001600160a01b03191690558281526003602052604081208054600019019055613227565b915091925080613307575b156132d85790848492386131fe565b8390856132f157602491637e27328960e01b8252600452fd5b60449163177e802f60e01b825233600452602452fd5b503385148015613335575b806132c95750838152600460205260408120546001600160a01b031633146132c9565b5084815260056020908152604080832033845290915281205460ff16613312565b3d15613381573d9061336782612d1c565b916133756040519384612cfb565b82523d6000602084013e565b606090565b1561338d57565b60405162461bcd60e51b8152602060048201526014602482015273151bdad95b88191bd95cc81b9bdd08195e1a5cdd60621b6044820152606490fd5b156133d057565b60405162461bcd60e51b815260206004820152601060248201526f4e4654206e6f7420666f722073616c6560801b6044820152606490fd5b919082039182116110d657565b919082018092116110d657565b1561342957565b60405162461bcd60e51b81526020600482015260136024820152722737ba103a3432903a37b5b2b71037bbb732b960691b6044820152606490fd5b1561346b57565b60405162461bcd60e51b815260206004820152601260248201527141756374696f6e206e6f742061637469766560701b6044820152606490fd5b6000818152600260205260409020546001600160a01b03169081156134c8575090565b637e27328960e01b60005260045260246000fd5b60ff600954166134e857565b63d93c066560e01b60005260046000fd5b6007546001600160a01b0316330361350d57565b63118cdaa760e01b6000523360045260246000fd5b6000828152600260205260409020546001600160a01b03169190826135b4575b6001600160a01b03168061359a575b8160005260026020526040600020816001600160601b0360a01b825416179055827fddf252ad1be2c89b69c2b068fc378daa952ba7f163c4a11628f55a4df523b3ef600080a490565b806000526003602052604060002060018154019055613551565b600082815260046020526040902080546001600160a01b031916905582600052600360205260406000206000198154019055613542565b6002600854146135fc576002600855565b633ee5aeb560e01b60005260046000fd5b919291906001600160a01b03811615610cc6576001600160a01b0390613634908590613522565b1690816136505783637e27328960e01b60005260045260246000fd5b919290916001600160a01b031680830361326f57505050565b6001600160a01b03166000908152601160205260408120905b8154808210156136f657836136978385612e61565b90549060031b1c146136ac5750600101613682565b91925060001982019182116110d6576106966136cb6136d99385612e61565b90549060031b1c9184612e61565b805480156110c05760001901906136f3610ee68383612e61565b55565b50505050565b60005b60165480821015613772578261371483612e2b565b90549060031b1c1461372957506001016136ff565b6000198101925082116110d65761069661374561375293612e2b565b90549060031b1c91612e2b565b60165480156110c0576000190161376d610ee6826016612e61565b601655565b505050565b613780816134a5565b5060005260066020526137966040600020612f2e565b60006040516137a6602082612cfb565b5290565b823b6137b8575b5050505050565b604051630a85bd0160e11b81526001600160a01b039182166004820152918116602483015260448201939093526080606482015291169160209082908190613804906084830190612c58565b03816000865af1809160009161387c575b50906138465750613824613356565b805190816138415782633250574960e11b60005260045260246000fd5b602001fd5b6001600160e01b03191663757a42ff60e11b01613868575038808080806137b1565b633250574960e11b60005260045260246000fd5b6020813d6020116138b7575b8161389560209383612cfb565b81010312610ca55751906001600160e01b031982168203610ca2575038613815565b3d915061388856fea2646970667358221220423c4fbc54fb21498e0ca8f55ac4dbf3da41d21fdc7e7b239a6fe56be3bf76eb64736f6c634300081c0033",
  "linkReferences": {},
  "deployedLinkReferences": {}
}