{
  "_format": "hh-sol-artifact-1",
  "contractName": "PredictionMarket",
  "sourceName": "contracts/PredictionMarket.sol",
  "abi": [
    {
      "inputs": [
        {
          "internalType": "address",
          "name": "initialOwner",
          "type": "address"
        },
        {
          "internalType": "uint256",
          "name": "_initialFeeBps",
          "type": "uint256"
        }
      ],
      "stateMutability": "nonpayable",
      "type": "constructor"
    },
    {
      "inputs": [
        {
          "internalType": "address",
          "name": "owner",
          "type": "address"
        }
      ],
      "name": "OwnableInvalidOwner",
      "type": "error"
    },
    {
      "inputs": [
        {
          "internalType": "address",
          "name": "account",
          "type": "address"
        }
      ],
      "name": "OwnableUnauthorizedAccount",
      "type": "error"
    },
    {
      "inputs": [],
      "name": "ReentrancyGuardReentrantCall",
      "type": "error"
    },
    {
      "anonymous": false,
      "inputs": [
        {
          "indexed": true,
          "internalType": "uint256",
          "name": "marketId",
          "type": "uint256"
        },
        {
          "indexed": false,
          "internalType": "string",
          "name": "question",
          "type": "string"
        },
        {
          "indexed": true,
          "internalType": "address",
          "name": "resolver",
          "type": "address"
        },
        {
          "indexed": false,
          "internalType": "uint256",
          "name": "resolutionTimestamp",
          "type": "uint256"
        }
      ],
      "name": "MarketCreated",
      "type": "event"
    },
    {
      "anonymous": false,
      "inputs": [
        {
          "indexed": true,
          "internalType": "uint256",
          "name": "marketId",
          "type": "uint256"
        },
        {
          "indexed": false,
          "internalType": "uint8",
          "name": "winningOutcome",
          "type": "uint8"
        }
      ],
      "name": "MarketResolved",
      "type": "event"
    },
    {
      "anonymous": false,
      "inputs": [
        {
          "indexed": true,
          "internalType": "address",
          "name": "previousOwner",
          "type": "address"
        },
        {
          "indexed": true,
          "internalType": "address",
          "name": "newOwner",
          "type": "address"
        }
      ],
      "name": "OwnershipTransferred",
      "type": "event"
    },
    {
      "anonymous": false,
      "inputs": [
        {
          "indexed": true,
          "internalType": "uint256",
          "name": "marketId",
          "type": "uint256"
        },
        {
          "indexed": true,
          "internalType": "address",
          "name": "user",
          "type": "address"
        },
        {
          "indexed": false,
          "internalType": "uint256",
          "name": "amount",
          "type": "uint256"
        },
        {
          "indexed": false,
          "internalType": "uint256",
          "name": "celoAmount",
          "type": "uint256"
        }
      ],
      "name": "SharesBought",
      "type": "event"
    },
    {
      "anonymous": false,
      "inputs": [
        {
          "indexed": true,
          "internalType": "uint256",
          "name": "marketId",
          "type": "uint256"
        },
        {
          "indexed": true,
          "internalType": "address",
          "name": "user",
          "type": "address"
        },
        {
          "indexed": false,
          "internalType": "uint256",
          "name": "amount",
          "type": "uint256"
        },
        {
          "indexed": false,
          "internalType": "uint256",
          "name": "celoAmount",
          "type": "uint256"
        }
      ],
      "name": "SharesSold",
      "type": "event"
    },
    {
      "anonymous": false,
      "inputs": [
        {
          "indexed": true,
          "internalType": "uint256",
          "name": "marketId",
          "type": "uint256"
        },
        {
          "indexed": true,
          "internalType": "address",
          "name": "user",
          "type": "address"
        },
        {
          "indexed": false,
          "internalType": "uint256",
          "name": "amount",
          "type": "uint256"
        },
        {
          "indexed": false,
          "internalType": "uint256",
          "name": "payout",
          "type": "uint256"
        }
      ],
      "name": "WinningsRedeemed",
      "type": "event"
    },
    {
      "inputs": [],
      "name": "accumulatedFees",
      "outputs": [
        {
          "internalType": "uint256",
          "name": "",
          "type": "uint256"
        }
      ],
      "stateMutability": "view",
      "type": "function"
    },
    {
      "inputs": [
        {
          "internalType": "uint256",
          "name": "_marketId",
          "type": "uint256"
        }
      ],
      "name": "buyShares",
      "outputs": [],
      "stateMutability": "payable",
      "type": "function"
    },
    {
      "inputs": [
        {
          "internalType": "string",
          "name": "_question",
          "type": "string"
        },
        {
          "internalType": "address",
          "name": "_resolver",
          "type": "address"
        },
        {
          "internalType": "uint256",
          "name": "_resolutionTimestamp",
          "type": "uint256"
        }
      ],
      "name": "createMarket",
      "outputs": [],
      "stateMutability": "nonpayable",
      "type": "function"
    },
    {
      "inputs": [
        {
          "internalType": "uint256",
          "name": "_marketId",
          "type": "uint256"
        }
      ],
      "name": "getMarket",
      "outputs": [
        {
          "components": [
            {
              "internalType": "uint256",
              "name": "id",
              "type": "uint256"
            },
            {
              "internalType": "string",
              "name": "question",
              "type": "string"
            },
            {
              "internalType": "address",
              "name": "resolver",
              "type": "address"
            },
            {
              "internalType": "uint256",
              "name": "resolutionTimestamp",
              "type": "uint256"
            },
            {
              "internalType": "bool",
              "name": "isResolved",
              "type": "bool"
            },
            {
              "internalType": "uint8",
              "name": "winningOutcome",
              "type": "uint8"
            },
            {
              "internalType": "address",
              "name": "yesToken",
              "type": "address"
            },
            {
              "internalType": "address",
              "name": "noToken",
              "type": "address"
            },
            {
              "internalType": "uint256",
              "name": "liquidityPool",
              "type": "uint256"
            }
          ],
          "internalType": "struct PredictionMarket.Market",
          "name": "",
          "type": "tuple"
        }
      ],
      "stateMutability": "view",
      "type": "function"
    },
    {
      "inputs": [],
      "name": "marketCounter",
      "outputs": [
        {
          "internalType": "uint256",
          "name": "",
          "type": "uint256"
        }
      ],
      "stateMutability": "view",
      "type": "function"
    },
    {
      "inputs": [
        {
          "internalType": "uint256",
          "name": "",
          "type": "uint256"
        }
      ],
      "name": "markets",
      "outputs": [
        {
          "internalType": "uint256",
          "name": "id",
          "type": "uint256"
        },
        {
          "internalType": "string",
          "name": "question",
          "type": "string"
        },
        {
          "internalType": "address",
          "name": "resolver",
          "type": "address"
        },
        {
          "internalType": "uint256",
          "name": "resolutionTimestamp",
          "type": "uint256"
        },
        {
          "internalType": "bool",
          "name": "isResolved",
          "type": "bool"
        },
        {
          "internalType": "uint8",
          "name": "winningOutcome",
          "type": "uint8"
        },
        {
          "internalType": "address",
          "name": "yesToken",
          "type": "address"
        },
        {
          "internalType": "address",
          "name": "noToken",
          "type": "address"
        },
        {
          "internalType": "uint256",
          "name": "liquidityPool",
          "type": "uint256"
        }
      ],
      "stateMutability": "view",
      "type": "function"
    },
    {
      "inputs": [],
      "name": "owner",
      "outputs": [
        {
          "internalType": "address",
          "name": "",
          "type": "address"
        }
      ],
      "stateMutability": "view",
      "type": "function"
    },
    {
      "inputs": [],
      "name": "platformFeeBps",
      "outputs": [
        {
          "internalType": "uint256",
          "name": "",
          "type": "uint256"
        }
      ],
      "stateMutability": "view",
      "type": "function"
    },
    {
      "inputs": [
        {
          "internalType": "uint256",
          "name": "_marketId",
          "type": "uint256"
        }
      ],
      "name": "redeemWinnings",
      "outputs": [],
      "stateMutability": "nonpayable",
      "type": "function"
    },
    {
      "inputs": [],
      "name": "renounceOwnership",
      "outputs": [],
      "stateMutability": "nonpayable",
      "type": "function"
    },
    {
      "inputs": [
        {
          "internalType": "uint256",
          "name": "_marketId",
          "type": "uint256"
        },
        {
          "internalType": "uint8",
          "name": "_winningOutcome",
          "type": "uint8"
        }
      ],
      "name": "resolveMarket",
      "outputs": [],
      "stateMutability": "nonpayable",
      "type": "function"
    },
    {
      "inputs": [
        {
          "internalType": "uint256",
          "name": "_marketId",
          "type": "uint256"
        },
        {
          "internalType": "uint256",
          "name": "_amount",
          "type": "uint256"
        }
      ],
      "name": "sellShares",
      "outputs": [],
      "stateMutability": "nonpayable",
      "type": "function"
    },
    {
      "inputs": [
        {
          "internalType": "uint256",
          "name": "_newFeeBps",
          "type": "uint256"
        }
      ],
      "name": "setPlatformFee",
      "outputs": [],
      "stateMutability": "nonpayable",
      "type": "function"
    },
    {
      "inputs": [
        {
          "internalType": "address",
          "name": "newOwner",
          "type": "address"
        }
      ],
      "name": "transferOwnership",
      "outputs": [],
      "stateMutability": "nonpayable",
      "type": "function"
    },
    {
      "inputs": [],
      "name": "withdrawFees",
      "outputs": [],
      "stateMutability": "nonpayable",
      "type": "function"
    }
  ],
  "bytecode": "0x60803461011d57601f6127fb38819003918201601f19168301916001600160401b0383118484101761012257808492604094855283398101031261011d5780516001600160a01b038116919082900361011d576020015190801561010757600080546001600160a01b031981168317825560405192916001600160a01b03909116907f8be0079c531659141344cd1fd0a4f28419497f9722a3daafe3b4186f6b6457e09080a3600180556101f482116100c557506004556040516126c290816101398239f35b62461bcd60e51b815260206004820152601460248201527f4665652063616e6e6f74206578636565642035250000000000000000000000006044820152606490fd5b631e4fbdf760e01b600052600060045260246000fd5b600080fd5b634e487b7160e01b600052604160045260246000fdfe6080604052600436101561001257600080fd5b6000803560e01c806312e8e2c3146114ea5780632279a970146111a257806322dcd13e146111845780632476080714611166578063476343ee146110a6578063587f5ed714611088578063715018a61461102e5780638da5cb5b14611007578063b1283e7714610f4a578063d1a93d1814610da8578063d3caedfb146107a6578063d7ed74531461047f578063df55406e146102b9578063eb44fdd3146101505763f2fde38b146100c257600080fd5b3461014d57602036600319011261014d576004356001600160a01b0381169081900361014b576100f0611822565b80156101375781546001600160a01b03198116821783556001600160a01b03167f8be0079c531659141344cd1fd0a4f28419497f9722a3daafe3b4186f6b6457e08380a380f35b631e4fbdf760e01b82526004829052602482fd5b505b80fd5b503461014d57602036600319011261014d578060409161010083516101748161158c565b8281526060602082015282858201528260608201528260808201528260a08201528260c08201528260e0820152015260043581526003602052206040516101ba8161158c565b815481526101ca600183016115e1565b916020820192835260018060a01b03600282015416906040830191825260038101549060608401918252600481015460ff608086018183161515815260a0870190828460081c16825260c088019360018060a01b039060101c168452600660018060a01b036005870154169560e08a01968752015495610100890196875261026f6040519a8b9a60208c525160208c01525161012060408c01526101408b01906116a8565b97516001600160a01b0390811660608b0152905160808a01529051151560a089015290519190911660c08701529051811660e0860152905116610100840152516101208301520390f35b503461014d57604036600319011261014d5760043560243560ff811680820361047b578284526003602052604084206102f4815415156116e9565b60028101546001600160a01b0316330361043d57600381015442106103ec5760040190815460ff81166103a757600282116103705761ffff191660089390931b61ff00169290921760011790557f739f283563fb51ab6b89ee95d937b2e63a6cfcb83c385dbebb629f9d97bd43e690602090604051908152a280f35b60405162461bcd60e51b815260206004820152600f60248201526e496e76616c6964206f7574636f6d6560881b6044820152606490fd5b60405162461bcd60e51b815260206004820152601760248201527f4d61726b657420616c7265616479207265736f6c7665640000000000000000006044820152606490fd5b60405162461bcd60e51b815260206004820152602360248201527f4d61726b6574206e6f742079657420726561647920666f72207265736f6c757460448201526234b7b760e91b6064820152608490fd5b60405162461bcd60e51b815260206004820152601660248201527513db9b1e481c995cdbdb1d995c8818d85b8818d85b1b60521b6044820152606490fd5b8380fd5b503461014d57602036600319011261014d5760043561049c61184b565b808252600360205260408220906104b5825415156116e9565b600482015460ff8116156107615760ff8160081c16600181146000146106db575060101c6001600160a01b03165b6040516370a0823160e01b815233600482015292906001600160a01b0316602084602481845afa9384156106d0578594610697575b508315610652578085913b1561014b57604051632770a7eb60e21b8152336004820152602481018690529082908290604490829084905af1801561064757610632575b5050600454808402908482040361061e57612710600691049161058a6105818487611779565b936005546117cc565b60055501610599848254611779565b90558380808084335af16105ab61179c565b50156105e95760405192835260208301527f18c778b91c116ec23e8dbc0b3c021d2d200ff0be3308385a7fd82c9940b6e4d660403393a36001805580f35b60405162461bcd60e51b815260206004820152600d60248201526c14185e5bdd5d0819985a5b1959609a1b6044820152606490fd5b634e487b7160e01b85526011600452602485fd5b8161063c916115bf565b61047b57833861055b565b6040513d84823e3d90fd5b60405162461bcd60e51b815260206004820152601b60248201527f4e6f2077696e6e696e672073686172657320746f2072656465656d00000000006044820152606490fd5b9093506020813d6020116106c8575b816106b3602093836115bf565b810103126106c357519238610518565b600080fd5b3d91506106a6565b6040513d87823e3d90fd5b151590506106f65760058201546001600160a01b03166104e3565b60405162461bcd60e51b815260206004820152603a60248201527f4d61726b6574207265736f6c76656420617320696e76616c69643b207573652060448201527f6120736570617261746520726566756e642066756e6374696f6e0000000000006064820152608490fd5b60405162461bcd60e51b815260206004820152601760248201527f4d61726b6574206d757374206265207265736f6c7665640000000000000000006044820152606490fd5b503461014d57606036600319011261014d5760043567ffffffffffffffff811161014b573660238201121561014b57818160040135916107e5836116cd565b926107f360405194856115bf565b8084523660248284010111610da457806024602093018386013783010152602435906001600160a01b0382168203610da457426044351115610d51576001600160a01b03821615610d0c576108496002546117d9565b90816002556108578261186d565b6108a7600660286040518094674d61726b6574202360c01b60208301526108878151809260208686019101611685565b810165202d2059455360d01b8382015203016019198101845201826115bf565b6108b08361186d565b6108f4600160216040518094604d60f81b60208301526108d98151809260208686019101611685565b8101605960f81b838201520301601e198101845201826115bf565b604051610d41918282019082821067ffffffffffffffff831117610cf85782916109279161194c968688863930926117e8565b039087f0918215610ced5761093b8561186d565b61098a600560286040518094674d61726b6574202360c01b602083015261096b8151809260208686019101611685565b810164202d204e4f60d81b838201520301601a198101845201826115bf565b6109938661186d565b906109d8600160216040518095604d60f81b60208301526109bd8151809260208686019101611685565b8101602760f91b838201520301601e198101855201836115bf565b604051938085019385851067ffffffffffffffff861117610cd95791610a059391869593863930926117e8565b039086f080156106d05760405190610a1c8261158c565b84825260208083018581526001600160a01b038881166040808701919091526044356060870152608086018b905260a086018b905295811660c08601529290921660e084015261010083018890528588526003905291862081518155915180519067ffffffffffffffff8211610cc557610a996001850154611552565b601f8111610c81575b50602090601f8311600114610bec577f069da8c9710c1600001ae111f110050f586b7fcd73d420b5eb03747f67e86d0d959383610bc79694600694610100948d92610be1575b50508160011b916000199060031b1c19161760018501555b60408101516002850180546001600160a01b039092166001600160a01b031990921691909117905560608101516003850155608081015160048501805460a084015161ff0060089190911b1692151560ff1661ffff199091161791909117815560c0820151815462010000600160b01b03191660109190911b62010000600160b01b031617905560e08101516005850180546001600160a01b0319166001600160a01b039290921691909117905501519101556040805181815292839290918301906116a8565b60443560208301526001600160a01b03909516940390a380f35b015190503880610ae8565b6001850189528189209190601f1984168a5b818110610c69575084600694610100947f069da8c9710c1600001ae111f110050f586b7fcd73d420b5eb03747f67e86d0d9a9894610bc79a9860019510610c50575b505050811b016001850155610b00565b015160001960f88460031b161c19169055388080610c40565b92936020600181928786015181550195019301610bfe565b60018501895260208920601f840160051c810160208510610cbe575b601f830160051c82018110610cb3575050610aa2565b8a8155600101610c9d565b5080610c9d565b634e487b7160e01b88526041600452602488fd5b634e487b7160e01b8b52604160045260248bfd5b6040513d88823e3d90fd5b634e487b7160e01b89526041600452602489fd5b60405162461bcd60e51b815260206004820152601f60248201527f5265736f6c7665722063616e6e6f74206265207a65726f2061646472657373006044820152606490fd5b60405162461bcd60e51b815260206004820152602560248201527f5265736f6c7574696f6e2074696d65206d75737420626520696e207468652066604482015264757475726560d81b6064820152608490fd5b8280fd5b50602036600319011261014d57600435610dc061184b565b808252600360205260408220610dd8815415156116e9565b600481015490610deb60ff83161561172d565b3415610f0557839160068201610e023482546117cc565b905560101c6001600160a01b0316803b15610da4576040516340c10f1960e01b81523360048201523460248201529083908290604490829084905af1908115610efa578391610ee5575b5050600501546001600160a01b0316803b1561014b576040516340c10f1960e01b81523360048201523460248201529082908290604490829084905af1801561064757610ed0575b5050604051903482523460208301527f0831583cced7554a81e1cd091e811afaadc7d575a17fbd354716145bb597efc960403393a36001805580f35b81610eda916115bf565b61014b578138610e94565b81610eef916115bf565b61014b578138610e4c565b6040513d85823e3d90fd5b60405162461bcd60e51b815260206004820152601c60248201527f4d7573742073656e642043454c4f20746f2062757920736861726573000000006044820152606490fd5b503461014d57602036600319011261014d5760409060043581526003602052208054610f78600183016115e1565b9160018060a01b03600282015416906003810154906004810154600660018060a01b0360058401541692015492610fc3604051978897885261012060208901526101208801906116a8565b6040870195909552606086015260ff81811615156080870152600882901c1660a086015260101c6001600160a01b031660c085015260e08401526101008301520390f35b503461014d578060031936011261014d57546040516001600160a01b039091168152602090f35b503461014d578060031936011261014d57611047611822565b80546001600160a01b03198116825581906001600160a01b03167f8be0079c531659141344cd1fd0a4f28419497f9722a3daafe3b4186f6b6457e08280a380f35b503461014d578060031936011261014d576020600554604051908152f35b503461014d578060031936011261014d576110bf611822565b600554801561112b5781808080938160055560018060a01b038254165af16110e561179c565b50156110ee5780f35b60405162461bcd60e51b8152602060048201526015602482015274119959481dda5d1a191c985dd85b0819985a5b1959605a1b6044820152606490fd5b60405162461bcd60e51b81526020600482015260136024820152724e6f206665657320746f20776974686472617760681b6044820152606490fd5b503461014d578060031936011261014d576020600254604051908152f35b503461014d578060031936011261014d576020600454604051908152f35b503461014d57604036600319011261014d576024356004356111c261184b565b8083526003602052604083206111da815415156116e9565b60048101546111ec60ff82161561172d565b83156114a65760058201546040516370a0823160e01b81523360048201526001600160a01b039182169360109390931c9091169190602081602481865afa80156114215786918891611471575b501061142c576040516370a0823160e01b8152336004820152602081602481875afa801561142157869188916113e8575b50106113aa5760060161127e858254611779565b9055803b156113a657604051632770a7eb60e21b8152336004820152602481018590529085908290604490829084905af180156106d057611392575b508084913b1561014b57604051632770a7eb60e21b8152336004820152602481018590529082908290604490829084905af180156106475761137d575b5080808085335af161130761179c565b5015611346576040519180835260208301527fc84ba642853b7fceb52ece6998aa2618edc77f7a182996141f2a470af347cea360403393a36001805580f35b60405162461bcd60e51b815260206004820152600f60248201526e151c985b9cd9995c8819985a5b1959608a1b6044820152606490fd5b81611387916115bf565b610da45782386112f7565b8461139f919592956115bf565b92386112ba565b8480fd5b60405162461bcd60e51b8152602060048201526016602482015275496e73756666696369656e74204e4f20746f6b656e7360501b6044820152606490fd5b9150506020813d602011611419575b81611404602093836115bf565b81010312611415578590513861126a565b8680fd5b3d91506113f7565b6040513d89823e3d90fd5b60405162461bcd60e51b815260206004820152601760248201527f496e73756666696369656e742059455320746f6b656e730000000000000000006044820152606490fd5b9150506020813d60201161149e575b8161148d602093836115bf565b810103126114155785905138611239565b3d9150611480565b606460405162461bcd60e51b815260206004820152602060248201527f416d6f756e74206d7573742062652067726561746572207468616e207a65726f6044820152fd5b503461014d57602036600319011261014d57600435611507611822565b6101f481116115165760045580f35b60405162461bcd60e51b81526020600482015260146024820152734665652063616e6e6f742065786365656420352560601b6044820152606490fd5b90600182811c92168015611582575b602083101461156c57565b634e487b7160e01b600052602260045260246000fd5b91607f1691611561565b610120810190811067ffffffffffffffff8211176115a957604052565b634e487b7160e01b600052604160045260246000fd5b90601f8019910116810190811067ffffffffffffffff8211176115a957604052565b90604051918260008254926115f584611552565b8084529360018116908115611663575060011461161c575b5061161a925003836115bf565b565b90506000929192526020600020906000915b81831061164757505090602061161a928201013861160d565b602091935080600191548385890101520191019091849261162e565b90506020925061161a94915060ff191682840152151560051b8201013861160d565b60005b8381106116985750506000910152565b8181015183820152602001611688565b906020916116c181518092818552858086019101611685565b601f01601f1916010190565b67ffffffffffffffff81116115a957601f01601f191660200190565b156116f057565b60405162461bcd60e51b815260206004820152601560248201527413585c9ad95d08191bd95cc81b9bdd08195e1a5cdd605a1b6044820152606490fd5b1561173457565b60405162461bcd60e51b815260206004820152601a60248201527f4d61726b657420697320616c7265616479207265736f6c7665640000000000006044820152606490fd5b9190820391821161178657565b634e487b7160e01b600052601160045260246000fd5b3d156117c7573d906117ad826116cd565b916117bb60405193846115bf565b82523d6000602084013e565b606090565b9190820180921161178657565b60001981146117865760010190565b91611812906118046040939695966060865260608601906116a8565b9084820360208601526116a8565b6001600160a01b03909416910152565b6000546001600160a01b0316330361183657565b63118cdaa760e01b6000523360045260246000fd5b60026001541461185c576002600155565b633ee5aeb560e01b60005260046000fd5b801561192b57600081805b6119175750611886816116cd565b9061189460405192836115bf565b808252601f196118a3826116cd565b013660208401375b80928015611910576000198201918211611786578193600a8206603001928360301161178657845111156118fa57600a9260f81b6001600160f81b03191660001a908401601f015304916118ab565b634e487b7160e01b600052603260045260246000fd5b5050905090565b90611923600a916117d9565b910480611878565b5060405161193a6040826115bf565b60018152600360fc1b60208201529056fe6080604052346103a057610d4180380380610019816103a5565b9283398101906060818303126103a05780516001600160401b0381116103a057826100459183016103ca565b60208201519092906001600160401b0381116103a0576040916100699184016103ca565b9101516001600160a01b038116908190036103a05782516001600160401b0381116102a957600354600181811c91168015610396575b602082101461028957601f8111610331575b506020601f82116001146102ca57819293946000926102bf575b50508160011b916000199060031b1c1916176003555b81516001600160401b0381116102a957600454600181811c9116801561029f575b602082101461028957601f8111610224575b50602092601f82116001146101bf57928192936000926101b4575b50508160011b916000199060031b1c1916176004555b801561019e57600580546001600160a01b03198116831790915560405191906001600160a01b03167f8be0079c531659141344cd1fd0a4f28419497f9722a3daafe3b4186f6b6457e0600080a361090b90816104368239f35b631e4fbdf760e01b600052600060045260246000fd5b01519050388061012f565b601f198216936004600052806000209160005b86811061020c57508360019596106101f3575b505050811b01600455610145565b015160001960f88460031b161c191690553880806101e5565b919260206001819286850151815501940192016101d2565b60046000527f8a35acfbc15ff81a39ae7d344fd709f28e8600b4aa8c65c6b64bfe7fe36bd19b601f830160051c8101916020841061027f575b601f0160051c01905b8181106102735750610114565b60008155600101610266565b909150819061025d565b634e487b7160e01b600052602260045260246000fd5b90607f1690610102565b634e487b7160e01b600052604160045260246000fd5b0151905038806100cb565b601f198216906003600052806000209160005b81811061031957509583600195969710610300575b505050811b016003556100e1565b015160001960f88460031b161c191690553880806102f2565b9192602060018192868b0151815501940192016102dd565b60036000527fc2575a0e9e593c00f959f8c92f12db2869c3395a3b0502d05e2516446f71f85b601f830160051c8101916020841061038c575b601f0160051c01905b81811061038057506100b1565b60008155600101610373565b909150819061036a565b90607f169061009f565b600080fd5b6040519190601f01601f191682016001600160401b038111838210176102a957604052565b81601f820112156103a0578051906001600160401b0382116102a9576103f9601f8301601f19166020016103a5565b92828452602083830101116103a05760005b82811061042057505060206000918301015290565b8060208092840101518282870101520161040b56fe608080604052600436101561001357600080fd5b60003560e01c90816306fdde03146106cb57508063095ea7b31461064557806318160ddd1461062757806323b872dd1461053a578063313ce5671461051e57806340c10f191461046a57806370a0823114610430578063715018a6146103d35780638da5cb5b146103aa57806395d89b41146102895780639dc29fac146101ca578063a9059cbb14610199578063dd62ed3e146101485763f2fde38b146100b957600080fd5b34610143576020366003190112610143576100d26107e7565b6100da6108ac565b6001600160a01b0316801561012d57600580546001600160a01b0319811683179091556001600160a01b03167f8be0079c531659141344cd1fd0a4f28419497f9722a3daafe3b4186f6b6457e0600080a3005b631e4fbdf760e01b600052600060045260246000fd5b600080fd5b34610143576040366003190112610143576101616107e7565b6101696107fd565b6001600160a01b039182166000908152600160209081526040808320949093168252928352819020549051908152f35b34610143576040366003190112610143576101bf6101b56107e7565b6024359033610813565b602060405160018152f35b34610143576040366003190112610143576101e36107e7565b602435906101ef6108ac565b6001600160a01b03169081156102735760009082825281602052604082205481811061025b5760208285937fddf252ad1be2c89b69c2b068fc378daa952ba7f163c4a11628f55a4df523b3ef93869787528684520360408620558060025403600255604051908152a380f35b60649363391434e360e21b8452600452602452604452fd5b634b637e8f60e11b600052600060045260246000fd5b346101435760003660031901126101435760405160006004548060011c906001811680156103a0575b60208310811461038c578285529081156103705750600114610319575b50819003601f01601f191681019067ffffffffffffffff821181831017610303576102ff8291826040528261079e565b0390f35b634e487b7160e01b600052604160045260246000fd5b905060046000527f8a35acfbc15ff81a39ae7d344fd709f28e8600b4aa8c65c6b64bfe7fe36bd19b6000905b82821061035a575060209150820101826102cf565b6001816020925483858801015201910190610345565b90506020925060ff191682840152151560051b820101826102cf565b634e487b7160e01b84526022600452602484fd5b91607f16916102b2565b34610143576000366003190112610143576005546040516001600160a01b039091168152602090f35b34610143576000366003190112610143576103ec6108ac565b600580546001600160a01b031981169091556000906001600160a01b03167f8be0079c531659141344cd1fd0a4f28419497f9722a3daafe3b4186f6b6457e08280a3005b34610143576020366003190112610143576001600160a01b036104516107e7565b1660005260006020526020604060002054604051908152f35b34610143576040366003190112610143576104836107e7565b6024359061048f6108ac565b6001600160a01b0316801561050857600254918083018093116104f2576020926002557fddf252ad1be2c89b69c2b068fc378daa952ba7f163c4a11628f55a4df523b3ef600093849284845283825260408420818154019055604051908152a380f35b634e487b7160e01b600052601160045260246000fd5b63ec442f0560e01b600052600060045260246000fd5b3461014357600036600319011261014357602060405160128152f35b34610143576060366003190112610143576105536107e7565b61055b6107fd565b6001600160a01b038216600081815260016020908152604080832033845290915290205490926044359291600019811061059b575b506101bf9350610813565b83811061060a5784156105f45733156105de576101bf946000526001602052604060002060018060a01b0333166000526020528360406000209103905584610590565b634a1406b160e11b600052600060045260246000fd5b63e602df0560e01b600052600060045260246000fd5b8390637dc7a0d960e11b6000523360045260245260445260646000fd5b34610143576000366003190112610143576020600254604051908152f35b346101435760403660031901126101435761065e6107e7565b6024359033156105f4576001600160a01b03169081156105de57336000526001602052604060002082600052602052806040600020556040519081527f8c5be1e5ebec7d5bd14f71427d1e84f3dd0314c0f7b2291e5b200ac8c7c3b92560203392a3602060405160018152f35b346101435760003660031901126101435760006003548060011c90600181168015610794575b60208310811461038c57828552908115610370575060011461073d5750819003601f01601f191681019067ffffffffffffffff821181831017610303576102ff8291826040528261079e565b905060036000527fc2575a0e9e593c00f959f8c92f12db2869c3395a3b0502d05e2516446f71f85b6000905b82821061077e575060209150820101826102cf565b6001816020925483858801015201910190610769565b91607f16916106f1565b91909160208152825180602083015260005b8181106107d1575060409293506000838284010152601f8019910116010190565b80602080928701015160408286010152016107b0565b600435906001600160a01b038216820361014357565b602435906001600160a01b038216820361014357565b6001600160a01b0316908115610273576001600160a01b03169182156105085760008281528060205260408120548281106108925791604082827fddf252ad1be2c89b69c2b068fc378daa952ba7f163c4a11628f55a4df523b3ef958760209652828652038282205586815280845220818154019055604051908152a3565b916064928463391434e360e21b8452600452602452604452fd5b6005546001600160a01b031633036108c057565b63118cdaa760e01b6000523360045260246000fdfea2646970667358221220fc963b9f887b59257a9e82a1511057be5d20e3f36eb76684f36d174c185014bc64736f6c634300081c0033a264697066735822122096b01dd93f96ddb9a64f319774dc07e4f600470baa54ec1852b3f35ffe23d9ba64736f6c634300081c0033",
  "linkReferences": {},
  "deployedLinkReferences": {}
}