{
  "_format": "hh-sol-artifact-1",
  "contractName": "RandomNumberGenerator",
  "sourceName": "contracts/RandomNumberGenerator.sol",
  "abi": [
    {
      "inputs": [],
      "stateMutability": "nonpayable",
      "type": "constructor"
    },
    {
      "anonymous": false,
      "inputs": [
        {
          "indexed": true,
          "internalType": "uint256",
          "name": "requestId",
          "type": "uint256"
        },
        {
          "indexed": true,
          "internalType": "address",
          "name": "requester",
          "type": "address"
        },
        {
          "indexed": false,
          "internalType": "uint256",
          "name": "randomNumber",
          "type": "uint256"
        },
        {
          "indexed": false,
          "internalType": "uint256",
          "name": "minRange",
          "type": "uint256"
        },
        {
          "indexed": false,
          "internalType": "uint256",
          "name": "maxRange",
          "type": "uint256"
        }
      ],
      "name": "RandomNumberGenerated",
      "type": "event"
    },
    {
      "anonymous": false,
      "inputs": [
        {
          "indexed": false,
          "internalType": "bytes32",
          "name": "newSeed",
          "type": "bytes32"
        }
      ],
      "name": "SeedUpdated",
      "type": "event"
    },
    {
      "inputs": [],
      "name": "flipCoin",
      "outputs": [
        {
          "internalType": "uint256",
          "name": "",
          "type": "uint256"
        }
      ],
      "stateMutability": "nonpayable",
      "type": "function"
    },
    {
      "inputs": [],
      "name": "generateLotteryNumbers",
      "outputs": [
        {
          "internalType": "uint256[]",
          "name": "",
          "type": "uint256[]"
        }
      ],
      "stateMutability": "nonpayable",
      "type": "function"
    },
    {
      "inputs": [
        {
          "internalType": "uint256",
          "name": "_count",
          "type": "uint256"
        },
        {
          "internalType": "uint256",
          "name": "_min",
          "type": "uint256"
        },
        {
          "internalType": "uint256",
          "name": "_max",
          "type": "uint256"
        }
      ],
      "name": "generateMultipleRandom",
      "outputs": [
        {
          "internalType": "uint256[]",
          "name": "",
          "type": "uint256[]"
        }
      ],
      "stateMutability": "nonpayable",
      "type": "function"
    },
    {
      "inputs": [],
      "name": "generateRandom",
      "outputs": [
        {
          "internalType": "uint256",
          "name": "",
          "type": "uint256"
        }
      ],
      "stateMutability": "nonpayable",
      "type": "function"
    },
    {
      "inputs": [
        {
          "internalType": "uint256",
          "name": "_min",
          "type": "uint256"
        },
        {
          "internalType": "uint256",
          "name": "_max",
          "type": "uint256"
        }
      ],
      "name": "generateRandomInRange",
      "outputs": [
        {
          "internalType": "uint256",
          "name": "",
          "type": "uint256"
        }
      ],
      "stateMutability": "nonpayable",
      "type": "function"
    },
    {
      "inputs": [],
      "name": "getCurrentNonce",
      "outputs": [
        {
          "internalType": "uint256",
          "name": "",
          "type": "uint256"
        }
      ],
      "stateMutability": "view",
      "type": "function"
    },
    {
      "inputs": [
        {
          "internalType": "uint256",
          "name": "_min",
          "type": "uint256"
        },
        {
          "internalType": "uint256",
          "name": "_max",
          "type": "uint256"
        }
      ],
      "name": "getDistributionAnalysis",
      "outputs": [
        {
          "internalType": "uint256[]",
          "name": "numbers",
          "type": "uint256[]"
        },
        {
          "internalType": "uint256[]",
          "name": "counts",
          "type": "uint256[]"
        }
      ],
      "stateMutability": "view",
      "type": "function"
    },
    {
      "inputs": [],
      "name": "getPlatformStats",
      "outputs": [
        {
          "internalType": "uint256",
          "name": "totalRandomNumbers",
          "type": "uint256"
        },
        {
          "internalType": "uint256",
          "name": "totalUsers",
          "type": "uint256"
        },
        {
          "internalType": "uint256",
          "name": "averageRequestsPerUser",
          "type": "uint256"
        }
      ],
      "stateMutability": "view",
      "type": "function"
    },
    {
      "inputs": [
        {
          "internalType": "uint256",
          "name": "_requestId",
          "type": "uint256"
        }
      ],
      "name": "getRandomRequest",
      "outputs": [
        {
          "internalType": "uint256",
          "name": "id",
          "type": "uint256"
        },
        {
          "internalType": "address",
          "name": "requester",
          "type": "address"
        },
        {
          "internalType": "uint256",
          "name": "randomNumber",
          "type": "uint256"
        },
        {
          "internalType": "uint256",
          "name": "minRange",
          "type": "uint256"
        },
        {
          "internalType": "uint256",
          "name": "maxRange",
          "type": "uint256"
        },
        {
          "internalType": "uint256",
          "name": "timestamp",
          "type": "uint256"
        },
        {
          "internalType": "bytes32",
          "name": "seed",
          "type": "bytes32"
        }
      ],
      "stateMutability": "view",
      "type": "function"
    },
    {
      "inputs": [],
      "name": "getRecentNumbers",
      "outputs": [
        {
          "internalType": "uint256[]",
          "name": "",
          "type": "uint256[]"
        }
      ],
      "stateMutability": "view",
      "type": "function"
    },
    {
      "inputs": [],
      "name": "getTotalRequests",
      "outputs": [
        {
          "internalType": "uint256",
          "name": "",
          "type": "uint256"
        }
      ],
      "stateMutability": "view",
      "type": "function"
    },
    {
      "inputs": [
        {
          "internalType": "address",
          "name": "_user",
          "type": "address"
        }
      ],
      "name": "getUserRequests",
      "outputs": [
        {
          "internalType": "uint256[]",
          "name": "",
          "type": "uint256[]"
        }
      ],
      "stateMutability": "view",
      "type": "function"
    },
    {
      "inputs": [
        {
          "internalType": "address",
          "name": "_user",
          "type": "address"
        }
      ],
      "name": "getUserStats",
      "outputs": [
        {
          "internalType": "uint256",
          "name": "totalRequests",
          "type": "uint256"
        },
        {
          "internalType": "uint256",
          "name": "averageNumber",
          "type": "uint256"
        },
        {
          "internalType": "uint256",
          "name": "highestNumber",
          "type": "uint256"
        },
        {
          "internalType": "uint256",
          "name": "lowestNumber",
          "type": "uint256"
        }
      ],
      "stateMutability": "view",
      "type": "function"
    },
    {
      "inputs": [
        {
          "internalType": "uint256",
          "name": "",
          "type": "uint256"
        }
      ],
      "name": "randomRequests",
      "outputs": [
        {
          "internalType": "uint256",
          "name": "id",
          "type": "uint256"
        },
        {
          "internalType": "address",
          "name": "requester",
          "type": "address"
        },
        {
          "internalType": "uint256",
          "name": "randomNumber",
          "type": "uint256"
        },
        {
          "internalType": "uint256",
          "name": "minRange",
          "type": "uint256"
        },
        {
          "internalType": "uint256",
          "name": "maxRange",
          "type": "uint256"
        },
        {
          "internalType": "uint256",
          "name": "timestamp",
          "type": "uint256"
        },
        {
          "internalType": "bytes32",
          "name": "seed",
          "type": "bytes32"
        }
      ],
      "stateMutability": "view",
      "type": "function"
    },
    {
      "inputs": [],
      "name": "rollDice",
      "outputs": [
        {
          "internalType": "uint256",
          "name": "",
          "type": "uint256"
        }
      ],
      "stateMutability": "nonpayable",
      "type": "function"
    },
    {
      "inputs": [],
      "name": "totalRequests",
      "outputs": [
        {
          "internalType": "uint256",
          "name": "",
          "type": "uint256"
        }
      ],
      "stateMutability": "view",
      "type": "function"
    },
    {
      "inputs": [
        {
          "internalType": "address",
          "name": "",
          "type": "address"
        }
      ],
      "name": "userRequestCount",
      "outputs": [
        {
          "internalType": "uint256",
          "name": "",
          "type": "uint256"
        }
      ],
      "stateMutability": "view",
      "type": "function"
    },
    {
      "inputs": [
        {
          "internalType": "address",
          "name": "",
          "type": "address"
        },
        {
          "internalType": "uint256",
          "name": "",
          "type": "uint256"
        }
      ],
      "name": "userRequests",
      "outputs": [
        {
          "internalType": "uint256",
          "name": "",
          "type": "uint256"
        }
      ],
      "stateMutability": "view",
      "type": "function"
    },
    {
      "inputs": [
        {
          "internalType": "uint256",
          "name": "_requestId",
          "type": "uint256"
        }
      ],
      "name": "verifyRandomNumber",
      "outputs": [
        {
          "internalType": "bool",
          "name": "",
          "type": "bool"
        }
      ],
      "stateMutability": "view",
      "type": "function"
    }
  ],
  "bytecode": "0x6080346068576001600055426020820190815244604083015233606090811b908301526054825260808201916001600160401b0383118184101760525782604052519020600255611764908161006e8239f35b634e487b7160e01b600052604160045260246000fd5b600080fdfe6080604052600436101561001257600080fd5b6000803560e01c806302e4af01146110af5780630cc06d4c1461100e578063136d888314610f73578063263cb6b614610f1c5780633a60c38614610efe5780634c25489214610dcd5780634e43603a14610d91578063799ae22314610be257806381aba07b146109dd578063837e7cc6146108005780638aea61dc146101af578063aa488d7e1461071a578063aae31df31461064e578063b337cf74146105c8578063ca067ad01461053c578063cf8941f4146101cd578063f0e22d52146101af578063f1a731b1146101295763f94c04fc146100ee57600080fd5b34610126576020366003190112610126576020906040906001600160a01b03610115611292565b168152600583522054604051908152f35b80fd5b503461012657610138366112db565b906101448282106113b3565b6127106101518284611379565b1161016a5760209161016291611555565b604051908152f35b60405162461bcd60e51b815260206004820152601b60248201527f52616e676520746f6f206c6172676520286d61782031303030302900000000006044820152606490fd5b50346101265780600319360112610126576020600154604051908152f35b50346101265780600319360112610126576040516101ec60e08261130d565b6006815260c0366020830137604051610640610208818361130d565b60318252601f1901366020830137829060001943014381119040903360601b91603194603115945b600682106102e5578888815b6006811061025e576040516020808252819061025a9082018561125e565b0390f35b600181018082116102d1575b6006811061027b575060010161023c565b6001906102888385611386565b516102938286611386565b51106102a0575b0161026a565b6102aa8385611386565b516102b58286611386565b516102c08587611386565b526102cb8286611386565b5261029a565b634e487b7160e01b84526011600452602484fd5b8897929394959697508860015b156104e9575b50889061030660025461139a565b86816002556104d557604051602081019142835244604083015289606083015260748201528660948201526094815261034060b48261130d565b5190208a6104d5576000896104c1575089810660010190816001116104ab576000549061036c8261139a565b60005560066040519161037e836112f1565b8383528d6020840190338252604085018781526060860190600182526080870192835260a087019342855260c08801958652886000526003602052604060002097518855600188019060018060a01b039051166001600160601b0360a01b8254161790555160028701555160038601555160048501555160058401555191015533600052600460205260406000208054600160401b81101561049557610429916001820181556112ad565b81549060031b9083821b91600019901b19161790553360005260056020526040600020610456815461139a565b905561046360015461139a565b60015560405190828252600160208301528b604083015260008051602061170f83398151915260603393a390916102f2565b634e487b7160e01b600052604160045260246000fd5b634e487b7160e01b600052601160045260246000fd5b634e487b7160e01b81526012600452602490fd5b634e487b7160e01b8b52601160045260248bfd5b60001981018181116104d5576104ff9083611386565b516102f8579297969594939290919060001981018181116104d55790600161052981949386611386565b52610534828b611386565b520190610230565b5034610126576020366003190112610126576040906004358152600360205220805461025a60018060a01b0360018401541692600281015490600381015460048201549060066005840154930154936040519788978893909796959260c0959260e0860199865260018060a01b0316602086015260408501526060840152608083015260a08201520152565b5034610126576020366003190112610126576001600160a01b036105ea611292565b168152600460205260408120604051918260208354918281520192825260208220915b8181106106385761025a856106248187038261130d565b60405191829160208352602083019061125e565b825484526020909301926001928301920161060d565b50346101265760203660031901126101265760409060043580151580610710575b6106789061150a565b81526003602052206040519061068d826112f1565b805480835260018201546001600160a01b03166020808501829052600284015460408087018290526003860154606080890182905260048801546080808b0182905260058a015460a0808d018290526006909b015460c09c8d0181905286519a8b52978a019890985293880194909452860152840152928201529182015260e090f35b508154811061066f565b503461012657602036600319011261012657600435801515806107f6575b6107419061150a565b8152600360205260408120906040519061075a826112f1565b8254825260018060a01b03600184015416602083015260c06107b46002850154936040810194855260038601549581876060819401526006600483015492836080840152600581015460a084015201549485910152611379565b91600183018093116107e25750926107d16107d79260209561154b565b90611410565b905114604051908152f35b634e487b7160e01b81526011600452602490fd5b5081548110610738565b503461012657806003193601126101265761081c60025461139a565b8060025560001943014381116109c9576040519060208201924284524460408401523360601b606084015260748301524060948201526094815261086160b48261130d565b51902090806107e2575060068106600101806001116104ab57600054916108878361139a565b600055600660405191610899836112f1565b84835260208301338152604084018581526060850160018152608086019185835260a087019342855260c08801958652896000526003602052604060002097518855600188019060018060a01b039051166001600160601b0360a01b82541617905551600287015551600386015551600485015551600584015551910155336000526004602052604060002091825492600160401b84101561049557836109479160016020960181556112ad565b81549060031b9083821b91600019901b191617905533600052600583526040600020610973815461139a565b905561098060015461139a565b600155604051908282526001848301526006604083015260008051602061170f83398151915260603393a3604051908152f35b634e487b7160e01b600052601260045260246000fd5b634e487b7160e01b83526011600452602483fd5b5034610126576109ec366112db565b9182821015610bad576064610a018385611379565b11610b6857610a108284611379565b60018101809111610b5457610a2481611347565b93610a2e82611347565b93835b838110610b36575083549360015b858110610a7057610a628761025a8a60405193849360408552604085019061125e565b90838203602085015261125e565b8060019183526003602052604083208460405191610a8d836112f1565b80548352848060a01b0385820154166020840152878260028301549485604082015260038401549081606082015260c06006600487015496876080850152600581015460a08501520154910152149182610b2c575b5050610af1575b505001610a3f565b610afa91611379565b868110610b08575b84610ae9565b610b25610b1e610b18838d611386565b5161139a565b918b611386565b5238610b02565b1490508738610ae2565b80610b4360019284611410565b610b4d8289611386565b5201610a31565b634e487b7160e01b82526011600452602482fd5b60405162461bcd60e51b815260206004820152601c60248201527f52616e676520746f6f206c6172676520666f7220616e616c79736973000000006044820152606490fd5b60405162461bcd60e51b815260206004820152600d60248201526c496e76616c69642072616e676560981b6044820152606490fd5b5034610126578060031936011261012657610bfe60025461139a565b8060025560001943014381116109c9576040519060208201924284524460408401523360601b6060840152607483015240609482015260948152610c4360b48261130d565b519020816001926107e25750600080546001831692610c618261139a565b8355600660405191610c72836112f1565b83835260208301338152604084018781526060850187815260808601918a835260a087019342855260c08801958652888a52600360205260408a20975188558b88019060018060a01b039051166001600160601b0360a01b8254161790555160028701555160038601555160048501555160058401555191015533825260046020526040822093845494600160401b861015610d7d5785610d1991836020980181556112ad565b81549060031b9084821b91600019901b19161790553383526005855260408320610d43815461139a565b9055610d4f815461139a565b81556040519284845285840152604083015260008051602061170f83398151915260603393a3604051908152f35b634e487b7160e01b84526041600452602484fd5b5034610126576020366003190112610126576080610db5610db0611292565b61141d565b91604051938452602084015260408301526060820152f35b50346101265760603660031901126101265760043560443560243582151580610ef3575b15610eae57610e018282106113b3565b6103e8610e0e8284611379565b11610e5957610e1c83611347565b935b838110610e3b576040516020808252819061025a9082018861125e565b600190610e488484611555565b610e528288611386565b5201610e1e565b60405162461bcd60e51b815260206004820152602760248201527f52616e676520746f6f206c6172676520666f72206d756c7469706c652067656e60448201526632b930ba34b7b760c91b6064820152608490fd5b60405162461bcd60e51b815260206004820152601e60248201527f436f756e74206d757374206265206265747765656e203120616e6420313000006044820152606490fd5b50600a831115610df1565b50346101265780600319360112610126576020600254604051908152f35b503461012657604036600319011261012657610f36611292565b6001600160a01b0316815260046020526040812080546024359290831015610126576020610f6484846112ad565b90549060031b1c604051908152f35b50346101265780600319360112610126578060018154905b818110610fc75750508115610fc25750610fa7816001546113a9565b60015460408051918252602082019390935291820152606090f35b610fa7565b808352600360209081526040808520600101546001600160a01b031685526005909152832054610ffa575b600101610f8b565b9261100660019161139a565b939050610ff2565b5034610126578060031936011261012657600154600a8110156110a7575b61103581611347565b82549091906000198101908111845b838110611061576040516020808252819061025a9082018861125e565b81611093578061107360019285611379565b87526003602052600260408820015461108c8288611386565b5201611044565b634e487b7160e01b86526011600452602486fd5b50600a61102c565b50346101265780600319360112610126576110cb60025461139a565b8060025560001943014381116109c9576040519060208201924284524460408401523360601b606084015260748301524060948201526094815261111060b48261130d565b519020905060648106600101806001116104ab57600054916111318361139a565b600055600660405191611143836112f1565b8483526020830133815260408401858152606085016001815260808601916064835260a087019342855260c08801958652896000526003602052604060002097518855600188019060018060a01b039051166001600160601b0360a01b82541617905551600287015551600386015551600485015551600584015551910155336000526004602052604060002091825492600160401b84101561049557836111f29160016020960181556112ad565b81549060031b9083821b91600019901b19161790553360005260058352604060002061121e815461139a565b905561122b60015461139a565b600155604051908282526001848301526064604083015260008051602061170f83398151915260603393a3604051908152f35b906020808351928381520192019060005b81811061127c5750505090565b825184526020938401939092019160010161126f565b600435906001600160a01b03821682036112a857565b600080fd5b80548210156112c55760005260206000200190600090565b634e487b7160e01b600052603260045260246000fd5b60409060031901126112a8576004359060243590565b60e0810190811067ffffffffffffffff82111761049557604052565b90601f8019910116810190811067ffffffffffffffff82111761049557604052565b67ffffffffffffffff81116104955760051b60200190565b906113518261132f565b61135e604051918261130d565b828152809261136f601f199161132f565b0190602036910137565b919082039182116104ab57565b80518210156112c55760209160051b010190565b60001981146104ab5760010190565b81156109b3570490565b156113ba57565b60405162461bcd60e51b815260206004820152602860248201527f496e76616c69642072616e67653a206d696e206d757374206265206c657373206044820152670e8d0c2dc40dac2f60c31b6064820152608490fd5b919082018092116104ab57565b60018060a01b031660005260046020526040600020906040518083602082955493848152019060005260206000209260005b8181106114f15750506114649250038361130d565b8151156114e557600060001981805b85518110156114cd576114868187611386565b5160005260036020526114a26002604060002001548095611410565b938281116114c5575b8381106114bc575b50600101611473565b925060016114b3565b9150816114ab565b509290916114dd908551906113a9565b935193929190565b60009150819081908190565b845483526001948501948794506020909301920161144f565b1561151157565b60405162461bcd60e51b8152602060048201526012602482015271125b9d985b1a59081c995c5d595cdd08125160721b6044820152606490fd5b81156109b3570690565b61156060025461139a565b8060025560001943014381116104ab576040519060208201924284524460408401523360601b60608401526074830152406094820152609481526115a560b48261130d565b5190206115b28284611379565b600181018091116104ab576115ca6115d0918361154b565b83611410565b92600054916115de8361139a565b6000556006604051916115f0836112f1565b848352602083013381526040840188815260608501888152608086019187835260a087019342855260c08801958652896000526003602052604060002097518855600188019060018060a01b039051166001600160601b0360a01b82541617905551600287015551600386015551600485015551600584015551910155336000526004602052604060002090815490600160401b821015610495576116ad8260008051602061170f833981519152946001611708950181556112ad565b81549060031b9086821b91600019901b191617905533600052600560205260406000206116da815461139a565b90556116e760015461139a565b60015560408051878152602081019690965285015233939081906060820190565b0390a39056feeca23ef6c506152c00726da573a5937a5ed2819f65dde260ddfe1787600e80f3a264697066735822122083a722fd6cf9e56848922ce777d50cfe53570707bdfd7528a15c509f0f788d9264736f6c634300081c0033",
  "linkReferences": {},
  "deployedLinkReferences": {}
}