{
  "_format": "hh-sol-artifact-1",
  "contractName": "SimpleToken",
  "sourceName": "contracts/SimpleToken.sol",
  "abi": [
    {
      "inputs": [],
      "stateMutability": "nonpayable",
      "type": "constructor"
    },
    {
      "inputs": [
        {
          "internalType": "address",
          "name": "spender",
          "type": "address"
        },
        {
          "internalType": "uint256",
          "name": "allowance",
          "type": "uint256"
        },
        {
          "internalType": "uint256",
          "name": "needed",
          "type": "uint256"
        }
      ],
      "name": "ERC20InsufficientAllowance",
      "type": "error"
    },
    {
      "inputs": [
        {
          "internalType": "address",
          "name": "sender",
          "type": "address"
        },
        {
          "internalType": "uint256",
          "name": "balance",
          "type": "uint256"
        },
        {
          "internalType": "uint256",
          "name": "needed",
          "type": "uint256"
        }
      ],
      "name": "ERC20InsufficientBalance",
      "type": "error"
    },
    {
      "inputs": [
        {
          "internalType": "address",
          "name": "approver",
          "type": "address"
        }
      ],
      "name": "ERC20InvalidApprover",
      "type": "error"
    },
    {
      "inputs": [
        {
          "internalType": "address",
          "name": "receiver",
          "type": "address"
        }
      ],
      "name": "ERC20InvalidReceiver",
      "type": "error"
    },
    {
      "inputs": [
        {
          "internalType": "address",
          "name": "sender",
          "type": "address"
        }
      ],
      "name": "ERC20InvalidSender",
      "type": "error"
    },
    {
      "inputs": [
        {
          "internalType": "address",
          "name": "spender",
          "type": "address"
        }
      ],
      "name": "ERC20InvalidSpender",
      "type": "error"
    },
    {
      "inputs": [
        {
          "internalType": "address",
          "name": "owner",
          "type": "address"
        }
      ],
      "name": "OwnableInvalidOwner",
      "type": "error"
    },
    {
      "inputs": [
        {
          "internalType": "address",
          "name": "account",
          "type": "address"
        }
      ],
      "name": "OwnableUnauthorizedAccount",
      "type": "error"
    },
    {
      "anonymous": false,
      "inputs": [
        {
          "indexed": true,
          "internalType": "address",
          "name": "owner",
          "type": "address"
        },
        {
          "indexed": true,
          "internalType": "address",
          "name": "spender",
          "type": "address"
        },
        {
          "indexed": false,
          "internalType": "uint256",
          "name": "value",
          "type": "uint256"
        }
      ],
      "name": "Approval",
      "type": "event"
    },
    {
      "anonymous": false,
      "inputs": [
        {
          "indexed": true,
          "internalType": "address",
          "name": "previousOwner",
          "type": "address"
        },
        {
          "indexed": true,
          "internalType": "address",
          "name": "newOwner",
          "type": "address"
        }
      ],
      "name": "OwnershipTransferred",
      "type": "event"
    },
    {
      "anonymous": false,
      "inputs": [
        {
          "indexed": true,
          "internalType": "address",
          "name": "from",
          "type": "address"
        },
        {
          "indexed": true,
          "internalType": "address",
          "name": "to",
          "type": "address"
        },
        {
          "indexed": false,
          "internalType": "uint256",
          "name": "value",
          "type": "uint256"
        }
      ],
      "name": "Transfer",
      "type": "event"
    },
    {
      "inputs": [],
      "name": "INITIAL_SUPPLY",
      "outputs": [
        {
          "internalType": "uint256",
          "name": "",
          "type": "uint256"
        }
      ],
      "stateMutability": "view",
      "type": "function"
    },
    {
      "inputs": [
        {
          "internalType": "address",
          "name": "owner",
          "type": "address"
        },
        {
          "internalType": "address",
          "name": "spender",
          "type": "address"
        }
      ],
      "name": "allowance",
      "outputs": [
        {
          "internalType": "uint256",
          "name": "",
          "type": "uint256"
        }
      ],
      "stateMutability": "view",
      "type": "function"
    },
    {
      "inputs": [
        {
          "internalType": "address",
          "name": "spender",
          "type": "address"
        },
        {
          "internalType": "uint256",
          "name": "value",
          "type": "uint256"
        }
      ],
      "name": "approve",
      "outputs": [
        {
          "internalType": "bool",
          "name": "",
          "type": "bool"
        }
      ],
      "stateMutability": "nonpayable",
      "type": "function"
    },
    {
      "inputs": [
        {
          "internalType": "address",
          "name": "account",
          "type": "address"
        }
      ],
      "name": "balanceOf",
      "outputs": [
        {
          "internalType": "uint256",
          "name": "",
          "type": "uint256"
        }
      ],
      "stateMutability": "view",
      "type": "function"
    },
    {
      "inputs": [
        {
          "internalType": "uint256",
          "name": "amount",
          "type": "uint256"
        }
      ],
      "name": "burn",
      "outputs": [],
      "stateMutability": "nonpayable",
      "type": "function"
    },
    {
      "inputs": [],
      "name": "decimals",
      "outputs": [
        {
          "internalType": "uint8",
          "name": "",
          "type": "uint8"
        }
      ],
      "stateMutability": "view",
      "type": "function"
    },
    {
      "inputs": [
        {
          "internalType": "address",
          "name": "to",
          "type": "address"
        },
        {
          "internalType": "uint256",
          "name": "amount",
          "type": "uint256"
        }
      ],
      "name": "mint",
      "outputs": [],
      "stateMutability": "nonpayable",
      "type": "function"
    },
    {
      "inputs": [],
      "name": "name",
      "outputs": [
        {
          "internalType": "string",
          "name": "",
          "type": "string"
        }
      ],
      "stateMutability": "view",
      "type": "function"
    },
    {
      "inputs": [],
      "name": "owner",
      "outputs": [
        {
          "internalType": "address",
          "name": "",
          "type": "address"
        }
      ],
      "stateMutability": "view",
      "type": "function"
    },
    {
      "inputs": [],
      "name": "renounceOwnership",
      "outputs": [],
      "stateMutability": "nonpayable",
      "type": "function"
    },
    {
      "inputs": [],
      "name": "symbol",
      "outputs": [
        {
          "internalType": "string",
          "name": "",
          "type": "string"
        }
      ],
      "stateMutability": "view",
      "type": "function"
    },
    {
      "inputs": [],
      "name": "totalSupply",
      "outputs": [
        {
          "internalType": "uint256",
          "name": "",
          "type": "uint256"
        }
      ],
      "stateMutability": "view",
      "type": "function"
    },
    {
      "inputs": [
        {
          "internalType": "address",
          "name": "to",
          "type": "address"
        },
        {
          "internalType": "uint256",
          "name": "value",
          "type": "uint256"
        }
      ],
      "name": "transfer",
      "outputs": [
        {
          "internalType": "bool",
          "name": "",
          "type": "bool"
        }
      ],
      "stateMutability": "nonpayable",
      "type": "function"
    },
    {
      "inputs": [
        {
          "internalType": "address",
          "name": "from",
          "type": "address"
        },
        {
          "internalType": "address",
          "name": "to",
          "type": "address"
        },
        {
          "internalType": "uint256",
          "name": "value",
          "type": "uint256"
        }
      ],
      "name": "transferFrom",
      "outputs": [
        {
          "internalType": "bool",
          "name": "",
          "type": "bool"
        }
      ],
      "stateMutability": "nonpayable",
      "type": "function"
    },
    {
      "inputs": [
        {
          "internalType": "address",
          "name": "newOwner",
          "type": "address"
        }
      ],
      "name": "transferOwnership",
      "outputs": [],
      "stateMutability": "nonpayable",
      "type": "function"
    }
  ],
  "bytecode": "0x608060405234801561001057600080fd5b50336040518060400160405280600b81526020016a29b4b6b83632aa37b5b2b760a91b8152506040518060400160405280600381526020016253544b60e81b81525081600390816100619190610318565b50600461006e8282610318565b5050506001600160a01b0381166100a057604051631e4fbdf760e01b8152600060048201526024015b60405180910390fd5b6100a9816100c3565b506100be3369d3c21bcecceda1000000610115565b6103fd565b600580546001600160a01b038381166001600160a01b0319831681179093556040519116919082907f8be0079c531659141344cd1fd0a4f28419497f9722a3daafe3b4186f6b6457e090600090a35050565b6001600160a01b03821661013f5760405163ec442f0560e01b815260006004820152602401610097565b61014b6000838361014f565b5050565b6001600160a01b03831661017a57806002600082825461016f91906103d6565b909155506101ec9050565b6001600160a01b038316600090815260208190526040902054818110156101cd5760405163391434e360e21b81526001600160a01b03851660048201526024810182905260448101839052606401610097565b6001600160a01b03841660009081526020819052604090209082900390555b6001600160a01b03821661020857600280548290039055610227565b6001600160a01b03821660009081526020819052604090208054820190555b816001600160a01b0316836001600160a01b03167fddf252ad1be2c89b69c2b068fc378daa952ba7f163c4a11628f55a4df523b3ef8360405161026c91815260200190565b60405180910390a3505050565b634e487b7160e01b600052604160045260246000fd5b600181811c908216806102a357607f821691505b6020821081036102c357634e487b7160e01b600052602260045260246000fd5b50919050565b601f82111561031357806000526020600020601f840160051c810160208510156102f05750805b601f840160051c820191505b8181101561031057600081556001016102fc565b50505b505050565b81516001600160401b0381111561033157610331610279565b6103458161033f845461028f565b846102c9565b6020601f82116001811461037957600083156103615750848201515b600019600385901b1c1916600184901b178455610310565b600084815260208120601f198516915b828110156103a95787850151825560209485019460019092019101610389565b50848210156103c75786840151600019600387901b60f8161c191681555b50505050600190811b01905550565b808201808211156103f757634e487b7160e01b600052601160045260246000fd5b92915050565b6109698061040c6000396000f3fe608060405234801561001057600080fd5b50600436106100f55760003560e01c806342966c681161009757806395d89b411161006657806395d89b41146101f4578063a9059cbb146101fc578063dd62ed3e1461020f578063f2fde38b1461024857600080fd5b806342966c681461019557806370a08231146101a8578063715018a6146101d15780638da5cb5b146101d957600080fd5b806323b872dd116100d357806323b872dd1461014d5780632ff2e9dc14610160578063313ce5671461017157806340c10f191461018057600080fd5b806306fdde03146100fa578063095ea7b31461011857806318160ddd1461013b575b600080fd5b61010261025b565b60405161010f9190610799565b60405180910390f35b61012b610126366004610803565b6102ed565b604051901515815260200161010f565b6002545b60405190815260200161010f565b61012b61015b36600461082d565b610307565b61013f69d3c21bcecceda100000081565b6040516012815260200161010f565b61019361018e366004610803565b61032b565b005b6101936101a336600461086a565b610341565b61013f6101b6366004610883565b6001600160a01b031660009081526020819052604090205490565b61019361034e565b6005546040516001600160a01b03909116815260200161010f565b610102610362565b61012b61020a366004610803565b610371565b61013f61021d3660046108a5565b6001600160a01b03918216600090815260016020908152604080832093909416825291909152205490565b610193610256366004610883565b61037f565b60606003805461026a906108d8565b80601f0160208091040260200160405190810160405280929190818152602001828054610296906108d8565b80156102e35780601f106102b8576101008083540402835291602001916102e3565b820191906000526020600020905b8154815290600101906020018083116102c657829003601f168201915b5050505050905090565b6000336102fb8185856103bf565b60019150505b92915050565b6000336103158582856103d1565b610320858585610450565b506001949350505050565b6103336104af565b61033d82826104dc565b5050565b61034b3382610512565b50565b6103566104af565b6103606000610548565b565b60606004805461026a906108d8565b6000336102fb818585610450565b6103876104af565b6001600160a01b0381166103b657604051631e4fbdf760e01b8152600060048201526024015b60405180910390fd5b61034b81610548565b6103cc838383600161059a565b505050565b6001600160a01b0383811660009081526001602090815260408083209386168352929052205460001981101561044a578181101561043b57604051637dc7a0d960e11b81526001600160a01b038416600482015260248101829052604481018390526064016103ad565b61044a8484848403600061059a565b50505050565b6001600160a01b03831661047a57604051634b637e8f60e11b8152600060048201526024016103ad565b6001600160a01b0382166104a45760405163ec442f0560e01b8152600060048201526024016103ad565b6103cc83838361066f565b6005546001600160a01b031633146103605760405163118cdaa760e01b81523360048201526024016103ad565b6001600160a01b0382166105065760405163ec442f0560e01b8152600060048201526024016103ad565b61033d6000838361066f565b6001600160a01b03821661053c57604051634b637e8f60e11b8152600060048201526024016103ad565b61033d8260008361066f565b600580546001600160a01b038381166001600160a01b0319831681179093556040519116919082907f8be0079c531659141344cd1fd0a4f28419497f9722a3daafe3b4186f6b6457e090600090a35050565b6001600160a01b0384166105c45760405163e602df0560e01b8152600060048201526024016103ad565b6001600160a01b0383166105ee57604051634a1406b160e11b8152600060048201526024016103ad565b6001600160a01b038085166000908152600160209081526040808320938716835292905220829055801561044a57826001600160a01b0316846001600160a01b03167f8c5be1e5ebec7d5bd14f71427d1e84f3dd0314c0f7b2291e5b200ac8c7c3b9258460405161066191815260200190565b60405180910390a350505050565b6001600160a01b03831661069a57806002600082825461068f9190610912565b9091555061070c9050565b6001600160a01b038316600090815260208190526040902054818110156106ed5760405163391434e360e21b81526001600160a01b038516600482015260248101829052604481018390526064016103ad565b6001600160a01b03841660009081526020819052604090209082900390555b6001600160a01b03821661072857600280548290039055610747565b6001600160a01b03821660009081526020819052604090208054820190555b816001600160a01b0316836001600160a01b03167fddf252ad1be2c89b69c2b068fc378daa952ba7f163c4a11628f55a4df523b3ef8360405161078c91815260200190565b60405180910390a3505050565b602081526000825180602084015260005b818110156107c757602081860181015160408684010152016107aa565b506000604082850101526040601f19601f83011684010191505092915050565b80356001600160a01b03811681146107fe57600080fd5b919050565b6000806040838503121561081657600080fd5b61081f836107e7565b946020939093013593505050565b60008060006060848603121561084257600080fd5b61084b846107e7565b9250610859602085016107e7565b929592945050506040919091013590565b60006020828403121561087c57600080fd5b5035919050565b60006020828403121561089557600080fd5b61089e826107e7565b9392505050565b600080604083850312156108b857600080fd5b6108c1836107e7565b91506108cf602084016107e7565b90509250929050565b600181811c908216806108ec57607f821691505b60208210810361090c57634e487b7160e01b600052602260045260246000fd5b50919050565b8082018082111561030157634e487b7160e01b600052601160045260246000fdfea26469706673582212209f0eea5134fce1a7ffeafb14cc7e7aa08eee1920b96f8e7cd85b32e73ea9125464736f6c634300081c0033",
  "linkReferences": {},
  "deployedLinkReferences": {}
}