{
  "_format": "hh-sol-artifact-1",
  "contractName": "SimplePoll",
  "sourceName": "contracts/SimplePoll.sol",
  "abi": [
    {
      "inputs": [
        {
          "internalType": "string",
          "name": "_question",
          "type": "string"
        }
      ],
      "stateMutability": "nonpayable",
      "type": "constructor"
    },
    {
      "anonymous": false,
      "inputs": [
        {
          "indexed": true,
          "internalType": "address",
          "name": "voter",
          "type": "address"
        },
        {
          "indexed": false,
          "internalType": "bool",
          "name": "vote",
          "type": "bool"
        },
        {
          "indexed": false,
          "internalType": "uint256",
          "name": "totalYes",
          "type": "uint256"
        },
        {
          "indexed": false,
          "internalType": "uint256",
          "name": "totalNo",
          "type": "uint256"
        }
      ],
      "name": "Voted",
      "type": "event"
    },
    {
      "inputs": [],
      "name": "getResults",
      "outputs": [
        {
          "internalType": "uint256",
          "name": "_yesVotes",
          "type": "uint256"
        },
        {
          "internalType": "uint256",
          "name": "_noVotes",
          "type": "uint256"
        }
      ],
      "stateMutability": "view",
      "type": "function"
    },
    {
      "inputs": [
        {
          "internalType": "address",
          "name": "",
          "type": "address"
        }
      ],
      "name": "hasVoted",
      "outputs": [
        {
          "internalType": "bool",
          "name": "",
          "type": "bool"
        }
      ],
      "stateMutability": "view",
      "type": "function"
    },
    {
      "inputs": [],
      "name": "noVotes",
      "outputs": [
        {
          "internalType": "uint256",
          "name": "",
          "type": "uint256"
        }
      ],
      "stateMutability": "view",
      "type": "function"
    },
    {
      "inputs": [],
      "name": "question",
      "outputs": [
        {
          "internalType": "string",
          "name": "",
          "type": "string"
        }
      ],
      "stateMutability": "view",
      "type": "function"
    },
    {
      "inputs": [
        {
          "internalType": "bool",
          "name": "_vote",
          "type": "bool"
        }
      ],
      "name": "vote",
      "outputs": [],
      "stateMutability": "nonpayable",
      "type": "function"
    },
    {
      "inputs": [],
      "name": "yesVotes",
      "outputs": [
        {
          "internalType": "uint256",
          "name": "",
          "type": "uint256"
        }
      ],
      "stateMutability": "view",
      "type": "function"
    }
  ],
  "bytecode": "0x6080604052346102685761064b803803806100198161026d565b928339810190602081830312610268578051906001600160401b038211610268570181601f82011215610268578051906001600160401b0382116101f85761006a601f8301601f191660200161026d565b92828452602083830101116102685760005b828110610253578360006020858301015280511561020e5780516001600160401b0381116101f857600054600181811c911680156101ee575b60208210146101d857601f8111610174575b50602091601f821160011461011157918192600092610106575b50508160011b916000199060031b1c1916176000555b6040516103b890816102938239f35b0151905082806100e1565b601f1982169260008052806000209160005b85811061015c57508360019510610143575b505050811b016000556100f7565b015160001960f88460031b161c19169055828080610135565b91926020600181928685015181550194019201610123565b600080527f290decd9548b62a8d60345a988386fc84ba6bc95484008f6362f93160ef3e563601f830160051c810191602084106101ce575b601f0160051c01905b8181106101c257506100c7565b600081556001016101b5565b90915081906101ac565b634e487b7160e01b600052602260045260246000fd5b90607f16906100b5565b634e487b7160e01b600052604160045260246000fd5b60405162461bcd60e51b815260206004820152601860248201527f5175657374696f6e2063616e6e6f7420626520656d70747900000000000000006044820152606490fd5b8060208092840101518282870101520161007c565b600080fd5b6040519190601f01601f191682016001600160401b038111838210176101f85760405256fe608080604052600436101561001357600080fd5b60003560e01c90816309eef43e1461031d575080633fad9ae0146101c25780634717f97c1461019d5780634b9f5c98146100a2578063b5b47f42146100845763fb286c651461006157600080fd5b3461007f57600036600319011261007f576020600154604051908152f35b600080fd5b3461007f57600036600319011261007f576020600254604051908152f35b3461007f57602036600319011261007f576004358015159081810361007f5733600052600360205260ff60406000205416610158573360005260036020526040600020600160ff198254161790556000146101455761010260015461035d565b6001555b60015460025490604051928352602083015260408201527f823509eb2896162212a53c9a760ac3eb90fd39cee81485d1e4e137638c3020c860603392a2005b61015060025461035d565b600255610106565b60405162461bcd60e51b815260206004820152601760248201527f596f75206861766520616c726561647920766f7465642e0000000000000000006044820152606490fd5b3461007f57600036600319011261007f57604060015460025482519182526020820152f35b3461007f57600036600319011261007f57604051600080548060011c90600181168015610313575b6020831081146102ff578285529081156102e3575060011461028d575b50819003601f01601f191681019067ffffffffffffffff8211818310176102775781604052602082528181519182602083015260005b83811061025f5750508160006040809484010152601f80199101168101030190f35b6020828201810151604087840101528593500161023d565b634e487b7160e01b600052604160045260246000fd5b9050600080527f290decd9548b62a8d60345a988386fc84ba6bc95484008f6362f93160ef3e5636000905b8282106102cd57506020915082010182610207565b60018160209254838588010152019101906102b8565b90506020925060ff191682840152151560051b82010182610207565b634e487b7160e01b84526022600452602484fd5b91607f16916101ea565b3461007f57602036600319011261007f576004356001600160a01b038116919082900361007f576020916000526003825260ff6040600020541615158152f35b600019811461036c5760010190565b634e487b7160e01b600052601160045260246000fdfea2646970667358221220b0aa565e2064e5ff9ceaa1efc9d6e665749f024208142fd6788e8bbc2e5a3b4f64736f6c634300081c0033",
  "linkReferences": {},
  "deployedLinkReferences": {}
}