{
  "_format": "hh-sol-artifact-1",
  "contractName": "SimpleStorage",
  "sourceName": "contracts/SimpleStorage.sol",
  "abi": [
    {
      "inputs": [],
      "stateMutability": "nonpayable",
      "type": "constructor"
    },
    {
      "anonymous": false,
      "inputs": [
        {
          "indexed": true,
          "internalType": "address",
          "name": "user",
          "type": "address"
        },
        {
          "indexed": false,
          "internalType": "string",
          "name": "newMessage",
          "type": "string"
        }
      ],
      "name": "MessageUpdated",
      "type": "event"
    },
    {
      "anonymous": false,
      "inputs": [
        {
          "indexed": true,
          "internalType": "address",
          "name": "user",
          "type": "address"
        },
        {
          "indexed": false,
          "internalType": "uint256",
          "name": "newNumber",
          "type": "uint256"
        }
      ],
      "name": "NumberUpdated",
      "type": "event"
    },
    {
      "inputs": [
        {
          "internalType": "uint256",
          "name": "_numberToAdd",
          "type": "uint256"
        }
      ],
      "name": "addToFavoriteNumber",
      "outputs": [],
      "stateMutability": "nonpayable",
      "type": "function"
    },
    {
      "inputs": [
        {
          "internalType": "address",
          "name": "",
          "type": "address"
        }
      ],
      "name": "addressToFavoriteNumber",
      "outputs": [
        {
          "internalType": "uint256",
          "name": "",
          "type": "uint256"
        }
      ],
      "stateMutability": "view",
      "type": "function"
    },
    {
      "inputs": [
        {
          "internalType": "address",
          "name": "",
          "type": "address"
        }
      ],
      "name": "addressToMessage",
      "outputs": [
        {
          "internalType": "string",
          "name": "",
          "type": "string"
        }
      ],
      "stateMutability": "view",
      "type": "function"
    },
    {
      "inputs": [
        {
          "internalType": "address",
          "name": "_address",
          "type": "address"
        }
      ],
      "name": "getAddressMessage",
      "outputs": [
        {
          "internalType": "string",
          "name": "",
          "type": "string"
        }
      ],
      "stateMutability": "view",
      "type": "function"
    },
    {
      "inputs": [
        {
          "internalType": "address",
          "name": "_address",
          "type": "address"
        }
      ],
      "name": "getFavoriteNumber",
      "outputs": [
        {
          "internalType": "uint256",
          "name": "",
          "type": "uint256"
        }
      ],
      "stateMutability": "view",
      "type": "function"
    },
    {
      "inputs": [],
      "name": "getMessage",
      "outputs": [
        {
          "internalType": "string",
          "name": "",
          "type": "string"
        }
      ],
      "stateMutability": "view",
      "type": "function"
    },
    {
      "inputs": [],
      "name": "owner",
      "outputs": [
        {
          "internalType": "address",
          "name": "",
          "type": "address"
        }
      ],
      "stateMutability": "view",
      "type": "function"
    },
    {
      "inputs": [],
      "name": "reset",
      "outputs": [],
      "stateMutability": "nonpayable",
      "type": "function"
    },
    {
      "inputs": [],
      "name": "retrieve",
      "outputs": [
        {
          "internalType": "uint256",
          "name": "",
          "type": "uint256"
        }
      ],
      "stateMutability": "view",
      "type": "function"
    },
    {
      "inputs": [
        {
          "internalType": "string",
          "name": "_message",
          "type": "string"
        }
      ],
      "name": "setMessage",
      "outputs": [],
      "stateMutability": "nonpayable",
      "type": "function"
    },
    {
      "inputs": [
        {
          "internalType": "uint256",
          "name": "_favoriteNumber",
          "type": "uint256"
        }
      ],
      "name": "store",
      "outputs": [],
      "stateMutability": "nonpayable",
      "type": "function"
    }
  ],
  "bytecode": "0x608060405234801561001057600080fd5b50600280546001600160a01b03191633179055602a60005560408051808201909152600b81526a48656c6c6f2043454c4f2160a81b602082015260019061005790826100fc565b506101ba565b634e487b7160e01b600052604160045260246000fd5b600181811c9082168061008757607f821691505b6020821081036100a757634e487b7160e01b600052602260045260246000fd5b50919050565b601f8211156100f757806000526020600020601f840160051c810160208510156100d45750805b601f840160051c820191505b818110156100f457600081556001016100e0565b50505b505050565b81516001600160401b038111156101155761011561005d565b610129816101238454610073565b846100ad565b6020601f82116001811461015d57600083156101455750848201515b600019600385901b1c1916600184901b1784556100f4565b600084815260208120601f198516915b8281101561018d578785015182556020948501946001909201910161016d565b50848210156101ab5786840151600019600387901b60f8161c191681555b50505050600190811b01905550565b61093c806101c96000396000f3fe608060405234801561001057600080fd5b50600436106100a95760003560e01c80636057361d116100715780636057361d146101205780638da5cb5b14610133578063ce6d41de1461015e578063d826f88f14610166578063eb1362ac1461016e578063f4eebab91461019757600080fd5b806327442074146100ae5780632e64cec1146100c3578063368b8772146100da578063427a3ec4146100ed57806346fc95d11461010d575b600080fd5b6100c16100bc3660046105a5565b6101b7565b005b6000545b6040519081526020015b60405180910390f35b6100c16100e83660046105d4565b61021f565b6101006100fb36600461068d565b61027f565b6040516100d191906106bd565b61010061011b36600461068d565b61032b565b6100c161012e3660046105a5565b6103c5565b600254610146906001600160a01b031681565b6040516001600160a01b0390911681526020016100d1565b61010061040d565b6100c161049f565b6100c761017c36600461068d565b6001600160a01b031660009081526003602052604090205490565b6100c76101a536600461068d565b60036020526000908152604090205481565b806000808282546101c8919061070b565b90915550506000805433808352600360205260409283902082905591517f34fc9a8d030d354e59e2bf2e5d0f37f63355b58fdbef38546a8af45588c1c0c1916102149190815260200190565b60405180910390a250565b600161022b82826107bb565b5033600090815260046020526040902061024582826107bb565b50336001600160a01b03167f3f784155aa459466ce143eb76c376834c30b26979da03bd4be74cd146c4bb1c38260405161021491906106bd565b6001600160a01b03811660009081526004602052604090208054606091906102a690610732565b80601f01602080910402602001604051908101604052809291908181526020018280546102d290610732565b801561031f5780601f106102f45761010080835404028352916020019161031f565b820191906000526020600020905b81548152906001019060200180831161030257829003601f168201915b50505050509050919050565b6004602052600090815260409020805461034490610732565b80601f016020809104026020016040519081016040528092919081815260200182805461037090610732565b80156103bd5780601f10610392576101008083540402835291602001916103bd565b820191906000526020600020905b8154815290600101906020018083116103a057829003601f168201915b505050505081565b600081815533808252600360205260409182902083905590517f34fc9a8d030d354e59e2bf2e5d0f37f63355b58fdbef38546a8af45588c1c0c1906102149084815260200190565b60606001805461041c90610732565b80601f016020809104026020016040519081016040528092919081815260200182805461044890610732565b80156104955780601f1061046a57610100808354040283529160200191610495565b820191906000526020600020905b81548152906001019060200180831161047857829003601f168201915b5050505050905090565b6002546001600160a01b031633146104f45760405162461bcd60e51b815260206004820152601460248201527313db9b1e481bdddb995c8818d85b881c995cd95d60621b604482015260640160405180910390fd5b602a60005560408051808201909152600b81526a48656c6c6f2043454c4f2160a81b602082015260019061052890826107bb565b5060005460405190815233907f34fc9a8d030d354e59e2bf2e5d0f37f63355b58fdbef38546a8af45588c1c0c19060200160405180910390a2336001600160a01b03167f3f784155aa459466ce143eb76c376834c30b26979da03bd4be74cd146c4bb1c3600160405161059b919061087a565b60405180910390a2565b6000602082840312156105b757600080fd5b5035919050565b634e487b7160e01b600052604160045260246000fd5b6000602082840312156105e657600080fd5b813567ffffffffffffffff8111156105fd57600080fd5b8201601f8101841361060e57600080fd5b803567ffffffffffffffff811115610628576106286105be565b604051601f8201601f19908116603f0116810167ffffffffffffffff81118282101715610657576106576105be565b60405281815282820160200186101561066f57600080fd5b81602084016020830137600091810160200191909152949350505050565b60006020828403121561069f57600080fd5b81356001600160a01b03811681146106b657600080fd5b9392505050565b602081526000825180602084015260005b818110156106eb57602081860181015160408684010152016106ce565b506000604082850101526040601f19601f83011684010191505092915050565b8082018082111561072c57634e487b7160e01b600052601160045260246000fd5b92915050565b600181811c9082168061074657607f821691505b60208210810361076657634e487b7160e01b600052602260045260246000fd5b50919050565b601f8211156107b657806000526020600020601f840160051c810160208510156107935750805b601f840160051c820191505b818110156107b3576000815560010161079f565b50505b505050565b815167ffffffffffffffff8111156107d5576107d56105be565b6107e9816107e38454610732565b8461076c565b6020601f82116001811461081d57600083156108055750848201515b600019600385901b1c1916600184901b1784556107b3565b600084815260208120601f198516915b8281101561084d578785015182556020948501946001909201910161082d565b508482101561086b5786840151600019600387901b60f8161c191681555b50505050600190811b01905550565b60208152600080835461088c81610732565b80602086015260018216600081146108ab57600181146108c7576108fb565b60ff1983166040870152604082151560051b87010193506108fb565b86600052602060002060005b838110156108f2578154888201604001526001909101906020016108d3565b87016040019450505b50919594505050505056fea26469706673582212200c445967dbf756ba5cd44157e6a96b79022b4272aed6f91bae2d5c3e013ba6f464736f6c634300081c0033",
  "linkReferences": {},
  "deployedLinkReferences": {}
}