{
  "_format": "hh-sol-artifact-1",
  "contractName": "TipJar",
  "sourceName": "contracts/TipJar.sol",
  "abi": [
    {
      "inputs": [
        {
          "internalType": "address",
          "name": "initialOwner",
          "type": "address"
        }
      ],
      "stateMutability": "nonpayable",
      "type": "constructor"
    },
    {
      "inputs": [
        {
          "internalType": "address",
          "name": "owner",
          "type": "address"
        }
      ],
      "name": "OwnableInvalidOwner",
      "type": "error"
    },
    {
      "inputs": [
        {
          "internalType": "address",
          "name": "account",
          "type": "address"
        }
      ],
      "name": "OwnableUnauthorizedAccount",
      "type": "error"
    },
    {
      "anonymous": false,
      "inputs": [
        {
          "indexed": true,
          "internalType": "address",
          "name": "previousOwner",
          "type": "address"
        },
        {
          "indexed": true,
          "internalType": "address",
          "name": "newOwner",
          "type": "address"
        }
      ],
      "name": "OwnershipTransferred",
      "type": "event"
    },
    {
      "anonymous": false,
      "inputs": [
        {
          "indexed": true,
          "internalType": "address",
          "name": "sender",
          "type": "address"
        },
        {
          "indexed": false,
          "internalType": "uint256",
          "name": "amount",
          "type": "uint256"
        },
        {
          "indexed": false,
          "internalType": "string",
          "name": "message",
          "type": "string"
        }
      ],
      "name": "TipReceived",
      "type": "event"
    },
    {
      "anonymous": false,
      "inputs": [
        {
          "indexed": false,
          "internalType": "uint256",
          "name": "amount",
          "type": "uint256"
        },
        {
          "indexed": true,
          "internalType": "address",
          "name": "recipient",
          "type": "address"
        }
      ],
      "name": "Withdrawn",
      "type": "event"
    },
    {
      "inputs": [],
      "name": "getContractBalance",
      "outputs": [
        {
          "internalType": "uint256",
          "name": "",
          "type": "uint256"
        }
      ],
      "stateMutability": "view",
      "type": "function"
    },
    {
      "inputs": [
        {
          "internalType": "uint256",
          "name": "_count",
          "type": "uint256"
        }
      ],
      "name": "getLatestTips",
      "outputs": [
        {
          "components": [
            {
              "internalType": "address",
              "name": "sender",
              "type": "address"
            },
            {
              "internalType": "uint256",
              "name": "amount",
              "type": "uint256"
            },
            {
              "internalType": "string",
              "name": "message",
              "type": "string"
            },
            {
              "internalType": "uint256",
              "name": "timestamp",
              "type": "uint256"
            }
          ],
          "internalType": "struct TipJar.Tip[]",
          "name": "",
          "type": "tuple[]"
        }
      ],
      "stateMutability": "view",
      "type": "function"
    },
    {
      "inputs": [],
      "name": "getTipCount",
      "outputs": [
        {
          "internalType": "uint256",
          "name": "",
          "type": "uint256"
        }
      ],
      "stateMutability": "view",
      "type": "function"
    },
    {
      "inputs": [],
      "name": "owner",
      "outputs": [
        {
          "internalType": "address",
          "name": "",
          "type": "address"
        }
      ],
      "stateMutability": "view",
      "type": "function"
    },
    {
      "inputs": [],
      "name": "renounceOwnership",
      "outputs": [],
      "stateMutability": "nonpayable",
      "type": "function"
    },
    {
      "inputs": [
        {
          "internalType": "string",
          "name": "_message",
          "type": "string"
        }
      ],
      "name": "sendTip",
      "outputs": [],
      "stateMutability": "payable",
      "type": "function"
    },
    {
      "inputs": [],
      "name": "totalTipped",
      "outputs": [
        {
          "internalType": "uint256",
          "name": "",
          "type": "uint256"
        }
      ],
      "stateMutability": "view",
      "type": "function"
    },
    {
      "inputs": [
        {
          "internalType": "address",
          "name": "newOwner",
          "type": "address"
        }
      ],
      "name": "transferOwnership",
      "outputs": [],
      "stateMutability": "nonpayable",
      "type": "function"
    },
    {
      "inputs": [],
      "name": "withdraw",
      "outputs": [],
      "stateMutability": "nonpayable",
      "type": "function"
    }
  ],
  "bytecode": "0x60803460bc57601f610ab338819003918201601f19168301916001600160401b0383118484101760c15780849260209460405283398101031260bc57516001600160a01b0381169081900360bc57801560a657600080546001600160a01b031981168317825560405192916001600160a01b03909116907f8be0079c531659141344cd1fd0a4f28419497f9722a3daafe3b4186f6b6457e09080a36109db90816100d88239f35b631e4fbdf760e01b600052600060045260246000fd5b600080fd5b634e487b7160e01b600052604160045260246000fdfe6080604052600436101561001257600080fd5b60003560e01c80633ccfd60b1461071c578063523a7b0f146104d65780636f9fb98a146104ba578063715018a6146104615780637dc1a64f146104435780637f5154b4146101585780638da5cb5b1461012f578063b814b7ed146101115763f2fde38b1461007f57600080fd5b3461010c57602036600319011261010c576004356001600160a01b0381169081900361010c576100ad61097c565b80156100f657600080546001600160a01b03198116831782556001600160a01b0316907f8be0079c531659141344cd1fd0a4f28419497f9722a3daafe3b4186f6b6457e09080a3005b631e4fbdf760e01b600052600060045260246000fd5b600080fd5b3461010c57600036600319011261010c576020600254604051908152f35b3461010c57600036600319011261010c576000546040516001600160a01b039091168152602090f35b602036600319011261010c5760043567ffffffffffffffff811161010c573660238201121561010c57806004013561018f816108c5565b9161019d60405193846108a3565b818352366024838301011161010c5781600092602460209301838601378301015234156103e8576040516101d081610887565b33815260208101348152604082018381526060830191428352600154680100000000000000008110156103bc5780600161020d92016001556108f9565b9490946103d2575184546001600160a01b0319166001600160a01b0391909116178455516001840155518051600284019167ffffffffffffffff82116103bc576102578354610942565b601f8111610374575b50602090601f831160011461030a57600394939291600091836102ff575b50508160011b9160001990861b1c19161790555b519101556002543481018091116102e9576002557f8d379bddc159e67937283b53edd0858bdd6f8ba659d7bc286617c5afdb4f478060405134815260406020820152806102e433946040830190610846565b0390a2005b634e487b7160e01b600052601160045260246000fd5b01519050878061027e565b90601f1983169184600052816000209260005b81811061035c575091600193918560039897969410610344575b505050811b019055610292565b015160001983881b60f8161c19169055878080610337565b9293602060018192878601518155019501930161031d565b836000526020600020601f840160051c810191602085106103b2575b601f0160051c01905b8181106103a65750610260565b60008155600101610399565b9091508190610390565b634e487b7160e01b600052604160045260246000fd5b634e487b7160e01b600052600060045260246000fd5b60405162461bcd60e51b815260206004820152602d60248201527f5469704a61723a2054697020616d6f756e74206d75737420626520677265617460448201526c32b9103a3430b7103d32b9379760991b6064820152608490fd5b3461010c57600036600319011261010c576020600154604051908152f35b3461010c57600036600319011261010c5761047a61097c565b600080546001600160a01b0319811682556001600160a01b03167f8be0079c531659141344cd1fd0a4f28419497f9722a3daafe3b4186f6b6457e08280a3005b3461010c57600036600319011261010c57602047604051908152f35b3461010c57602036600319011261010c57600154600435818111156107165750805b610501826108e1565b9161050f60405193846108a3565b808352601f1961051e826108e1565b0160005b8181106106e3575090916000198101915080821160005b8481106105d657856040518091602082016020835281518091526040830190602060408260051b8601019301916000905b82821061057957505050500390f35b919360019193955060208091603f19898203018552875190848060a01b03825116815282820151838201526060806105c06040850151608060408601526080850190610846565b930151910152960192019201859493919261056a565b816102e957808303600019018481116102e9576105f2906108f9565b506040519061060082610887565b80546001600160a01b031682526001810154602083015260405160028201805460009161062c82610942565b80855291600181169081156106bc5750600114610682575b5050918161065a600393600197969503826108a3565b604084015201546060820152610670828961092e565b5261067b818861092e565b5001610539565b6000908152602081209092505b8183106106a657505081016020018161065a610644565b600181602092548386880101520192019161068f565b60ff191660208087019190915292151560051b8501909201925083915061065a9050610644565b6020906040516106f281610887565b60008152600083820152606060408201526000606082015282828801015201610522565b906104f8565b3461010c57600036600319011261010c5761073561097c565b4780156108015760008080808460018060a01b038254165af13d156107fc573d61075e816108c5565b9061076c60405192836108a3565b8152600060203d92013e5b156107b7576000546040519182526001600160a01b0316907f8c7cdad0d12a8db3e23561b42da6f10c8137914c97beff202213a410e1f520a390602090a2005b60405162461bcd60e51b815260206004820152601a60248201527f5469704a61723a205769746864726177616c206661696c65642e0000000000006044820152606490fd5b610777565b60405162461bcd60e51b815260206004820152601d60248201527f5469704a61723a204e6f2066756e647320746f2077697468647261772e0000006044820152606490fd5b919082519283825260005b848110610872575050826000602080949584010152601f8019910116010190565b80602080928401015182828601015201610851565b6080810190811067ffffffffffffffff8211176103bc57604052565b90601f8019910116810190811067ffffffffffffffff8211176103bc57604052565b67ffffffffffffffff81116103bc57601f01601f191660200190565b67ffffffffffffffff81116103bc5760051b60200190565b60015481101561091857600160005260206000209060021b0190600090565b634e487b7160e01b600052603260045260246000fd5b80518210156109185760209160051b010190565b90600182811c92168015610972575b602083101461095c57565b634e487b7160e01b600052602260045260246000fd5b91607f1691610951565b6000546001600160a01b0316330361099057565b63118cdaa760e01b6000523360045260246000fdfea2646970667358221220472e5463f8f6f902948f5dbafdcca05b8fe70b9c0127dacda4d70c0f12b11ecf64736f6c634300081c0033",
  "linkReferences": {},
  "deployedLinkReferences": {}
}