{
  "_format": "hh-sol-artifact-1",
  "contractName": "TodoList",
  "sourceName": "contracts/TodoList.sol",
  "abi": [
    {
      "inputs": [],
      "stateMutability": "nonpayable",
      "type": "constructor"
    },
    {
      "anonymous": false,
      "inputs": [
        {
          "indexed": true,
          "internalType": "uint256",
          "name": "taskId",
          "type": "uint256"
        },
        {
          "indexed": true,
          "internalType": "address",
          "name": "owner",
          "type": "address"
        },
        {
          "indexed": false,
          "internalType": "uint256",
          "name": "timestamp",
          "type": "uint256"
        }
      ],
      "name": "TaskCompleted",
      "type": "event"
    },
    {
      "anonymous": false,
      "inputs": [
        {
          "indexed": true,
          "internalType": "uint256",
          "name": "taskId",
          "type": "uint256"
        },
        {
          "indexed": true,
          "internalType": "address",
          "name": "owner",
          "type": "address"
        },
        {
          "indexed": false,
          "internalType": "string",
          "name": "title",
          "type": "string"
        },
        {
          "indexed": false,
          "internalType": "enum TodoList.Priority",
          "name": "priority",
          "type": "uint8"
        },
        {
          "indexed": false,
          "internalType": "uint256",
          "name": "dueDate",
          "type": "uint256"
        },
        {
          "indexed": false,
          "internalType": "uint256",
          "name": "timestamp",
          "type": "uint256"
        }
      ],
      "name": "TaskCreated",
      "type": "event"
    },
    {
      "anonymous": false,
      "inputs": [
        {
          "indexed": true,
          "internalType": "uint256",
          "name": "taskId",
          "type": "uint256"
        },
        {
          "indexed": true,
          "internalType": "address",
          "name": "owner",
          "type": "address"
        },
        {
          "indexed": false,
          "internalType": "uint256",
          "name": "timestamp",
          "type": "uint256"
        }
      ],
      "name": "TaskDeleted",
      "type": "event"
    },
    {
      "anonymous": false,
      "inputs": [
        {
          "indexed": true,
          "internalType": "uint256",
          "name": "taskId",
          "type": "uint256"
        },
        {
          "indexed": true,
          "internalType": "address",
          "name": "owner",
          "type": "address"
        },
        {
          "indexed": false,
          "internalType": "enum TodoList.Status",
          "name": "oldStatus",
          "type": "uint8"
        },
        {
          "indexed": false,
          "internalType": "enum TodoList.Status",
          "name": "newStatus",
          "type": "uint8"
        },
        {
          "indexed": false,
          "internalType": "uint256",
          "name": "timestamp",
          "type": "uint256"
        }
      ],
      "name": "TaskUpdated",
      "type": "event"
    },
    {
      "inputs": [
        {
          "internalType": "uint256",
          "name": "_taskId",
          "type": "uint256"
        }
      ],
      "name": "cancelTask",
      "outputs": [],
      "stateMutability": "nonpayable",
      "type": "function"
    },
    {
      "inputs": [
        {
          "internalType": "address",
          "name": "",
          "type": "address"
        }
      ],
      "name": "cancelledTasks",
      "outputs": [
        {
          "internalType": "uint256",
          "name": "",
          "type": "uint256"
        }
      ],
      "stateMutability": "view",
      "type": "function"
    },
    {
      "inputs": [
        {
          "internalType": "uint256",
          "name": "_taskId",
          "type": "uint256"
        }
      ],
      "name": "completeTask",
      "outputs": [],
      "stateMutability": "nonpayable",
      "type": "function"
    },
    {
      "inputs": [
        {
          "internalType": "address",
          "name": "",
          "type": "address"
        }
      ],
      "name": "completedTasks",
      "outputs": [
        {
          "internalType": "uint256",
          "name": "",
          "type": "uint256"
        }
      ],
      "stateMutability": "view",
      "type": "function"
    },
    {
      "inputs": [
        {
          "internalType": "string",
          "name": "_title",
          "type": "string"
        },
        {
          "internalType": "string",
          "name": "_description",
          "type": "string"
        },
        {
          "internalType": "enum TodoList.Priority",
          "name": "_priority",
          "type": "uint8"
        },
        {
          "internalType": "uint256",
          "name": "_dueDate",
          "type": "uint256"
        }
      ],
      "name": "createTask",
      "outputs": [
        {
          "internalType": "uint256",
          "name": "",
          "type": "uint256"
        }
      ],
      "stateMutability": "nonpayable",
      "type": "function"
    },
    {
      "inputs": [
        {
          "internalType": "uint256",
          "name": "_taskId",
          "type": "uint256"
        }
      ],
      "name": "deleteTask",
      "outputs": [],
      "stateMutability": "nonpayable",
      "type": "function"
    },
    {
      "inputs": [
        {
          "internalType": "address",
          "name": "_user",
          "type": "address"
        }
      ],
      "name": "getCompletionRate",
      "outputs": [
        {
          "internalType": "uint256",
          "name": "",
          "type": "uint256"
        }
      ],
      "stateMutability": "view",
      "type": "function"
    },
    {
      "inputs": [],
      "name": "getContractStats",
      "outputs": [
        {
          "internalType": "uint256",
          "name": "totalTasksCreated",
          "type": "uint256"
        },
        {
          "internalType": "uint256",
          "name": "activeUsers",
          "type": "uint256"
        },
        {
          "internalType": "uint256",
          "name": "totalCompletedTasks",
          "type": "uint256"
        }
      ],
      "stateMutability": "view",
      "type": "function"
    },
    {
      "inputs": [
        {
          "internalType": "address",
          "name": "_user",
          "type": "address"
        }
      ],
      "name": "getOverdueTasks",
      "outputs": [
        {
          "internalType": "uint256[]",
          "name": "",
          "type": "uint256[]"
        }
      ],
      "stateMutability": "view",
      "type": "function"
    },
    {
      "inputs": [
        {
          "internalType": "uint256",
          "name": "_taskId",
          "type": "uint256"
        }
      ],
      "name": "getTask",
      "outputs": [
        {
          "internalType": "uint256",
          "name": "id",
          "type": "uint256"
        },
        {
          "internalType": "string",
          "name": "title",
          "type": "string"
        },
        {
          "internalType": "string",
          "name": "description",
          "type": "string"
        },
        {
          "internalType": "enum TodoList.Priority",
          "name": "priority",
          "type": "uint8"
        },
        {
          "internalType": "enum TodoList.Status",
          "name": "status",
          "type": "uint8"
        },
        {
          "internalType": "uint256",
          "name": "createdAt",
          "type": "uint256"
        },
        {
          "internalType": "uint256",
          "name": "updatedAt",
          "type": "uint256"
        },
        {
          "internalType": "uint256",
          "name": "dueDate",
          "type": "uint256"
        },
        {
          "internalType": "address",
          "name": "owner",
          "type": "address"
        }
      ],
      "stateMutability": "view",
      "type": "function"
    },
    {
      "inputs": [
        {
          "internalType": "address",
          "name": "_user",
          "type": "address"
        }
      ],
      "name": "getUserStats",
      "outputs": [
        {
          "internalType": "uint256",
          "name": "total",
          "type": "uint256"
        },
        {
          "internalType": "uint256",
          "name": "completed",
          "type": "uint256"
        },
        {
          "internalType": "uint256",
          "name": "pending",
          "type": "uint256"
        },
        {
          "internalType": "uint256",
          "name": "inProgress",
          "type": "uint256"
        },
        {
          "internalType": "uint256",
          "name": "cancelled",
          "type": "uint256"
        },
        {
          "internalType": "uint256",
          "name": "overdue",
          "type": "uint256"
        }
      ],
      "stateMutability": "view",
      "type": "function"
    },
    {
      "inputs": [
        {
          "internalType": "address",
          "name": "_user",
          "type": "address"
        }
      ],
      "name": "getUserTasks",
      "outputs": [
        {
          "internalType": "uint256[]",
          "name": "",
          "type": "uint256[]"
        }
      ],
      "stateMutability": "view",
      "type": "function"
    },
    {
      "inputs": [
        {
          "internalType": "address",
          "name": "_user",
          "type": "address"
        },
        {
          "internalType": "enum TodoList.Priority",
          "name": "_priority",
          "type": "uint8"
        }
      ],
      "name": "getUserTasksByPriority",
      "outputs": [
        {
          "internalType": "uint256[]",
          "name": "",
          "type": "uint256[]"
        }
      ],
      "stateMutability": "view",
      "type": "function"
    },
    {
      "inputs": [
        {
          "internalType": "address",
          "name": "_user",
          "type": "address"
        },
        {
          "internalType": "enum TodoList.Status",
          "name": "_status",
          "type": "uint8"
        }
      ],
      "name": "getUserTasksByStatus",
      "outputs": [
        {
          "internalType": "uint256[]",
          "name": "",
          "type": "uint256[]"
        }
      ],
      "stateMutability": "view",
      "type": "function"
    },
    {
      "inputs": [
        {
          "internalType": "address",
          "name": "",
          "type": "address"
        }
      ],
      "name": "inProgressTasks",
      "outputs": [
        {
          "internalType": "uint256",
          "name": "",
          "type": "uint256"
        }
      ],
      "stateMutability": "view",
      "type": "function"
    },
    {
      "inputs": [
        {
          "internalType": "uint256",
          "name": "_taskId",
          "type": "uint256"
        }
      ],
      "name": "isTaskOverdue",
      "outputs": [
        {
          "internalType": "bool",
          "name": "",
          "type": "bool"
        }
      ],
      "stateMutability": "view",
      "type": "function"
    },
    {
      "inputs": [
        {
          "internalType": "address",
          "name": "",
          "type": "address"
        }
      ],
      "name": "pendingTasks",
      "outputs": [
        {
          "internalType": "uint256",
          "name": "",
          "type": "uint256"
        }
      ],
      "stateMutability": "view",
      "type": "function"
    },
    {
      "inputs": [
        {
          "internalType": "enum TodoList.Priority",
          "name": "_priority",
          "type": "uint8"
        }
      ],
      "name": "priorityToString",
      "outputs": [
        {
          "internalType": "string",
          "name": "",
          "type": "string"
        }
      ],
      "stateMutability": "pure",
      "type": "function"
    },
    {
      "inputs": [
        {
          "internalType": "uint256",
          "name": "_taskId",
          "type": "uint256"
        }
      ],
      "name": "startTask",
      "outputs": [],
      "stateMutability": "nonpayable",
      "type": "function"
    },
    {
      "inputs": [
        {
          "internalType": "enum TodoList.Status",
          "name": "_status",
          "type": "uint8"
        }
      ],
      "name": "statusToString",
      "outputs": [
        {
          "internalType": "string",
          "name": "",
          "type": "string"
        }
      ],
      "stateMutability": "pure",
      "type": "function"
    },
    {
      "inputs": [
        {
          "internalType": "uint256",
          "name": "",
          "type": "uint256"
        }
      ],
      "name": "tasks",
      "outputs": [
        {
          "internalType": "uint256",
          "name": "id",
          "type": "uint256"
        },
        {
          "internalType": "string",
          "name": "title",
          "type": "string"
        },
        {
          "internalType": "string",
          "name": "description",
          "type": "string"
        },
        {
          "internalType": "enum TodoList.Priority",
          "name": "priority",
          "type": "uint8"
        },
        {
          "internalType": "enum TodoList.Status",
          "name": "status",
          "type": "uint8"
        },
        {
          "internalType": "uint256",
          "name": "createdAt",
          "type": "uint256"
        },
        {
          "internalType": "uint256",
          "name": "updatedAt",
          "type": "uint256"
        },
        {
          "internalType": "uint256",
          "name": "dueDate",
          "type": "uint256"
        },
        {
          "internalType": "address",
          "name": "owner",
          "type": "address"
        },
        {
          "internalType": "bool",
          "name": "exists",
          "type": "bool"
        }
      ],
      "stateMutability": "view",
      "type": "function"
    },
    {
      "inputs": [],
      "name": "totalTasks",
      "outputs": [
        {
          "internalType": "uint256",
          "name": "",
          "type": "uint256"
        }
      ],
      "stateMutability": "view",
      "type": "function"
    },
    {
      "inputs": [
        {
          "internalType": "uint256",
          "name": "_taskId",
          "type": "uint256"
        },
        {
          "internalType": "string",
          "name": "_title",
          "type": "string"
        },
        {
          "internalType": "string",
          "name": "_description",
          "type": "string"
        },
        {
          "internalType": "enum TodoList.Priority",
          "name": "_priority",
          "type": "uint8"
        },
        {
          "internalType": "uint256",
          "name": "_dueDate",
          "type": "uint256"
        }
      ],
      "name": "updateTask",
      "outputs": [],
      "stateMutability": "nonpayable",
      "type": "function"
    },
    {
      "inputs": [
        {
          "internalType": "uint256",
          "name": "_taskId",
          "type": "uint256"
        },
        {
          "internalType": "enum TodoList.Status",
          "name": "_newStatus",
          "type": "uint8"
        }
      ],
      "name": "updateTaskStatus",
      "outputs": [],
      "stateMutability": "nonpayable",
      "type": "function"
    },
    {
      "inputs": [
        {
          "internalType": "address",
          "name": "",
          "type": "address"
        }
      ],
      "name": "userTaskCount",
      "outputs": [
        {
          "internalType": "uint256",
          "name": "",
          "type": "uint256"
        }
      ],
      "stateMutability": "view",
      "type": "function"
    },
    {
      "inputs": [
        {
          "internalType": "address",
          "name": "",
          "type": "address"
        },
        {
          "internalType": "uint256",
          "name": "",
          "type": "uint256"
        }
      ],
      "name": "userTasks",
      "outputs": [
        {
          "internalType": "uint256",
          "name": "",
          "type": "uint256"
        }
      ],
      "stateMutability": "view",
      "type": "function"
    }
  ],
  "bytecode": "0x6080604052348015600f57600080fd5b5060008055612b94806100236000396000f3fe608060405234801561001057600080fd5b506004361061018e5760003560e01c806394eaf4fa116100de578063ac444c5611610097578063d937963e11610071578063d937963e146103fa578063dde157281461041a578063dfe6b5d61461042d578063e1e295581461044d57600080fd5b8063ac444c56146103be578063c343c410146103d1578063d22c81e5146103f157600080fd5b806394eaf4fa1461032f57806395d576601461034f578063994a0bba14610362578063a3c28ba614610375578063ab7e91fe14610388578063ab9b6811146103ab57600080fd5b80635f9443261161014b57806372efb5311161012557806372efb531146102c05780637eec20a8146102d35780638c90f327146102e65780638d9776721461030657600080fd5b80635f9443261461027a57806366873a551461028d5780636d7b7fc9146102a057600080fd5b8063075a8bbd1461019357806312ead59d146101bc5780631d65e77e146101dd5780634e43603a14610205578063560f31921461024557806358f9e7411461025a575b600080fd5b6101a66101a13660046123f0565b610460565b6040516101b39190612412565b60405180910390f35b6101cf6101ca366004612508565b61088b565b6040519081526020016101b3565b6101f06101eb366004612589565b610bc5565b6040516101b39998979695949392919061261c565b6102186102133660046123f0565b610e80565b604080519687526020870195909552938501929092526060840152608083015260a082015260c0016101b3565b610258610253366004612589565b610ed8565b005b6101cf6102683660046123f0565b60036020526000908152604090205481565b610258610288366004612589565b611097565b6101cf61029b366004612699565b611119565b6102b36102ae3660046126c3565b61114a565b6040516101b391906126e0565b6101a66102ce3660046126f3565b611267565b6102586102e1366004612589565b6114b7565b6101cf6102f43660046123f0565b60056020526000908152604090205481565b610319610314366004612589565b611535565b6040516101b39a9998979695949392919061272a565b6101cf61033d3660046123f0565b60066020526000908152604090205481565b6101a661035d3660046123f0565b6116a9565b6102b36103703660046126c3565b611715565b6101cf6103833660046123f0565b6117fe565b61039b610396366004612589565b61185e565b60405190151581526020016101b3565b6102586103b93660046127b2565b611af4565b6101a66103cc3660046126f3565b611cdd565b6101cf6103df3660046123f0565b60046020526000908152604090205481565b6101cf60005481565b6101cf6104083660046123f0565b60076020526000908152604090205481565b6102586104283660046127d7565b611f20565b6000805460408051918252602082018390528101919091526060016101b3565b61025861045b366004612589565b612165565b6001600160a01b03811660009081526002602090815260408083208054825181850281018501909352808352606094938301828280156104bf57602002820191906000526020600020905b8154815260200190600101908083116104ab575b50505050509050600081516001600160401b038111156104e1576104e1612455565b60405190808252806020026020018201604052801561050a578160200160208202803683370190505b5090506000805b83518110156107f05760006001600086848151811061053257610532612862565b60200260200101518152602001908152602001600020604051806101400160405290816000820154815260200160018201805461056e90612878565b80601f016020809104026020016040519081016040528092919081815260200182805461059a90612878565b80156105e75780601f106105bc576101008083540402835291602001916105e7565b820191906000526020600020905b8154815290600101906020018083116105ca57829003601f168201915b5050505050815260200160028201805461060090612878565b80601f016020809104026020016040519081016040528092919081815260200182805461062c90612878565b80156106795780601f1061064e57610100808354040283529160200191610679565b820191906000526020600020905b81548152906001019060200180831161065c57829003601f168201915b505050918352505060038281015460209092019160ff16908111156106a0576106a06125e8565b60038111156106b1576106b16125e8565b81526020016003820160019054906101000a900460ff1660038111156106d9576106d96125e8565b60038111156106ea576106ea6125e8565b81526004820154602082015260058201546040820152600682015460608201526007909101546001600160a01b0381166080830152600160a01b900460ff16151560a090910152610120810151909150801561074a575060008160e00151115b80156107595750428160e00151105b801561077b5750600281608001516003811115610778576107786125e8565b14155b801561079d575060038160800151600381111561079a5761079a6125e8565b14155b156107e7578482815181106107b4576107b4612862565b60200260200101518484815181106107ce576107ce612862565b6020908102919091010152826107e3816128c2565b9350505b50600101610511565b506000816001600160401b0381111561080b5761080b612455565b604051908082528060200260200182016040528015610834578160200160208202803683370190505b50905060005b828110156108815783818151811061085457610854612862565b602002602001015182828151811061086e5761086e612862565b602090810291909101015260010161083a565b5095945050505050565b6000808551116108da5760405162461bcd60e51b81526020600482015260156024820152745469746c652063616e6e6f7420626520656d70747960581b60448201526064015b60405180910390fd5b60648551111561092c5760405162461bcd60e51b815260206004820152601e60248201527f5469746c6520746f6f206c6f6e6720286d61782031303020636861727329000060448201526064016108d1565b6101f48451111561094f5760405162461bcd60e51b81526004016108d1906128db565b81158061095b57504282115b6109a75760405162461bcd60e51b815260206004820152601e60248201527f4475652064617465206d75737420626520696e2074686520667574757265000060448201526064016108d1565b6000805490806109b6836128c2565b91905055506000805490506040518061014001604052808281526020018781526020018681526020018560038111156109f1576109f16125e8565b81526020016000815242602080830182905260408084019290925260608301879052336080840152600160a090930183905260008581528382529190912083518155908301519091820190610a46908261296b565b5060408201516002820190610a5b908261296b565b5060608201518160030160006101000a81548160ff02191690836003811115610a8657610a866125e8565b021790555060808201518160030160016101000a81548160ff02191690836003811115610ab557610ab56125e8565b021790555060a0820151600482015560c0820151600582015560e0820151600682015561010082015160079091018054610120909301511515600160a01b026001600160a81b03199093166001600160a01b039092169190911791909117905533600081815260026020908152604080832080546001810182559084528284200185905592825260039052908120805491610b4f836128c2565b9091555050336000908152600560205260408120805491610b6f836128c2565b9190505550336001600160a01b0316817f8086434e0886a8185730499f2e829ca81c9dc4a2186489efc9ec33827134fdbe88878742604051610bb49493929190612a29565b60405180910390a395945050505050565b6000606080600080600080600080896001600082815260200190815260200160002060070160149054906101000a900460ff16610c145760405162461bcd60e51b81526004016108d190612a62565b60008b815260016020818152604080842081516101408101909252805482529283018054919392840191610c4790612878565b80601f0160208091040260200160405190810160405280929190818152602001828054610c7390612878565b8015610cc05780601f10610c9557610100808354040283529160200191610cc0565b820191906000526020600020905b815481529060010190602001808311610ca357829003601f168201915b50505050508152602001600282018054610cd990612878565b80601f0160208091040260200160405190810160405280929190818152602001828054610d0590612878565b8015610d525780601f10610d2757610100808354040283529160200191610d52565b820191906000526020600020905b815481529060010190602001808311610d3557829003601f168201915b505050918352505060038281015460209092019160ff1690811115610d7957610d796125e8565b6003811115610d8a57610d8a6125e8565b81526020016003820160019054906101000a900460ff166003811115610db257610db26125e8565b6003811115610dc357610dc36125e8565b81526020016004820154815260200160058201548152602001600682015481526020016007820160009054906101000a90046001600160a01b03166001600160a01b03166001600160a01b031681526020016007820160149054906101000a900460ff1615151515815250509050806000015181602001518260400151836060015184608001518560a001518660c001518760e001518861010001519a509a509a509a509a509a509a509a509a5050509193959799909294969850565b6001600160a01b038116600090815260036020908152604080832054600483528184205460058452828520546006855283862054600790955292852054919490939190610ecc87610460565b51905091939550919395565b6000818152600160205260409020600701548190600160a01b900460ff16610f125760405162461bcd60e51b81526004016108d190612a62565b6000818152600160205260409020600701546001600160a01b03163314610f4b5760405162461bcd60e51b81526004016108d190612a8f565b60008281526001602052604090206003810154610f71903390610100900460ff166121e3565b336000908152600360205260408120805491610f8c83612abb565b9091555050336000908152600260205260408120905b815481101561104c5784828281548110610fbe57610fbe612862565b9060005260206000200154036110445781548290610fde90600190612ad2565b81548110610fee57610fee612862565b906000526020600020015482828154811061100b5761100b612862565b90600052602060002001819055508180548061102957611029612ae5565b6001900381819060005260206000200160009055905561104c565b600101610fa2565b50604051428152339085907f0752dde00495a9fda916c836f0f9e13b19edac46a7eebef960aa0a5cdb7736ca9060200160405180910390a350600701805460ff60a01b191690555050565b6000818152600160205260409020600701548190600160a01b900460ff166110d15760405162461bcd60e51b81526004016108d190612a62565b6000818152600160205260409020600701546001600160a01b0316331461110a5760405162461bcd60e51b81526004016108d190612a8f565b611115826001611af4565b5050565b6002602052816000526040600020818154811061113557600080fd5b90600052602060002001600091509150505481565b60606000826003811115611160576111606125e8565b0361118857505060408051808201909152600781526650656e64696e6760c81b602082015290565b600182600381111561119c5761119c6125e8565b036111c857505060408051808201909152600b81526a496e2050726f677265737360a81b602082015290565b60028260038111156111dc576111dc6125e8565b0361120657505060408051808201909152600981526810dbdb5c1b195d195960ba1b602082015290565b600382600381111561121a5761121a6125e8565b0361124457505060408051808201909152600981526810d85b98d95b1b195960ba1b602082015290565b50506040805180820190915260078152662ab735b737bbb760c91b602082015290565b6001600160a01b03821660009081526002602090815260408083208054825181850281018501909352808352606094938301828280156112c657602002820191906000526020600020905b8154815260200190600101908083116112b2575b50505050509050600081516001600160401b038111156112e8576112e8612455565b604051908082528060200260200182016040528015611311578160200160208202803683370190505b5090506000805b8351811015611419576001600085838151811061133757611337612862565b6020026020010151815260200190815260200160002060070160149054906101000a900460ff1680156113c75750856003811115611377576113776125e8565b6001600086848151811061138d5761138d612862565b6020026020010151815260200190815260200160002060030160019054906101000a900460ff1660038111156113c5576113c56125e8565b145b15611411578381815181106113de576113de612862565b60200260200101518383815181106113f8576113f8612862565b60209081029190910101528161140d816128c2565b9250505b600101611318565b506000816001600160401b0381111561143457611434612455565b60405190808252806020026020018201604052801561145d578160200160208202803683370190505b50905060005b828110156114aa5783818151811061147d5761147d612862565b602002602001015182828151811061149757611497612862565b6020908102919091010152600101611463565b5093505050505b92915050565b6000818152600160205260409020600701548190600160a01b900460ff166114f15760405162461bcd60e51b81526004016108d190612a62565b6000818152600160205260409020600701546001600160a01b0316331461152a5760405162461bcd60e51b81526004016108d190612a8f565b611115826003611af4565b60016020819052600091825260409091208054918101805461155690612878565b80601f016020809104026020016040519081016040528092919081815260200182805461158290612878565b80156115cf5780601f106115a4576101008083540402835291602001916115cf565b820191906000526020600020905b8154815290600101906020018083116115b257829003601f168201915b5050505050908060020180546115e490612878565b80601f016020809104026020016040519081016040528092919081815260200182805461161090612878565b801561165d5780601f106116325761010080835404028352916020019161165d565b820191906000526020600020905b81548152906001019060200180831161164057829003601f168201915b5050506003840154600485015460058601546006870154600790970154959660ff8085169761010090950481169650929450909290916001600160a01b03821691600160a01b9004168a565b6001600160a01b03811660009081526002602090815260409182902080548351818402810184019094528084526060939283018282801561170957602002820191906000526020600020905b8154815260200190600101908083116116f5575b50505050509050919050565b6060600082600381111561172b5761172b6125e8565b0361174f5750506040805180820190915260038152624c6f7760e81b602082015290565b6001826003811115611763576117636125e8565b0361178a5750506040805180820190915260068152654d656469756d60d01b602082015290565b600282600381111561179e5761179e6125e8565b036117c3575050604080518082019091526004815263090d2ced60e31b602082015290565b60038260038111156117d7576117d76125e8565b03611244575050604080518082019091526006815265155c99d95b9d60d21b602082015290565b6001600160a01b0381166000908152600360205260408120548082036118275750600092915050565b6001600160a01b0383166000908152600460205260409020548161184c826064612afb565b6118569190612b12565b949350505050565b6000818152600160205260408120600701548290600160a01b900460ff166118985760405162461bcd60e51b81526004016108d190612a62565b6000838152600160208181526040808420815161014081019092528054825292830180549193928401916118cb90612878565b80601f01602080910402602001604051908101604052809291908181526020018280546118f790612878565b80156119445780601f1061191957610100808354040283529160200191611944565b820191906000526020600020905b81548152906001019060200180831161192757829003601f168201915b5050505050815260200160028201805461195d90612878565b80601f016020809104026020016040519081016040528092919081815260200182805461198990612878565b80156119d65780601f106119ab576101008083540402835291602001916119d6565b820191906000526020600020905b8154815290600101906020018083116119b957829003601f168201915b505050918352505060038281015460209092019160ff16908111156119fd576119fd6125e8565b6003811115611a0e57611a0e6125e8565b81526020016003820160019054906101000a900460ff166003811115611a3657611a366125e8565b6003811115611a4757611a476125e8565b81526004820154602082015260058201546040820152600682015460608201526007909101546001600160a01b0381166080830152600160a01b900460ff16151560a09091015260e081015190915015801590611aa75750428160e00151105b8015611ac95750600281608001516003811115611ac657611ac66125e8565b14155b80156118565750600381608001516003811115611ae857611ae86125e8565b14159250505b50919050565b6000828152600160205260409020600701548290600160a01b900460ff16611b2e5760405162461bcd60e51b81526004016108d190612a62565b6000818152600160205260409020600701546001600160a01b03163314611b675760405162461bcd60e51b81526004016108d190612a8f565b6000838152600160205260409020600380820154610100900460ff16908490811115611b9557611b956125e8565b816003811115611ba757611ba76125e8565b03611c005760405162461bcd60e51b815260206004820152602360248201527f53746174757320697320616c72656164792073657420746f20746869732076616044820152626c756560e81b60648201526084016108d1565b611c0a33826121e3565b611c1433856122e0565b838260030160016101000a81548160ff02191690836003811115611c3a57611c3a6125e8565b02179055504260058301819055604051339187917f7af449c5513ace8082fbf5bc8068c777c02d75162353333ea2b10aeb1ebd063691611c7d9186918a91612b34565b60405180910390a36002846003811115611c9957611c996125e8565b03611cd657604051428152339086907f843af93d40addceac6932508439844b897d4df9e971db326d557e3cdaa9f3ebf9060200160405180910390a35b5050505050565b6001600160a01b0382166000908152600260209081526040808320805482518185028101850190935280835260609493830182828015611d3c57602002820191906000526020600020905b815481526020019060010190808311611d28575b50505050509050600081516001600160401b03811115611d5e57611d5e612455565b604051908082528060200260200182016040528015611d87578160200160208202803683370190505b5090506000805b8351811015611e8f5760016000858381518110611dad57611dad612862565b6020026020010151815260200190815260200160002060070160149054906101000a900460ff168015611e3d5750856003811115611ded57611ded6125e8565b60016000868481518110611e0357611e03612862565b6020026020010151815260200190815260200160002060030160009054906101000a900460ff166003811115611e3b57611e3b6125e8565b145b15611e8757838181518110611e5457611e54612862565b6020026020010151838381518110611e6e57611e6e612862565b602090810291909101015281611e83816128c2565b9250505b600101611d8e565b506000816001600160401b03811115611eaa57611eaa612455565b604051908082528060200260200182016040528015611ed3578160200160208202803683370190505b50905060005b828110156114aa57838181518110611ef357611ef3612862565b6020026020010151828281518110611f0d57611f0d612862565b6020908102919091010152600101611ed9565b6000858152600160205260409020600701548590600160a01b900460ff16611f5a5760405162461bcd60e51b81526004016108d190612a62565b6000818152600160205260409020600701546001600160a01b03163314611f935760405162461bcd60e51b81526004016108d190612a8f565b6000855111611fdc5760405162461bcd60e51b81526020600482015260156024820152745469746c652063616e6e6f7420626520656d70747960581b60448201526064016108d1565b60648551111561202e5760405162461bcd60e51b815260206004820152601e60248201527f5469746c6520746f6f206c6f6e6720286d61782031303020636861727329000060448201526064016108d1565b6101f4845111156120515760405162461bcd60e51b81526004016108d1906128db565b81158061205d57504282115b6120a95760405162461bcd60e51b815260206004820152601e60248201527f4475652064617465206d75737420626520696e2074686520667574757265000060448201526064016108d1565b60008681526001602081905260409091209081016120c7878261296b565b50600281016120d6868261296b565b50838160030160006101000a81548160ff021916908360038111156120fd576120fd6125e8565b0217905550600681018390554260058201819055600382015460405133928a927f7af449c5513ace8082fbf5bc8068c777c02d75162353333ea2b10aeb1ebd0636926121549261010090920460ff16918291612b34565b60405180910390a350505050505050565b6000818152600160205260409020600701548190600160a01b900460ff1661219f5760405162461bcd60e51b81526004016108d190612a62565b6000818152600160205260409020600701546001600160a01b031633146121d85760405162461bcd60e51b81526004016108d190612a8f565b611115826002611af4565b60008160038111156121f7576121f76125e8565b03612229576001600160a01b038216600090815260056020526040812080549161222083612abb565b91905055505050565b600181600381111561223d5761223d6125e8565b03612266576001600160a01b038216600090815260066020526040812080549161222083612abb565b600281600381111561227a5761227a6125e8565b036122a3576001600160a01b038216600090815260046020526040812080549161222083612abb565b60038160038111156122b7576122b76125e8565b03611115576001600160a01b038216600090815260076020526040812080549161222083612abb565b60008160038111156122f4576122f46125e8565b0361231d576001600160a01b0382166000908152600560205260408120805491612220836128c2565b6001816003811115612331576123316125e8565b0361235a576001600160a01b0382166000908152600660205260408120805491612220836128c2565b600281600381111561236e5761236e6125e8565b03612397576001600160a01b0382166000908152600460205260408120805491612220836128c2565b60038160038111156123ab576123ab6125e8565b03611115576001600160a01b0382166000908152600760205260408120805491612220836128c2565b80356001600160a01b03811681146123eb57600080fd5b919050565b60006020828403121561240257600080fd5b61240b826123d4565b9392505050565b602080825282518282018190526000918401906040840190835b8181101561244a57835183526020938401939092019160010161242c565b509095945050505050565b634e487b7160e01b600052604160045260246000fd5b600082601f83011261247c57600080fd5b81356001600160401b0381111561249557612495612455565b604051601f8201601f19908116603f011681016001600160401b03811182821017156124c3576124c3612455565b6040528181528382016020018510156124db57600080fd5b816020850160208301376000918101602001919091529392505050565b6004811061250557600080fd5b50565b6000806000806080858703121561251e57600080fd5b84356001600160401b0381111561253457600080fd5b6125408782880161246b565b94505060208501356001600160401b0381111561255c57600080fd5b6125688782880161246b565b9350506040850135612579816124f8565b9396929550929360600135925050565b60006020828403121561259b57600080fd5b5035919050565b6000815180845260005b818110156125c8576020818501810151868301820152016125ac565b506000602082860101526020601f19601f83011685010191505092915050565b634e487b7160e01b600052602160045260246000fd5b6004811061250557634e487b7160e01b600052602160045260246000fd5b8981526101206020820152600061263761012083018b6125a2565b8281036040840152612649818b6125a2565b915050612655886125fe565b876060830152612664876125fe565b608082019690965260a081019490945260c084019290925260e08301526001600160a01b031661010090910152949350505050565b600080604083850312156126ac57600080fd5b6126b5836123d4565b946020939093013593505050565b6000602082840312156126d557600080fd5b813561240b816124f8565b60208152600061240b60208301846125a2565b6000806040838503121561270657600080fd5b61270f836123d4565b9150602083013561271f816124f8565b809150509250929050565b8a81526101406020820152600061274561014083018c6125a2565b8281036040840152612757818c6125a2565b915050612763896125fe565b886060830152612772886125fe565b608082019790975260a081019590955260c085019390935260e08401919091526001600160a01b0316610100830152151561012090910152949350505050565b600080604083850312156127c557600080fd5b82359150602083013561271f816124f8565b600080600080600060a086880312156127ef57600080fd5b8535945060208601356001600160401b0381111561280c57600080fd5b6128188882890161246b565b94505060408601356001600160401b0381111561283457600080fd5b6128408882890161246b565b9350506060860135612851816124f8565b949793965091946080013592915050565b634e487b7160e01b600052603260045260246000fd5b600181811c9082168061288c57607f821691505b602082108103611aee57634e487b7160e01b600052602260045260246000fd5b634e487b7160e01b600052601160045260246000fd5b6000600182016128d4576128d46128ac565b5060010190565b60208082526024908201527f4465736372697074696f6e20746f6f206c6f6e6720286d6178203530302063686040820152636172732960e01b606082015260800190565b601f82111561296657806000526020600020601f840160051c810160208510156129465750805b601f840160051c820191505b81811015611cd65760008155600101612952565b505050565b81516001600160401b0381111561298457612984612455565b612998816129928454612878565b8461291f565b6020601f8211600181146129cc57600083156129b45750848201515b600019600385901b1c1916600184901b178455611cd6565b600084815260208120601f198516915b828110156129fc57878501518255602094850194600190920191016129dc565b5084821015612a1a5786840151600019600387901b60f8161c191681555b50505050600190811b01905550565b608081526000612a3c60808301876125a2565b9050612a47856125fe565b84602083015283604083015282606083015295945050505050565b60208082526013908201527215185cdac8191bd95cc81b9bdd08195e1a5cdd606a1b604082015260600190565b6020808252601290820152712737ba103a3432903a30b9b59037bbb732b960711b604082015260600190565b600081612aca57612aca6128ac565b506000190190565b818103818111156114b1576114b16128ac565b634e487b7160e01b600052603160045260246000fd5b80820281158282048414176114b1576114b16128ac565b600082612b2f57634e487b7160e01b600052601260045260246000fd5b500490565b60608101612b41856125fe565b848252612b4d846125fe565b60208201939093526040015291905056fea2646970667358221220bea110284005c69ae5abb059da638de3c92fe2d4b39f7eedce597ba8200c894964736f6c634300081c0033",
  "linkReferences": {},
  "deployedLinkReferences": {}
}