{
  "_format": "hh-sol-artifact-1",
  "contractName": "VotingSystem",
  "sourceName": "contracts/VotingSystem.sol",
  "abi": [
    {
      "inputs": [],
      "stateMutability": "nonpayable",
      "type": "constructor"
    },
    {
      "anonymous": false,
      "inputs": [
        {
          "indexed": true,
          "internalType": "address",
          "name": "delegator",
          "type": "address"
        },
        {
          "indexed": true,
          "internalType": "address",
          "name": "previousDelegate",
          "type": "address"
        },
        {
          "indexed": false,
          "internalType": "uint256",
          "name": "timestamp",
          "type": "uint256"
        }
      ],
      "name": "DelegationRevoked",
      "type": "event"
    },
    {
      "anonymous": false,
      "inputs": [
        {
          "indexed": true,
          "internalType": "address",
          "name": "delegator",
          "type": "address"
        },
        {
          "indexed": true,
          "internalType": "address",
          "name": "delegate",
          "type": "address"
        },
        {
          "indexed": false,
          "internalType": "uint256",
          "name": "timestamp",
          "type": "uint256"
        }
      ],
      "name": "DelegationSet",
      "type": "event"
    },
    {
      "anonymous": false,
      "inputs": [
        {
          "indexed": true,
          "internalType": "uint256",
          "name": "proposalId",
          "type": "uint256"
        },
        {
          "indexed": true,
          "internalType": "address",
          "name": "canceller",
          "type": "address"
        }
      ],
      "name": "ProposalCancelled",
      "type": "event"
    },
    {
      "anonymous": false,
      "inputs": [
        {
          "indexed": true,
          "internalType": "uint256",
          "name": "proposalId",
          "type": "uint256"
        },
        {
          "indexed": true,
          "internalType": "address",
          "name": "proposer",
          "type": "address"
        },
        {
          "indexed": false,
          "internalType": "string",
          "name": "title",
          "type": "string"
        },
        {
          "indexed": false,
          "internalType": "uint256",
          "name": "startTime",
          "type": "uint256"
        },
        {
          "indexed": false,
          "internalType": "uint256",
          "name": "endTime",
          "type": "uint256"
        }
      ],
      "name": "ProposalCreated",
      "type": "event"
    },
    {
      "anonymous": false,
      "inputs": [
        {
          "indexed": true,
          "internalType": "uint256",
          "name": "proposalId",
          "type": "uint256"
        },
        {
          "indexed": true,
          "internalType": "address",
          "name": "executor",
          "type": "address"
        }
      ],
      "name": "ProposalExecuted",
      "type": "event"
    },
    {
      "anonymous": false,
      "inputs": [
        {
          "indexed": true,
          "internalType": "address",
          "name": "voter",
          "type": "address"
        },
        {
          "indexed": true,
          "internalType": "uint256",
          "name": "proposalId",
          "type": "uint256"
        },
        {
          "indexed": false,
          "internalType": "enum VotingSystem.VoteChoice",
          "name": "choice",
          "type": "uint8"
        },
        {
          "indexed": false,
          "internalType": "uint256",
          "name": "weight",
          "type": "uint256"
        },
        {
          "indexed": false,
          "internalType": "string",
          "name": "reason",
          "type": "string"
        }
      ],
      "name": "VoteCast",
      "type": "event"
    },
    {
      "anonymous": false,
      "inputs": [
        {
          "indexed": true,
          "internalType": "address",
          "name": "user",
          "type": "address"
        },
        {
          "indexed": false,
          "internalType": "uint256",
          "name": "oldPower",
          "type": "uint256"
        },
        {
          "indexed": false,
          "internalType": "uint256",
          "name": "newPower",
          "type": "uint256"
        }
      ],
      "name": "VotingPowerUpdated",
      "type": "event"
    },
    {
      "inputs": [
        {
          "internalType": "uint256",
          "name": "",
          "type": "uint256"
        }
      ],
      "name": "allProposals",
      "outputs": [
        {
          "internalType": "uint256",
          "name": "",
          "type": "uint256"
        }
      ],
      "stateMutability": "view",
      "type": "function"
    },
    {
      "inputs": [
        {
          "internalType": "uint256",
          "name": "",
          "type": "uint256"
        }
      ],
      "name": "allVoters",
      "outputs": [
        {
          "internalType": "address",
          "name": "",
          "type": "address"
        }
      ],
      "stateMutability": "view",
      "type": "function"
    },
    {
      "inputs": [
        {
          "internalType": "uint256",
          "name": "proposalId",
          "type": "uint256"
        }
      ],
      "name": "cancelProposal",
      "outputs": [],
      "stateMutability": "nonpayable",
      "type": "function"
    },
    {
      "inputs": [
        {
          "internalType": "string",
          "name": "_title",
          "type": "string"
        },
        {
          "internalType": "string",
          "name": "_description",
          "type": "string"
        }
      ],
      "name": "createProposal",
      "outputs": [
        {
          "internalType": "uint256",
          "name": "",
          "type": "uint256"
        }
      ],
      "stateMutability": "nonpayable",
      "type": "function"
    },
    {
      "inputs": [
        {
          "internalType": "address",
          "name": "_delegate",
          "type": "address"
        }
      ],
      "name": "delegate",
      "outputs": [],
      "stateMutability": "nonpayable",
      "type": "function"
    },
    {
      "inputs": [
        {
          "internalType": "address",
          "name": "",
          "type": "address"
        }
      ],
      "name": "delegations",
      "outputs": [
        {
          "internalType": "address",
          "name": "delegate",
          "type": "address"
        },
        {
          "internalType": "uint256",
          "name": "timestamp",
          "type": "uint256"
        },
        {
          "internalType": "bool",
          "name": "active",
          "type": "bool"
        }
      ],
      "stateMutability": "view",
      "type": "function"
    },
    {
      "inputs": [
        {
          "internalType": "uint256",
          "name": "proposalId",
          "type": "uint256"
        }
      ],
      "name": "executeProposal",
      "outputs": [],
      "stateMutability": "nonpayable",
      "type": "function"
    },
    {
      "inputs": [],
      "name": "getAllProposals",
      "outputs": [
        {
          "internalType": "uint256[]",
          "name": "",
          "type": "uint256[]"
        }
      ],
      "stateMutability": "view",
      "type": "function"
    },
    {
      "inputs": [
        {
          "internalType": "uint256",
          "name": "proposalId",
          "type": "uint256"
        }
      ],
      "name": "getProposal",
      "outputs": [
        {
          "internalType": "uint256",
          "name": "id",
          "type": "uint256"
        },
        {
          "internalType": "string",
          "name": "title",
          "type": "string"
        },
        {
          "internalType": "string",
          "name": "description",
          "type": "string"
        },
        {
          "internalType": "address",
          "name": "proposer",
          "type": "address"
        },
        {
          "internalType": "uint256",
          "name": "startTime",
          "type": "uint256"
        },
        {
          "internalType": "uint256",
          "name": "endTime",
          "type": "uint256"
        },
        {
          "internalType": "uint256",
          "name": "forVotes",
          "type": "uint256"
        },
        {
          "internalType": "uint256",
          "name": "againstVotes",
          "type": "uint256"
        },
        {
          "internalType": "uint256",
          "name": "abstainVotes",
          "type": "uint256"
        },
        {
          "internalType": "bool",
          "name": "executed",
          "type": "bool"
        },
        {
          "internalType": "enum VotingSystem.ProposalState",
          "name": "state",
          "type": "uint8"
        }
      ],
      "stateMutability": "view",
      "type": "function"
    },
    {
      "inputs": [
        {
          "internalType": "uint256",
          "name": "proposalId",
          "type": "uint256"
        }
      ],
      "name": "getProposalState",
      "outputs": [
        {
          "internalType": "enum VotingSystem.ProposalState",
          "name": "",
          "type": "uint8"
        }
      ],
      "stateMutability": "view",
      "type": "function"
    },
    {
      "inputs": [
        {
          "internalType": "uint256",
          "name": "proposalId",
          "type": "uint256"
        }
      ],
      "name": "getProposalVotes",
      "outputs": [
        {
          "components": [
            {
              "internalType": "address",
              "name": "voter",
              "type": "address"
            },
            {
              "internalType": "uint256",
              "name": "proposalId",
              "type": "uint256"
            },
            {
              "internalType": "enum VotingSystem.VoteChoice",
              "name": "choice",
              "type": "uint8"
            },
            {
              "internalType": "uint256",
              "name": "weight",
              "type": "uint256"
            },
            {
              "internalType": "uint256",
              "name": "timestamp",
              "type": "uint256"
            },
            {
              "internalType": "string",
              "name": "reason",
              "type": "string"
            }
          ],
          "internalType": "struct VotingSystem.Vote[]",
          "name": "",
          "type": "tuple[]"
        }
      ],
      "stateMutability": "view",
      "type": "function"
    },
    {
      "inputs": [
        {
          "internalType": "address",
          "name": "user",
          "type": "address"
        }
      ],
      "name": "getUserProposals",
      "outputs": [
        {
          "internalType": "uint256[]",
          "name": "",
          "type": "uint256[]"
        }
      ],
      "stateMutability": "view",
      "type": "function"
    },
    {
      "inputs": [
        {
          "internalType": "uint256",
          "name": "proposalId",
          "type": "uint256"
        },
        {
          "internalType": "address",
          "name": "user",
          "type": "address"
        }
      ],
      "name": "getUserVote",
      "outputs": [
        {
          "internalType": "enum VotingSystem.VoteChoice",
          "name": "",
          "type": "uint8"
        }
      ],
      "stateMutability": "view",
      "type": "function"
    },
    {
      "inputs": [
        {
          "internalType": "address",
          "name": "user",
          "type": "address"
        }
      ],
      "name": "getUserVotes",
      "outputs": [
        {
          "components": [
            {
              "internalType": "address",
              "name": "voter",
              "type": "address"
            },
            {
              "internalType": "uint256",
              "name": "proposalId",
              "type": "uint256"
            },
            {
              "internalType": "enum VotingSystem.VoteChoice",
              "name": "choice",
              "type": "uint8"
            },
            {
              "internalType": "uint256",
              "name": "weight",
              "type": "uint256"
            },
            {
              "internalType": "uint256",
              "name": "timestamp",
              "type": "uint256"
            },
            {
              "internalType": "string",
              "name": "reason",
              "type": "string"
            }
          ],
          "internalType": "struct VotingSystem.Vote[]",
          "name": "",
          "type": "tuple[]"
        }
      ],
      "stateMutability": "view",
      "type": "function"
    },
    {
      "inputs": [
        {
          "internalType": "address",
          "name": "user",
          "type": "address"
        }
      ],
      "name": "getVotingPower",
      "outputs": [
        {
          "internalType": "uint256",
          "name": "",
          "type": "uint256"
        }
      ],
      "stateMutability": "view",
      "type": "function"
    },
    {
      "inputs": [],
      "name": "getVotingStats",
      "outputs": [
        {
          "internalType": "uint256",
          "name": "totalProposalsCount",
          "type": "uint256"
        },
        {
          "internalType": "uint256",
          "name": "totalVotersCount",
          "type": "uint256"
        },
        {
          "internalType": "uint256",
          "name": "totalVotingPowerCount",
          "type": "uint256"
        },
        {
          "internalType": "uint256",
          "name": "activeProposalsCount",
          "type": "uint256"
        }
      ],
      "stateMutability": "view",
      "type": "function"
    },
    {
      "inputs": [
        {
          "internalType": "uint256",
          "name": "proposalId",
          "type": "uint256"
        },
        {
          "internalType": "address",
          "name": "user",
          "type": "address"
        }
      ],
      "name": "hasVoted",
      "outputs": [
        {
          "internalType": "bool",
          "name": "",
          "type": "bool"
        }
      ],
      "stateMutability": "view",
      "type": "function"
    },
    {
      "inputs": [],
      "name": "owner",
      "outputs": [
        {
          "internalType": "address",
          "name": "",
          "type": "address"
        }
      ],
      "stateMutability": "view",
      "type": "function"
    },
    {
      "inputs": [],
      "name": "proposalThreshold",
      "outputs": [
        {
          "internalType": "uint256",
          "name": "",
          "type": "uint256"
        }
      ],
      "stateMutability": "view",
      "type": "function"
    },
    {
      "inputs": [
        {
          "internalType": "uint256",
          "name": "",
          "type": "uint256"
        },
        {
          "internalType": "uint256",
          "name": "",
          "type": "uint256"
        }
      ],
      "name": "proposalVotes",
      "outputs": [
        {
          "internalType": "address",
          "name": "voter",
          "type": "address"
        },
        {
          "internalType": "uint256",
          "name": "proposalId",
          "type": "uint256"
        },
        {
          "internalType": "enum VotingSystem.VoteChoice",
          "name": "choice",
          "type": "uint8"
        },
        {
          "internalType": "uint256",
          "name": "weight",
          "type": "uint256"
        },
        {
          "internalType": "uint256",
          "name": "timestamp",
          "type": "uint256"
        },
        {
          "internalType": "string",
          "name": "reason",
          "type": "string"
        }
      ],
      "stateMutability": "view",
      "type": "function"
    },
    {
      "inputs": [
        {
          "internalType": "uint256",
          "name": "",
          "type": "uint256"
        }
      ],
      "name": "proposals",
      "outputs": [
        {
          "internalType": "uint256",
          "name": "id",
          "type": "uint256"
        },
        {
          "internalType": "string",
          "name": "title",
          "type": "string"
        },
        {
          "internalType": "string",
          "name": "description",
          "type": "string"
        },
        {
          "internalType": "address",
          "name": "proposer",
          "type": "address"
        },
        {
          "internalType": "uint256",
          "name": "startTime",
          "type": "uint256"
        },
        {
          "internalType": "uint256",
          "name": "endTime",
          "type": "uint256"
        },
        {
          "internalType": "uint256",
          "name": "forVotes",
          "type": "uint256"
        },
        {
          "internalType": "uint256",
          "name": "againstVotes",
          "type": "uint256"
        },
        {
          "internalType": "uint256",
          "name": "abstainVotes",
          "type": "uint256"
        },
        {
          "internalType": "bool",
          "name": "executed",
          "type": "bool"
        },
        {
          "internalType": "bool",
          "name": "exists",
          "type": "bool"
        },
        {
          "internalType": "enum VotingSystem.ProposalState",
          "name": "state",
          "type": "uint8"
        }
      ],
      "stateMutability": "view",
      "type": "function"
    },
    {
      "inputs": [],
      "name": "quorumPercentage",
      "outputs": [
        {
          "internalType": "uint256",
          "name": "",
          "type": "uint256"
        }
      ],
      "stateMutability": "view",
      "type": "function"
    },
    {
      "inputs": [],
      "name": "revokeDelegation",
      "outputs": [],
      "stateMutability": "nonpayable",
      "type": "function"
    },
    {
      "inputs": [
        {
          "internalType": "address",
          "name": "user",
          "type": "address"
        },
        {
          "internalType": "uint256",
          "name": "power",
          "type": "uint256"
        }
      ],
      "name": "setVotingPower",
      "outputs": [],
      "stateMutability": "nonpayable",
      "type": "function"
    },
    {
      "inputs": [],
      "name": "totalProposals",
      "outputs": [
        {
          "internalType": "uint256",
          "name": "",
          "type": "uint256"
        }
      ],
      "stateMutability": "view",
      "type": "function"
    },
    {
      "inputs": [
        {
          "internalType": "address",
          "name": "newOwner",
          "type": "address"
        }
      ],
      "name": "transferOwnership",
      "outputs": [],
      "stateMutability": "nonpayable",
      "type": "function"
    },
    {
      "inputs": [
        {
          "internalType": "uint256",
          "name": "_votingDelay",
          "type": "uint256"
        },
        {
          "internalType": "uint256",
          "name": "_votingPeriod",
          "type": "uint256"
        },
        {
          "internalType": "uint256",
          "name": "_proposalThreshold",
          "type": "uint256"
        },
        {
          "internalType": "uint256",
          "name": "_quorumPercentage",
          "type": "uint256"
        }
      ],
      "name": "updateVotingParameters",
      "outputs": [],
      "stateMutability": "nonpayable",
      "type": "function"
    },
    {
      "inputs": [
        {
          "internalType": "address",
          "name": "",
          "type": "address"
        },
        {
          "internalType": "uint256",
          "name": "",
          "type": "uint256"
        }
      ],
      "name": "userProposals",
      "outputs": [
        {
          "internalType": "uint256",
          "name": "",
          "type": "uint256"
        }
      ],
      "stateMutability": "view",
      "type": "function"
    },
    {
      "inputs": [
        {
          "internalType": "address",
          "name": "",
          "type": "address"
        },
        {
          "internalType": "uint256",
          "name": "",
          "type": "uint256"
        }
      ],
      "name": "userVotes",
      "outputs": [
        {
          "internalType": "address",
          "name": "voter",
          "type": "address"
        },
        {
          "internalType": "uint256",
          "name": "proposalId",
          "type": "uint256"
        },
        {
          "internalType": "enum VotingSystem.VoteChoice",
          "name": "choice",
          "type": "uint8"
        },
        {
          "internalType": "uint256",
          "name": "weight",
          "type": "uint256"
        },
        {
          "internalType": "uint256",
          "name": "timestamp",
          "type": "uint256"
        },
        {
          "internalType": "string",
          "name": "reason",
          "type": "string"
        }
      ],
      "stateMutability": "view",
      "type": "function"
    },
    {
      "inputs": [
        {
          "internalType": "uint256",
          "name": "proposalId",
          "type": "uint256"
        },
        {
          "internalType": "enum VotingSystem.VoteChoice",
          "name": "choice",
          "type": "uint8"
        },
        {
          "internalType": "string",
          "name": "reason",
          "type": "string"
        }
      ],
      "name": "vote",
      "outputs": [],
      "stateMutability": "nonpayable",
      "type": "function"
    },
    {
      "inputs": [],
      "name": "votingDelay",
      "outputs": [
        {
          "internalType": "uint256",
          "name": "",
          "type": "uint256"
        }
      ],
      "stateMutability": "view",
      "type": "function"
    },
    {
      "inputs": [],
      "name": "votingPeriod",
      "outputs": [
        {
          "internalType": "uint256",
          "name": "",
          "type": "uint256"
        }
      ],
      "stateMutability": "view",
      "type": "function"
    },
    {
      "inputs": [
        {
          "internalType": "address",
          "name": "",
          "type": "address"
        }
      ],
      "name": "votingPower",
      "outputs": [
        {
          "internalType": "uint256",
          "name": "",
          "type": "uint256"
        }
      ],
      "stateMutability": "view",
      "type": "function"
    }
  ],
  "bytecode": "0x6080604052610e1060025562093a806003556001600455600a600555348015602657600080fd5b50600080546001600160a01b03191633908117825580825260076020526040808320606490819055905191927f2a1b0acb0a6fe010db932fc889bec652a0daadc5cafa0d648ada6b79e48937d29260869290918252602082015260400190565b60405180910390a2612ae18061009d6000396000f3fe608060405234801561001057600080fd5b50600436106101fb5760003560e01c80638b3511f71161011a578063bac7c890116100ad578063c7f758a81161007c578063c7f758a8146104e8578063cceb68f514610512578063e0a8f6f51461051a578063f2fde38b1461052d578063f391aa541461054057600080fd5b8063bac7c8901461043f578063bb4d443614610452578063bffe348614610465578063c07473f6146104c857600080fd5b8063950c7822116100e9578063950c782214610412578063a4d3180514610425578063a78d80fc1461042d578063b58131b01461043657600080fd5b80638b3511f7146103b95780638da5cb5b146103cc5780639080936f146103df578063938351b8146103ff57600080fd5b8063438596321161019257806365e481e21161016157806365e481e21461033357806376804a031461034657806378ef11381461036e578063856506741461038e57600080fd5b806343859632146102d457806347c66140146102f75780634fa76ec9146103175780635c19a95c1461032057600080fd5b80630d68eb9e116101ce5780630d68eb9e146102805780631b31527f146102a5578063274b91a9146102b85780633932abb1146102cb57600080fd5b8063013cf08b1461020057806302a251a31461023457806303c7881a1461024b5780630d61b5191461026b575b600080fd5b61021361020e3660046122a3565b610553565b60405161022b9c9b9a9998979695949392919061232c565b60405180910390f35b61023d60035481565b60405190815260200161022b565b61025e6102593660046123d6565b6106d2565b60405161022b9190612412565b61027e6102793660046122a3565b6107ae565b005b61029361028e366004612420565b610932565b60405161022b96959493929190612442565b61023d6102b3366004612490565b610a22565b61027e6102c6366004612490565b610a53565b61023d60025481565b6102e76102e23660046123d6565b610adc565b604051901515815260200161022b565b61030a6103053660046122a3565b610b45565b60405161022b91906124ba565b61023d60055481565b61027e61032e366004612571565b610cdd565b61023d610341366004612638565b610f17565b61034e6111ff565b60408051948552602085019390935291830152606082015260800161022b565b61038161037c366004612571565b6112a2565b60405161022b91906126a1565b6103a161039c3660046122a3565b61130e565b6040516001600160a01b03909116815260200161022b565b6102936103c7366004612490565b611338565b6000546103a1906001600160a01b031681565b6103f26103ed3660046122a3565b611354565b60405161022b91906126e4565b61023d61040d3660046122a3565b6114b9565b61030a610420366004612571565b6114da565b61027e611644565b61023d60015481565b61023d60045481565b61027e61044d3660046126f2565b6116fd565b61023d610460366004612571565b61178c565b6104a1610473366004612571565b6008602052600090815260409020805460018201546002909201546001600160a01b03909116919060ff1683565b604080516001600160a01b039094168452602084019290925215159082015260600161022b565b61023d6104d6366004612571565b60076020526000908152604090205481565b6104fb6104f63660046122a3565b611857565b60405161022b9b9a99989796959493929190612724565b610381611a4e565b61027e6105283660046122a3565b611aa6565b61027e61053b366004612571565b611c33565b61027e61054e3660046127a8565b611cd5565b6006602052600090815260409020805460018201805491929161057590612805565b80601f01602080910402602001604051908101604052809291908181526020018280546105a190612805565b80156105ee5780601f106105c3576101008083540402835291602001916105ee565b820191906000526020600020905b8154815290600101906020018083116105d157829003601f168201915b50505050509080600201805461060390612805565b80601f016020809104026020016040519081016040528092919081815260200182805461062f90612805565b801561067c5780601f106106515761010080835404028352916020019161067c565b820191906000526020600020905b81548152906001019060200180831161065f57829003601f168201915b5050505060038301546004840154600585015460068601546007870154600888015460099098015496976001600160a01b03909516969395509193909260ff80821691610100810482169162010000909104168c565b6000828152600660205260408120600901548390610100900460ff166107135760405162461bcd60e51b815260040161070a90612839565b60405180910390fd5b60008481526006602090815260408083206001600160a01b0387168452600a0190915290205460ff1661077d5760405162461bcd60e51b8152602060048201526012602482015271155cd95c881a185cc81b9bdd081d9bdd195960721b604482015260640161070a565b505060009182526006602090815260408084206001600160a01b03939093168452600b909201905290205460ff1690565b6000818152600660205260409020600901548190610100900460ff166107e65760405162461bcd60e51b815260040161070a90612839565b60008281526006602052604090206005810154421161083d5760405162461bcd60e51b8152602060048201526013602482015272566f74696e67207374696c6c2061637469766560681b604482015260640161070a565b600981015460ff16156108855760405162461bcd60e51b815260206004820152601060248201526f105b1c9958591e48195e1958dd5d195960821b604482015260640161070a565b600061089084611354565b905060028160058111156108a6576108a6612302565b146108ec5760405162461bcd60e51b8152602060048201526016602482015275141c9bdc1bdcd85b081b9bdd081cdd58d8d95959195960521b604482015260640161070a565b60098201805462ff00ff191662040001179055604051339085907f9c85b616f29fca57a17eafe71cf9ff82ffef41766e2cf01ea7f8f7878dd3ec2490600090a350505050565b600b602052816000526040600020818154811061094e57600080fd5b60009182526020909120600690910201805460018201546002830154600384015460048501546005860180546001600160a01b03909616985093965060ff9092169490939192909161099f90612805565b80601f01602080910402602001604051908101604052809291908181526020018280546109cb90612805565b8015610a185780601f106109ed57610100808354040283529160200191610a18565b820191906000526020600020905b8154815290600101906020018083116109fb57829003601f168201915b5050505050905086565b60096020528160005260406000208181548110610a3e57600080fd5b90600052602060002001600091509150505481565b6000546001600160a01b03163314610a7d5760405162461bcd60e51b815260040161070a90612870565b6001600160a01b038216600081815260076020908152604091829020805490859055825181815291820185905292917f2a1b0acb0a6fe010db932fc889bec652a0daadc5cafa0d648ada6b79e48937d2910160405180910390a2505050565b6000828152600660205260408120600901548390610100900460ff16610b145760405162461bcd60e51b815260040161070a90612839565b505060009182526006602090815260408084206001600160a01b03939093168452600a909201905290205460ff1690565b6000818152600660205260409020600901546060908290610100900460ff16610b805760405162461bcd60e51b815260040161070a90612839565b6000838152600b6020908152604080832080548251818502810185019093528083529193909284015b82821015610cd05760008481526020908190206040805160c0810182526006860290920180546001600160a01b031683526001810154938301939093526002808401549293929184019160ff1690811115610c0657610c06612302565b6002811115610c1757610c17612302565b81526020016003820154815260200160048201548152602001600582018054610c3f90612805565b80601f0160208091040260200160405190810160405280929190818152602001828054610c6b90612805565b8015610cb85780601f10610c8d57610100808354040283529160200191610cb8565b820191906000526020600020905b815481529060010190602001808311610c9b57829003601f168201915b50505050508152505081526020019060010190610ba9565b5050505091505b50919050565b6000610ce83361178c565b11610d055760405162461bcd60e51b815260040161070a906128b1565b6001600160a01b038116610d5b5760405162461bcd60e51b815260206004820152601f60248201527f43616e6e6f742064656c656761746520746f207a65726f206164647265737300604482015260640161070a565b336001600160a01b03821603610db35760405162461bcd60e51b815260206004820152601760248201527f43616e6e6f742064656c656761746520746f2073656c66000000000000000000604482015260640161070a565b6000610dbe8261178c565b11610e0b5760405162461bcd60e51b815260206004820152601c60248201527f44656c656761746520686173206e6f20766f74696e6720706f77657200000000604482015260640161070a565b3360009081526008602052604090206002015460ff1615610e7857336000818152600860209081526040918290205491514281526001600160a01b0390921692917f8804646c776ee4e91100fb6859354b09a479e5b7fceaa9c7c7364e7d63a1bc81910160405180910390a35b604080516060810182526001600160a01b038381168083524260208085018281526001868801818152336000818152600886528a9020985189546001600160a01b0319169816979097178855915190870155516002909501805460ff19169515159590951790945593519384529290917f4c12853beeb24ebde5f5b6f8757d257670bd10e740c1d43baa60c5ed7090fa5891015b60405180910390a350565b600080610f233361178c565b11610f405760405162461bcd60e51b815260040161070a906128b1565b6000835111610f895760405162461bcd60e51b81526020600482015260156024820152745469746c652063616e6e6f7420626520656d70747960581b604482015260640161070a565b60c883511115610fcc5760405162461bcd60e51b815260206004820152600e60248201526d5469746c6520746f6f206c6f6e6760901b604482015260640161070a565b600082511161101d5760405162461bcd60e51b815260206004820152601b60248201527f4465736372697074696f6e2063616e6e6f7420626520656d7074790000000000604482015260640161070a565b6103e8825111156110675760405162461bcd60e51b81526020600482015260146024820152734465736372697074696f6e20746f6f206c6f6e6760601b604482015260640161070a565b6004546110733361178c565b10156110c15760405162461bcd60e51b815260206004820152601960248201527f496e73756666696369656e7420766f74696e6720706f77657200000000000000604482015260640161070a565b600180549060006110d1836128f0565b90915550506001546002546000906110e99042612909565b90506000600354826110fb9190612909565b60008481526006602052604090208481559091506001810161111d888261296b565b506002810161112c878261296b565b50600381018054336001600160a01b0319909116811790915560048201849055600582018390556009808301805462ffff001916610100179055600c805460018181019092557fdf6966c971051c3d54ec59162606531493a51404a002842f56009d7e5cf4a8c701879055600083815260209283526040808220805493840181558252929020018690555185907f6c98a8c940418b35614f0cd02412d5c9606faff474cbb6cdd6640ba5d1a9f06b906111ea908b9088908890612a2a565b60405180910390a35091925050505b92915050565b6000806000806000805b600c5481101561128a57600061123b600c838154811061122b5761122b612a4f565b9060005260206000200154611354565b9050600181600581111561125157611251612302565b148061126e5750600081600581111561126c5761126c612302565b145b15611281578261127d816128f0565b9350505b50600101611209565b50600154600d5490969095506103e894509092509050565b6001600160a01b03811660009081526009602090815260409182902080548351818402810184019094528084526060939283018282801561130257602002820191906000526020600020905b8154815260200190600101908083116112ee575b50505050509050919050565b600d818154811061131e57600080fd5b6000918252602090912001546001600160a01b0316905081565b600a602052816000526040600020818154811061094e57600080fd5b6000818152600660205260408120600901548290610100900460ff1661138c5760405162461bcd60e51b815260040161070a90612839565b60008381526006602052604090206005600982015462010000900460ff1660058111156113bb576113bb612302565b14806113e557506004600982015462010000900460ff1660058111156113e3576113e3612302565b145b156113fe576009015462010000900460ff169150610cd7565b8060040154421015611414576000925050610cd7565b80600501544211611429576001925050610cd7565b60008160080154826007015483600601546114449190612909565b61144e9190612909565b90508060000361146357600393505050610cd7565b6005546103e8906114749082612a65565b61147f836064612a65565b10156114915760039450505050610cd7565b8260070154836006015411156114ad5760029450505050610cd7565b60039450505050610cd7565b600c81815481106114c957600080fd5b600091825260209091200154905081565b6001600160a01b0381166000908152600a60209081526040808320805482518185028101850190935280835260609492939192909184015b828210156116395760008481526020908190206040805160c0810182526006860290920180546001600160a01b031683526001810154938301939093526002808401549293929184019160ff169081111561156f5761156f612302565b600281111561158057611580612302565b815260200160038201548152602001600482015481526020016005820180546115a890612805565b80601f01602080910402602001604051908101604052809291908181526020018280546115d490612805565b80156116215780601f106115f657610100808354040283529160200191611621565b820191906000526020600020905b81548152906001019060200180831161160457829003601f168201915b50505050508152505081526020019060010190611512565b505050509050919050565b3360009081526008602052604090206002015460ff1661169d5760405162461bcd60e51b815260206004820152601460248201527327379030b1ba34bb32903232b632b3b0ba34b7b760611b604482015260640161070a565b336000818152600860205260409081902080546002909101805460ff1916905590516001600160a01b03919091169182917f8804646c776ee4e91100fb6859354b09a479e5b7fceaa9c7c7364e7d63a1bc8190610f0c9042815260200190565b6000546001600160a01b031633146117275760405162461bcd60e51b815260040161070a90612870565b60648111156117785760405162461bcd60e51b815260206004820152601960248201527f51756f72756d2063616e6e6f7420657863656564203130302500000000000000604482015260640161070a565b600293909355600391909155600455600555565b6001600160a01b038116600090815260076020526040812054815b600d54811015611850576000600d82815481106117c6576117c6612a4f565b60009182526020808320909101546001600160a01b0316808352600890915260409091206002015490915060ff16801561181c57506001600160a01b038181166000908152600860205260409020548116908616145b15611847576001600160a01b0381166000908152600760205260409020546118449084612909565b92505b506001016117a7565b5092915050565b60006060806000806000806000806000808b6006600082815260200190815260200160002060090160019054906101000a900460ff166118a95760405162461bcd60e51b815260040161070a90612839565b60008d815260066020819052604090912080546003820154600483015460058401549484015460078501546008860154600987015460018801805498999798909760028b01976001600160a01b03169695909490939092909160ff8083169262010000900416908a9061191b90612805565b80601f016020809104026020016040519081016040528092919081815260200182805461194790612805565b80156119945780601f1061196957610100808354040283529160200191611994565b820191906000526020600020905b81548152906001019060200180831161197757829003601f168201915b505050505099508880546119a790612805565b80601f01602080910402602001604051908101604052809291908181526020018280546119d390612805565b8015611a205780601f106119f557610100808354040283529160200191611a20565b820191906000526020600020905b815481529060010190602001808311611a0357829003601f168201915b505050505098509c509c509c509c509c509c509c509c509c509c509c50505091939597999b90929496989a50565b6060600c805480602002602001604051908101604052809291908181526020018280548015611a9c57602002820191906000526020600020905b815481526020019060010190808311611a88575b5050505050905090565b6000818152600660205260409020600901548190610100900460ff16611ade5760405162461bcd60e51b815260040161070a90612839565b600082815260066020526040902060038101546001600160a01b0316331480611b1157506000546001600160a01b031633145b611b675760405162461bcd60e51b815260206004820152602160248201527f4f6e6c792070726f706f736572206f72206f776e65722063616e2063616e63656044820152601b60fa1b606482015260840161070a565b6000600982015462010000900460ff166005811115611b8857611b88612302565b1480611bb257506001600982015462010000900460ff166005811115611bb057611bb0612302565b145b611bee5760405162461bcd60e51b815260206004820152600d60248201526c10d85b9b9bdd0818d85b98d95b609a1b604482015260640161070a565b60098101805462ff0000191662050000179055604051339084907f74c34a008ce735d9fcf0bd03a9b238d212ad4c441c020661f4ffbb6442645b8590600090a3505050565b6000546001600160a01b03163314611c5d5760405162461bcd60e51b815260040161070a90612870565b6001600160a01b038116611cb35760405162461bcd60e51b815260206004820181905260248201527f4e6577206f776e65722063616e6e6f74206265207a65726f2061646472657373604482015260640161070a565b600080546001600160a01b0319166001600160a01b0392909216919091179055565b6000838152600660205260409020600901548390610100900460ff16611d0d5760405162461bcd60e51b815260040161070a90612839565b6000611d183361178c565b11611d355760405162461bcd60e51b815260040161070a906128b1565b60008481526006602052604090206004810154421015611d8c5760405162461bcd60e51b8152602060048201526012602482015271159bdd1a5b99c81b9bdd081cdd185c9d195960721b604482015260640161070a565b8060050154421115611dcf5760405162461bcd60e51b815260206004820152600c60248201526b159bdd1a5b99c8195b99195960a21b604482015260640161070a565b336000908152600a8201602052604090205460ff1615611e215760405162461bcd60e51b815260206004820152600d60248201526c105b1c9958591e481d9bdd1959609a1b604482015260640161070a565b6001600982015462010000900460ff166005811115611e4257611e42612302565b1480611e6c57506000600982015462010000900460ff166005811115611e6a57611e6a612302565b145b611eb15760405162461bcd60e51b8152602060048201526016602482015275496e76616c69642070726f706f73616c20737461746560501b604482015260640161070a565b6000600982015462010000900460ff166005811115611ed257611ed2612302565b148015611ee3575080600401544210155b15611efc5760098101805462ff00001916620100001790555b6000611f073361178c565b336000908152600a8401602090815260408083208054600160ff199182168117909255600b88019093529220805493945088939092911690836002811115611f5157611f51612302565b02179055506000856002811115611f6a57611f6a612302565b03611f8e5780826006016000828254611f839190612909565b90915550611fd59050565b6001856002811115611fa257611fa2612302565b03611fbb5780826007016000828254611f839190612909565b80826008016000828254611fcf9190612909565b90915550505b60006040518060c00160405280336001600160a01b0316815260200188815260200187600281111561200957612009612302565b81526020808201859052426040808401919091526060909201889052336000908152600a825282812080546001808201835591835291839020855160069093020180546001600160a01b0319166001600160a01b039093169290921782559184015181830155918301516002808401805495965086959293909260ff191691849081111561209957612099612302565b0217905550606082015160038201556080820151600482015560a082015160058201906120c6908261296b565b5050506000878152600b6020908152604080832080546001808201835591855293839020855160069095020180546001600160a01b0319166001600160a01b03909516949094178455918401518383015583015160028084018054869594919260ff199091169190849081111561213f5761213f612302565b0217905550606082015160038201556080820151600482015560a0820151600582019061216c908261296b565b5050336000908152600a602052604090205460010390506121ca57600d80546001810182556000919091527fd7b6990105719101dabeb77144f2a3385c8033acd3af97e9423a695e81ad1eb50180546001600160a01b031916331790555b86336001600160a01b03167fb8e138887d0aa13bab447e82de9d5c1777041ecd21ca36ba824ff1e6c07ddda488858960405161220893929190612a7c565b60405180910390a361221987612222565b50505050505050565b600081815260066020526040902060058101544211801561226157506001600982015462010000900460ff16600581111561225f5761225f612302565b145b1561229f57600061227183611354565b600983018054919250829162ff000019166201000083600581111561229857612298612302565b0217905550505b5050565b6000602082840312156122b557600080fd5b5035919050565b6000815180845260005b818110156122e2576020818501810151868301820152016122c6565b506000602082860101526020601f19601f83011685010191505092915050565b634e487b7160e01b600052602160045260246000fd5b6006811061232857612328612302565b9052565b8c81526101806020820152600061234761018083018e6122bc565b8281036040840152612359818e6122bc565b91505060018060a01b038b1660608301528960808301528860a08301528760c08301528660e0830152856101008301528415156101208301528315156101408301526123a9610160830184612318565b9d9c50505050505050505050505050565b80356001600160a01b03811681146123d157600080fd5b919050565b600080604083850312156123e957600080fd5b823591506123f9602084016123ba565b90509250929050565b6003811061232857612328612302565b602081016111f98284612402565b6000806040838503121561243357600080fd5b50508035926020909101359150565b6001600160a01b0387168152602081018690526124626040820186612402565b83606082015282608082015260c060a0820152600061248460c08301846122bc565b98975050505050505050565b600080604083850312156124a357600080fd5b6124ac836123ba565b946020939093013593505050565b6000602082016020835280845180835260408501915060408160051b86010192506020860160005b8281101561256557868503603f19018452815180516001600160a01b03168652602080820151908701526040808201519061251f90880182612402565b50606081015160608701526080810151608087015260a0810151905060c060a087015261254f60c08701826122bc565b95505060209384019391909101906001016124e2565b50929695505050505050565b60006020828403121561258357600080fd5b61258c826123ba565b9392505050565b634e487b7160e01b600052604160045260246000fd5b600082601f8301126125ba57600080fd5b813567ffffffffffffffff8111156125d4576125d4612593565b604051601f8201601f19908116603f0116810167ffffffffffffffff8111828210171561260357612603612593565b60405281815283820160200185101561261b57600080fd5b816020850160208301376000918101602001919091529392505050565b6000806040838503121561264b57600080fd5b823567ffffffffffffffff81111561266257600080fd5b61266e858286016125a9565b925050602083013567ffffffffffffffff81111561268b57600080fd5b612697858286016125a9565b9150509250929050565b602080825282518282018190526000918401906040840190835b818110156126d95783518352602093840193909201916001016126bb565b509095945050505050565b602081016111f98284612318565b6000806000806080858703121561270857600080fd5b5050823594602084013594506040840135936060013592509050565b8b81526101606020820152600061273f61016083018d6122bc565b8281036040840152612751818d6122bc565b91505060018060a01b038a1660608301528860808301528760a08301528660c08301528560e083015284610100830152831515610120830152612798610140830184612318565b9c9b505050505050505050505050565b6000806000606084860312156127bd57600080fd5b833592506020840135600381106127d357600080fd5b9150604084013567ffffffffffffffff8111156127ef57600080fd5b6127fb868287016125a9565b9150509250925092565b600181811c9082168061281957607f821691505b602082108103610cd757634e487b7160e01b600052602260045260246000fd5b60208082526017908201527f50726f706f73616c20646f6573206e6f74206578697374000000000000000000604082015260600190565b60208082526021908201527f4f6e6c79206f776e65722063616e2063616c6c20746869732066756e6374696f6040820152603760f91b606082015260800190565b6020808252600f908201526e2737903b37ba34b733903837bbb2b960891b604082015260600190565b634e487b7160e01b600052601160045260246000fd5b600060018201612902576129026128da565b5060010190565b808201808211156111f9576111f96128da565b601f82111561296657806000526020600020601f840160051c810160208510156129435750805b601f840160051c820191505b81811015612963576000815560010161294f565b50505b505050565b815167ffffffffffffffff81111561298557612985612593565b612999816129938454612805565b8461291c565b6020601f8211600181146129cd57600083156129b55750848201515b600019600385901b1c1916600184901b178455612963565b600084815260208120601f198516915b828110156129fd57878501518255602094850194600190920191016129dd565b5084821015612a1b5786840151600019600387901b60f8161c191681555b50505050600190811b01905550565b606081526000612a3d60608301866122bc565b60208301949094525060400152919050565b634e487b7160e01b600052603260045260246000fd5b80820281158282048414176111f9576111f96128da565b612a868185612402565b826020820152606060408201526000612aa260608301846122bc565b9594505050505056fea2646970667358221220e68b432a9d13e22809aee439b6b164ebbf231c5d6ec030553dd562b1a74d49bd64736f6c634300081c0033",
  "linkReferences": {},
  "deployedLinkReferences": {}
}