{
  "contracts/SimplePoll.sol": {
    "SimplePoll": {
      "abi": [
        {
          "inputs": [
            {
              "internalType": "string",
              "name": "_question",
              "type": "string"
            }
          ],
          "stateMutability": "nonpayable",
          "type": "constructor"
        },
        {
          "anonymous": false,
          "inputs": [
            {
              "indexed": true,
              "internalType": "address",
              "name": "voter",
              "type": "address"
            },
            {
              "indexed": false,
              "internalType": "bool",
              "name": "vote",
              "type": "bool"
            },
            {
              "indexed": false,
              "internalType": "uint256",
              "name": "totalYes",
              "type": "uint256"
            },
            {
              "indexed": false,
              "internalType": "uint256",
              "name": "totalNo",
              "type": "uint256"
            }
          ],
          "name": "Voted",
          "type": "event"
        },
        {
          "inputs": [],
          "name": "getResults",
          "outputs": [
            {
              "internalType": "uint256",
              "name": "_yesVotes",
              "type": "uint256"
            },
            {
              "internalType": "uint256",
              "name": "_noVotes",
              "type": "uint256"
            }
          ],
          "stateMutability": "view",
          "type": "function"
        },
        {
          "inputs": [
            {
              "internalType": "address",
              "name": "",
              "type": "address"
            }
          ],
          "name": "hasVoted",
          "outputs": [
            {
              "internalType": "bool",
              "name": "",
              "type": "bool"
            }
          ],
          "stateMutability": "view",
          "type": "function"
        },
        {
          "inputs": [],
          "name": "noVotes",
          "outputs": [
            {
              "internalType": "uint256",
              "name": "",
              "type": "uint256"
            }
          ],
          "stateMutability": "view",
          "type": "function"
        },
        {
          "inputs": [],
          "name": "question",
          "outputs": [
            {
              "internalType": "string",
              "name": "",
              "type": "string"
            }
          ],
          "stateMutability": "view",
          "type": "function"
        },
        {
          "inputs": [
            {
              "internalType": "bool",
              "name": "_vote",
              "type": "bool"
            }
          ],
          "name": "vote",
          "outputs": [],
          "stateMutability": "nonpayable",
          "type": "function"
        },
        {
          "inputs": [],
          "name": "yesVotes",
          "outputs": [
            {
              "internalType": "uint256",
              "name": "",
              "type": "uint256"
            }
          ],
          "stateMutability": "view",
          "type": "function"
        }
      ],
      "evm": {
        "bytecode": {
          "linkReferences": {},
          "object": "6080604052346102685761064b803803806100198161026d565b928339810190602081830312610268578051906001600160401b038211610268570181601f82011215610268578051906001600160401b0382116101f85761006a601f8301601f191660200161026d565b92828452602083830101116102685760005b828110610253578360006020858301015280511561020e5780516001600160401b0381116101f857600054600181811c911680156101ee575b60208210146101d857601f8111610174575b50602091601f821160011461011157918192600092610106575b50508160011b916000199060031b1c1916176000555b6040516103b890816102938239f35b0151905082806100e1565b601f1982169260008052806000209160005b85811061015c57508360019510610143575b505050811b016000556100f7565b015160001960f88460031b161c19169055828080610135565b91926020600181928685015181550194019201610123565b600080527f290decd9548b62a8d60345a988386fc84ba6bc95484008f6362f93160ef3e563601f830160051c810191602084106101ce575b601f0160051c01905b8181106101c257506100c7565b600081556001016101b5565b90915081906101ac565b634e487b7160e01b600052602260045260246000fd5b90607f16906100b5565b634e487b7160e01b600052604160045260246000fd5b60405162461bcd60e51b815260206004820152601860248201527f5175657374696f6e2063616e6e6f7420626520656d70747900000000000000006044820152606490fd5b8060208092840101518282870101520161007c565b600080fd5b6040519190601f01601f191682016001600160401b038111838210176101f85760405256fe608080604052600436101561001357600080fd5b60003560e01c90816309eef43e1461031d575080633fad9ae0146101c25780634717f97c1461019d5780634b9f5c98146100a2578063b5b47f42146100845763fb286c651461006157600080fd5b3461007f57600036600319011261007f576020600154604051908152f35b600080fd5b3461007f57600036600319011261007f576020600254604051908152f35b3461007f57602036600319011261007f576004358015159081810361007f5733600052600360205260ff60406000205416610158573360005260036020526040600020600160ff198254161790556000146101455761010260015461035d565b6001555b60015460025490604051928352602083015260408201527f823509eb2896162212a53c9a760ac3eb90fd39cee81485d1e4e137638c3020c860603392a2005b61015060025461035d565b600255610106565b60405162461bcd60e51b815260206004820152601760248201527f596f75206861766520616c726561647920766f7465642e0000000000000000006044820152606490fd5b3461007f57600036600319011261007f57604060015460025482519182526020820152f35b3461007f57600036600319011261007f57604051600080548060011c90600181168015610313575b6020831081146102ff578285529081156102e3575060011461028d575b50819003601f01601f191681019067ffffffffffffffff8211818310176102775781604052602082528181519182602083015260005b83811061025f5750508160006040809484010152601f80199101168101030190f35b6020828201810151604087840101528593500161023d565b634e487b7160e01b600052604160045260246000fd5b9050600080527f290decd9548b62a8d60345a988386fc84ba6bc95484008f6362f93160ef3e5636000905b8282106102cd57506020915082010182610207565b60018160209254838588010152019101906102b8565b90506020925060ff191682840152151560051b82010182610207565b634e487b7160e01b84526022600452602484fd5b91607f16916101ea565b3461007f57602036600319011261007f576004356001600160a01b038116919082900361007f576020916000526003825260ff6040600020541615158152f35b600019811461036c5760010190565b634e487b7160e01b600052601160045260246000fdfea2646970667358221220b0aa565e2064e5ff9ceaa1efc9d6e665749f024208142fd6788e8bbc2e5a3b4f64736f6c634300081c0033",
          "opcodes": "PUSH1 0x80 PUSH1 0x40 MSTORE CALLVALUE PUSH2 0x268 JUMPI PUSH2 0x64B DUP1 CODESIZE SUB DUP1 PUSH2 0x19 DUP2 PUSH2 0x26D JUMP JUMPDEST SWAP3 DUP4 CODECOPY DUP2 ADD SWAP1 PUSH1 0x20 DUP2 DUP4 SUB SLT PUSH2 0x268 JUMPI DUP1 MLOAD SWAP1 PUSH1 0x1 PUSH1 0x1 PUSH1 0x40 SHL SUB DUP3 GT PUSH2 0x268 JUMPI ADD DUP2 PUSH1 0x1F DUP3 ADD SLT ISZERO PUSH2 0x268 JUMPI DUP1 MLOAD SWAP1 PUSH1 0x1 PUSH1 0x1 PUSH1 0x40 SHL SUB DUP3 GT PUSH2 0x1F8 JUMPI PUSH2 0x6A PUSH1 0x1F DUP4 ADD PUSH1 0x1F NOT AND PUSH1 0x20 ADD PUSH2 0x26D JUMP JUMPDEST SWAP3 DUP3 DUP5 MSTORE PUSH1 0x20 DUP4 DUP4 ADD ADD GT PUSH2 0x268 JUMPI PUSH1 0x0 JUMPDEST DUP3 DUP2 LT PUSH2 0x253 JUMPI DUP4 PUSH1 0x0 PUSH1 0x20 DUP6 DUP4 ADD ADD MSTORE DUP1 MLOAD ISZERO PUSH2 0x20E JUMPI DUP1 MLOAD PUSH1 0x1 PUSH1 0x1 PUSH1 0x40 SHL SUB DUP2 GT PUSH2 0x1F8 JUMPI PUSH1 0x0 SLOAD PUSH1 0x1 DUP2 DUP2 SHR SWAP2 AND DUP1 ISZERO PUSH2 0x1EE JUMPI JUMPDEST PUSH1 0x20 DUP3 LT EQ PUSH2 0x1D8 JUMPI PUSH1 0x1F DUP2 GT PUSH2 0x174 JUMPI JUMPDEST POP PUSH1 0x20 SWAP2 PUSH1 0x1F DUP3 GT PUSH1 0x1 EQ PUSH2 0x111 JUMPI SWAP2 DUP2 SWAP3 PUSH1 0x0 SWAP3 PUSH2 0x106 JUMPI JUMPDEST POP POP DUP2 PUSH1 0x1 SHL SWAP2 PUSH1 0x0 NOT SWAP1 PUSH1 0x3 SHL SHR NOT AND OR PUSH1 0x0 SSTORE JUMPDEST PUSH1 0x40 MLOAD PUSH2 0x3B8 SWAP1 DUP2 PUSH2 0x293 DUP3 CODECOPY RETURN JUMPDEST ADD MLOAD SWAP1 POP DUP3 DUP1 PUSH2 0xE1 JUMP JUMPDEST PUSH1 0x1F NOT DUP3 AND SWAP3 PUSH1 0x0 DUP1 MSTORE DUP1 PUSH1 0x0 KECCAK256 SWAP2 PUSH1 0x0 JUMPDEST DUP6 DUP2 LT PUSH2 0x15C JUMPI POP DUP4 PUSH1 0x1 SWAP6 LT PUSH2 0x143 JUMPI JUMPDEST POP POP POP DUP2 SHL ADD PUSH1 0x0 SSTORE PUSH2 0xF7 JUMP JUMPDEST ADD MLOAD PUSH1 0x0 NOT PUSH1 0xF8 DUP5 PUSH1 0x3 SHL AND SHR NOT AND SWAP1 SSTORE DUP3 DUP1 DUP1 PUSH2 0x135 JUMP JUMPDEST SWAP2 SWAP3 PUSH1 0x20 PUSH1 0x1 DUP2 SWAP3 DUP7 DUP6 ADD MLOAD DUP2 SSTORE ADD SWAP5 ADD SWAP3 ADD PUSH2 0x123 JUMP JUMPDEST PUSH1 0x0 DUP1 MSTORE PUSH32 0x290DECD9548B62A8D60345A988386FC84BA6BC95484008F6362F93160EF3E563 PUSH1 0x1F DUP4 ADD PUSH1 0x5 SHR DUP2 ADD SWAP2 PUSH1 0x20 DUP5 LT PUSH2 0x1CE JUMPI JUMPDEST PUSH1 0x1F ADD PUSH1 0x5 SHR ADD SWAP1 JUMPDEST DUP2 DUP2 LT PUSH2 0x1C2 JUMPI POP PUSH2 0xC7 JUMP JUMPDEST PUSH1 0x0 DUP2 SSTORE PUSH1 0x1 ADD PUSH2 0x1B5 JUMP JUMPDEST SWAP1 SWAP2 POP DUP2 SWAP1 PUSH2 0x1AC JUMP JUMPDEST PUSH4 0x4E487B71 PUSH1 0xE0 SHL PUSH1 0x0 MSTORE PUSH1 0x22 PUSH1 0x4 MSTORE PUSH1 0x24 PUSH1 0x0 REVERT JUMPDEST SWAP1 PUSH1 0x7F AND SWAP1 PUSH2 0xB5 JUMP JUMPDEST PUSH4 0x4E487B71 PUSH1 0xE0 SHL PUSH1 0x0 MSTORE PUSH1 0x41 PUSH1 0x4 MSTORE PUSH1 0x24 PUSH1 0x0 REVERT JUMPDEST PUSH1 0x40 MLOAD PUSH3 0x461BCD PUSH1 0xE5 SHL DUP2 MSTORE PUSH1 0x20 PUSH1 0x4 DUP3 ADD MSTORE PUSH1 0x18 PUSH1 0x24 DUP3 ADD MSTORE PUSH32 0x5175657374696F6E2063616E6E6F7420626520656D7074790000000000000000 PUSH1 0x44 DUP3 ADD MSTORE PUSH1 0x64 SWAP1 REVERT JUMPDEST DUP1 PUSH1 0x20 DUP1 SWAP3 DUP5 ADD ADD MLOAD DUP3 DUP3 DUP8 ADD ADD MSTORE ADD PUSH2 0x7C JUMP JUMPDEST PUSH1 0x0 DUP1 REVERT JUMPDEST PUSH1 0x40 MLOAD SWAP2 SWAP1 PUSH1 0x1F ADD PUSH1 0x1F NOT AND DUP3 ADD PUSH1 0x1 PUSH1 0x1 PUSH1 0x40 SHL SUB DUP2 GT DUP4 DUP3 LT OR PUSH2 0x1F8 JUMPI PUSH1 0x40 MSTORE JUMP INVALID PUSH1 0x80 DUP1 PUSH1 0x40 MSTORE PUSH1 0x4 CALLDATASIZE LT ISZERO PUSH2 0x13 JUMPI PUSH1 0x0 DUP1 REVERT JUMPDEST PUSH1 0x0 CALLDATALOAD PUSH1 0xE0 SHR SWAP1 DUP2 PUSH4 0x9EEF43E EQ PUSH2 0x31D JUMPI POP DUP1 PUSH4 0x3FAD9AE0 EQ PUSH2 0x1C2 JUMPI DUP1 PUSH4 0x4717F97C EQ PUSH2 0x19D JUMPI DUP1 PUSH4 0x4B9F5C98 EQ PUSH2 0xA2 JUMPI DUP1 PUSH4 0xB5B47F42 EQ PUSH2 0x84 JUMPI PUSH4 0xFB286C65 EQ PUSH2 0x61 JUMPI PUSH1 0x0 DUP1 REVERT JUMPDEST CALLVALUE PUSH2 0x7F JUMPI PUSH1 0x0 CALLDATASIZE PUSH1 0x3 NOT ADD SLT PUSH2 0x7F JUMPI PUSH1 0x20 PUSH1 0x1 SLOAD PUSH1 0x40 MLOAD SWAP1 DUP2 MSTORE RETURN JUMPDEST PUSH1 0x0 DUP1 REVERT JUMPDEST CALLVALUE PUSH2 0x7F JUMPI PUSH1 0x0 CALLDATASIZE PUSH1 0x3 NOT ADD SLT PUSH2 0x7F JUMPI PUSH1 0x20 PUSH1 0x2 SLOAD PUSH1 0x40 MLOAD SWAP1 DUP2 MSTORE RETURN JUMPDEST CALLVALUE PUSH2 0x7F JUMPI PUSH1 0x20 CALLDATASIZE PUSH1 0x3 NOT ADD SLT PUSH2 0x7F JUMPI PUSH1 0x4 CALLDATALOAD DUP1 ISZERO ISZERO SWAP1 DUP2 DUP2 SUB PUSH2 0x7F JUMPI CALLER PUSH1 0x0 MSTORE PUSH1 0x3 PUSH1 0x20 MSTORE PUSH1 0xFF PUSH1 0x40 PUSH1 0x0 KECCAK256 SLOAD AND PUSH2 0x158 JUMPI CALLER PUSH1 0x0 MSTORE PUSH1 0x3 PUSH1 0x20 MSTORE PUSH1 0x40 PUSH1 0x0 KECCAK256 PUSH1 0x1 PUSH1 0xFF NOT DUP3 SLOAD AND OR SWAP1 SSTORE PUSH1 0x0 EQ PUSH2 0x145 JUMPI PUSH2 0x102 PUSH1 0x1 SLOAD PUSH2 0x35D JUMP JUMPDEST PUSH1 0x1 SSTORE JUMPDEST PUSH1 0x1 SLOAD PUSH1 0x2 SLOAD SWAP1 PUSH1 0x40 MLOAD SWAP3 DUP4 MSTORE PUSH1 0x20 DUP4 ADD MSTORE PUSH1 0x40 DUP3 ADD MSTORE PUSH32 0x823509EB2896162212A53C9A760AC3EB90FD39CEE81485D1E4E137638C3020C8 PUSH1 0x60 CALLER SWAP3 LOG2 STOP JUMPDEST PUSH2 0x150 PUSH1 0x2 SLOAD PUSH2 0x35D JUMP JUMPDEST PUSH1 0x2 SSTORE PUSH2 0x106 JUMP JUMPDEST PUSH1 0x40 MLOAD PUSH3 0x461BCD PUSH1 0xE5 SHL DUP2 MSTORE PUSH1 0x20 PUSH1 0x4 DUP3 ADD MSTORE PUSH1 0x17 PUSH1 0x24 DUP3 ADD MSTORE PUSH32 0x596F75206861766520616C726561647920766F7465642E000000000000000000 PUSH1 0x44 DUP3 ADD MSTORE PUSH1 0x64 SWAP1 REVERT JUMPDEST CALLVALUE PUSH2 0x7F JUMPI PUSH1 0x0 CALLDATASIZE PUSH1 0x3 NOT ADD SLT PUSH2 0x7F JUMPI PUSH1 0x40 PUSH1 0x1 SLOAD PUSH1 0x2 SLOAD DUP3 MLOAD SWAP2 DUP3 MSTORE PUSH1 0x20 DUP3 ADD MSTORE RETURN JUMPDEST CALLVALUE PUSH2 0x7F JUMPI PUSH1 0x0 CALLDATASIZE PUSH1 0x3 NOT ADD SLT PUSH2 0x7F JUMPI PUSH1 0x40 MLOAD PUSH1 0x0 DUP1 SLOAD DUP1 PUSH1 0x1 SHR SWAP1 PUSH1 0x1 DUP2 AND DUP1 ISZERO PUSH2 0x313 JUMPI JUMPDEST PUSH1 0x20 DUP4 LT DUP2 EQ PUSH2 0x2FF JUMPI DUP3 DUP6 MSTORE SWAP1 DUP2 ISZERO PUSH2 0x2E3 JUMPI POP PUSH1 0x1 EQ PUSH2 0x28D JUMPI JUMPDEST POP DUP2 SWAP1 SUB PUSH1 0x1F ADD PUSH1 0x1F NOT AND DUP2 ADD SWAP1 PUSH8 0xFFFFFFFFFFFFFFFF DUP3 GT DUP2 DUP4 LT OR PUSH2 0x277 JUMPI DUP2 PUSH1 0x40 MSTORE PUSH1 0x20 DUP3 MSTORE DUP2 DUP2 MLOAD SWAP2 DUP3 PUSH1 0x20 DUP4 ADD MSTORE PUSH1 0x0 JUMPDEST DUP4 DUP2 LT PUSH2 0x25F JUMPI POP POP DUP2 PUSH1 0x0 PUSH1 0x40 DUP1 SWAP5 DUP5 ADD ADD MSTORE PUSH1 0x1F DUP1 NOT SWAP2 ADD AND DUP2 ADD SUB ADD SWAP1 RETURN JUMPDEST PUSH1 0x20 DUP3 DUP3 ADD DUP2 ADD MLOAD PUSH1 0x40 DUP8 DUP5 ADD ADD MSTORE DUP6 SWAP4 POP ADD PUSH2 0x23D JUMP JUMPDEST PUSH4 0x4E487B71 PUSH1 0xE0 SHL PUSH1 0x0 MSTORE PUSH1 0x41 PUSH1 0x4 MSTORE PUSH1 0x24 PUSH1 0x0 REVERT JUMPDEST SWAP1 POP PUSH1 0x0 DUP1 MSTORE PUSH32 0x290DECD9548B62A8D60345A988386FC84BA6BC95484008F6362F93160EF3E563 PUSH1 0x0 SWAP1 JUMPDEST DUP3 DUP3 LT PUSH2 0x2CD JUMPI POP PUSH1 0x20 SWAP2 POP DUP3 ADD ADD DUP3 PUSH2 0x207 JUMP JUMPDEST PUSH1 0x1 DUP2 PUSH1 0x20 SWAP3 SLOAD DUP4 DUP6 DUP9 ADD ADD MSTORE ADD SWAP2 ADD SWAP1 PUSH2 0x2B8 JUMP JUMPDEST SWAP1 POP PUSH1 0x20 SWAP3 POP PUSH1 0xFF NOT AND DUP3 DUP5 ADD MSTORE ISZERO ISZERO PUSH1 0x5 SHL DUP3 ADD ADD DUP3 PUSH2 0x207 JUMP JUMPDEST PUSH4 0x4E487B71 PUSH1 0xE0 SHL DUP5 MSTORE PUSH1 0x22 PUSH1 0x4 MSTORE PUSH1 0x24 DUP5 REVERT JUMPDEST SWAP2 PUSH1 0x7F AND SWAP2 PUSH2 0x1EA JUMP JUMPDEST CALLVALUE PUSH2 0x7F JUMPI PUSH1 0x20 CALLDATASIZE PUSH1 0x3 NOT ADD SLT PUSH2 0x7F JUMPI PUSH1 0x4 CALLDATALOAD PUSH1 0x1 PUSH1 0x1 PUSH1 0xA0 SHL SUB DUP2 AND SWAP2 SWAP1 DUP3 SWAP1 SUB PUSH2 0x7F JUMPI PUSH1 0x20 SWAP2 PUSH1 0x0 MSTORE PUSH1 0x3 DUP3 MSTORE PUSH1 0xFF PUSH1 0x40 PUSH1 0x0 KECCAK256 SLOAD AND ISZERO ISZERO DUP2 MSTORE RETURN JUMPDEST PUSH1 0x0 NOT DUP2 EQ PUSH2 0x36C JUMPI PUSH1 0x1 ADD SWAP1 JUMP JUMPDEST PUSH4 0x4E487B71 PUSH1 0xE0 SHL PUSH1 0x0 MSTORE PUSH1 0x11 PUSH1 0x4 MSTORE PUSH1 0x24 PUSH1 0x0 REVERT INVALID LOG2 PUSH5 0x6970667358 0x22 SLT KECCAK256 0xB0 0xAA JUMP MCOPY KECCAK256 PUSH5 0xE5FF9CEAA1 0xEF 0xC9 0xD6 0xE6 PUSH6 0x749F02420814 0x2F 0xD6 PUSH25 0x8E8BBC2E5A3B4F64736F6C634300081C003300000000000000 "
        },
        "methodIdentifiers": {
          "getResults()": "4717f97c",
          "hasVoted(address)": "09eef43e",
          "noVotes()": "b5b47f42",
          "question()": "3fad9ae0",
          "vote(bool)": "4b9f5c98",
          "yesVotes()": "fb286c65"
        }
      }
    }
  }
}