{
  "contracts/DecentralizedInsurance.sol": {
    "DecentralizedInsurance": {
      "abi": [
        {
          "inputs": [],
          "stateMutability": "nonpayable",
          "type": "constructor"
        },
        {
          "inputs": [],
          "name": "EnforcedPause",
          "type": "error"
        },
        {
          "inputs": [],
          "name": "ExpectedPause",
          "type": "error"
        },
        {
          "inputs": [
            {
              "internalType": "address",
              "name": "owner",
              "type": "address"
            }
          ],
          "name": "OwnableInvalidOwner",
          "type": "error"
        },
        {
          "inputs": [
            {
              "internalType": "address",
              "name": "account",
              "type": "address"
            }
          ],
          "name": "OwnableUnauthorizedAccount",
          "type": "error"
        },
        {
          "inputs": [],
          "name": "ReentrancyGuardReentrantCall",
          "type": "error"
        },
        {
          "anonymous": false,
          "inputs": [
            {
              "indexed": true,
              "internalType": "uint256",
              "name": "claimId",
              "type": "uint256"
            },
            {
              "indexed": true,
              "internalType": "address",
              "name": "investigator",
              "type": "address"
            },
            {
              "indexed": false,
              "internalType": "enum DecentralizedInsurance.ClaimStatus",
              "name": "status",
              "type": "uint8"
            }
          ],
          "name": "ClaimInvestigated",
          "type": "event"
        },
        {
          "anonymous": false,
          "inputs": [
            {
              "indexed": true,
              "internalType": "uint256",
              "name": "claimId",
              "type": "uint256"
            },
            {
              "indexed": true,
              "internalType": "address",
              "name": "claimant",
              "type": "address"
            },
            {
              "indexed": false,
              "internalType": "uint256",
              "name": "amount",
              "type": "uint256"
            }
          ],
          "name": "ClaimPaid",
          "type": "event"
        },
        {
          "anonymous": false,
          "inputs": [
            {
              "indexed": true,
              "internalType": "uint256",
              "name": "claimId",
              "type": "uint256"
            },
            {
              "indexed": true,
              "internalType": "uint256",
              "name": "policyId",
              "type": "uint256"
            },
            {
              "indexed": true,
              "internalType": "address",
              "name": "claimant",
              "type": "address"
            },
            {
              "indexed": false,
              "internalType": "uint256",
              "name": "amount",
              "type": "uint256"
            }
          ],
          "name": "ClaimSubmitted",
          "type": "event"
        },
        {
          "anonymous": false,
          "inputs": [
            {
              "indexed": true,
              "internalType": "uint256",
              "name": "claimId",
              "type": "uint256"
            },
            {
              "indexed": true,
              "internalType": "address",
              "name": "claimant",
              "type": "address"
            }
          ],
          "name": "FraudDetected",
          "type": "event"
        },
        {
          "anonymous": false,
          "inputs": [
            {
              "indexed": true,
              "internalType": "address",
              "name": "investigator",
              "type": "address"
            }
          ],
          "name": "InvestigatorAdded",
          "type": "event"
        },
        {
          "anonymous": false,
          "inputs": [
            {
              "indexed": true,
              "internalType": "address",
              "name": "oracle",
              "type": "address"
            }
          ],
          "name": "OracleAdded",
          "type": "event"
        },
        {
          "anonymous": false,
          "inputs": [
            {
              "indexed": true,
              "internalType": "address",
              "name": "previousOwner",
              "type": "address"
            },
            {
              "indexed": true,
              "internalType": "address",
              "name": "newOwner",
              "type": "address"
            }
          ],
          "name": "OwnershipTransferred",
          "type": "event"
        },
        {
          "anonymous": false,
          "inputs": [
            {
              "indexed": false,
              "internalType": "address",
              "name": "account",
              "type": "address"
            }
          ],
          "name": "Paused",
          "type": "event"
        },
        {
          "anonymous": false,
          "inputs": [
            {
              "indexed": true,
              "internalType": "uint256",
              "name": "policyId",
              "type": "uint256"
            },
            {
              "indexed": true,
              "internalType": "address",
              "name": "policyholder",
              "type": "address"
            },
            {
              "indexed": false,
              "internalType": "enum DecentralizedInsurance.InsuranceType",
              "name": "insuranceType",
              "type": "uint8"
            },
            {
              "indexed": false,
              "internalType": "uint256",
              "name": "coverageAmount",
              "type": "uint256"
            }
          ],
          "name": "PolicyCreated",
          "type": "event"
        },
        {
          "anonymous": false,
          "inputs": [
            {
              "indexed": true,
              "internalType": "uint256",
              "name": "policyId",
              "type": "uint256"
            },
            {
              "indexed": true,
              "internalType": "address",
              "name": "policyholder",
              "type": "address"
            },
            {
              "indexed": false,
              "internalType": "uint256",
              "name": "amount",
              "type": "uint256"
            }
          ],
          "name": "PremiumPaid",
          "type": "event"
        },
        {
          "anonymous": false,
          "inputs": [
            {
              "indexed": true,
              "internalType": "address",
              "name": "staker",
              "type": "address"
            },
            {
              "indexed": false,
              "internalType": "uint256",
              "name": "amount",
              "type": "uint256"
            }
          ],
          "name": "RewardsClaimed",
          "type": "event"
        },
        {
          "anonymous": false,
          "inputs": [
            {
              "indexed": true,
              "internalType": "address",
              "name": "staker",
              "type": "address"
            },
            {
              "indexed": false,
              "internalType": "uint256",
              "name": "amount",
              "type": "uint256"
            }
          ],
          "name": "StakeDeposited",
          "type": "event"
        },
        {
          "anonymous": false,
          "inputs": [
            {
              "indexed": true,
              "internalType": "address",
              "name": "staker",
              "type": "address"
            },
            {
              "indexed": false,
              "internalType": "uint256",
              "name": "amount",
              "type": "uint256"
            }
          ],
          "name": "StakeWithdrawn",
          "type": "event"
        },
        {
          "anonymous": false,
          "inputs": [
            {
              "indexed": false,
              "internalType": "address",
              "name": "account",
              "type": "address"
            }
          ],
          "name": "Unpaused",
          "type": "event"
        },
        {
          "inputs": [],
          "name": "FRAUD_PENALTY",
          "outputs": [
            {
              "internalType": "uint256",
              "name": "",
              "type": "uint256"
            }
          ],
          "stateMutability": "view",
          "type": "function"
        },
        {
          "inputs": [],
          "name": "INVESTIGATION_PERIOD",
          "outputs": [
            {
              "internalType": "uint256",
              "name": "",
              "type": "uint256"
            }
          ],
          "stateMutability": "view",
          "type": "function"
        },
        {
          "inputs": [],
          "name": "MAX_COVERAGE_RATIO",
          "outputs": [
            {
              "internalType": "uint256",
              "name": "",
              "type": "uint256"
            }
          ],
          "stateMutability": "view",
          "type": "function"
        },
        {
          "inputs": [],
          "name": "MIN_STAKE_AMOUNT",
          "outputs": [
            {
              "internalType": "uint256",
              "name": "",
              "type": "uint256"
            }
          ],
          "stateMutability": "view",
          "type": "function"
        },
        {
          "inputs": [
            {
              "internalType": "address",
              "name": "_investigator",
              "type": "address"
            }
          ],
          "name": "addInvestigator",
          "outputs": [],
          "stateMutability": "nonpayable",
          "type": "function"
        },
        {
          "inputs": [
            {
              "internalType": "address",
              "name": "_oracle",
              "type": "address"
            }
          ],
          "name": "addOracle",
          "outputs": [],
          "stateMutability": "nonpayable",
          "type": "function"
        },
        {
          "inputs": [
            {
              "internalType": "address",
              "name": "",
              "type": "address"
            }
          ],
          "name": "authorizedInvestigators",
          "outputs": [
            {
              "internalType": "bool",
              "name": "",
              "type": "bool"
            }
          ],
          "stateMutability": "view",
          "type": "function"
        },
        {
          "inputs": [
            {
              "internalType": "address",
              "name": "",
              "type": "address"
            }
          ],
          "name": "authorizedOracles",
          "outputs": [
            {
              "internalType": "bool",
              "name": "",
              "type": "bool"
            }
          ],
          "stateMutability": "view",
          "type": "function"
        },
        {
          "inputs": [
            {
              "internalType": "address",
              "name": "_staker",
              "type": "address"
            }
          ],
          "name": "calculatePendingRewards",
          "outputs": [
            {
              "internalType": "uint256",
              "name": "",
              "type": "uint256"
            }
          ],
          "stateMutability": "view",
          "type": "function"
        },
        {
          "inputs": [
            {
              "internalType": "enum DecentralizedInsurance.InsuranceType",
              "name": "_insuranceType",
              "type": "uint8"
            },
            {
              "internalType": "uint256",
              "name": "_coverageAmount",
              "type": "uint256"
            },
            {
              "internalType": "uint256",
              "name": "_duration",
              "type": "uint256"
            },
            {
              "internalType": "enum DecentralizedInsurance.RiskLevel",
              "name": "_riskLevel",
              "type": "uint8"
            }
          ],
          "name": "calculatePremium",
          "outputs": [
            {
              "internalType": "uint256",
              "name": "",
              "type": "uint256"
            }
          ],
          "stateMutability": "view",
          "type": "function"
        },
        {
          "inputs": [],
          "name": "claimRewards",
          "outputs": [],
          "stateMutability": "nonpayable",
          "type": "function"
        },
        {
          "inputs": [
            {
              "internalType": "uint256",
              "name": "",
              "type": "uint256"
            }
          ],
          "name": "claims",
          "outputs": [
            {
              "internalType": "uint256",
              "name": "claimId",
              "type": "uint256"
            },
            {
              "internalType": "uint256",
              "name": "policyId",
              "type": "uint256"
            },
            {
              "internalType": "address",
              "name": "claimant",
              "type": "address"
            },
            {
              "internalType": "uint256",
              "name": "claimAmount",
              "type": "uint256"
            },
            {
              "internalType": "uint256",
              "name": "submissionDate",
              "type": "uint256"
            },
            {
              "internalType": "uint256",
              "name": "investigationDeadline",
              "type": "uint256"
            },
            {
              "internalType": "enum DecentralizedInsurance.ClaimStatus",
              "name": "status",
              "type": "uint8"
            },
            {
              "internalType": "string",
              "name": "evidenceURI",
              "type": "string"
            },
            {
              "internalType": "string",
              "name": "rejectionReason",
              "type": "string"
            },
            {
              "internalType": "uint256",
              "name": "approvedAmount",
              "type": "uint256"
            },
            {
              "internalType": "uint256",
              "name": "payoutDate",
              "type": "uint256"
            },
            {
              "internalType": "address",
              "name": "investigator",
              "type": "address"
            }
          ],
          "stateMutability": "view",
          "type": "function"
        },
        {
          "inputs": [
            {
              "internalType": "enum DecentralizedInsurance.InsuranceType",
              "name": "_insuranceType",
              "type": "uint8"
            },
            {
              "internalType": "uint256",
              "name": "_coverageAmount",
              "type": "uint256"
            },
            {
              "internalType": "uint256",
              "name": "_duration",
              "type": "uint256"
            },
            {
              "internalType": "enum DecentralizedInsurance.RiskLevel",
              "name": "_riskLevel",
              "type": "uint8"
            },
            {
              "internalType": "string",
              "name": "_metadataURI",
              "type": "string"
            }
          ],
          "name": "createPolicy",
          "outputs": [],
          "stateMutability": "payable",
          "type": "function"
        },
        {
          "inputs": [],
          "name": "emergencyWithdraw",
          "outputs": [],
          "stateMutability": "nonpayable",
          "type": "function"
        },
        {
          "inputs": [
            {
              "internalType": "uint256",
              "name": "_claimId",
              "type": "uint256"
            }
          ],
          "name": "getClaim",
          "outputs": [
            {
              "components": [
                {
                  "internalType": "uint256",
                  "name": "claimId",
                  "type": "uint256"
                },
                {
                  "internalType": "uint256",
                  "name": "policyId",
                  "type": "uint256"
                },
                {
                  "internalType": "address",
                  "name": "claimant",
                  "type": "address"
                },
                {
                  "internalType": "uint256",
                  "name": "claimAmount",
                  "type": "uint256"
                },
                {
                  "internalType": "uint256",
                  "name": "submissionDate",
                  "type": "uint256"
                },
                {
                  "internalType": "uint256",
                  "name": "investigationDeadline",
                  "type": "uint256"
                },
                {
                  "internalType": "enum DecentralizedInsurance.ClaimStatus",
                  "name": "status",
                  "type": "uint8"
                },
                {
                  "internalType": "string",
                  "name": "evidenceURI",
                  "type": "string"
                },
                {
                  "internalType": "string",
                  "name": "rejectionReason",
                  "type": "string"
                },
                {
                  "internalType": "uint256",
                  "name": "approvedAmount",
                  "type": "uint256"
                },
                {
                  "internalType": "uint256",
                  "name": "payoutDate",
                  "type": "uint256"
                },
                {
                  "internalType": "address",
                  "name": "investigator",
                  "type": "address"
                }
              ],
              "internalType": "struct DecentralizedInsurance.Claim",
              "name": "",
              "type": "tuple"
            }
          ],
          "stateMutability": "view",
          "type": "function"
        },
        {
          "inputs": [
            {
              "internalType": "enum DecentralizedInsurance.InsuranceType",
              "name": "_type",
              "type": "uint8"
            }
          ],
          "name": "getInsurancePool",
          "outputs": [
            {
              "components": [
                {
                  "internalType": "uint256",
                  "name": "totalStaked",
                  "type": "uint256"
                },
                {
                  "internalType": "uint256",
                  "name": "totalClaims",
                  "type": "uint256"
                },
                {
                  "internalType": "uint256",
                  "name": "availableFunds",
                  "type": "uint256"
                },
                {
                  "internalType": "uint256",
                  "name": "rewardRate",
                  "type": "uint256"
                },
                {
                  "internalType": "bool",
                  "name": "active",
                  "type": "bool"
                }
              ],
              "internalType": "struct DecentralizedInsurance.InsurancePool",
              "name": "",
              "type": "tuple"
            }
          ],
          "stateMutability": "view",
          "type": "function"
        },
        {
          "inputs": [
            {
              "internalType": "uint256",
              "name": "_policyId",
              "type": "uint256"
            }
          ],
          "name": "getPolicy",
          "outputs": [
            {
              "components": [
                {
                  "internalType": "uint256",
                  "name": "policyId",
                  "type": "uint256"
                },
                {
                  "internalType": "address",
                  "name": "policyholder",
                  "type": "address"
                },
                {
                  "internalType": "enum DecentralizedInsurance.InsuranceType",
                  "name": "insuranceType",
                  "type": "uint8"
                },
                {
                  "internalType": "uint256",
                  "name": "coverageAmount",
                  "type": "uint256"
                },
                {
                  "internalType": "uint256",
                  "name": "premiumAmount",
                  "type": "uint256"
                },
                {
                  "internalType": "uint256",
                  "name": "startDate",
                  "type": "uint256"
                },
                {
                  "internalType": "uint256",
                  "name": "endDate",
                  "type": "uint256"
                },
                {
                  "internalType": "enum DecentralizedInsurance.PolicyStatus",
                  "name": "status",
                  "type": "uint8"
                },
                {
                  "internalType": "enum DecentralizedInsurance.RiskLevel",
                  "name": "riskLevel",
                  "type": "uint8"
                },
                {
                  "internalType": "string",
                  "name": "metadataURI",
                  "type": "string"
                },
                {
                  "internalType": "uint256",
                  "name": "claimsCount",
                  "type": "uint256"
                },
                {
                  "internalType": "uint256",
                  "name": "totalClaimsAmount",
                  "type": "uint256"
                }
              ],
              "internalType": "struct DecentralizedInsurance.Policy",
              "name": "",
              "type": "tuple"
            }
          ],
          "stateMutability": "view",
          "type": "function"
        },
        {
          "inputs": [
            {
              "internalType": "address",
              "name": "_staker",
              "type": "address"
            }
          ],
          "name": "getStakeInfo",
          "outputs": [
            {
              "components": [
                {
                  "internalType": "uint256",
                  "name": "amount",
                  "type": "uint256"
                },
                {
                  "internalType": "uint256",
                  "name": "stakingDate",
                  "type": "uint256"
                },
                {
                  "internalType": "uint256",
                  "name": "rewardsEarned",
                  "type": "uint256"
                },
                {
                  "internalType": "uint256",
                  "name": "lastRewardUpdate",
                  "type": "uint256"
                }
              ],
              "internalType": "struct DecentralizedInsurance.StakeInfo",
              "name": "",
              "type": "tuple"
            }
          ],
          "stateMutability": "view",
          "type": "function"
        },
        {
          "inputs": [],
          "name": "getTotalActiveCoverage",
          "outputs": [
            {
              "internalType": "uint256",
              "name": "",
              "type": "uint256"
            }
          ],
          "stateMutability": "view",
          "type": "function"
        },
        {
          "inputs": [],
          "name": "getTotalPoolFunds",
          "outputs": [
            {
              "internalType": "uint256",
              "name": "",
              "type": "uint256"
            }
          ],
          "stateMutability": "view",
          "type": "function"
        },
        {
          "inputs": [
            {
              "internalType": "address",
              "name": "_user",
              "type": "address"
            }
          ],
          "name": "getUserClaims",
          "outputs": [
            {
              "internalType": "uint256[]",
              "name": "",
              "type": "uint256[]"
            }
          ],
          "stateMutability": "view",
          "type": "function"
        },
        {
          "inputs": [
            {
              "internalType": "address",
              "name": "_user",
              "type": "address"
            }
          ],
          "name": "getUserPolicies",
          "outputs": [
            {
              "internalType": "uint256[]",
              "name": "",
              "type": "uint256[]"
            }
          ],
          "stateMutability": "view",
          "type": "function"
        },
        {
          "inputs": [
            {
              "internalType": "enum DecentralizedInsurance.InsuranceType",
              "name": "",
              "type": "uint8"
            }
          ],
          "name": "insurancePools",
          "outputs": [
            {
              "internalType": "uint256",
              "name": "totalStaked",
              "type": "uint256"
            },
            {
              "internalType": "uint256",
              "name": "totalClaims",
              "type": "uint256"
            },
            {
              "internalType": "uint256",
              "name": "availableFunds",
              "type": "uint256"
            },
            {
              "internalType": "uint256",
              "name": "rewardRate",
              "type": "uint256"
            },
            {
              "internalType": "bool",
              "name": "active",
              "type": "bool"
            }
          ],
          "stateMutability": "view",
          "type": "function"
        },
        {
          "inputs": [
            {
              "internalType": "uint256",
              "name": "_claimId",
              "type": "uint256"
            },
            {
              "internalType": "enum DecentralizedInsurance.ClaimStatus",
              "name": "_decision",
              "type": "uint8"
            },
            {
              "internalType": "uint256",
              "name": "_approvedAmount",
              "type": "uint256"
            },
            {
              "internalType": "string",
              "name": "_rejectionReason",
              "type": "string"
            }
          ],
          "name": "investigateClaim",
          "outputs": [],
          "stateMutability": "nonpayable",
          "type": "function"
        },
        {
          "inputs": [
            {
              "internalType": "uint256",
              "name": "_claimId",
              "type": "uint256"
            },
            {
              "internalType": "uint256",
              "name": "_approvedAmount",
              "type": "uint256"
            }
          ],
          "name": "oracleApproveClaim",
          "outputs": [],
          "stateMutability": "nonpayable",
          "type": "function"
        },
        {
          "inputs": [],
          "name": "owner",
          "outputs": [
            {
              "internalType": "address",
              "name": "",
              "type": "address"
            }
          ],
          "stateMutability": "view",
          "type": "function"
        },
        {
          "inputs": [],
          "name": "pause",
          "outputs": [],
          "stateMutability": "nonpayable",
          "type": "function"
        },
        {
          "inputs": [],
          "name": "paused",
          "outputs": [
            {
              "internalType": "bool",
              "name": "",
              "type": "bool"
            }
          ],
          "stateMutability": "view",
          "type": "function"
        },
        {
          "inputs": [
            {
              "internalType": "uint256",
              "name": "_claimId",
              "type": "uint256"
            }
          ],
          "name": "payClaim",
          "outputs": [],
          "stateMutability": "nonpayable",
          "type": "function"
        },
        {
          "inputs": [
            {
              "internalType": "uint256",
              "name": "",
              "type": "uint256"
            }
          ],
          "name": "policies",
          "outputs": [
            {
              "internalType": "uint256",
              "name": "policyId",
              "type": "uint256"
            },
            {
              "internalType": "address",
              "name": "policyholder",
              "type": "address"
            },
            {
              "internalType": "enum DecentralizedInsurance.InsuranceType",
              "name": "insuranceType",
              "type": "uint8"
            },
            {
              "internalType": "uint256",
              "name": "coverageAmount",
              "type": "uint256"
            },
            {
              "internalType": "uint256",
              "name": "premiumAmount",
              "type": "uint256"
            },
            {
              "internalType": "uint256",
              "name": "startDate",
              "type": "uint256"
            },
            {
              "internalType": "uint256",
              "name": "endDate",
              "type": "uint256"
            },
            {
              "internalType": "enum DecentralizedInsurance.PolicyStatus",
              "name": "status",
              "type": "uint8"
            },
            {
              "internalType": "enum DecentralizedInsurance.RiskLevel",
              "name": "riskLevel",
              "type": "uint8"
            },
            {
              "internalType": "string",
              "name": "metadataURI",
              "type": "string"
            },
            {
              "internalType": "uint256",
              "name": "claimsCount",
              "type": "uint256"
            },
            {
              "internalType": "uint256",
              "name": "totalClaimsAmount",
              "type": "uint256"
            }
          ],
          "stateMutability": "view",
          "type": "function"
        },
        {
          "inputs": [
            {
              "internalType": "enum DecentralizedInsurance.InsuranceType",
              "name": "",
              "type": "uint8"
            },
            {
              "internalType": "enum DecentralizedInsurance.RiskLevel",
              "name": "",
              "type": "uint8"
            }
          ],
          "name": "premiumRates",
          "outputs": [
            {
              "internalType": "uint256",
              "name": "",
              "type": "uint256"
            }
          ],
          "stateMutability": "view",
          "type": "function"
        },
        {
          "inputs": [
            {
              "internalType": "address",
              "name": "_investigator",
              "type": "address"
            }
          ],
          "name": "removeInvestigator",
          "outputs": [],
          "stateMutability": "nonpayable",
          "type": "function"
        },
        {
          "inputs": [
            {
              "internalType": "address",
              "name": "_oracle",
              "type": "address"
            }
          ],
          "name": "removeOracle",
          "outputs": [],
          "stateMutability": "nonpayable",
          "type": "function"
        },
        {
          "inputs": [],
          "name": "renounceOwnership",
          "outputs": [],
          "stateMutability": "nonpayable",
          "type": "function"
        },
        {
          "inputs": [
            {
              "internalType": "uint256",
              "name": "_claimId",
              "type": "uint256"
            }
          ],
          "name": "reportFraud",
          "outputs": [],
          "stateMutability": "nonpayable",
          "type": "function"
        },
        {
          "inputs": [],
          "name": "stake",
          "outputs": [],
          "stateMutability": "payable",
          "type": "function"
        },
        {
          "inputs": [
            {
              "internalType": "address",
              "name": "",
              "type": "address"
            }
          ],
          "name": "stakes",
          "outputs": [
            {
              "internalType": "uint256",
              "name": "amount",
              "type": "uint256"
            },
            {
              "internalType": "uint256",
              "name": "stakingDate",
              "type": "uint256"
            },
            {
              "internalType": "uint256",
              "name": "rewardsEarned",
              "type": "uint256"
            },
            {
              "internalType": "uint256",
              "name": "lastRewardUpdate",
              "type": "uint256"
            }
          ],
          "stateMutability": "view",
          "type": "function"
        },
        {
          "inputs": [
            {
              "internalType": "uint256",
              "name": "_policyId",
              "type": "uint256"
            },
            {
              "internalType": "uint256",
              "name": "_claimAmount",
              "type": "uint256"
            },
            {
              "internalType": "string",
              "name": "_evidenceURI",
              "type": "string"
            }
          ],
          "name": "submitClaim",
          "outputs": [],
          "stateMutability": "nonpayable",
          "type": "function"
        },
        {
          "inputs": [
            {
              "internalType": "enum DecentralizedInsurance.InsuranceType",
              "name": "_type",
              "type": "uint8"
            }
          ],
          "name": "togglePoolStatus",
          "outputs": [],
          "stateMutability": "nonpayable",
          "type": "function"
        },
        {
          "inputs": [
            {
              "internalType": "address",
              "name": "newOwner",
              "type": "address"
            }
          ],
          "name": "transferOwnership",
          "outputs": [],
          "stateMutability": "nonpayable",
          "type": "function"
        },
        {
          "inputs": [],
          "name": "unpause",
          "outputs": [],
          "stateMutability": "nonpayable",
          "type": "function"
        },
        {
          "inputs": [
            {
              "internalType": "enum DecentralizedInsurance.InsuranceType",
              "name": "_type",
              "type": "uint8"
            },
            {
              "internalType": "uint256",
              "name": "_rate",
              "type": "uint256"
            }
          ],
          "name": "updatePoolRewardRate",
          "outputs": [],
          "stateMutability": "nonpayable",
          "type": "function"
        },
        {
          "inputs": [
            {
              "internalType": "enum DecentralizedInsurance.InsuranceType",
              "name": "_type",
              "type": "uint8"
            },
            {
              "internalType": "enum DecentralizedInsurance.RiskLevel",
              "name": "_risk",
              "type": "uint8"
            },
            {
              "internalType": "uint256",
              "name": "_rate",
              "type": "uint256"
            }
          ],
          "name": "updatePremiumRate",
          "outputs": [],
          "stateMutability": "nonpayable",
          "type": "function"
        },
        {
          "inputs": [
            {
              "internalType": "address",
              "name": "",
              "type": "address"
            },
            {
              "internalType": "uint256",
              "name": "",
              "type": "uint256"
            }
          ],
          "name": "userClaims",
          "outputs": [
            {
              "internalType": "uint256",
              "name": "",
              "type": "uint256"
            }
          ],
          "stateMutability": "view",
          "type": "function"
        },
        {
          "inputs": [
            {
              "internalType": "address",
              "name": "",
              "type": "address"
            },
            {
              "internalType": "uint256",
              "name": "",
              "type": "uint256"
            }
          ],
          "name": "userPolicies",
          "outputs": [
            {
              "internalType": "uint256",
              "name": "",
              "type": "uint256"
            }
          ],
          "stateMutability": "view",
          "type": "function"
        },
        {
          "inputs": [
            {
              "internalType": "uint256",
              "name": "_amount",
              "type": "uint256"
            }
          ],
          "name": "withdrawStake",
          "outputs": [],
          "stateMutability": "nonpayable",
          "type": "function"
        },
        {
          "stateMutability": "payable",
          "type": "receive"
        }
      ],
      "evm": {
        "bytecode": {
          "linkReferences": {},
          "object": "60806040523461044e5733156104385760008054336001600160a01b0319821681178355916001600160a01b03909116907f8be0079c531659141344cd1fd0a4f28419497f9722a3daafe3b4186f6b6457e09080a36001808055600381815560049190915560c87fab4c5e6d94bd05a4bc56bf86e345985172e352a45f60387bc2e75a915e3a19c2556101907fc60e777e3969e7af65eb621b710e8488643506f977562c73dba103cb35b15a848190556103207f162e617daa896dc1c65340fbda9b95c9bb6b9cfad93eb872e620003a70b983e68190556105dc7f0dd4cabb2db0650ac03dd3096f485c7efdbe2df7a48b0f8f9417f21da11259505560647fb160a7406e28258be08ad805a9afb846e1966a5cc82707dbcb44ed395fc389ee5560fa7f9786f677b3dff6c36ad0d47ef13860fd51b928c112d9702e0dea2fe690bf6ec1556101f47f54bf5bc4b2226bde4cc3e74a9ec72288325c7fa9a62e34b6f2e529209d79e0fb556103e87fca689a1f7db89b8710c79c63830a1317054bd8ec2ee851f1b33a21b2a41ae4f95560967fb9d46844e5f44943022fede37b711babdd9de39af3cab9490ab8d63ad17d130281905561012c7f332275a058505107a86f8909487584ee26365a1ad866fdfd7d0ca217736986ed8190556102587f43a1014b6961384d1120382c968e1e5a446fd730c5b0be82a93447b93d8c57808190556104b07fb963a2cc96831b7d1bee11154ddec13c7b5e8ac05c70661c4538de70ac16a32a8190557f8766d65f062c0ef4ef6d0904498fe293d275999dda7c3b2e86c36355a8ea1b43929092557fa4b2ae645069b0fe342e4873e7f3a2b47b2e1410299f64d1a1b2c9313380bac8557fdf907ee502102e7c62cec3210e3216baba694172f98d9878eb35ef1bec0d16b0556107d07f453e2823e0c78b590eaeddf7807d57c263c48a0a3d13054dd8d170a8a0b546905560327f6bd412ebfcfbe461c4e41627a59fac53c3ee2838a97c6c8dc311b4befcba70b0557f6868be3980be7fd972596ca506cada9b78aca12a9006443b1916ce784f8ef8a8557f84e722789c62b0dc97803f3d1dab51fd1ef82b0c463751f13b5ecc891f27158a9190915560009182527fafafe8948a4ed9d478b1e9a5780b119b5edd00ea7d07bc35bef7c814824eb94b6020527f11a6df99eada7208f7aa93e8b6930faa7431d65501c040d3866253a695b946f0555b60058110908115610429576040516000929060a081016001600160401b0381118282101761041557604052838152602081018481526040820185815260608301916103e8835260808401946001865215610401579060049392916040888860019a52600a60205220935184555187840155516002830155516003820155019051151560ff801983541691161790550161036d565b634e487b7160e01b87526021600452602487fd5b634e487b7160e01b85526041600452602485fd5b6040516131c690816104548239f35b631e4fbdf760e01b600052600060045260246000fd5b600080fdfe6080604052600436101561001b575b361561001957600080fd5b005b60003560e01c806306964de71461253457806307efa984146124d4578063097aad10146124b157806316934fc4146124555780631988a684146123e657806319ac46141461236f578063238dcf881461235257806325d5971f1461213857806327ed7188146121145780632b07fce314611f3a578063372500ab14611e7f5780633a4b66f114611d0c5780633d36adc514611cc25780633f4ba83a14611c595780634c5e3e8514611c1757806353f4983414611b885780635aef2447146119af5780635c975abb1461198c5780635edcc3481461196e57806361c992a31461192f578063715018a6146118d65780637a1419a1146118105780637b73ba67146117635780637bcb4a64146116dc57806380ef31831461153157806382670986146115155780638456cb59146114bb5780638606f9a51461111f5780638da5cb5b146110f6578063991c6cfc14610ae15780639f16927314610aa3578063a888c2cd146109b1578063b31ef5bb14610996578063c3453153146108f5578063ca9748ea1461089c578063cab3990f146107b1578063d3e89483146106c8578063d70356cc146104e0578063db2e21bc1461048d578063df5dd1a514610425578063df9e9de8146103e6578063e1c8b86f146103c3578063e5078ed71461035a578063eebcb0a9146102ea578063f2fde38b146102615763fdc85fc40361000e573461025c57602036600319011261025c57610233612c26565b61023b613167565b6001600160a01b03166000908152600c60205260409020805460ff19169055005b600080fd5b3461025c57602036600319011261025c5761027a612c26565b610282613167565b6001600160a01b031680156102d457600080546001600160a01b03198116831782556001600160a01b0316907f8be0079c531659141344cd1fd0a4f28419497f9722a3daafe3b4186f6b6457e09080a3005b631e4fbdf760e01b600052600060045260246000fd5b3461025c57602036600319011261025c57600435600581101561025c5761030f613167565b61031881612bfc565b80600052600a60205260ff60046040600020015416159061033881612bfc565b600052600a60205260046040600020019060ff80198354169116179055600080f35b3461025c57602036600319011261025c57610373612c26565b61037b613167565b6001600160a01b03166000818152600b60205260408120805460ff191660011790557f9b401e423fa8d3194b83fa5c9a9ddc45e0ae9d32daddd773ae631cc29b7be0ff9080a2005b3461025c57600036600319011261025c5760206103de613030565b604051908152f35b3461025c57602036600319011261025c576001600160a01b03610407612c26565b16600052600b602052602060ff604060002054166040519015158152f35b3461025c57602036600319011261025c5761043e612c26565b610446613167565b6001600160a01b03166000818152600c60205260408120805460ff191660011790557e47706786c922d17b39285dc59d696bafea72c0b003d3841ae1202076f4c2e49080a2005b3461025c57600036600319011261025c576104a6613167565b6000805481908190819047906001600160a01b03168282156104d7575bf1156104cb57005b6040513d6000823e3d90fd5b506108fc6104c3565b3461025c57602036600319011261025c576004356104fc6130b9565b801515806106bd575b61050e90612ed2565b8060005260066020526040600020906006820191825490600260ff831661053481612bfc565b036106835760018101546000526005602052604060002060ff600182015460a01c1661055f81612bfc565b600052600a6020526040600020906002820190815496600985019788541161063e57600460029660ff191617905542600a850155600881016105a18154612dc3565b90556105b4600988549201918254612dd2565b90556105c286548254612e19565b90556105d5600186549201918254612dd2565b905501600080808060018060a01b03855416875490828215610635575bf1156104cb5760207faf3c8fdd75d667f71d36d7840b8ef9086c516c9b047ad6a83a5a66151342123a9160018060a01b039054169354604051908152a360018055005b506108fc6105f2565b60405162461bcd60e51b815260206004820152601760248201527f496e73756666696369656e7420706f6f6c2066756e64730000000000000000006044820152606490fd5b60405162461bcd60e51b815260206004820152601260248201527110db185a5b481b9bdd08185c1c1c9bdd995960721b6044820152606490fd5b506004548110610505565b3461025c57602036600319011261025c5760043560005260056020526040600020805460018201549160ff8360a01c166107a0600283015460038401546004850154600586015460068701549160ff8084169360081c169361072c60078a01612d1f565b95600960088b01549a0154986040519c8d9c8d5260018060a01b031660208d015261075681612bfc565b60408c015260608b015260808a015260a089015260c088015261077881612c1c565b60e087015261078681612c1c565b610100860152610180610120860152610180850190612c76565b916101408401526101608301520390f35b3461025c57602036600319011261025c5760043533600052600b6020526107df60ff60406000205416612f51565b80151580610891575b6107f190612ed2565b8060005260066020526040600020600360ff60068301541661081281612bfc565b0361084c57600201546001600160a01b0316907fd333905bc6384a6f4b921b01917e6ee525790cae96dbdc5d4f60cb7efb594244600080a3005b60405162461bcd60e51b815260206004820152601c60248201527f436c61696d206d7573742062652072656a6563746564206669727374000000006044820152606490fd5b5060045481106107e8565b3461025c57604036600319011261025c576108b5612c26565b6001600160a01b031660009081526008602052604090208054602435919082101561025c576020916108e691612cb7565b90549060031b1c604051908152f35b3461025c57602036600319011261025c5761090e612c26565b6000606060405161091e81612b67565b828152826020820152826040820152015260018060a01b031660005260096020526080604060002060405161095281612b67565b815491828252600181015460208301908152606060036002840154936040860194855201549301928352604051938452516020840152516040830152516060820152f35b3461025c57600036600319011261025c5760206103de612fe8565b3461025c57602036600319011261025c57600435600052600660205260206040600020805490600181015460018060a01b0360028301541691610a8c6003820154610a7d6004840154600585015460ff60068701541690610a1460078801612d1f565b92610a2160088901612d1f565b9560098901549a600a8a015499600b60018060a01b03910154169a6040519e8f9e8f908152015260408d015260608c015260808b015260a08a0152610a6581612bfc565b60c089015261018060e0890152610180880190612c76565b90868203610100880152612c76565b926101208501526101408401526101608301520390f35b3461025c57608036600319011261025c57600435600581101561025c5760643590600482101561025c576020916103de916044359060243590612f9d565b60a036600319011261025c57600435600581101561025c576024356044359160643591600483101561025c5760843567ffffffffffffffff811161025c57610b2d903690600401612ba5565b92610b366130b9565b610b3e61314a565b81156110b25762278d00851061106d576301e13380851161102857610b6283612bfc565b82600052600a60205260ff6004604060002001541615610fe357610b8881868486612f9d565b94853410610f9e57610b9984612bfc565b83600052600a602052600260406000200154605081029080820460501490151715610f8857606490048311610f4357610be494600354958692610bdb84612dc3565b60035542612dd2565b9060405193610bf285612b2e565b83855260208501903382526040860193610c0b89612bfc565b88855260608701888152608088018c815260a089019142835260c08a0193845260e08a0195600087526101008b0195610c4381612c1c565b86526101208b0197885260006101408c018181526101608d018281529b8252600560205260409091209b518c55905160018c0180546001600160a01b0319166001600160a01b03929092169190911781559851909890610ca281612bfc565b610cab81612bfc565b815460ff60a01b191660a09190911b60ff60a01b161790555160028a015551600389015551600488015551600587015590516006860191610ceb82612c1c565b610cf482612c1c565b60ff61ff0084549251610d0681612c1c565b610d0f81612c1c565b60081b1692169061ffff19161717905560078401905180519067ffffffffffffffff8211610f2d57610d418354612ce5565b601f8111610ee5575b50602090601f8311600114610e79576009959493929160009183610e6e575b50508160011b916000199060031b1c19161790555b51600884015551910155336000526007602052610d9f836040600020612ddf565b610da882612bfc565b81600052600a6020526002604060002001610dc4858254612dd2565b9055833411610e3b575b60405191610ddb81612bfc565b82526020820152817f78e2ee02e1dd0cf71b75c6d5463946e0d324ca4b79fbd0b7e59ceffcf24654c160403393a36040519182527ffbf1458fbbddabb878de144276216e8ccda619cbac2d598e6ee37ff72173afb160203393a360018055005b6000808080610e4a8834612e19565b818115610e65575b3390f1610dce576040513d6000823e3d90fd5b506108fc610e52565b015190508b80610d69565b90601f1983169184600052816000209260005b818110610ecd57509160019391856009999897969410610eb4575b505050811b019055610d7e565b015160001960f88460031b161c191690558b8080610ea7565b92936020600181928786015181550195019301610e8c565b836000526020600020601f840160051c81019160208510610f23575b601f0160051c01905b818110610f175750610d4a565b60008155600101610f0a565b9091508190610f01565b634e487b7160e01b600052604160045260246000fd5b60405162461bcd60e51b815260206004820152601e60248201527f436f766572616765206578636565647320706f6f6c20636170616369747900006044820152606490fd5b634e487b7160e01b600052601160045260246000fd5b60405162461bcd60e51b815260206004820152601c60248201527f496e73756666696369656e74207072656d69756d207061796d656e74000000006044820152606490fd5b60405162461bcd60e51b815260206004820152601960248201527f496e737572616e63652074797065206e6f7420616374697665000000000000006044820152606490fd5b60405162461bcd60e51b815260206004820152601c60248201527f4d6178696d756d206475726174696f6e206973203336352064617973000000006044820152606490fd5b60405162461bcd60e51b815260206004820152601b60248201527f4d696e696d756d206475726174696f6e206973203330206461797300000000006044820152606490fd5b606460405162461bcd60e51b815260206004820152602060248201527f436f76657261676520616d6f756e74206d75737420626520706f7369746976656044820152fd5b3461025c57600036600319011261025c576000546040516001600160a01b039091168152602090f35b3461025c57608036600319011261025c57602435600435600582101561025c5760443560643567ffffffffffffffff811161025c57611162903690600401612ba5565b33600052600b60205261117c60ff60406000205416612f51565b821515806114b0575b61118e90612ed2565b82600052600660205260406000209060068201906111b960ff8354166111b381612bfc565b15612f11565b6005830154421161146b576111cd86612bfc565b60028614808015611458575b15611420576111e787612bfc565b156112a957508215158061129b575b1561125657600b926009830155600260ff198254161790555b0180546001600160a01b031916331790556040519161122d81612bfc565b82527e798eecabd6c187fcaa9108de48cf1a34f2d65b6eead4797edcd67fb73ee6c160203393a3005b60405162461bcd60e51b815260206004820152601760248201527f496e76616c696420617070726f76656420616d6f756e740000000000000000006044820152606490fd5b5060038201548311156111f6565b809594935051156113db5760088201855167ffffffffffffffff8111610f2d576112d38254612ce5565b601f8111611393575b506020601f8211600114611329578190600b96979860009261131e575b50508160011b916000199060031b1c19161790555b805460ff1916600317905561120f565b0151905088806112f9565b601f1982169783600052816000209860005b81811061137b575091600b97989991846001959410611362575b505050811b01905561130e565b015160001960f88460031b161c19169055888080611355565b838301518b556001909a01996020938401930161133b565b826000526020600020601f830160051c810191602084106113d1575b601f0160051c01905b8181106113c557506112dc565b600081556001016113b8565b90915081906113af565b60405162461bcd60e51b815260206004820152601960248201527f52656a656374696f6e20726561736f6e207265717569726564000000000000006044820152606490fd5b60405162461bcd60e51b815260206004820152601060248201526f24b73b30b634b2103232b1b4b9b4b7b760811b6044820152606490fd5b5061146287612bfc565b600387146111d9565b60405162461bcd60e51b815260206004820152601c60248201527f496e7665737469676174696f6e20706572696f642065787069726564000000006044820152606490fd5b506004548310611185565b3461025c57600036600319011261025c576114d4613167565b6114dc61314a565b600160ff1960025416176002557f62e78cea01bee320cd4e420270b5ea74000d11b0c9f74754ebdbfc544b05a2586020604051338152a1005b3461025c57600036600319011261025c57602060405160508152f35b3461025c57604036600319011261025c5760043560243533600052600c60205260ff604060002054161561169f5781151580611694575b61157190612ed2565b8160005260066020526040600020600681019182549261159760ff85166111b381612bfc565b6003830154821161164f57683635c9adc5dea00000821161160a5760ff1990931660029081179093556009820155600b0180546001600160a01b0319163390811790915560405191825291907e798eecabd6c187fcaa9108de48cf1a34f2d65b6eead4797edcd67fb73ee6c190602090a3005b60405162461bcd60e51b815260206004820152601e60248201527f4f7261636c6520617070726f76616c206c696d697420657863656564656400006044820152606490fd5b60405162461bcd60e51b815260206004820152601d60248201527f417070726f76656420616d6f756e74206578636565647320636c61696d0000006044820152606490fd5b506004548210611568565b60405162461bcd60e51b81526020600482015260156024820152744e6f7420617574686f72697a6564206f7261636c6560581b6044820152606490fd5b3461025c57602036600319011261025c576001600160a01b036116fd612c26565b166000526008602052604060002060405190816020825491828152019160005260206000209060005b81811061174d576117498561173d81870382612b83565b60405191829182612c3c565b0390f35b8254845260209093019260019283019201611726565b3461025c57606036600319011261025c57600435600581101561025c57602435600481101561025c5760443591611798613167565b61138883116117d2576117aa81612bfc565b600052600d6020526040600020906117c181612c1c565b600052602052604060002055600080f35b60405162461bcd60e51b8152602060048201526016602482015275526174652063616e6e6f74206578636565642035302560501b6044820152606490fd5b3461025c57602036600319011261025c57600435600581101561025c576000608060405161183d81612b4b565b828152826020820152826040820152826060820152015261185d81612bfc565b600052600a60205260a0604060002060405161187881612b4b565b81549182825260018101546020830190815260028201549060408401918252608060ff600460038601549560608801968752015416940193151584526040519485525160208501525160408401525160608301525115156080820152f35b3461025c57600036600319011261025c576118ef613167565b600080546001600160a01b0319811682556001600160a01b03167f8be0079c531659141344cd1fd0a4f28419497f9722a3daafe3b4186f6b6457e08280a3005b3461025c57602036600319011261025c576001600160a01b03611950612c26565b16600052600c602052602060ff604060002054166040519015158152f35b3461025c57600036600319011261025c57602060405162093a808152f35b3461025c57600036600319011261025c57602060ff600254166040519015158152f35b3461025c57602036600319011261025c5760006101606040516119d181612b2e565b8281528260208201528260408201528260608201528260808201528260a08201528260c0820152606060e08201526060610100820152826101208201528261014082015201526004356000526006602052604080600020815190611a3482612b2e565b805482526001810154916020810192835260018060a01b0360028301541691848201928352611b65600382015460608401908152611b51600484015460808601908152600585015460a0870190815260ff6006870154169060c0880191611a9a81612bfc565b8252611aa860078801612d1f565b9260e08901938452611abc60088901612d1f565b956101008a0196875260098901549a6101208b019b8c52600a8a0154996101408c019a8b52600b60018060a01b03910154169a61016081019b8c528e519e8f9e8f92602084525160208401525191015260018060a01b0390511660608d01525160808c01525160a08b01525160c08a015251611b3781612bfc565b60e0890152516101806101008901526101a0880190612c76565b9051868203601f1901610120880152612c76565b925161014085015251610160840152516001600160a01b03166101808301520390f35b3461025c57604036600319011261025c57600435600581101561025c5760243590611bb1613167565b6107d08211611bd957611bc381612bfc565b600052600a602052600360406000200155600080f35b60405162461bcd60e51b8152602060048201526016602482015275526174652063616e6e6f74206578636565642032302560501b6044820152606490fd5b3461025c57602036600319011261025c57611c30612c26565b611c38613167565b6001600160a01b03166000908152600b60205260409020805460ff19169055005b3461025c57600036600319011261025c57611c72613167565b60025460ff811615611cb15760ff19166002557f5db9ee0a495bf2e6ff9c91a7834c1ba4fdd244a5e8aa4e537bd38aeae4b073aa6020604051338152a1005b638dfc202b60e01b60005260046000fd5b3461025c57604036600319011261025c57611cdb612c26565b6001600160a01b031660009081526007602052604090208054602435919082101561025c576020916108e691612cb7565b600036600319011261025c57611d206130b9565b611d2861314a565b68056bc75e2d631000003410611e3a5733600052600960205260406000208054611e2c575b611d58348254612dd2565b81554260018201556003429101556005340460005b60058110611da7576040513481527f0a7bb2e28cc4698aac06db79cf9163bfcc20719286cf59fa7d492ceda1b8edc260203392a260018055005b80611db3600192612bfc565b611dbc81612bfc565b80600052600a60205260ff60046040600020015416611ddc575b01611d6d565b611de581612bfc565b80600052600a6020526040600020611dfe848254612dd2565b9055611e0981612bfc565b80600052600a6020526002604060002001611e25848254612dd2565b9055611dd6565b611e35336130db565b611d4d565b60405162461bcd60e51b815260206004820152601c60248201527f4d696e696d756d207374616b6520616d6f756e74206e6f74206d6574000000006044820152606490fd5b3461025c57600036600319011261025c57611e986130b9565b611ea1336130db565b33600052600960205260026040600020018054908115611eff57600090556000808080843382f1156104cb576040519081527ffc30cddea38e2bf4d6ea7d3f9ed3b6ad7f176419f4963bd81318067a4aee73fe60203392a260018055005b60405162461bcd60e51b81526020600482015260136024820152724e6f207265776172647320746f20636c61696d60681b6044820152606490fd5b3461025c57602036600319011261025c576000610160604051611f5c81612b2e565b8281528260208201528260408201528260608201528260808201528260a08201528260c08201528260e08201528261010082015260606101208201528261014082015201526004356000526005602052602060406000206040518091611fc182612b2e565b8054825260018101546001600160a01b0381168584019081529161210191604085019060a01c60ff16611ff381612bfc565b8152600282015460608601908152600383015460808701908152600484015460a0880190815260058501549160c0890192835260068601549360ff8086169560e08c019661204081612c1c565b875260081c16956101008b019661205681612c1c565b8752600961206660078a01612d1f565b986101208d01998a5261014060088201549d019c8d520154996101608d019a8b526040518e819f9e829f83525191015260018060a01b0390511660408d0152516120af81612bfc565b60608c01525160808b01525160a08a01525160c08901525160e0880152516120d681612c1c565b610100870152516120e681612c1c565b610120860152516101806101408601526101a0850190612c76565b9151610160840152516101808301520390f35b3461025c57600036600319011261025c57602060405168056bc75e2d631000008152f35b3461025c57602036600319011261025c576004356121546130b9565b3360005260096020526040600020818154106123185781156122d357612179336130db565b612181612fe8565b6121938361218d613030565b92612e19565b90605081029080820460501490151715610f8857606490041161228f576121bb828254612e19565b90556005810460005b6005811061220d57826000808080843382f1156104cb576040519081527f8108595eb6bad3acefa9da467d90cc2217686d5c5ac85460f8b7849c840645fc60203392a260018055005b80612219600192612bfc565b61222281612bfc565b80600052600a60205282604060002054101561223f575b016121c4565b61224881612bfc565b80600052600a6020526040600020612261848254612e19565b905561226c81612bfc565b80600052600a6020526002604060002001612288848254612e19565b9055612239565b606460405162461bcd60e51b815260206004820152602060248201527f5769746864726177616c20776f756c642061666665637420736f6c76656e63796044820152fd5b60405162461bcd60e51b815260206004820152601760248201527f416d6f756e74206d75737420626520706f7369746976650000000000000000006044820152606490fd5b60405162461bcd60e51b8152602060048201526012602482015271496e73756666696369656e74207374616b6560701b6044820152606490fd5b3461025c57600036600319011261025c5760206040516103e88152f35b3461025c57602036600319011261025c576001600160a01b03612390612c26565b166000526007602052604060002060405190816020825491828152019160005260206000209060005b8181106123d0576117498561173d81870382612b83565b82548452602090930192600192830192016123b9565b3461025c57602036600319011261025c57600435600581101561025c5761240c81612bfc565b600052600a60205260a06040600020805490600181015490600281015460ff60046003840154930154169260405194855260208501526040840152606083015215156080820152f35b3461025c57602036600319011261025c576001600160a01b03612476612c26565b166000526009602052608060406000208054906001810154906003600282015491015491604051938452602084015260408301526060820152f35b3461025c57602036600319011261025c5760206103de6124cf612c26565b612e39565b3461025c57604036600319011261025c57600435600581101561025c5760243590600482101561025c5761250781612bfc565b600052600d60205260406000209061251e81612c1c565b6000526020526020604060002054604051908152f35b3461025c57606036600319011261025c5760243560043560443567ffffffffffffffff811161025c5761256b903690600401612ba5565b6125736130b9565b81151580612b23575b15612aea5781600052600560205260ff6006604060002001541661259f81612c1c565b612ab157600082815260056020526040902060018101546001600160a01b03163303612a785760058101544211612a425783156129fd576002015483116129bf57600454906125ed82612dc3565b60045562093a80420190814211610f88576040519061260b82612b2e565b838252602082019085825260408301903382526060840190888252608085019042825260a0860196875260c086016000815260e08701918252602097604051936126558a86612b83565b60008086526101008a019586526101208a018181526101408b018281526101608c018381528e84526006808f5260409094209c518d559a5160018d0155985160028c0180546001600160a01b0319166001600160a01b0392909216919091179055965160038b0155905160048a0155905160058901559051908701906126da81612bfc565b6126e381612bfc565b60ff8019835416911617905560078601905180519067ffffffffffffffff8211610f2d5781906127138454612ce5565b601f811161296e575b508990601f8311600114612909576000926128fe575b50508160011b916000199060031b1c19161790555b518051600886019167ffffffffffffffff8211610f2d576127688354612ce5565b601f81116128b8575b508790601f8311600114612829579180600b9694927f3a30d1c4069e097873e77443df9683e8de5c7ba3674315b8670a0211e31301959a9998969460009261281e575b50508160011b916000199060031b1c19161790555b51600985015551600a84015551910180546001600160a01b0319166001600160a01b0392909216919091179055336000908152600882526040902061280f908490612ddf565b6040519485523394a460018055005b015190508d806127b4565b90601f1983169184600052896000209260005b8181106128a157509260019285927f3a30d1c4069e097873e77443df9683e8de5c7ba3674315b8670a0211e31301959c9b9a9896600b9a989610612888575b505050811b0190556127c9565b015160001960f88460031b161c191690558d808061287b565b92938b60018192878601518155019501930161283c565b8360005288600020601f840160051c8101918a85106128f4575b601f0160051c01905b8181106128e85750612771565b600081556001016128db565b90915081906128d2565b015190508c80612732565b60008581528b81209350601f198516905b8c82821061295857505090846001959493921061293f575b505050811b019055612747565b015160001960f88460031b161c191690558c8080612932565b600185968293968601518155019501930161291a565b9091508360005289600020601f840160051c8101918b85106129b5575b90601f859493920160051c01905b8181106129a6575061271c565b60008155849350600101612999565b909150819061298b565b60405162461bcd60e51b8152602060048201526016602482015275436c61696d206578636565647320636f76657261676560501b6044820152606490fd5b60405162461bcd60e51b815260206004820152601d60248201527f436c61696d20616d6f756e74206d75737420626520706f7369746976650000006044820152606490fd5b60405162461bcd60e51b815260206004820152600e60248201526d141bdb1a58de48195e1c1a5c995960921b6044820152606490fd5b60405162461bcd60e51b81526020600482015260116024820152702737ba103837b634b1bc903437b63232b960791b6044820152606490fd5b60405162461bcd60e51b8152602060048201526011602482015270506f6c696379206e6f742061637469766560781b6044820152606490fd5b60405162461bcd60e51b8152602060048201526011602482015270125b9d985b1a59081c1bdb1a58de481251607a1b6044820152606490fd5b50600354821061257c565b610180810190811067ffffffffffffffff821117610f2d57604052565b60a0810190811067ffffffffffffffff821117610f2d57604052565b6080810190811067ffffffffffffffff821117610f2d57604052565b90601f8019910116810190811067ffffffffffffffff821117610f2d57604052565b81601f8201121561025c5780359067ffffffffffffffff8211610f2d5760405192612bda601f8401601f191660200185612b83565b8284526020838301011161025c57816000926020809301838601378301015290565b60051115612c0657565b634e487b7160e01b600052602160045260246000fd5b60041115612c0657565b600435906001600160a01b038216820361025c57565b602060408183019282815284518094520192019060005b818110612c605750505090565b8251845260209384019390920191600101612c53565b919082519283825260005b848110612ca2575050826000602080949584010152601f8019910116010190565b80602080928401015182828601015201612c81565b8054821015612ccf5760005260206000200190600090565b634e487b7160e01b600052603260045260246000fd5b90600182811c92168015612d15575b6020831014612cff57565b634e487b7160e01b600052602260045260246000fd5b91607f1691612cf4565b9060405191826000825492612d3384612ce5565b8084529360018116908115612da15750600114612d5a575b50612d5892500383612b83565b565b90506000929192526020600020906000915b818310612d85575050906020612d589282010138612d4b565b6020919350806001915483858901015201910190918492612d6c565b905060209250612d5894915060ff191682840152151560051b82010138612d4b565b6000198114610f885760010190565b91908201809211610f8857565b805468010000000000000000811015610f2d57612e0191600182018155612cb7565b819291549060031b91821b91600019901b1916179055565b91908203918211610f8857565b81810292918115918404141715610f8857565b60018060a01b03166000526009602052604060002060405190612e5b82612b67565b80548083526001820154602084015260028201546003604085019382855201549182606086015215612ecb5750612e929042612e19565b9151916103e88302928084046103e81490151715610f8857612ec06301e1338091612710612ec89504612e26565b049051612dd2565b90565b9250505090565b15612ed957565b60405162461bcd60e51b815260206004820152601060248201526f125b9d985b1a590818db185a5b48125160821b6044820152606490fd5b15612f1857565b60405162461bcd60e51b8152602060048201526011602482015270436c61696d206e6f742070656e64696e6760781b6044820152606490fd5b15612f5857565b60405162461bcd60e51b815260206004820152601b60248201527f4e6f7420617574686f72697a656420696e76657374696761746f7200000000006044820152606490fd5b612fe4929164496cebb80094612fdf92612fb681612bfc565b600052600d602052604060002090612fcd81612c1c565b60005260205260406000205490612e26565b612e26565b0490565b6000805b60058110612ff8575090565b9061302960019161300884612bfc565b61301184612bfc565b83600052600a60205260026040600020015490612dd2565b9101612fec565b60006001600354905b81811061304557505090565b80600052600560205260ff6006604060002001541661306381612c1c565b158061309e575b613077575b600101613039565b9161309660019184600052600560205260026040600020015490612dd2565b92905061306f565b5080600052600560205260056040600020015442111561306a565b6002600154146130ca576002600155565b633ee5aeb560e01b60005260046000fd5b6001600160a01b03166000908152600960205260409020805490811561314657600381019161310b835442612e19565b906103e881029081046103e803610f88576301e1338061313461313f9361271060029404612e26565b049201918254612dd2565b9055429055565b5050565b60ff6002541661315657565b63d93c066560e01b60005260046000fd5b6000546001600160a01b0316330361317b57565b63118cdaa760e01b6000523360045260246000fdfea2646970667358221220b85e9b28ed0b275513583df6c1cef6746495372cd2da6cba2bc4ff15e8e0d57964736f6c634300081c0033",
          "opcodes": "PUSH1 0x80 PUSH1 0x40 MSTORE CALLVALUE PUSH2 0x44E JUMPI CALLER ISZERO PUSH2 0x438 JUMPI PUSH1 0x0 DUP1 SLOAD CALLER PUSH1 0x1 PUSH1 0x1 PUSH1 0xA0 SHL SUB NOT DUP3 AND DUP2 OR DUP4 SSTORE SWAP2 PUSH1 0x1 PUSH1 0x1 PUSH1 0xA0 SHL SUB SWAP1 SWAP2 AND SWAP1 PUSH32 0x8BE0079C531659141344CD1FD0A4F28419497F9722A3DAAFE3B4186F6B6457E0 SWAP1 DUP1 LOG3 PUSH1 0x1 DUP1 DUP1 SSTORE PUSH1 0x3 DUP2 DUP2 SSTORE PUSH1 0x4 SWAP2 SWAP1 SWAP2 SSTORE PUSH1 0xC8 PUSH32 0xAB4C5E6D94BD05A4BC56BF86E345985172E352A45F60387BC2E75A915E3A19C2 SSTORE PUSH2 0x190 PUSH32 0xC60E777E3969E7AF65EB621B710E8488643506F977562C73DBA103CB35B15A84 DUP2 SWAP1 SSTORE PUSH2 0x320 PUSH32 0x162E617DAA896DC1C65340FBDA9B95C9BB6B9CFAD93EB872E620003A70B983E6 DUP2 SWAP1 SSTORE PUSH2 0x5DC PUSH32 0xDD4CABB2DB0650AC03DD3096F485C7EFDBE2DF7A48B0F8F9417F21DA1125950 SSTORE PUSH1 0x64 PUSH32 0xB160A7406E28258BE08AD805A9AFB846E1966A5CC82707DBCB44ED395FC389EE SSTORE PUSH1 0xFA PUSH32 0x9786F677B3DFF6C36AD0D47EF13860FD51B928C112D9702E0DEA2FE690BF6EC1 SSTORE PUSH2 0x1F4 PUSH32 0x54BF5BC4B2226BDE4CC3E74A9EC72288325C7FA9A62E34B6F2E529209D79E0FB SSTORE PUSH2 0x3E8 PUSH32 0xCA689A1F7DB89B8710C79C63830A1317054BD8EC2EE851F1B33A21B2A41AE4F9 SSTORE PUSH1 0x96 PUSH32 0xB9D46844E5F44943022FEDE37B711BABDD9DE39AF3CAB9490AB8D63AD17D1302 DUP2 SWAP1 SSTORE PUSH2 0x12C PUSH32 0x332275A058505107A86F8909487584EE26365A1AD866FDFD7D0CA217736986ED DUP2 SWAP1 SSTORE PUSH2 0x258 PUSH32 0x43A1014B6961384D1120382C968E1E5A446FD730C5B0BE82A93447B93D8C5780 DUP2 SWAP1 SSTORE PUSH2 0x4B0 PUSH32 0xB963A2CC96831B7D1BEE11154DDEC13C7B5E8AC05C70661C4538DE70AC16A32A DUP2 SWAP1 SSTORE PUSH32 0x8766D65F062C0EF4EF6D0904498FE293D275999DDA7C3B2E86C36355A8EA1B43 SWAP3 SWAP1 SWAP3 SSTORE PUSH32 0xA4B2AE645069B0FE342E4873E7F3A2B47B2E1410299F64D1A1B2C9313380BAC8 SSTORE PUSH32 0xDF907EE502102E7C62CEC3210E3216BABA694172F98D9878EB35EF1BEC0D16B0 SSTORE PUSH2 0x7D0 PUSH32 0x453E2823E0C78B590EAEDDF7807D57C263C48A0A3D13054DD8D170A8A0B54690 SSTORE PUSH1 0x32 PUSH32 0x6BD412EBFCFBE461C4E41627A59FAC53C3EE2838A97C6C8DC311B4BEFCBA70B0 SSTORE PUSH32 0x6868BE3980BE7FD972596CA506CADA9B78ACA12A9006443B1916CE784F8EF8A8 SSTORE PUSH32 0x84E722789C62B0DC97803F3D1DAB51FD1EF82B0C463751F13B5ECC891F27158A SWAP2 SWAP1 SWAP2 SSTORE PUSH1 0x0 SWAP2 DUP3 MSTORE PUSH32 0xAFAFE8948A4ED9D478B1E9A5780B119B5EDD00EA7D07BC35BEF7C814824EB94B PUSH1 0x20 MSTORE PUSH32 0x11A6DF99EADA7208F7AA93E8B6930FAA7431D65501C040D3866253A695B946F0 SSTORE JUMPDEST PUSH1 0x5 DUP2 LT SWAP1 DUP2 ISZERO PUSH2 0x429 JUMPI PUSH1 0x40 MLOAD PUSH1 0x0 SWAP3 SWAP1 PUSH1 0xA0 DUP2 ADD PUSH1 0x1 PUSH1 0x1 PUSH1 0x40 SHL SUB DUP2 GT DUP3 DUP3 LT OR PUSH2 0x415 JUMPI PUSH1 0x40 MSTORE DUP4 DUP2 MSTORE PUSH1 0x20 DUP2 ADD DUP5 DUP2 MSTORE PUSH1 0x40 DUP3 ADD DUP6 DUP2 MSTORE PUSH1 0x60 DUP4 ADD SWAP2 PUSH2 0x3E8 DUP4 MSTORE PUSH1 0x80 DUP5 ADD SWAP5 PUSH1 0x1 DUP7 MSTORE ISZERO PUSH2 0x401 JUMPI SWAP1 PUSH1 0x4 SWAP4 SWAP3 SWAP2 PUSH1 0x40 DUP9 DUP9 PUSH1 0x1 SWAP11 MSTORE PUSH1 0xA PUSH1 0x20 MSTORE KECCAK256 SWAP4 MLOAD DUP5 SSTORE MLOAD DUP8 DUP5 ADD SSTORE MLOAD PUSH1 0x2 DUP4 ADD SSTORE MLOAD PUSH1 0x3 DUP3 ADD SSTORE ADD SWAP1 MLOAD ISZERO ISZERO PUSH1 0xFF DUP1 NOT DUP4 SLOAD AND SWAP2 AND OR SWAP1 SSTORE ADD PUSH2 0x36D JUMP JUMPDEST PUSH4 0x4E487B71 PUSH1 0xE0 SHL DUP8 MSTORE PUSH1 0x21 PUSH1 0x4 MSTORE PUSH1 0x24 DUP8 REVERT JUMPDEST PUSH4 0x4E487B71 PUSH1 0xE0 SHL DUP6 MSTORE PUSH1 0x41 PUSH1 0x4 MSTORE PUSH1 0x24 DUP6 REVERT JUMPDEST PUSH1 0x40 MLOAD PUSH2 0x31C6 SWAP1 DUP2 PUSH2 0x454 DUP3 CODECOPY RETURN JUMPDEST PUSH4 0x1E4FBDF7 PUSH1 0xE0 SHL PUSH1 0x0 MSTORE PUSH1 0x0 PUSH1 0x4 MSTORE PUSH1 0x24 PUSH1 0x0 REVERT JUMPDEST PUSH1 0x0 DUP1 REVERT INVALID PUSH1 0x80 PUSH1 0x40 MSTORE PUSH1 0x4 CALLDATASIZE LT ISZERO PUSH2 0x1B JUMPI JUMPDEST CALLDATASIZE ISZERO PUSH2 0x19 JUMPI PUSH1 0x0 DUP1 REVERT JUMPDEST STOP JUMPDEST PUSH1 0x0 CALLDATALOAD PUSH1 0xE0 SHR DUP1 PUSH4 0x6964DE7 EQ PUSH2 0x2534 JUMPI DUP1 PUSH4 0x7EFA984 EQ PUSH2 0x24D4 JUMPI DUP1 PUSH4 0x97AAD10 EQ PUSH2 0x24B1 JUMPI DUP1 PUSH4 0x16934FC4 EQ PUSH2 0x2455 JUMPI DUP1 PUSH4 0x1988A684 EQ PUSH2 0x23E6 JUMPI DUP1 PUSH4 0x19AC4614 EQ PUSH2 0x236F JUMPI DUP1 PUSH4 0x238DCF88 EQ PUSH2 0x2352 JUMPI DUP1 PUSH4 0x25D5971F EQ PUSH2 0x2138 JUMPI DUP1 PUSH4 0x27ED7188 EQ PUSH2 0x2114 JUMPI DUP1 PUSH4 0x2B07FCE3 EQ PUSH2 0x1F3A JUMPI DUP1 PUSH4 0x372500AB EQ PUSH2 0x1E7F JUMPI DUP1 PUSH4 0x3A4B66F1 EQ PUSH2 0x1D0C JUMPI DUP1 PUSH4 0x3D36ADC5 EQ PUSH2 0x1CC2 JUMPI DUP1 PUSH4 0x3F4BA83A EQ PUSH2 0x1C59 JUMPI DUP1 PUSH4 0x4C5E3E85 EQ PUSH2 0x1C17 JUMPI DUP1 PUSH4 0x53F49834 EQ PUSH2 0x1B88 JUMPI DUP1 PUSH4 0x5AEF2447 EQ PUSH2 0x19AF JUMPI DUP1 PUSH4 0x5C975ABB EQ PUSH2 0x198C JUMPI DUP1 PUSH4 0x5EDCC348 EQ PUSH2 0x196E JUMPI DUP1 PUSH4 0x61C992A3 EQ PUSH2 0x192F JUMPI DUP1 PUSH4 0x715018A6 EQ PUSH2 0x18D6 JUMPI DUP1 PUSH4 0x7A1419A1 EQ PUSH2 0x1810 JUMPI DUP1 PUSH4 0x7B73BA67 EQ PUSH2 0x1763 JUMPI DUP1 PUSH4 0x7BCB4A64 EQ PUSH2 0x16DC JUMPI DUP1 PUSH4 0x80EF3183 EQ PUSH2 0x1531 JUMPI DUP1 PUSH4 0x82670986 EQ PUSH2 0x1515 JUMPI DUP1 PUSH4 0x8456CB59 EQ PUSH2 0x14BB JUMPI DUP1 PUSH4 0x8606F9A5 EQ PUSH2 0x111F JUMPI DUP1 PUSH4 0x8DA5CB5B EQ PUSH2 0x10F6 JUMPI DUP1 PUSH4 0x991C6CFC EQ PUSH2 0xAE1 JUMPI DUP1 PUSH4 0x9F169273 EQ PUSH2 0xAA3 JUMPI DUP1 PUSH4 0xA888C2CD EQ PUSH2 0x9B1 JUMPI DUP1 PUSH4 0xB31EF5BB EQ PUSH2 0x996 JUMPI DUP1 PUSH4 0xC3453153 EQ PUSH2 0x8F5 JUMPI DUP1 PUSH4 0xCA9748EA EQ PUSH2 0x89C JUMPI DUP1 PUSH4 0xCAB3990F EQ PUSH2 0x7B1 JUMPI DUP1 PUSH4 0xD3E89483 EQ PUSH2 0x6C8 JUMPI DUP1 PUSH4 0xD70356CC EQ PUSH2 0x4E0 JUMPI DUP1 PUSH4 0xDB2E21BC EQ PUSH2 0x48D JUMPI DUP1 PUSH4 0xDF5DD1A5 EQ PUSH2 0x425 JUMPI DUP1 PUSH4 0xDF9E9DE8 EQ PUSH2 0x3E6 JUMPI DUP1 PUSH4 0xE1C8B86F EQ PUSH2 0x3C3 JUMPI DUP1 PUSH4 0xE5078ED7 EQ PUSH2 0x35A JUMPI DUP1 PUSH4 0xEEBCB0A9 EQ PUSH2 0x2EA JUMPI DUP1 PUSH4 0xF2FDE38B EQ PUSH2 0x261 JUMPI PUSH4 0xFDC85FC4 SUB PUSH2 0xE JUMPI CALLVALUE PUSH2 0x25C JUMPI PUSH1 0x20 CALLDATASIZE PUSH1 0x3 NOT ADD SLT PUSH2 0x25C JUMPI PUSH2 0x233 PUSH2 0x2C26 JUMP JUMPDEST PUSH2 0x23B PUSH2 0x3167 JUMP JUMPDEST PUSH1 0x1 PUSH1 0x1 PUSH1 0xA0 SHL SUB AND PUSH1 0x0 SWAP1 DUP2 MSTORE PUSH1 0xC PUSH1 0x20 MSTORE PUSH1 0x40 SWAP1 KECCAK256 DUP1 SLOAD PUSH1 0xFF NOT AND SWAP1 SSTORE STOP JUMPDEST PUSH1 0x0 DUP1 REVERT JUMPDEST CALLVALUE PUSH2 0x25C JUMPI PUSH1 0x20 CALLDATASIZE PUSH1 0x3 NOT ADD SLT PUSH2 0x25C JUMPI PUSH2 0x27A PUSH2 0x2C26 JUMP JUMPDEST PUSH2 0x282 PUSH2 0x3167 JUMP JUMPDEST PUSH1 0x1 PUSH1 0x1 PUSH1 0xA0 SHL SUB AND DUP1 ISZERO PUSH2 0x2D4 JUMPI PUSH1 0x0 DUP1 SLOAD PUSH1 0x1 PUSH1 0x1 PUSH1 0xA0 SHL SUB NOT DUP2 AND DUP4 OR DUP3 SSTORE PUSH1 0x1 PUSH1 0x1 PUSH1 0xA0 SHL SUB AND SWAP1 PUSH32 0x8BE0079C531659141344CD1FD0A4F28419497F9722A3DAAFE3B4186F6B6457E0 SWAP1 DUP1 LOG3 STOP JUMPDEST PUSH4 0x1E4FBDF7 PUSH1 0xE0 SHL PUSH1 0x0 MSTORE PUSH1 0x0 PUSH1 0x4 MSTORE PUSH1 0x24 PUSH1 0x0 REVERT JUMPDEST CALLVALUE PUSH2 0x25C JUMPI PUSH1 0x20 CALLDATASIZE PUSH1 0x3 NOT ADD SLT PUSH2 0x25C JUMPI PUSH1 0x4 CALLDATALOAD PUSH1 0x5 DUP2 LT ISZERO PUSH2 0x25C JUMPI PUSH2 0x30F PUSH2 0x3167 JUMP JUMPDEST PUSH2 0x318 DUP2 PUSH2 0x2BFC JUMP JUMPDEST DUP1 PUSH1 0x0 MSTORE PUSH1 0xA PUSH1 0x20 MSTORE PUSH1 0xFF PUSH1 0x4 PUSH1 0x40 PUSH1 0x0 KECCAK256 ADD SLOAD AND ISZERO SWAP1 PUSH2 0x338 DUP2 PUSH2 0x2BFC JUMP JUMPDEST PUSH1 0x0 MSTORE PUSH1 0xA PUSH1 0x20 MSTORE PUSH1 0x4 PUSH1 0x40 PUSH1 0x0 KECCAK256 ADD SWAP1 PUSH1 0xFF DUP1 NOT DUP4 SLOAD AND SWAP2 AND OR SWAP1 SSTORE PUSH1 0x0 DUP1 RETURN JUMPDEST CALLVALUE PUSH2 0x25C JUMPI PUSH1 0x20 CALLDATASIZE PUSH1 0x3 NOT ADD SLT PUSH2 0x25C JUMPI PUSH2 0x373 PUSH2 0x2C26 JUMP JUMPDEST PUSH2 0x37B PUSH2 0x3167 JUMP JUMPDEST PUSH1 0x1 PUSH1 0x1 PUSH1 0xA0 SHL SUB AND PUSH1 0x0 DUP2 DUP2 MSTORE PUSH1 0xB PUSH1 0x20 MSTORE PUSH1 0x40 DUP2 KECCAK256 DUP1 SLOAD PUSH1 0xFF NOT AND PUSH1 0x1 OR SWAP1 SSTORE PUSH32 0x9B401E423FA8D3194B83FA5C9A9DDC45E0AE9D32DADDD773AE631CC29B7BE0FF SWAP1 DUP1 LOG2 STOP JUMPDEST CALLVALUE PUSH2 0x25C JUMPI PUSH1 0x0 CALLDATASIZE PUSH1 0x3 NOT ADD SLT PUSH2 0x25C JUMPI PUSH1 0x20 PUSH2 0x3DE PUSH2 0x3030 JUMP JUMPDEST PUSH1 0x40 MLOAD SWAP1 DUP2 MSTORE RETURN JUMPDEST CALLVALUE PUSH2 0x25C JUMPI PUSH1 0x20 CALLDATASIZE PUSH1 0x3 NOT ADD SLT PUSH2 0x25C JUMPI PUSH1 0x1 PUSH1 0x1 PUSH1 0xA0 SHL SUB PUSH2 0x407 PUSH2 0x2C26 JUMP JUMPDEST AND PUSH1 0x0 MSTORE PUSH1 0xB PUSH1 0x20 MSTORE PUSH1 0x20 PUSH1 0xFF PUSH1 0x40 PUSH1 0x0 KECCAK256 SLOAD AND PUSH1 0x40 MLOAD SWAP1 ISZERO ISZERO DUP2 MSTORE RETURN JUMPDEST CALLVALUE PUSH2 0x25C JUMPI PUSH1 0x20 CALLDATASIZE PUSH1 0x3 NOT ADD SLT PUSH2 0x25C JUMPI PUSH2 0x43E PUSH2 0x2C26 JUMP JUMPDEST PUSH2 0x446 PUSH2 0x3167 JUMP JUMPDEST PUSH1 0x1 PUSH1 0x1 PUSH1 0xA0 SHL SUB AND PUSH1 0x0 DUP2 DUP2 MSTORE PUSH1 0xC PUSH1 0x20 MSTORE PUSH1 0x40 DUP2 KECCAK256 DUP1 SLOAD PUSH1 0xFF NOT AND PUSH1 0x1 OR SWAP1 SSTORE PUSH31 0x47706786C922D17B39285DC59D696BAFEA72C0B003D3841AE1202076F4C2E4 SWAP1 DUP1 LOG2 STOP JUMPDEST CALLVALUE PUSH2 0x25C JUMPI PUSH1 0x0 CALLDATASIZE PUSH1 0x3 NOT ADD SLT PUSH2 0x25C JUMPI PUSH2 0x4A6 PUSH2 0x3167 JUMP JUMPDEST PUSH1 0x0 DUP1 SLOAD DUP2 SWAP1 DUP2 SWAP1 DUP2 SWAP1 SELFBALANCE SWAP1 PUSH1 0x1 PUSH1 0x1 PUSH1 0xA0 SHL SUB AND DUP3 DUP3 ISZERO PUSH2 0x4D7 JUMPI JUMPDEST CALL ISZERO PUSH2 0x4CB JUMPI STOP JUMPDEST PUSH1 0x40 MLOAD RETURNDATASIZE PUSH1 0x0 DUP3 RETURNDATACOPY RETURNDATASIZE SWAP1 REVERT JUMPDEST POP PUSH2 0x8FC PUSH2 0x4C3 JUMP JUMPDEST CALLVALUE PUSH2 0x25C JUMPI PUSH1 0x20 CALLDATASIZE PUSH1 0x3 NOT ADD SLT PUSH2 0x25C JUMPI PUSH1 0x4 CALLDATALOAD PUSH2 0x4FC PUSH2 0x30B9 JUMP JUMPDEST DUP1 ISZERO ISZERO DUP1 PUSH2 0x6BD JUMPI JUMPDEST PUSH2 0x50E SWAP1 PUSH2 0x2ED2 JUMP JUMPDEST DUP1 PUSH1 0x0 MSTORE PUSH1 0x6 PUSH1 0x20 MSTORE PUSH1 0x40 PUSH1 0x0 KECCAK256 SWAP1 PUSH1 0x6 DUP3 ADD SWAP2 DUP3 SLOAD SWAP1 PUSH1 0x2 PUSH1 0xFF DUP4 AND PUSH2 0x534 DUP2 PUSH2 0x2BFC JUMP JUMPDEST SUB PUSH2 0x683 JUMPI PUSH1 0x1 DUP2 ADD SLOAD PUSH1 0x0 MSTORE PUSH1 0x5 PUSH1 0x20 MSTORE PUSH1 0x40 PUSH1 0x0 KECCAK256 PUSH1 0xFF PUSH1 0x1 DUP3 ADD SLOAD PUSH1 0xA0 SHR AND PUSH2 0x55F DUP2 PUSH2 0x2BFC JUMP JUMPDEST PUSH1 0x0 MSTORE PUSH1 0xA PUSH1 0x20 MSTORE PUSH1 0x40 PUSH1 0x0 KECCAK256 SWAP1 PUSH1 0x2 DUP3 ADD SWAP1 DUP2 SLOAD SWAP7 PUSH1 0x9 DUP6 ADD SWAP8 DUP9 SLOAD GT PUSH2 0x63E JUMPI PUSH1 0x4 PUSH1 0x2 SWAP7 PUSH1 0xFF NOT AND OR SWAP1 SSTORE TIMESTAMP PUSH1 0xA DUP6 ADD SSTORE PUSH1 0x8 DUP2 ADD PUSH2 0x5A1 DUP2 SLOAD PUSH2 0x2DC3 JUMP JUMPDEST SWAP1 SSTORE PUSH2 0x5B4 PUSH1 0x9 DUP9 SLOAD SWAP3 ADD SWAP2 DUP3 SLOAD PUSH2 0x2DD2 JUMP JUMPDEST SWAP1 SSTORE PUSH2 0x5C2 DUP7 SLOAD DUP3 SLOAD PUSH2 0x2E19 JUMP JUMPDEST SWAP1 SSTORE PUSH2 0x5D5 PUSH1 0x1 DUP7 SLOAD SWAP3 ADD SWAP2 DUP3 SLOAD PUSH2 0x2DD2 JUMP JUMPDEST SWAP1 SSTORE ADD PUSH1 0x0 DUP1 DUP1 DUP1 PUSH1 0x1 DUP1 PUSH1 0xA0 SHL SUB DUP6 SLOAD AND DUP8 SLOAD SWAP1 DUP3 DUP3 ISZERO PUSH2 0x635 JUMPI JUMPDEST CALL ISZERO PUSH2 0x4CB JUMPI PUSH1 0x20 PUSH32 0xAF3C8FDD75D667F71D36D7840B8EF9086C516C9B047AD6A83A5A66151342123A SWAP2 PUSH1 0x1 DUP1 PUSH1 0xA0 SHL SUB SWAP1 SLOAD AND SWAP4 SLOAD PUSH1 0x40 MLOAD SWAP1 DUP2 MSTORE LOG3 PUSH1 0x1 DUP1 SSTORE STOP JUMPDEST POP PUSH2 0x8FC PUSH2 0x5F2 JUMP JUMPDEST PUSH1 0x40 MLOAD PUSH3 0x461BCD PUSH1 0xE5 SHL DUP2 MSTORE PUSH1 0x20 PUSH1 0x4 DUP3 ADD MSTORE PUSH1 0x17 PUSH1 0x24 DUP3 ADD MSTORE PUSH32 0x496E73756666696369656E7420706F6F6C2066756E6473000000000000000000 PUSH1 0x44 DUP3 ADD MSTORE PUSH1 0x64 SWAP1 REVERT JUMPDEST PUSH1 0x40 MLOAD PUSH3 0x461BCD PUSH1 0xE5 SHL DUP2 MSTORE PUSH1 0x20 PUSH1 0x4 DUP3 ADD MSTORE PUSH1 0x12 PUSH1 0x24 DUP3 ADD MSTORE PUSH18 0x10DB185A5B481B9BDD08185C1C1C9BDD9959 PUSH1 0x72 SHL PUSH1 0x44 DUP3 ADD MSTORE PUSH1 0x64 SWAP1 REVERT JUMPDEST POP PUSH1 0x4 SLOAD DUP2 LT PUSH2 0x505 JUMP JUMPDEST CALLVALUE PUSH2 0x25C JUMPI PUSH1 0x20 CALLDATASIZE PUSH1 0x3 NOT ADD SLT PUSH2 0x25C JUMPI PUSH1 0x4 CALLDATALOAD PUSH1 0x0 MSTORE PUSH1 0x5 PUSH1 0x20 MSTORE PUSH1 0x40 PUSH1 0x0 KECCAK256 DUP1 SLOAD PUSH1 0x1 DUP3 ADD SLOAD SWAP2 PUSH1 0xFF DUP4 PUSH1 0xA0 SHR AND PUSH2 0x7A0 PUSH1 0x2 DUP4 ADD SLOAD PUSH1 0x3 DUP5 ADD SLOAD PUSH1 0x4 DUP6 ADD SLOAD PUSH1 0x5 DUP7 ADD SLOAD PUSH1 0x6 DUP8 ADD SLOAD SWAP2 PUSH1 0xFF DUP1 DUP5 AND SWAP4 PUSH1 0x8 SHR AND SWAP4 PUSH2 0x72C PUSH1 0x7 DUP11 ADD PUSH2 0x2D1F JUMP JUMPDEST SWAP6 PUSH1 0x9 PUSH1 0x8 DUP12 ADD SLOAD SWAP11 ADD SLOAD SWAP9 PUSH1 0x40 MLOAD SWAP13 DUP14 SWAP13 DUP14 MSTORE PUSH1 0x1 DUP1 PUSH1 0xA0 SHL SUB AND PUSH1 0x20 DUP14 ADD MSTORE PUSH2 0x756 DUP2 PUSH2 0x2BFC JUMP JUMPDEST PUSH1 0x40 DUP13 ADD MSTORE PUSH1 0x60 DUP12 ADD MSTORE PUSH1 0x80 DUP11 ADD MSTORE PUSH1 0xA0 DUP10 ADD MSTORE PUSH1 0xC0 DUP9 ADD MSTORE PUSH2 0x778 DUP2 PUSH2 0x2C1C JUMP JUMPDEST PUSH1 0xE0 DUP8 ADD MSTORE PUSH2 0x786 DUP2 PUSH2 0x2C1C JUMP JUMPDEST PUSH2 0x100 DUP7 ADD MSTORE PUSH2 0x180 PUSH2 0x120 DUP7 ADD MSTORE PUSH2 0x180 DUP6 ADD SWAP1 PUSH2 0x2C76 JUMP JUMPDEST SWAP2 PUSH2 0x140 DUP5 ADD MSTORE PUSH2 0x160 DUP4 ADD MSTORE SUB SWAP1 RETURN JUMPDEST CALLVALUE PUSH2 0x25C JUMPI PUSH1 0x20 CALLDATASIZE PUSH1 0x3 NOT ADD SLT PUSH2 0x25C JUMPI PUSH1 0x4 CALLDATALOAD CALLER PUSH1 0x0 MSTORE PUSH1 0xB PUSH1 0x20 MSTORE PUSH2 0x7DF PUSH1 0xFF PUSH1 0x40 PUSH1 0x0 KECCAK256 SLOAD AND PUSH2 0x2F51 JUMP JUMPDEST DUP1 ISZERO ISZERO DUP1 PUSH2 0x891 JUMPI JUMPDEST PUSH2 0x7F1 SWAP1 PUSH2 0x2ED2 JUMP JUMPDEST DUP1 PUSH1 0x0 MSTORE PUSH1 0x6 PUSH1 0x20 MSTORE PUSH1 0x40 PUSH1 0x0 KECCAK256 PUSH1 0x3 PUSH1 0xFF PUSH1 0x6 DUP4 ADD SLOAD AND PUSH2 0x812 DUP2 PUSH2 0x2BFC JUMP JUMPDEST SUB PUSH2 0x84C JUMPI PUSH1 0x2 ADD SLOAD PUSH1 0x1 PUSH1 0x1 PUSH1 0xA0 SHL SUB AND SWAP1 PUSH32 0xD333905BC6384A6F4B921B01917E6EE525790CAE96DBDC5D4F60CB7EFB594244 PUSH1 0x0 DUP1 LOG3 STOP JUMPDEST PUSH1 0x40 MLOAD PUSH3 0x461BCD PUSH1 0xE5 SHL DUP2 MSTORE PUSH1 0x20 PUSH1 0x4 DUP3 ADD MSTORE PUSH1 0x1C PUSH1 0x24 DUP3 ADD MSTORE PUSH32 0x436C61696D206D7573742062652072656A656374656420666972737400000000 PUSH1 0x44 DUP3 ADD MSTORE PUSH1 0x64 SWAP1 REVERT JUMPDEST POP PUSH1 0x4 SLOAD DUP2 LT PUSH2 0x7E8 JUMP JUMPDEST CALLVALUE PUSH2 0x25C JUMPI PUSH1 0x40 CALLDATASIZE PUSH1 0x3 NOT ADD SLT PUSH2 0x25C JUMPI PUSH2 0x8B5 PUSH2 0x2C26 JUMP JUMPDEST PUSH1 0x1 PUSH1 0x1 PUSH1 0xA0 SHL SUB AND PUSH1 0x0 SWAP1 DUP2 MSTORE PUSH1 0x8 PUSH1 0x20 MSTORE PUSH1 0x40 SWAP1 KECCAK256 DUP1 SLOAD PUSH1 0x24 CALLDATALOAD SWAP2 SWAP1 DUP3 LT ISZERO PUSH2 0x25C JUMPI PUSH1 0x20 SWAP2 PUSH2 0x8E6 SWAP2 PUSH2 0x2CB7 JUMP JUMPDEST SWAP1 SLOAD SWAP1 PUSH1 0x3 SHL SHR PUSH1 0x40 MLOAD SWAP1 DUP2 MSTORE RETURN JUMPDEST CALLVALUE PUSH2 0x25C JUMPI PUSH1 0x20 CALLDATASIZE PUSH1 0x3 NOT ADD SLT PUSH2 0x25C JUMPI PUSH2 0x90E PUSH2 0x2C26 JUMP JUMPDEST PUSH1 0x0 PUSH1 0x60 PUSH1 0x40 MLOAD PUSH2 0x91E DUP2 PUSH2 0x2B67 JUMP JUMPDEST DUP3 DUP2 MSTORE DUP3 PUSH1 0x20 DUP3 ADD MSTORE DUP3 PUSH1 0x40 DUP3 ADD MSTORE ADD MSTORE PUSH1 0x1 DUP1 PUSH1 0xA0 SHL SUB AND PUSH1 0x0 MSTORE PUSH1 0x9 PUSH1 0x20 MSTORE PUSH1 0x80 PUSH1 0x40 PUSH1 0x0 KECCAK256 PUSH1 0x40 MLOAD PUSH2 0x952 DUP2 PUSH2 0x2B67 JUMP JUMPDEST DUP2 SLOAD SWAP2 DUP3 DUP3 MSTORE PUSH1 0x1 DUP2 ADD SLOAD PUSH1 0x20 DUP4 ADD SWAP1 DUP2 MSTORE PUSH1 0x60 PUSH1 0x3 PUSH1 0x2 DUP5 ADD SLOAD SWAP4 PUSH1 0x40 DUP7 ADD SWAP5 DUP6 MSTORE ADD SLOAD SWAP4 ADD SWAP3 DUP4 MSTORE PUSH1 0x40 MLOAD SWAP4 DUP5 MSTORE MLOAD PUSH1 0x20 DUP5 ADD MSTORE MLOAD PUSH1 0x40 DUP4 ADD MSTORE MLOAD PUSH1 0x60 DUP3 ADD MSTORE RETURN JUMPDEST CALLVALUE PUSH2 0x25C JUMPI PUSH1 0x0 CALLDATASIZE PUSH1 0x3 NOT ADD SLT PUSH2 0x25C JUMPI PUSH1 0x20 PUSH2 0x3DE PUSH2 0x2FE8 JUMP JUMPDEST CALLVALUE PUSH2 0x25C JUMPI PUSH1 0x20 CALLDATASIZE PUSH1 0x3 NOT ADD SLT PUSH2 0x25C JUMPI PUSH1 0x4 CALLDATALOAD PUSH1 0x0 MSTORE PUSH1 0x6 PUSH1 0x20 MSTORE PUSH1 0x20 PUSH1 0x40 PUSH1 0x0 KECCAK256 DUP1 SLOAD SWAP1 PUSH1 0x1 DUP2 ADD SLOAD PUSH1 0x1 DUP1 PUSH1 0xA0 SHL SUB PUSH1 0x2 DUP4 ADD SLOAD AND SWAP2 PUSH2 0xA8C PUSH1 0x3 DUP3 ADD SLOAD PUSH2 0xA7D PUSH1 0x4 DUP5 ADD SLOAD PUSH1 0x5 DUP6 ADD SLOAD PUSH1 0xFF PUSH1 0x6 DUP8 ADD SLOAD AND SWAP1 PUSH2 0xA14 PUSH1 0x7 DUP9 ADD PUSH2 0x2D1F JUMP JUMPDEST SWAP3 PUSH2 0xA21 PUSH1 0x8 DUP10 ADD PUSH2 0x2D1F JUMP JUMPDEST SWAP6 PUSH1 0x9 DUP10 ADD SLOAD SWAP11 PUSH1 0xA DUP11 ADD SLOAD SWAP10 PUSH1 0xB PUSH1 0x1 DUP1 PUSH1 0xA0 SHL SUB SWAP2 ADD SLOAD AND SWAP11 PUSH1 0x40 MLOAD SWAP15 DUP16 SWAP15 DUP16 SWAP1 DUP2 MSTORE ADD MSTORE PUSH1 0x40 DUP14 ADD MSTORE PUSH1 0x60 DUP13 ADD MSTORE PUSH1 0x80 DUP12 ADD MSTORE PUSH1 0xA0 DUP11 ADD MSTORE PUSH2 0xA65 DUP2 PUSH2 0x2BFC JUMP JUMPDEST PUSH1 0xC0 DUP10 ADD MSTORE PUSH2 0x180 PUSH1 0xE0 DUP10 ADD MSTORE PUSH2 0x180 DUP9 ADD SWAP1 PUSH2 0x2C76 JUMP JUMPDEST SWAP1 DUP7 DUP3 SUB PUSH2 0x100 DUP9 ADD MSTORE PUSH2 0x2C76 JUMP JUMPDEST SWAP3 PUSH2 0x120 DUP6 ADD MSTORE PUSH2 0x140 DUP5 ADD MSTORE PUSH2 0x160 DUP4 ADD MSTORE SUB SWAP1 RETURN JUMPDEST CALLVALUE PUSH2 0x25C JUMPI PUSH1 0x80 CALLDATASIZE PUSH1 0x3 NOT ADD SLT PUSH2 0x25C JUMPI PUSH1 0x4 CALLDATALOAD PUSH1 0x5 DUP2 LT ISZERO PUSH2 0x25C JUMPI PUSH1 0x64 CALLDATALOAD SWAP1 PUSH1 0x4 DUP3 LT ISZERO PUSH2 0x25C JUMPI PUSH1 0x20 SWAP2 PUSH2 0x3DE SWAP2 PUSH1 0x44 CALLDATALOAD SWAP1 PUSH1 0x24 CALLDATALOAD SWAP1 PUSH2 0x2F9D JUMP JUMPDEST PUSH1 0xA0 CALLDATASIZE PUSH1 0x3 NOT ADD SLT PUSH2 0x25C JUMPI PUSH1 0x4 CALLDATALOAD PUSH1 0x5 DUP2 LT ISZERO PUSH2 0x25C JUMPI PUSH1 0x24 CALLDATALOAD PUSH1 0x44 CALLDATALOAD SWAP2 PUSH1 0x64 CALLDATALOAD SWAP2 PUSH1 0x4 DUP4 LT ISZERO PUSH2 0x25C JUMPI PUSH1 0x84 CALLDATALOAD PUSH8 0xFFFFFFFFFFFFFFFF DUP2 GT PUSH2 0x25C JUMPI PUSH2 0xB2D SWAP1 CALLDATASIZE SWAP1 PUSH1 0x4 ADD PUSH2 0x2BA5 JUMP JUMPDEST SWAP3 PUSH2 0xB36 PUSH2 0x30B9 JUMP JUMPDEST PUSH2 0xB3E PUSH2 0x314A JUMP JUMPDEST DUP2 ISZERO PUSH2 0x10B2 JUMPI PUSH3 0x278D00 DUP6 LT PUSH2 0x106D JUMPI PUSH4 0x1E13380 DUP6 GT PUSH2 0x1028 JUMPI PUSH2 0xB62 DUP4 PUSH2 0x2BFC JUMP JUMPDEST DUP3 PUSH1 0x0 MSTORE PUSH1 0xA PUSH1 0x20 MSTORE PUSH1 0xFF PUSH1 0x4 PUSH1 0x40 PUSH1 0x0 KECCAK256 ADD SLOAD AND ISZERO PUSH2 0xFE3 JUMPI PUSH2 0xB88 DUP2 DUP7 DUP5 DUP7 PUSH2 0x2F9D JUMP JUMPDEST SWAP5 DUP6 CALLVALUE LT PUSH2 0xF9E JUMPI PUSH2 0xB99 DUP5 PUSH2 0x2BFC JUMP JUMPDEST DUP4 PUSH1 0x0 MSTORE PUSH1 0xA PUSH1 0x20 MSTORE PUSH1 0x2 PUSH1 0x40 PUSH1 0x0 KECCAK256 ADD SLOAD PUSH1 0x50 DUP2 MUL SWAP1 DUP1 DUP3 DIV PUSH1 0x50 EQ SWAP1 ISZERO OR ISZERO PUSH2 0xF88 JUMPI PUSH1 0x64 SWAP1 DIV DUP4 GT PUSH2 0xF43 JUMPI PUSH2 0xBE4 SWAP5 PUSH1 0x3 SLOAD SWAP6 DUP7 SWAP3 PUSH2 0xBDB DUP5 PUSH2 0x2DC3 JUMP JUMPDEST PUSH1 0x3 SSTORE TIMESTAMP PUSH2 0x2DD2 JUMP JUMPDEST SWAP1 PUSH1 0x40 MLOAD SWAP4 PUSH2 0xBF2 DUP6 PUSH2 0x2B2E JUMP JUMPDEST DUP4 DUP6 MSTORE PUSH1 0x20 DUP6 ADD SWAP1 CALLER DUP3 MSTORE PUSH1 0x40 DUP7 ADD SWAP4 PUSH2 0xC0B DUP10 PUSH2 0x2BFC JUMP JUMPDEST DUP9 DUP6 MSTORE PUSH1 0x60 DUP8 ADD DUP9 DUP2 MSTORE PUSH1 0x80 DUP9 ADD DUP13 DUP2 MSTORE PUSH1 0xA0 DUP10 ADD SWAP2 TIMESTAMP DUP4 MSTORE PUSH1 0xC0 DUP11 ADD SWAP4 DUP5 MSTORE PUSH1 0xE0 DUP11 ADD SWAP6 PUSH1 0x0 DUP8 MSTORE PUSH2 0x100 DUP12 ADD SWAP6 PUSH2 0xC43 DUP2 PUSH2 0x2C1C JUMP JUMPDEST DUP7 MSTORE PUSH2 0x120 DUP12 ADD SWAP8 DUP9 MSTORE PUSH1 0x0 PUSH2 0x140 DUP13 ADD DUP2 DUP2 MSTORE PUSH2 0x160 DUP14 ADD DUP3 DUP2 MSTORE SWAP12 DUP3 MSTORE PUSH1 0x5 PUSH1 0x20 MSTORE PUSH1 0x40 SWAP1 SWAP2 KECCAK256 SWAP12 MLOAD DUP13 SSTORE SWAP1 MLOAD PUSH1 0x1 DUP13 ADD DUP1 SLOAD PUSH1 0x1 PUSH1 0x1 PUSH1 0xA0 SHL SUB NOT AND PUSH1 0x1 PUSH1 0x1 PUSH1 0xA0 SHL SUB SWAP3 SWAP1 SWAP3 AND SWAP2 SWAP1 SWAP2 OR DUP2 SSTORE SWAP9 MLOAD SWAP1 SWAP9 SWAP1 PUSH2 0xCA2 DUP2 PUSH2 0x2BFC JUMP JUMPDEST PUSH2 0xCAB DUP2 PUSH2 0x2BFC JUMP JUMPDEST DUP2 SLOAD PUSH1 0xFF PUSH1 0xA0 SHL NOT AND PUSH1 0xA0 SWAP2 SWAP1 SWAP2 SHL PUSH1 0xFF PUSH1 0xA0 SHL AND OR SWAP1 SSTORE MLOAD PUSH1 0x2 DUP11 ADD SSTORE MLOAD PUSH1 0x3 DUP10 ADD SSTORE MLOAD PUSH1 0x4 DUP9 ADD SSTORE MLOAD PUSH1 0x5 DUP8 ADD SSTORE SWAP1 MLOAD PUSH1 0x6 DUP7 ADD SWAP2 PUSH2 0xCEB DUP3 PUSH2 0x2C1C JUMP JUMPDEST PUSH2 0xCF4 DUP3 PUSH2 0x2C1C JUMP JUMPDEST PUSH1 0xFF PUSH2 0xFF00 DUP5 SLOAD SWAP3 MLOAD PUSH2 0xD06 DUP2 PUSH2 0x2C1C JUMP JUMPDEST PUSH2 0xD0F DUP2 PUSH2 0x2C1C JUMP JUMPDEST PUSH1 0x8 SHL AND SWAP3 AND SWAP1 PUSH2 0xFFFF NOT AND OR OR SWAP1 SSTORE PUSH1 0x7 DUP5 ADD SWAP1 MLOAD DUP1 MLOAD SWAP1 PUSH8 0xFFFFFFFFFFFFFFFF DUP3 GT PUSH2 0xF2D JUMPI PUSH2 0xD41 DUP4 SLOAD PUSH2 0x2CE5 JUMP JUMPDEST PUSH1 0x1F DUP2 GT PUSH2 0xEE5 JUMPI JUMPDEST POP PUSH1 0x20 SWAP1 PUSH1 0x1F DUP4 GT PUSH1 0x1 EQ PUSH2 0xE79 JUMPI PUSH1 0x9 SWAP6 SWAP5 SWAP4 SWAP3 SWAP2 PUSH1 0x0 SWAP2 DUP4 PUSH2 0xE6E JUMPI JUMPDEST POP POP DUP2 PUSH1 0x1 SHL SWAP2 PUSH1 0x0 NOT SWAP1 PUSH1 0x3 SHL SHR NOT AND OR SWAP1 SSTORE JUMPDEST MLOAD PUSH1 0x8 DUP5 ADD SSTORE MLOAD SWAP2 ADD SSTORE CALLER PUSH1 0x0 MSTORE PUSH1 0x7 PUSH1 0x20 MSTORE PUSH2 0xD9F DUP4 PUSH1 0x40 PUSH1 0x0 KECCAK256 PUSH2 0x2DDF JUMP JUMPDEST PUSH2 0xDA8 DUP3 PUSH2 0x2BFC JUMP JUMPDEST DUP2 PUSH1 0x0 MSTORE PUSH1 0xA PUSH1 0x20 MSTORE PUSH1 0x2 PUSH1 0x40 PUSH1 0x0 KECCAK256 ADD PUSH2 0xDC4 DUP6 DUP3 SLOAD PUSH2 0x2DD2 JUMP JUMPDEST SWAP1 SSTORE DUP4 CALLVALUE GT PUSH2 0xE3B JUMPI JUMPDEST PUSH1 0x40 MLOAD SWAP2 PUSH2 0xDDB DUP2 PUSH2 0x2BFC JUMP JUMPDEST DUP3 MSTORE PUSH1 0x20 DUP3 ADD MSTORE DUP2 PUSH32 0x78E2EE02E1DD0CF71B75C6D5463946E0D324CA4B79FBD0B7E59CEFFCF24654C1 PUSH1 0x40 CALLER SWAP4 LOG3 PUSH1 0x40 MLOAD SWAP2 DUP3 MSTORE PUSH32 0xFBF1458FBBDDABB878DE144276216E8CCDA619CBAC2D598E6EE37FF72173AFB1 PUSH1 0x20 CALLER SWAP4 LOG3 PUSH1 0x1 DUP1 SSTORE STOP JUMPDEST PUSH1 0x0 DUP1 DUP1 DUP1 PUSH2 0xE4A DUP9 CALLVALUE PUSH2 0x2E19 JUMP JUMPDEST DUP2 DUP2 ISZERO PUSH2 0xE65 JUMPI JUMPDEST CALLER SWAP1 CALL PUSH2 0xDCE JUMPI PUSH1 0x40 MLOAD RETURNDATASIZE PUSH1 0x0 DUP3 RETURNDATACOPY RETURNDATASIZE SWAP1 REVERT JUMPDEST POP PUSH2 0x8FC PUSH2 0xE52 JUMP JUMPDEST ADD MLOAD SWAP1 POP DUP12 DUP1 PUSH2 0xD69 JUMP JUMPDEST SWAP1 PUSH1 0x1F NOT DUP4 AND SWAP2 DUP5 PUSH1 0x0 MSTORE DUP2 PUSH1 0x0 KECCAK256 SWAP3 PUSH1 0x0 JUMPDEST DUP2 DUP2 LT PUSH2 0xECD JUMPI POP SWAP2 PUSH1 0x1 SWAP4 SWAP2 DUP6 PUSH1 0x9 SWAP10 SWAP9 SWAP8 SWAP7 SWAP5 LT PUSH2 0xEB4 JUMPI JUMPDEST POP POP POP DUP2 SHL ADD SWAP1 SSTORE PUSH2 0xD7E JUMP JUMPDEST ADD MLOAD PUSH1 0x0 NOT PUSH1 0xF8 DUP5 PUSH1 0x3 SHL AND SHR NOT AND SWAP1 SSTORE DUP12 DUP1 DUP1 PUSH2 0xEA7 JUMP JUMPDEST SWAP3 SWAP4 PUSH1 0x20 PUSH1 0x1 DUP2 SWAP3 DUP8 DUP7 ADD MLOAD DUP2 SSTORE ADD SWAP6 ADD SWAP4 ADD PUSH2 0xE8C JUMP JUMPDEST DUP4 PUSH1 0x0 MSTORE PUSH1 0x20 PUSH1 0x0 KECCAK256 PUSH1 0x1F DUP5 ADD PUSH1 0x5 SHR DUP2 ADD SWAP2 PUSH1 0x20 DUP6 LT PUSH2 0xF23 JUMPI JUMPDEST PUSH1 0x1F ADD PUSH1 0x5 SHR ADD SWAP1 JUMPDEST DUP2 DUP2 LT PUSH2 0xF17 JUMPI POP PUSH2 0xD4A JUMP JUMPDEST PUSH1 0x0 DUP2 SSTORE PUSH1 0x1 ADD PUSH2 0xF0A JUMP JUMPDEST SWAP1 SWAP2 POP DUP2 SWAP1 PUSH2 0xF01 JUMP JUMPDEST PUSH4 0x4E487B71 PUSH1 0xE0 SHL PUSH1 0x0 MSTORE PUSH1 0x41 PUSH1 0x4 MSTORE PUSH1 0x24 PUSH1 0x0 REVERT JUMPDEST PUSH1 0x40 MLOAD PUSH3 0x461BCD PUSH1 0xE5 SHL DUP2 MSTORE PUSH1 0x20 PUSH1 0x4 DUP3 ADD MSTORE PUSH1 0x1E PUSH1 0x24 DUP3 ADD MSTORE PUSH32 0x436F766572616765206578636565647320706F6F6C2063617061636974790000 PUSH1 0x44 DUP3 ADD MSTORE PUSH1 0x64 SWAP1 REVERT JUMPDEST PUSH4 0x4E487B71 PUSH1 0xE0 SHL PUSH1 0x0 MSTORE PUSH1 0x11 PUSH1 0x4 MSTORE PUSH1 0x24 PUSH1 0x0 REVERT JUMPDEST PUSH1 0x40 MLOAD PUSH3 0x461BCD PUSH1 0xE5 SHL DUP2 MSTORE PUSH1 0x20 PUSH1 0x4 DUP3 ADD MSTORE PUSH1 0x1C PUSH1 0x24 DUP3 ADD MSTORE PUSH32 0x496E73756666696369656E74207072656D69756D207061796D656E7400000000 PUSH1 0x44 DUP3 ADD MSTORE PUSH1 0x64 SWAP1 REVERT JUMPDEST PUSH1 0x40 MLOAD PUSH3 0x461BCD PUSH1 0xE5 SHL DUP2 MSTORE PUSH1 0x20 PUSH1 0x4 DUP3 ADD MSTORE PUSH1 0x19 PUSH1 0x24 DUP3 ADD MSTORE PUSH32 0x496E737572616E63652074797065206E6F742061637469766500000000000000 PUSH1 0x44 DUP3 ADD MSTORE PUSH1 0x64 SWAP1 REVERT JUMPDEST PUSH1 0x40 MLOAD PUSH3 0x461BCD PUSH1 0xE5 SHL DUP2 MSTORE PUSH1 0x20 PUSH1 0x4 DUP3 ADD MSTORE PUSH1 0x1C PUSH1 0x24 DUP3 ADD MSTORE PUSH32 0x4D6178696D756D206475726174696F6E20697320333635206461797300000000 PUSH1 0x44 DUP3 ADD MSTORE PUSH1 0x64 SWAP1 REVERT JUMPDEST PUSH1 0x40 MLOAD PUSH3 0x461BCD PUSH1 0xE5 SHL DUP2 MSTORE PUSH1 0x20 PUSH1 0x4 DUP3 ADD MSTORE PUSH1 0x1B PUSH1 0x24 DUP3 ADD MSTORE PUSH32 0x4D696E696D756D206475726174696F6E20697320333020646179730000000000 PUSH1 0x44 DUP3 ADD MSTORE PUSH1 0x64 SWAP1 REVERT JUMPDEST PUSH1 0x64 PUSH1 0x40 MLOAD PUSH3 0x461BCD PUSH1 0xE5 SHL DUP2 MSTORE PUSH1 0x20 PUSH1 0x4 DUP3 ADD MSTORE PUSH1 0x20 PUSH1 0x24 DUP3 ADD MSTORE PUSH32 0x436F76657261676520616D6F756E74206D75737420626520706F736974697665 PUSH1 0x44 DUP3 ADD MSTORE REVERT JUMPDEST CALLVALUE PUSH2 0x25C JUMPI PUSH1 0x0 CALLDATASIZE PUSH1 0x3 NOT ADD SLT PUSH2 0x25C JUMPI PUSH1 0x0 SLOAD PUSH1 0x40 MLOAD PUSH1 0x1 PUSH1 0x1 PUSH1 0xA0 SHL SUB SWAP1 SWAP2 AND DUP2 MSTORE PUSH1 0x20 SWAP1 RETURN JUMPDEST CALLVALUE PUSH2 0x25C JUMPI PUSH1 0x80 CALLDATASIZE PUSH1 0x3 NOT ADD SLT PUSH2 0x25C JUMPI PUSH1 0x24 CALLDATALOAD PUSH1 0x4 CALLDATALOAD PUSH1 0x5 DUP3 LT ISZERO PUSH2 0x25C JUMPI PUSH1 0x44 CALLDATALOAD PUSH1 0x64 CALLDATALOAD PUSH8 0xFFFFFFFFFFFFFFFF DUP2 GT PUSH2 0x25C JUMPI PUSH2 0x1162 SWAP1 CALLDATASIZE SWAP1 PUSH1 0x4 ADD PUSH2 0x2BA5 JUMP JUMPDEST CALLER PUSH1 0x0 MSTORE PUSH1 0xB PUSH1 0x20 MSTORE PUSH2 0x117C PUSH1 0xFF PUSH1 0x40 PUSH1 0x0 KECCAK256 SLOAD AND PUSH2 0x2F51 JUMP JUMPDEST DUP3 ISZERO ISZERO DUP1 PUSH2 0x14B0 JUMPI JUMPDEST PUSH2 0x118E SWAP1 PUSH2 0x2ED2 JUMP JUMPDEST DUP3 PUSH1 0x0 MSTORE PUSH1 0x6 PUSH1 0x20 MSTORE PUSH1 0x40 PUSH1 0x0 KECCAK256 SWAP1 PUSH1 0x6 DUP3 ADD SWAP1 PUSH2 0x11B9 PUSH1 0xFF DUP4 SLOAD AND PUSH2 0x11B3 DUP2 PUSH2 0x2BFC JUMP JUMPDEST ISZERO PUSH2 0x2F11 JUMP JUMPDEST PUSH1 0x5 DUP4 ADD SLOAD TIMESTAMP GT PUSH2 0x146B JUMPI PUSH2 0x11CD DUP7 PUSH2 0x2BFC JUMP JUMPDEST PUSH1 0x2 DUP7 EQ DUP1 DUP1 ISZERO PUSH2 0x1458 JUMPI JUMPDEST ISZERO PUSH2 0x1420 JUMPI PUSH2 0x11E7 DUP8 PUSH2 0x2BFC JUMP JUMPDEST ISZERO PUSH2 0x12A9 JUMPI POP DUP3 ISZERO ISZERO DUP1 PUSH2 0x129B JUMPI JUMPDEST ISZERO PUSH2 0x1256 JUMPI PUSH1 0xB SWAP3 PUSH1 0x9 DUP4 ADD SSTORE PUSH1 0x2 PUSH1 0xFF NOT DUP3 SLOAD AND OR SWAP1 SSTORE JUMPDEST ADD DUP1 SLOAD PUSH1 0x1 PUSH1 0x1 PUSH1 0xA0 SHL SUB NOT AND CALLER OR SWAP1 SSTORE PUSH1 0x40 MLOAD SWAP2 PUSH2 0x122D DUP2 PUSH2 0x2BFC JUMP JUMPDEST DUP3 MSTORE PUSH31 0x798EECABD6C187FCAA9108DE48CF1A34F2D65B6EEAD4797EDCD67FB73EE6C1 PUSH1 0x20 CALLER SWAP4 LOG3 STOP JUMPDEST PUSH1 0x40 MLOAD PUSH3 0x461BCD PUSH1 0xE5 SHL DUP2 MSTORE PUSH1 0x20 PUSH1 0x4 DUP3 ADD MSTORE PUSH1 0x17 PUSH1 0x24 DUP3 ADD MSTORE PUSH32 0x496E76616C696420617070726F76656420616D6F756E74000000000000000000 PUSH1 0x44 DUP3 ADD MSTORE PUSH1 0x64 SWAP1 REVERT JUMPDEST POP PUSH1 0x3 DUP3 ADD SLOAD DUP4 GT ISZERO PUSH2 0x11F6 JUMP JUMPDEST DUP1 SWAP6 SWAP5 SWAP4 POP MLOAD ISZERO PUSH2 0x13DB JUMPI PUSH1 0x8 DUP3 ADD DUP6 MLOAD PUSH8 0xFFFFFFFFFFFFFFFF DUP2 GT PUSH2 0xF2D JUMPI PUSH2 0x12D3 DUP3 SLOAD PUSH2 0x2CE5 JUMP JUMPDEST PUSH1 0x1F DUP2 GT PUSH2 0x1393 JUMPI JUMPDEST POP PUSH1 0x20 PUSH1 0x1F DUP3 GT PUSH1 0x1 EQ PUSH2 0x1329 JUMPI DUP2 SWAP1 PUSH1 0xB SWAP7 SWAP8 SWAP9 PUSH1 0x0 SWAP3 PUSH2 0x131E JUMPI JUMPDEST POP POP DUP2 PUSH1 0x1 SHL SWAP2 PUSH1 0x0 NOT SWAP1 PUSH1 0x3 SHL SHR NOT AND OR SWAP1 SSTORE JUMPDEST DUP1 SLOAD PUSH1 0xFF NOT AND PUSH1 0x3 OR SWAP1 SSTORE PUSH2 0x120F JUMP JUMPDEST ADD MLOAD SWAP1 POP DUP9 DUP1 PUSH2 0x12F9 JUMP JUMPDEST PUSH1 0x1F NOT DUP3 AND SWAP8 DUP4 PUSH1 0x0 MSTORE DUP2 PUSH1 0x0 KECCAK256 SWAP9 PUSH1 0x0 JUMPDEST DUP2 DUP2 LT PUSH2 0x137B JUMPI POP SWAP2 PUSH1 0xB SWAP8 SWAP9 SWAP10 SWAP2 DUP5 PUSH1 0x1 SWAP6 SWAP5 LT PUSH2 0x1362 JUMPI JUMPDEST POP POP POP DUP2 SHL ADD SWAP1 SSTORE PUSH2 0x130E JUMP JUMPDEST ADD MLOAD PUSH1 0x0 NOT PUSH1 0xF8 DUP5 PUSH1 0x3 SHL AND SHR NOT AND SWAP1 SSTORE DUP9 DUP1 DUP1 PUSH2 0x1355 JUMP JUMPDEST DUP4 DUP4 ADD MLOAD DUP12 SSTORE PUSH1 0x1 SWAP1 SWAP11 ADD SWAP10 PUSH1 0x20 SWAP4 DUP5 ADD SWAP4 ADD PUSH2 0x133B JUMP JUMPDEST DUP3 PUSH1 0x0 MSTORE PUSH1 0x20 PUSH1 0x0 KECCAK256 PUSH1 0x1F DUP4 ADD PUSH1 0x5 SHR DUP2 ADD SWAP2 PUSH1 0x20 DUP5 LT PUSH2 0x13D1 JUMPI JUMPDEST PUSH1 0x1F ADD PUSH1 0x5 SHR ADD SWAP1 JUMPDEST DUP2 DUP2 LT PUSH2 0x13C5 JUMPI POP PUSH2 0x12DC JUMP JUMPDEST PUSH1 0x0 DUP2 SSTORE PUSH1 0x1 ADD PUSH2 0x13B8 JUMP JUMPDEST SWAP1 SWAP2 POP DUP2 SWAP1 PUSH2 0x13AF JUMP JUMPDEST PUSH1 0x40 MLOAD PUSH3 0x461BCD PUSH1 0xE5 SHL DUP2 MSTORE PUSH1 0x20 PUSH1 0x4 DUP3 ADD MSTORE PUSH1 0x19 PUSH1 0x24 DUP3 ADD MSTORE PUSH32 0x52656A656374696F6E20726561736F6E20726571756972656400000000000000 PUSH1 0x44 DUP3 ADD MSTORE PUSH1 0x64 SWAP1 REVERT JUMPDEST PUSH1 0x40 MLOAD PUSH3 0x461BCD PUSH1 0xE5 SHL DUP2 MSTORE PUSH1 0x20 PUSH1 0x4 DUP3 ADD MSTORE PUSH1 0x10 PUSH1 0x24 DUP3 ADD MSTORE PUSH16 0x24B73B30B634B2103232B1B4B9B4B7B7 PUSH1 0x81 SHL PUSH1 0x44 DUP3 ADD MSTORE PUSH1 0x64 SWAP1 REVERT JUMPDEST POP PUSH2 0x1462 DUP8 PUSH2 0x2BFC JUMP JUMPDEST PUSH1 0x3 DUP8 EQ PUSH2 0x11D9 JUMP JUMPDEST PUSH1 0x40 MLOAD PUSH3 0x461BCD PUSH1 0xE5 SHL DUP2 MSTORE PUSH1 0x20 PUSH1 0x4 DUP3 ADD MSTORE PUSH1 0x1C PUSH1 0x24 DUP3 ADD MSTORE PUSH32 0x496E7665737469676174696F6E20706572696F64206578706972656400000000 PUSH1 0x44 DUP3 ADD MSTORE PUSH1 0x64 SWAP1 REVERT JUMPDEST POP PUSH1 0x4 SLOAD DUP4 LT PUSH2 0x1185 JUMP JUMPDEST CALLVALUE PUSH2 0x25C JUMPI PUSH1 0x0 CALLDATASIZE PUSH1 0x3 NOT ADD SLT PUSH2 0x25C JUMPI PUSH2 0x14D4 PUSH2 0x3167 JUMP JUMPDEST PUSH2 0x14DC PUSH2 0x314A JUMP JUMPDEST PUSH1 0x1 PUSH1 0xFF NOT PUSH1 0x2 SLOAD AND OR PUSH1 0x2 SSTORE PUSH32 0x62E78CEA01BEE320CD4E420270B5EA74000D11B0C9F74754EBDBFC544B05A258 PUSH1 0x20 PUSH1 0x40 MLOAD CALLER DUP2 MSTORE LOG1 STOP JUMPDEST CALLVALUE PUSH2 0x25C JUMPI PUSH1 0x0 CALLDATASIZE PUSH1 0x3 NOT ADD SLT PUSH2 0x25C JUMPI PUSH1 0x20 PUSH1 0x40 MLOAD PUSH1 0x50 DUP2 MSTORE RETURN JUMPDEST CALLVALUE PUSH2 0x25C JUMPI PUSH1 0x40 CALLDATASIZE PUSH1 0x3 NOT ADD SLT PUSH2 0x25C JUMPI PUSH1 0x4 CALLDATALOAD PUSH1 0x24 CALLDATALOAD CALLER PUSH1 0x0 MSTORE PUSH1 0xC PUSH1 0x20 MSTORE PUSH1 0xFF PUSH1 0x40 PUSH1 0x0 KECCAK256 SLOAD AND ISZERO PUSH2 0x169F JUMPI DUP2 ISZERO ISZERO DUP1 PUSH2 0x1694 JUMPI JUMPDEST PUSH2 0x1571 SWAP1 PUSH2 0x2ED2 JUMP JUMPDEST DUP2 PUSH1 0x0 MSTORE PUSH1 0x6 PUSH1 0x20 MSTORE PUSH1 0x40 PUSH1 0x0 KECCAK256 PUSH1 0x6 DUP2 ADD SWAP2 DUP3 SLOAD SWAP3 PUSH2 0x1597 PUSH1 0xFF DUP6 AND PUSH2 0x11B3 DUP2 PUSH2 0x2BFC JUMP JUMPDEST PUSH1 0x3 DUP4 ADD SLOAD DUP3 GT PUSH2 0x164F JUMPI PUSH9 0x3635C9ADC5DEA00000 DUP3 GT PUSH2 0x160A JUMPI PUSH1 0xFF NOT SWAP1 SWAP4 AND PUSH1 0x2 SWAP1 DUP2 OR SWAP1 SWAP4 SSTORE PUSH1 0x9 DUP3 ADD SSTORE PUSH1 0xB ADD DUP1 SLOAD PUSH1 0x1 PUSH1 0x1 PUSH1 0xA0 SHL SUB NOT AND CALLER SWAP1 DUP2 OR SWAP1 SWAP2 SSTORE PUSH1 0x40 MLOAD SWAP2 DUP3 MSTORE SWAP2 SWAP1 PUSH31 0x798EECABD6C187FCAA9108DE48CF1A34F2D65B6EEAD4797EDCD67FB73EE6C1 SWAP1 PUSH1 0x20 SWAP1 LOG3 STOP JUMPDEST PUSH1 0x40 MLOAD PUSH3 0x461BCD PUSH1 0xE5 SHL DUP2 MSTORE PUSH1 0x20 PUSH1 0x4 DUP3 ADD MSTORE PUSH1 0x1E PUSH1 0x24 DUP3 ADD MSTORE PUSH32 0x4F7261636C6520617070726F76616C206C696D69742065786365656465640000 PUSH1 0x44 DUP3 ADD MSTORE PUSH1 0x64 SWAP1 REVERT JUMPDEST PUSH1 0x40 MLOAD PUSH3 0x461BCD PUSH1 0xE5 SHL DUP2 MSTORE PUSH1 0x20 PUSH1 0x4 DUP3 ADD MSTORE PUSH1 0x1D PUSH1 0x24 DUP3 ADD MSTORE PUSH32 0x417070726F76656420616D6F756E74206578636565647320636C61696D000000 PUSH1 0x44 DUP3 ADD MSTORE PUSH1 0x64 SWAP1 REVERT JUMPDEST POP PUSH1 0x4 SLOAD DUP3 LT PUSH2 0x1568 JUMP JUMPDEST PUSH1 0x40 MLOAD PUSH3 0x461BCD PUSH1 0xE5 SHL DUP2 MSTORE PUSH1 0x20 PUSH1 0x4 DUP3 ADD MSTORE PUSH1 0x15 PUSH1 0x24 DUP3 ADD MSTORE PUSH21 0x4E6F7420617574686F72697A6564206F7261636C65 PUSH1 0x58 SHL PUSH1 0x44 DUP3 ADD MSTORE PUSH1 0x64 SWAP1 REVERT JUMPDEST CALLVALUE PUSH2 0x25C JUMPI PUSH1 0x20 CALLDATASIZE PUSH1 0x3 NOT ADD SLT PUSH2 0x25C JUMPI PUSH1 0x1 PUSH1 0x1 PUSH1 0xA0 SHL SUB PUSH2 0x16FD PUSH2 0x2C26 JUMP JUMPDEST AND PUSH1 0x0 MSTORE PUSH1 0x8 PUSH1 0x20 MSTORE PUSH1 0x40 PUSH1 0x0 KECCAK256 PUSH1 0x40 MLOAD SWAP1 DUP2 PUSH1 0x20 DUP3 SLOAD SWAP2 DUP3 DUP2 MSTORE ADD SWAP2 PUSH1 0x0 MSTORE PUSH1 0x20 PUSH1 0x0 KECCAK256 SWAP1 PUSH1 0x0 JUMPDEST DUP2 DUP2 LT PUSH2 0x174D JUMPI PUSH2 0x1749 DUP6 PUSH2 0x173D DUP2 DUP8 SUB DUP3 PUSH2 0x2B83 JUMP JUMPDEST PUSH1 0x40 MLOAD SWAP2 DUP3 SWAP2 DUP3 PUSH2 0x2C3C JUMP JUMPDEST SUB SWAP1 RETURN JUMPDEST DUP3 SLOAD DUP5 MSTORE PUSH1 0x20 SWAP1 SWAP4 ADD SWAP3 PUSH1 0x1 SWAP3 DUP4 ADD SWAP3 ADD PUSH2 0x1726 JUMP JUMPDEST CALLVALUE PUSH2 0x25C JUMPI PUSH1 0x60 CALLDATASIZE PUSH1 0x3 NOT ADD SLT PUSH2 0x25C JUMPI PUSH1 0x4 CALLDATALOAD PUSH1 0x5 DUP2 LT ISZERO PUSH2 0x25C JUMPI PUSH1 0x24 CALLDATALOAD PUSH1 0x4 DUP2 LT ISZERO PUSH2 0x25C JUMPI PUSH1 0x44 CALLDATALOAD SWAP2 PUSH2 0x1798 PUSH2 0x3167 JUMP JUMPDEST PUSH2 0x1388 DUP4 GT PUSH2 0x17D2 JUMPI PUSH2 0x17AA DUP2 PUSH2 0x2BFC JUMP JUMPDEST PUSH1 0x0 MSTORE PUSH1 0xD PUSH1 0x20 MSTORE PUSH1 0x40 PUSH1 0x0 KECCAK256 SWAP1 PUSH2 0x17C1 DUP2 PUSH2 0x2C1C JUMP JUMPDEST PUSH1 0x0 MSTORE PUSH1 0x20 MSTORE PUSH1 0x40 PUSH1 0x0 KECCAK256 SSTORE PUSH1 0x0 DUP1 RETURN JUMPDEST PUSH1 0x40 MLOAD PUSH3 0x461BCD PUSH1 0xE5 SHL DUP2 MSTORE PUSH1 0x20 PUSH1 0x4 DUP3 ADD MSTORE PUSH1 0x16 PUSH1 0x24 DUP3 ADD MSTORE PUSH22 0x526174652063616E6E6F742065786365656420353025 PUSH1 0x50 SHL PUSH1 0x44 DUP3 ADD MSTORE PUSH1 0x64 SWAP1 REVERT JUMPDEST CALLVALUE PUSH2 0x25C JUMPI PUSH1 0x20 CALLDATASIZE PUSH1 0x3 NOT ADD SLT PUSH2 0x25C JUMPI PUSH1 0x4 CALLDATALOAD PUSH1 0x5 DUP2 LT ISZERO PUSH2 0x25C JUMPI PUSH1 0x0 PUSH1 0x80 PUSH1 0x40 MLOAD PUSH2 0x183D DUP2 PUSH2 0x2B4B JUMP JUMPDEST DUP3 DUP2 MSTORE DUP3 PUSH1 0x20 DUP3 ADD MSTORE DUP3 PUSH1 0x40 DUP3 ADD MSTORE DUP3 PUSH1 0x60 DUP3 ADD MSTORE ADD MSTORE PUSH2 0x185D DUP2 PUSH2 0x2BFC JUMP JUMPDEST PUSH1 0x0 MSTORE PUSH1 0xA PUSH1 0x20 MSTORE PUSH1 0xA0 PUSH1 0x40 PUSH1 0x0 KECCAK256 PUSH1 0x40 MLOAD PUSH2 0x1878 DUP2 PUSH2 0x2B4B JUMP JUMPDEST DUP2 SLOAD SWAP2 DUP3 DUP3 MSTORE PUSH1 0x1 DUP2 ADD SLOAD PUSH1 0x20 DUP4 ADD SWAP1 DUP2 MSTORE PUSH1 0x2 DUP3 ADD SLOAD SWAP1 PUSH1 0x40 DUP5 ADD SWAP2 DUP3 MSTORE PUSH1 0x80 PUSH1 0xFF PUSH1 0x4 PUSH1 0x3 DUP7 ADD SLOAD SWAP6 PUSH1 0x60 DUP9 ADD SWAP7 DUP8 MSTORE ADD SLOAD AND SWAP5 ADD SWAP4 ISZERO ISZERO DUP5 MSTORE PUSH1 0x40 MLOAD SWAP5 DUP6 MSTORE MLOAD PUSH1 0x20 DUP6 ADD MSTORE MLOAD PUSH1 0x40 DUP5 ADD MSTORE MLOAD PUSH1 0x60 DUP4 ADD MSTORE MLOAD ISZERO ISZERO PUSH1 0x80 DUP3 ADD MSTORE RETURN JUMPDEST CALLVALUE PUSH2 0x25C JUMPI PUSH1 0x0 CALLDATASIZE PUSH1 0x3 NOT ADD SLT PUSH2 0x25C JUMPI PUSH2 0x18EF PUSH2 0x3167 JUMP JUMPDEST PUSH1 0x0 DUP1 SLOAD PUSH1 0x1 PUSH1 0x1 PUSH1 0xA0 SHL SUB NOT DUP2 AND DUP3 SSTORE PUSH1 0x1 PUSH1 0x1 PUSH1 0xA0 SHL SUB AND PUSH32 0x8BE0079C531659141344CD1FD0A4F28419497F9722A3DAAFE3B4186F6B6457E0 DUP3 DUP1 LOG3 STOP JUMPDEST CALLVALUE PUSH2 0x25C JUMPI PUSH1 0x20 CALLDATASIZE PUSH1 0x3 NOT ADD SLT PUSH2 0x25C JUMPI PUSH1 0x1 PUSH1 0x1 PUSH1 0xA0 SHL SUB PUSH2 0x1950 PUSH2 0x2C26 JUMP JUMPDEST AND PUSH1 0x0 MSTORE PUSH1 0xC PUSH1 0x20 MSTORE PUSH1 0x20 PUSH1 0xFF PUSH1 0x40 PUSH1 0x0 KECCAK256 SLOAD AND PUSH1 0x40 MLOAD SWAP1 ISZERO ISZERO DUP2 MSTORE RETURN JUMPDEST CALLVALUE PUSH2 0x25C JUMPI PUSH1 0x0 CALLDATASIZE PUSH1 0x3 NOT ADD SLT PUSH2 0x25C JUMPI PUSH1 0x20 PUSH1 0x40 MLOAD PUSH3 0x93A80 DUP2 MSTORE RETURN JUMPDEST CALLVALUE PUSH2 0x25C JUMPI PUSH1 0x0 CALLDATASIZE PUSH1 0x3 NOT ADD SLT PUSH2 0x25C JUMPI PUSH1 0x20 PUSH1 0xFF PUSH1 0x2 SLOAD AND PUSH1 0x40 MLOAD SWAP1 ISZERO ISZERO DUP2 MSTORE RETURN JUMPDEST CALLVALUE PUSH2 0x25C JUMPI PUSH1 0x20 CALLDATASIZE PUSH1 0x3 NOT ADD SLT PUSH2 0x25C JUMPI PUSH1 0x0 PUSH2 0x160 PUSH1 0x40 MLOAD PUSH2 0x19D1 DUP2 PUSH2 0x2B2E JUMP JUMPDEST DUP3 DUP2 MSTORE DUP3 PUSH1 0x20 DUP3 ADD MSTORE DUP3 PUSH1 0x40 DUP3 ADD MSTORE DUP3 PUSH1 0x60 DUP3 ADD MSTORE DUP3 PUSH1 0x80 DUP3 ADD MSTORE DUP3 PUSH1 0xA0 DUP3 ADD MSTORE DUP3 PUSH1 0xC0 DUP3 ADD MSTORE PUSH1 0x60 PUSH1 0xE0 DUP3 ADD MSTORE PUSH1 0x60 PUSH2 0x100 DUP3 ADD MSTORE DUP3 PUSH2 0x120 DUP3 ADD MSTORE DUP3 PUSH2 0x140 DUP3 ADD MSTORE ADD MSTORE PUSH1 0x4 CALLDATALOAD PUSH1 0x0 MSTORE PUSH1 0x6 PUSH1 0x20 MSTORE PUSH1 0x40 DUP1 PUSH1 0x0 KECCAK256 DUP2 MLOAD SWAP1 PUSH2 0x1A34 DUP3 PUSH2 0x2B2E JUMP JUMPDEST DUP1 SLOAD DUP3 MSTORE PUSH1 0x1 DUP2 ADD SLOAD SWAP2 PUSH1 0x20 DUP2 ADD SWAP3 DUP4 MSTORE PUSH1 0x1 DUP1 PUSH1 0xA0 SHL SUB PUSH1 0x2 DUP4 ADD SLOAD AND SWAP2 DUP5 DUP3 ADD SWAP3 DUP4 MSTORE PUSH2 0x1B65 PUSH1 0x3 DUP3 ADD SLOAD PUSH1 0x60 DUP5 ADD SWAP1 DUP2 MSTORE PUSH2 0x1B51 PUSH1 0x4 DUP5 ADD SLOAD PUSH1 0x80 DUP7 ADD SWAP1 DUP2 MSTORE PUSH1 0x5 DUP6 ADD SLOAD PUSH1 0xA0 DUP8 ADD SWAP1 DUP2 MSTORE PUSH1 0xFF PUSH1 0x6 DUP8 ADD SLOAD AND SWAP1 PUSH1 0xC0 DUP9 ADD SWAP2 PUSH2 0x1A9A DUP2 PUSH2 0x2BFC JUMP JUMPDEST DUP3 MSTORE PUSH2 0x1AA8 PUSH1 0x7 DUP9 ADD PUSH2 0x2D1F JUMP JUMPDEST SWAP3 PUSH1 0xE0 DUP10 ADD SWAP4 DUP5 MSTORE PUSH2 0x1ABC PUSH1 0x8 DUP10 ADD PUSH2 0x2D1F JUMP JUMPDEST SWAP6 PUSH2 0x100 DUP11 ADD SWAP7 DUP8 MSTORE PUSH1 0x9 DUP10 ADD SLOAD SWAP11 PUSH2 0x120 DUP12 ADD SWAP12 DUP13 MSTORE PUSH1 0xA DUP11 ADD SLOAD SWAP10 PUSH2 0x140 DUP13 ADD SWAP11 DUP12 MSTORE PUSH1 0xB PUSH1 0x1 DUP1 PUSH1 0xA0 SHL SUB SWAP2 ADD SLOAD AND SWAP11 PUSH2 0x160 DUP2 ADD SWAP12 DUP13 MSTORE DUP15 MLOAD SWAP15 DUP16 SWAP15 DUP16 SWAP3 PUSH1 0x20 DUP5 MSTORE MLOAD PUSH1 0x20 DUP5 ADD MSTORE MLOAD SWAP2 ADD MSTORE PUSH1 0x1 DUP1 PUSH1 0xA0 SHL SUB SWAP1 MLOAD AND PUSH1 0x60 DUP14 ADD MSTORE MLOAD PUSH1 0x80 DUP13 ADD MSTORE MLOAD PUSH1 0xA0 DUP12 ADD MSTORE MLOAD PUSH1 0xC0 DUP11 ADD MSTORE MLOAD PUSH2 0x1B37 DUP2 PUSH2 0x2BFC JUMP JUMPDEST PUSH1 0xE0 DUP10 ADD MSTORE MLOAD PUSH2 0x180 PUSH2 0x100 DUP10 ADD MSTORE PUSH2 0x1A0 DUP9 ADD SWAP1 PUSH2 0x2C76 JUMP JUMPDEST SWAP1 MLOAD DUP7 DUP3 SUB PUSH1 0x1F NOT ADD PUSH2 0x120 DUP9 ADD MSTORE PUSH2 0x2C76 JUMP JUMPDEST SWAP3 MLOAD PUSH2 0x140 DUP6 ADD MSTORE MLOAD PUSH2 0x160 DUP5 ADD MSTORE MLOAD PUSH1 0x1 PUSH1 0x1 PUSH1 0xA0 SHL SUB AND PUSH2 0x180 DUP4 ADD MSTORE SUB SWAP1 RETURN JUMPDEST CALLVALUE PUSH2 0x25C JUMPI PUSH1 0x40 CALLDATASIZE PUSH1 0x3 NOT ADD SLT PUSH2 0x25C JUMPI PUSH1 0x4 CALLDATALOAD PUSH1 0x5 DUP2 LT ISZERO PUSH2 0x25C JUMPI PUSH1 0x24 CALLDATALOAD SWAP1 PUSH2 0x1BB1 PUSH2 0x3167 JUMP JUMPDEST PUSH2 0x7D0 DUP3 GT PUSH2 0x1BD9 JUMPI PUSH2 0x1BC3 DUP2 PUSH2 0x2BFC JUMP JUMPDEST PUSH1 0x0 MSTORE PUSH1 0xA PUSH1 0x20 MSTORE PUSH1 0x3 PUSH1 0x40 PUSH1 0x0 KECCAK256 ADD SSTORE PUSH1 0x0 DUP1 RETURN JUMPDEST PUSH1 0x40 MLOAD PUSH3 0x461BCD PUSH1 0xE5 SHL DUP2 MSTORE PUSH1 0x20 PUSH1 0x4 DUP3 ADD MSTORE PUSH1 0x16 PUSH1 0x24 DUP3 ADD MSTORE PUSH22 0x526174652063616E6E6F742065786365656420323025 PUSH1 0x50 SHL PUSH1 0x44 DUP3 ADD MSTORE PUSH1 0x64 SWAP1 REVERT JUMPDEST CALLVALUE PUSH2 0x25C JUMPI PUSH1 0x20 CALLDATASIZE PUSH1 0x3 NOT ADD SLT PUSH2 0x25C JUMPI PUSH2 0x1C30 PUSH2 0x2C26 JUMP JUMPDEST PUSH2 0x1C38 PUSH2 0x3167 JUMP JUMPDEST PUSH1 0x1 PUSH1 0x1 PUSH1 0xA0 SHL SUB AND PUSH1 0x0 SWAP1 DUP2 MSTORE PUSH1 0xB PUSH1 0x20 MSTORE PUSH1 0x40 SWAP1 KECCAK256 DUP1 SLOAD PUSH1 0xFF NOT AND SWAP1 SSTORE STOP JUMPDEST CALLVALUE PUSH2 0x25C JUMPI PUSH1 0x0 CALLDATASIZE PUSH1 0x3 NOT ADD SLT PUSH2 0x25C JUMPI PUSH2 0x1C72 PUSH2 0x3167 JUMP JUMPDEST PUSH1 0x2 SLOAD PUSH1 0xFF DUP2 AND ISZERO PUSH2 0x1CB1 JUMPI PUSH1 0xFF NOT AND PUSH1 0x2 SSTORE PUSH32 0x5DB9EE0A495BF2E6FF9C91A7834C1BA4FDD244A5E8AA4E537BD38AEAE4B073AA PUSH1 0x20 PUSH1 0x40 MLOAD CALLER DUP2 MSTORE LOG1 STOP JUMPDEST PUSH4 0x8DFC202B PUSH1 0xE0 SHL PUSH1 0x0 MSTORE PUSH1 0x4 PUSH1 0x0 REVERT JUMPDEST CALLVALUE PUSH2 0x25C JUMPI PUSH1 0x40 CALLDATASIZE PUSH1 0x3 NOT ADD SLT PUSH2 0x25C JUMPI PUSH2 0x1CDB PUSH2 0x2C26 JUMP JUMPDEST PUSH1 0x1 PUSH1 0x1 PUSH1 0xA0 SHL SUB AND PUSH1 0x0 SWAP1 DUP2 MSTORE PUSH1 0x7 PUSH1 0x20 MSTORE PUSH1 0x40 SWAP1 KECCAK256 DUP1 SLOAD PUSH1 0x24 CALLDATALOAD SWAP2 SWAP1 DUP3 LT ISZERO PUSH2 0x25C JUMPI PUSH1 0x20 SWAP2 PUSH2 0x8E6 SWAP2 PUSH2 0x2CB7 JUMP JUMPDEST PUSH1 0x0 CALLDATASIZE PUSH1 0x3 NOT ADD SLT PUSH2 0x25C JUMPI PUSH2 0x1D20 PUSH2 0x30B9 JUMP JUMPDEST PUSH2 0x1D28 PUSH2 0x314A JUMP JUMPDEST PUSH9 0x56BC75E2D63100000 CALLVALUE LT PUSH2 0x1E3A JUMPI CALLER PUSH1 0x0 MSTORE PUSH1 0x9 PUSH1 0x20 MSTORE PUSH1 0x40 PUSH1 0x0 KECCAK256 DUP1 SLOAD PUSH2 0x1E2C JUMPI JUMPDEST PUSH2 0x1D58 CALLVALUE DUP3 SLOAD PUSH2 0x2DD2 JUMP JUMPDEST DUP2 SSTORE TIMESTAMP PUSH1 0x1 DUP3 ADD SSTORE PUSH1 0x3 TIMESTAMP SWAP2 ADD SSTORE PUSH1 0x5 CALLVALUE DIV PUSH1 0x0 JUMPDEST PUSH1 0x5 DUP2 LT PUSH2 0x1DA7 JUMPI PUSH1 0x40 MLOAD CALLVALUE DUP2 MSTORE PUSH32 0xA7BB2E28CC4698AAC06DB79CF9163BFCC20719286CF59FA7D492CEDA1B8EDC2 PUSH1 0x20 CALLER SWAP3 LOG2 PUSH1 0x1 DUP1 SSTORE STOP JUMPDEST DUP1 PUSH2 0x1DB3 PUSH1 0x1 SWAP3 PUSH2 0x2BFC JUMP JUMPDEST PUSH2 0x1DBC DUP2 PUSH2 0x2BFC JUMP JUMPDEST DUP1 PUSH1 0x0 MSTORE PUSH1 0xA PUSH1 0x20 MSTORE PUSH1 0xFF PUSH1 0x4 PUSH1 0x40 PUSH1 0x0 KECCAK256 ADD SLOAD AND PUSH2 0x1DDC JUMPI JUMPDEST ADD PUSH2 0x1D6D JUMP JUMPDEST PUSH2 0x1DE5 DUP2 PUSH2 0x2BFC JUMP JUMPDEST DUP1 PUSH1 0x0 MSTORE PUSH1 0xA PUSH1 0x20 MSTORE PUSH1 0x40 PUSH1 0x0 KECCAK256 PUSH2 0x1DFE DUP5 DUP3 SLOAD PUSH2 0x2DD2 JUMP JUMPDEST SWAP1 SSTORE PUSH2 0x1E09 DUP2 PUSH2 0x2BFC JUMP JUMPDEST DUP1 PUSH1 0x0 MSTORE PUSH1 0xA PUSH1 0x20 MSTORE PUSH1 0x2 PUSH1 0x40 PUSH1 0x0 KECCAK256 ADD PUSH2 0x1E25 DUP5 DUP3 SLOAD PUSH2 0x2DD2 JUMP JUMPDEST SWAP1 SSTORE PUSH2 0x1DD6 JUMP JUMPDEST PUSH2 0x1E35 CALLER PUSH2 0x30DB JUMP JUMPDEST PUSH2 0x1D4D JUMP JUMPDEST PUSH1 0x40 MLOAD PUSH3 0x461BCD PUSH1 0xE5 SHL DUP2 MSTORE PUSH1 0x20 PUSH1 0x4 DUP3 ADD MSTORE PUSH1 0x1C PUSH1 0x24 DUP3 ADD MSTORE PUSH32 0x4D696E696D756D207374616B6520616D6F756E74206E6F74206D657400000000 PUSH1 0x44 DUP3 ADD MSTORE PUSH1 0x64 SWAP1 REVERT JUMPDEST CALLVALUE PUSH2 0x25C JUMPI PUSH1 0x0 CALLDATASIZE PUSH1 0x3 NOT ADD SLT PUSH2 0x25C JUMPI PUSH2 0x1E98 PUSH2 0x30B9 JUMP JUMPDEST PUSH2 0x1EA1 CALLER PUSH2 0x30DB JUMP JUMPDEST CALLER PUSH1 0x0 MSTORE PUSH1 0x9 PUSH1 0x20 MSTORE PUSH1 0x2 PUSH1 0x40 PUSH1 0x0 KECCAK256 ADD DUP1 SLOAD SWAP1 DUP2 ISZERO PUSH2 0x1EFF JUMPI PUSH1 0x0 SWAP1 SSTORE PUSH1 0x0 DUP1 DUP1 DUP1 DUP5 CALLER DUP3 CALL ISZERO PUSH2 0x4CB JUMPI PUSH1 0x40 MLOAD SWAP1 DUP2 MSTORE PUSH32 0xFC30CDDEA38E2BF4D6EA7D3F9ED3B6AD7F176419F4963BD81318067A4AEE73FE PUSH1 0x20 CALLER SWAP3 LOG2 PUSH1 0x1 DUP1 SSTORE STOP JUMPDEST PUSH1 0x40 MLOAD PUSH3 0x461BCD PUSH1 0xE5 SHL DUP2 MSTORE PUSH1 0x20 PUSH1 0x4 DUP3 ADD MSTORE PUSH1 0x13 PUSH1 0x24 DUP3 ADD MSTORE PUSH19 0x4E6F207265776172647320746F20636C61696D PUSH1 0x68 SHL PUSH1 0x44 DUP3 ADD MSTORE PUSH1 0x64 SWAP1 REVERT JUMPDEST CALLVALUE PUSH2 0x25C JUMPI PUSH1 0x20 CALLDATASIZE PUSH1 0x3 NOT ADD SLT PUSH2 0x25C JUMPI PUSH1 0x0 PUSH2 0x160 PUSH1 0x40 MLOAD PUSH2 0x1F5C DUP2 PUSH2 0x2B2E JUMP JUMPDEST DUP3 DUP2 MSTORE DUP3 PUSH1 0x20 DUP3 ADD MSTORE DUP3 PUSH1 0x40 DUP3 ADD MSTORE DUP3 PUSH1 0x60 DUP3 ADD MSTORE DUP3 PUSH1 0x80 DUP3 ADD MSTORE DUP3 PUSH1 0xA0 DUP3 ADD MSTORE DUP3 PUSH1 0xC0 DUP3 ADD MSTORE DUP3 PUSH1 0xE0 DUP3 ADD MSTORE DUP3 PUSH2 0x100 DUP3 ADD MSTORE PUSH1 0x60 PUSH2 0x120 DUP3 ADD MSTORE DUP3 PUSH2 0x140 DUP3 ADD MSTORE ADD MSTORE PUSH1 0x4 CALLDATALOAD PUSH1 0x0 MSTORE PUSH1 0x5 PUSH1 0x20 MSTORE PUSH1 0x20 PUSH1 0x40 PUSH1 0x0 KECCAK256 PUSH1 0x40 MLOAD DUP1 SWAP2 PUSH2 0x1FC1 DUP3 PUSH2 0x2B2E JUMP JUMPDEST DUP1 SLOAD DUP3 MSTORE PUSH1 0x1 DUP2 ADD SLOAD PUSH1 0x1 PUSH1 0x1 PUSH1 0xA0 SHL SUB DUP2 AND DUP6 DUP5 ADD SWAP1 DUP2 MSTORE SWAP2 PUSH2 0x2101 SWAP2 PUSH1 0x40 DUP6 ADD SWAP1 PUSH1 0xA0 SHR PUSH1 0xFF AND PUSH2 0x1FF3 DUP2 PUSH2 0x2BFC JUMP JUMPDEST DUP2 MSTORE PUSH1 0x2 DUP3 ADD SLOAD PUSH1 0x60 DUP7 ADD SWAP1 DUP2 MSTORE PUSH1 0x3 DUP4 ADD SLOAD PUSH1 0x80 DUP8 ADD SWAP1 DUP2 MSTORE PUSH1 0x4 DUP5 ADD SLOAD PUSH1 0xA0 DUP9 ADD SWAP1 DUP2 MSTORE PUSH1 0x5 DUP6 ADD SLOAD SWAP2 PUSH1 0xC0 DUP10 ADD SWAP3 DUP4 MSTORE PUSH1 0x6 DUP7 ADD SLOAD SWAP4 PUSH1 0xFF DUP1 DUP7 AND SWAP6 PUSH1 0xE0 DUP13 ADD SWAP7 PUSH2 0x2040 DUP2 PUSH2 0x2C1C JUMP JUMPDEST DUP8 MSTORE PUSH1 0x8 SHR AND SWAP6 PUSH2 0x100 DUP12 ADD SWAP7 PUSH2 0x2056 DUP2 PUSH2 0x2C1C JUMP JUMPDEST DUP8 MSTORE PUSH1 0x9 PUSH2 0x2066 PUSH1 0x7 DUP11 ADD PUSH2 0x2D1F JUMP JUMPDEST SWAP9 PUSH2 0x120 DUP14 ADD SWAP10 DUP11 MSTORE PUSH2 0x140 PUSH1 0x8 DUP3 ADD SLOAD SWAP14 ADD SWAP13 DUP14 MSTORE ADD SLOAD SWAP10 PUSH2 0x160 DUP14 ADD SWAP11 DUP12 MSTORE PUSH1 0x40 MLOAD DUP15 DUP2 SWAP16 SWAP15 DUP3 SWAP16 DUP4 MSTORE MLOAD SWAP2 ADD MSTORE PUSH1 0x1 DUP1 PUSH1 0xA0 SHL SUB SWAP1 MLOAD AND PUSH1 0x40 DUP14 ADD MSTORE MLOAD PUSH2 0x20AF DUP2 PUSH2 0x2BFC JUMP JUMPDEST PUSH1 0x60 DUP13 ADD MSTORE MLOAD PUSH1 0x80 DUP12 ADD MSTORE MLOAD PUSH1 0xA0 DUP11 ADD MSTORE MLOAD PUSH1 0xC0 DUP10 ADD MSTORE MLOAD PUSH1 0xE0 DUP9 ADD MSTORE MLOAD PUSH2 0x20D6 DUP2 PUSH2 0x2C1C JUMP JUMPDEST PUSH2 0x100 DUP8 ADD MSTORE MLOAD PUSH2 0x20E6 DUP2 PUSH2 0x2C1C JUMP JUMPDEST PUSH2 0x120 DUP7 ADD MSTORE MLOAD PUSH2 0x180 PUSH2 0x140 DUP7 ADD MSTORE PUSH2 0x1A0 DUP6 ADD SWAP1 PUSH2 0x2C76 JUMP JUMPDEST SWAP2 MLOAD PUSH2 0x160 DUP5 ADD MSTORE MLOAD PUSH2 0x180 DUP4 ADD MSTORE SUB SWAP1 RETURN JUMPDEST CALLVALUE PUSH2 0x25C JUMPI PUSH1 0x0 CALLDATASIZE PUSH1 0x3 NOT ADD SLT PUSH2 0x25C JUMPI PUSH1 0x20 PUSH1 0x40 MLOAD PUSH9 0x56BC75E2D63100000 DUP2 MSTORE RETURN JUMPDEST CALLVALUE PUSH2 0x25C JUMPI PUSH1 0x20 CALLDATASIZE PUSH1 0x3 NOT ADD SLT PUSH2 0x25C JUMPI PUSH1 0x4 CALLDATALOAD PUSH2 0x2154 PUSH2 0x30B9 JUMP JUMPDEST CALLER PUSH1 0x0 MSTORE PUSH1 0x9 PUSH1 0x20 MSTORE PUSH1 0x40 PUSH1 0x0 KECCAK256 DUP2 DUP2 SLOAD LT PUSH2 0x2318 JUMPI DUP2 ISZERO PUSH2 0x22D3 JUMPI PUSH2 0x2179 CALLER PUSH2 0x30DB JUMP JUMPDEST PUSH2 0x2181 PUSH2 0x2FE8 JUMP JUMPDEST PUSH2 0x2193 DUP4 PUSH2 0x218D PUSH2 0x3030 JUMP JUMPDEST SWAP3 PUSH2 0x2E19 JUMP JUMPDEST SWAP1 PUSH1 0x50 DUP2 MUL SWAP1 DUP1 DUP3 DIV PUSH1 0x50 EQ SWAP1 ISZERO OR ISZERO PUSH2 0xF88 JUMPI PUSH1 0x64 SWAP1 DIV GT PUSH2 0x228F JUMPI PUSH2 0x21BB DUP3 DUP3 SLOAD PUSH2 0x2E19 JUMP JUMPDEST SWAP1 SSTORE PUSH1 0x5 DUP2 DIV PUSH1 0x0 JUMPDEST PUSH1 0x5 DUP2 LT PUSH2 0x220D JUMPI DUP3 PUSH1 0x0 DUP1 DUP1 DUP1 DUP5 CALLER DUP3 CALL ISZERO PUSH2 0x4CB JUMPI PUSH1 0x40 MLOAD SWAP1 DUP2 MSTORE PUSH32 0x8108595EB6BAD3ACEFA9DA467D90CC2217686D5C5AC85460F8B7849C840645FC PUSH1 0x20 CALLER SWAP3 LOG2 PUSH1 0x1 DUP1 SSTORE STOP JUMPDEST DUP1 PUSH2 0x2219 PUSH1 0x1 SWAP3 PUSH2 0x2BFC JUMP JUMPDEST PUSH2 0x2222 DUP2 PUSH2 0x2BFC JUMP JUMPDEST DUP1 PUSH1 0x0 MSTORE PUSH1 0xA PUSH1 0x20 MSTORE DUP3 PUSH1 0x40 PUSH1 0x0 KECCAK256 SLOAD LT ISZERO PUSH2 0x223F JUMPI JUMPDEST ADD PUSH2 0x21C4 JUMP JUMPDEST PUSH2 0x2248 DUP2 PUSH2 0x2BFC JUMP JUMPDEST DUP1 PUSH1 0x0 MSTORE PUSH1 0xA PUSH1 0x20 MSTORE PUSH1 0x40 PUSH1 0x0 KECCAK256 PUSH2 0x2261 DUP5 DUP3 SLOAD PUSH2 0x2E19 JUMP JUMPDEST SWAP1 SSTORE PUSH2 0x226C DUP2 PUSH2 0x2BFC JUMP JUMPDEST DUP1 PUSH1 0x0 MSTORE PUSH1 0xA PUSH1 0x20 MSTORE PUSH1 0x2 PUSH1 0x40 PUSH1 0x0 KECCAK256 ADD PUSH2 0x2288 DUP5 DUP3 SLOAD PUSH2 0x2E19 JUMP JUMPDEST SWAP1 SSTORE PUSH2 0x2239 JUMP JUMPDEST PUSH1 0x64 PUSH1 0x40 MLOAD PUSH3 0x461BCD PUSH1 0xE5 SHL DUP2 MSTORE PUSH1 0x20 PUSH1 0x4 DUP3 ADD MSTORE PUSH1 0x20 PUSH1 0x24 DUP3 ADD MSTORE PUSH32 0x5769746864726177616C20776F756C642061666665637420736F6C76656E6379 PUSH1 0x44 DUP3 ADD MSTORE REVERT JUMPDEST PUSH1 0x40 MLOAD PUSH3 0x461BCD PUSH1 0xE5 SHL DUP2 MSTORE PUSH1 0x20 PUSH1 0x4 DUP3 ADD MSTORE PUSH1 0x17 PUSH1 0x24 DUP3 ADD MSTORE PUSH32 0x416D6F756E74206D75737420626520706F736974697665000000000000000000 PUSH1 0x44 DUP3 ADD MSTORE PUSH1 0x64 SWAP1 REVERT JUMPDEST PUSH1 0x40 MLOAD PUSH3 0x461BCD PUSH1 0xE5 SHL DUP2 MSTORE PUSH1 0x20 PUSH1 0x4 DUP3 ADD MSTORE PUSH1 0x12 PUSH1 0x24 DUP3 ADD MSTORE PUSH18 0x496E73756666696369656E74207374616B65 PUSH1 0x70 SHL PUSH1 0x44 DUP3 ADD MSTORE PUSH1 0x64 SWAP1 REVERT JUMPDEST CALLVALUE PUSH2 0x25C JUMPI PUSH1 0x0 CALLDATASIZE PUSH1 0x3 NOT ADD SLT PUSH2 0x25C JUMPI PUSH1 0x20 PUSH1 0x40 MLOAD PUSH2 0x3E8 DUP2 MSTORE RETURN JUMPDEST CALLVALUE PUSH2 0x25C JUMPI PUSH1 0x20 CALLDATASIZE PUSH1 0x3 NOT ADD SLT PUSH2 0x25C JUMPI PUSH1 0x1 PUSH1 0x1 PUSH1 0xA0 SHL SUB PUSH2 0x2390 PUSH2 0x2C26 JUMP JUMPDEST AND PUSH1 0x0 MSTORE PUSH1 0x7 PUSH1 0x20 MSTORE PUSH1 0x40 PUSH1 0x0 KECCAK256 PUSH1 0x40 MLOAD SWAP1 DUP2 PUSH1 0x20 DUP3 SLOAD SWAP2 DUP3 DUP2 MSTORE ADD SWAP2 PUSH1 0x0 MSTORE PUSH1 0x20 PUSH1 0x0 KECCAK256 SWAP1 PUSH1 0x0 JUMPDEST DUP2 DUP2 LT PUSH2 0x23D0 JUMPI PUSH2 0x1749 DUP6 PUSH2 0x173D DUP2 DUP8 SUB DUP3 PUSH2 0x2B83 JUMP JUMPDEST DUP3 SLOAD DUP5 MSTORE PUSH1 0x20 SWAP1 SWAP4 ADD SWAP3 PUSH1 0x1 SWAP3 DUP4 ADD SWAP3 ADD PUSH2 0x23B9 JUMP JUMPDEST CALLVALUE PUSH2 0x25C JUMPI PUSH1 0x20 CALLDATASIZE PUSH1 0x3 NOT ADD SLT PUSH2 0x25C JUMPI PUSH1 0x4 CALLDATALOAD PUSH1 0x5 DUP2 LT ISZERO PUSH2 0x25C JUMPI PUSH2 0x240C DUP2 PUSH2 0x2BFC JUMP JUMPDEST PUSH1 0x0 MSTORE PUSH1 0xA PUSH1 0x20 MSTORE PUSH1 0xA0 PUSH1 0x40 PUSH1 0x0 KECCAK256 DUP1 SLOAD SWAP1 PUSH1 0x1 DUP2 ADD SLOAD SWAP1 PUSH1 0x2 DUP2 ADD SLOAD PUSH1 0xFF PUSH1 0x4 PUSH1 0x3 DUP5 ADD SLOAD SWAP4 ADD SLOAD AND SWAP3 PUSH1 0x40 MLOAD SWAP5 DUP6 MSTORE PUSH1 0x20 DUP6 ADD MSTORE PUSH1 0x40 DUP5 ADD MSTORE PUSH1 0x60 DUP4 ADD MSTORE ISZERO ISZERO PUSH1 0x80 DUP3 ADD MSTORE RETURN JUMPDEST CALLVALUE PUSH2 0x25C JUMPI PUSH1 0x20 CALLDATASIZE PUSH1 0x3 NOT ADD SLT PUSH2 0x25C JUMPI PUSH1 0x1 PUSH1 0x1 PUSH1 0xA0 SHL SUB PUSH2 0x2476 PUSH2 0x2C26 JUMP JUMPDEST AND PUSH1 0x0 MSTORE PUSH1 0x9 PUSH1 0x20 MSTORE PUSH1 0x80 PUSH1 0x40 PUSH1 0x0 KECCAK256 DUP1 SLOAD SWAP1 PUSH1 0x1 DUP2 ADD SLOAD SWAP1 PUSH1 0x3 PUSH1 0x2 DUP3 ADD SLOAD SWAP2 ADD SLOAD SWAP2 PUSH1 0x40 MLOAD SWAP4 DUP5 MSTORE PUSH1 0x20 DUP5 ADD MSTORE PUSH1 0x40 DUP4 ADD MSTORE PUSH1 0x60 DUP3 ADD MSTORE RETURN JUMPDEST CALLVALUE PUSH2 0x25C JUMPI PUSH1 0x20 CALLDATASIZE PUSH1 0x3 NOT ADD SLT PUSH2 0x25C JUMPI PUSH1 0x20 PUSH2 0x3DE PUSH2 0x24CF PUSH2 0x2C26 JUMP JUMPDEST PUSH2 0x2E39 JUMP JUMPDEST CALLVALUE PUSH2 0x25C JUMPI PUSH1 0x40 CALLDATASIZE PUSH1 0x3 NOT ADD SLT PUSH2 0x25C JUMPI PUSH1 0x4 CALLDATALOAD PUSH1 0x5 DUP2 LT ISZERO PUSH2 0x25C JUMPI PUSH1 0x24 CALLDATALOAD SWAP1 PUSH1 0x4 DUP3 LT ISZERO PUSH2 0x25C JUMPI PUSH2 0x2507 DUP2 PUSH2 0x2BFC JUMP JUMPDEST PUSH1 0x0 MSTORE PUSH1 0xD PUSH1 0x20 MSTORE PUSH1 0x40 PUSH1 0x0 KECCAK256 SWAP1 PUSH2 0x251E DUP2 PUSH2 0x2C1C JUMP JUMPDEST PUSH1 0x0 MSTORE PUSH1 0x20 MSTORE PUSH1 0x20 PUSH1 0x40 PUSH1 0x0 KECCAK256 SLOAD PUSH1 0x40 MLOAD SWAP1 DUP2 MSTORE RETURN JUMPDEST CALLVALUE PUSH2 0x25C JUMPI PUSH1 0x60 CALLDATASIZE PUSH1 0x3 NOT ADD SLT PUSH2 0x25C JUMPI PUSH1 0x24 CALLDATALOAD PUSH1 0x4 CALLDATALOAD PUSH1 0x44 CALLDATALOAD PUSH8 0xFFFFFFFFFFFFFFFF DUP2 GT PUSH2 0x25C JUMPI PUSH2 0x256B SWAP1 CALLDATASIZE SWAP1 PUSH1 0x4 ADD PUSH2 0x2BA5 JUMP JUMPDEST PUSH2 0x2573 PUSH2 0x30B9 JUMP JUMPDEST DUP2 ISZERO ISZERO DUP1 PUSH2 0x2B23 JUMPI JUMPDEST ISZERO PUSH2 0x2AEA JUMPI DUP2 PUSH1 0x0 MSTORE PUSH1 0x5 PUSH1 0x20 MSTORE PUSH1 0xFF PUSH1 0x6 PUSH1 0x40 PUSH1 0x0 KECCAK256 ADD SLOAD AND PUSH2 0x259F DUP2 PUSH2 0x2C1C JUMP JUMPDEST PUSH2 0x2AB1 JUMPI PUSH1 0x0 DUP3 DUP2 MSTORE PUSH1 0x5 PUSH1 0x20 MSTORE PUSH1 0x40 SWAP1 KECCAK256 PUSH1 0x1 DUP2 ADD SLOAD PUSH1 0x1 PUSH1 0x1 PUSH1 0xA0 SHL SUB AND CALLER SUB PUSH2 0x2A78 JUMPI PUSH1 0x5 DUP2 ADD SLOAD TIMESTAMP GT PUSH2 0x2A42 JUMPI DUP4 ISZERO PUSH2 0x29FD JUMPI PUSH1 0x2 ADD SLOAD DUP4 GT PUSH2 0x29BF JUMPI PUSH1 0x4 SLOAD SWAP1 PUSH2 0x25ED DUP3 PUSH2 0x2DC3 JUMP JUMPDEST PUSH1 0x4 SSTORE PUSH3 0x93A80 TIMESTAMP ADD SWAP1 DUP2 TIMESTAMP GT PUSH2 0xF88 JUMPI PUSH1 0x40 MLOAD SWAP1 PUSH2 0x260B DUP3 PUSH2 0x2B2E JUMP JUMPDEST DUP4 DUP3 MSTORE PUSH1 0x20 DUP3 ADD SWAP1 DUP6 DUP3 MSTORE PUSH1 0x40 DUP4 ADD SWAP1 CALLER DUP3 MSTORE PUSH1 0x60 DUP5 ADD SWAP1 DUP9 DUP3 MSTORE PUSH1 0x80 DUP6 ADD SWAP1 TIMESTAMP DUP3 MSTORE PUSH1 0xA0 DUP7 ADD SWAP7 DUP8 MSTORE PUSH1 0xC0 DUP7 ADD PUSH1 0x0 DUP2 MSTORE PUSH1 0xE0 DUP8 ADD SWAP2 DUP3 MSTORE PUSH1 0x20 SWAP8 PUSH1 0x40 MLOAD SWAP4 PUSH2 0x2655 DUP11 DUP7 PUSH2 0x2B83 JUMP JUMPDEST PUSH1 0x0 DUP1 DUP7 MSTORE PUSH2 0x100 DUP11 ADD SWAP6 DUP7 MSTORE PUSH2 0x120 DUP11 ADD DUP2 DUP2 MSTORE PUSH2 0x140 DUP12 ADD DUP3 DUP2 MSTORE PUSH2 0x160 DUP13 ADD DUP4 DUP2 MSTORE DUP15 DUP5 MSTORE PUSH1 0x6 DUP1 DUP16 MSTORE PUSH1 0x40 SWAP1 SWAP5 KECCAK256 SWAP13 MLOAD DUP14 SSTORE SWAP11 MLOAD PUSH1 0x1 DUP14 ADD SSTORE SWAP9 MLOAD PUSH1 0x2 DUP13 ADD DUP1 SLOAD PUSH1 0x1 PUSH1 0x1 PUSH1 0xA0 SHL SUB NOT AND PUSH1 0x1 PUSH1 0x1 PUSH1 0xA0 SHL SUB SWAP3 SWAP1 SWAP3 AND SWAP2 SWAP1 SWAP2 OR SWAP1 SSTORE SWAP7 MLOAD PUSH1 0x3 DUP12 ADD SSTORE SWAP1 MLOAD PUSH1 0x4 DUP11 ADD SSTORE SWAP1 MLOAD PUSH1 0x5 DUP10 ADD SSTORE SWAP1 MLOAD SWAP1 DUP8 ADD SWAP1 PUSH2 0x26DA DUP2 PUSH2 0x2BFC JUMP JUMPDEST PUSH2 0x26E3 DUP2 PUSH2 0x2BFC JUMP JUMPDEST PUSH1 0xFF DUP1 NOT DUP4 SLOAD AND SWAP2 AND OR SWAP1 SSTORE PUSH1 0x7 DUP7 ADD SWAP1 MLOAD DUP1 MLOAD SWAP1 PUSH8 0xFFFFFFFFFFFFFFFF DUP3 GT PUSH2 0xF2D JUMPI DUP2 SWAP1 PUSH2 0x2713 DUP5 SLOAD PUSH2 0x2CE5 JUMP JUMPDEST PUSH1 0x1F DUP2 GT PUSH2 0x296E JUMPI JUMPDEST POP DUP10 SWAP1 PUSH1 0x1F DUP4 GT PUSH1 0x1 EQ PUSH2 0x2909 JUMPI PUSH1 0x0 SWAP3 PUSH2 0x28FE JUMPI JUMPDEST POP POP DUP2 PUSH1 0x1 SHL SWAP2 PUSH1 0x0 NOT SWAP1 PUSH1 0x3 SHL SHR NOT AND OR SWAP1 SSTORE JUMPDEST MLOAD DUP1 MLOAD PUSH1 0x8 DUP7 ADD SWAP2 PUSH8 0xFFFFFFFFFFFFFFFF DUP3 GT PUSH2 0xF2D JUMPI PUSH2 0x2768 DUP4 SLOAD PUSH2 0x2CE5 JUMP JUMPDEST PUSH1 0x1F DUP2 GT PUSH2 0x28B8 JUMPI JUMPDEST POP DUP8 SWAP1 PUSH1 0x1F DUP4 GT PUSH1 0x1 EQ PUSH2 0x2829 JUMPI SWAP2 DUP1 PUSH1 0xB SWAP7 SWAP5 SWAP3 PUSH32 0x3A30D1C4069E097873E77443DF9683E8DE5C7BA3674315B8670A0211E3130195 SWAP11 SWAP10 SWAP9 SWAP7 SWAP5 PUSH1 0x0 SWAP3 PUSH2 0x281E JUMPI JUMPDEST POP POP DUP2 PUSH1 0x1 SHL SWAP2 PUSH1 0x0 NOT SWAP1 PUSH1 0x3 SHL SHR NOT AND OR SWAP1 SSTORE JUMPDEST MLOAD PUSH1 0x9 DUP6 ADD SSTORE MLOAD PUSH1 0xA DUP5 ADD SSTORE MLOAD SWAP2 ADD DUP1 SLOAD PUSH1 0x1 PUSH1 0x1 PUSH1 0xA0 SHL SUB NOT AND PUSH1 0x1 PUSH1 0x1 PUSH1 0xA0 SHL SUB SWAP3 SWAP1 SWAP3 AND SWAP2 SWAP1 SWAP2 OR SWAP1 SSTORE CALLER PUSH1 0x0 SWAP1 DUP2 MSTORE PUSH1 0x8 DUP3 MSTORE PUSH1 0x40 SWAP1 KECCAK256 PUSH2 0x280F SWAP1 DUP5 SWAP1 PUSH2 0x2DDF JUMP JUMPDEST PUSH1 0x40 MLOAD SWAP5 DUP6 MSTORE CALLER SWAP5 LOG4 PUSH1 0x1 DUP1 SSTORE STOP JUMPDEST ADD MLOAD SWAP1 POP DUP14 DUP1 PUSH2 0x27B4 JUMP JUMPDEST SWAP1 PUSH1 0x1F NOT DUP4 AND SWAP2 DUP5 PUSH1 0x0 MSTORE DUP10 PUSH1 0x0 KECCAK256 SWAP3 PUSH1 0x0 JUMPDEST DUP2 DUP2 LT PUSH2 0x28A1 JUMPI POP SWAP3 PUSH1 0x1 SWAP3 DUP6 SWAP3 PUSH32 0x3A30D1C4069E097873E77443DF9683E8DE5C7BA3674315B8670A0211E3130195 SWAP13 SWAP12 SWAP11 SWAP9 SWAP7 PUSH1 0xB SWAP11 SWAP9 SWAP7 LT PUSH2 0x2888 JUMPI JUMPDEST POP POP POP DUP2 SHL ADD SWAP1 SSTORE PUSH2 0x27C9 JUMP JUMPDEST ADD MLOAD PUSH1 0x0 NOT PUSH1 0xF8 DUP5 PUSH1 0x3 SHL AND SHR NOT AND SWAP1 SSTORE DUP14 DUP1 DUP1 PUSH2 0x287B JUMP JUMPDEST SWAP3 SWAP4 DUP12 PUSH1 0x1 DUP2 SWAP3 DUP8 DUP7 ADD MLOAD DUP2 SSTORE ADD SWAP6 ADD SWAP4 ADD PUSH2 0x283C JUMP JUMPDEST DUP4 PUSH1 0x0 MSTORE DUP9 PUSH1 0x0 KECCAK256 PUSH1 0x1F DUP5 ADD PUSH1 0x5 SHR DUP2 ADD SWAP2 DUP11 DUP6 LT PUSH2 0x28F4 JUMPI JUMPDEST PUSH1 0x1F ADD PUSH1 0x5 SHR ADD SWAP1 JUMPDEST DUP2 DUP2 LT PUSH2 0x28E8 JUMPI POP PUSH2 0x2771 JUMP JUMPDEST PUSH1 0x0 DUP2 SSTORE PUSH1 0x1 ADD PUSH2 0x28DB JUMP JUMPDEST SWAP1 SWAP2 POP DUP2 SWAP1 PUSH2 0x28D2 JUMP JUMPDEST ADD MLOAD SWAP1 POP DUP13 DUP1 PUSH2 0x2732 JUMP JUMPDEST PUSH1 0x0 DUP6 DUP2 MSTORE DUP12 DUP2 KECCAK256 SWAP4 POP PUSH1 0x1F NOT DUP6 AND SWAP1 JUMPDEST DUP13 DUP3 DUP3 LT PUSH2 0x2958 JUMPI POP POP SWAP1 DUP5 PUSH1 0x1 SWAP6 SWAP5 SWAP4 SWAP3 LT PUSH2 0x293F JUMPI JUMPDEST POP POP POP DUP2 SHL ADD SWAP1 SSTORE PUSH2 0x2747 JUMP JUMPDEST ADD MLOAD PUSH1 0x0 NOT PUSH1 0xF8 DUP5 PUSH1 0x3 SHL AND SHR NOT AND SWAP1 SSTORE DUP13 DUP1 DUP1 PUSH2 0x2932 JUMP JUMPDEST PUSH1 0x1 DUP6 SWAP7 DUP3 SWAP4 SWAP7 DUP7 ADD MLOAD DUP2 SSTORE ADD SWAP6 ADD SWAP4 ADD PUSH2 0x291A JUMP JUMPDEST SWAP1 SWAP2 POP DUP4 PUSH1 0x0 MSTORE DUP10 PUSH1 0x0 KECCAK256 PUSH1 0x1F DUP5 ADD PUSH1 0x5 SHR DUP2 ADD SWAP2 DUP12 DUP6 LT PUSH2 0x29B5 JUMPI JUMPDEST SWAP1 PUSH1 0x1F DUP6 SWAP5 SWAP4 SWAP3 ADD PUSH1 0x5 SHR ADD SWAP1 JUMPDEST DUP2 DUP2 LT PUSH2 0x29A6 JUMPI POP PUSH2 0x271C JUMP JUMPDEST PUSH1 0x0 DUP2 SSTORE DUP5 SWAP4 POP PUSH1 0x1 ADD PUSH2 0x2999 JUMP JUMPDEST SWAP1 SWAP2 POP DUP2 SWAP1 PUSH2 0x298B JUMP JUMPDEST PUSH1 0x40 MLOAD PUSH3 0x461BCD PUSH1 0xE5 SHL DUP2 MSTORE PUSH1 0x20 PUSH1 0x4 DUP3 ADD MSTORE PUSH1 0x16 PUSH1 0x24 DUP3 ADD MSTORE PUSH22 0x436C61696D206578636565647320636F766572616765 PUSH1 0x50 SHL PUSH1 0x44 DUP3 ADD MSTORE PUSH1 0x64 SWAP1 REVERT JUMPDEST PUSH1 0x40 MLOAD PUSH3 0x461BCD PUSH1 0xE5 SHL DUP2 MSTORE PUSH1 0x20 PUSH1 0x4 DUP3 ADD MSTORE PUSH1 0x1D PUSH1 0x24 DUP3 ADD MSTORE PUSH32 0x436C61696D20616D6F756E74206D75737420626520706F736974697665000000 PUSH1 0x44 DUP3 ADD MSTORE PUSH1 0x64 SWAP1 REVERT JUMPDEST PUSH1 0x40 MLOAD PUSH3 0x461BCD PUSH1 0xE5 SHL DUP2 MSTORE PUSH1 0x20 PUSH1 0x4 DUP3 ADD MSTORE PUSH1 0xE PUSH1 0x24 DUP3 ADD MSTORE PUSH14 0x141BDB1A58DE48195E1C1A5C9959 PUSH1 0x92 SHL PUSH1 0x44 DUP3 ADD MSTORE PUSH1 0x64 SWAP1 REVERT JUMPDEST PUSH1 0x40 MLOAD PUSH3 0x461BCD PUSH1 0xE5 SHL DUP2 MSTORE PUSH1 0x20 PUSH1 0x4 DUP3 ADD MSTORE PUSH1 0x11 PUSH1 0x24 DUP3 ADD MSTORE PUSH17 0x2737BA103837B634B1BC903437B63232B9 PUSH1 0x79 SHL PUSH1 0x44 DUP3 ADD MSTORE PUSH1 0x64 SWAP1 REVERT JUMPDEST PUSH1 0x40 MLOAD PUSH3 0x461BCD PUSH1 0xE5 SHL DUP2 MSTORE PUSH1 0x20 PUSH1 0x4 DUP3 ADD MSTORE PUSH1 0x11 PUSH1 0x24 DUP3 ADD MSTORE PUSH17 0x506F6C696379206E6F7420616374697665 PUSH1 0x78 SHL PUSH1 0x44 DUP3 ADD MSTORE PUSH1 0x64 SWAP1 REVERT JUMPDEST PUSH1 0x40 MLOAD PUSH3 0x461BCD PUSH1 0xE5 SHL DUP2 MSTORE PUSH1 0x20 PUSH1 0x4 DUP3 ADD MSTORE PUSH1 0x11 PUSH1 0x24 DUP3 ADD MSTORE PUSH17 0x125B9D985B1A59081C1BDB1A58DE481251 PUSH1 0x7A SHL PUSH1 0x44 DUP3 ADD MSTORE PUSH1 0x64 SWAP1 REVERT JUMPDEST POP PUSH1 0x3 SLOAD DUP3 LT PUSH2 0x257C JUMP JUMPDEST PUSH2 0x180 DUP2 ADD SWAP1 DUP2 LT PUSH8 0xFFFFFFFFFFFFFFFF DUP3 GT OR PUSH2 0xF2D JUMPI PUSH1 0x40 MSTORE JUMP JUMPDEST PUSH1 0xA0 DUP2 ADD SWAP1 DUP2 LT PUSH8 0xFFFFFFFFFFFFFFFF DUP3 GT OR PUSH2 0xF2D JUMPI PUSH1 0x40 MSTORE JUMP JUMPDEST PUSH1 0x80 DUP2 ADD SWAP1 DUP2 LT PUSH8 0xFFFFFFFFFFFFFFFF DUP3 GT OR PUSH2 0xF2D JUMPI PUSH1 0x40 MSTORE JUMP JUMPDEST SWAP1 PUSH1 0x1F DUP1 NOT SWAP2 ADD AND DUP2 ADD SWAP1 DUP2 LT PUSH8 0xFFFFFFFFFFFFFFFF DUP3 GT OR PUSH2 0xF2D JUMPI PUSH1 0x40 MSTORE JUMP JUMPDEST DUP2 PUSH1 0x1F DUP3 ADD SLT ISZERO PUSH2 0x25C JUMPI DUP1 CALLDATALOAD SWAP1 PUSH8 0xFFFFFFFFFFFFFFFF DUP3 GT PUSH2 0xF2D JUMPI PUSH1 0x40 MLOAD SWAP3 PUSH2 0x2BDA PUSH1 0x1F DUP5 ADD PUSH1 0x1F NOT AND PUSH1 0x20 ADD DUP6 PUSH2 0x2B83 JUMP JUMPDEST DUP3 DUP5 MSTORE PUSH1 0x20 DUP4 DUP4 ADD ADD GT PUSH2 0x25C JUMPI DUP2 PUSH1 0x0 SWAP3 PUSH1 0x20 DUP1 SWAP4 ADD DUP4 DUP7 ADD CALLDATACOPY DUP4 ADD ADD MSTORE SWAP1 JUMP JUMPDEST PUSH1 0x5 GT ISZERO PUSH2 0x2C06 JUMPI JUMP JUMPDEST PUSH4 0x4E487B71 PUSH1 0xE0 SHL PUSH1 0x0 MSTORE PUSH1 0x21 PUSH1 0x4 MSTORE PUSH1 0x24 PUSH1 0x0 REVERT JUMPDEST PUSH1 0x4 GT ISZERO PUSH2 0x2C06 JUMPI JUMP JUMPDEST PUSH1 0x4 CALLDATALOAD SWAP1 PUSH1 0x1 PUSH1 0x1 PUSH1 0xA0 SHL SUB DUP3 AND DUP3 SUB PUSH2 0x25C JUMPI JUMP JUMPDEST PUSH1 0x20 PUSH1 0x40 DUP2 DUP4 ADD SWAP3 DUP3 DUP2 MSTORE DUP5 MLOAD DUP1 SWAP5 MSTORE ADD SWAP3 ADD SWAP1 PUSH1 0x0 JUMPDEST DUP2 DUP2 LT PUSH2 0x2C60 JUMPI POP POP POP SWAP1 JUMP JUMPDEST DUP3 MLOAD DUP5 MSTORE PUSH1 0x20 SWAP4 DUP5 ADD SWAP4 SWAP1 SWAP3 ADD SWAP2 PUSH1 0x1 ADD PUSH2 0x2C53 JUMP JUMPDEST SWAP2 SWAP1 DUP3 MLOAD SWAP3 DUP4 DUP3 MSTORE PUSH1 0x0 JUMPDEST DUP5 DUP2 LT PUSH2 0x2CA2 JUMPI POP POP DUP3 PUSH1 0x0 PUSH1 0x20 DUP1 SWAP5 SWAP6 DUP5 ADD ADD MSTORE PUSH1 0x1F DUP1 NOT SWAP2 ADD AND ADD ADD SWAP1 JUMP JUMPDEST DUP1 PUSH1 0x20 DUP1 SWAP3 DUP5 ADD ADD MLOAD DUP3 DUP3 DUP7 ADD ADD MSTORE ADD PUSH2 0x2C81 JUMP JUMPDEST DUP1 SLOAD DUP3 LT ISZERO PUSH2 0x2CCF JUMPI PUSH1 0x0 MSTORE PUSH1 0x20 PUSH1 0x0 KECCAK256 ADD SWAP1 PUSH1 0x0 SWAP1 JUMP JUMPDEST PUSH4 0x4E487B71 PUSH1 0xE0 SHL PUSH1 0x0 MSTORE PUSH1 0x32 PUSH1 0x4 MSTORE PUSH1 0x24 PUSH1 0x0 REVERT JUMPDEST SWAP1 PUSH1 0x1 DUP3 DUP2 SHR SWAP3 AND DUP1 ISZERO PUSH2 0x2D15 JUMPI JUMPDEST PUSH1 0x20 DUP4 LT EQ PUSH2 0x2CFF JUMPI JUMP JUMPDEST PUSH4 0x4E487B71 PUSH1 0xE0 SHL PUSH1 0x0 MSTORE PUSH1 0x22 PUSH1 0x4 MSTORE PUSH1 0x24 PUSH1 0x0 REVERT JUMPDEST SWAP2 PUSH1 0x7F AND SWAP2 PUSH2 0x2CF4 JUMP JUMPDEST SWAP1 PUSH1 0x40 MLOAD SWAP2 DUP3 PUSH1 0x0 DUP3 SLOAD SWAP3 PUSH2 0x2D33 DUP5 PUSH2 0x2CE5 JUMP JUMPDEST DUP1 DUP5 MSTORE SWAP4 PUSH1 0x1 DUP2 AND SWAP1 DUP2 ISZERO PUSH2 0x2DA1 JUMPI POP PUSH1 0x1 EQ PUSH2 0x2D5A JUMPI JUMPDEST POP PUSH2 0x2D58 SWAP3 POP SUB DUP4 PUSH2 0x2B83 JUMP JUMPDEST JUMP JUMPDEST SWAP1 POP PUSH1 0x0 SWAP3 SWAP2 SWAP3 MSTORE PUSH1 0x20 PUSH1 0x0 KECCAK256 SWAP1 PUSH1 0x0 SWAP2 JUMPDEST DUP2 DUP4 LT PUSH2 0x2D85 JUMPI POP POP SWAP1 PUSH1 0x20 PUSH2 0x2D58 SWAP3 DUP3 ADD ADD CODESIZE PUSH2 0x2D4B JUMP JUMPDEST PUSH1 0x20 SWAP2 SWAP4 POP DUP1 PUSH1 0x1 SWAP2 SLOAD DUP4 DUP6 DUP10 ADD ADD MSTORE ADD SWAP2 ADD SWAP1 SWAP2 DUP5 SWAP3 PUSH2 0x2D6C JUMP JUMPDEST SWAP1 POP PUSH1 0x20 SWAP3 POP PUSH2 0x2D58 SWAP5 SWAP2 POP PUSH1 0xFF NOT AND DUP3 DUP5 ADD MSTORE ISZERO ISZERO PUSH1 0x5 SHL DUP3 ADD ADD CODESIZE PUSH2 0x2D4B JUMP JUMPDEST PUSH1 0x0 NOT DUP2 EQ PUSH2 0xF88 JUMPI PUSH1 0x1 ADD SWAP1 JUMP JUMPDEST SWAP2 SWAP1 DUP3 ADD DUP1 SWAP3 GT PUSH2 0xF88 JUMPI JUMP JUMPDEST DUP1 SLOAD PUSH9 0x10000000000000000 DUP2 LT ISZERO PUSH2 0xF2D JUMPI PUSH2 0x2E01 SWAP2 PUSH1 0x1 DUP3 ADD DUP2 SSTORE PUSH2 0x2CB7 JUMP JUMPDEST DUP2 SWAP3 SWAP2 SLOAD SWAP1 PUSH1 0x3 SHL SWAP2 DUP3 SHL SWAP2 PUSH1 0x0 NOT SWAP1 SHL NOT AND OR SWAP1 SSTORE JUMP JUMPDEST SWAP2 SWAP1 DUP3 SUB SWAP2 DUP3 GT PUSH2 0xF88 JUMPI JUMP JUMPDEST DUP2 DUP2 MUL SWAP3 SWAP2 DUP2 ISZERO SWAP2 DUP5 DIV EQ OR ISZERO PUSH2 0xF88 JUMPI JUMP JUMPDEST PUSH1 0x1 DUP1 PUSH1 0xA0 SHL SUB AND PUSH1 0x0 MSTORE PUSH1 0x9 PUSH1 0x20 MSTORE PUSH1 0x40 PUSH1 0x0 KECCAK256 PUSH1 0x40 MLOAD SWAP1 PUSH2 0x2E5B DUP3 PUSH2 0x2B67 JUMP JUMPDEST DUP1 SLOAD DUP1 DUP4 MSTORE PUSH1 0x1 DUP3 ADD SLOAD PUSH1 0x20 DUP5 ADD MSTORE PUSH1 0x2 DUP3 ADD SLOAD PUSH1 0x3 PUSH1 0x40 DUP6 ADD SWAP4 DUP3 DUP6 MSTORE ADD SLOAD SWAP2 DUP3 PUSH1 0x60 DUP7 ADD MSTORE ISZERO PUSH2 0x2ECB JUMPI POP PUSH2 0x2E92 SWAP1 TIMESTAMP PUSH2 0x2E19 JUMP JUMPDEST SWAP2 MLOAD SWAP2 PUSH2 0x3E8 DUP4 MUL SWAP3 DUP1 DUP5 DIV PUSH2 0x3E8 EQ SWAP1 ISZERO OR ISZERO PUSH2 0xF88 JUMPI PUSH2 0x2EC0 PUSH4 0x1E13380 SWAP2 PUSH2 0x2710 PUSH2 0x2EC8 SWAP6 DIV PUSH2 0x2E26 JUMP JUMPDEST DIV SWAP1 MLOAD PUSH2 0x2DD2 JUMP JUMPDEST SWAP1 JUMP JUMPDEST SWAP3 POP POP POP SWAP1 JUMP JUMPDEST ISZERO PUSH2 0x2ED9 JUMPI JUMP JUMPDEST PUSH1 0x40 MLOAD PUSH3 0x461BCD PUSH1 0xE5 SHL DUP2 MSTORE PUSH1 0x20 PUSH1 0x4 DUP3 ADD MSTORE PUSH1 0x10 PUSH1 0x24 DUP3 ADD MSTORE PUSH16 0x125B9D985B1A590818DB185A5B481251 PUSH1 0x82 SHL PUSH1 0x44 DUP3 ADD MSTORE PUSH1 0x64 SWAP1 REVERT JUMPDEST ISZERO PUSH2 0x2F18 JUMPI JUMP JUMPDEST PUSH1 0x40 MLOAD PUSH3 0x461BCD PUSH1 0xE5 SHL DUP2 MSTORE PUSH1 0x20 PUSH1 0x4 DUP3 ADD MSTORE PUSH1 0x11 PUSH1 0x24 DUP3 ADD MSTORE PUSH17 0x436C61696D206E6F742070656E64696E67 PUSH1 0x78 SHL PUSH1 0x44 DUP3 ADD MSTORE PUSH1 0x64 SWAP1 REVERT JUMPDEST ISZERO PUSH2 0x2F58 JUMPI JUMP JUMPDEST PUSH1 0x40 MLOAD PUSH3 0x461BCD PUSH1 0xE5 SHL DUP2 MSTORE PUSH1 0x20 PUSH1 0x4 DUP3 ADD MSTORE PUSH1 0x1B PUSH1 0x24 DUP3 ADD MSTORE PUSH32 0x4E6F7420617574686F72697A656420696E76657374696761746F720000000000 PUSH1 0x44 DUP3 ADD MSTORE PUSH1 0x64 SWAP1 REVERT JUMPDEST PUSH2 0x2FE4 SWAP3 SWAP2 PUSH5 0x496CEBB800 SWAP5 PUSH2 0x2FDF SWAP3 PUSH2 0x2FB6 DUP2 PUSH2 0x2BFC JUMP JUMPDEST PUSH1 0x0 MSTORE PUSH1 0xD PUSH1 0x20 MSTORE PUSH1 0x40 PUSH1 0x0 KECCAK256 SWAP1 PUSH2 0x2FCD DUP2 PUSH2 0x2C1C JUMP JUMPDEST PUSH1 0x0 MSTORE PUSH1 0x20 MSTORE PUSH1 0x40 PUSH1 0x0 KECCAK256 SLOAD SWAP1 PUSH2 0x2E26 JUMP JUMPDEST PUSH2 0x2E26 JUMP JUMPDEST DIV SWAP1 JUMP JUMPDEST PUSH1 0x0 DUP1 JUMPDEST PUSH1 0x5 DUP2 LT PUSH2 0x2FF8 JUMPI POP SWAP1 JUMP JUMPDEST SWAP1 PUSH2 0x3029 PUSH1 0x1 SWAP2 PUSH2 0x3008 DUP5 PUSH2 0x2BFC JUMP JUMPDEST PUSH2 0x3011 DUP5 PUSH2 0x2BFC JUMP JUMPDEST DUP4 PUSH1 0x0 MSTORE PUSH1 0xA PUSH1 0x20 MSTORE PUSH1 0x2 PUSH1 0x40 PUSH1 0x0 KECCAK256 ADD SLOAD SWAP1 PUSH2 0x2DD2 JUMP JUMPDEST SWAP2 ADD PUSH2 0x2FEC JUMP JUMPDEST PUSH1 0x0 PUSH1 0x1 PUSH1 0x3 SLOAD SWAP1 JUMPDEST DUP2 DUP2 LT PUSH2 0x3045 JUMPI POP POP SWAP1 JUMP JUMPDEST DUP1 PUSH1 0x0 MSTORE PUSH1 0x5 PUSH1 0x20 MSTORE PUSH1 0xFF PUSH1 0x6 PUSH1 0x40 PUSH1 0x0 KECCAK256 ADD SLOAD AND PUSH2 0x3063 DUP2 PUSH2 0x2C1C JUMP JUMPDEST ISZERO DUP1 PUSH2 0x309E JUMPI JUMPDEST PUSH2 0x3077 JUMPI JUMPDEST PUSH1 0x1 ADD PUSH2 0x3039 JUMP JUMPDEST SWAP2 PUSH2 0x3096 PUSH1 0x1 SWAP2 DUP5 PUSH1 0x0 MSTORE PUSH1 0x5 PUSH1 0x20 MSTORE PUSH1 0x2 PUSH1 0x40 PUSH1 0x0 KECCAK256 ADD SLOAD SWAP1 PUSH2 0x2DD2 JUMP JUMPDEST SWAP3 SWAP1 POP PUSH2 0x306F JUMP JUMPDEST POP DUP1 PUSH1 0x0 MSTORE PUSH1 0x5 PUSH1 0x20 MSTORE PUSH1 0x5 PUSH1 0x40 PUSH1 0x0 KECCAK256 ADD SLOAD TIMESTAMP GT ISZERO PUSH2 0x306A JUMP JUMPDEST PUSH1 0x2 PUSH1 0x1 SLOAD EQ PUSH2 0x30CA JUMPI PUSH1 0x2 PUSH1 0x1 SSTORE JUMP JUMPDEST PUSH4 0x3EE5AEB5 PUSH1 0xE0 SHL PUSH1 0x0 MSTORE PUSH1 0x4 PUSH1 0x0 REVERT JUMPDEST PUSH1 0x1 PUSH1 0x1 PUSH1 0xA0 SHL SUB AND PUSH1 0x0 SWAP1 DUP2 MSTORE PUSH1 0x9 PUSH1 0x20 MSTORE PUSH1 0x40 SWAP1 KECCAK256 DUP1 SLOAD SWAP1 DUP2 ISZERO PUSH2 0x3146 JUMPI PUSH1 0x3 DUP2 ADD SWAP2 PUSH2 0x310B DUP4 SLOAD TIMESTAMP PUSH2 0x2E19 JUMP JUMPDEST SWAP1 PUSH2 0x3E8 DUP2 MUL SWAP1 DUP2 DIV PUSH2 0x3E8 SUB PUSH2 0xF88 JUMPI PUSH4 0x1E13380 PUSH2 0x3134 PUSH2 0x313F SWAP4 PUSH2 0x2710 PUSH1 0x2 SWAP5 DIV PUSH2 0x2E26 JUMP JUMPDEST DIV SWAP3 ADD SWAP2 DUP3 SLOAD PUSH2 0x2DD2 JUMP JUMPDEST SWAP1 SSTORE TIMESTAMP SWAP1 SSTORE JUMP JUMPDEST POP POP JUMP JUMPDEST PUSH1 0xFF PUSH1 0x2 SLOAD AND PUSH2 0x3156 JUMPI JUMP JUMPDEST PUSH4 0xD93C0665 PUSH1 0xE0 SHL PUSH1 0x0 MSTORE PUSH1 0x4 PUSH1 0x0 REVERT JUMPDEST PUSH1 0x0 SLOAD PUSH1 0x1 PUSH1 0x1 PUSH1 0xA0 SHL SUB AND CALLER SUB PUSH2 0x317B JUMPI JUMP JUMPDEST PUSH4 0x118CDAA7 PUSH1 0xE0 SHL PUSH1 0x0 MSTORE CALLER PUSH1 0x4 MSTORE PUSH1 0x24 PUSH1 0x0 REVERT INVALID LOG2 PUSH5 0x6970667358 0x22 SLT KECCAK256 0xB8 MCOPY SWAP12 0x28 0xED SIGNEXTEND 0x27 SSTORE SGT PC RETURNDATASIZE 0xF6 0xC1 0xCE 0xF6 PUSH21 0x6495372CD2DA6CBA2BC4FF15E8E0D57964736F6C63 NUMBER STOP ADDMOD SHR STOP CALLER "
        },
        "methodIdentifiers": {
          "FRAUD_PENALTY()": "238dcf88",
          "INVESTIGATION_PERIOD()": "5edcc348",
          "MAX_COVERAGE_RATIO()": "82670986",
          "MIN_STAKE_AMOUNT()": "27ed7188",
          "addInvestigator(address)": "e5078ed7",
          "addOracle(address)": "df5dd1a5",
          "authorizedInvestigators(address)": "df9e9de8",
          "authorizedOracles(address)": "61c992a3",
          "calculatePendingRewards(address)": "097aad10",
          "calculatePremium(uint8,uint256,uint256,uint8)": "9f169273",
          "claimRewards()": "372500ab",
          "claims(uint256)": "a888c2cd",
          "createPolicy(uint8,uint256,uint256,uint8,string)": "991c6cfc",
          "emergencyWithdraw()": "db2e21bc",
          "getClaim(uint256)": "5aef2447",
          "getInsurancePool(uint8)": "7a1419a1",
          "getPolicy(uint256)": "2b07fce3",
          "getStakeInfo(address)": "c3453153",
          "getTotalActiveCoverage()": "e1c8b86f",
          "getTotalPoolFunds()": "b31ef5bb",
          "getUserClaims(address)": "7bcb4a64",
          "getUserPolicies(address)": "19ac4614",
          "insurancePools(uint8)": "1988a684",
          "investigateClaim(uint256,uint8,uint256,string)": "8606f9a5",
          "oracleApproveClaim(uint256,uint256)": "80ef3183",
          "owner()": "8da5cb5b",
          "pause()": "8456cb59",
          "paused()": "5c975abb",
          "payClaim(uint256)": "d70356cc",
          "policies(uint256)": "d3e89483",
          "premiumRates(uint8,uint8)": "07efa984",
          "removeInvestigator(address)": "4c5e3e85",
          "removeOracle(address)": "fdc85fc4",
          "renounceOwnership()": "715018a6",
          "reportFraud(uint256)": "cab3990f",
          "stake()": "3a4b66f1",
          "stakes(address)": "16934fc4",
          "submitClaim(uint256,uint256,string)": "06964de7",
          "togglePoolStatus(uint8)": "eebcb0a9",
          "transferOwnership(address)": "f2fde38b",
          "unpause()": "3f4ba83a",
          "updatePoolRewardRate(uint8,uint256)": "53f49834",
          "updatePremiumRate(uint8,uint8,uint256)": "7b73ba67",
          "userClaims(address,uint256)": "ca9748ea",
          "userPolicies(address,uint256)": "3d36adc5",
          "withdrawStake(uint256)": "25d5971f"
        }
      }
    }
  }
}