{
  "contracts/MessageBoard.sol": {
    "MessageBoard": {
      "abi": [
        {
          "anonymous": false,
          "inputs": [
            {
              "indexed": true,
              "internalType": "uint256",
              "name": "messageId",
              "type": "uint256"
            },
            {
              "indexed": true,
              "internalType": "address",
              "name": "author",
              "type": "address"
            }
          ],
          "name": "MessageDeleted",
          "type": "event"
        },
        {
          "anonymous": false,
          "inputs": [
            {
              "indexed": true,
              "internalType": "uint256",
              "name": "messageId",
              "type": "uint256"
            },
            {
              "indexed": true,
              "internalType": "address",
              "name": "liker",
              "type": "address"
            }
          ],
          "name": "MessageLiked",
          "type": "event"
        },
        {
          "anonymous": false,
          "inputs": [
            {
              "indexed": true,
              "internalType": "uint256",
              "name": "messageId",
              "type": "uint256"
            },
            {
              "indexed": true,
              "internalType": "address",
              "name": "author",
              "type": "address"
            },
            {
              "indexed": false,
              "internalType": "string",
              "name": "content",
              "type": "string"
            }
          ],
          "name": "MessagePosted",
          "type": "event"
        },
        {
          "inputs": [
            {
              "internalType": "uint256",
              "name": "_messageId",
              "type": "uint256"
            }
          ],
          "name": "deleteMessage",
          "outputs": [],
          "stateMutability": "nonpayable",
          "type": "function"
        },
        {
          "inputs": [
            {
              "internalType": "uint256",
              "name": "_messageId",
              "type": "uint256"
            }
          ],
          "name": "getMessage",
          "outputs": [
            {
              "internalType": "uint256",
              "name": "id",
              "type": "uint256"
            },
            {
              "internalType": "address",
              "name": "author",
              "type": "address"
            },
            {
              "internalType": "string",
              "name": "content",
              "type": "string"
            },
            {
              "internalType": "uint256",
              "name": "timestamp",
              "type": "uint256"
            },
            {
              "internalType": "uint256",
              "name": "likes",
              "type": "uint256"
            },
            {
              "internalType": "bool",
              "name": "active",
              "type": "bool"
            }
          ],
          "stateMutability": "view",
          "type": "function"
        },
        {
          "inputs": [],
          "name": "getPlatformStats",
          "outputs": [
            {
              "internalType": "uint256",
              "name": "totalActiveMessages",
              "type": "uint256"
            },
            {
              "internalType": "uint256",
              "name": "totalLikesGiven",
              "type": "uint256"
            },
            {
              "internalType": "uint256",
              "name": "totalUsers",
              "type": "uint256"
            }
          ],
          "stateMutability": "view",
          "type": "function"
        },
        {
          "inputs": [],
          "name": "getRecentMessages",
          "outputs": [
            {
              "internalType": "uint256[]",
              "name": "",
              "type": "uint256[]"
            }
          ],
          "stateMutability": "view",
          "type": "function"
        },
        {
          "inputs": [],
          "name": "getTopMessages",
          "outputs": [
            {
              "internalType": "uint256[]",
              "name": "",
              "type": "uint256[]"
            }
          ],
          "stateMutability": "view",
          "type": "function"
        },
        {
          "inputs": [
            {
              "internalType": "address",
              "name": "_user",
              "type": "address"
            }
          ],
          "name": "getUserMessages",
          "outputs": [
            {
              "internalType": "uint256[]",
              "name": "",
              "type": "uint256[]"
            }
          ],
          "stateMutability": "view",
          "type": "function"
        },
        {
          "inputs": [
            {
              "internalType": "address",
              "name": "_user",
              "type": "address"
            }
          ],
          "name": "getUserStats",
          "outputs": [
            {
              "internalType": "uint256",
              "name": "messageCount",
              "type": "uint256"
            },
            {
              "internalType": "uint256",
              "name": "totalLikesReceived",
              "type": "uint256"
            }
          ],
          "stateMutability": "view",
          "type": "function"
        },
        {
          "inputs": [
            {
              "internalType": "uint256",
              "name": "",
              "type": "uint256"
            },
            {
              "internalType": "address",
              "name": "",
              "type": "address"
            }
          ],
          "name": "hasLiked",
          "outputs": [
            {
              "internalType": "bool",
              "name": "",
              "type": "bool"
            }
          ],
          "stateMutability": "view",
          "type": "function"
        },
        {
          "inputs": [
            {
              "internalType": "uint256",
              "name": "_messageId",
              "type": "uint256"
            },
            {
              "internalType": "address",
              "name": "_user",
              "type": "address"
            }
          ],
          "name": "hasUserLiked",
          "outputs": [
            {
              "internalType": "bool",
              "name": "",
              "type": "bool"
            }
          ],
          "stateMutability": "view",
          "type": "function"
        },
        {
          "inputs": [
            {
              "internalType": "uint256",
              "name": "_messageId",
              "type": "uint256"
            }
          ],
          "name": "likeMessage",
          "outputs": [],
          "stateMutability": "nonpayable",
          "type": "function"
        },
        {
          "inputs": [
            {
              "internalType": "uint256",
              "name": "",
              "type": "uint256"
            }
          ],
          "name": "messages",
          "outputs": [
            {
              "internalType": "uint256",
              "name": "id",
              "type": "uint256"
            },
            {
              "internalType": "address",
              "name": "author",
              "type": "address"
            },
            {
              "internalType": "string",
              "name": "content",
              "type": "string"
            },
            {
              "internalType": "uint256",
              "name": "timestamp",
              "type": "uint256"
            },
            {
              "internalType": "uint256",
              "name": "likes",
              "type": "uint256"
            },
            {
              "internalType": "bool",
              "name": "active",
              "type": "bool"
            }
          ],
          "stateMutability": "view",
          "type": "function"
        },
        {
          "inputs": [
            {
              "internalType": "string",
              "name": "_content",
              "type": "string"
            }
          ],
          "name": "postMessage",
          "outputs": [],
          "stateMutability": "nonpayable",
          "type": "function"
        },
        {
          "inputs": [],
          "name": "totalLikes",
          "outputs": [
            {
              "internalType": "uint256",
              "name": "",
              "type": "uint256"
            }
          ],
          "stateMutability": "view",
          "type": "function"
        },
        {
          "inputs": [],
          "name": "totalMessages",
          "outputs": [
            {
              "internalType": "uint256",
              "name": "",
              "type": "uint256"
            }
          ],
          "stateMutability": "view",
          "type": "function"
        },
        {
          "inputs": [
            {
              "internalType": "address",
              "name": "",
              "type": "address"
            }
          ],
          "name": "userMessageCount",
          "outputs": [
            {
              "internalType": "uint256",
              "name": "",
              "type": "uint256"
            }
          ],
          "stateMutability": "view",
          "type": "function"
        },
        {
          "inputs": [
            {
              "internalType": "address",
              "name": "",
              "type": "address"
            },
            {
              "internalType": "uint256",
              "name": "",
              "type": "uint256"
            }
          ],
          "name": "userMessages",
          "outputs": [
            {
              "internalType": "uint256",
              "name": "",
              "type": "uint256"
            }
          ],
          "stateMutability": "view",
          "type": "function"
        },
        {
          "inputs": [
            {
              "internalType": "address",
              "name": "",
              "type": "address"
            }
          ],
          "name": "userTotalLikes",
          "outputs": [
            {
              "internalType": "uint256",
              "name": "",
              "type": "uint256"
            }
          ],
          "stateMutability": "view",
          "type": "function"
        }
      ],
      "evm": {
        "bytecode": {
          "linkReferences": {},
          "object": "60808060405234601a57600160005561110d90816100208239f35b600080fdfe6080604052600436101561001257600080fd5b60003560e01c80630d80fefd14610d745780630f90d90014610d56578063136d888314610caf578063178769c914610c75578063402f0fa0146105545780634baeb4db14610a7e5780634e43603a14610a325780635a506ebc146109f85780636630f88f1461065c57806386f79edb146105a15780638fb7092c146105545780639428cda3146104fb578063951166c0146104dd57806398d63d3d1461045a578063b888690a14610307578063e0830a95146101d75763fea39311146100d757600080fd5b346101d25760003660031901126101d2576040516101606100f88183610e2d565b600a8252601f19013660208301376000805460001981019081116101be575b801515806101b4575b1561016e5780600052600360205260ff6005604060002001541661014d575b6101489061106c565b610117565b90610166818361016061014894876110c3565b52611006565b91905061013f565b5061017881611091565b9160005b82811061019557604051806101918682610fcc565b0390f35b806101a2600192846110c3565b516101ad82876110c3565b520161017c565b50600a8210610120565b634e487b7160e01b82526011600452602482fd5b600080fd5b346101d25760003660031901126101d2576040516101f660c082610e2d565b6005815260a036602083013760008054908060015b838110806102fd575b156102ba5780600052600360205260ff60056040600020015416806102a0575b610247575b61024290611006565b61020b565b91808361016061025793886110c3565b9160058303610239579050600084516004101561028c575060a084015160009081526003602052604090206004015490610239565b634e487b7160e01b81526032600452602490fd5b508060005260036020528160046040600020015411610234565b84836102c581611091565b9160005b8281106102de57604051806101918682610fcc565b806102eb600192846110c3565b516102f682876110c3565b52016102c9565b5060058310610214565b346101d25760203660031901126101d2576004358015158061044f575b61032d9061102b565b6000818152600360205260409020600101546001600160a01b031633036104175780600052600360205260ff60056040600020015416156103d257806000526003602052600560406000200160ff19815416905561038c60015461106c565b60015533600052600660205260406000206103a7815461106c565b905533907ffb2787660bc2cbdfc289209f8fc92a07a17109a8f520025df91f322e51da7947600080a3005b60405162461bcd60e51b815260206004820152601760248201527f4d65737361676520616c72656164792064656c657465640000000000000000006044820152606490fd5b60405162461bcd60e51b815260206004820152601060248201526f4e6f7420796f7572206d65737361676560801b6044820152606490fd5b506000548110610324565b346101d25760203660031901126101d2576001600160a01b0361047b610f72565b166000526004602052604060002060405190816020825491828152019160005260206000209060005b8181106104c757610191856104bb81870382610e2d565b60405191829182610fcc565b82548452602090930192600192830192016104a4565b346101d25760003660031901126101d2576020600154604051908152f35b346101d25760403660031901126101d257610514610f72565b6001600160a01b03166000908152600460205260409020805460243591908210156101d25760209161054591610f9e565b90549060031b1c604051908152f35b346101d25760403660031901126101d25761056d610f88565b600435600052600560205260406000209060018060a01b0316600052602052602060ff604060002054166040519015158152f35b346101d25760203660031901126101d25760043580151580610651575b6105c79061102b565b600052600360205260406000206040516105e081610e11565b8154815260018201546001600160a01b031660208201908152906101919061060a60028501610e4f565b93846040830152600381015480606084015260ff60056004840154938460808701520154161515928360a0820152519460018060a01b039051169560405196879687610f34565b5060005481106105be565b346101d25760203660031901126101d25760043567ffffffffffffffff81116101d257366023820112156101d257806004013567ffffffffffffffff811161088c57604051916106b6601f8301601f191660200184610e2d565b81835236602483830101116101d2578160009260246020930183860137830101528051156109b35761011881511161096057600054906106f582611006565b6000556040519161070583610e11565b8083526020830133815260408401938385526060810142815260808201906000825260a083019360018552856000526003602052604060002093518455600184019060018060a01b039051166bffffffffffffffffffffffff60a01b82541617905560028301965196875167ffffffffffffffff811161088c576107898254610dd7565b601f8111610918575b506020601f82116001146108ad57819060059798999a6000926108a2575b50508160011b916000199060031b1c19161790555b516003830155516004820155019051151560ff80198354169116179055336000526004602052604060002080546801000000000000000081101561088c5761081291600182018155610f9e565b81549060031b9083821b91600019901b1916179055336000526006602052604060002061083f8154611006565b905561084c600154611006565b6001557f16effde6b8c5f78279aca5974057ff6b6fd8c9ab5e96994c7f1b62cbfcbbd78b604051602081528061088733956020830190610ef3565b0390a3005b634e487b7160e01b600052604160045260246000fd5b015190508a806107b0565b601f1982169983600052816000209a60005b818110610900575091600598999a9b918460019594106108e7575b505050811b0190556107c5565b015160001960f88460031b161c191690558a80806108da565b838301518d556001909c019b602093840193016108bf565b826000526020600020601f830160051c81019160208410610956575b601f0160051c01905b81811061094a5750610792565b6000815560010161093d565b9091508190610934565b60405162461bcd60e51b815260206004820152602560248201527f4d65737361676520746f6f206c6f6e6720286d61782032383020636861726163604482015264746572732960d81b6064820152608490fd5b60405162461bcd60e51b815260206004820152601760248201527f4d6573736167652063616e6e6f7420626520656d7074790000000000000000006044820152606490fd5b346101d25760203660031901126101d2576001600160a01b03610a19610f72565b1660005260066020526020604060002054604051908152f35b346101d25760203660031901126101d25760406001600160a01b03610a55610f72565b168060005260066020528160002054906000526007602052816000205482519182526020820152f35b346101d25760203660031901126101d25760043580151580610c6a575b610aa49061102b565b80600052600360205260ff6005604060002001541615610c3057600081815260056020908152604080832033845290915290205460ff16610beb576000818152600360205260409020600101546001600160a01b03163314610ba6578060005260036020526004604060002001610b1b8154611006565b905560008181526005602090815260408083203384528252808320805460ff191660019081179091558484526003835281842001546001600160a01b03168352600790915290208054610b6d90611006565b9055610b7a600254611006565b60025533907f518ee79129b832b137fb93434354b830b11710eebd5204954b1da274475fa285600080a3005b60405162461bcd60e51b815260206004820152601c60248201527f43616e6e6f74206c696b6520796f7572206f776e206d657373616765000000006044820152606490fd5b60405162461bcd60e51b815260206004820152601a60248201527f416c7265616479206c696b65642074686973206d6573736167650000000000006044820152606490fd5b60405162461bcd60e51b81526020600482015260126024820152714d657373616765206e6f742061637469766560701b6044820152606490fd5b506000548110610a9b565b346101d25760203660031901126101d2576001600160a01b03610c96610f72565b1660005260076020526020604060002054604051908152f35b346101d25760003660031901126101d2576000805460015b818110610cea576060836001549060025460405192835260208301526040820152f35b80600052600360205260ff6005604060002001541680610d26575b610d12575b600101610cc7565b91610d1e600191611006565b929050610d0a565b5080600052600360205260018060a01b036001604060002001541660005260066020526040600020541515610d05565b346101d25760003660031901126101d2576020600254604051908152f35b346101d25760203660031901126101d2576004356000908152600360205260409020805460018201546001600160a01b03169161019190610db760028201610e4f565b90600381015460ff60056004840154930154169260405196879687610f34565b90600182811c92168015610e07575b6020831014610df157565b634e487b7160e01b600052602260045260246000fd5b91607f1691610de6565b60c0810190811067ffffffffffffffff82111761088c57604052565b90601f8019910116810190811067ffffffffffffffff82111761088c57604052565b9060405191826000825492610e6384610dd7565b8084529360018116908115610ed15750600114610e8a575b50610e8892500383610e2d565b565b90506000929192526020600020906000915b818310610eb5575050906020610e889282010138610e7b565b6020919350806001915483858901015201910190918492610e9c565b905060209250610e8894915060ff191682840152151560051b82010138610e7b565b919082519283825260005b848110610f1f575050826000602080949584010152601f8019910116010190565b80602080928401015182828601015201610efe565b94919260a094979693610f60928752600180871b0316602087015260c0604087015260c0860190610ef3565b95606085015260808401521515910152565b600435906001600160a01b03821682036101d257565b602435906001600160a01b03821682036101d257565b8054821015610fb65760005260206000200190600090565b634e487b7160e01b600052603260045260246000fd5b602060408183019282815284518094520192019060005b818110610ff05750505090565b8251845260209384019390920191600101610fe3565b60001981146110155760010190565b634e487b7160e01b600052601160045260246000fd5b1561103257565b60405162461bcd60e51b8152602060048201526012602482015271125b9d985b1a59081b595cdcd859d948125160721b6044820152606490fd5b8015611015576000190190565b67ffffffffffffffff811161088c5760051b60200190565b9061109b82611079565b6110a86040519182610e2d565b82815280926110b9601f1991611079565b0190602036910137565b8051821015610fb65760209160051b01019056fea26469706673582212202e283359fca8856e9c2895c907b60bcb374cac4011fbbf00078eb58ed28f182a64736f6c634300081c0033",
          "opcodes": "PUSH1 0x80 DUP1 PUSH1 0x40 MSTORE CALLVALUE PUSH1 0x1A JUMPI PUSH1 0x1 PUSH1 0x0 SSTORE PUSH2 0x110D SWAP1 DUP2 PUSH2 0x20 DUP3 CODECOPY RETURN JUMPDEST PUSH1 0x0 DUP1 REVERT INVALID PUSH1 0x80 PUSH1 0x40 MSTORE PUSH1 0x4 CALLDATASIZE LT ISZERO PUSH2 0x12 JUMPI PUSH1 0x0 DUP1 REVERT JUMPDEST PUSH1 0x0 CALLDATALOAD PUSH1 0xE0 SHR DUP1 PUSH4 0xD80FEFD EQ PUSH2 0xD74 JUMPI DUP1 PUSH4 0xF90D900 EQ PUSH2 0xD56 JUMPI DUP1 PUSH4 0x136D8883 EQ PUSH2 0xCAF JUMPI DUP1 PUSH4 0x178769C9 EQ PUSH2 0xC75 JUMPI DUP1 PUSH4 0x402F0FA0 EQ PUSH2 0x554 JUMPI DUP1 PUSH4 0x4BAEB4DB EQ PUSH2 0xA7E JUMPI DUP1 PUSH4 0x4E43603A EQ PUSH2 0xA32 JUMPI DUP1 PUSH4 0x5A506EBC EQ PUSH2 0x9F8 JUMPI DUP1 PUSH4 0x6630F88F EQ PUSH2 0x65C JUMPI DUP1 PUSH4 0x86F79EDB EQ PUSH2 0x5A1 JUMPI DUP1 PUSH4 0x8FB7092C EQ PUSH2 0x554 JUMPI DUP1 PUSH4 0x9428CDA3 EQ PUSH2 0x4FB JUMPI DUP1 PUSH4 0x951166C0 EQ PUSH2 0x4DD JUMPI DUP1 PUSH4 0x98D63D3D EQ PUSH2 0x45A JUMPI DUP1 PUSH4 0xB888690A EQ PUSH2 0x307 JUMPI DUP1 PUSH4 0xE0830A95 EQ PUSH2 0x1D7 JUMPI PUSH4 0xFEA39311 EQ PUSH2 0xD7 JUMPI PUSH1 0x0 DUP1 REVERT JUMPDEST CALLVALUE PUSH2 0x1D2 JUMPI PUSH1 0x0 CALLDATASIZE PUSH1 0x3 NOT ADD SLT PUSH2 0x1D2 JUMPI PUSH1 0x40 MLOAD PUSH2 0x160 PUSH2 0xF8 DUP2 DUP4 PUSH2 0xE2D JUMP JUMPDEST PUSH1 0xA DUP3 MSTORE PUSH1 0x1F NOT ADD CALLDATASIZE PUSH1 0x20 DUP4 ADD CALLDATACOPY PUSH1 0x0 DUP1 SLOAD PUSH1 0x0 NOT DUP2 ADD SWAP1 DUP2 GT PUSH2 0x1BE JUMPI JUMPDEST DUP1 ISZERO ISZERO DUP1 PUSH2 0x1B4 JUMPI JUMPDEST ISZERO PUSH2 0x16E JUMPI DUP1 PUSH1 0x0 MSTORE PUSH1 0x3 PUSH1 0x20 MSTORE PUSH1 0xFF PUSH1 0x5 PUSH1 0x40 PUSH1 0x0 KECCAK256 ADD SLOAD AND PUSH2 0x14D JUMPI JUMPDEST PUSH2 0x148 SWAP1 PUSH2 0x106C JUMP JUMPDEST PUSH2 0x117 JUMP JUMPDEST SWAP1 PUSH2 0x166 DUP2 DUP4 PUSH2 0x160 PUSH2 0x148 SWAP5 DUP8 PUSH2 0x10C3 JUMP JUMPDEST MSTORE PUSH2 0x1006 JUMP JUMPDEST SWAP2 SWAP1 POP PUSH2 0x13F JUMP JUMPDEST POP PUSH2 0x178 DUP2 PUSH2 0x1091 JUMP JUMPDEST SWAP2 PUSH1 0x0 JUMPDEST DUP3 DUP2 LT PUSH2 0x195 JUMPI PUSH1 0x40 MLOAD DUP1 PUSH2 0x191 DUP7 DUP3 PUSH2 0xFCC JUMP JUMPDEST SUB SWAP1 RETURN JUMPDEST DUP1 PUSH2 0x1A2 PUSH1 0x1 SWAP3 DUP5 PUSH2 0x10C3 JUMP JUMPDEST MLOAD PUSH2 0x1AD DUP3 DUP8 PUSH2 0x10C3 JUMP JUMPDEST MSTORE ADD PUSH2 0x17C JUMP JUMPDEST POP PUSH1 0xA DUP3 LT PUSH2 0x120 JUMP JUMPDEST PUSH4 0x4E487B71 PUSH1 0xE0 SHL DUP3 MSTORE PUSH1 0x11 PUSH1 0x4 MSTORE PUSH1 0x24 DUP3 REVERT JUMPDEST PUSH1 0x0 DUP1 REVERT JUMPDEST CALLVALUE PUSH2 0x1D2 JUMPI PUSH1 0x0 CALLDATASIZE PUSH1 0x3 NOT ADD SLT PUSH2 0x1D2 JUMPI PUSH1 0x40 MLOAD PUSH2 0x1F6 PUSH1 0xC0 DUP3 PUSH2 0xE2D JUMP JUMPDEST PUSH1 0x5 DUP2 MSTORE PUSH1 0xA0 CALLDATASIZE PUSH1 0x20 DUP4 ADD CALLDATACOPY PUSH1 0x0 DUP1 SLOAD SWAP1 DUP1 PUSH1 0x1 JUMPDEST DUP4 DUP2 LT DUP1 PUSH2 0x2FD JUMPI JUMPDEST ISZERO PUSH2 0x2BA JUMPI DUP1 PUSH1 0x0 MSTORE PUSH1 0x3 PUSH1 0x20 MSTORE PUSH1 0xFF PUSH1 0x5 PUSH1 0x40 PUSH1 0x0 KECCAK256 ADD SLOAD AND DUP1 PUSH2 0x2A0 JUMPI JUMPDEST PUSH2 0x247 JUMPI JUMPDEST PUSH2 0x242 SWAP1 PUSH2 0x1006 JUMP JUMPDEST PUSH2 0x20B JUMP JUMPDEST SWAP2 DUP1 DUP4 PUSH2 0x160 PUSH2 0x257 SWAP4 DUP9 PUSH2 0x10C3 JUMP JUMPDEST SWAP2 PUSH1 0x5 DUP4 SUB PUSH2 0x239 JUMPI SWAP1 POP PUSH1 0x0 DUP5 MLOAD PUSH1 0x4 LT ISZERO PUSH2 0x28C JUMPI POP PUSH1 0xA0 DUP5 ADD MLOAD PUSH1 0x0 SWAP1 DUP2 MSTORE PUSH1 0x3 PUSH1 0x20 MSTORE PUSH1 0x40 SWAP1 KECCAK256 PUSH1 0x4 ADD SLOAD SWAP1 PUSH2 0x239 JUMP JUMPDEST PUSH4 0x4E487B71 PUSH1 0xE0 SHL DUP2 MSTORE PUSH1 0x32 PUSH1 0x4 MSTORE PUSH1 0x24 SWAP1 REVERT JUMPDEST POP DUP1 PUSH1 0x0 MSTORE PUSH1 0x3 PUSH1 0x20 MSTORE DUP2 PUSH1 0x4 PUSH1 0x40 PUSH1 0x0 KECCAK256 ADD SLOAD GT PUSH2 0x234 JUMP JUMPDEST DUP5 DUP4 PUSH2 0x2C5 DUP2 PUSH2 0x1091 JUMP JUMPDEST SWAP2 PUSH1 0x0 JUMPDEST DUP3 DUP2 LT PUSH2 0x2DE JUMPI PUSH1 0x40 MLOAD DUP1 PUSH2 0x191 DUP7 DUP3 PUSH2 0xFCC JUMP JUMPDEST DUP1 PUSH2 0x2EB PUSH1 0x1 SWAP3 DUP5 PUSH2 0x10C3 JUMP JUMPDEST MLOAD PUSH2 0x2F6 DUP3 DUP8 PUSH2 0x10C3 JUMP JUMPDEST MSTORE ADD PUSH2 0x2C9 JUMP JUMPDEST POP PUSH1 0x5 DUP4 LT PUSH2 0x214 JUMP JUMPDEST CALLVALUE PUSH2 0x1D2 JUMPI PUSH1 0x20 CALLDATASIZE PUSH1 0x3 NOT ADD SLT PUSH2 0x1D2 JUMPI PUSH1 0x4 CALLDATALOAD DUP1 ISZERO ISZERO DUP1 PUSH2 0x44F JUMPI JUMPDEST PUSH2 0x32D SWAP1 PUSH2 0x102B JUMP JUMPDEST PUSH1 0x0 DUP2 DUP2 MSTORE PUSH1 0x3 PUSH1 0x20 MSTORE PUSH1 0x40 SWAP1 KECCAK256 PUSH1 0x1 ADD SLOAD PUSH1 0x1 PUSH1 0x1 PUSH1 0xA0 SHL SUB AND CALLER SUB PUSH2 0x417 JUMPI DUP1 PUSH1 0x0 MSTORE PUSH1 0x3 PUSH1 0x20 MSTORE PUSH1 0xFF PUSH1 0x5 PUSH1 0x40 PUSH1 0x0 KECCAK256 ADD SLOAD AND ISZERO PUSH2 0x3D2 JUMPI DUP1 PUSH1 0x0 MSTORE PUSH1 0x3 PUSH1 0x20 MSTORE PUSH1 0x5 PUSH1 0x40 PUSH1 0x0 KECCAK256 ADD PUSH1 0xFF NOT DUP2 SLOAD AND SWAP1 SSTORE PUSH2 0x38C PUSH1 0x1 SLOAD PUSH2 0x106C JUMP JUMPDEST PUSH1 0x1 SSTORE CALLER PUSH1 0x0 MSTORE PUSH1 0x6 PUSH1 0x20 MSTORE PUSH1 0x40 PUSH1 0x0 KECCAK256 PUSH2 0x3A7 DUP2 SLOAD PUSH2 0x106C JUMP JUMPDEST SWAP1 SSTORE CALLER SWAP1 PUSH32 0xFB2787660BC2CBDFC289209F8FC92A07A17109A8F520025DF91F322E51DA7947 PUSH1 0x0 DUP1 LOG3 STOP JUMPDEST PUSH1 0x40 MLOAD PUSH3 0x461BCD PUSH1 0xE5 SHL DUP2 MSTORE PUSH1 0x20 PUSH1 0x4 DUP3 ADD MSTORE PUSH1 0x17 PUSH1 0x24 DUP3 ADD MSTORE PUSH32 0x4D65737361676520616C72656164792064656C65746564000000000000000000 PUSH1 0x44 DUP3 ADD MSTORE PUSH1 0x64 SWAP1 REVERT JUMPDEST PUSH1 0x40 MLOAD PUSH3 0x461BCD PUSH1 0xE5 SHL DUP2 MSTORE PUSH1 0x20 PUSH1 0x4 DUP3 ADD MSTORE PUSH1 0x10 PUSH1 0x24 DUP3 ADD MSTORE PUSH16 0x4E6F7420796F7572206D657373616765 PUSH1 0x80 SHL PUSH1 0x44 DUP3 ADD MSTORE PUSH1 0x64 SWAP1 REVERT JUMPDEST POP PUSH1 0x0 SLOAD DUP2 LT PUSH2 0x324 JUMP JUMPDEST CALLVALUE PUSH2 0x1D2 JUMPI PUSH1 0x20 CALLDATASIZE PUSH1 0x3 NOT ADD SLT PUSH2 0x1D2 JUMPI PUSH1 0x1 PUSH1 0x1 PUSH1 0xA0 SHL SUB PUSH2 0x47B PUSH2 0xF72 JUMP JUMPDEST AND PUSH1 0x0 MSTORE PUSH1 0x4 PUSH1 0x20 MSTORE PUSH1 0x40 PUSH1 0x0 KECCAK256 PUSH1 0x40 MLOAD SWAP1 DUP2 PUSH1 0x20 DUP3 SLOAD SWAP2 DUP3 DUP2 MSTORE ADD SWAP2 PUSH1 0x0 MSTORE PUSH1 0x20 PUSH1 0x0 KECCAK256 SWAP1 PUSH1 0x0 JUMPDEST DUP2 DUP2 LT PUSH2 0x4C7 JUMPI PUSH2 0x191 DUP6 PUSH2 0x4BB DUP2 DUP8 SUB DUP3 PUSH2 0xE2D JUMP JUMPDEST PUSH1 0x40 MLOAD SWAP2 DUP3 SWAP2 DUP3 PUSH2 0xFCC JUMP JUMPDEST DUP3 SLOAD DUP5 MSTORE PUSH1 0x20 SWAP1 SWAP4 ADD SWAP3 PUSH1 0x1 SWAP3 DUP4 ADD SWAP3 ADD PUSH2 0x4A4 JUMP JUMPDEST CALLVALUE PUSH2 0x1D2 JUMPI PUSH1 0x0 CALLDATASIZE PUSH1 0x3 NOT ADD SLT PUSH2 0x1D2 JUMPI PUSH1 0x20 PUSH1 0x1 SLOAD PUSH1 0x40 MLOAD SWAP1 DUP2 MSTORE RETURN JUMPDEST CALLVALUE PUSH2 0x1D2 JUMPI PUSH1 0x40 CALLDATASIZE PUSH1 0x3 NOT ADD SLT PUSH2 0x1D2 JUMPI PUSH2 0x514 PUSH2 0xF72 JUMP JUMPDEST PUSH1 0x1 PUSH1 0x1 PUSH1 0xA0 SHL SUB AND PUSH1 0x0 SWAP1 DUP2 MSTORE PUSH1 0x4 PUSH1 0x20 MSTORE PUSH1 0x40 SWAP1 KECCAK256 DUP1 SLOAD PUSH1 0x24 CALLDATALOAD SWAP2 SWAP1 DUP3 LT ISZERO PUSH2 0x1D2 JUMPI PUSH1 0x20 SWAP2 PUSH2 0x545 SWAP2 PUSH2 0xF9E JUMP JUMPDEST SWAP1 SLOAD SWAP1 PUSH1 0x3 SHL SHR PUSH1 0x40 MLOAD SWAP1 DUP2 MSTORE RETURN JUMPDEST CALLVALUE PUSH2 0x1D2 JUMPI PUSH1 0x40 CALLDATASIZE PUSH1 0x3 NOT ADD SLT PUSH2 0x1D2 JUMPI PUSH2 0x56D PUSH2 0xF88 JUMP JUMPDEST PUSH1 0x4 CALLDATALOAD PUSH1 0x0 MSTORE PUSH1 0x5 PUSH1 0x20 MSTORE PUSH1 0x40 PUSH1 0x0 KECCAK256 SWAP1 PUSH1 0x1 DUP1 PUSH1 0xA0 SHL SUB AND PUSH1 0x0 MSTORE PUSH1 0x20 MSTORE PUSH1 0x20 PUSH1 0xFF PUSH1 0x40 PUSH1 0x0 KECCAK256 SLOAD AND PUSH1 0x40 MLOAD SWAP1 ISZERO ISZERO DUP2 MSTORE RETURN JUMPDEST CALLVALUE PUSH2 0x1D2 JUMPI PUSH1 0x20 CALLDATASIZE PUSH1 0x3 NOT ADD SLT PUSH2 0x1D2 JUMPI PUSH1 0x4 CALLDATALOAD DUP1 ISZERO ISZERO DUP1 PUSH2 0x651 JUMPI JUMPDEST PUSH2 0x5C7 SWAP1 PUSH2 0x102B JUMP JUMPDEST PUSH1 0x0 MSTORE PUSH1 0x3 PUSH1 0x20 MSTORE PUSH1 0x40 PUSH1 0x0 KECCAK256 PUSH1 0x40 MLOAD PUSH2 0x5E0 DUP2 PUSH2 0xE11 JUMP JUMPDEST DUP2 SLOAD DUP2 MSTORE PUSH1 0x1 DUP3 ADD SLOAD PUSH1 0x1 PUSH1 0x1 PUSH1 0xA0 SHL SUB AND PUSH1 0x20 DUP3 ADD SWAP1 DUP2 MSTORE SWAP1 PUSH2 0x191 SWAP1 PUSH2 0x60A PUSH1 0x2 DUP6 ADD PUSH2 0xE4F JUMP JUMPDEST SWAP4 DUP5 PUSH1 0x40 DUP4 ADD MSTORE PUSH1 0x3 DUP2 ADD SLOAD DUP1 PUSH1 0x60 DUP5 ADD MSTORE PUSH1 0xFF PUSH1 0x5 PUSH1 0x4 DUP5 ADD SLOAD SWAP4 DUP5 PUSH1 0x80 DUP8 ADD MSTORE ADD SLOAD AND ISZERO ISZERO SWAP3 DUP4 PUSH1 0xA0 DUP3 ADD MSTORE MLOAD SWAP5 PUSH1 0x1 DUP1 PUSH1 0xA0 SHL SUB SWAP1 MLOAD AND SWAP6 PUSH1 0x40 MLOAD SWAP7 DUP8 SWAP7 DUP8 PUSH2 0xF34 JUMP JUMPDEST POP PUSH1 0x0 SLOAD DUP2 LT PUSH2 0x5BE JUMP JUMPDEST CALLVALUE PUSH2 0x1D2 JUMPI PUSH1 0x20 CALLDATASIZE PUSH1 0x3 NOT ADD SLT PUSH2 0x1D2 JUMPI PUSH1 0x4 CALLDATALOAD PUSH8 0xFFFFFFFFFFFFFFFF DUP2 GT PUSH2 0x1D2 JUMPI CALLDATASIZE PUSH1 0x23 DUP3 ADD SLT ISZERO PUSH2 0x1D2 JUMPI DUP1 PUSH1 0x4 ADD CALLDATALOAD PUSH8 0xFFFFFFFFFFFFFFFF DUP2 GT PUSH2 0x88C JUMPI PUSH1 0x40 MLOAD SWAP2 PUSH2 0x6B6 PUSH1 0x1F DUP4 ADD PUSH1 0x1F NOT AND PUSH1 0x20 ADD DUP5 PUSH2 0xE2D JUMP JUMPDEST DUP2 DUP4 MSTORE CALLDATASIZE PUSH1 0x24 DUP4 DUP4 ADD ADD GT PUSH2 0x1D2 JUMPI DUP2 PUSH1 0x0 SWAP3 PUSH1 0x24 PUSH1 0x20 SWAP4 ADD DUP4 DUP7 ADD CALLDATACOPY DUP4 ADD ADD MSTORE DUP1 MLOAD ISZERO PUSH2 0x9B3 JUMPI PUSH2 0x118 DUP2 MLOAD GT PUSH2 0x960 JUMPI PUSH1 0x0 SLOAD SWAP1 PUSH2 0x6F5 DUP3 PUSH2 0x1006 JUMP JUMPDEST PUSH1 0x0 SSTORE PUSH1 0x40 MLOAD SWAP2 PUSH2 0x705 DUP4 PUSH2 0xE11 JUMP JUMPDEST DUP1 DUP4 MSTORE PUSH1 0x20 DUP4 ADD CALLER DUP2 MSTORE PUSH1 0x40 DUP5 ADD SWAP4 DUP4 DUP6 MSTORE PUSH1 0x60 DUP2 ADD TIMESTAMP DUP2 MSTORE PUSH1 0x80 DUP3 ADD SWAP1 PUSH1 0x0 DUP3 MSTORE PUSH1 0xA0 DUP4 ADD SWAP4 PUSH1 0x1 DUP6 MSTORE DUP6 PUSH1 0x0 MSTORE PUSH1 0x3 PUSH1 0x20 MSTORE PUSH1 0x40 PUSH1 0x0 KECCAK256 SWAP4 MLOAD DUP5 SSTORE PUSH1 0x1 DUP5 ADD SWAP1 PUSH1 0x1 DUP1 PUSH1 0xA0 SHL SUB SWAP1 MLOAD AND PUSH12 0xFFFFFFFFFFFFFFFFFFFFFFFF PUSH1 0xA0 SHL DUP3 SLOAD AND OR SWAP1 SSTORE PUSH1 0x2 DUP4 ADD SWAP7 MLOAD SWAP7 DUP8 MLOAD PUSH8 0xFFFFFFFFFFFFFFFF DUP2 GT PUSH2 0x88C JUMPI PUSH2 0x789 DUP3 SLOAD PUSH2 0xDD7 JUMP JUMPDEST PUSH1 0x1F DUP2 GT PUSH2 0x918 JUMPI JUMPDEST POP PUSH1 0x20 PUSH1 0x1F DUP3 GT PUSH1 0x1 EQ PUSH2 0x8AD JUMPI DUP2 SWAP1 PUSH1 0x5 SWAP8 SWAP9 SWAP10 SWAP11 PUSH1 0x0 SWAP3 PUSH2 0x8A2 JUMPI JUMPDEST POP POP DUP2 PUSH1 0x1 SHL SWAP2 PUSH1 0x0 NOT SWAP1 PUSH1 0x3 SHL SHR NOT AND OR SWAP1 SSTORE JUMPDEST MLOAD PUSH1 0x3 DUP4 ADD SSTORE MLOAD PUSH1 0x4 DUP3 ADD SSTORE ADD SWAP1 MLOAD ISZERO ISZERO PUSH1 0xFF DUP1 NOT DUP4 SLOAD AND SWAP2 AND OR SWAP1 SSTORE CALLER PUSH1 0x0 MSTORE PUSH1 0x4 PUSH1 0x20 MSTORE PUSH1 0x40 PUSH1 0x0 KECCAK256 DUP1 SLOAD PUSH9 0x10000000000000000 DUP2 LT ISZERO PUSH2 0x88C JUMPI PUSH2 0x812 SWAP2 PUSH1 0x1 DUP3 ADD DUP2 SSTORE PUSH2 0xF9E JUMP JUMPDEST DUP2 SLOAD SWAP1 PUSH1 0x3 SHL SWAP1 DUP4 DUP3 SHL SWAP2 PUSH1 0x0 NOT SWAP1 SHL NOT AND OR SWAP1 SSTORE CALLER PUSH1 0x0 MSTORE PUSH1 0x6 PUSH1 0x20 MSTORE PUSH1 0x40 PUSH1 0x0 KECCAK256 PUSH2 0x83F DUP2 SLOAD PUSH2 0x1006 JUMP JUMPDEST SWAP1 SSTORE PUSH2 0x84C PUSH1 0x1 SLOAD PUSH2 0x1006 JUMP JUMPDEST PUSH1 0x1 SSTORE PUSH32 0x16EFFDE6B8C5F78279ACA5974057FF6B6FD8C9AB5E96994C7F1B62CBFCBBD78B PUSH1 0x40 MLOAD PUSH1 0x20 DUP2 MSTORE DUP1 PUSH2 0x887 CALLER SWAP6 PUSH1 0x20 DUP4 ADD SWAP1 PUSH2 0xEF3 JUMP JUMPDEST SUB SWAP1 LOG3 STOP JUMPDEST PUSH4 0x4E487B71 PUSH1 0xE0 SHL PUSH1 0x0 MSTORE PUSH1 0x41 PUSH1 0x4 MSTORE PUSH1 0x24 PUSH1 0x0 REVERT JUMPDEST ADD MLOAD SWAP1 POP DUP11 DUP1 PUSH2 0x7B0 JUMP JUMPDEST PUSH1 0x1F NOT DUP3 AND SWAP10 DUP4 PUSH1 0x0 MSTORE DUP2 PUSH1 0x0 KECCAK256 SWAP11 PUSH1 0x0 JUMPDEST DUP2 DUP2 LT PUSH2 0x900 JUMPI POP SWAP2 PUSH1 0x5 SWAP9 SWAP10 SWAP11 SWAP12 SWAP2 DUP5 PUSH1 0x1 SWAP6 SWAP5 LT PUSH2 0x8E7 JUMPI JUMPDEST POP POP POP DUP2 SHL ADD SWAP1 SSTORE PUSH2 0x7C5 JUMP JUMPDEST ADD MLOAD PUSH1 0x0 NOT PUSH1 0xF8 DUP5 PUSH1 0x3 SHL AND SHR NOT AND SWAP1 SSTORE DUP11 DUP1 DUP1 PUSH2 0x8DA JUMP JUMPDEST DUP4 DUP4 ADD MLOAD DUP14 SSTORE PUSH1 0x1 SWAP1 SWAP13 ADD SWAP12 PUSH1 0x20 SWAP4 DUP5 ADD SWAP4 ADD PUSH2 0x8BF JUMP JUMPDEST DUP3 PUSH1 0x0 MSTORE PUSH1 0x20 PUSH1 0x0 KECCAK256 PUSH1 0x1F DUP4 ADD PUSH1 0x5 SHR DUP2 ADD SWAP2 PUSH1 0x20 DUP5 LT PUSH2 0x956 JUMPI JUMPDEST PUSH1 0x1F ADD PUSH1 0x5 SHR ADD SWAP1 JUMPDEST DUP2 DUP2 LT PUSH2 0x94A JUMPI POP PUSH2 0x792 JUMP JUMPDEST PUSH1 0x0 DUP2 SSTORE PUSH1 0x1 ADD PUSH2 0x93D JUMP JUMPDEST SWAP1 SWAP2 POP DUP2 SWAP1 PUSH2 0x934 JUMP JUMPDEST PUSH1 0x40 MLOAD PUSH3 0x461BCD PUSH1 0xE5 SHL DUP2 MSTORE PUSH1 0x20 PUSH1 0x4 DUP3 ADD MSTORE PUSH1 0x25 PUSH1 0x24 DUP3 ADD MSTORE PUSH32 0x4D65737361676520746F6F206C6F6E6720286D61782032383020636861726163 PUSH1 0x44 DUP3 ADD MSTORE PUSH5 0x7465727329 PUSH1 0xD8 SHL PUSH1 0x64 DUP3 ADD MSTORE PUSH1 0x84 SWAP1 REVERT JUMPDEST PUSH1 0x40 MLOAD PUSH3 0x461BCD PUSH1 0xE5 SHL DUP2 MSTORE PUSH1 0x20 PUSH1 0x4 DUP3 ADD MSTORE PUSH1 0x17 PUSH1 0x24 DUP3 ADD MSTORE PUSH32 0x4D6573736167652063616E6E6F7420626520656D707479000000000000000000 PUSH1 0x44 DUP3 ADD MSTORE PUSH1 0x64 SWAP1 REVERT JUMPDEST CALLVALUE PUSH2 0x1D2 JUMPI PUSH1 0x20 CALLDATASIZE PUSH1 0x3 NOT ADD SLT PUSH2 0x1D2 JUMPI PUSH1 0x1 PUSH1 0x1 PUSH1 0xA0 SHL SUB PUSH2 0xA19 PUSH2 0xF72 JUMP JUMPDEST AND PUSH1 0x0 MSTORE PUSH1 0x6 PUSH1 0x20 MSTORE PUSH1 0x20 PUSH1 0x40 PUSH1 0x0 KECCAK256 SLOAD PUSH1 0x40 MLOAD SWAP1 DUP2 MSTORE RETURN JUMPDEST CALLVALUE PUSH2 0x1D2 JUMPI PUSH1 0x20 CALLDATASIZE PUSH1 0x3 NOT ADD SLT PUSH2 0x1D2 JUMPI PUSH1 0x40 PUSH1 0x1 PUSH1 0x1 PUSH1 0xA0 SHL SUB PUSH2 0xA55 PUSH2 0xF72 JUMP JUMPDEST AND DUP1 PUSH1 0x0 MSTORE PUSH1 0x6 PUSH1 0x20 MSTORE DUP2 PUSH1 0x0 KECCAK256 SLOAD SWAP1 PUSH1 0x0 MSTORE PUSH1 0x7 PUSH1 0x20 MSTORE DUP2 PUSH1 0x0 KECCAK256 SLOAD DUP3 MLOAD SWAP2 DUP3 MSTORE PUSH1 0x20 DUP3 ADD MSTORE RETURN JUMPDEST CALLVALUE PUSH2 0x1D2 JUMPI PUSH1 0x20 CALLDATASIZE PUSH1 0x3 NOT ADD SLT PUSH2 0x1D2 JUMPI PUSH1 0x4 CALLDATALOAD DUP1 ISZERO ISZERO DUP1 PUSH2 0xC6A JUMPI JUMPDEST PUSH2 0xAA4 SWAP1 PUSH2 0x102B JUMP JUMPDEST DUP1 PUSH1 0x0 MSTORE PUSH1 0x3 PUSH1 0x20 MSTORE PUSH1 0xFF PUSH1 0x5 PUSH1 0x40 PUSH1 0x0 KECCAK256 ADD SLOAD AND ISZERO PUSH2 0xC30 JUMPI PUSH1 0x0 DUP2 DUP2 MSTORE PUSH1 0x5 PUSH1 0x20 SWAP1 DUP2 MSTORE PUSH1 0x40 DUP1 DUP4 KECCAK256 CALLER DUP5 MSTORE SWAP1 SWAP2 MSTORE SWAP1 KECCAK256 SLOAD PUSH1 0xFF AND PUSH2 0xBEB JUMPI PUSH1 0x0 DUP2 DUP2 MSTORE PUSH1 0x3 PUSH1 0x20 MSTORE PUSH1 0x40 SWAP1 KECCAK256 PUSH1 0x1 ADD SLOAD PUSH1 0x1 PUSH1 0x1 PUSH1 0xA0 SHL SUB AND CALLER EQ PUSH2 0xBA6 JUMPI DUP1 PUSH1 0x0 MSTORE PUSH1 0x3 PUSH1 0x20 MSTORE PUSH1 0x4 PUSH1 0x40 PUSH1 0x0 KECCAK256 ADD PUSH2 0xB1B DUP2 SLOAD PUSH2 0x1006 JUMP JUMPDEST SWAP1 SSTORE PUSH1 0x0 DUP2 DUP2 MSTORE PUSH1 0x5 PUSH1 0x20 SWAP1 DUP2 MSTORE PUSH1 0x40 DUP1 DUP4 KECCAK256 CALLER DUP5 MSTORE DUP3 MSTORE DUP1 DUP4 KECCAK256 DUP1 SLOAD PUSH1 0xFF NOT AND PUSH1 0x1 SWAP1 DUP2 OR SWAP1 SWAP2 SSTORE DUP5 DUP5 MSTORE PUSH1 0x3 DUP4 MSTORE DUP2 DUP5 KECCAK256 ADD SLOAD PUSH1 0x1 PUSH1 0x1 PUSH1 0xA0 SHL SUB AND DUP4 MSTORE PUSH1 0x7 SWAP1 SWAP2 MSTORE SWAP1 KECCAK256 DUP1 SLOAD PUSH2 0xB6D SWAP1 PUSH2 0x1006 JUMP JUMPDEST SWAP1 SSTORE PUSH2 0xB7A PUSH1 0x2 SLOAD PUSH2 0x1006 JUMP JUMPDEST PUSH1 0x2 SSTORE CALLER SWAP1 PUSH32 0x518EE79129B832B137FB93434354B830B11710EEBD5204954B1DA274475FA285 PUSH1 0x0 DUP1 LOG3 STOP JUMPDEST PUSH1 0x40 MLOAD PUSH3 0x461BCD PUSH1 0xE5 SHL DUP2 MSTORE PUSH1 0x20 PUSH1 0x4 DUP3 ADD MSTORE PUSH1 0x1C PUSH1 0x24 DUP3 ADD MSTORE PUSH32 0x43616E6E6F74206C696B6520796F7572206F776E206D65737361676500000000 PUSH1 0x44 DUP3 ADD MSTORE PUSH1 0x64 SWAP1 REVERT JUMPDEST PUSH1 0x40 MLOAD PUSH3 0x461BCD PUSH1 0xE5 SHL DUP2 MSTORE PUSH1 0x20 PUSH1 0x4 DUP3 ADD MSTORE PUSH1 0x1A PUSH1 0x24 DUP3 ADD MSTORE PUSH32 0x416C7265616479206C696B65642074686973206D657373616765000000000000 PUSH1 0x44 DUP3 ADD MSTORE PUSH1 0x64 SWAP1 REVERT JUMPDEST PUSH1 0x40 MLOAD PUSH3 0x461BCD PUSH1 0xE5 SHL DUP2 MSTORE PUSH1 0x20 PUSH1 0x4 DUP3 ADD MSTORE PUSH1 0x12 PUSH1 0x24 DUP3 ADD MSTORE PUSH18 0x4D657373616765206E6F7420616374697665 PUSH1 0x70 SHL PUSH1 0x44 DUP3 ADD MSTORE PUSH1 0x64 SWAP1 REVERT JUMPDEST POP PUSH1 0x0 SLOAD DUP2 LT PUSH2 0xA9B JUMP JUMPDEST CALLVALUE PUSH2 0x1D2 JUMPI PUSH1 0x20 CALLDATASIZE PUSH1 0x3 NOT ADD SLT PUSH2 0x1D2 JUMPI PUSH1 0x1 PUSH1 0x1 PUSH1 0xA0 SHL SUB PUSH2 0xC96 PUSH2 0xF72 JUMP JUMPDEST AND PUSH1 0x0 MSTORE PUSH1 0x7 PUSH1 0x20 MSTORE PUSH1 0x20 PUSH1 0x40 PUSH1 0x0 KECCAK256 SLOAD PUSH1 0x40 MLOAD SWAP1 DUP2 MSTORE RETURN JUMPDEST CALLVALUE PUSH2 0x1D2 JUMPI PUSH1 0x0 CALLDATASIZE PUSH1 0x3 NOT ADD SLT PUSH2 0x1D2 JUMPI PUSH1 0x0 DUP1 SLOAD PUSH1 0x1 JUMPDEST DUP2 DUP2 LT PUSH2 0xCEA JUMPI PUSH1 0x60 DUP4 PUSH1 0x1 SLOAD SWAP1 PUSH1 0x2 SLOAD PUSH1 0x40 MLOAD SWAP3 DUP4 MSTORE PUSH1 0x20 DUP4 ADD MSTORE PUSH1 0x40 DUP3 ADD MSTORE RETURN JUMPDEST DUP1 PUSH1 0x0 MSTORE PUSH1 0x3 PUSH1 0x20 MSTORE PUSH1 0xFF PUSH1 0x5 PUSH1 0x40 PUSH1 0x0 KECCAK256 ADD SLOAD AND DUP1 PUSH2 0xD26 JUMPI JUMPDEST PUSH2 0xD12 JUMPI JUMPDEST PUSH1 0x1 ADD PUSH2 0xCC7 JUMP JUMPDEST SWAP2 PUSH2 0xD1E PUSH1 0x1 SWAP2 PUSH2 0x1006 JUMP JUMPDEST SWAP3 SWAP1 POP PUSH2 0xD0A JUMP JUMPDEST POP DUP1 PUSH1 0x0 MSTORE PUSH1 0x3 PUSH1 0x20 MSTORE PUSH1 0x1 DUP1 PUSH1 0xA0 SHL SUB PUSH1 0x1 PUSH1 0x40 PUSH1 0x0 KECCAK256 ADD SLOAD AND PUSH1 0x0 MSTORE PUSH1 0x6 PUSH1 0x20 MSTORE PUSH1 0x40 PUSH1 0x0 KECCAK256 SLOAD ISZERO ISZERO PUSH2 0xD05 JUMP JUMPDEST CALLVALUE PUSH2 0x1D2 JUMPI PUSH1 0x0 CALLDATASIZE PUSH1 0x3 NOT ADD SLT PUSH2 0x1D2 JUMPI PUSH1 0x20 PUSH1 0x2 SLOAD PUSH1 0x40 MLOAD SWAP1 DUP2 MSTORE RETURN JUMPDEST CALLVALUE PUSH2 0x1D2 JUMPI PUSH1 0x20 CALLDATASIZE PUSH1 0x3 NOT ADD SLT PUSH2 0x1D2 JUMPI PUSH1 0x4 CALLDATALOAD PUSH1 0x0 SWAP1 DUP2 MSTORE PUSH1 0x3 PUSH1 0x20 MSTORE PUSH1 0x40 SWAP1 KECCAK256 DUP1 SLOAD PUSH1 0x1 DUP3 ADD SLOAD PUSH1 0x1 PUSH1 0x1 PUSH1 0xA0 SHL SUB AND SWAP2 PUSH2 0x191 SWAP1 PUSH2 0xDB7 PUSH1 0x2 DUP3 ADD PUSH2 0xE4F JUMP JUMPDEST SWAP1 PUSH1 0x3 DUP2 ADD SLOAD PUSH1 0xFF PUSH1 0x5 PUSH1 0x4 DUP5 ADD SLOAD SWAP4 ADD SLOAD AND SWAP3 PUSH1 0x40 MLOAD SWAP7 DUP8 SWAP7 DUP8 PUSH2 0xF34 JUMP JUMPDEST SWAP1 PUSH1 0x1 DUP3 DUP2 SHR SWAP3 AND DUP1 ISZERO PUSH2 0xE07 JUMPI JUMPDEST PUSH1 0x20 DUP4 LT EQ PUSH2 0xDF1 JUMPI JUMP JUMPDEST PUSH4 0x4E487B71 PUSH1 0xE0 SHL PUSH1 0x0 MSTORE PUSH1 0x22 PUSH1 0x4 MSTORE PUSH1 0x24 PUSH1 0x0 REVERT JUMPDEST SWAP2 PUSH1 0x7F AND SWAP2 PUSH2 0xDE6 JUMP JUMPDEST PUSH1 0xC0 DUP2 ADD SWAP1 DUP2 LT PUSH8 0xFFFFFFFFFFFFFFFF DUP3 GT OR PUSH2 0x88C JUMPI PUSH1 0x40 MSTORE JUMP JUMPDEST SWAP1 PUSH1 0x1F DUP1 NOT SWAP2 ADD AND DUP2 ADD SWAP1 DUP2 LT PUSH8 0xFFFFFFFFFFFFFFFF DUP3 GT OR PUSH2 0x88C JUMPI PUSH1 0x40 MSTORE JUMP JUMPDEST SWAP1 PUSH1 0x40 MLOAD SWAP2 DUP3 PUSH1 0x0 DUP3 SLOAD SWAP3 PUSH2 0xE63 DUP5 PUSH2 0xDD7 JUMP JUMPDEST DUP1 DUP5 MSTORE SWAP4 PUSH1 0x1 DUP2 AND SWAP1 DUP2 ISZERO PUSH2 0xED1 JUMPI POP PUSH1 0x1 EQ PUSH2 0xE8A JUMPI JUMPDEST POP PUSH2 0xE88 SWAP3 POP SUB DUP4 PUSH2 0xE2D JUMP JUMPDEST JUMP JUMPDEST SWAP1 POP PUSH1 0x0 SWAP3 SWAP2 SWAP3 MSTORE PUSH1 0x20 PUSH1 0x0 KECCAK256 SWAP1 PUSH1 0x0 SWAP2 JUMPDEST DUP2 DUP4 LT PUSH2 0xEB5 JUMPI POP POP SWAP1 PUSH1 0x20 PUSH2 0xE88 SWAP3 DUP3 ADD ADD CODESIZE PUSH2 0xE7B JUMP JUMPDEST PUSH1 0x20 SWAP2 SWAP4 POP DUP1 PUSH1 0x1 SWAP2 SLOAD DUP4 DUP6 DUP10 ADD ADD MSTORE ADD SWAP2 ADD SWAP1 SWAP2 DUP5 SWAP3 PUSH2 0xE9C JUMP JUMPDEST SWAP1 POP PUSH1 0x20 SWAP3 POP PUSH2 0xE88 SWAP5 SWAP2 POP PUSH1 0xFF NOT AND DUP3 DUP5 ADD MSTORE ISZERO ISZERO PUSH1 0x5 SHL DUP3 ADD ADD CODESIZE PUSH2 0xE7B JUMP JUMPDEST SWAP2 SWAP1 DUP3 MLOAD SWAP3 DUP4 DUP3 MSTORE PUSH1 0x0 JUMPDEST DUP5 DUP2 LT PUSH2 0xF1F JUMPI POP POP DUP3 PUSH1 0x0 PUSH1 0x20 DUP1 SWAP5 SWAP6 DUP5 ADD ADD MSTORE PUSH1 0x1F DUP1 NOT SWAP2 ADD AND ADD ADD SWAP1 JUMP JUMPDEST DUP1 PUSH1 0x20 DUP1 SWAP3 DUP5 ADD ADD MLOAD DUP3 DUP3 DUP7 ADD ADD MSTORE ADD PUSH2 0xEFE JUMP JUMPDEST SWAP5 SWAP2 SWAP3 PUSH1 0xA0 SWAP5 SWAP8 SWAP7 SWAP4 PUSH2 0xF60 SWAP3 DUP8 MSTORE PUSH1 0x1 DUP1 DUP8 SHL SUB AND PUSH1 0x20 DUP8 ADD MSTORE PUSH1 0xC0 PUSH1 0x40 DUP8 ADD MSTORE PUSH1 0xC0 DUP7 ADD SWAP1 PUSH2 0xEF3 JUMP JUMPDEST SWAP6 PUSH1 0x60 DUP6 ADD MSTORE PUSH1 0x80 DUP5 ADD MSTORE ISZERO ISZERO SWAP2 ADD MSTORE JUMP JUMPDEST PUSH1 0x4 CALLDATALOAD SWAP1 PUSH1 0x1 PUSH1 0x1 PUSH1 0xA0 SHL SUB DUP3 AND DUP3 SUB PUSH2 0x1D2 JUMPI JUMP JUMPDEST PUSH1 0x24 CALLDATALOAD SWAP1 PUSH1 0x1 PUSH1 0x1 PUSH1 0xA0 SHL SUB DUP3 AND DUP3 SUB PUSH2 0x1D2 JUMPI JUMP JUMPDEST DUP1 SLOAD DUP3 LT ISZERO PUSH2 0xFB6 JUMPI PUSH1 0x0 MSTORE PUSH1 0x20 PUSH1 0x0 KECCAK256 ADD SWAP1 PUSH1 0x0 SWAP1 JUMP JUMPDEST PUSH4 0x4E487B71 PUSH1 0xE0 SHL PUSH1 0x0 MSTORE PUSH1 0x32 PUSH1 0x4 MSTORE PUSH1 0x24 PUSH1 0x0 REVERT JUMPDEST PUSH1 0x20 PUSH1 0x40 DUP2 DUP4 ADD SWAP3 DUP3 DUP2 MSTORE DUP5 MLOAD DUP1 SWAP5 MSTORE ADD SWAP3 ADD SWAP1 PUSH1 0x0 JUMPDEST DUP2 DUP2 LT PUSH2 0xFF0 JUMPI POP POP POP SWAP1 JUMP JUMPDEST DUP3 MLOAD DUP5 MSTORE PUSH1 0x20 SWAP4 DUP5 ADD SWAP4 SWAP1 SWAP3 ADD SWAP2 PUSH1 0x1 ADD PUSH2 0xFE3 JUMP JUMPDEST PUSH1 0x0 NOT DUP2 EQ PUSH2 0x1015 JUMPI PUSH1 0x1 ADD SWAP1 JUMP JUMPDEST PUSH4 0x4E487B71 PUSH1 0xE0 SHL PUSH1 0x0 MSTORE PUSH1 0x11 PUSH1 0x4 MSTORE PUSH1 0x24 PUSH1 0x0 REVERT JUMPDEST ISZERO PUSH2 0x1032 JUMPI JUMP JUMPDEST PUSH1 0x40 MLOAD PUSH3 0x461BCD PUSH1 0xE5 SHL DUP2 MSTORE PUSH1 0x20 PUSH1 0x4 DUP3 ADD MSTORE PUSH1 0x12 PUSH1 0x24 DUP3 ADD MSTORE PUSH18 0x125B9D985B1A59081B595CDCD859D9481251 PUSH1 0x72 SHL PUSH1 0x44 DUP3 ADD MSTORE PUSH1 0x64 SWAP1 REVERT JUMPDEST DUP1 ISZERO PUSH2 0x1015 JUMPI PUSH1 0x0 NOT ADD SWAP1 JUMP JUMPDEST PUSH8 0xFFFFFFFFFFFFFFFF DUP2 GT PUSH2 0x88C JUMPI PUSH1 0x5 SHL PUSH1 0x20 ADD SWAP1 JUMP JUMPDEST SWAP1 PUSH2 0x109B DUP3 PUSH2 0x1079 JUMP JUMPDEST PUSH2 0x10A8 PUSH1 0x40 MLOAD SWAP2 DUP3 PUSH2 0xE2D JUMP JUMPDEST DUP3 DUP2 MSTORE DUP1 SWAP3 PUSH2 0x10B9 PUSH1 0x1F NOT SWAP2 PUSH2 0x1079 JUMP JUMPDEST ADD SWAP1 PUSH1 0x20 CALLDATASIZE SWAP2 ADD CALLDATACOPY JUMP JUMPDEST DUP1 MLOAD DUP3 LT ISZERO PUSH2 0xFB6 JUMPI PUSH1 0x20 SWAP2 PUSH1 0x5 SHL ADD ADD SWAP1 JUMP INVALID LOG2 PUSH5 0x6970667358 0x22 SLT KECCAK256 0x2E 0x28 CALLER MSIZE 0xFC 0xA8 DUP6 PUSH15 0x9C2895C907B60BCB374CAC4011FBBF STOP SMOD DUP15 0xB5 DUP15 0xD2 DUP16 XOR 0x2A PUSH5 0x736F6C6343 STOP ADDMOD SHR STOP CALLER "
        },
        "methodIdentifiers": {
          "deleteMessage(uint256)": "b888690a",
          "getMessage(uint256)": "86f79edb",
          "getPlatformStats()": "136d8883",
          "getRecentMessages()": "fea39311",
          "getTopMessages()": "e0830a95",
          "getUserMessages(address)": "98d63d3d",
          "getUserStats(address)": "4e43603a",
          "hasLiked(uint256,address)": "8fb7092c",
          "hasUserLiked(uint256,address)": "402f0fa0",
          "likeMessage(uint256)": "4baeb4db",
          "messages(uint256)": "0d80fefd",
          "postMessage(string)": "6630f88f",
          "totalLikes()": "0f90d900",
          "totalMessages()": "951166c0",
          "userMessageCount(address)": "5a506ebc",
          "userMessages(address,uint256)": "9428cda3",
          "userTotalLikes(address)": "178769c9"
        }
      }
    }
  }
}