{
  "contracts/Greetings.sol": {
    "Greetings": {
      "abi": [
        {
          "inputs": [],
          "stateMutability": "nonpayable",
          "type": "constructor"
        },
        {
          "anonymous": false,
          "inputs": [
            {
              "indexed": false,
              "internalType": "string",
              "name": "oldDefault",
              "type": "string"
            },
            {
              "indexed": false,
              "internalType": "string",
              "name": "newDefault",
              "type": "string"
            },
            {
              "indexed": false,
              "internalType": "uint256",
              "name": "timestamp",
              "type": "uint256"
            }
          ],
          "name": "DefaultGreetingChanged",
          "type": "event"
        },
        {
          "anonymous": false,
          "inputs": [
            {
              "indexed": true,
              "internalType": "address",
              "name": "user",
              "type": "address"
            },
            {
              "indexed": false,
              "internalType": "string",
              "name": "greeting",
              "type": "string"
            },
            {
              "indexed": false,
              "internalType": "uint256",
              "name": "timestamp",
              "type": "uint256"
            }
          ],
          "name": "GreetingSet",
          "type": "event"
        },
        {
          "anonymous": false,
          "inputs": [
            {
              "indexed": true,
              "internalType": "address",
              "name": "user",
              "type": "address"
            },
            {
              "indexed": false,
              "internalType": "string",
              "name": "oldGreeting",
              "type": "string"
            },
            {
              "indexed": false,
              "internalType": "string",
              "name": "newGreeting",
              "type": "string"
            },
            {
              "indexed": false,
              "internalType": "uint256",
              "name": "timestamp",
              "type": "uint256"
            }
          ],
          "name": "GreetingUpdated",
          "type": "event"
        },
        {
          "inputs": [],
          "name": "defaultGreeting",
          "outputs": [
            {
              "internalType": "string",
              "name": "",
              "type": "string"
            }
          ],
          "stateMutability": "view",
          "type": "function"
        },
        {
          "inputs": [],
          "name": "getAllGreeters",
          "outputs": [
            {
              "internalType": "address[]",
              "name": "",
              "type": "address[]"
            }
          ],
          "stateMutability": "view",
          "type": "function"
        },
        {
          "inputs": [],
          "name": "getContractStats",
          "outputs": [
            {
              "internalType": "uint256",
              "name": "totalUsers",
              "type": "uint256"
            },
            {
              "internalType": "uint256",
              "name": "totalUpdates",
              "type": "uint256"
            },
            {
              "internalType": "string",
              "name": "currentDefault",
              "type": "string"
            },
            {
              "internalType": "address",
              "name": "contractOwner",
              "type": "address"
            }
          ],
          "stateMutability": "view",
          "type": "function"
        },
        {
          "inputs": [
            {
              "internalType": "address",
              "name": "_user",
              "type": "address"
            }
          ],
          "name": "getGreeting",
          "outputs": [
            {
              "internalType": "string",
              "name": "",
              "type": "string"
            }
          ],
          "stateMutability": "view",
          "type": "function"
        },
        {
          "inputs": [
            {
              "internalType": "address",
              "name": "_user",
              "type": "address"
            }
          ],
          "name": "getGreetingStats",
          "outputs": [
            {
              "internalType": "bool",
              "name": "hasSet",
              "type": "bool"
            },
            {
              "internalType": "uint256",
              "name": "updateCount",
              "type": "uint256"
            },
            {
              "internalType": "string",
              "name": "currentGreeting",
              "type": "string"
            }
          ],
          "stateMutability": "view",
          "type": "function"
        },
        {
          "inputs": [
            {
              "internalType": "uint256",
              "name": "_count",
              "type": "uint256"
            }
          ],
          "name": "getLatestGreetings",
          "outputs": [
            {
              "internalType": "address[]",
              "name": "",
              "type": "address[]"
            },
            {
              "internalType": "string[]",
              "name": "",
              "type": "string[]"
            }
          ],
          "stateMutability": "view",
          "type": "function"
        },
        {
          "inputs": [],
          "name": "getMyGreeting",
          "outputs": [
            {
              "internalType": "string",
              "name": "",
              "type": "string"
            }
          ],
          "stateMutability": "view",
          "type": "function"
        },
        {
          "inputs": [],
          "name": "getRandomGreeting",
          "outputs": [
            {
              "internalType": "address",
              "name": "greeter",
              "type": "address"
            },
            {
              "internalType": "string",
              "name": "greeting",
              "type": "string"
            }
          ],
          "stateMutability": "view",
          "type": "function"
        },
        {
          "inputs": [
            {
              "internalType": "uint256",
              "name": "",
              "type": "uint256"
            }
          ],
          "name": "greeters",
          "outputs": [
            {
              "internalType": "address",
              "name": "",
              "type": "address"
            }
          ],
          "stateMutability": "view",
          "type": "function"
        },
        {
          "inputs": [
            {
              "internalType": "address",
              "name": "",
              "type": "address"
            }
          ],
          "name": "greetingCount",
          "outputs": [
            {
              "internalType": "uint256",
              "name": "",
              "type": "uint256"
            }
          ],
          "stateMutability": "view",
          "type": "function"
        },
        {
          "inputs": [
            {
              "internalType": "address",
              "name": "",
              "type": "address"
            }
          ],
          "name": "hasGreeting",
          "outputs": [
            {
              "internalType": "bool",
              "name": "",
              "type": "bool"
            }
          ],
          "stateMutability": "view",
          "type": "function"
        },
        {
          "inputs": [
            {
              "internalType": "address",
              "name": "_user",
              "type": "address"
            }
          ],
          "name": "hasSetGreeting",
          "outputs": [
            {
              "internalType": "bool",
              "name": "",
              "type": "bool"
            }
          ],
          "stateMutability": "view",
          "type": "function"
        },
        {
          "inputs": [],
          "name": "owner",
          "outputs": [
            {
              "internalType": "address",
              "name": "",
              "type": "address"
            }
          ],
          "stateMutability": "view",
          "type": "function"
        },
        {
          "inputs": [
            {
              "internalType": "address",
              "name": "",
              "type": "address"
            }
          ],
          "name": "personalGreetings",
          "outputs": [
            {
              "internalType": "string",
              "name": "",
              "type": "string"
            }
          ],
          "stateMutability": "view",
          "type": "function"
        },
        {
          "inputs": [
            {
              "internalType": "string",
              "name": "_newDefault",
              "type": "string"
            }
          ],
          "name": "setDefaultGreeting",
          "outputs": [],
          "stateMutability": "nonpayable",
          "type": "function"
        },
        {
          "inputs": [
            {
              "internalType": "string",
              "name": "_greeting",
              "type": "string"
            }
          ],
          "name": "setGreeting",
          "outputs": [],
          "stateMutability": "nonpayable",
          "type": "function"
        },
        {
          "inputs": [],
          "name": "totalGreetings",
          "outputs": [
            {
              "internalType": "uint256",
              "name": "",
              "type": "uint256"
            }
          ],
          "stateMutability": "view",
          "type": "function"
        },
        {
          "inputs": [
            {
              "internalType": "address",
              "name": "_newOwner",
              "type": "address"
            }
          ],
          "name": "transferOwnership",
          "outputs": [],
          "stateMutability": "nonpayable",
          "type": "function"
        }
      ],
      "evm": {
        "bytecode": {
          "linkReferences": {},
          "object": "608060405234801561001057600080fd5b50600180546001600160a01b0319163317905560408051808201909152601b81527f48656c6c6f2066726f6d2043454c4f20626c6f636b636861696e2100000000006020820152600090610064908261010e565b5060006002556101cc565b634e487b7160e01b600052604160045260246000fd5b600181811c9082168061009957607f821691505b6020821081036100b957634e487b7160e01b600052602260045260246000fd5b50919050565b601f82111561010957806000526020600020601f840160051c810160208510156100e65750805b601f840160051c820191505b8181101561010657600081556001016100f2565b50505b505050565b81516001600160401b038111156101275761012761006f565b61013b816101358454610085565b846100bf565b6020601f82116001811461016f57600083156101575750848201515b600019600385901b1c1916600184901b178455610106565b600084815260208120601f198516915b8281101561019f578785015182556020948501946001909201910161017f565b50848210156101bd5786840151600019600387901b60f8161c191681555b50505050600190811b01905550565b6114d4806101db6000396000f3fe608060405234801561001057600080fd5b50600436106101165760003560e01c8063944953f5116100a2578063b528d8f211610071578063b528d8f2146102a2578063b5a71956146102ab578063dfe6b5d6146102be578063eadb6842146102d6578063f2fde38b146102e957600080fd5b8063944953f51461021e57806395333ac51461024057806395c8c47514610261578063a41368621461028d57600080fd5b80635c1000fe116100e95780635c1000fe146101945780636ea545e7146101aa578063791baac4146101d5578063841dc7d6146101dd5780638da5cb5b1461020b57600080fd5b806309a2da411461011b5780630e98d8c814610144578063269ddd5b146101595780632bb3e1eb1461018c575b600080fd5b61012e610129366004610f5c565b6102fc565b60405161013b9190610fd2565b60405180910390f35b61014c6103d5565b60405161013b919061102a565b61017c610167366004610f5c565b60056020526000908152604090205460ff1681565b604051901515815260200161013b565b61012e610437565b61019c610447565b60405161013b92919061103d565b6101bd6101b8366004611069565b6105c9565b6040516001600160a01b03909116815260200161013b565b61012e6105f3565b6101fd6101eb366004610f5c565b60046020526000908152604090205481565b60405190815260200161013b565b6001546101bd906001600160a01b031681565b61023161022c366004610f5c565b610681565b60405161013b93929190611082565b61025361024e366004611069565b610765565b60405161013b9291906110ac565b61017c61026f366004610f5c565b6001600160a01b031660009081526005602052604090205460ff1690565b6102a061029b366004611139565b610997565b005b6101fd60025481565b6102a06102b9366004611139565b610c39565b6102c6610d91565b60405161013b94939291906111f2565b61012e6102e4366004610f5c565b610ea1565b6102a06102f7366004610f5c565b610eba565b6001600160a01b03811660009081526005602052604090205460609060ff16156103c8576001600160a01b038216600090815260036020526040902080546103439061122a565b80601f016020809104026020016040519081016040528092919081815260200182805461036f9061122a565b80156103bc5780601f10610391576101008083540402835291602001916103bc565b820191906000526020600020905b81548152906001019060200180831161039f57829003601f168201915b50505050509050919050565b600080546103439061122a565b6060600680548060200260200160405190810160405280929190818152602001828054801561042d57602002820191906000526020600020905b81546001600160a01b0316815260019091019060200180831161040f575b5050505050905090565b6060610442336102fc565b905090565b60065460009060609061049a5760405162461bcd60e51b81526020600482015260166024820152754e6f206772656574696e677320617661696c61626c6560501b60448201526064015b60405180910390fd5b600654604051600091906104d990429044903390602001928352602083019190915260601b6bffffffffffffffffffffffff1916604082015260540190565b6040516020818303038152906040528051906020012060001c6104fc9190611264565b90506006818154811061051157610511611286565b60009182526020808320909101546001600160a01b0316808352600390915260409091208054919450906105449061122a565b80601f01602080910402602001604051908101604052809291908181526020018280546105709061122a565b80156105bd5780601f10610592576101008083540402835291602001916105bd565b820191906000526020600020905b8154815290600101906020018083116105a057829003601f168201915b50505050509150509091565b600681815481106105d957600080fd5b6000918252602090912001546001600160a01b0316905081565b600080546106009061122a565b80601f016020809104026020016040519081016040528092919081815260200182805461062c9061122a565b80156106795780601f1061064e57610100808354040283529160200191610679565b820191906000526020600020905b81548152906001019060200180831161065c57829003601f168201915b505050505081565b6001600160a01b03811660009081526005602090815260408083205460049092529091205460ff909116906060826106ba5760006106d3565b6001600160a01b03841660009081526003602052604090205b80546106de9061122a565b80601f016020809104026020016040519081016040528092919081815260200182805461070a9061122a565b80156107575780601f1061072c57610100808354040283529160200191610757565b820191906000526020600020905b81548152906001019060200180831161073a57829003601f168201915b505050505090509193909250565b6006546060908190839081111561077b57506006545b60008167ffffffffffffffff81111561079657610796611123565b6040519080825280602002602001820160405280156107bf578160200160208202803683370190505b50905060008267ffffffffffffffff8111156107dd576107dd611123565b60405190808252806020026020018201604052801561081057816020015b60608152602001906001900390816107fb5790505b50905060005b8381101561098b576006546000908290610832906001906112b2565b61083c91906112b2565b90506006818154811061085157610851611286565b9060005260206000200160009054906101000a90046001600160a01b031684838151811061088157610881611286565b60200260200101906001600160a01b031690816001600160a01b03168152505060036000600683815481106108b8576108b8611286565b60009182526020808320909101546001600160a01b03168352820192909252604001902080546108e79061122a565b80601f01602080910402602001604051908101604052809291908181526020018280546109139061122a565b80156109605780601f1061093557610100808354040283529160200191610960565b820191906000526020600020905b81548152906001019060200180831161094357829003601f168201915b505050505083838151811061097757610977611286565b602090810291909101015250600101610816565b50909590945092505050565b60008151116109e85760405162461bcd60e51b815260206004820152601860248201527f4772656574696e672063616e6e6f7420626520656d70747900000000000000006044820152606401610491565b61011881511115610a4a5760405162461bcd60e51b815260206004820152602660248201527f4772656574696e6720746f6f206c6f6e6720286d61782032383020636861726160448201526563746572732960d01b6064820152608401610491565b3360009081526003602052604081208054610a649061122a565b80601f0160208091040260200160405190810160405280929190818152602001828054610a909061122a565b8015610add5780601f10610ab257610100808354040283529160200191610add565b820191906000526020600020905b815481529060010190602001808311610ac057829003601f168201915b505033600090815260056020908152604080832054600390925290912094955060ff16939250610b1191508590508261131a565b5080610bce57336000818152600560205260408120805460ff1916600190811790915560068054918201815582527ff652222313e28459528d920b65115c16c04f3efc82aaedc97be59f3f377c0d3f0180546001600160a01b0319169092179091556002805491610b81836113d9565b9190505550336001600160a01b03167f3b170b219fec9f92dd77af1bdc20cc222366fd3cf9a055e249488222c84f4ca98442604051610bc19291906113f2565b60405180910390a2610c14565b336001600160a01b03167fcd6ac433661f14932369fde5a05de04fcc6bd091771cfaa1006b19fd594e6144838542604051610c0b93929190611414565b60405180910390a25b336000908152600460205260408120805491610c2f836113d9565b9190505550505050565b6001546001600160a01b03163314610c635760405162461bcd60e51b81526004016104919061144a565b6000815111610cb45760405162461bcd60e51b815260206004820181905260248201527f44656661756c74206772656574696e672063616e6e6f7420626520656d7074796044820152606401610491565b6000808054610cc29061122a565b80601f0160208091040260200160405190810160405280929190818152602001828054610cee9061122a565b8015610d3b5780601f10610d1057610100808354040283529160200191610d3b565b820191906000526020600020905b815481529060010190602001808311610d1e57829003601f168201915b505050505090508160009081610d51919061131a565b507f2379ebb0b7e7aee215e663631b5e2ac63c0a43fdf662dd7fc610d7b477d4cb19818342604051610d8593929190611414565b60405180910390a15050565b600254600060608180805b600654811015610df6576004600060068381548110610dbd57610dbd611286565b60009182526020808320909101546001600160a01b03168352820192909252604001902054610dec908361148b565b9150600101610d9c565b5080935060008054610e079061122a565b80601f0160208091040260200160405190810160405280929190818152602001828054610e339061122a565b8015610e805780601f10610e5557610100808354040283529160200191610e80565b820191906000526020600020905b815481529060010190602001808311610e6357829003601f168201915b50506001549899979893976001600160a01b03909416965092945050505050565b600360205260009081526040902080546106009061122a565b6001546001600160a01b03163314610ee45760405162461bcd60e51b81526004016104919061144a565b6001600160a01b038116610f3a5760405162461bcd60e51b815260206004820181905260248201527f4e6577206f776e65722063616e6e6f74206265207a65726f20616464726573736044820152606401610491565b600180546001600160a01b0319166001600160a01b0392909216919091179055565b600060208284031215610f6e57600080fd5b81356001600160a01b0381168114610f8557600080fd5b9392505050565b6000815180845260005b81811015610fb257602081850181015186830182015201610f96565b506000602082860101526020601f19601f83011685010191505092915050565b602081526000610f856020830184610f8c565b600081518084526020840193506020830160005b828110156110205781516001600160a01b0316865260209586019590910190600101610ff9565b5093949350505050565b602081526000610f856020830184610fe5565b6001600160a01b038316815260406020820181905260009061106190830184610f8c565b949350505050565b60006020828403121561107b57600080fd5b5035919050565b83151581528260208201526060604082015260006110a36060830184610f8c565b95945050505050565b6040815260006110bf6040830185610fe5565b828103602084015280845180835260208301915060208160051b8401016020870160005b8381101561111557601f198684030185526110ff838351610f8c565b60209586019590935091909101906001016110e3565b509098975050505050505050565b634e487b7160e01b600052604160045260246000fd5b60006020828403121561114b57600080fd5b813567ffffffffffffffff81111561116257600080fd5b8201601f8101841361117357600080fd5b803567ffffffffffffffff81111561118d5761118d611123565b604051601f8201601f19908116603f0116810167ffffffffffffffff811182821017156111bc576111bc611123565b6040528181528282016020018610156111d457600080fd5b81602084016020830137600091810160200191909152949350505050565b8481528360208201526080604082015260006112116080830185610f8c565b905060018060a01b038316606083015295945050505050565b600181811c9082168061123e57607f821691505b60208210810361125e57634e487b7160e01b600052602260045260246000fd5b50919050565b60008261128157634e487b7160e01b600052601260045260246000fd5b500690565b634e487b7160e01b600052603260045260246000fd5b634e487b7160e01b600052601160045260246000fd5b818103818111156112c5576112c561129c565b92915050565b601f82111561131557806000526020600020601f840160051c810160208510156112f25750805b601f840160051c820191505b8181101561131257600081556001016112fe565b50505b505050565b815167ffffffffffffffff81111561133457611334611123565b61134881611342845461122a565b846112cb565b6020601f82116001811461137c57600083156113645750848201515b600019600385901b1c1916600184901b178455611312565b600084815260208120601f198516915b828110156113ac578785015182556020948501946001909201910161138c565b50848210156113ca5786840151600019600387901b60f8161c191681555b50505050600190811b01905550565b6000600182016113eb576113eb61129c565b5060010190565b6040815260006114056040830185610f8c565b90508260208301529392505050565b6060815260006114276060830186610f8c565b82810360208401526114398186610f8c565b915050826040830152949350505050565b60208082526021908201527f4f6e6c79206f776e65722063616e2063616c6c20746869732066756e6374696f6040820152603760f91b606082015260800190565b808201808211156112c5576112c561129c56fea2646970667358221220624df1deca0d1178977b48b68e328c84f15b0ca44af6fe3fed66011ab45f3dda64736f6c634300081c0033",
          "opcodes": "PUSH1 0x80 PUSH1 0x40 MSTORE CALLVALUE DUP1 ISZERO PUSH2 0x10 JUMPI PUSH1 0x0 DUP1 REVERT JUMPDEST POP PUSH1 0x1 DUP1 SLOAD PUSH1 0x1 PUSH1 0x1 PUSH1 0xA0 SHL SUB NOT AND CALLER OR SWAP1 SSTORE PUSH1 0x40 DUP1 MLOAD DUP1 DUP3 ADD SWAP1 SWAP2 MSTORE PUSH1 0x1B DUP2 MSTORE PUSH32 0x48656C6C6F2066726F6D2043454C4F20626C6F636B636861696E210000000000 PUSH1 0x20 DUP3 ADD MSTORE PUSH1 0x0 SWAP1 PUSH2 0x64 SWAP1 DUP3 PUSH2 0x10E JUMP JUMPDEST POP PUSH1 0x0 PUSH1 0x2 SSTORE PUSH2 0x1CC JUMP JUMPDEST PUSH4 0x4E487B71 PUSH1 0xE0 SHL PUSH1 0x0 MSTORE PUSH1 0x41 PUSH1 0x4 MSTORE PUSH1 0x24 PUSH1 0x0 REVERT JUMPDEST PUSH1 0x1 DUP2 DUP2 SHR SWAP1 DUP3 AND DUP1 PUSH2 0x99 JUMPI PUSH1 0x7F DUP3 AND SWAP2 POP JUMPDEST PUSH1 0x20 DUP3 LT DUP2 SUB PUSH2 0xB9 JUMPI PUSH4 0x4E487B71 PUSH1 0xE0 SHL PUSH1 0x0 MSTORE PUSH1 0x22 PUSH1 0x4 MSTORE PUSH1 0x24 PUSH1 0x0 REVERT JUMPDEST POP SWAP2 SWAP1 POP JUMP JUMPDEST PUSH1 0x1F DUP3 GT ISZERO PUSH2 0x109 JUMPI DUP1 PUSH1 0x0 MSTORE PUSH1 0x20 PUSH1 0x0 KECCAK256 PUSH1 0x1F DUP5 ADD PUSH1 0x5 SHR DUP2 ADD PUSH1 0x20 DUP6 LT ISZERO PUSH2 0xE6 JUMPI POP DUP1 JUMPDEST PUSH1 0x1F DUP5 ADD PUSH1 0x5 SHR DUP3 ADD SWAP2 POP JUMPDEST DUP2 DUP2 LT ISZERO PUSH2 0x106 JUMPI PUSH1 0x0 DUP2 SSTORE PUSH1 0x1 ADD PUSH2 0xF2 JUMP JUMPDEST POP POP JUMPDEST POP POP POP JUMP JUMPDEST DUP2 MLOAD PUSH1 0x1 PUSH1 0x1 PUSH1 0x40 SHL SUB DUP2 GT ISZERO PUSH2 0x127 JUMPI PUSH2 0x127 PUSH2 0x6F JUMP JUMPDEST PUSH2 0x13B DUP2 PUSH2 0x135 DUP5 SLOAD PUSH2 0x85 JUMP JUMPDEST DUP5 PUSH2 0xBF JUMP JUMPDEST PUSH1 0x20 PUSH1 0x1F DUP3 GT PUSH1 0x1 DUP2 EQ PUSH2 0x16F JUMPI PUSH1 0x0 DUP4 ISZERO PUSH2 0x157 JUMPI POP DUP5 DUP3 ADD MLOAD JUMPDEST PUSH1 0x0 NOT PUSH1 0x3 DUP6 SWAP1 SHL SHR NOT AND PUSH1 0x1 DUP5 SWAP1 SHL OR DUP5 SSTORE PUSH2 0x106 JUMP JUMPDEST PUSH1 0x0 DUP5 DUP2 MSTORE PUSH1 0x20 DUP2 KECCAK256 PUSH1 0x1F NOT DUP6 AND SWAP2 JUMPDEST DUP3 DUP2 LT ISZERO PUSH2 0x19F JUMPI DUP8 DUP6 ADD MLOAD DUP3 SSTORE PUSH1 0x20 SWAP5 DUP6 ADD SWAP5 PUSH1 0x1 SWAP1 SWAP3 ADD SWAP2 ADD PUSH2 0x17F JUMP JUMPDEST POP DUP5 DUP3 LT ISZERO PUSH2 0x1BD JUMPI DUP7 DUP5 ADD MLOAD PUSH1 0x0 NOT PUSH1 0x3 DUP8 SWAP1 SHL PUSH1 0xF8 AND SHR NOT AND DUP2 SSTORE JUMPDEST POP POP POP POP PUSH1 0x1 SWAP1 DUP2 SHL ADD SWAP1 SSTORE POP JUMP JUMPDEST PUSH2 0x14D4 DUP1 PUSH2 0x1DB PUSH1 0x0 CODECOPY PUSH1 0x0 RETURN INVALID PUSH1 0x80 PUSH1 0x40 MSTORE CALLVALUE DUP1 ISZERO PUSH2 0x10 JUMPI PUSH1 0x0 DUP1 REVERT JUMPDEST POP PUSH1 0x4 CALLDATASIZE LT PUSH2 0x116 JUMPI PUSH1 0x0 CALLDATALOAD PUSH1 0xE0 SHR DUP1 PUSH4 0x944953F5 GT PUSH2 0xA2 JUMPI DUP1 PUSH4 0xB528D8F2 GT PUSH2 0x71 JUMPI DUP1 PUSH4 0xB528D8F2 EQ PUSH2 0x2A2 JUMPI DUP1 PUSH4 0xB5A71956 EQ PUSH2 0x2AB JUMPI DUP1 PUSH4 0xDFE6B5D6 EQ PUSH2 0x2BE JUMPI DUP1 PUSH4 0xEADB6842 EQ PUSH2 0x2D6 JUMPI DUP1 PUSH4 0xF2FDE38B EQ PUSH2 0x2E9 JUMPI PUSH1 0x0 DUP1 REVERT JUMPDEST DUP1 PUSH4 0x944953F5 EQ PUSH2 0x21E JUMPI DUP1 PUSH4 0x95333AC5 EQ PUSH2 0x240 JUMPI DUP1 PUSH4 0x95C8C475 EQ PUSH2 0x261 JUMPI DUP1 PUSH4 0xA4136862 EQ PUSH2 0x28D JUMPI PUSH1 0x0 DUP1 REVERT JUMPDEST DUP1 PUSH4 0x5C1000FE GT PUSH2 0xE9 JUMPI DUP1 PUSH4 0x5C1000FE EQ PUSH2 0x194 JUMPI DUP1 PUSH4 0x6EA545E7 EQ PUSH2 0x1AA JUMPI DUP1 PUSH4 0x791BAAC4 EQ PUSH2 0x1D5 JUMPI DUP1 PUSH4 0x841DC7D6 EQ PUSH2 0x1DD JUMPI DUP1 PUSH4 0x8DA5CB5B EQ PUSH2 0x20B JUMPI PUSH1 0x0 DUP1 REVERT JUMPDEST DUP1 PUSH4 0x9A2DA41 EQ PUSH2 0x11B JUMPI DUP1 PUSH4 0xE98D8C8 EQ PUSH2 0x144 JUMPI DUP1 PUSH4 0x269DDD5B EQ PUSH2 0x159 JUMPI DUP1 PUSH4 0x2BB3E1EB EQ PUSH2 0x18C JUMPI JUMPDEST PUSH1 0x0 DUP1 REVERT JUMPDEST PUSH2 0x12E PUSH2 0x129 CALLDATASIZE PUSH1 0x4 PUSH2 0xF5C JUMP JUMPDEST PUSH2 0x2FC JUMP JUMPDEST PUSH1 0x40 MLOAD PUSH2 0x13B SWAP2 SWAP1 PUSH2 0xFD2 JUMP JUMPDEST PUSH1 0x40 MLOAD DUP1 SWAP2 SUB SWAP1 RETURN JUMPDEST PUSH2 0x14C PUSH2 0x3D5 JUMP JUMPDEST PUSH1 0x40 MLOAD PUSH2 0x13B SWAP2 SWAP1 PUSH2 0x102A JUMP JUMPDEST PUSH2 0x17C PUSH2 0x167 CALLDATASIZE PUSH1 0x4 PUSH2 0xF5C JUMP JUMPDEST PUSH1 0x5 PUSH1 0x20 MSTORE PUSH1 0x0 SWAP1 DUP2 MSTORE PUSH1 0x40 SWAP1 KECCAK256 SLOAD PUSH1 0xFF AND DUP2 JUMP JUMPDEST PUSH1 0x40 MLOAD SWAP1 ISZERO ISZERO DUP2 MSTORE PUSH1 0x20 ADD PUSH2 0x13B JUMP JUMPDEST PUSH2 0x12E PUSH2 0x437 JUMP JUMPDEST PUSH2 0x19C PUSH2 0x447 JUMP JUMPDEST PUSH1 0x40 MLOAD PUSH2 0x13B SWAP3 SWAP2 SWAP1 PUSH2 0x103D JUMP JUMPDEST PUSH2 0x1BD PUSH2 0x1B8 CALLDATASIZE PUSH1 0x4 PUSH2 0x1069 JUMP JUMPDEST PUSH2 0x5C9 JUMP JUMPDEST PUSH1 0x40 MLOAD PUSH1 0x1 PUSH1 0x1 PUSH1 0xA0 SHL SUB SWAP1 SWAP2 AND DUP2 MSTORE PUSH1 0x20 ADD PUSH2 0x13B JUMP JUMPDEST PUSH2 0x12E PUSH2 0x5F3 JUMP JUMPDEST PUSH2 0x1FD PUSH2 0x1EB CALLDATASIZE PUSH1 0x4 PUSH2 0xF5C JUMP JUMPDEST PUSH1 0x4 PUSH1 0x20 MSTORE PUSH1 0x0 SWAP1 DUP2 MSTORE PUSH1 0x40 SWAP1 KECCAK256 SLOAD DUP2 JUMP JUMPDEST PUSH1 0x40 MLOAD SWAP1 DUP2 MSTORE PUSH1 0x20 ADD PUSH2 0x13B JUMP JUMPDEST PUSH1 0x1 SLOAD PUSH2 0x1BD SWAP1 PUSH1 0x1 PUSH1 0x1 PUSH1 0xA0 SHL SUB AND DUP2 JUMP JUMPDEST PUSH2 0x231 PUSH2 0x22C CALLDATASIZE PUSH1 0x4 PUSH2 0xF5C JUMP JUMPDEST PUSH2 0x681 JUMP JUMPDEST PUSH1 0x40 MLOAD PUSH2 0x13B SWAP4 SWAP3 SWAP2 SWAP1 PUSH2 0x1082 JUMP JUMPDEST PUSH2 0x253 PUSH2 0x24E CALLDATASIZE PUSH1 0x4 PUSH2 0x1069 JUMP JUMPDEST PUSH2 0x765 JUMP JUMPDEST PUSH1 0x40 MLOAD PUSH2 0x13B SWAP3 SWAP2 SWAP1 PUSH2 0x10AC JUMP JUMPDEST PUSH2 0x17C PUSH2 0x26F CALLDATASIZE PUSH1 0x4 PUSH2 0xF5C JUMP JUMPDEST PUSH1 0x1 PUSH1 0x1 PUSH1 0xA0 SHL SUB AND PUSH1 0x0 SWAP1 DUP2 MSTORE PUSH1 0x5 PUSH1 0x20 MSTORE PUSH1 0x40 SWAP1 KECCAK256 SLOAD PUSH1 0xFF AND SWAP1 JUMP JUMPDEST PUSH2 0x2A0 PUSH2 0x29B CALLDATASIZE PUSH1 0x4 PUSH2 0x1139 JUMP JUMPDEST PUSH2 0x997 JUMP JUMPDEST STOP JUMPDEST PUSH2 0x1FD PUSH1 0x2 SLOAD DUP2 JUMP JUMPDEST PUSH2 0x2A0 PUSH2 0x2B9 CALLDATASIZE PUSH1 0x4 PUSH2 0x1139 JUMP JUMPDEST PUSH2 0xC39 JUMP JUMPDEST PUSH2 0x2C6 PUSH2 0xD91 JUMP JUMPDEST PUSH1 0x40 MLOAD PUSH2 0x13B SWAP5 SWAP4 SWAP3 SWAP2 SWAP1 PUSH2 0x11F2 JUMP JUMPDEST PUSH2 0x12E PUSH2 0x2E4 CALLDATASIZE PUSH1 0x4 PUSH2 0xF5C JUMP JUMPDEST PUSH2 0xEA1 JUMP JUMPDEST PUSH2 0x2A0 PUSH2 0x2F7 CALLDATASIZE PUSH1 0x4 PUSH2 0xF5C JUMP JUMPDEST PUSH2 0xEBA JUMP JUMPDEST PUSH1 0x1 PUSH1 0x1 PUSH1 0xA0 SHL SUB DUP2 AND PUSH1 0x0 SWAP1 DUP2 MSTORE PUSH1 0x5 PUSH1 0x20 MSTORE PUSH1 0x40 SWAP1 KECCAK256 SLOAD PUSH1 0x60 SWAP1 PUSH1 0xFF AND ISZERO PUSH2 0x3C8 JUMPI PUSH1 0x1 PUSH1 0x1 PUSH1 0xA0 SHL SUB DUP3 AND PUSH1 0x0 SWAP1 DUP2 MSTORE PUSH1 0x3 PUSH1 0x20 MSTORE PUSH1 0x40 SWAP1 KECCAK256 DUP1 SLOAD PUSH2 0x343 SWAP1 PUSH2 0x122A JUMP JUMPDEST DUP1 PUSH1 0x1F ADD PUSH1 0x20 DUP1 SWAP2 DIV MUL PUSH1 0x20 ADD PUSH1 0x40 MLOAD SWAP1 DUP2 ADD PUSH1 0x40 MSTORE DUP1 SWAP3 SWAP2 SWAP1 DUP2 DUP2 MSTORE PUSH1 0x20 ADD DUP3 DUP1 SLOAD PUSH2 0x36F SWAP1 PUSH2 0x122A JUMP JUMPDEST DUP1 ISZERO PUSH2 0x3BC JUMPI DUP1 PUSH1 0x1F LT PUSH2 0x391 JUMPI PUSH2 0x100 DUP1 DUP4 SLOAD DIV MUL DUP4 MSTORE SWAP2 PUSH1 0x20 ADD SWAP2 PUSH2 0x3BC JUMP JUMPDEST DUP3 ADD SWAP2 SWAP1 PUSH1 0x0 MSTORE PUSH1 0x20 PUSH1 0x0 KECCAK256 SWAP1 JUMPDEST DUP2 SLOAD DUP2 MSTORE SWAP1 PUSH1 0x1 ADD SWAP1 PUSH1 0x20 ADD DUP1 DUP4 GT PUSH2 0x39F JUMPI DUP3 SWAP1 SUB PUSH1 0x1F AND DUP3 ADD SWAP2 JUMPDEST POP POP POP POP POP SWAP1 POP SWAP2 SWAP1 POP JUMP JUMPDEST PUSH1 0x0 DUP1 SLOAD PUSH2 0x343 SWAP1 PUSH2 0x122A JUMP JUMPDEST PUSH1 0x60 PUSH1 0x6 DUP1 SLOAD DUP1 PUSH1 0x20 MUL PUSH1 0x20 ADD PUSH1 0x40 MLOAD SWAP1 DUP2 ADD PUSH1 0x40 MSTORE DUP1 SWAP3 SWAP2 SWAP1 DUP2 DUP2 MSTORE PUSH1 0x20 ADD DUP3 DUP1 SLOAD DUP1 ISZERO PUSH2 0x42D JUMPI PUSH1 0x20 MUL DUP3 ADD SWAP2 SWAP1 PUSH1 0x0 MSTORE PUSH1 0x20 PUSH1 0x0 KECCAK256 SWAP1 JUMPDEST DUP2 SLOAD PUSH1 0x1 PUSH1 0x1 PUSH1 0xA0 SHL SUB AND DUP2 MSTORE PUSH1 0x1 SWAP1 SWAP2 ADD SWAP1 PUSH1 0x20 ADD DUP1 DUP4 GT PUSH2 0x40F JUMPI JUMPDEST POP POP POP POP POP SWAP1 POP SWAP1 JUMP JUMPDEST PUSH1 0x60 PUSH2 0x442 CALLER PUSH2 0x2FC JUMP JUMPDEST SWAP1 POP SWAP1 JUMP JUMPDEST PUSH1 0x6 SLOAD PUSH1 0x0 SWAP1 PUSH1 0x60 SWAP1 PUSH2 0x49A JUMPI PUSH1 0x40 MLOAD PUSH3 0x461BCD PUSH1 0xE5 SHL DUP2 MSTORE PUSH1 0x20 PUSH1 0x4 DUP3 ADD MSTORE PUSH1 0x16 PUSH1 0x24 DUP3 ADD MSTORE PUSH22 0x4E6F206772656574696E677320617661696C61626C65 PUSH1 0x50 SHL PUSH1 0x44 DUP3 ADD MSTORE PUSH1 0x64 ADD JUMPDEST PUSH1 0x40 MLOAD DUP1 SWAP2 SUB SWAP1 REVERT JUMPDEST PUSH1 0x6 SLOAD PUSH1 0x40 MLOAD PUSH1 0x0 SWAP2 SWAP1 PUSH2 0x4D9 SWAP1 TIMESTAMP SWAP1 PREVRANDAO SWAP1 CALLER SWAP1 PUSH1 0x20 ADD SWAP3 DUP4 MSTORE PUSH1 0x20 DUP4 ADD SWAP2 SWAP1 SWAP2 MSTORE PUSH1 0x60 SHL PUSH12 0xFFFFFFFFFFFFFFFFFFFFFFFF NOT AND PUSH1 0x40 DUP3 ADD MSTORE PUSH1 0x54 ADD SWAP1 JUMP JUMPDEST PUSH1 0x40 MLOAD PUSH1 0x20 DUP2 DUP4 SUB SUB DUP2 MSTORE SWAP1 PUSH1 0x40 MSTORE DUP1 MLOAD SWAP1 PUSH1 0x20 ADD KECCAK256 PUSH1 0x0 SHR PUSH2 0x4FC SWAP2 SWAP1 PUSH2 0x1264 JUMP JUMPDEST SWAP1 POP PUSH1 0x6 DUP2 DUP2 SLOAD DUP2 LT PUSH2 0x511 JUMPI PUSH2 0x511 PUSH2 0x1286 JUMP JUMPDEST PUSH1 0x0 SWAP2 DUP3 MSTORE PUSH1 0x20 DUP1 DUP4 KECCAK256 SWAP1 SWAP2 ADD SLOAD PUSH1 0x1 PUSH1 0x1 PUSH1 0xA0 SHL SUB AND DUP1 DUP4 MSTORE PUSH1 0x3 SWAP1 SWAP2 MSTORE PUSH1 0x40 SWAP1 SWAP2 KECCAK256 DUP1 SLOAD SWAP2 SWAP5 POP SWAP1 PUSH2 0x544 SWAP1 PUSH2 0x122A JUMP JUMPDEST DUP1 PUSH1 0x1F ADD PUSH1 0x20 DUP1 SWAP2 DIV MUL PUSH1 0x20 ADD PUSH1 0x40 MLOAD SWAP1 DUP2 ADD PUSH1 0x40 MSTORE DUP1 SWAP3 SWAP2 SWAP1 DUP2 DUP2 MSTORE PUSH1 0x20 ADD DUP3 DUP1 SLOAD PUSH2 0x570 SWAP1 PUSH2 0x122A JUMP JUMPDEST DUP1 ISZERO PUSH2 0x5BD JUMPI DUP1 PUSH1 0x1F LT PUSH2 0x592 JUMPI PUSH2 0x100 DUP1 DUP4 SLOAD DIV MUL DUP4 MSTORE SWAP2 PUSH1 0x20 ADD SWAP2 PUSH2 0x5BD JUMP JUMPDEST DUP3 ADD SWAP2 SWAP1 PUSH1 0x0 MSTORE PUSH1 0x20 PUSH1 0x0 KECCAK256 SWAP1 JUMPDEST DUP2 SLOAD DUP2 MSTORE SWAP1 PUSH1 0x1 ADD SWAP1 PUSH1 0x20 ADD DUP1 DUP4 GT PUSH2 0x5A0 JUMPI DUP3 SWAP1 SUB PUSH1 0x1F AND DUP3 ADD SWAP2 JUMPDEST POP POP POP POP POP SWAP2 POP POP SWAP1 SWAP2 JUMP JUMPDEST PUSH1 0x6 DUP2 DUP2 SLOAD DUP2 LT PUSH2 0x5D9 JUMPI PUSH1 0x0 DUP1 REVERT JUMPDEST PUSH1 0x0 SWAP2 DUP3 MSTORE PUSH1 0x20 SWAP1 SWAP2 KECCAK256 ADD SLOAD PUSH1 0x1 PUSH1 0x1 PUSH1 0xA0 SHL SUB AND SWAP1 POP DUP2 JUMP JUMPDEST PUSH1 0x0 DUP1 SLOAD PUSH2 0x600 SWAP1 PUSH2 0x122A JUMP JUMPDEST DUP1 PUSH1 0x1F ADD PUSH1 0x20 DUP1 SWAP2 DIV MUL PUSH1 0x20 ADD PUSH1 0x40 MLOAD SWAP1 DUP2 ADD PUSH1 0x40 MSTORE DUP1 SWAP3 SWAP2 SWAP1 DUP2 DUP2 MSTORE PUSH1 0x20 ADD DUP3 DUP1 SLOAD PUSH2 0x62C SWAP1 PUSH2 0x122A JUMP JUMPDEST DUP1 ISZERO PUSH2 0x679 JUMPI DUP1 PUSH1 0x1F LT PUSH2 0x64E JUMPI PUSH2 0x100 DUP1 DUP4 SLOAD DIV MUL DUP4 MSTORE SWAP2 PUSH1 0x20 ADD SWAP2 PUSH2 0x679 JUMP JUMPDEST DUP3 ADD SWAP2 SWAP1 PUSH1 0x0 MSTORE PUSH1 0x20 PUSH1 0x0 KECCAK256 SWAP1 JUMPDEST DUP2 SLOAD DUP2 MSTORE SWAP1 PUSH1 0x1 ADD SWAP1 PUSH1 0x20 ADD DUP1 DUP4 GT PUSH2 0x65C JUMPI DUP3 SWAP1 SUB PUSH1 0x1F AND DUP3 ADD SWAP2 JUMPDEST POP POP POP POP POP DUP2 JUMP JUMPDEST PUSH1 0x1 PUSH1 0x1 PUSH1 0xA0 SHL SUB DUP2 AND PUSH1 0x0 SWAP1 DUP2 MSTORE PUSH1 0x5 PUSH1 0x20 SWAP1 DUP2 MSTORE PUSH1 0x40 DUP1 DUP4 KECCAK256 SLOAD PUSH1 0x4 SWAP1 SWAP3 MSTORE SWAP1 SWAP2 KECCAK256 SLOAD PUSH1 0xFF SWAP1 SWAP2 AND SWAP1 PUSH1 0x60 DUP3 PUSH2 0x6BA JUMPI PUSH1 0x0 PUSH2 0x6D3 JUMP JUMPDEST PUSH1 0x1 PUSH1 0x1 PUSH1 0xA0 SHL SUB DUP5 AND PUSH1 0x0 SWAP1 DUP2 MSTORE PUSH1 0x3 PUSH1 0x20 MSTORE PUSH1 0x40 SWAP1 KECCAK256 JUMPDEST DUP1 SLOAD PUSH2 0x6DE SWAP1 PUSH2 0x122A JUMP JUMPDEST DUP1 PUSH1 0x1F ADD PUSH1 0x20 DUP1 SWAP2 DIV MUL PUSH1 0x20 ADD PUSH1 0x40 MLOAD SWAP1 DUP2 ADD PUSH1 0x40 MSTORE DUP1 SWAP3 SWAP2 SWAP1 DUP2 DUP2 MSTORE PUSH1 0x20 ADD DUP3 DUP1 SLOAD PUSH2 0x70A SWAP1 PUSH2 0x122A JUMP JUMPDEST DUP1 ISZERO PUSH2 0x757 JUMPI DUP1 PUSH1 0x1F LT PUSH2 0x72C JUMPI PUSH2 0x100 DUP1 DUP4 SLOAD DIV MUL DUP4 MSTORE SWAP2 PUSH1 0x20 ADD SWAP2 PUSH2 0x757 JUMP JUMPDEST DUP3 ADD SWAP2 SWAP1 PUSH1 0x0 MSTORE PUSH1 0x20 PUSH1 0x0 KECCAK256 SWAP1 JUMPDEST DUP2 SLOAD DUP2 MSTORE SWAP1 PUSH1 0x1 ADD SWAP1 PUSH1 0x20 ADD DUP1 DUP4 GT PUSH2 0x73A JUMPI DUP3 SWAP1 SUB PUSH1 0x1F AND DUP3 ADD SWAP2 JUMPDEST POP POP POP POP POP SWAP1 POP SWAP2 SWAP4 SWAP1 SWAP3 POP JUMP JUMPDEST PUSH1 0x6 SLOAD PUSH1 0x60 SWAP1 DUP2 SWAP1 DUP4 SWAP1 DUP2 GT ISZERO PUSH2 0x77B JUMPI POP PUSH1 0x6 SLOAD JUMPDEST PUSH1 0x0 DUP2 PUSH8 0xFFFFFFFFFFFFFFFF DUP2 GT ISZERO PUSH2 0x796 JUMPI PUSH2 0x796 PUSH2 0x1123 JUMP JUMPDEST PUSH1 0x40 MLOAD SWAP1 DUP1 DUP3 MSTORE DUP1 PUSH1 0x20 MUL PUSH1 0x20 ADD DUP3 ADD PUSH1 0x40 MSTORE DUP1 ISZERO PUSH2 0x7BF JUMPI DUP2 PUSH1 0x20 ADD PUSH1 0x20 DUP3 MUL DUP1 CALLDATASIZE DUP4 CALLDATACOPY ADD SWAP1 POP JUMPDEST POP SWAP1 POP PUSH1 0x0 DUP3 PUSH8 0xFFFFFFFFFFFFFFFF DUP2 GT ISZERO PUSH2 0x7DD JUMPI PUSH2 0x7DD PUSH2 0x1123 JUMP JUMPDEST PUSH1 0x40 MLOAD SWAP1 DUP1 DUP3 MSTORE DUP1 PUSH1 0x20 MUL PUSH1 0x20 ADD DUP3 ADD PUSH1 0x40 MSTORE DUP1 ISZERO PUSH2 0x810 JUMPI DUP2 PUSH1 0x20 ADD JUMPDEST PUSH1 0x60 DUP2 MSTORE PUSH1 0x20 ADD SWAP1 PUSH1 0x1 SWAP1 SUB SWAP1 DUP2 PUSH2 0x7FB JUMPI SWAP1 POP JUMPDEST POP SWAP1 POP PUSH1 0x0 JUMPDEST DUP4 DUP2 LT ISZERO PUSH2 0x98B JUMPI PUSH1 0x6 SLOAD PUSH1 0x0 SWAP1 DUP3 SWAP1 PUSH2 0x832 SWAP1 PUSH1 0x1 SWAP1 PUSH2 0x12B2 JUMP JUMPDEST PUSH2 0x83C SWAP2 SWAP1 PUSH2 0x12B2 JUMP JUMPDEST SWAP1 POP PUSH1 0x6 DUP2 DUP2 SLOAD DUP2 LT PUSH2 0x851 JUMPI PUSH2 0x851 PUSH2 0x1286 JUMP JUMPDEST SWAP1 PUSH1 0x0 MSTORE PUSH1 0x20 PUSH1 0x0 KECCAK256 ADD PUSH1 0x0 SWAP1 SLOAD SWAP1 PUSH2 0x100 EXP SWAP1 DIV PUSH1 0x1 PUSH1 0x1 PUSH1 0xA0 SHL SUB AND DUP5 DUP4 DUP2 MLOAD DUP2 LT PUSH2 0x881 JUMPI PUSH2 0x881 PUSH2 0x1286 JUMP JUMPDEST PUSH1 0x20 MUL PUSH1 0x20 ADD ADD SWAP1 PUSH1 0x1 PUSH1 0x1 PUSH1 0xA0 SHL SUB AND SWAP1 DUP2 PUSH1 0x1 PUSH1 0x1 PUSH1 0xA0 SHL SUB AND DUP2 MSTORE POP POP PUSH1 0x3 PUSH1 0x0 PUSH1 0x6 DUP4 DUP2 SLOAD DUP2 LT PUSH2 0x8B8 JUMPI PUSH2 0x8B8 PUSH2 0x1286 JUMP JUMPDEST PUSH1 0x0 SWAP2 DUP3 MSTORE PUSH1 0x20 DUP1 DUP4 KECCAK256 SWAP1 SWAP2 ADD SLOAD PUSH1 0x1 PUSH1 0x1 PUSH1 0xA0 SHL SUB AND DUP4 MSTORE DUP3 ADD SWAP3 SWAP1 SWAP3 MSTORE PUSH1 0x40 ADD SWAP1 KECCAK256 DUP1 SLOAD PUSH2 0x8E7 SWAP1 PUSH2 0x122A JUMP JUMPDEST DUP1 PUSH1 0x1F ADD PUSH1 0x20 DUP1 SWAP2 DIV MUL PUSH1 0x20 ADD PUSH1 0x40 MLOAD SWAP1 DUP2 ADD PUSH1 0x40 MSTORE DUP1 SWAP3 SWAP2 SWAP1 DUP2 DUP2 MSTORE PUSH1 0x20 ADD DUP3 DUP1 SLOAD PUSH2 0x913 SWAP1 PUSH2 0x122A JUMP JUMPDEST DUP1 ISZERO PUSH2 0x960 JUMPI DUP1 PUSH1 0x1F LT PUSH2 0x935 JUMPI PUSH2 0x100 DUP1 DUP4 SLOAD DIV MUL DUP4 MSTORE SWAP2 PUSH1 0x20 ADD SWAP2 PUSH2 0x960 JUMP JUMPDEST DUP3 ADD SWAP2 SWAP1 PUSH1 0x0 MSTORE PUSH1 0x20 PUSH1 0x0 KECCAK256 SWAP1 JUMPDEST DUP2 SLOAD DUP2 MSTORE SWAP1 PUSH1 0x1 ADD SWAP1 PUSH1 0x20 ADD DUP1 DUP4 GT PUSH2 0x943 JUMPI DUP3 SWAP1 SUB PUSH1 0x1F AND DUP3 ADD SWAP2 JUMPDEST POP POP POP POP POP DUP4 DUP4 DUP2 MLOAD DUP2 LT PUSH2 0x977 JUMPI PUSH2 0x977 PUSH2 0x1286 JUMP JUMPDEST PUSH1 0x20 SWAP1 DUP2 MUL SWAP2 SWAP1 SWAP2 ADD ADD MSTORE POP PUSH1 0x1 ADD PUSH2 0x816 JUMP JUMPDEST POP SWAP1 SWAP6 SWAP1 SWAP5 POP SWAP3 POP POP POP JUMP JUMPDEST PUSH1 0x0 DUP2 MLOAD GT PUSH2 0x9E8 JUMPI PUSH1 0x40 MLOAD PUSH3 0x461BCD PUSH1 0xE5 SHL DUP2 MSTORE PUSH1 0x20 PUSH1 0x4 DUP3 ADD MSTORE PUSH1 0x18 PUSH1 0x24 DUP3 ADD MSTORE PUSH32 0x4772656574696E672063616E6E6F7420626520656D7074790000000000000000 PUSH1 0x44 DUP3 ADD MSTORE PUSH1 0x64 ADD PUSH2 0x491 JUMP JUMPDEST PUSH2 0x118 DUP2 MLOAD GT ISZERO PUSH2 0xA4A JUMPI PUSH1 0x40 MLOAD PUSH3 0x461BCD PUSH1 0xE5 SHL DUP2 MSTORE PUSH1 0x20 PUSH1 0x4 DUP3 ADD MSTORE PUSH1 0x26 PUSH1 0x24 DUP3 ADD MSTORE PUSH32 0x4772656574696E6720746F6F206C6F6E6720286D617820323830206368617261 PUSH1 0x44 DUP3 ADD MSTORE PUSH6 0x637465727329 PUSH1 0xD0 SHL PUSH1 0x64 DUP3 ADD MSTORE PUSH1 0x84 ADD PUSH2 0x491 JUMP JUMPDEST CALLER PUSH1 0x0 SWAP1 DUP2 MSTORE PUSH1 0x3 PUSH1 0x20 MSTORE PUSH1 0x40 DUP2 KECCAK256 DUP1 SLOAD PUSH2 0xA64 SWAP1 PUSH2 0x122A JUMP JUMPDEST DUP1 PUSH1 0x1F ADD PUSH1 0x20 DUP1 SWAP2 DIV MUL PUSH1 0x20 ADD PUSH1 0x40 MLOAD SWAP1 DUP2 ADD PUSH1 0x40 MSTORE DUP1 SWAP3 SWAP2 SWAP1 DUP2 DUP2 MSTORE PUSH1 0x20 ADD DUP3 DUP1 SLOAD PUSH2 0xA90 SWAP1 PUSH2 0x122A JUMP JUMPDEST DUP1 ISZERO PUSH2 0xADD JUMPI DUP1 PUSH1 0x1F LT PUSH2 0xAB2 JUMPI PUSH2 0x100 DUP1 DUP4 SLOAD DIV MUL DUP4 MSTORE SWAP2 PUSH1 0x20 ADD SWAP2 PUSH2 0xADD JUMP JUMPDEST DUP3 ADD SWAP2 SWAP1 PUSH1 0x0 MSTORE PUSH1 0x20 PUSH1 0x0 KECCAK256 SWAP1 JUMPDEST DUP2 SLOAD DUP2 MSTORE SWAP1 PUSH1 0x1 ADD SWAP1 PUSH1 0x20 ADD DUP1 DUP4 GT PUSH2 0xAC0 JUMPI DUP3 SWAP1 SUB PUSH1 0x1F AND DUP3 ADD SWAP2 JUMPDEST POP POP CALLER PUSH1 0x0 SWAP1 DUP2 MSTORE PUSH1 0x5 PUSH1 0x20 SWAP1 DUP2 MSTORE PUSH1 0x40 DUP1 DUP4 KECCAK256 SLOAD PUSH1 0x3 SWAP1 SWAP3 MSTORE SWAP1 SWAP2 KECCAK256 SWAP5 SWAP6 POP PUSH1 0xFF AND SWAP4 SWAP3 POP PUSH2 0xB11 SWAP2 POP DUP6 SWAP1 POP DUP3 PUSH2 0x131A JUMP JUMPDEST POP DUP1 PUSH2 0xBCE JUMPI CALLER PUSH1 0x0 DUP2 DUP2 MSTORE PUSH1 0x5 PUSH1 0x20 MSTORE PUSH1 0x40 DUP2 KECCAK256 DUP1 SLOAD PUSH1 0xFF NOT AND PUSH1 0x1 SWAP1 DUP2 OR SWAP1 SWAP2 SSTORE PUSH1 0x6 DUP1 SLOAD SWAP2 DUP3 ADD DUP2 SSTORE DUP3 MSTORE PUSH32 0xF652222313E28459528D920B65115C16C04F3EFC82AAEDC97BE59F3F377C0D3F ADD DUP1 SLOAD PUSH1 0x1 PUSH1 0x1 PUSH1 0xA0 SHL SUB NOT AND SWAP1 SWAP3 OR SWAP1 SWAP2 SSTORE PUSH1 0x2 DUP1 SLOAD SWAP2 PUSH2 0xB81 DUP4 PUSH2 0x13D9 JUMP JUMPDEST SWAP2 SWAP1 POP SSTORE POP CALLER PUSH1 0x1 PUSH1 0x1 PUSH1 0xA0 SHL SUB AND PUSH32 0x3B170B219FEC9F92DD77AF1BDC20CC222366FD3CF9A055E249488222C84F4CA9 DUP5 TIMESTAMP PUSH1 0x40 MLOAD PUSH2 0xBC1 SWAP3 SWAP2 SWAP1 PUSH2 0x13F2 JUMP JUMPDEST PUSH1 0x40 MLOAD DUP1 SWAP2 SUB SWAP1 LOG2 PUSH2 0xC14 JUMP JUMPDEST CALLER PUSH1 0x1 PUSH1 0x1 PUSH1 0xA0 SHL SUB AND PUSH32 0xCD6AC433661F14932369FDE5A05DE04FCC6BD091771CFAA1006B19FD594E6144 DUP4 DUP6 TIMESTAMP PUSH1 0x40 MLOAD PUSH2 0xC0B SWAP4 SWAP3 SWAP2 SWAP1 PUSH2 0x1414 JUMP JUMPDEST PUSH1 0x40 MLOAD DUP1 SWAP2 SUB SWAP1 LOG2 JUMPDEST CALLER PUSH1 0x0 SWAP1 DUP2 MSTORE PUSH1 0x4 PUSH1 0x20 MSTORE PUSH1 0x40 DUP2 KECCAK256 DUP1 SLOAD SWAP2 PUSH2 0xC2F DUP4 PUSH2 0x13D9 JUMP JUMPDEST SWAP2 SWAP1 POP SSTORE POP POP POP POP JUMP JUMPDEST PUSH1 0x1 SLOAD PUSH1 0x1 PUSH1 0x1 PUSH1 0xA0 SHL SUB AND CALLER EQ PUSH2 0xC63 JUMPI PUSH1 0x40 MLOAD PUSH3 0x461BCD PUSH1 0xE5 SHL DUP2 MSTORE PUSH1 0x4 ADD PUSH2 0x491 SWAP1 PUSH2 0x144A JUMP JUMPDEST PUSH1 0x0 DUP2 MLOAD GT PUSH2 0xCB4 JUMPI PUSH1 0x40 MLOAD PUSH3 0x461BCD PUSH1 0xE5 SHL DUP2 MSTORE PUSH1 0x20 PUSH1 0x4 DUP3 ADD DUP2 SWAP1 MSTORE PUSH1 0x24 DUP3 ADD MSTORE PUSH32 0x44656661756C74206772656574696E672063616E6E6F7420626520656D707479 PUSH1 0x44 DUP3 ADD MSTORE PUSH1 0x64 ADD PUSH2 0x491 JUMP JUMPDEST PUSH1 0x0 DUP1 DUP1 SLOAD PUSH2 0xCC2 SWAP1 PUSH2 0x122A JUMP JUMPDEST DUP1 PUSH1 0x1F ADD PUSH1 0x20 DUP1 SWAP2 DIV MUL PUSH1 0x20 ADD PUSH1 0x40 MLOAD SWAP1 DUP2 ADD PUSH1 0x40 MSTORE DUP1 SWAP3 SWAP2 SWAP1 DUP2 DUP2 MSTORE PUSH1 0x20 ADD DUP3 DUP1 SLOAD PUSH2 0xCEE SWAP1 PUSH2 0x122A JUMP JUMPDEST DUP1 ISZERO PUSH2 0xD3B JUMPI DUP1 PUSH1 0x1F LT PUSH2 0xD10 JUMPI PUSH2 0x100 DUP1 DUP4 SLOAD DIV MUL DUP4 MSTORE SWAP2 PUSH1 0x20 ADD SWAP2 PUSH2 0xD3B JUMP JUMPDEST DUP3 ADD SWAP2 SWAP1 PUSH1 0x0 MSTORE PUSH1 0x20 PUSH1 0x0 KECCAK256 SWAP1 JUMPDEST DUP2 SLOAD DUP2 MSTORE SWAP1 PUSH1 0x1 ADD SWAP1 PUSH1 0x20 ADD DUP1 DUP4 GT PUSH2 0xD1E JUMPI DUP3 SWAP1 SUB PUSH1 0x1F AND DUP3 ADD SWAP2 JUMPDEST POP POP POP POP POP SWAP1 POP DUP2 PUSH1 0x0 SWAP1 DUP2 PUSH2 0xD51 SWAP2 SWAP1 PUSH2 0x131A JUMP JUMPDEST POP PUSH32 0x2379EBB0B7E7AEE215E663631B5E2AC63C0A43FDF662DD7FC610D7B477D4CB19 DUP2 DUP4 TIMESTAMP PUSH1 0x40 MLOAD PUSH2 0xD85 SWAP4 SWAP3 SWAP2 SWAP1 PUSH2 0x1414 JUMP JUMPDEST PUSH1 0x40 MLOAD DUP1 SWAP2 SUB SWAP1 LOG1 POP POP JUMP JUMPDEST PUSH1 0x2 SLOAD PUSH1 0x0 PUSH1 0x60 DUP2 DUP1 DUP1 JUMPDEST PUSH1 0x6 SLOAD DUP2 LT ISZERO PUSH2 0xDF6 JUMPI PUSH1 0x4 PUSH1 0x0 PUSH1 0x6 DUP4 DUP2 SLOAD DUP2 LT PUSH2 0xDBD JUMPI PUSH2 0xDBD PUSH2 0x1286 JUMP JUMPDEST PUSH1 0x0 SWAP2 DUP3 MSTORE PUSH1 0x20 DUP1 DUP4 KECCAK256 SWAP1 SWAP2 ADD SLOAD PUSH1 0x1 PUSH1 0x1 PUSH1 0xA0 SHL SUB AND DUP4 MSTORE DUP3 ADD SWAP3 SWAP1 SWAP3 MSTORE PUSH1 0x40 ADD SWAP1 KECCAK256 SLOAD PUSH2 0xDEC SWAP1 DUP4 PUSH2 0x148B JUMP JUMPDEST SWAP2 POP PUSH1 0x1 ADD PUSH2 0xD9C JUMP JUMPDEST POP DUP1 SWAP4 POP PUSH1 0x0 DUP1 SLOAD PUSH2 0xE07 SWAP1 PUSH2 0x122A JUMP JUMPDEST DUP1 PUSH1 0x1F ADD PUSH1 0x20 DUP1 SWAP2 DIV MUL PUSH1 0x20 ADD PUSH1 0x40 MLOAD SWAP1 DUP2 ADD PUSH1 0x40 MSTORE DUP1 SWAP3 SWAP2 SWAP1 DUP2 DUP2 MSTORE PUSH1 0x20 ADD DUP3 DUP1 SLOAD PUSH2 0xE33 SWAP1 PUSH2 0x122A JUMP JUMPDEST DUP1 ISZERO PUSH2 0xE80 JUMPI DUP1 PUSH1 0x1F LT PUSH2 0xE55 JUMPI PUSH2 0x100 DUP1 DUP4 SLOAD DIV MUL DUP4 MSTORE SWAP2 PUSH1 0x20 ADD SWAP2 PUSH2 0xE80 JUMP JUMPDEST DUP3 ADD SWAP2 SWAP1 PUSH1 0x0 MSTORE PUSH1 0x20 PUSH1 0x0 KECCAK256 SWAP1 JUMPDEST DUP2 SLOAD DUP2 MSTORE SWAP1 PUSH1 0x1 ADD SWAP1 PUSH1 0x20 ADD DUP1 DUP4 GT PUSH2 0xE63 JUMPI DUP3 SWAP1 SUB PUSH1 0x1F AND DUP3 ADD SWAP2 JUMPDEST POP POP PUSH1 0x1 SLOAD SWAP9 SWAP10 SWAP8 SWAP9 SWAP4 SWAP8 PUSH1 0x1 PUSH1 0x1 PUSH1 0xA0 SHL SUB SWAP1 SWAP5 AND SWAP7 POP SWAP3 SWAP5 POP POP POP POP POP JUMP JUMPDEST PUSH1 0x3 PUSH1 0x20 MSTORE PUSH1 0x0 SWAP1 DUP2 MSTORE PUSH1 0x40 SWAP1 KECCAK256 DUP1 SLOAD PUSH2 0x600 SWAP1 PUSH2 0x122A JUMP JUMPDEST PUSH1 0x1 SLOAD PUSH1 0x1 PUSH1 0x1 PUSH1 0xA0 SHL SUB AND CALLER EQ PUSH2 0xEE4 JUMPI PUSH1 0x40 MLOAD PUSH3 0x461BCD PUSH1 0xE5 SHL DUP2 MSTORE PUSH1 0x4 ADD PUSH2 0x491 SWAP1 PUSH2 0x144A JUMP JUMPDEST PUSH1 0x1 PUSH1 0x1 PUSH1 0xA0 SHL SUB DUP2 AND PUSH2 0xF3A JUMPI PUSH1 0x40 MLOAD PUSH3 0x461BCD PUSH1 0xE5 SHL DUP2 MSTORE PUSH1 0x20 PUSH1 0x4 DUP3 ADD DUP2 SWAP1 MSTORE PUSH1 0x24 DUP3 ADD MSTORE PUSH32 0x4E6577206F776E65722063616E6E6F74206265207A65726F2061646472657373 PUSH1 0x44 DUP3 ADD MSTORE PUSH1 0x64 ADD PUSH2 0x491 JUMP JUMPDEST PUSH1 0x1 DUP1 SLOAD PUSH1 0x1 PUSH1 0x1 PUSH1 0xA0 SHL SUB NOT AND PUSH1 0x1 PUSH1 0x1 PUSH1 0xA0 SHL SUB SWAP3 SWAP1 SWAP3 AND SWAP2 SWAP1 SWAP2 OR SWAP1 SSTORE JUMP JUMPDEST PUSH1 0x0 PUSH1 0x20 DUP3 DUP5 SUB SLT ISZERO PUSH2 0xF6E JUMPI PUSH1 0x0 DUP1 REVERT JUMPDEST DUP2 CALLDATALOAD PUSH1 0x1 PUSH1 0x1 PUSH1 0xA0 SHL SUB DUP2 AND DUP2 EQ PUSH2 0xF85 JUMPI PUSH1 0x0 DUP1 REVERT JUMPDEST SWAP4 SWAP3 POP POP POP JUMP JUMPDEST PUSH1 0x0 DUP2 MLOAD DUP1 DUP5 MSTORE PUSH1 0x0 JUMPDEST DUP2 DUP2 LT ISZERO PUSH2 0xFB2 JUMPI PUSH1 0x20 DUP2 DUP6 ADD DUP2 ADD MLOAD DUP7 DUP4 ADD DUP3 ADD MSTORE ADD PUSH2 0xF96 JUMP JUMPDEST POP PUSH1 0x0 PUSH1 0x20 DUP3 DUP7 ADD ADD MSTORE PUSH1 0x20 PUSH1 0x1F NOT PUSH1 0x1F DUP4 ADD AND DUP6 ADD ADD SWAP2 POP POP SWAP3 SWAP2 POP POP JUMP JUMPDEST PUSH1 0x20 DUP2 MSTORE PUSH1 0x0 PUSH2 0xF85 PUSH1 0x20 DUP4 ADD DUP5 PUSH2 0xF8C JUMP JUMPDEST PUSH1 0x0 DUP2 MLOAD DUP1 DUP5 MSTORE PUSH1 0x20 DUP5 ADD SWAP4 POP PUSH1 0x20 DUP4 ADD PUSH1 0x0 JUMPDEST DUP3 DUP2 LT ISZERO PUSH2 0x1020 JUMPI DUP2 MLOAD PUSH1 0x1 PUSH1 0x1 PUSH1 0xA0 SHL SUB AND DUP7 MSTORE PUSH1 0x20 SWAP6 DUP7 ADD SWAP6 SWAP1 SWAP2 ADD SWAP1 PUSH1 0x1 ADD PUSH2 0xFF9 JUMP JUMPDEST POP SWAP4 SWAP5 SWAP4 POP POP POP POP JUMP JUMPDEST PUSH1 0x20 DUP2 MSTORE PUSH1 0x0 PUSH2 0xF85 PUSH1 0x20 DUP4 ADD DUP5 PUSH2 0xFE5 JUMP JUMPDEST PUSH1 0x1 PUSH1 0x1 PUSH1 0xA0 SHL SUB DUP4 AND DUP2 MSTORE PUSH1 0x40 PUSH1 0x20 DUP3 ADD DUP2 SWAP1 MSTORE PUSH1 0x0 SWAP1 PUSH2 0x1061 SWAP1 DUP4 ADD DUP5 PUSH2 0xF8C JUMP JUMPDEST SWAP5 SWAP4 POP POP POP POP JUMP JUMPDEST PUSH1 0x0 PUSH1 0x20 DUP3 DUP5 SUB SLT ISZERO PUSH2 0x107B JUMPI PUSH1 0x0 DUP1 REVERT JUMPDEST POP CALLDATALOAD SWAP2 SWAP1 POP JUMP JUMPDEST DUP4 ISZERO ISZERO DUP2 MSTORE DUP3 PUSH1 0x20 DUP3 ADD MSTORE PUSH1 0x60 PUSH1 0x40 DUP3 ADD MSTORE PUSH1 0x0 PUSH2 0x10A3 PUSH1 0x60 DUP4 ADD DUP5 PUSH2 0xF8C JUMP JUMPDEST SWAP6 SWAP5 POP POP POP POP POP JUMP JUMPDEST PUSH1 0x40 DUP2 MSTORE PUSH1 0x0 PUSH2 0x10BF PUSH1 0x40 DUP4 ADD DUP6 PUSH2 0xFE5 JUMP JUMPDEST DUP3 DUP2 SUB PUSH1 0x20 DUP5 ADD MSTORE DUP1 DUP5 MLOAD DUP1 DUP4 MSTORE PUSH1 0x20 DUP4 ADD SWAP2 POP PUSH1 0x20 DUP2 PUSH1 0x5 SHL DUP5 ADD ADD PUSH1 0x20 DUP8 ADD PUSH1 0x0 JUMPDEST DUP4 DUP2 LT ISZERO PUSH2 0x1115 JUMPI PUSH1 0x1F NOT DUP7 DUP5 SUB ADD DUP6 MSTORE PUSH2 0x10FF DUP4 DUP4 MLOAD PUSH2 0xF8C JUMP JUMPDEST PUSH1 0x20 SWAP6 DUP7 ADD SWAP6 SWAP1 SWAP4 POP SWAP2 SWAP1 SWAP2 ADD SWAP1 PUSH1 0x1 ADD PUSH2 0x10E3 JUMP JUMPDEST POP SWAP1 SWAP9 SWAP8 POP POP POP POP POP POP POP POP JUMP JUMPDEST PUSH4 0x4E487B71 PUSH1 0xE0 SHL PUSH1 0x0 MSTORE PUSH1 0x41 PUSH1 0x4 MSTORE PUSH1 0x24 PUSH1 0x0 REVERT JUMPDEST PUSH1 0x0 PUSH1 0x20 DUP3 DUP5 SUB SLT ISZERO PUSH2 0x114B JUMPI PUSH1 0x0 DUP1 REVERT JUMPDEST DUP2 CALLDATALOAD PUSH8 0xFFFFFFFFFFFFFFFF DUP2 GT ISZERO PUSH2 0x1162 JUMPI PUSH1 0x0 DUP1 REVERT JUMPDEST DUP3 ADD PUSH1 0x1F DUP2 ADD DUP5 SGT PUSH2 0x1173 JUMPI PUSH1 0x0 DUP1 REVERT JUMPDEST DUP1 CALLDATALOAD PUSH8 0xFFFFFFFFFFFFFFFF DUP2 GT ISZERO PUSH2 0x118D JUMPI PUSH2 0x118D PUSH2 0x1123 JUMP JUMPDEST PUSH1 0x40 MLOAD PUSH1 0x1F DUP3 ADD PUSH1 0x1F NOT SWAP1 DUP2 AND PUSH1 0x3F ADD AND DUP2 ADD PUSH8 0xFFFFFFFFFFFFFFFF DUP2 GT DUP3 DUP3 LT OR ISZERO PUSH2 0x11BC JUMPI PUSH2 0x11BC PUSH2 0x1123 JUMP JUMPDEST PUSH1 0x40 MSTORE DUP2 DUP2 MSTORE DUP3 DUP3 ADD PUSH1 0x20 ADD DUP7 LT ISZERO PUSH2 0x11D4 JUMPI PUSH1 0x0 DUP1 REVERT JUMPDEST DUP2 PUSH1 0x20 DUP5 ADD PUSH1 0x20 DUP4 ADD CALLDATACOPY PUSH1 0x0 SWAP2 DUP2 ADD PUSH1 0x20 ADD SWAP2 SWAP1 SWAP2 MSTORE SWAP5 SWAP4 POP POP POP POP JUMP JUMPDEST DUP5 DUP2 MSTORE DUP4 PUSH1 0x20 DUP3 ADD MSTORE PUSH1 0x80 PUSH1 0x40 DUP3 ADD MSTORE PUSH1 0x0 PUSH2 0x1211 PUSH1 0x80 DUP4 ADD DUP6 PUSH2 0xF8C JUMP JUMPDEST SWAP1 POP PUSH1 0x1 DUP1 PUSH1 0xA0 SHL SUB DUP4 AND PUSH1 0x60 DUP4 ADD MSTORE SWAP6 SWAP5 POP POP POP POP POP JUMP JUMPDEST PUSH1 0x1 DUP2 DUP2 SHR SWAP1 DUP3 AND DUP1 PUSH2 0x123E JUMPI PUSH1 0x7F DUP3 AND SWAP2 POP JUMPDEST PUSH1 0x20 DUP3 LT DUP2 SUB PUSH2 0x125E JUMPI PUSH4 0x4E487B71 PUSH1 0xE0 SHL PUSH1 0x0 MSTORE PUSH1 0x22 PUSH1 0x4 MSTORE PUSH1 0x24 PUSH1 0x0 REVERT JUMPDEST POP SWAP2 SWAP1 POP JUMP JUMPDEST PUSH1 0x0 DUP3 PUSH2 0x1281 JUMPI PUSH4 0x4E487B71 PUSH1 0xE0 SHL PUSH1 0x0 MSTORE PUSH1 0x12 PUSH1 0x4 MSTORE PUSH1 0x24 PUSH1 0x0 REVERT JUMPDEST POP MOD SWAP1 JUMP JUMPDEST PUSH4 0x4E487B71 PUSH1 0xE0 SHL PUSH1 0x0 MSTORE PUSH1 0x32 PUSH1 0x4 MSTORE PUSH1 0x24 PUSH1 0x0 REVERT JUMPDEST PUSH4 0x4E487B71 PUSH1 0xE0 SHL PUSH1 0x0 MSTORE PUSH1 0x11 PUSH1 0x4 MSTORE PUSH1 0x24 PUSH1 0x0 REVERT JUMPDEST DUP2 DUP2 SUB DUP2 DUP2 GT ISZERO PUSH2 0x12C5 JUMPI PUSH2 0x12C5 PUSH2 0x129C JUMP JUMPDEST SWAP3 SWAP2 POP POP JUMP JUMPDEST PUSH1 0x1F DUP3 GT ISZERO PUSH2 0x1315 JUMPI DUP1 PUSH1 0x0 MSTORE PUSH1 0x20 PUSH1 0x0 KECCAK256 PUSH1 0x1F DUP5 ADD PUSH1 0x5 SHR DUP2 ADD PUSH1 0x20 DUP6 LT ISZERO PUSH2 0x12F2 JUMPI POP DUP1 JUMPDEST PUSH1 0x1F DUP5 ADD PUSH1 0x5 SHR DUP3 ADD SWAP2 POP JUMPDEST DUP2 DUP2 LT ISZERO PUSH2 0x1312 JUMPI PUSH1 0x0 DUP2 SSTORE PUSH1 0x1 ADD PUSH2 0x12FE JUMP JUMPDEST POP POP JUMPDEST POP POP POP JUMP JUMPDEST DUP2 MLOAD PUSH8 0xFFFFFFFFFFFFFFFF DUP2 GT ISZERO PUSH2 0x1334 JUMPI PUSH2 0x1334 PUSH2 0x1123 JUMP JUMPDEST PUSH2 0x1348 DUP2 PUSH2 0x1342 DUP5 SLOAD PUSH2 0x122A JUMP JUMPDEST DUP5 PUSH2 0x12CB JUMP JUMPDEST PUSH1 0x20 PUSH1 0x1F DUP3 GT PUSH1 0x1 DUP2 EQ PUSH2 0x137C JUMPI PUSH1 0x0 DUP4 ISZERO PUSH2 0x1364 JUMPI POP DUP5 DUP3 ADD MLOAD JUMPDEST PUSH1 0x0 NOT PUSH1 0x3 DUP6 SWAP1 SHL SHR NOT AND PUSH1 0x1 DUP5 SWAP1 SHL OR DUP5 SSTORE PUSH2 0x1312 JUMP JUMPDEST PUSH1 0x0 DUP5 DUP2 MSTORE PUSH1 0x20 DUP2 KECCAK256 PUSH1 0x1F NOT DUP6 AND SWAP2 JUMPDEST DUP3 DUP2 LT ISZERO PUSH2 0x13AC JUMPI DUP8 DUP6 ADD MLOAD DUP3 SSTORE PUSH1 0x20 SWAP5 DUP6 ADD SWAP5 PUSH1 0x1 SWAP1 SWAP3 ADD SWAP2 ADD PUSH2 0x138C JUMP JUMPDEST POP DUP5 DUP3 LT ISZERO PUSH2 0x13CA JUMPI DUP7 DUP5 ADD MLOAD PUSH1 0x0 NOT PUSH1 0x3 DUP8 SWAP1 SHL PUSH1 0xF8 AND SHR NOT AND DUP2 SSTORE JUMPDEST POP POP POP POP PUSH1 0x1 SWAP1 DUP2 SHL ADD SWAP1 SSTORE POP JUMP JUMPDEST PUSH1 0x0 PUSH1 0x1 DUP3 ADD PUSH2 0x13EB JUMPI PUSH2 0x13EB PUSH2 0x129C JUMP JUMPDEST POP PUSH1 0x1 ADD SWAP1 JUMP JUMPDEST PUSH1 0x40 DUP2 MSTORE PUSH1 0x0 PUSH2 0x1405 PUSH1 0x40 DUP4 ADD DUP6 PUSH2 0xF8C JUMP JUMPDEST SWAP1 POP DUP3 PUSH1 0x20 DUP4 ADD MSTORE SWAP4 SWAP3 POP POP POP JUMP JUMPDEST PUSH1 0x60 DUP2 MSTORE PUSH1 0x0 PUSH2 0x1427 PUSH1 0x60 DUP4 ADD DUP7 PUSH2 0xF8C JUMP JUMPDEST DUP3 DUP2 SUB PUSH1 0x20 DUP5 ADD MSTORE PUSH2 0x1439 DUP2 DUP7 PUSH2 0xF8C JUMP JUMPDEST SWAP2 POP POP DUP3 PUSH1 0x40 DUP4 ADD MSTORE SWAP5 SWAP4 POP POP POP POP JUMP JUMPDEST PUSH1 0x20 DUP1 DUP3 MSTORE PUSH1 0x21 SWAP1 DUP3 ADD MSTORE PUSH32 0x4F6E6C79206F776E65722063616E2063616C6C20746869732066756E6374696F PUSH1 0x40 DUP3 ADD MSTORE PUSH1 0x37 PUSH1 0xF9 SHL PUSH1 0x60 DUP3 ADD MSTORE PUSH1 0x80 ADD SWAP1 JUMP JUMPDEST DUP1 DUP3 ADD DUP1 DUP3 GT ISZERO PUSH2 0x12C5 JUMPI PUSH2 0x12C5 PUSH2 0x129C JUMP INVALID LOG2 PUSH5 0x6970667358 0x22 SLT KECCAK256 PUSH3 0x4DF1DE 0xCA 0xD GT PUSH25 0x977B48B68E328C84F15B0CA44AF6FE3FED66011AB45F3DDA64 PUSH20 0x6F6C634300081C00330000000000000000000000 "
        },
        "methodIdentifiers": {
          "defaultGreeting()": "791baac4",
          "getAllGreeters()": "0e98d8c8",
          "getContractStats()": "dfe6b5d6",
          "getGreeting(address)": "09a2da41",
          "getGreetingStats(address)": "944953f5",
          "getLatestGreetings(uint256)": "95333ac5",
          "getMyGreeting()": "2bb3e1eb",
          "getRandomGreeting()": "5c1000fe",
          "greeters(uint256)": "6ea545e7",
          "greetingCount(address)": "841dc7d6",
          "hasGreeting(address)": "269ddd5b",
          "hasSetGreeting(address)": "95c8c475",
          "owner()": "8da5cb5b",
          "personalGreetings(address)": "eadb6842",
          "setDefaultGreeting(string)": "b5a71956",
          "setGreeting(string)": "a4136862",
          "totalGreetings()": "b528d8f2",
          "transferOwnership(address)": "f2fde38b"
        }
      }
    }
  }
}