{
  "contracts/PredictionMarket.sol": {
    "PredictionMarket": {
      "abi": [
        {
          "inputs": [
            {
              "internalType": "address",
              "name": "initialOwner",
              "type": "address"
            },
            {
              "internalType": "uint256",
              "name": "_initialFeeBps",
              "type": "uint256"
            }
          ],
          "stateMutability": "nonpayable",
          "type": "constructor"
        },
        {
          "inputs": [
            {
              "internalType": "address",
              "name": "owner",
              "type": "address"
            }
          ],
          "name": "OwnableInvalidOwner",
          "type": "error"
        },
        {
          "inputs": [
            {
              "internalType": "address",
              "name": "account",
              "type": "address"
            }
          ],
          "name": "OwnableUnauthorizedAccount",
          "type": "error"
        },
        {
          "inputs": [],
          "name": "ReentrancyGuardReentrantCall",
          "type": "error"
        },
        {
          "anonymous": false,
          "inputs": [
            {
              "indexed": true,
              "internalType": "uint256",
              "name": "marketId",
              "type": "uint256"
            },
            {
              "indexed": false,
              "internalType": "string",
              "name": "question",
              "type": "string"
            },
            {
              "indexed": true,
              "internalType": "address",
              "name": "resolver",
              "type": "address"
            },
            {
              "indexed": false,
              "internalType": "uint256",
              "name": "resolutionTimestamp",
              "type": "uint256"
            }
          ],
          "name": "MarketCreated",
          "type": "event"
        },
        {
          "anonymous": false,
          "inputs": [
            {
              "indexed": true,
              "internalType": "uint256",
              "name": "marketId",
              "type": "uint256"
            },
            {
              "indexed": false,
              "internalType": "uint8",
              "name": "winningOutcome",
              "type": "uint8"
            }
          ],
          "name": "MarketResolved",
          "type": "event"
        },
        {
          "anonymous": false,
          "inputs": [
            {
              "indexed": true,
              "internalType": "address",
              "name": "previousOwner",
              "type": "address"
            },
            {
              "indexed": true,
              "internalType": "address",
              "name": "newOwner",
              "type": "address"
            }
          ],
          "name": "OwnershipTransferred",
          "type": "event"
        },
        {
          "anonymous": false,
          "inputs": [
            {
              "indexed": true,
              "internalType": "uint256",
              "name": "marketId",
              "type": "uint256"
            },
            {
              "indexed": true,
              "internalType": "address",
              "name": "user",
              "type": "address"
            },
            {
              "indexed": false,
              "internalType": "uint256",
              "name": "amount",
              "type": "uint256"
            },
            {
              "indexed": false,
              "internalType": "uint256",
              "name": "celoAmount",
              "type": "uint256"
            }
          ],
          "name": "SharesBought",
          "type": "event"
        },
        {
          "anonymous": false,
          "inputs": [
            {
              "indexed": true,
              "internalType": "uint256",
              "name": "marketId",
              "type": "uint256"
            },
            {
              "indexed": true,
              "internalType": "address",
              "name": "user",
              "type": "address"
            },
            {
              "indexed": false,
              "internalType": "uint256",
              "name": "amount",
              "type": "uint256"
            },
            {
              "indexed": false,
              "internalType": "uint256",
              "name": "celoAmount",
              "type": "uint256"
            }
          ],
          "name": "SharesSold",
          "type": "event"
        },
        {
          "anonymous": false,
          "inputs": [
            {
              "indexed": true,
              "internalType": "uint256",
              "name": "marketId",
              "type": "uint256"
            },
            {
              "indexed": true,
              "internalType": "address",
              "name": "user",
              "type": "address"
            },
            {
              "indexed": false,
              "internalType": "uint256",
              "name": "amount",
              "type": "uint256"
            },
            {
              "indexed": false,
              "internalType": "uint256",
              "name": "payout",
              "type": "uint256"
            }
          ],
          "name": "WinningsRedeemed",
          "type": "event"
        },
        {
          "inputs": [],
          "name": "accumulatedFees",
          "outputs": [
            {
              "internalType": "uint256",
              "name": "",
              "type": "uint256"
            }
          ],
          "stateMutability": "view",
          "type": "function"
        },
        {
          "inputs": [
            {
              "internalType": "uint256",
              "name": "_marketId",
              "type": "uint256"
            }
          ],
          "name": "buyShares",
          "outputs": [],
          "stateMutability": "payable",
          "type": "function"
        },
        {
          "inputs": [
            {
              "internalType": "string",
              "name": "_question",
              "type": "string"
            },
            {
              "internalType": "address",
              "name": "_resolver",
              "type": "address"
            },
            {
              "internalType": "uint256",
              "name": "_resolutionTimestamp",
              "type": "uint256"
            }
          ],
          "name": "createMarket",
          "outputs": [],
          "stateMutability": "nonpayable",
          "type": "function"
        },
        {
          "inputs": [
            {
              "internalType": "uint256",
              "name": "_marketId",
              "type": "uint256"
            }
          ],
          "name": "getMarket",
          "outputs": [
            {
              "components": [
                {
                  "internalType": "uint256",
                  "name": "id",
                  "type": "uint256"
                },
                {
                  "internalType": "string",
                  "name": "question",
                  "type": "string"
                },
                {
                  "internalType": "address",
                  "name": "resolver",
                  "type": "address"
                },
                {
                  "internalType": "uint256",
                  "name": "resolutionTimestamp",
                  "type": "uint256"
                },
                {
                  "internalType": "bool",
                  "name": "isResolved",
                  "type": "bool"
                },
                {
                  "internalType": "uint8",
                  "name": "winningOutcome",
                  "type": "uint8"
                },
                {
                  "internalType": "address",
                  "name": "yesToken",
                  "type": "address"
                },
                {
                  "internalType": "address",
                  "name": "noToken",
                  "type": "address"
                },
                {
                  "internalType": "uint256",
                  "name": "liquidityPool",
                  "type": "uint256"
                }
              ],
              "internalType": "struct PredictionMarket.Market",
              "name": "",
              "type": "tuple"
            }
          ],
          "stateMutability": "view",
          "type": "function"
        },
        {
          "inputs": [],
          "name": "marketCounter",
          "outputs": [
            {
              "internalType": "uint256",
              "name": "",
              "type": "uint256"
            }
          ],
          "stateMutability": "view",
          "type": "function"
        },
        {
          "inputs": [
            {
              "internalType": "uint256",
              "name": "",
              "type": "uint256"
            }
          ],
          "name": "markets",
          "outputs": [
            {
              "internalType": "uint256",
              "name": "id",
              "type": "uint256"
            },
            {
              "internalType": "string",
              "name": "question",
              "type": "string"
            },
            {
              "internalType": "address",
              "name": "resolver",
              "type": "address"
            },
            {
              "internalType": "uint256",
              "name": "resolutionTimestamp",
              "type": "uint256"
            },
            {
              "internalType": "bool",
              "name": "isResolved",
              "type": "bool"
            },
            {
              "internalType": "uint8",
              "name": "winningOutcome",
              "type": "uint8"
            },
            {
              "internalType": "address",
              "name": "yesToken",
              "type": "address"
            },
            {
              "internalType": "address",
              "name": "noToken",
              "type": "address"
            },
            {
              "internalType": "uint256",
              "name": "liquidityPool",
              "type": "uint256"
            }
          ],
          "stateMutability": "view",
          "type": "function"
        },
        {
          "inputs": [],
          "name": "owner",
          "outputs": [
            {
              "internalType": "address",
              "name": "",
              "type": "address"
            }
          ],
          "stateMutability": "view",
          "type": "function"
        },
        {
          "inputs": [],
          "name": "platformFeeBps",
          "outputs": [
            {
              "internalType": "uint256",
              "name": "",
              "type": "uint256"
            }
          ],
          "stateMutability": "view",
          "type": "function"
        },
        {
          "inputs": [
            {
              "internalType": "uint256",
              "name": "_marketId",
              "type": "uint256"
            }
          ],
          "name": "redeemWinnings",
          "outputs": [],
          "stateMutability": "nonpayable",
          "type": "function"
        },
        {
          "inputs": [],
          "name": "renounceOwnership",
          "outputs": [],
          "stateMutability": "nonpayable",
          "type": "function"
        },
        {
          "inputs": [
            {
              "internalType": "uint256",
              "name": "_marketId",
              "type": "uint256"
            },
            {
              "internalType": "uint8",
              "name": "_winningOutcome",
              "type": "uint8"
            }
          ],
          "name": "resolveMarket",
          "outputs": [],
          "stateMutability": "nonpayable",
          "type": "function"
        },
        {
          "inputs": [
            {
              "internalType": "uint256",
              "name": "_marketId",
              "type": "uint256"
            },
            {
              "internalType": "uint256",
              "name": "_amount",
              "type": "uint256"
            }
          ],
          "name": "sellShares",
          "outputs": [],
          "stateMutability": "nonpayable",
          "type": "function"
        },
        {
          "inputs": [
            {
              "internalType": "uint256",
              "name": "_newFeeBps",
              "type": "uint256"
            }
          ],
          "name": "setPlatformFee",
          "outputs": [],
          "stateMutability": "nonpayable",
          "type": "function"
        },
        {
          "inputs": [
            {
              "internalType": "address",
              "name": "newOwner",
              "type": "address"
            }
          ],
          "name": "transferOwnership",
          "outputs": [],
          "stateMutability": "nonpayable",
          "type": "function"
        },
        {
          "inputs": [],
          "name": "withdrawFees",
          "outputs": [],
          "stateMutability": "nonpayable",
          "type": "function"
        }
      ],
      "evm": {
        "bytecode": {
          "linkReferences": {},
          "object": "60803461011d57601f6127fb38819003918201601f19168301916001600160401b0383118484101761012257808492604094855283398101031261011d5780516001600160a01b038116919082900361011d576020015190801561010757600080546001600160a01b031981168317825560405192916001600160a01b03909116907f8be0079c531659141344cd1fd0a4f28419497f9722a3daafe3b4186f6b6457e09080a3600180556101f482116100c557506004556040516126c290816101398239f35b62461bcd60e51b815260206004820152601460248201527f4665652063616e6e6f74206578636565642035250000000000000000000000006044820152606490fd5b631e4fbdf760e01b600052600060045260246000fd5b600080fd5b634e487b7160e01b600052604160045260246000fdfe6080604052600436101561001257600080fd5b6000803560e01c806312e8e2c3146114ea5780632279a970146111a257806322dcd13e146111845780632476080714611166578063476343ee146110a6578063587f5ed714611088578063715018a61461102e5780638da5cb5b14611007578063b1283e7714610f4a578063d1a93d1814610da8578063d3caedfb146107a6578063d7ed74531461047f578063df55406e146102b9578063eb44fdd3146101505763f2fde38b146100c257600080fd5b3461014d57602036600319011261014d576004356001600160a01b0381169081900361014b576100f0611822565b80156101375781546001600160a01b03198116821783556001600160a01b03167f8be0079c531659141344cd1fd0a4f28419497f9722a3daafe3b4186f6b6457e08380a380f35b631e4fbdf760e01b82526004829052602482fd5b505b80fd5b503461014d57602036600319011261014d578060409161010083516101748161158c565b8281526060602082015282858201528260608201528260808201528260a08201528260c08201528260e0820152015260043581526003602052206040516101ba8161158c565b815481526101ca600183016115e1565b916020820192835260018060a01b03600282015416906040830191825260038101549060608401918252600481015460ff608086018183161515815260a0870190828460081c16825260c088019360018060a01b039060101c168452600660018060a01b036005870154169560e08a01968752015495610100890196875261026f6040519a8b9a60208c525160208c01525161012060408c01526101408b01906116a8565b97516001600160a01b0390811660608b0152905160808a01529051151560a089015290519190911660c08701529051811660e0860152905116610100840152516101208301520390f35b503461014d57604036600319011261014d5760043560243560ff811680820361047b578284526003602052604084206102f4815415156116e9565b60028101546001600160a01b0316330361043d57600381015442106103ec5760040190815460ff81166103a757600282116103705761ffff191660089390931b61ff00169290921760011790557f739f283563fb51ab6b89ee95d937b2e63a6cfcb83c385dbebb629f9d97bd43e690602090604051908152a280f35b60405162461bcd60e51b815260206004820152600f60248201526e496e76616c6964206f7574636f6d6560881b6044820152606490fd5b60405162461bcd60e51b815260206004820152601760248201527f4d61726b657420616c7265616479207265736f6c7665640000000000000000006044820152606490fd5b60405162461bcd60e51b815260206004820152602360248201527f4d61726b6574206e6f742079657420726561647920666f72207265736f6c757460448201526234b7b760e91b6064820152608490fd5b60405162461bcd60e51b815260206004820152601660248201527513db9b1e481c995cdbdb1d995c8818d85b8818d85b1b60521b6044820152606490fd5b8380fd5b503461014d57602036600319011261014d5760043561049c61184b565b808252600360205260408220906104b5825415156116e9565b600482015460ff8116156107615760ff8160081c16600181146000146106db575060101c6001600160a01b03165b6040516370a0823160e01b815233600482015292906001600160a01b0316602084602481845afa9384156106d0578594610697575b508315610652578085913b1561014b57604051632770a7eb60e21b8152336004820152602481018690529082908290604490829084905af1801561064757610632575b5050600454808402908482040361061e57612710600691049161058a6105818487611779565b936005546117cc565b60055501610599848254611779565b90558380808084335af16105ab61179c565b50156105e95760405192835260208301527f18c778b91c116ec23e8dbc0b3c021d2d200ff0be3308385a7fd82c9940b6e4d660403393a36001805580f35b60405162461bcd60e51b815260206004820152600d60248201526c14185e5bdd5d0819985a5b1959609a1b6044820152606490fd5b634e487b7160e01b85526011600452602485fd5b8161063c916115bf565b61047b57833861055b565b6040513d84823e3d90fd5b60405162461bcd60e51b815260206004820152601b60248201527f4e6f2077696e6e696e672073686172657320746f2072656465656d00000000006044820152606490fd5b9093506020813d6020116106c8575b816106b3602093836115bf565b810103126106c357519238610518565b600080fd5b3d91506106a6565b6040513d87823e3d90fd5b151590506106f65760058201546001600160a01b03166104e3565b60405162461bcd60e51b815260206004820152603a60248201527f4d61726b6574207265736f6c76656420617320696e76616c69643b207573652060448201527f6120736570617261746520726566756e642066756e6374696f6e0000000000006064820152608490fd5b60405162461bcd60e51b815260206004820152601760248201527f4d61726b6574206d757374206265207265736f6c7665640000000000000000006044820152606490fd5b503461014d57606036600319011261014d5760043567ffffffffffffffff811161014b573660238201121561014b57818160040135916107e5836116cd565b926107f360405194856115bf565b8084523660248284010111610da457806024602093018386013783010152602435906001600160a01b0382168203610da457426044351115610d51576001600160a01b03821615610d0c576108496002546117d9565b90816002556108578261186d565b6108a7600660286040518094674d61726b6574202360c01b60208301526108878151809260208686019101611685565b810165202d2059455360d01b8382015203016019198101845201826115bf565b6108b08361186d565b6108f4600160216040518094604d60f81b60208301526108d98151809260208686019101611685565b8101605960f81b838201520301601e198101845201826115bf565b604051610d41918282019082821067ffffffffffffffff831117610cf85782916109279161194c968688863930926117e8565b039087f0918215610ced5761093b8561186d565b61098a600560286040518094674d61726b6574202360c01b602083015261096b8151809260208686019101611685565b810164202d204e4f60d81b838201520301601a198101845201826115bf565b6109938661186d565b906109d8600160216040518095604d60f81b60208301526109bd8151809260208686019101611685565b8101602760f91b838201520301601e198101855201836115bf565b604051938085019385851067ffffffffffffffff861117610cd95791610a059391869593863930926117e8565b039086f080156106d05760405190610a1c8261158c565b84825260208083018581526001600160a01b038881166040808701919091526044356060870152608086018b905260a086018b905295811660c08601529290921660e084015261010083018890528588526003905291862081518155915180519067ffffffffffffffff8211610cc557610a996001850154611552565b601f8111610c81575b50602090601f8311600114610bec577f069da8c9710c1600001ae111f110050f586b7fcd73d420b5eb03747f67e86d0d959383610bc79694600694610100948d92610be1575b50508160011b916000199060031b1c19161760018501555b60408101516002850180546001600160a01b039092166001600160a01b031990921691909117905560608101516003850155608081015160048501805460a084015161ff0060089190911b1692151560ff1661ffff199091161791909117815560c0820151815462010000600160b01b03191660109190911b62010000600160b01b031617905560e08101516005850180546001600160a01b0319166001600160a01b039290921691909117905501519101556040805181815292839290918301906116a8565b60443560208301526001600160a01b03909516940390a380f35b015190503880610ae8565b6001850189528189209190601f1984168a5b818110610c69575084600694610100947f069da8c9710c1600001ae111f110050f586b7fcd73d420b5eb03747f67e86d0d9a9894610bc79a9860019510610c50575b505050811b016001850155610b00565b015160001960f88460031b161c19169055388080610c40565b92936020600181928786015181550195019301610bfe565b60018501895260208920601f840160051c810160208510610cbe575b601f830160051c82018110610cb3575050610aa2565b8a8155600101610c9d565b5080610c9d565b634e487b7160e01b88526041600452602488fd5b634e487b7160e01b8b52604160045260248bfd5b6040513d88823e3d90fd5b634e487b7160e01b89526041600452602489fd5b60405162461bcd60e51b815260206004820152601f60248201527f5265736f6c7665722063616e6e6f74206265207a65726f2061646472657373006044820152606490fd5b60405162461bcd60e51b815260206004820152602560248201527f5265736f6c7574696f6e2074696d65206d75737420626520696e207468652066604482015264757475726560d81b6064820152608490fd5b8280fd5b50602036600319011261014d57600435610dc061184b565b808252600360205260408220610dd8815415156116e9565b600481015490610deb60ff83161561172d565b3415610f0557839160068201610e023482546117cc565b905560101c6001600160a01b0316803b15610da4576040516340c10f1960e01b81523360048201523460248201529083908290604490829084905af1908115610efa578391610ee5575b5050600501546001600160a01b0316803b1561014b576040516340c10f1960e01b81523360048201523460248201529082908290604490829084905af1801561064757610ed0575b5050604051903482523460208301527f0831583cced7554a81e1cd091e811afaadc7d575a17fbd354716145bb597efc960403393a36001805580f35b81610eda916115bf565b61014b578138610e94565b81610eef916115bf565b61014b578138610e4c565b6040513d85823e3d90fd5b60405162461bcd60e51b815260206004820152601c60248201527f4d7573742073656e642043454c4f20746f2062757920736861726573000000006044820152606490fd5b503461014d57602036600319011261014d5760409060043581526003602052208054610f78600183016115e1565b9160018060a01b03600282015416906003810154906004810154600660018060a01b0360058401541692015492610fc3604051978897885261012060208901526101208801906116a8565b6040870195909552606086015260ff81811615156080870152600882901c1660a086015260101c6001600160a01b031660c085015260e08401526101008301520390f35b503461014d578060031936011261014d57546040516001600160a01b039091168152602090f35b503461014d578060031936011261014d57611047611822565b80546001600160a01b03198116825581906001600160a01b03167f8be0079c531659141344cd1fd0a4f28419497f9722a3daafe3b4186f6b6457e08280a380f35b503461014d578060031936011261014d576020600554604051908152f35b503461014d578060031936011261014d576110bf611822565b600554801561112b5781808080938160055560018060a01b038254165af16110e561179c565b50156110ee5780f35b60405162461bcd60e51b8152602060048201526015602482015274119959481dda5d1a191c985dd85b0819985a5b1959605a1b6044820152606490fd5b60405162461bcd60e51b81526020600482015260136024820152724e6f206665657320746f20776974686472617760681b6044820152606490fd5b503461014d578060031936011261014d576020600254604051908152f35b503461014d578060031936011261014d576020600454604051908152f35b503461014d57604036600319011261014d576024356004356111c261184b565b8083526003602052604083206111da815415156116e9565b60048101546111ec60ff82161561172d565b83156114a65760058201546040516370a0823160e01b81523360048201526001600160a01b039182169360109390931c9091169190602081602481865afa80156114215786918891611471575b501061142c576040516370a0823160e01b8152336004820152602081602481875afa801561142157869188916113e8575b50106113aa5760060161127e858254611779565b9055803b156113a657604051632770a7eb60e21b8152336004820152602481018590529085908290604490829084905af180156106d057611392575b508084913b1561014b57604051632770a7eb60e21b8152336004820152602481018590529082908290604490829084905af180156106475761137d575b5080808085335af161130761179c565b5015611346576040519180835260208301527fc84ba642853b7fceb52ece6998aa2618edc77f7a182996141f2a470af347cea360403393a36001805580f35b60405162461bcd60e51b815260206004820152600f60248201526e151c985b9cd9995c8819985a5b1959608a1b6044820152606490fd5b81611387916115bf565b610da45782386112f7565b8461139f919592956115bf565b92386112ba565b8480fd5b60405162461bcd60e51b8152602060048201526016602482015275496e73756666696369656e74204e4f20746f6b656e7360501b6044820152606490fd5b9150506020813d602011611419575b81611404602093836115bf565b81010312611415578590513861126a565b8680fd5b3d91506113f7565b6040513d89823e3d90fd5b60405162461bcd60e51b815260206004820152601760248201527f496e73756666696369656e742059455320746f6b656e730000000000000000006044820152606490fd5b9150506020813d60201161149e575b8161148d602093836115bf565b810103126114155785905138611239565b3d9150611480565b606460405162461bcd60e51b815260206004820152602060248201527f416d6f756e74206d7573742062652067726561746572207468616e207a65726f6044820152fd5b503461014d57602036600319011261014d57600435611507611822565b6101f481116115165760045580f35b60405162461bcd60e51b81526020600482015260146024820152734665652063616e6e6f742065786365656420352560601b6044820152606490fd5b90600182811c92168015611582575b602083101461156c57565b634e487b7160e01b600052602260045260246000fd5b91607f1691611561565b610120810190811067ffffffffffffffff8211176115a957604052565b634e487b7160e01b600052604160045260246000fd5b90601f8019910116810190811067ffffffffffffffff8211176115a957604052565b90604051918260008254926115f584611552565b8084529360018116908115611663575060011461161c575b5061161a925003836115bf565b565b90506000929192526020600020906000915b81831061164757505090602061161a928201013861160d565b602091935080600191548385890101520191019091849261162e565b90506020925061161a94915060ff191682840152151560051b8201013861160d565b60005b8381106116985750506000910152565b8181015183820152602001611688565b906020916116c181518092818552858086019101611685565b601f01601f1916010190565b67ffffffffffffffff81116115a957601f01601f191660200190565b156116f057565b60405162461bcd60e51b815260206004820152601560248201527413585c9ad95d08191bd95cc81b9bdd08195e1a5cdd605a1b6044820152606490fd5b1561173457565b60405162461bcd60e51b815260206004820152601a60248201527f4d61726b657420697320616c7265616479207265736f6c7665640000000000006044820152606490fd5b9190820391821161178657565b634e487b7160e01b600052601160045260246000fd5b3d156117c7573d906117ad826116cd565b916117bb60405193846115bf565b82523d6000602084013e565b606090565b9190820180921161178657565b60001981146117865760010190565b91611812906118046040939695966060865260608601906116a8565b9084820360208601526116a8565b6001600160a01b03909416910152565b6000546001600160a01b0316330361183657565b63118cdaa760e01b6000523360045260246000fd5b60026001541461185c576002600155565b633ee5aeb560e01b60005260046000fd5b801561192b57600081805b6119175750611886816116cd565b9061189460405192836115bf565b808252601f196118a3826116cd565b013660208401375b80928015611910576000198201918211611786578193600a8206603001928360301161178657845111156118fa57600a9260f81b6001600160f81b03191660001a908401601f015304916118ab565b634e487b7160e01b600052603260045260246000fd5b5050905090565b90611923600a916117d9565b910480611878565b5060405161193a6040826115bf565b60018152600360fc1b60208201529056fe6080604052346103a057610d4180380380610019816103a5565b9283398101906060818303126103a05780516001600160401b0381116103a057826100459183016103ca565b60208201519092906001600160401b0381116103a0576040916100699184016103ca565b9101516001600160a01b038116908190036103a05782516001600160401b0381116102a957600354600181811c91168015610396575b602082101461028957601f8111610331575b506020601f82116001146102ca57819293946000926102bf575b50508160011b916000199060031b1c1916176003555b81516001600160401b0381116102a957600454600181811c9116801561029f575b602082101461028957601f8111610224575b50602092601f82116001146101bf57928192936000926101b4575b50508160011b916000199060031b1c1916176004555b801561019e57600580546001600160a01b03198116831790915560405191906001600160a01b03167f8be0079c531659141344cd1fd0a4f28419497f9722a3daafe3b4186f6b6457e0600080a361090b90816104368239f35b631e4fbdf760e01b600052600060045260246000fd5b01519050388061012f565b601f198216936004600052806000209160005b86811061020c57508360019596106101f3575b505050811b01600455610145565b015160001960f88460031b161c191690553880806101e5565b919260206001819286850151815501940192016101d2565b60046000527f8a35acfbc15ff81a39ae7d344fd709f28e8600b4aa8c65c6b64bfe7fe36bd19b601f830160051c8101916020841061027f575b601f0160051c01905b8181106102735750610114565b60008155600101610266565b909150819061025d565b634e487b7160e01b600052602260045260246000fd5b90607f1690610102565b634e487b7160e01b600052604160045260246000fd5b0151905038806100cb565b601f198216906003600052806000209160005b81811061031957509583600195969710610300575b505050811b016003556100e1565b015160001960f88460031b161c191690553880806102f2565b9192602060018192868b0151815501940192016102dd565b60036000527fc2575a0e9e593c00f959f8c92f12db2869c3395a3b0502d05e2516446f71f85b601f830160051c8101916020841061038c575b601f0160051c01905b81811061038057506100b1565b60008155600101610373565b909150819061036a565b90607f169061009f565b600080fd5b6040519190601f01601f191682016001600160401b038111838210176102a957604052565b81601f820112156103a0578051906001600160401b0382116102a9576103f9601f8301601f19166020016103a5565b92828452602083830101116103a05760005b82811061042057505060206000918301015290565b8060208092840101518282870101520161040b56fe608080604052600436101561001357600080fd5b60003560e01c90816306fdde03146106cb57508063095ea7b31461064557806318160ddd1461062757806323b872dd1461053a578063313ce5671461051e57806340c10f191461046a57806370a0823114610430578063715018a6146103d35780638da5cb5b146103aa57806395d89b41146102895780639dc29fac146101ca578063a9059cbb14610199578063dd62ed3e146101485763f2fde38b146100b957600080fd5b34610143576020366003190112610143576100d26107e7565b6100da6108ac565b6001600160a01b0316801561012d57600580546001600160a01b0319811683179091556001600160a01b03167f8be0079c531659141344cd1fd0a4f28419497f9722a3daafe3b4186f6b6457e0600080a3005b631e4fbdf760e01b600052600060045260246000fd5b600080fd5b34610143576040366003190112610143576101616107e7565b6101696107fd565b6001600160a01b039182166000908152600160209081526040808320949093168252928352819020549051908152f35b34610143576040366003190112610143576101bf6101b56107e7565b6024359033610813565b602060405160018152f35b34610143576040366003190112610143576101e36107e7565b602435906101ef6108ac565b6001600160a01b03169081156102735760009082825281602052604082205481811061025b5760208285937fddf252ad1be2c89b69c2b068fc378daa952ba7f163c4a11628f55a4df523b3ef93869787528684520360408620558060025403600255604051908152a380f35b60649363391434e360e21b8452600452602452604452fd5b634b637e8f60e11b600052600060045260246000fd5b346101435760003660031901126101435760405160006004548060011c906001811680156103a0575b60208310811461038c578285529081156103705750600114610319575b50819003601f01601f191681019067ffffffffffffffff821181831017610303576102ff8291826040528261079e565b0390f35b634e487b7160e01b600052604160045260246000fd5b905060046000527f8a35acfbc15ff81a39ae7d344fd709f28e8600b4aa8c65c6b64bfe7fe36bd19b6000905b82821061035a575060209150820101826102cf565b6001816020925483858801015201910190610345565b90506020925060ff191682840152151560051b820101826102cf565b634e487b7160e01b84526022600452602484fd5b91607f16916102b2565b34610143576000366003190112610143576005546040516001600160a01b039091168152602090f35b34610143576000366003190112610143576103ec6108ac565b600580546001600160a01b031981169091556000906001600160a01b03167f8be0079c531659141344cd1fd0a4f28419497f9722a3daafe3b4186f6b6457e08280a3005b34610143576020366003190112610143576001600160a01b036104516107e7565b1660005260006020526020604060002054604051908152f35b34610143576040366003190112610143576104836107e7565b6024359061048f6108ac565b6001600160a01b0316801561050857600254918083018093116104f2576020926002557fddf252ad1be2c89b69c2b068fc378daa952ba7f163c4a11628f55a4df523b3ef600093849284845283825260408420818154019055604051908152a380f35b634e487b7160e01b600052601160045260246000fd5b63ec442f0560e01b600052600060045260246000fd5b3461014357600036600319011261014357602060405160128152f35b34610143576060366003190112610143576105536107e7565b61055b6107fd565b6001600160a01b038216600081815260016020908152604080832033845290915290205490926044359291600019811061059b575b506101bf9350610813565b83811061060a5784156105f45733156105de576101bf946000526001602052604060002060018060a01b0333166000526020528360406000209103905584610590565b634a1406b160e11b600052600060045260246000fd5b63e602df0560e01b600052600060045260246000fd5b8390637dc7a0d960e11b6000523360045260245260445260646000fd5b34610143576000366003190112610143576020600254604051908152f35b346101435760403660031901126101435761065e6107e7565b6024359033156105f4576001600160a01b03169081156105de57336000526001602052604060002082600052602052806040600020556040519081527f8c5be1e5ebec7d5bd14f71427d1e84f3dd0314c0f7b2291e5b200ac8c7c3b92560203392a3602060405160018152f35b346101435760003660031901126101435760006003548060011c90600181168015610794575b60208310811461038c57828552908115610370575060011461073d5750819003601f01601f191681019067ffffffffffffffff821181831017610303576102ff8291826040528261079e565b905060036000527fc2575a0e9e593c00f959f8c92f12db2869c3395a3b0502d05e2516446f71f85b6000905b82821061077e575060209150820101826102cf565b6001816020925483858801015201910190610769565b91607f16916106f1565b91909160208152825180602083015260005b8181106107d1575060409293506000838284010152601f8019910116010190565b80602080928701015160408286010152016107b0565b600435906001600160a01b038216820361014357565b602435906001600160a01b038216820361014357565b6001600160a01b0316908115610273576001600160a01b03169182156105085760008281528060205260408120548281106108925791604082827fddf252ad1be2c89b69c2b068fc378daa952ba7f163c4a11628f55a4df523b3ef958760209652828652038282205586815280845220818154019055604051908152a3565b916064928463391434e360e21b8452600452602452604452fd5b6005546001600160a01b031633036108c057565b63118cdaa760e01b6000523360045260246000fdfea2646970667358221220fc963b9f887b59257a9e82a1511057be5d20e3f36eb76684f36d174c185014bc64736f6c634300081c0033a264697066735822122096b01dd93f96ddb9a64f319774dc07e4f600470baa54ec1852b3f35ffe23d9ba64736f6c634300081c0033",
          "opcodes": "PUSH1 0x80 CALLVALUE PUSH2 0x11D JUMPI PUSH1 0x1F PUSH2 0x27FB CODESIZE DUP2 SWAP1 SUB SWAP2 DUP3 ADD PUSH1 0x1F NOT AND DUP4 ADD SWAP2 PUSH1 0x1 PUSH1 0x1 PUSH1 0x40 SHL SUB DUP4 GT DUP5 DUP5 LT OR PUSH2 0x122 JUMPI DUP1 DUP5 SWAP3 PUSH1 0x40 SWAP5 DUP6 MSTORE DUP4 CODECOPY DUP2 ADD SUB SLT PUSH2 0x11D JUMPI DUP1 MLOAD PUSH1 0x1 PUSH1 0x1 PUSH1 0xA0 SHL SUB DUP2 AND SWAP2 SWAP1 DUP3 SWAP1 SUB PUSH2 0x11D JUMPI PUSH1 0x20 ADD MLOAD SWAP1 DUP1 ISZERO PUSH2 0x107 JUMPI PUSH1 0x0 DUP1 SLOAD PUSH1 0x1 PUSH1 0x1 PUSH1 0xA0 SHL SUB NOT DUP2 AND DUP4 OR DUP3 SSTORE PUSH1 0x40 MLOAD SWAP3 SWAP2 PUSH1 0x1 PUSH1 0x1 PUSH1 0xA0 SHL SUB SWAP1 SWAP2 AND SWAP1 PUSH32 0x8BE0079C531659141344CD1FD0A4F28419497F9722A3DAAFE3B4186F6B6457E0 SWAP1 DUP1 LOG3 PUSH1 0x1 DUP1 SSTORE PUSH2 0x1F4 DUP3 GT PUSH2 0xC5 JUMPI POP PUSH1 0x4 SSTORE PUSH1 0x40 MLOAD PUSH2 0x26C2 SWAP1 DUP2 PUSH2 0x139 DUP3 CODECOPY RETURN JUMPDEST PUSH3 0x461BCD PUSH1 0xE5 SHL DUP2 MSTORE PUSH1 0x20 PUSH1 0x4 DUP3 ADD MSTORE PUSH1 0x14 PUSH1 0x24 DUP3 ADD MSTORE PUSH32 0x4665652063616E6E6F7420657863656564203525000000000000000000000000 PUSH1 0x44 DUP3 ADD MSTORE PUSH1 0x64 SWAP1 REVERT JUMPDEST PUSH4 0x1E4FBDF7 PUSH1 0xE0 SHL PUSH1 0x0 MSTORE PUSH1 0x0 PUSH1 0x4 MSTORE PUSH1 0x24 PUSH1 0x0 REVERT JUMPDEST PUSH1 0x0 DUP1 REVERT JUMPDEST PUSH4 0x4E487B71 PUSH1 0xE0 SHL PUSH1 0x0 MSTORE PUSH1 0x41 PUSH1 0x4 MSTORE PUSH1 0x24 PUSH1 0x0 REVERT INVALID PUSH1 0x80 PUSH1 0x40 MSTORE PUSH1 0x4 CALLDATASIZE LT ISZERO PUSH2 0x12 JUMPI PUSH1 0x0 DUP1 REVERT JUMPDEST PUSH1 0x0 DUP1 CALLDATALOAD PUSH1 0xE0 SHR DUP1 PUSH4 0x12E8E2C3 EQ PUSH2 0x14EA JUMPI DUP1 PUSH4 0x2279A970 EQ PUSH2 0x11A2 JUMPI DUP1 PUSH4 0x22DCD13E EQ PUSH2 0x1184 JUMPI DUP1 PUSH4 0x24760807 EQ PUSH2 0x1166 JUMPI DUP1 PUSH4 0x476343EE EQ PUSH2 0x10A6 JUMPI DUP1 PUSH4 0x587F5ED7 EQ PUSH2 0x1088 JUMPI DUP1 PUSH4 0x715018A6 EQ PUSH2 0x102E JUMPI DUP1 PUSH4 0x8DA5CB5B EQ PUSH2 0x1007 JUMPI DUP1 PUSH4 0xB1283E77 EQ PUSH2 0xF4A JUMPI DUP1 PUSH4 0xD1A93D18 EQ PUSH2 0xDA8 JUMPI DUP1 PUSH4 0xD3CAEDFB EQ PUSH2 0x7A6 JUMPI DUP1 PUSH4 0xD7ED7453 EQ PUSH2 0x47F JUMPI DUP1 PUSH4 0xDF55406E EQ PUSH2 0x2B9 JUMPI DUP1 PUSH4 0xEB44FDD3 EQ PUSH2 0x150 JUMPI PUSH4 0xF2FDE38B EQ PUSH2 0xC2 JUMPI PUSH1 0x0 DUP1 REVERT JUMPDEST CALLVALUE PUSH2 0x14D JUMPI PUSH1 0x20 CALLDATASIZE PUSH1 0x3 NOT ADD SLT PUSH2 0x14D JUMPI PUSH1 0x4 CALLDATALOAD PUSH1 0x1 PUSH1 0x1 PUSH1 0xA0 SHL SUB DUP2 AND SWAP1 DUP2 SWAP1 SUB PUSH2 0x14B JUMPI PUSH2 0xF0 PUSH2 0x1822 JUMP JUMPDEST DUP1 ISZERO PUSH2 0x137 JUMPI DUP2 SLOAD PUSH1 0x1 PUSH1 0x1 PUSH1 0xA0 SHL SUB NOT DUP2 AND DUP3 OR DUP4 SSTORE PUSH1 0x1 PUSH1 0x1 PUSH1 0xA0 SHL SUB AND PUSH32 0x8BE0079C531659141344CD1FD0A4F28419497F9722A3DAAFE3B4186F6B6457E0 DUP4 DUP1 LOG3 DUP1 RETURN JUMPDEST PUSH4 0x1E4FBDF7 PUSH1 0xE0 SHL DUP3 MSTORE PUSH1 0x4 DUP3 SWAP1 MSTORE PUSH1 0x24 DUP3 REVERT JUMPDEST POP JUMPDEST DUP1 REVERT JUMPDEST POP CALLVALUE PUSH2 0x14D JUMPI PUSH1 0x20 CALLDATASIZE PUSH1 0x3 NOT ADD SLT PUSH2 0x14D JUMPI DUP1 PUSH1 0x40 SWAP2 PUSH2 0x100 DUP4 MLOAD PUSH2 0x174 DUP2 PUSH2 0x158C JUMP JUMPDEST DUP3 DUP2 MSTORE PUSH1 0x60 PUSH1 0x20 DUP3 ADD MSTORE DUP3 DUP6 DUP3 ADD MSTORE DUP3 PUSH1 0x60 DUP3 ADD MSTORE DUP3 PUSH1 0x80 DUP3 ADD MSTORE DUP3 PUSH1 0xA0 DUP3 ADD MSTORE DUP3 PUSH1 0xC0 DUP3 ADD MSTORE DUP3 PUSH1 0xE0 DUP3 ADD MSTORE ADD MSTORE PUSH1 0x4 CALLDATALOAD DUP2 MSTORE PUSH1 0x3 PUSH1 0x20 MSTORE KECCAK256 PUSH1 0x40 MLOAD PUSH2 0x1BA DUP2 PUSH2 0x158C JUMP JUMPDEST DUP2 SLOAD DUP2 MSTORE PUSH2 0x1CA PUSH1 0x1 DUP4 ADD PUSH2 0x15E1 JUMP JUMPDEST SWAP2 PUSH1 0x20 DUP3 ADD SWAP3 DUP4 MSTORE PUSH1 0x1 DUP1 PUSH1 0xA0 SHL SUB PUSH1 0x2 DUP3 ADD SLOAD AND SWAP1 PUSH1 0x40 DUP4 ADD SWAP2 DUP3 MSTORE PUSH1 0x3 DUP2 ADD SLOAD SWAP1 PUSH1 0x60 DUP5 ADD SWAP2 DUP3 MSTORE PUSH1 0x4 DUP2 ADD SLOAD PUSH1 0xFF PUSH1 0x80 DUP7 ADD DUP2 DUP4 AND ISZERO ISZERO DUP2 MSTORE PUSH1 0xA0 DUP8 ADD SWAP1 DUP3 DUP5 PUSH1 0x8 SHR AND DUP3 MSTORE PUSH1 0xC0 DUP9 ADD SWAP4 PUSH1 0x1 DUP1 PUSH1 0xA0 SHL SUB SWAP1 PUSH1 0x10 SHR AND DUP5 MSTORE PUSH1 0x6 PUSH1 0x1 DUP1 PUSH1 0xA0 SHL SUB PUSH1 0x5 DUP8 ADD SLOAD AND SWAP6 PUSH1 0xE0 DUP11 ADD SWAP7 DUP8 MSTORE ADD SLOAD SWAP6 PUSH2 0x100 DUP10 ADD SWAP7 DUP8 MSTORE PUSH2 0x26F PUSH1 0x40 MLOAD SWAP11 DUP12 SWAP11 PUSH1 0x20 DUP13 MSTORE MLOAD PUSH1 0x20 DUP13 ADD MSTORE MLOAD PUSH2 0x120 PUSH1 0x40 DUP13 ADD MSTORE PUSH2 0x140 DUP12 ADD SWAP1 PUSH2 0x16A8 JUMP JUMPDEST SWAP8 MLOAD PUSH1 0x1 PUSH1 0x1 PUSH1 0xA0 SHL SUB SWAP1 DUP2 AND PUSH1 0x60 DUP12 ADD MSTORE SWAP1 MLOAD PUSH1 0x80 DUP11 ADD MSTORE SWAP1 MLOAD ISZERO ISZERO PUSH1 0xA0 DUP10 ADD MSTORE SWAP1 MLOAD SWAP2 SWAP1 SWAP2 AND PUSH1 0xC0 DUP8 ADD MSTORE SWAP1 MLOAD DUP2 AND PUSH1 0xE0 DUP7 ADD MSTORE SWAP1 MLOAD AND PUSH2 0x100 DUP5 ADD MSTORE MLOAD PUSH2 0x120 DUP4 ADD MSTORE SUB SWAP1 RETURN JUMPDEST POP CALLVALUE PUSH2 0x14D JUMPI PUSH1 0x40 CALLDATASIZE PUSH1 0x3 NOT ADD SLT PUSH2 0x14D JUMPI PUSH1 0x4 CALLDATALOAD PUSH1 0x24 CALLDATALOAD PUSH1 0xFF DUP2 AND DUP1 DUP3 SUB PUSH2 0x47B JUMPI DUP3 DUP5 MSTORE PUSH1 0x3 PUSH1 0x20 MSTORE PUSH1 0x40 DUP5 KECCAK256 PUSH2 0x2F4 DUP2 SLOAD ISZERO ISZERO PUSH2 0x16E9 JUMP JUMPDEST PUSH1 0x2 DUP2 ADD SLOAD PUSH1 0x1 PUSH1 0x1 PUSH1 0xA0 SHL SUB AND CALLER SUB PUSH2 0x43D JUMPI PUSH1 0x3 DUP2 ADD SLOAD TIMESTAMP LT PUSH2 0x3EC JUMPI PUSH1 0x4 ADD SWAP1 DUP2 SLOAD PUSH1 0xFF DUP2 AND PUSH2 0x3A7 JUMPI PUSH1 0x2 DUP3 GT PUSH2 0x370 JUMPI PUSH2 0xFFFF NOT AND PUSH1 0x8 SWAP4 SWAP1 SWAP4 SHL PUSH2 0xFF00 AND SWAP3 SWAP1 SWAP3 OR PUSH1 0x1 OR SWAP1 SSTORE PUSH32 0x739F283563FB51AB6B89EE95D937B2E63A6CFCB83C385DBEBB629F9D97BD43E6 SWAP1 PUSH1 0x20 SWAP1 PUSH1 0x40 MLOAD SWAP1 DUP2 MSTORE LOG2 DUP1 RETURN JUMPDEST PUSH1 0x40 MLOAD PUSH3 0x461BCD PUSH1 0xE5 SHL DUP2 MSTORE PUSH1 0x20 PUSH1 0x4 DUP3 ADD MSTORE PUSH1 0xF PUSH1 0x24 DUP3 ADD MSTORE PUSH15 0x496E76616C6964206F7574636F6D65 PUSH1 0x88 SHL PUSH1 0x44 DUP3 ADD MSTORE PUSH1 0x64 SWAP1 REVERT JUMPDEST PUSH1 0x40 MLOAD PUSH3 0x461BCD PUSH1 0xE5 SHL DUP2 MSTORE PUSH1 0x20 PUSH1 0x4 DUP3 ADD MSTORE PUSH1 0x17 PUSH1 0x24 DUP3 ADD MSTORE PUSH32 0x4D61726B657420616C7265616479207265736F6C766564000000000000000000 PUSH1 0x44 DUP3 ADD MSTORE PUSH1 0x64 SWAP1 REVERT JUMPDEST PUSH1 0x40 MLOAD PUSH3 0x461BCD PUSH1 0xE5 SHL DUP2 MSTORE PUSH1 0x20 PUSH1 0x4 DUP3 ADD MSTORE PUSH1 0x23 PUSH1 0x24 DUP3 ADD MSTORE PUSH32 0x4D61726B6574206E6F742079657420726561647920666F72207265736F6C7574 PUSH1 0x44 DUP3 ADD MSTORE PUSH3 0x34B7B7 PUSH1 0xE9 SHL PUSH1 0x64 DUP3 ADD MSTORE PUSH1 0x84 SWAP1 REVERT JUMPDEST PUSH1 0x40 MLOAD PUSH3 0x461BCD PUSH1 0xE5 SHL DUP2 MSTORE PUSH1 0x20 PUSH1 0x4 DUP3 ADD MSTORE PUSH1 0x16 PUSH1 0x24 DUP3 ADD MSTORE PUSH22 0x13DB9B1E481C995CDBDB1D995C8818D85B8818D85B1B PUSH1 0x52 SHL PUSH1 0x44 DUP3 ADD MSTORE PUSH1 0x64 SWAP1 REVERT JUMPDEST DUP4 DUP1 REVERT JUMPDEST POP CALLVALUE PUSH2 0x14D JUMPI PUSH1 0x20 CALLDATASIZE PUSH1 0x3 NOT ADD SLT PUSH2 0x14D JUMPI PUSH1 0x4 CALLDATALOAD PUSH2 0x49C PUSH2 0x184B JUMP JUMPDEST DUP1 DUP3 MSTORE PUSH1 0x3 PUSH1 0x20 MSTORE PUSH1 0x40 DUP3 KECCAK256 SWAP1 PUSH2 0x4B5 DUP3 SLOAD ISZERO ISZERO PUSH2 0x16E9 JUMP JUMPDEST PUSH1 0x4 DUP3 ADD SLOAD PUSH1 0xFF DUP2 AND ISZERO PUSH2 0x761 JUMPI PUSH1 0xFF DUP2 PUSH1 0x8 SHR AND PUSH1 0x1 DUP2 EQ PUSH1 0x0 EQ PUSH2 0x6DB JUMPI POP PUSH1 0x10 SHR PUSH1 0x1 PUSH1 0x1 PUSH1 0xA0 SHL SUB AND JUMPDEST PUSH1 0x40 MLOAD PUSH4 0x70A08231 PUSH1 0xE0 SHL DUP2 MSTORE CALLER PUSH1 0x4 DUP3 ADD MSTORE SWAP3 SWAP1 PUSH1 0x1 PUSH1 0x1 PUSH1 0xA0 SHL SUB AND PUSH1 0x20 DUP5 PUSH1 0x24 DUP2 DUP5 GAS STATICCALL SWAP4 DUP5 ISZERO PUSH2 0x6D0 JUMPI DUP6 SWAP5 PUSH2 0x697 JUMPI JUMPDEST POP DUP4 ISZERO PUSH2 0x652 JUMPI DUP1 DUP6 SWAP2 EXTCODESIZE ISZERO PUSH2 0x14B JUMPI PUSH1 0x40 MLOAD PUSH4 0x2770A7EB PUSH1 0xE2 SHL DUP2 MSTORE CALLER PUSH1 0x4 DUP3 ADD MSTORE PUSH1 0x24 DUP2 ADD DUP7 SWAP1 MSTORE SWAP1 DUP3 SWAP1 DUP3 SWAP1 PUSH1 0x44 SWAP1 DUP3 SWAP1 DUP5 SWAP1 GAS CALL DUP1 ISZERO PUSH2 0x647 JUMPI PUSH2 0x632 JUMPI JUMPDEST POP POP PUSH1 0x4 SLOAD DUP1 DUP5 MUL SWAP1 DUP5 DUP3 DIV SUB PUSH2 0x61E JUMPI PUSH2 0x2710 PUSH1 0x6 SWAP2 DIV SWAP2 PUSH2 0x58A PUSH2 0x581 DUP5 DUP8 PUSH2 0x1779 JUMP JUMPDEST SWAP4 PUSH1 0x5 SLOAD PUSH2 0x17CC JUMP JUMPDEST PUSH1 0x5 SSTORE ADD PUSH2 0x599 DUP5 DUP3 SLOAD PUSH2 0x1779 JUMP JUMPDEST SWAP1 SSTORE DUP4 DUP1 DUP1 DUP1 DUP5 CALLER GAS CALL PUSH2 0x5AB PUSH2 0x179C JUMP JUMPDEST POP ISZERO PUSH2 0x5E9 JUMPI PUSH1 0x40 MLOAD SWAP3 DUP4 MSTORE PUSH1 0x20 DUP4 ADD MSTORE PUSH32 0x18C778B91C116EC23E8DBC0B3C021D2D200FF0BE3308385A7FD82C9940B6E4D6 PUSH1 0x40 CALLER SWAP4 LOG3 PUSH1 0x1 DUP1 SSTORE DUP1 RETURN JUMPDEST PUSH1 0x40 MLOAD PUSH3 0x461BCD PUSH1 0xE5 SHL DUP2 MSTORE PUSH1 0x20 PUSH1 0x4 DUP3 ADD MSTORE PUSH1 0xD PUSH1 0x24 DUP3 ADD MSTORE PUSH13 0x14185E5BDD5D0819985A5B1959 PUSH1 0x9A SHL PUSH1 0x44 DUP3 ADD MSTORE PUSH1 0x64 SWAP1 REVERT JUMPDEST PUSH4 0x4E487B71 PUSH1 0xE0 SHL DUP6 MSTORE PUSH1 0x11 PUSH1 0x4 MSTORE PUSH1 0x24 DUP6 REVERT JUMPDEST DUP2 PUSH2 0x63C SWAP2 PUSH2 0x15BF JUMP JUMPDEST PUSH2 0x47B JUMPI DUP4 CODESIZE PUSH2 0x55B JUMP JUMPDEST PUSH1 0x40 MLOAD RETURNDATASIZE DUP5 DUP3 RETURNDATACOPY RETURNDATASIZE SWAP1 REVERT JUMPDEST PUSH1 0x40 MLOAD PUSH3 0x461BCD PUSH1 0xE5 SHL DUP2 MSTORE PUSH1 0x20 PUSH1 0x4 DUP3 ADD MSTORE PUSH1 0x1B PUSH1 0x24 DUP3 ADD MSTORE PUSH32 0x4E6F2077696E6E696E672073686172657320746F2072656465656D0000000000 PUSH1 0x44 DUP3 ADD MSTORE PUSH1 0x64 SWAP1 REVERT JUMPDEST SWAP1 SWAP4 POP PUSH1 0x20 DUP2 RETURNDATASIZE PUSH1 0x20 GT PUSH2 0x6C8 JUMPI JUMPDEST DUP2 PUSH2 0x6B3 PUSH1 0x20 SWAP4 DUP4 PUSH2 0x15BF JUMP JUMPDEST DUP2 ADD SUB SLT PUSH2 0x6C3 JUMPI MLOAD SWAP3 CODESIZE PUSH2 0x518 JUMP JUMPDEST PUSH1 0x0 DUP1 REVERT JUMPDEST RETURNDATASIZE SWAP2 POP PUSH2 0x6A6 JUMP JUMPDEST PUSH1 0x40 MLOAD RETURNDATASIZE DUP8 DUP3 RETURNDATACOPY RETURNDATASIZE SWAP1 REVERT JUMPDEST ISZERO ISZERO SWAP1 POP PUSH2 0x6F6 JUMPI PUSH1 0x5 DUP3 ADD SLOAD PUSH1 0x1 PUSH1 0x1 PUSH1 0xA0 SHL SUB AND PUSH2 0x4E3 JUMP JUMPDEST PUSH1 0x40 MLOAD PUSH3 0x461BCD PUSH1 0xE5 SHL DUP2 MSTORE PUSH1 0x20 PUSH1 0x4 DUP3 ADD MSTORE PUSH1 0x3A PUSH1 0x24 DUP3 ADD MSTORE PUSH32 0x4D61726B6574207265736F6C76656420617320696E76616C69643B2075736520 PUSH1 0x44 DUP3 ADD MSTORE PUSH32 0x6120736570617261746520726566756E642066756E6374696F6E000000000000 PUSH1 0x64 DUP3 ADD MSTORE PUSH1 0x84 SWAP1 REVERT JUMPDEST PUSH1 0x40 MLOAD PUSH3 0x461BCD PUSH1 0xE5 SHL DUP2 MSTORE PUSH1 0x20 PUSH1 0x4 DUP3 ADD MSTORE PUSH1 0x17 PUSH1 0x24 DUP3 ADD MSTORE PUSH32 0x4D61726B6574206D757374206265207265736F6C766564000000000000000000 PUSH1 0x44 DUP3 ADD MSTORE PUSH1 0x64 SWAP1 REVERT JUMPDEST POP CALLVALUE PUSH2 0x14D JUMPI PUSH1 0x60 CALLDATASIZE PUSH1 0x3 NOT ADD SLT PUSH2 0x14D JUMPI PUSH1 0x4 CALLDATALOAD PUSH8 0xFFFFFFFFFFFFFFFF DUP2 GT PUSH2 0x14B JUMPI CALLDATASIZE PUSH1 0x23 DUP3 ADD SLT ISZERO PUSH2 0x14B JUMPI DUP2 DUP2 PUSH1 0x4 ADD CALLDATALOAD SWAP2 PUSH2 0x7E5 DUP4 PUSH2 0x16CD JUMP JUMPDEST SWAP3 PUSH2 0x7F3 PUSH1 0x40 MLOAD SWAP5 DUP6 PUSH2 0x15BF JUMP JUMPDEST DUP1 DUP5 MSTORE CALLDATASIZE PUSH1 0x24 DUP3 DUP5 ADD ADD GT PUSH2 0xDA4 JUMPI DUP1 PUSH1 0x24 PUSH1 0x20 SWAP4 ADD DUP4 DUP7 ADD CALLDATACOPY DUP4 ADD ADD MSTORE PUSH1 0x24 CALLDATALOAD SWAP1 PUSH1 0x1 PUSH1 0x1 PUSH1 0xA0 SHL SUB DUP3 AND DUP3 SUB PUSH2 0xDA4 JUMPI TIMESTAMP PUSH1 0x44 CALLDATALOAD GT ISZERO PUSH2 0xD51 JUMPI PUSH1 0x1 PUSH1 0x1 PUSH1 0xA0 SHL SUB DUP3 AND ISZERO PUSH2 0xD0C JUMPI PUSH2 0x849 PUSH1 0x2 SLOAD PUSH2 0x17D9 JUMP JUMPDEST SWAP1 DUP2 PUSH1 0x2 SSTORE PUSH2 0x857 DUP3 PUSH2 0x186D JUMP JUMPDEST PUSH2 0x8A7 PUSH1 0x6 PUSH1 0x28 PUSH1 0x40 MLOAD DUP1 SWAP5 PUSH8 0x4D61726B65742023 PUSH1 0xC0 SHL PUSH1 0x20 DUP4 ADD MSTORE PUSH2 0x887 DUP2 MLOAD DUP1 SWAP3 PUSH1 0x20 DUP7 DUP7 ADD SWAP2 ADD PUSH2 0x1685 JUMP JUMPDEST DUP2 ADD PUSH6 0x202D20594553 PUSH1 0xD0 SHL DUP4 DUP3 ADD MSTORE SUB ADD PUSH1 0x19 NOT DUP2 ADD DUP5 MSTORE ADD DUP3 PUSH2 0x15BF JUMP JUMPDEST PUSH2 0x8B0 DUP4 PUSH2 0x186D JUMP JUMPDEST PUSH2 0x8F4 PUSH1 0x1 PUSH1 0x21 PUSH1 0x40 MLOAD DUP1 SWAP5 PUSH1 0x4D PUSH1 0xF8 SHL PUSH1 0x20 DUP4 ADD MSTORE PUSH2 0x8D9 DUP2 MLOAD DUP1 SWAP3 PUSH1 0x20 DUP7 DUP7 ADD SWAP2 ADD PUSH2 0x1685 JUMP JUMPDEST DUP2 ADD PUSH1 0x59 PUSH1 0xF8 SHL DUP4 DUP3 ADD MSTORE SUB ADD PUSH1 0x1E NOT DUP2 ADD DUP5 MSTORE ADD DUP3 PUSH2 0x15BF JUMP JUMPDEST PUSH1 0x40 MLOAD PUSH2 0xD41 SWAP2 DUP3 DUP3 ADD SWAP1 DUP3 DUP3 LT PUSH8 0xFFFFFFFFFFFFFFFF DUP4 GT OR PUSH2 0xCF8 JUMPI DUP3 SWAP2 PUSH2 0x927 SWAP2 PUSH2 0x194C SWAP7 DUP7 DUP9 DUP7 CODECOPY ADDRESS SWAP3 PUSH2 0x17E8 JUMP JUMPDEST SUB SWAP1 DUP8 CREATE SWAP2 DUP3 ISZERO PUSH2 0xCED JUMPI PUSH2 0x93B DUP6 PUSH2 0x186D JUMP JUMPDEST PUSH2 0x98A PUSH1 0x5 PUSH1 0x28 PUSH1 0x40 MLOAD DUP1 SWAP5 PUSH8 0x4D61726B65742023 PUSH1 0xC0 SHL PUSH1 0x20 DUP4 ADD MSTORE PUSH2 0x96B DUP2 MLOAD DUP1 SWAP3 PUSH1 0x20 DUP7 DUP7 ADD SWAP2 ADD PUSH2 0x1685 JUMP JUMPDEST DUP2 ADD PUSH5 0x202D204E4F PUSH1 0xD8 SHL DUP4 DUP3 ADD MSTORE SUB ADD PUSH1 0x1A NOT DUP2 ADD DUP5 MSTORE ADD DUP3 PUSH2 0x15BF JUMP JUMPDEST PUSH2 0x993 DUP7 PUSH2 0x186D JUMP JUMPDEST SWAP1 PUSH2 0x9D8 PUSH1 0x1 PUSH1 0x21 PUSH1 0x40 MLOAD DUP1 SWAP6 PUSH1 0x4D PUSH1 0xF8 SHL PUSH1 0x20 DUP4 ADD MSTORE PUSH2 0x9BD DUP2 MLOAD DUP1 SWAP3 PUSH1 0x20 DUP7 DUP7 ADD SWAP2 ADD PUSH2 0x1685 JUMP JUMPDEST DUP2 ADD PUSH1 0x27 PUSH1 0xF9 SHL DUP4 DUP3 ADD MSTORE SUB ADD PUSH1 0x1E NOT DUP2 ADD DUP6 MSTORE ADD DUP4 PUSH2 0x15BF JUMP JUMPDEST PUSH1 0x40 MLOAD SWAP4 DUP1 DUP6 ADD SWAP4 DUP6 DUP6 LT PUSH8 0xFFFFFFFFFFFFFFFF DUP7 GT OR PUSH2 0xCD9 JUMPI SWAP2 PUSH2 0xA05 SWAP4 SWAP2 DUP7 SWAP6 SWAP4 DUP7 CODECOPY ADDRESS SWAP3 PUSH2 0x17E8 JUMP JUMPDEST SUB SWAP1 DUP7 CREATE DUP1 ISZERO PUSH2 0x6D0 JUMPI PUSH1 0x40 MLOAD SWAP1 PUSH2 0xA1C DUP3 PUSH2 0x158C JUMP JUMPDEST DUP5 DUP3 MSTORE PUSH1 0x20 DUP1 DUP4 ADD DUP6 DUP2 MSTORE PUSH1 0x1 PUSH1 0x1 PUSH1 0xA0 SHL SUB DUP9 DUP2 AND PUSH1 0x40 DUP1 DUP8 ADD SWAP2 SWAP1 SWAP2 MSTORE PUSH1 0x44 CALLDATALOAD PUSH1 0x60 DUP8 ADD MSTORE PUSH1 0x80 DUP7 ADD DUP12 SWAP1 MSTORE PUSH1 0xA0 DUP7 ADD DUP12 SWAP1 MSTORE SWAP6 DUP2 AND PUSH1 0xC0 DUP7 ADD MSTORE SWAP3 SWAP1 SWAP3 AND PUSH1 0xE0 DUP5 ADD MSTORE PUSH2 0x100 DUP4 ADD DUP9 SWAP1 MSTORE DUP6 DUP9 MSTORE PUSH1 0x3 SWAP1 MSTORE SWAP2 DUP7 KECCAK256 DUP2 MLOAD DUP2 SSTORE SWAP2 MLOAD DUP1 MLOAD SWAP1 PUSH8 0xFFFFFFFFFFFFFFFF DUP3 GT PUSH2 0xCC5 JUMPI PUSH2 0xA99 PUSH1 0x1 DUP6 ADD SLOAD PUSH2 0x1552 JUMP JUMPDEST PUSH1 0x1F DUP2 GT PUSH2 0xC81 JUMPI JUMPDEST POP PUSH1 0x20 SWAP1 PUSH1 0x1F DUP4 GT PUSH1 0x1 EQ PUSH2 0xBEC JUMPI PUSH32 0x69DA8C9710C1600001AE111F110050F586B7FCD73D420B5EB03747F67E86D0D SWAP6 SWAP4 DUP4 PUSH2 0xBC7 SWAP7 SWAP5 PUSH1 0x6 SWAP5 PUSH2 0x100 SWAP5 DUP14 SWAP3 PUSH2 0xBE1 JUMPI JUMPDEST POP POP DUP2 PUSH1 0x1 SHL SWAP2 PUSH1 0x0 NOT SWAP1 PUSH1 0x3 SHL SHR NOT AND OR PUSH1 0x1 DUP6 ADD SSTORE JUMPDEST PUSH1 0x40 DUP2 ADD MLOAD PUSH1 0x2 DUP6 ADD DUP1 SLOAD PUSH1 0x1 PUSH1 0x1 PUSH1 0xA0 SHL SUB SWAP1 SWAP3 AND PUSH1 0x1 PUSH1 0x1 PUSH1 0xA0 SHL SUB NOT SWAP1 SWAP3 AND SWAP2 SWAP1 SWAP2 OR SWAP1 SSTORE PUSH1 0x60 DUP2 ADD MLOAD PUSH1 0x3 DUP6 ADD SSTORE PUSH1 0x80 DUP2 ADD MLOAD PUSH1 0x4 DUP6 ADD DUP1 SLOAD PUSH1 0xA0 DUP5 ADD MLOAD PUSH2 0xFF00 PUSH1 0x8 SWAP2 SWAP1 SWAP2 SHL AND SWAP3 ISZERO ISZERO PUSH1 0xFF AND PUSH2 0xFFFF NOT SWAP1 SWAP2 AND OR SWAP2 SWAP1 SWAP2 OR DUP2 SSTORE PUSH1 0xC0 DUP3 ADD MLOAD DUP2 SLOAD PUSH3 0x10000 PUSH1 0x1 PUSH1 0xB0 SHL SUB NOT AND PUSH1 0x10 SWAP2 SWAP1 SWAP2 SHL PUSH3 0x10000 PUSH1 0x1 PUSH1 0xB0 SHL SUB AND OR SWAP1 SSTORE PUSH1 0xE0 DUP2 ADD MLOAD PUSH1 0x5 DUP6 ADD DUP1 SLOAD PUSH1 0x1 PUSH1 0x1 PUSH1 0xA0 SHL SUB NOT AND PUSH1 0x1 PUSH1 0x1 PUSH1 0xA0 SHL SUB SWAP3 SWAP1 SWAP3 AND SWAP2 SWAP1 SWAP2 OR SWAP1 SSTORE ADD MLOAD SWAP2 ADD SSTORE PUSH1 0x40 DUP1 MLOAD DUP2 DUP2 MSTORE SWAP3 DUP4 SWAP3 SWAP1 SWAP2 DUP4 ADD SWAP1 PUSH2 0x16A8 JUMP JUMPDEST PUSH1 0x44 CALLDATALOAD PUSH1 0x20 DUP4 ADD MSTORE PUSH1 0x1 PUSH1 0x1 PUSH1 0xA0 SHL SUB SWAP1 SWAP6 AND SWAP5 SUB SWAP1 LOG3 DUP1 RETURN JUMPDEST ADD MLOAD SWAP1 POP CODESIZE DUP1 PUSH2 0xAE8 JUMP JUMPDEST PUSH1 0x1 DUP6 ADD DUP10 MSTORE DUP2 DUP10 KECCAK256 SWAP2 SWAP1 PUSH1 0x1F NOT DUP5 AND DUP11 JUMPDEST DUP2 DUP2 LT PUSH2 0xC69 JUMPI POP DUP5 PUSH1 0x6 SWAP5 PUSH2 0x100 SWAP5 PUSH32 0x69DA8C9710C1600001AE111F110050F586B7FCD73D420B5EB03747F67E86D0D SWAP11 SWAP9 SWAP5 PUSH2 0xBC7 SWAP11 SWAP9 PUSH1 0x1 SWAP6 LT PUSH2 0xC50 JUMPI JUMPDEST POP POP POP DUP2 SHL ADD PUSH1 0x1 DUP6 ADD SSTORE PUSH2 0xB00 JUMP JUMPDEST ADD MLOAD PUSH1 0x0 NOT PUSH1 0xF8 DUP5 PUSH1 0x3 SHL AND SHR NOT AND SWAP1 SSTORE CODESIZE DUP1 DUP1 PUSH2 0xC40 JUMP JUMPDEST SWAP3 SWAP4 PUSH1 0x20 PUSH1 0x1 DUP2 SWAP3 DUP8 DUP7 ADD MLOAD DUP2 SSTORE ADD SWAP6 ADD SWAP4 ADD PUSH2 0xBFE JUMP JUMPDEST PUSH1 0x1 DUP6 ADD DUP10 MSTORE PUSH1 0x20 DUP10 KECCAK256 PUSH1 0x1F DUP5 ADD PUSH1 0x5 SHR DUP2 ADD PUSH1 0x20 DUP6 LT PUSH2 0xCBE JUMPI JUMPDEST PUSH1 0x1F DUP4 ADD PUSH1 0x5 SHR DUP3 ADD DUP2 LT PUSH2 0xCB3 JUMPI POP POP PUSH2 0xAA2 JUMP JUMPDEST DUP11 DUP2 SSTORE PUSH1 0x1 ADD PUSH2 0xC9D JUMP JUMPDEST POP DUP1 PUSH2 0xC9D JUMP JUMPDEST PUSH4 0x4E487B71 PUSH1 0xE0 SHL DUP9 MSTORE PUSH1 0x41 PUSH1 0x4 MSTORE PUSH1 0x24 DUP9 REVERT JUMPDEST PUSH4 0x4E487B71 PUSH1 0xE0 SHL DUP12 MSTORE PUSH1 0x41 PUSH1 0x4 MSTORE PUSH1 0x24 DUP12 REVERT JUMPDEST PUSH1 0x40 MLOAD RETURNDATASIZE DUP9 DUP3 RETURNDATACOPY RETURNDATASIZE SWAP1 REVERT JUMPDEST PUSH4 0x4E487B71 PUSH1 0xE0 SHL DUP10 MSTORE PUSH1 0x41 PUSH1 0x4 MSTORE PUSH1 0x24 DUP10 REVERT JUMPDEST PUSH1 0x40 MLOAD PUSH3 0x461BCD PUSH1 0xE5 SHL DUP2 MSTORE PUSH1 0x20 PUSH1 0x4 DUP3 ADD MSTORE PUSH1 0x1F PUSH1 0x24 DUP3 ADD MSTORE PUSH32 0x5265736F6C7665722063616E6E6F74206265207A65726F206164647265737300 PUSH1 0x44 DUP3 ADD MSTORE PUSH1 0x64 SWAP1 REVERT JUMPDEST PUSH1 0x40 MLOAD PUSH3 0x461BCD PUSH1 0xE5 SHL DUP2 MSTORE PUSH1 0x20 PUSH1 0x4 DUP3 ADD MSTORE PUSH1 0x25 PUSH1 0x24 DUP3 ADD MSTORE PUSH32 0x5265736F6C7574696F6E2074696D65206D75737420626520696E207468652066 PUSH1 0x44 DUP3 ADD MSTORE PUSH5 0x7574757265 PUSH1 0xD8 SHL PUSH1 0x64 DUP3 ADD MSTORE PUSH1 0x84 SWAP1 REVERT JUMPDEST DUP3 DUP1 REVERT JUMPDEST POP PUSH1 0x20 CALLDATASIZE PUSH1 0x3 NOT ADD SLT PUSH2 0x14D JUMPI PUSH1 0x4 CALLDATALOAD PUSH2 0xDC0 PUSH2 0x184B JUMP JUMPDEST DUP1 DUP3 MSTORE PUSH1 0x3 PUSH1 0x20 MSTORE PUSH1 0x40 DUP3 KECCAK256 PUSH2 0xDD8 DUP2 SLOAD ISZERO ISZERO PUSH2 0x16E9 JUMP JUMPDEST PUSH1 0x4 DUP2 ADD SLOAD SWAP1 PUSH2 0xDEB PUSH1 0xFF DUP4 AND ISZERO PUSH2 0x172D JUMP JUMPDEST CALLVALUE ISZERO PUSH2 0xF05 JUMPI DUP4 SWAP2 PUSH1 0x6 DUP3 ADD PUSH2 0xE02 CALLVALUE DUP3 SLOAD PUSH2 0x17CC JUMP JUMPDEST SWAP1 SSTORE PUSH1 0x10 SHR PUSH1 0x1 PUSH1 0x1 PUSH1 0xA0 SHL SUB AND DUP1 EXTCODESIZE ISZERO PUSH2 0xDA4 JUMPI PUSH1 0x40 MLOAD PUSH4 0x40C10F19 PUSH1 0xE0 SHL DUP2 MSTORE CALLER PUSH1 0x4 DUP3 ADD MSTORE CALLVALUE PUSH1 0x24 DUP3 ADD MSTORE SWAP1 DUP4 SWAP1 DUP3 SWAP1 PUSH1 0x44 SWAP1 DUP3 SWAP1 DUP5 SWAP1 GAS CALL SWAP1 DUP2 ISZERO PUSH2 0xEFA JUMPI DUP4 SWAP2 PUSH2 0xEE5 JUMPI JUMPDEST POP POP PUSH1 0x5 ADD SLOAD PUSH1 0x1 PUSH1 0x1 PUSH1 0xA0 SHL SUB AND DUP1 EXTCODESIZE ISZERO PUSH2 0x14B JUMPI PUSH1 0x40 MLOAD PUSH4 0x40C10F19 PUSH1 0xE0 SHL DUP2 MSTORE CALLER PUSH1 0x4 DUP3 ADD MSTORE CALLVALUE PUSH1 0x24 DUP3 ADD MSTORE SWAP1 DUP3 SWAP1 DUP3 SWAP1 PUSH1 0x44 SWAP1 DUP3 SWAP1 DUP5 SWAP1 GAS CALL DUP1 ISZERO PUSH2 0x647 JUMPI PUSH2 0xED0 JUMPI JUMPDEST POP POP PUSH1 0x40 MLOAD SWAP1 CALLVALUE DUP3 MSTORE CALLVALUE PUSH1 0x20 DUP4 ADD MSTORE PUSH32 0x831583CCED7554A81E1CD091E811AFAADC7D575A17FBD354716145BB597EFC9 PUSH1 0x40 CALLER SWAP4 LOG3 PUSH1 0x1 DUP1 SSTORE DUP1 RETURN JUMPDEST DUP2 PUSH2 0xEDA SWAP2 PUSH2 0x15BF JUMP JUMPDEST PUSH2 0x14B JUMPI DUP2 CODESIZE PUSH2 0xE94 JUMP JUMPDEST DUP2 PUSH2 0xEEF SWAP2 PUSH2 0x15BF JUMP JUMPDEST PUSH2 0x14B JUMPI DUP2 CODESIZE PUSH2 0xE4C JUMP JUMPDEST PUSH1 0x40 MLOAD RETURNDATASIZE DUP6 DUP3 RETURNDATACOPY RETURNDATASIZE SWAP1 REVERT JUMPDEST PUSH1 0x40 MLOAD PUSH3 0x461BCD PUSH1 0xE5 SHL DUP2 MSTORE PUSH1 0x20 PUSH1 0x4 DUP3 ADD MSTORE PUSH1 0x1C PUSH1 0x24 DUP3 ADD MSTORE PUSH32 0x4D7573742073656E642043454C4F20746F206275792073686172657300000000 PUSH1 0x44 DUP3 ADD MSTORE PUSH1 0x64 SWAP1 REVERT JUMPDEST POP CALLVALUE PUSH2 0x14D JUMPI PUSH1 0x20 CALLDATASIZE PUSH1 0x3 NOT ADD SLT PUSH2 0x14D JUMPI PUSH1 0x40 SWAP1 PUSH1 0x4 CALLDATALOAD DUP2 MSTORE PUSH1 0x3 PUSH1 0x20 MSTORE KECCAK256 DUP1 SLOAD PUSH2 0xF78 PUSH1 0x1 DUP4 ADD PUSH2 0x15E1 JUMP JUMPDEST SWAP2 PUSH1 0x1 DUP1 PUSH1 0xA0 SHL SUB PUSH1 0x2 DUP3 ADD SLOAD AND SWAP1 PUSH1 0x3 DUP2 ADD SLOAD SWAP1 PUSH1 0x4 DUP2 ADD SLOAD PUSH1 0x6 PUSH1 0x1 DUP1 PUSH1 0xA0 SHL SUB PUSH1 0x5 DUP5 ADD SLOAD AND SWAP3 ADD SLOAD SWAP3 PUSH2 0xFC3 PUSH1 0x40 MLOAD SWAP8 DUP9 SWAP8 DUP9 MSTORE PUSH2 0x120 PUSH1 0x20 DUP10 ADD MSTORE PUSH2 0x120 DUP9 ADD SWAP1 PUSH2 0x16A8 JUMP JUMPDEST PUSH1 0x40 DUP8 ADD SWAP6 SWAP1 SWAP6 MSTORE PUSH1 0x60 DUP7 ADD MSTORE PUSH1 0xFF DUP2 DUP2 AND ISZERO ISZERO PUSH1 0x80 DUP8 ADD MSTORE PUSH1 0x8 DUP3 SWAP1 SHR AND PUSH1 0xA0 DUP7 ADD MSTORE PUSH1 0x10 SHR PUSH1 0x1 PUSH1 0x1 PUSH1 0xA0 SHL SUB AND PUSH1 0xC0 DUP6 ADD MSTORE PUSH1 0xE0 DUP5 ADD MSTORE PUSH2 0x100 DUP4 ADD MSTORE SUB SWAP1 RETURN JUMPDEST POP CALLVALUE PUSH2 0x14D JUMPI DUP1 PUSH1 0x3 NOT CALLDATASIZE ADD SLT PUSH2 0x14D JUMPI SLOAD PUSH1 0x40 MLOAD PUSH1 0x1 PUSH1 0x1 PUSH1 0xA0 SHL SUB SWAP1 SWAP2 AND DUP2 MSTORE PUSH1 0x20 SWAP1 RETURN JUMPDEST POP CALLVALUE PUSH2 0x14D JUMPI DUP1 PUSH1 0x3 NOT CALLDATASIZE ADD SLT PUSH2 0x14D JUMPI PUSH2 0x1047 PUSH2 0x1822 JUMP JUMPDEST DUP1 SLOAD PUSH1 0x1 PUSH1 0x1 PUSH1 0xA0 SHL SUB NOT DUP2 AND DUP3 SSTORE DUP2 SWAP1 PUSH1 0x1 PUSH1 0x1 PUSH1 0xA0 SHL SUB AND PUSH32 0x8BE0079C531659141344CD1FD0A4F28419497F9722A3DAAFE3B4186F6B6457E0 DUP3 DUP1 LOG3 DUP1 RETURN JUMPDEST POP CALLVALUE PUSH2 0x14D JUMPI DUP1 PUSH1 0x3 NOT CALLDATASIZE ADD SLT PUSH2 0x14D JUMPI PUSH1 0x20 PUSH1 0x5 SLOAD PUSH1 0x40 MLOAD SWAP1 DUP2 MSTORE RETURN JUMPDEST POP CALLVALUE PUSH2 0x14D JUMPI DUP1 PUSH1 0x3 NOT CALLDATASIZE ADD SLT PUSH2 0x14D JUMPI PUSH2 0x10BF PUSH2 0x1822 JUMP JUMPDEST PUSH1 0x5 SLOAD DUP1 ISZERO PUSH2 0x112B JUMPI DUP2 DUP1 DUP1 DUP1 SWAP4 DUP2 PUSH1 0x5 SSTORE PUSH1 0x1 DUP1 PUSH1 0xA0 SHL SUB DUP3 SLOAD AND GAS CALL PUSH2 0x10E5 PUSH2 0x179C JUMP JUMPDEST POP ISZERO PUSH2 0x10EE JUMPI DUP1 RETURN JUMPDEST PUSH1 0x40 MLOAD PUSH3 0x461BCD PUSH1 0xE5 SHL DUP2 MSTORE PUSH1 0x20 PUSH1 0x4 DUP3 ADD MSTORE PUSH1 0x15 PUSH1 0x24 DUP3 ADD MSTORE PUSH21 0x119959481DDA5D1A191C985DD85B0819985A5B1959 PUSH1 0x5A SHL PUSH1 0x44 DUP3 ADD MSTORE PUSH1 0x64 SWAP1 REVERT JUMPDEST PUSH1 0x40 MLOAD PUSH3 0x461BCD PUSH1 0xE5 SHL DUP2 MSTORE PUSH1 0x20 PUSH1 0x4 DUP3 ADD MSTORE PUSH1 0x13 PUSH1 0x24 DUP3 ADD MSTORE PUSH19 0x4E6F206665657320746F207769746864726177 PUSH1 0x68 SHL PUSH1 0x44 DUP3 ADD MSTORE PUSH1 0x64 SWAP1 REVERT JUMPDEST POP CALLVALUE PUSH2 0x14D JUMPI DUP1 PUSH1 0x3 NOT CALLDATASIZE ADD SLT PUSH2 0x14D JUMPI PUSH1 0x20 PUSH1 0x2 SLOAD PUSH1 0x40 MLOAD SWAP1 DUP2 MSTORE RETURN JUMPDEST POP CALLVALUE PUSH2 0x14D JUMPI DUP1 PUSH1 0x3 NOT CALLDATASIZE ADD SLT PUSH2 0x14D JUMPI PUSH1 0x20 PUSH1 0x4 SLOAD PUSH1 0x40 MLOAD SWAP1 DUP2 MSTORE RETURN JUMPDEST POP CALLVALUE PUSH2 0x14D JUMPI PUSH1 0x40 CALLDATASIZE PUSH1 0x3 NOT ADD SLT PUSH2 0x14D JUMPI PUSH1 0x24 CALLDATALOAD PUSH1 0x4 CALLDATALOAD PUSH2 0x11C2 PUSH2 0x184B JUMP JUMPDEST DUP1 DUP4 MSTORE PUSH1 0x3 PUSH1 0x20 MSTORE PUSH1 0x40 DUP4 KECCAK256 PUSH2 0x11DA DUP2 SLOAD ISZERO ISZERO PUSH2 0x16E9 JUMP JUMPDEST PUSH1 0x4 DUP2 ADD SLOAD PUSH2 0x11EC PUSH1 0xFF DUP3 AND ISZERO PUSH2 0x172D JUMP JUMPDEST DUP4 ISZERO PUSH2 0x14A6 JUMPI PUSH1 0x5 DUP3 ADD SLOAD PUSH1 0x40 MLOAD PUSH4 0x70A08231 PUSH1 0xE0 SHL DUP2 MSTORE CALLER PUSH1 0x4 DUP3 ADD MSTORE PUSH1 0x1 PUSH1 0x1 PUSH1 0xA0 SHL SUB SWAP2 DUP3 AND SWAP4 PUSH1 0x10 SWAP4 SWAP1 SWAP4 SHR SWAP1 SWAP2 AND SWAP2 SWAP1 PUSH1 0x20 DUP2 PUSH1 0x24 DUP2 DUP7 GAS STATICCALL DUP1 ISZERO PUSH2 0x1421 JUMPI DUP7 SWAP2 DUP9 SWAP2 PUSH2 0x1471 JUMPI JUMPDEST POP LT PUSH2 0x142C JUMPI PUSH1 0x40 MLOAD PUSH4 0x70A08231 PUSH1 0xE0 SHL DUP2 MSTORE CALLER PUSH1 0x4 DUP3 ADD MSTORE PUSH1 0x20 DUP2 PUSH1 0x24 DUP2 DUP8 GAS STATICCALL DUP1 ISZERO PUSH2 0x1421 JUMPI DUP7 SWAP2 DUP9 SWAP2 PUSH2 0x13E8 JUMPI JUMPDEST POP LT PUSH2 0x13AA JUMPI PUSH1 0x6 ADD PUSH2 0x127E DUP6 DUP3 SLOAD PUSH2 0x1779 JUMP JUMPDEST SWAP1 SSTORE DUP1 EXTCODESIZE ISZERO PUSH2 0x13A6 JUMPI PUSH1 0x40 MLOAD PUSH4 0x2770A7EB PUSH1 0xE2 SHL DUP2 MSTORE CALLER PUSH1 0x4 DUP3 ADD MSTORE PUSH1 0x24 DUP2 ADD DUP6 SWAP1 MSTORE SWAP1 DUP6 SWAP1 DUP3 SWAP1 PUSH1 0x44 SWAP1 DUP3 SWAP1 DUP5 SWAP1 GAS CALL DUP1 ISZERO PUSH2 0x6D0 JUMPI PUSH2 0x1392 JUMPI JUMPDEST POP DUP1 DUP5 SWAP2 EXTCODESIZE ISZERO PUSH2 0x14B JUMPI PUSH1 0x40 MLOAD PUSH4 0x2770A7EB PUSH1 0xE2 SHL DUP2 MSTORE CALLER PUSH1 0x4 DUP3 ADD MSTORE PUSH1 0x24 DUP2 ADD DUP6 SWAP1 MSTORE SWAP1 DUP3 SWAP1 DUP3 SWAP1 PUSH1 0x44 SWAP1 DUP3 SWAP1 DUP5 SWAP1 GAS CALL DUP1 ISZERO PUSH2 0x647 JUMPI PUSH2 0x137D JUMPI JUMPDEST POP DUP1 DUP1 DUP1 DUP6 CALLER GAS CALL PUSH2 0x1307 PUSH2 0x179C JUMP JUMPDEST POP ISZERO PUSH2 0x1346 JUMPI PUSH1 0x40 MLOAD SWAP2 DUP1 DUP4 MSTORE PUSH1 0x20 DUP4 ADD MSTORE PUSH32 0xC84BA642853B7FCEB52ECE6998AA2618EDC77F7A182996141F2A470AF347CEA3 PUSH1 0x40 CALLER SWAP4 LOG3 PUSH1 0x1 DUP1 SSTORE DUP1 RETURN JUMPDEST PUSH1 0x40 MLOAD PUSH3 0x461BCD PUSH1 0xE5 SHL DUP2 MSTORE PUSH1 0x20 PUSH1 0x4 DUP3 ADD MSTORE PUSH1 0xF PUSH1 0x24 DUP3 ADD MSTORE PUSH15 0x151C985B9CD9995C8819985A5B1959 PUSH1 0x8A SHL PUSH1 0x44 DUP3 ADD MSTORE PUSH1 0x64 SWAP1 REVERT JUMPDEST DUP2 PUSH2 0x1387 SWAP2 PUSH2 0x15BF JUMP JUMPDEST PUSH2 0xDA4 JUMPI DUP3 CODESIZE PUSH2 0x12F7 JUMP JUMPDEST DUP5 PUSH2 0x139F SWAP2 SWAP6 SWAP3 SWAP6 PUSH2 0x15BF JUMP JUMPDEST SWAP3 CODESIZE PUSH2 0x12BA JUMP JUMPDEST DUP5 DUP1 REVERT JUMPDEST PUSH1 0x40 MLOAD PUSH3 0x461BCD PUSH1 0xE5 SHL DUP2 MSTORE PUSH1 0x20 PUSH1 0x4 DUP3 ADD MSTORE PUSH1 0x16 PUSH1 0x24 DUP3 ADD MSTORE PUSH22 0x496E73756666696369656E74204E4F20746F6B656E73 PUSH1 0x50 SHL PUSH1 0x44 DUP3 ADD MSTORE PUSH1 0x64 SWAP1 REVERT JUMPDEST SWAP2 POP POP PUSH1 0x20 DUP2 RETURNDATASIZE PUSH1 0x20 GT PUSH2 0x1419 JUMPI JUMPDEST DUP2 PUSH2 0x1404 PUSH1 0x20 SWAP4 DUP4 PUSH2 0x15BF JUMP JUMPDEST DUP2 ADD SUB SLT PUSH2 0x1415 JUMPI DUP6 SWAP1 MLOAD CODESIZE PUSH2 0x126A JUMP JUMPDEST DUP7 DUP1 REVERT JUMPDEST RETURNDATASIZE SWAP2 POP PUSH2 0x13F7 JUMP JUMPDEST PUSH1 0x40 MLOAD RETURNDATASIZE DUP10 DUP3 RETURNDATACOPY RETURNDATASIZE SWAP1 REVERT JUMPDEST PUSH1 0x40 MLOAD PUSH3 0x461BCD PUSH1 0xE5 SHL DUP2 MSTORE PUSH1 0x20 PUSH1 0x4 DUP3 ADD MSTORE PUSH1 0x17 PUSH1 0x24 DUP3 ADD MSTORE PUSH32 0x496E73756666696369656E742059455320746F6B656E73000000000000000000 PUSH1 0x44 DUP3 ADD MSTORE PUSH1 0x64 SWAP1 REVERT JUMPDEST SWAP2 POP POP PUSH1 0x20 DUP2 RETURNDATASIZE PUSH1 0x20 GT PUSH2 0x149E JUMPI JUMPDEST DUP2 PUSH2 0x148D PUSH1 0x20 SWAP4 DUP4 PUSH2 0x15BF JUMP JUMPDEST DUP2 ADD SUB SLT PUSH2 0x1415 JUMPI DUP6 SWAP1 MLOAD CODESIZE PUSH2 0x1239 JUMP JUMPDEST RETURNDATASIZE SWAP2 POP PUSH2 0x1480 JUMP JUMPDEST PUSH1 0x64 PUSH1 0x40 MLOAD PUSH3 0x461BCD PUSH1 0xE5 SHL DUP2 MSTORE PUSH1 0x20 PUSH1 0x4 DUP3 ADD MSTORE PUSH1 0x20 PUSH1 0x24 DUP3 ADD MSTORE PUSH32 0x416D6F756E74206D7573742062652067726561746572207468616E207A65726F PUSH1 0x44 DUP3 ADD MSTORE REVERT JUMPDEST POP CALLVALUE PUSH2 0x14D JUMPI PUSH1 0x20 CALLDATASIZE PUSH1 0x3 NOT ADD SLT PUSH2 0x14D JUMPI PUSH1 0x4 CALLDATALOAD PUSH2 0x1507 PUSH2 0x1822 JUMP JUMPDEST PUSH2 0x1F4 DUP2 GT PUSH2 0x1516 JUMPI PUSH1 0x4 SSTORE DUP1 RETURN JUMPDEST PUSH1 0x40 MLOAD PUSH3 0x461BCD PUSH1 0xE5 SHL DUP2 MSTORE PUSH1 0x20 PUSH1 0x4 DUP3 ADD MSTORE PUSH1 0x14 PUSH1 0x24 DUP3 ADD MSTORE PUSH20 0x4665652063616E6E6F7420657863656564203525 PUSH1 0x60 SHL PUSH1 0x44 DUP3 ADD MSTORE PUSH1 0x64 SWAP1 REVERT JUMPDEST SWAP1 PUSH1 0x1 DUP3 DUP2 SHR SWAP3 AND DUP1 ISZERO PUSH2 0x1582 JUMPI JUMPDEST PUSH1 0x20 DUP4 LT EQ PUSH2 0x156C JUMPI JUMP JUMPDEST PUSH4 0x4E487B71 PUSH1 0xE0 SHL PUSH1 0x0 MSTORE PUSH1 0x22 PUSH1 0x4 MSTORE PUSH1 0x24 PUSH1 0x0 REVERT JUMPDEST SWAP2 PUSH1 0x7F AND SWAP2 PUSH2 0x1561 JUMP JUMPDEST PUSH2 0x120 DUP2 ADD SWAP1 DUP2 LT PUSH8 0xFFFFFFFFFFFFFFFF DUP3 GT OR PUSH2 0x15A9 JUMPI PUSH1 0x40 MSTORE JUMP JUMPDEST PUSH4 0x4E487B71 PUSH1 0xE0 SHL PUSH1 0x0 MSTORE PUSH1 0x41 PUSH1 0x4 MSTORE PUSH1 0x24 PUSH1 0x0 REVERT JUMPDEST SWAP1 PUSH1 0x1F DUP1 NOT SWAP2 ADD AND DUP2 ADD SWAP1 DUP2 LT PUSH8 0xFFFFFFFFFFFFFFFF DUP3 GT OR PUSH2 0x15A9 JUMPI PUSH1 0x40 MSTORE JUMP JUMPDEST SWAP1 PUSH1 0x40 MLOAD SWAP2 DUP3 PUSH1 0x0 DUP3 SLOAD SWAP3 PUSH2 0x15F5 DUP5 PUSH2 0x1552 JUMP JUMPDEST DUP1 DUP5 MSTORE SWAP4 PUSH1 0x1 DUP2 AND SWAP1 DUP2 ISZERO PUSH2 0x1663 JUMPI POP PUSH1 0x1 EQ PUSH2 0x161C JUMPI JUMPDEST POP PUSH2 0x161A SWAP3 POP SUB DUP4 PUSH2 0x15BF JUMP JUMPDEST JUMP JUMPDEST SWAP1 POP PUSH1 0x0 SWAP3 SWAP2 SWAP3 MSTORE PUSH1 0x20 PUSH1 0x0 KECCAK256 SWAP1 PUSH1 0x0 SWAP2 JUMPDEST DUP2 DUP4 LT PUSH2 0x1647 JUMPI POP POP SWAP1 PUSH1 0x20 PUSH2 0x161A SWAP3 DUP3 ADD ADD CODESIZE PUSH2 0x160D JUMP JUMPDEST PUSH1 0x20 SWAP2 SWAP4 POP DUP1 PUSH1 0x1 SWAP2 SLOAD DUP4 DUP6 DUP10 ADD ADD MSTORE ADD SWAP2 ADD SWAP1 SWAP2 DUP5 SWAP3 PUSH2 0x162E JUMP JUMPDEST SWAP1 POP PUSH1 0x20 SWAP3 POP PUSH2 0x161A SWAP5 SWAP2 POP PUSH1 0xFF NOT AND DUP3 DUP5 ADD MSTORE ISZERO ISZERO PUSH1 0x5 SHL DUP3 ADD ADD CODESIZE PUSH2 0x160D JUMP JUMPDEST PUSH1 0x0 JUMPDEST DUP4 DUP2 LT PUSH2 0x1698 JUMPI POP POP PUSH1 0x0 SWAP2 ADD MSTORE JUMP JUMPDEST DUP2 DUP2 ADD MLOAD DUP4 DUP3 ADD MSTORE PUSH1 0x20 ADD PUSH2 0x1688 JUMP JUMPDEST SWAP1 PUSH1 0x20 SWAP2 PUSH2 0x16C1 DUP2 MLOAD DUP1 SWAP3 DUP2 DUP6 MSTORE DUP6 DUP1 DUP7 ADD SWAP2 ADD PUSH2 0x1685 JUMP JUMPDEST PUSH1 0x1F ADD PUSH1 0x1F NOT AND ADD ADD SWAP1 JUMP JUMPDEST PUSH8 0xFFFFFFFFFFFFFFFF DUP2 GT PUSH2 0x15A9 JUMPI PUSH1 0x1F ADD PUSH1 0x1F NOT AND PUSH1 0x20 ADD SWAP1 JUMP JUMPDEST ISZERO PUSH2 0x16F0 JUMPI JUMP JUMPDEST PUSH1 0x40 MLOAD PUSH3 0x461BCD PUSH1 0xE5 SHL DUP2 MSTORE PUSH1 0x20 PUSH1 0x4 DUP3 ADD MSTORE PUSH1 0x15 PUSH1 0x24 DUP3 ADD MSTORE PUSH21 0x13585C9AD95D08191BD95CC81B9BDD08195E1A5CDD PUSH1 0x5A SHL PUSH1 0x44 DUP3 ADD MSTORE PUSH1 0x64 SWAP1 REVERT JUMPDEST ISZERO PUSH2 0x1734 JUMPI JUMP JUMPDEST PUSH1 0x40 MLOAD PUSH3 0x461BCD PUSH1 0xE5 SHL DUP2 MSTORE PUSH1 0x20 PUSH1 0x4 DUP3 ADD MSTORE PUSH1 0x1A PUSH1 0x24 DUP3 ADD MSTORE PUSH32 0x4D61726B657420697320616C7265616479207265736F6C766564000000000000 PUSH1 0x44 DUP3 ADD MSTORE PUSH1 0x64 SWAP1 REVERT JUMPDEST SWAP2 SWAP1 DUP3 SUB SWAP2 DUP3 GT PUSH2 0x1786 JUMPI JUMP JUMPDEST PUSH4 0x4E487B71 PUSH1 0xE0 SHL PUSH1 0x0 MSTORE PUSH1 0x11 PUSH1 0x4 MSTORE PUSH1 0x24 PUSH1 0x0 REVERT JUMPDEST RETURNDATASIZE ISZERO PUSH2 0x17C7 JUMPI RETURNDATASIZE SWAP1 PUSH2 0x17AD DUP3 PUSH2 0x16CD JUMP JUMPDEST SWAP2 PUSH2 0x17BB PUSH1 0x40 MLOAD SWAP4 DUP5 PUSH2 0x15BF JUMP JUMPDEST DUP3 MSTORE RETURNDATASIZE PUSH1 0x0 PUSH1 0x20 DUP5 ADD RETURNDATACOPY JUMP JUMPDEST PUSH1 0x60 SWAP1 JUMP JUMPDEST SWAP2 SWAP1 DUP3 ADD DUP1 SWAP3 GT PUSH2 0x1786 JUMPI JUMP JUMPDEST PUSH1 0x0 NOT DUP2 EQ PUSH2 0x1786 JUMPI PUSH1 0x1 ADD SWAP1 JUMP JUMPDEST SWAP2 PUSH2 0x1812 SWAP1 PUSH2 0x1804 PUSH1 0x40 SWAP4 SWAP7 SWAP6 SWAP7 PUSH1 0x60 DUP7 MSTORE PUSH1 0x60 DUP7 ADD SWAP1 PUSH2 0x16A8 JUMP JUMPDEST SWAP1 DUP5 DUP3 SUB PUSH1 0x20 DUP7 ADD MSTORE PUSH2 0x16A8 JUMP JUMPDEST PUSH1 0x1 PUSH1 0x1 PUSH1 0xA0 SHL SUB SWAP1 SWAP5 AND SWAP2 ADD MSTORE JUMP JUMPDEST PUSH1 0x0 SLOAD PUSH1 0x1 PUSH1 0x1 PUSH1 0xA0 SHL SUB AND CALLER SUB PUSH2 0x1836 JUMPI JUMP JUMPDEST PUSH4 0x118CDAA7 PUSH1 0xE0 SHL PUSH1 0x0 MSTORE CALLER PUSH1 0x4 MSTORE PUSH1 0x24 PUSH1 0x0 REVERT JUMPDEST PUSH1 0x2 PUSH1 0x1 SLOAD EQ PUSH2 0x185C JUMPI PUSH1 0x2 PUSH1 0x1 SSTORE JUMP JUMPDEST PUSH4 0x3EE5AEB5 PUSH1 0xE0 SHL PUSH1 0x0 MSTORE PUSH1 0x4 PUSH1 0x0 REVERT JUMPDEST DUP1 ISZERO PUSH2 0x192B JUMPI PUSH1 0x0 DUP2 DUP1 JUMPDEST PUSH2 0x1917 JUMPI POP PUSH2 0x1886 DUP2 PUSH2 0x16CD JUMP JUMPDEST SWAP1 PUSH2 0x1894 PUSH1 0x40 MLOAD SWAP3 DUP4 PUSH2 0x15BF JUMP JUMPDEST DUP1 DUP3 MSTORE PUSH1 0x1F NOT PUSH2 0x18A3 DUP3 PUSH2 0x16CD JUMP JUMPDEST ADD CALLDATASIZE PUSH1 0x20 DUP5 ADD CALLDATACOPY JUMPDEST DUP1 SWAP3 DUP1 ISZERO PUSH2 0x1910 JUMPI PUSH1 0x0 NOT DUP3 ADD SWAP2 DUP3 GT PUSH2 0x1786 JUMPI DUP2 SWAP4 PUSH1 0xA DUP3 MOD PUSH1 0x30 ADD SWAP3 DUP4 PUSH1 0x30 GT PUSH2 0x1786 JUMPI DUP5 MLOAD GT ISZERO PUSH2 0x18FA JUMPI PUSH1 0xA SWAP3 PUSH1 0xF8 SHL PUSH1 0x1 PUSH1 0x1 PUSH1 0xF8 SHL SUB NOT AND PUSH1 0x0 BYTE SWAP1 DUP5 ADD PUSH1 0x1F ADD MSTORE8 DIV SWAP2 PUSH2 0x18AB JUMP JUMPDEST PUSH4 0x4E487B71 PUSH1 0xE0 SHL PUSH1 0x0 MSTORE PUSH1 0x32 PUSH1 0x4 MSTORE PUSH1 0x24 PUSH1 0x0 REVERT JUMPDEST POP POP SWAP1 POP SWAP1 JUMP JUMPDEST SWAP1 PUSH2 0x1923 PUSH1 0xA SWAP2 PUSH2 0x17D9 JUMP JUMPDEST SWAP2 DIV DUP1 PUSH2 0x1878 JUMP JUMPDEST POP PUSH1 0x40 MLOAD PUSH2 0x193A PUSH1 0x40 DUP3 PUSH2 0x15BF JUMP JUMPDEST PUSH1 0x1 DUP2 MSTORE PUSH1 0x3 PUSH1 0xFC SHL PUSH1 0x20 DUP3 ADD MSTORE SWAP1 JUMP INVALID PUSH1 0x80 PUSH1 0x40 MSTORE CALLVALUE PUSH2 0x3A0 JUMPI PUSH2 0xD41 DUP1 CODESIZE SUB DUP1 PUSH2 0x19 DUP2 PUSH2 0x3A5 JUMP JUMPDEST SWAP3 DUP4 CODECOPY DUP2 ADD SWAP1 PUSH1 0x60 DUP2 DUP4 SUB SLT PUSH2 0x3A0 JUMPI DUP1 MLOAD PUSH1 0x1 PUSH1 0x1 PUSH1 0x40 SHL SUB DUP2 GT PUSH2 0x3A0 JUMPI DUP3 PUSH2 0x45 SWAP2 DUP4 ADD PUSH2 0x3CA JUMP JUMPDEST PUSH1 0x20 DUP3 ADD MLOAD SWAP1 SWAP3 SWAP1 PUSH1 0x1 PUSH1 0x1 PUSH1 0x40 SHL SUB DUP2 GT PUSH2 0x3A0 JUMPI PUSH1 0x40 SWAP2 PUSH2 0x69 SWAP2 DUP5 ADD PUSH2 0x3CA JUMP JUMPDEST SWAP2 ADD MLOAD PUSH1 0x1 PUSH1 0x1 PUSH1 0xA0 SHL SUB DUP2 AND SWAP1 DUP2 SWAP1 SUB PUSH2 0x3A0 JUMPI DUP3 MLOAD PUSH1 0x1 PUSH1 0x1 PUSH1 0x40 SHL SUB DUP2 GT PUSH2 0x2A9 JUMPI PUSH1 0x3 SLOAD PUSH1 0x1 DUP2 DUP2 SHR SWAP2 AND DUP1 ISZERO PUSH2 0x396 JUMPI JUMPDEST PUSH1 0x20 DUP3 LT EQ PUSH2 0x289 JUMPI PUSH1 0x1F DUP2 GT PUSH2 0x331 JUMPI JUMPDEST POP PUSH1 0x20 PUSH1 0x1F DUP3 GT PUSH1 0x1 EQ PUSH2 0x2CA JUMPI DUP2 SWAP3 SWAP4 SWAP5 PUSH1 0x0 SWAP3 PUSH2 0x2BF JUMPI JUMPDEST POP POP DUP2 PUSH1 0x1 SHL SWAP2 PUSH1 0x0 NOT SWAP1 PUSH1 0x3 SHL SHR NOT AND OR PUSH1 0x3 SSTORE JUMPDEST DUP2 MLOAD PUSH1 0x1 PUSH1 0x1 PUSH1 0x40 SHL SUB DUP2 GT PUSH2 0x2A9 JUMPI PUSH1 0x4 SLOAD PUSH1 0x1 DUP2 DUP2 SHR SWAP2 AND DUP1 ISZERO PUSH2 0x29F JUMPI JUMPDEST PUSH1 0x20 DUP3 LT EQ PUSH2 0x289 JUMPI PUSH1 0x1F DUP2 GT PUSH2 0x224 JUMPI JUMPDEST POP PUSH1 0x20 SWAP3 PUSH1 0x1F DUP3 GT PUSH1 0x1 EQ PUSH2 0x1BF JUMPI SWAP3 DUP2 SWAP3 SWAP4 PUSH1 0x0 SWAP3 PUSH2 0x1B4 JUMPI JUMPDEST POP POP DUP2 PUSH1 0x1 SHL SWAP2 PUSH1 0x0 NOT SWAP1 PUSH1 0x3 SHL SHR NOT AND OR PUSH1 0x4 SSTORE JUMPDEST DUP1 ISZERO PUSH2 0x19E JUMPI PUSH1 0x5 DUP1 SLOAD PUSH1 0x1 PUSH1 0x1 PUSH1 0xA0 SHL SUB NOT DUP2 AND DUP4 OR SWAP1 SWAP2 SSTORE PUSH1 0x40 MLOAD SWAP2 SWAP1 PUSH1 0x1 PUSH1 0x1 PUSH1 0xA0 SHL SUB AND PUSH32 0x8BE0079C531659141344CD1FD0A4F28419497F9722A3DAAFE3B4186F6B6457E0 PUSH1 0x0 DUP1 LOG3 PUSH2 0x90B SWAP1 DUP2 PUSH2 0x436 DUP3 CODECOPY RETURN JUMPDEST PUSH4 0x1E4FBDF7 PUSH1 0xE0 SHL PUSH1 0x0 MSTORE PUSH1 0x0 PUSH1 0x4 MSTORE PUSH1 0x24 PUSH1 0x0 REVERT JUMPDEST ADD MLOAD SWAP1 POP CODESIZE DUP1 PUSH2 0x12F JUMP JUMPDEST PUSH1 0x1F NOT DUP3 AND SWAP4 PUSH1 0x4 PUSH1 0x0 MSTORE DUP1 PUSH1 0x0 KECCAK256 SWAP2 PUSH1 0x0 JUMPDEST DUP7 DUP2 LT PUSH2 0x20C JUMPI POP DUP4 PUSH1 0x1 SWAP6 SWAP7 LT PUSH2 0x1F3 JUMPI JUMPDEST POP POP POP DUP2 SHL ADD PUSH1 0x4 SSTORE PUSH2 0x145 JUMP JUMPDEST ADD MLOAD PUSH1 0x0 NOT PUSH1 0xF8 DUP5 PUSH1 0x3 SHL AND SHR NOT AND SWAP1 SSTORE CODESIZE DUP1 DUP1 PUSH2 0x1E5 JUMP JUMPDEST SWAP2 SWAP3 PUSH1 0x20 PUSH1 0x1 DUP2 SWAP3 DUP7 DUP6 ADD MLOAD DUP2 SSTORE ADD SWAP5 ADD SWAP3 ADD PUSH2 0x1D2 JUMP JUMPDEST PUSH1 0x4 PUSH1 0x0 MSTORE PUSH32 0x8A35ACFBC15FF81A39AE7D344FD709F28E8600B4AA8C65C6B64BFE7FE36BD19B PUSH1 0x1F DUP4 ADD PUSH1 0x5 SHR DUP2 ADD SWAP2 PUSH1 0x20 DUP5 LT PUSH2 0x27F JUMPI JUMPDEST PUSH1 0x1F ADD PUSH1 0x5 SHR ADD SWAP1 JUMPDEST DUP2 DUP2 LT PUSH2 0x273 JUMPI POP PUSH2 0x114 JUMP JUMPDEST PUSH1 0x0 DUP2 SSTORE PUSH1 0x1 ADD PUSH2 0x266 JUMP JUMPDEST SWAP1 SWAP2 POP DUP2 SWAP1 PUSH2 0x25D JUMP JUMPDEST PUSH4 0x4E487B71 PUSH1 0xE0 SHL PUSH1 0x0 MSTORE PUSH1 0x22 PUSH1 0x4 MSTORE PUSH1 0x24 PUSH1 0x0 REVERT JUMPDEST SWAP1 PUSH1 0x7F AND SWAP1 PUSH2 0x102 JUMP JUMPDEST PUSH4 0x4E487B71 PUSH1 0xE0 SHL PUSH1 0x0 MSTORE PUSH1 0x41 PUSH1 0x4 MSTORE PUSH1 0x24 PUSH1 0x0 REVERT JUMPDEST ADD MLOAD SWAP1 POP CODESIZE DUP1 PUSH2 0xCB JUMP JUMPDEST PUSH1 0x1F NOT DUP3 AND SWAP1 PUSH1 0x3 PUSH1 0x0 MSTORE DUP1 PUSH1 0x0 KECCAK256 SWAP2 PUSH1 0x0 JUMPDEST DUP2 DUP2 LT PUSH2 0x319 JUMPI POP SWAP6 DUP4 PUSH1 0x1 SWAP6 SWAP7 SWAP8 LT PUSH2 0x300 JUMPI JUMPDEST POP POP POP DUP2 SHL ADD PUSH1 0x3 SSTORE PUSH2 0xE1 JUMP JUMPDEST ADD MLOAD PUSH1 0x0 NOT PUSH1 0xF8 DUP5 PUSH1 0x3 SHL AND SHR NOT AND SWAP1 SSTORE CODESIZE DUP1 DUP1 PUSH2 0x2F2 JUMP JUMPDEST SWAP2 SWAP3 PUSH1 0x20 PUSH1 0x1 DUP2 SWAP3 DUP7 DUP12 ADD MLOAD DUP2 SSTORE ADD SWAP5 ADD SWAP3 ADD PUSH2 0x2DD JUMP JUMPDEST PUSH1 0x3 PUSH1 0x0 MSTORE PUSH32 0xC2575A0E9E593C00F959F8C92F12DB2869C3395A3B0502D05E2516446F71F85B PUSH1 0x1F DUP4 ADD PUSH1 0x5 SHR DUP2 ADD SWAP2 PUSH1 0x20 DUP5 LT PUSH2 0x38C JUMPI JUMPDEST PUSH1 0x1F ADD PUSH1 0x5 SHR ADD SWAP1 JUMPDEST DUP2 DUP2 LT PUSH2 0x380 JUMPI POP PUSH2 0xB1 JUMP JUMPDEST PUSH1 0x0 DUP2 SSTORE PUSH1 0x1 ADD PUSH2 0x373 JUMP JUMPDEST SWAP1 SWAP2 POP DUP2 SWAP1 PUSH2 0x36A JUMP JUMPDEST SWAP1 PUSH1 0x7F AND SWAP1 PUSH2 0x9F JUMP JUMPDEST PUSH1 0x0 DUP1 REVERT JUMPDEST PUSH1 0x40 MLOAD SWAP2 SWAP1 PUSH1 0x1F ADD PUSH1 0x1F NOT AND DUP3 ADD PUSH1 0x1 PUSH1 0x1 PUSH1 0x40 SHL SUB DUP2 GT DUP4 DUP3 LT OR PUSH2 0x2A9 JUMPI PUSH1 0x40 MSTORE JUMP JUMPDEST DUP2 PUSH1 0x1F DUP3 ADD SLT ISZERO PUSH2 0x3A0 JUMPI DUP1 MLOAD SWAP1 PUSH1 0x1 PUSH1 0x1 PUSH1 0x40 SHL SUB DUP3 GT PUSH2 0x2A9 JUMPI PUSH2 0x3F9 PUSH1 0x1F DUP4 ADD PUSH1 0x1F NOT AND PUSH1 0x20 ADD PUSH2 0x3A5 JUMP JUMPDEST SWAP3 DUP3 DUP5 MSTORE PUSH1 0x20 DUP4 DUP4 ADD ADD GT PUSH2 0x3A0 JUMPI PUSH1 0x0 JUMPDEST DUP3 DUP2 LT PUSH2 0x420 JUMPI POP POP PUSH1 0x20 PUSH1 0x0 SWAP2 DUP4 ADD ADD MSTORE SWAP1 JUMP JUMPDEST DUP1 PUSH1 0x20 DUP1 SWAP3 DUP5 ADD ADD MLOAD DUP3 DUP3 DUP8 ADD ADD MSTORE ADD PUSH2 0x40B JUMP INVALID PUSH1 0x80 DUP1 PUSH1 0x40 MSTORE PUSH1 0x4 CALLDATASIZE LT ISZERO PUSH2 0x13 JUMPI PUSH1 0x0 DUP1 REVERT JUMPDEST PUSH1 0x0 CALLDATALOAD PUSH1 0xE0 SHR SWAP1 DUP2 PUSH4 0x6FDDE03 EQ PUSH2 0x6CB JUMPI POP DUP1 PUSH4 0x95EA7B3 EQ PUSH2 0x645 JUMPI DUP1 PUSH4 0x18160DDD EQ PUSH2 0x627 JUMPI DUP1 PUSH4 0x23B872DD EQ PUSH2 0x53A JUMPI DUP1 PUSH4 0x313CE567 EQ PUSH2 0x51E JUMPI DUP1 PUSH4 0x40C10F19 EQ PUSH2 0x46A JUMPI DUP1 PUSH4 0x70A08231 EQ PUSH2 0x430 JUMPI DUP1 PUSH4 0x715018A6 EQ PUSH2 0x3D3 JUMPI DUP1 PUSH4 0x8DA5CB5B EQ PUSH2 0x3AA JUMPI DUP1 PUSH4 0x95D89B41 EQ PUSH2 0x289 JUMPI DUP1 PUSH4 0x9DC29FAC EQ PUSH2 0x1CA JUMPI DUP1 PUSH4 0xA9059CBB EQ PUSH2 0x199 JUMPI DUP1 PUSH4 0xDD62ED3E EQ PUSH2 0x148 JUMPI PUSH4 0xF2FDE38B EQ PUSH2 0xB9 JUMPI PUSH1 0x0 DUP1 REVERT JUMPDEST CALLVALUE PUSH2 0x143 JUMPI PUSH1 0x20 CALLDATASIZE PUSH1 0x3 NOT ADD SLT PUSH2 0x143 JUMPI PUSH2 0xD2 PUSH2 0x7E7 JUMP JUMPDEST PUSH2 0xDA PUSH2 0x8AC JUMP JUMPDEST PUSH1 0x1 PUSH1 0x1 PUSH1 0xA0 SHL SUB AND DUP1 ISZERO PUSH2 0x12D JUMPI PUSH1 0x5 DUP1 SLOAD PUSH1 0x1 PUSH1 0x1 PUSH1 0xA0 SHL SUB NOT DUP2 AND DUP4 OR SWAP1 SWAP2 SSTORE PUSH1 0x1 PUSH1 0x1 PUSH1 0xA0 SHL SUB AND PUSH32 0x8BE0079C531659141344CD1FD0A4F28419497F9722A3DAAFE3B4186F6B6457E0 PUSH1 0x0 DUP1 LOG3 STOP JUMPDEST PUSH4 0x1E4FBDF7 PUSH1 0xE0 SHL PUSH1 0x0 MSTORE PUSH1 0x0 PUSH1 0x4 MSTORE PUSH1 0x24 PUSH1 0x0 REVERT JUMPDEST PUSH1 0x0 DUP1 REVERT JUMPDEST CALLVALUE PUSH2 0x143 JUMPI PUSH1 0x40 CALLDATASIZE PUSH1 0x3 NOT ADD SLT PUSH2 0x143 JUMPI PUSH2 0x161 PUSH2 0x7E7 JUMP JUMPDEST PUSH2 0x169 PUSH2 0x7FD JUMP JUMPDEST PUSH1 0x1 PUSH1 0x1 PUSH1 0xA0 SHL SUB SWAP2 DUP3 AND PUSH1 0x0 SWAP1 DUP2 MSTORE PUSH1 0x1 PUSH1 0x20 SWAP1 DUP2 MSTORE PUSH1 0x40 DUP1 DUP4 KECCAK256 SWAP5 SWAP1 SWAP4 AND DUP3 MSTORE SWAP3 DUP4 MSTORE DUP2 SWAP1 KECCAK256 SLOAD SWAP1 MLOAD SWAP1 DUP2 MSTORE RETURN JUMPDEST CALLVALUE PUSH2 0x143 JUMPI PUSH1 0x40 CALLDATASIZE PUSH1 0x3 NOT ADD SLT PUSH2 0x143 JUMPI PUSH2 0x1BF PUSH2 0x1B5 PUSH2 0x7E7 JUMP JUMPDEST PUSH1 0x24 CALLDATALOAD SWAP1 CALLER PUSH2 0x813 JUMP JUMPDEST PUSH1 0x20 PUSH1 0x40 MLOAD PUSH1 0x1 DUP2 MSTORE RETURN JUMPDEST CALLVALUE PUSH2 0x143 JUMPI PUSH1 0x40 CALLDATASIZE PUSH1 0x3 NOT ADD SLT PUSH2 0x143 JUMPI PUSH2 0x1E3 PUSH2 0x7E7 JUMP JUMPDEST PUSH1 0x24 CALLDATALOAD SWAP1 PUSH2 0x1EF PUSH2 0x8AC JUMP JUMPDEST PUSH1 0x1 PUSH1 0x1 PUSH1 0xA0 SHL SUB AND SWAP1 DUP2 ISZERO PUSH2 0x273 JUMPI PUSH1 0x0 SWAP1 DUP3 DUP3 MSTORE DUP2 PUSH1 0x20 MSTORE PUSH1 0x40 DUP3 KECCAK256 SLOAD DUP2 DUP2 LT PUSH2 0x25B JUMPI PUSH1 0x20 DUP3 DUP6 SWAP4 PUSH32 0xDDF252AD1BE2C89B69C2B068FC378DAA952BA7F163C4A11628F55A4DF523B3EF SWAP4 DUP7 SWAP8 DUP8 MSTORE DUP7 DUP5 MSTORE SUB PUSH1 0x40 DUP7 KECCAK256 SSTORE DUP1 PUSH1 0x2 SLOAD SUB PUSH1 0x2 SSTORE PUSH1 0x40 MLOAD SWAP1 DUP2 MSTORE LOG3 DUP1 RETURN JUMPDEST PUSH1 0x64 SWAP4 PUSH4 0x391434E3 PUSH1 0xE2 SHL DUP5 MSTORE PUSH1 0x4 MSTORE PUSH1 0x24 MSTORE PUSH1 0x44 MSTORE REVERT JUMPDEST PUSH4 0x4B637E8F PUSH1 0xE1 SHL PUSH1 0x0 MSTORE PUSH1 0x0 PUSH1 0x4 MSTORE PUSH1 0x24 PUSH1 0x0 REVERT JUMPDEST CALLVALUE PUSH2 0x143 JUMPI PUSH1 0x0 CALLDATASIZE PUSH1 0x3 NOT ADD SLT PUSH2 0x143 JUMPI PUSH1 0x40 MLOAD PUSH1 0x0 PUSH1 0x4 SLOAD DUP1 PUSH1 0x1 SHR SWAP1 PUSH1 0x1 DUP2 AND DUP1 ISZERO PUSH2 0x3A0 JUMPI JUMPDEST PUSH1 0x20 DUP4 LT DUP2 EQ PUSH2 0x38C JUMPI DUP3 DUP6 MSTORE SWAP1 DUP2 ISZERO PUSH2 0x370 JUMPI POP PUSH1 0x1 EQ PUSH2 0x319 JUMPI JUMPDEST POP DUP2 SWAP1 SUB PUSH1 0x1F ADD PUSH1 0x1F NOT AND DUP2 ADD SWAP1 PUSH8 0xFFFFFFFFFFFFFFFF DUP3 GT DUP2 DUP4 LT OR PUSH2 0x303 JUMPI PUSH2 0x2FF DUP3 SWAP2 DUP3 PUSH1 0x40 MSTORE DUP3 PUSH2 0x79E JUMP JUMPDEST SUB SWAP1 RETURN JUMPDEST PUSH4 0x4E487B71 PUSH1 0xE0 SHL PUSH1 0x0 MSTORE PUSH1 0x41 PUSH1 0x4 MSTORE PUSH1 0x24 PUSH1 0x0 REVERT JUMPDEST SWAP1 POP PUSH1 0x4 PUSH1 0x0 MSTORE PUSH32 0x8A35ACFBC15FF81A39AE7D344FD709F28E8600B4AA8C65C6B64BFE7FE36BD19B PUSH1 0x0 SWAP1 JUMPDEST DUP3 DUP3 LT PUSH2 0x35A JUMPI POP PUSH1 0x20 SWAP2 POP DUP3 ADD ADD DUP3 PUSH2 0x2CF JUMP JUMPDEST PUSH1 0x1 DUP2 PUSH1 0x20 SWAP3 SLOAD DUP4 DUP6 DUP9 ADD ADD MSTORE ADD SWAP2 ADD SWAP1 PUSH2 0x345 JUMP JUMPDEST SWAP1 POP PUSH1 0x20 SWAP3 POP PUSH1 0xFF NOT AND DUP3 DUP5 ADD MSTORE ISZERO ISZERO PUSH1 0x5 SHL DUP3 ADD ADD DUP3 PUSH2 0x2CF JUMP JUMPDEST PUSH4 0x4E487B71 PUSH1 0xE0 SHL DUP5 MSTORE PUSH1 0x22 PUSH1 0x4 MSTORE PUSH1 0x24 DUP5 REVERT JUMPDEST SWAP2 PUSH1 0x7F AND SWAP2 PUSH2 0x2B2 JUMP JUMPDEST CALLVALUE PUSH2 0x143 JUMPI PUSH1 0x0 CALLDATASIZE PUSH1 0x3 NOT ADD SLT PUSH2 0x143 JUMPI PUSH1 0x5 SLOAD PUSH1 0x40 MLOAD PUSH1 0x1 PUSH1 0x1 PUSH1 0xA0 SHL SUB SWAP1 SWAP2 AND DUP2 MSTORE PUSH1 0x20 SWAP1 RETURN JUMPDEST CALLVALUE PUSH2 0x143 JUMPI PUSH1 0x0 CALLDATASIZE PUSH1 0x3 NOT ADD SLT PUSH2 0x143 JUMPI PUSH2 0x3EC PUSH2 0x8AC JUMP JUMPDEST PUSH1 0x5 DUP1 SLOAD PUSH1 0x1 PUSH1 0x1 PUSH1 0xA0 SHL SUB NOT DUP2 AND SWAP1 SWAP2 SSTORE PUSH1 0x0 SWAP1 PUSH1 0x1 PUSH1 0x1 PUSH1 0xA0 SHL SUB AND PUSH32 0x8BE0079C531659141344CD1FD0A4F28419497F9722A3DAAFE3B4186F6B6457E0 DUP3 DUP1 LOG3 STOP JUMPDEST CALLVALUE PUSH2 0x143 JUMPI PUSH1 0x20 CALLDATASIZE PUSH1 0x3 NOT ADD SLT PUSH2 0x143 JUMPI PUSH1 0x1 PUSH1 0x1 PUSH1 0xA0 SHL SUB PUSH2 0x451 PUSH2 0x7E7 JUMP JUMPDEST AND PUSH1 0x0 MSTORE PUSH1 0x0 PUSH1 0x20 MSTORE PUSH1 0x20 PUSH1 0x40 PUSH1 0x0 KECCAK256 SLOAD PUSH1 0x40 MLOAD SWAP1 DUP2 MSTORE RETURN JUMPDEST CALLVALUE PUSH2 0x143 JUMPI PUSH1 0x40 CALLDATASIZE PUSH1 0x3 NOT ADD SLT PUSH2 0x143 JUMPI PUSH2 0x483 PUSH2 0x7E7 JUMP JUMPDEST PUSH1 0x24 CALLDATALOAD SWAP1 PUSH2 0x48F PUSH2 0x8AC JUMP JUMPDEST PUSH1 0x1 PUSH1 0x1 PUSH1 0xA0 SHL SUB AND DUP1 ISZERO PUSH2 0x508 JUMPI PUSH1 0x2 SLOAD SWAP2 DUP1 DUP4 ADD DUP1 SWAP4 GT PUSH2 0x4F2 JUMPI PUSH1 0x20 SWAP3 PUSH1 0x2 SSTORE PUSH32 0xDDF252AD1BE2C89B69C2B068FC378DAA952BA7F163C4A11628F55A4DF523B3EF PUSH1 0x0 SWAP4 DUP5 SWAP3 DUP5 DUP5 MSTORE DUP4 DUP3 MSTORE PUSH1 0x40 DUP5 KECCAK256 DUP2 DUP2 SLOAD ADD SWAP1 SSTORE PUSH1 0x40 MLOAD SWAP1 DUP2 MSTORE LOG3 DUP1 RETURN JUMPDEST PUSH4 0x4E487B71 PUSH1 0xE0 SHL PUSH1 0x0 MSTORE PUSH1 0x11 PUSH1 0x4 MSTORE PUSH1 0x24 PUSH1 0x0 REVERT JUMPDEST PUSH4 0xEC442F05 PUSH1 0xE0 SHL PUSH1 0x0 MSTORE PUSH1 0x0 PUSH1 0x4 MSTORE PUSH1 0x24 PUSH1 0x0 REVERT JUMPDEST CALLVALUE PUSH2 0x143 JUMPI PUSH1 0x0 CALLDATASIZE PUSH1 0x3 NOT ADD SLT PUSH2 0x143 JUMPI PUSH1 0x20 PUSH1 0x40 MLOAD PUSH1 0x12 DUP2 MSTORE RETURN JUMPDEST CALLVALUE PUSH2 0x143 JUMPI PUSH1 0x60 CALLDATASIZE PUSH1 0x3 NOT ADD SLT PUSH2 0x143 JUMPI PUSH2 0x553 PUSH2 0x7E7 JUMP JUMPDEST PUSH2 0x55B PUSH2 0x7FD JUMP JUMPDEST PUSH1 0x1 PUSH1 0x1 PUSH1 0xA0 SHL SUB DUP3 AND PUSH1 0x0 DUP2 DUP2 MSTORE PUSH1 0x1 PUSH1 0x20 SWAP1 DUP2 MSTORE PUSH1 0x40 DUP1 DUP4 KECCAK256 CALLER DUP5 MSTORE SWAP1 SWAP2 MSTORE SWAP1 KECCAK256 SLOAD SWAP1 SWAP3 PUSH1 0x44 CALLDATALOAD SWAP3 SWAP2 PUSH1 0x0 NOT DUP2 LT PUSH2 0x59B JUMPI JUMPDEST POP PUSH2 0x1BF SWAP4 POP PUSH2 0x813 JUMP JUMPDEST DUP4 DUP2 LT PUSH2 0x60A JUMPI DUP5 ISZERO PUSH2 0x5F4 JUMPI CALLER ISZERO PUSH2 0x5DE JUMPI PUSH2 0x1BF SWAP5 PUSH1 0x0 MSTORE PUSH1 0x1 PUSH1 0x20 MSTORE PUSH1 0x40 PUSH1 0x0 KECCAK256 PUSH1 0x1 DUP1 PUSH1 0xA0 SHL SUB CALLER AND PUSH1 0x0 MSTORE PUSH1 0x20 MSTORE DUP4 PUSH1 0x40 PUSH1 0x0 KECCAK256 SWAP2 SUB SWAP1 SSTORE DUP5 PUSH2 0x590 JUMP JUMPDEST PUSH4 0x4A1406B1 PUSH1 0xE1 SHL PUSH1 0x0 MSTORE PUSH1 0x0 PUSH1 0x4 MSTORE PUSH1 0x24 PUSH1 0x0 REVERT JUMPDEST PUSH4 0xE602DF05 PUSH1 0xE0 SHL PUSH1 0x0 MSTORE PUSH1 0x0 PUSH1 0x4 MSTORE PUSH1 0x24 PUSH1 0x0 REVERT JUMPDEST DUP4 SWAP1 PUSH4 0x7DC7A0D9 PUSH1 0xE1 SHL PUSH1 0x0 MSTORE CALLER PUSH1 0x4 MSTORE PUSH1 0x24 MSTORE PUSH1 0x44 MSTORE PUSH1 0x64 PUSH1 0x0 REVERT JUMPDEST CALLVALUE PUSH2 0x143 JUMPI PUSH1 0x0 CALLDATASIZE PUSH1 0x3 NOT ADD SLT PUSH2 0x143 JUMPI PUSH1 0x20 PUSH1 0x2 SLOAD PUSH1 0x40 MLOAD SWAP1 DUP2 MSTORE RETURN JUMPDEST CALLVALUE PUSH2 0x143 JUMPI PUSH1 0x40 CALLDATASIZE PUSH1 0x3 NOT ADD SLT PUSH2 0x143 JUMPI PUSH2 0x65E PUSH2 0x7E7 JUMP JUMPDEST PUSH1 0x24 CALLDATALOAD SWAP1 CALLER ISZERO PUSH2 0x5F4 JUMPI PUSH1 0x1 PUSH1 0x1 PUSH1 0xA0 SHL SUB AND SWAP1 DUP2 ISZERO PUSH2 0x5DE JUMPI CALLER PUSH1 0x0 MSTORE PUSH1 0x1 PUSH1 0x20 MSTORE PUSH1 0x40 PUSH1 0x0 KECCAK256 DUP3 PUSH1 0x0 MSTORE PUSH1 0x20 MSTORE DUP1 PUSH1 0x40 PUSH1 0x0 KECCAK256 SSTORE PUSH1 0x40 MLOAD SWAP1 DUP2 MSTORE PUSH32 0x8C5BE1E5EBEC7D5BD14F71427D1E84F3DD0314C0F7B2291E5B200AC8C7C3B925 PUSH1 0x20 CALLER SWAP3 LOG3 PUSH1 0x20 PUSH1 0x40 MLOAD PUSH1 0x1 DUP2 MSTORE RETURN JUMPDEST CALLVALUE PUSH2 0x143 JUMPI PUSH1 0x0 CALLDATASIZE PUSH1 0x3 NOT ADD SLT PUSH2 0x143 JUMPI PUSH1 0x0 PUSH1 0x3 SLOAD DUP1 PUSH1 0x1 SHR SWAP1 PUSH1 0x1 DUP2 AND DUP1 ISZERO PUSH2 0x794 JUMPI JUMPDEST PUSH1 0x20 DUP4 LT DUP2 EQ PUSH2 0x38C JUMPI DUP3 DUP6 MSTORE SWAP1 DUP2 ISZERO PUSH2 0x370 JUMPI POP PUSH1 0x1 EQ PUSH2 0x73D JUMPI POP DUP2 SWAP1 SUB PUSH1 0x1F ADD PUSH1 0x1F NOT AND DUP2 ADD SWAP1 PUSH8 0xFFFFFFFFFFFFFFFF DUP3 GT DUP2 DUP4 LT OR PUSH2 0x303 JUMPI PUSH2 0x2FF DUP3 SWAP2 DUP3 PUSH1 0x40 MSTORE DUP3 PUSH2 0x79E JUMP JUMPDEST SWAP1 POP PUSH1 0x3 PUSH1 0x0 MSTORE PUSH32 0xC2575A0E9E593C00F959F8C92F12DB2869C3395A3B0502D05E2516446F71F85B PUSH1 0x0 SWAP1 JUMPDEST DUP3 DUP3 LT PUSH2 0x77E JUMPI POP PUSH1 0x20 SWAP2 POP DUP3 ADD ADD DUP3 PUSH2 0x2CF JUMP JUMPDEST PUSH1 0x1 DUP2 PUSH1 0x20 SWAP3 SLOAD DUP4 DUP6 DUP9 ADD ADD MSTORE ADD SWAP2 ADD SWAP1 PUSH2 0x769 JUMP JUMPDEST SWAP2 PUSH1 0x7F AND SWAP2 PUSH2 0x6F1 JUMP JUMPDEST SWAP2 SWAP1 SWAP2 PUSH1 0x20 DUP2 MSTORE DUP3 MLOAD DUP1 PUSH1 0x20 DUP4 ADD MSTORE PUSH1 0x0 JUMPDEST DUP2 DUP2 LT PUSH2 0x7D1 JUMPI POP PUSH1 0x40 SWAP3 SWAP4 POP PUSH1 0x0 DUP4 DUP3 DUP5 ADD ADD MSTORE PUSH1 0x1F DUP1 NOT SWAP2 ADD AND ADD ADD SWAP1 JUMP JUMPDEST DUP1 PUSH1 0x20 DUP1 SWAP3 DUP8 ADD ADD MLOAD PUSH1 0x40 DUP3 DUP7 ADD ADD MSTORE ADD PUSH2 0x7B0 JUMP JUMPDEST PUSH1 0x4 CALLDATALOAD SWAP1 PUSH1 0x1 PUSH1 0x1 PUSH1 0xA0 SHL SUB DUP3 AND DUP3 SUB PUSH2 0x143 JUMPI JUMP JUMPDEST PUSH1 0x24 CALLDATALOAD SWAP1 PUSH1 0x1 PUSH1 0x1 PUSH1 0xA0 SHL SUB DUP3 AND DUP3 SUB PUSH2 0x143 JUMPI JUMP JUMPDEST PUSH1 0x1 PUSH1 0x1 PUSH1 0xA0 SHL SUB AND SWAP1 DUP2 ISZERO PUSH2 0x273 JUMPI PUSH1 0x1 PUSH1 0x1 PUSH1 0xA0 SHL SUB AND SWAP2 DUP3 ISZERO PUSH2 0x508 JUMPI PUSH1 0x0 DUP3 DUP2 MSTORE DUP1 PUSH1 0x20 MSTORE PUSH1 0x40 DUP2 KECCAK256 SLOAD DUP3 DUP2 LT PUSH2 0x892 JUMPI SWAP2 PUSH1 0x40 DUP3 DUP3 PUSH32 0xDDF252AD1BE2C89B69C2B068FC378DAA952BA7F163C4A11628F55A4DF523B3EF SWAP6 DUP8 PUSH1 0x20 SWAP7 MSTORE DUP3 DUP7 MSTORE SUB DUP3 DUP3 KECCAK256 SSTORE DUP7 DUP2 MSTORE DUP1 DUP5 MSTORE KECCAK256 DUP2 DUP2 SLOAD ADD SWAP1 SSTORE PUSH1 0x40 MLOAD SWAP1 DUP2 MSTORE LOG3 JUMP JUMPDEST SWAP2 PUSH1 0x64 SWAP3 DUP5 PUSH4 0x391434E3 PUSH1 0xE2 SHL DUP5 MSTORE PUSH1 0x4 MSTORE PUSH1 0x24 MSTORE PUSH1 0x44 MSTORE REVERT JUMPDEST PUSH1 0x5 SLOAD PUSH1 0x1 PUSH1 0x1 PUSH1 0xA0 SHL SUB AND CALLER SUB PUSH2 0x8C0 JUMPI JUMP JUMPDEST PUSH4 0x118CDAA7 PUSH1 0xE0 SHL PUSH1 0x0 MSTORE CALLER PUSH1 0x4 MSTORE PUSH1 0x24 PUSH1 0x0 REVERT INVALID LOG2 PUSH5 0x6970667358 0x22 SLT KECCAK256 0xFC SWAP7 EXTCODESIZE SWAP16 DUP9 PUSH28 0x59257A9E82A1511057BE5D20E3F36EB76684F36D174C185014BC6473 PUSH16 0x6C634300081C0033A264697066735822 SLT KECCAK256 SWAP7 0xB0 SAR 0xD9 EXTCODEHASH SWAP7 0xDD 0xB9 0xA6 0x4F BALANCE SWAP8 PUSH21 0xDC07E4F600470BAA54EC1852B3F35FFE23D9BA6473 PUSH16 0x6C634300081C00330000000000000000 "
        },
        "methodIdentifiers": {
          "accumulatedFees()": "587f5ed7",
          "buyShares(uint256)": "d1a93d18",
          "createMarket(string,address,uint256)": "d3caedfb",
          "getMarket(uint256)": "eb44fdd3",
          "marketCounter()": "24760807",
          "markets(uint256)": "b1283e77",
          "owner()": "8da5cb5b",
          "platformFeeBps()": "22dcd13e",
          "redeemWinnings(uint256)": "d7ed7453",
          "renounceOwnership()": "715018a6",
          "resolveMarket(uint256,uint8)": "df55406e",
          "sellShares(uint256,uint256)": "2279a970",
          "setPlatformFee(uint256)": "12e8e2c3",
          "transferOwnership(address)": "f2fde38b",
          "withdrawFees()": "476343ee"
        }
      }
    }
  }
}