{
  "contracts/Counter.sol": {
    "Counter": {
      "abi": [
        {
          "inputs": [],
          "stateMutability": "nonpayable",
          "type": "constructor"
        },
        {
          "anonymous": false,
          "inputs": [
            {
              "indexed": true,
              "internalType": "address",
              "name": "user",
              "type": "address"
            },
            {
              "indexed": false,
              "internalType": "int256",
              "name": "previousCount",
              "type": "int256"
            },
            {
              "indexed": false,
              "internalType": "int256",
              "name": "newCount",
              "type": "int256"
            },
            {
              "indexed": false,
              "internalType": "uint256",
              "name": "timestamp",
              "type": "uint256"
            }
          ],
          "name": "CounterDecremented",
          "type": "event"
        },
        {
          "anonymous": false,
          "inputs": [
            {
              "indexed": true,
              "internalType": "address",
              "name": "user",
              "type": "address"
            },
            {
              "indexed": false,
              "internalType": "int256",
              "name": "previousCount",
              "type": "int256"
            },
            {
              "indexed": false,
              "internalType": "int256",
              "name": "newCount",
              "type": "int256"
            },
            {
              "indexed": false,
              "internalType": "uint256",
              "name": "timestamp",
              "type": "uint256"
            }
          ],
          "name": "CounterIncremented",
          "type": "event"
        },
        {
          "anonymous": false,
          "inputs": [
            {
              "indexed": true,
              "internalType": "address",
              "name": "owner",
              "type": "address"
            },
            {
              "indexed": false,
              "internalType": "int256",
              "name": "previousCount",
              "type": "int256"
            },
            {
              "indexed": false,
              "internalType": "uint256",
              "name": "timestamp",
              "type": "uint256"
            }
          ],
          "name": "CounterReset",
          "type": "event"
        },
        {
          "anonymous": false,
          "inputs": [
            {
              "indexed": false,
              "internalType": "int256",
              "name": "count",
              "type": "int256"
            },
            {
              "indexed": false,
              "internalType": "string",
              "name": "milestone",
              "type": "string"
            },
            {
              "indexed": false,
              "internalType": "uint256",
              "name": "timestamp",
              "type": "uint256"
            }
          ],
          "name": "MilestoneReached",
          "type": "event"
        },
        {
          "inputs": [],
          "name": "count",
          "outputs": [
            {
              "internalType": "int256",
              "name": "",
              "type": "int256"
            }
          ],
          "stateMutability": "view",
          "type": "function"
        },
        {
          "inputs": [],
          "name": "decrement",
          "outputs": [],
          "stateMutability": "nonpayable",
          "type": "function"
        },
        {
          "inputs": [
            {
              "internalType": "uint256",
              "name": "_amount",
              "type": "uint256"
            }
          ],
          "name": "decrementBy",
          "outputs": [],
          "stateMutability": "nonpayable",
          "type": "function"
        },
        {
          "inputs": [],
          "name": "getContractStats",
          "outputs": [
            {
              "internalType": "int256",
              "name": "currentCount",
              "type": "int256"
            },
            {
              "internalType": "uint256",
              "name": "totalChanges",
              "type": "uint256"
            },
            {
              "internalType": "uint256",
              "name": "totalUsers",
              "type": "uint256"
            },
            {
              "internalType": "address",
              "name": "contractOwner",
              "type": "address"
            }
          ],
          "stateMutability": "view",
          "type": "function"
        },
        {
          "inputs": [],
          "name": "getCount",
          "outputs": [
            {
              "internalType": "int256",
              "name": "",
              "type": "int256"
            }
          ],
          "stateMutability": "view",
          "type": "function"
        },
        {
          "inputs": [],
          "name": "getCountStatus",
          "outputs": [
            {
              "internalType": "string",
              "name": "",
              "type": "string"
            }
          ],
          "stateMutability": "view",
          "type": "function"
        },
        {
          "inputs": [],
          "name": "getHistoryLength",
          "outputs": [
            {
              "internalType": "uint256",
              "name": "",
              "type": "uint256"
            }
          ],
          "stateMutability": "view",
          "type": "function"
        },
        {
          "inputs": [],
          "name": "getLastUser",
          "outputs": [
            {
              "internalType": "address",
              "name": "",
              "type": "address"
            },
            {
              "internalType": "string",
              "name": "",
              "type": "string"
            },
            {
              "internalType": "uint256",
              "name": "",
              "type": "uint256"
            }
          ],
          "stateMutability": "view",
          "type": "function"
        },
        {
          "inputs": [
            {
              "internalType": "uint256",
              "name": "_count",
              "type": "uint256"
            }
          ],
          "name": "getLatestChanges",
          "outputs": [
            {
              "internalType": "address[]",
              "name": "users",
              "type": "address[]"
            },
            {
              "internalType": "int256[]",
              "name": "previousCounts",
              "type": "int256[]"
            },
            {
              "internalType": "int256[]",
              "name": "newCounts",
              "type": "int256[]"
            },
            {
              "internalType": "string[]",
              "name": "actions",
              "type": "string[]"
            },
            {
              "internalType": "uint256[]",
              "name": "timestamps",
              "type": "uint256[]"
            }
          ],
          "stateMutability": "view",
          "type": "function"
        },
        {
          "inputs": [
            {
              "internalType": "address",
              "name": "_user",
              "type": "address"
            }
          ],
          "name": "getUserStats",
          "outputs": [
            {
              "internalType": "uint256",
              "name": "increments",
              "type": "uint256"
            },
            {
              "internalType": "uint256",
              "name": "decrements",
              "type": "uint256"
            },
            {
              "internalType": "uint256",
              "name": "totalInteractions",
              "type": "uint256"
            },
            {
              "internalType": "int256",
              "name": "netContribution",
              "type": "int256"
            }
          ],
          "stateMutability": "view",
          "type": "function"
        },
        {
          "inputs": [
            {
              "internalType": "uint256",
              "name": "",
              "type": "uint256"
            }
          ],
          "name": "history",
          "outputs": [
            {
              "internalType": "address",
              "name": "user",
              "type": "address"
            },
            {
              "internalType": "int256",
              "name": "previousCount",
              "type": "int256"
            },
            {
              "internalType": "int256",
              "name": "newCount",
              "type": "int256"
            },
            {
              "internalType": "string",
              "name": "action",
              "type": "string"
            },
            {
              "internalType": "uint256",
              "name": "timestamp",
              "type": "uint256"
            }
          ],
          "stateMutability": "view",
          "type": "function"
        },
        {
          "inputs": [],
          "name": "increment",
          "outputs": [],
          "stateMutability": "nonpayable",
          "type": "function"
        },
        {
          "inputs": [
            {
              "internalType": "uint256",
              "name": "_amount",
              "type": "uint256"
            }
          ],
          "name": "incrementBy",
          "outputs": [],
          "stateMutability": "nonpayable",
          "type": "function"
        },
        {
          "inputs": [],
          "name": "owner",
          "outputs": [
            {
              "internalType": "address",
              "name": "",
              "type": "address"
            }
          ],
          "stateMutability": "view",
          "type": "function"
        },
        {
          "inputs": [],
          "name": "reset",
          "outputs": [],
          "stateMutability": "nonpayable",
          "type": "function"
        },
        {
          "inputs": [],
          "name": "totalInteractions",
          "outputs": [
            {
              "internalType": "uint256",
              "name": "",
              "type": "uint256"
            }
          ],
          "stateMutability": "view",
          "type": "function"
        },
        {
          "inputs": [
            {
              "internalType": "address",
              "name": "_newOwner",
              "type": "address"
            }
          ],
          "name": "transferOwnership",
          "outputs": [],
          "stateMutability": "nonpayable",
          "type": "function"
        },
        {
          "inputs": [
            {
              "internalType": "address",
              "name": "",
              "type": "address"
            }
          ],
          "name": "userDecrements",
          "outputs": [
            {
              "internalType": "uint256",
              "name": "",
              "type": "uint256"
            }
          ],
          "stateMutability": "view",
          "type": "function"
        },
        {
          "inputs": [
            {
              "internalType": "address",
              "name": "",
              "type": "address"
            }
          ],
          "name": "userIncrements",
          "outputs": [
            {
              "internalType": "uint256",
              "name": "",
              "type": "uint256"
            }
          ],
          "stateMutability": "view",
          "type": "function"
        },
        {
          "inputs": [
            {
              "internalType": "address",
              "name": "",
              "type": "address"
            }
          ],
          "name": "userTotalInteractions",
          "outputs": [
            {
              "internalType": "uint256",
              "name": "",
              "type": "uint256"
            }
          ],
          "stateMutability": "view",
          "type": "function"
        }
      ],
      "evm": {
        "bytecode": {
          "linkReferences": {},
          "object": "6080604052348015600f57600080fd5b50600180546001600160a01b031916331790556000808055600255611bd8806100396000396000f3fe608060405234801561001057600080fd5b506004361061012c5760003560e01c8063a7a38f0b116100ad578063d53d500711610071578063d53d500714610299578063d826f88f146102b9578063dfe6b5d6146102c1578063efd79930146102f2578063f2fde38b1461030957600080fd5b8063a7a38f0b1461023c578063a843651e14610260578063a87d942c14610269578063b895c26014610271578063d09de08a1461029157600080fd5b80634e43603a116100f45780634e43603a146101a15780635478f468146101d457806362f02ac2146101dc5780638b8e41dd146101f15780638da5cb5b1461021157600080fd5b806303df179c1461013157806306661abd146101465780631a85adbb146101625780632baeceb7146101865780633721b1d81461018e575b600080fd5b61014461013f3660046116a1565b61031c565b005b61014f60005481565b6040519081526020015b60405180910390f35b6101756101703660046116a1565b610569565b604051610159959493929190611798565b6101446108f1565b61014461019c3660046116a1565b610adf565b6101b46101af366004611838565b610d14565b604080519485526020850193909352918301526060820152608001610159565b60035461014f565b6101e4610d56565b6040516101599190611868565b61014f6101ff366004611838565b60046020526000908152604090205481565b600154610224906001600160a01b031681565b6040516001600160a01b039091168152602001610159565b61024f61024a3660046116a1565b610dd1565b60405161015995949392919061187b565b61014f60025481565b60005461014f565b61014f61027f366004611838565b60056020526000908152604090205481565b610144610ea9565b61014f6102a7366004611838565b60066020526000908152604090205481565b610144611085565b6102c9611230565b604080519485526020850193909352918301526001600160a01b03166060820152608001610159565b6102fa611269565b604051610159939291906118ba565b610144610317366004611838565b6113f0565b600081116103715760405162461bcd60e51b815260206004820152601d60248201527f416d6f756e74206d7573742062652067726561746572207468616e203000000060448201526064015b60405180910390fd5b60648111156103c25760405162461bcd60e51b815260206004820152601a60248201527f416d6f756e7420746f6f206c6172676520286d617820313030290000000000006044820152606401610368565b60008054908290806103d48385611904565b9091555050600280549060006103e98361192c565b9091555050336000908152600460205260408120805484929061040d908490611945565b909155505033600090815260066020526040812080549161042d8361192c565b919050555060036040518060a00160405280336001600160a01b0316815260200183815260200160005481526020018460405160200161048991906c696e6372656d656e745f62795f60981b8152600d810191909152602d0190565b60408051808303601f1901815291815290825242602092830152835460018082018655600095865294839020845160059092020180546001600160a01b0319166001600160a01b0390921691909117815591830151938201939093559181015160028301556060810151909190600382019061050590826119fd565b5060809190910151600490910155600054604080518381526020810192909252429082015233907f8ea313b89c9b92392d3eeeff9cabfa264692d1b9a1ab6726a02650e623808549906060015b60405180910390a2610565600054611492565b5050565b600354606090819081908190819086818111156105835750805b8067ffffffffffffffff81111561059c5761059c61195e565b6040519080825280602002602001820160405280156105c5578160200160208202803683370190505b5096508067ffffffffffffffff8111156105e1576105e161195e565b60405190808252806020026020018201604052801561060a578160200160208202803683370190505b5095508067ffffffffffffffff8111156106265761062661195e565b60405190808252806020026020018201604052801561064f578160200160208202803683370190505b5094508067ffffffffffffffff81111561066b5761066b61195e565b60405190808252806020026020018201604052801561069e57816020015b60608152602001906001900390816106895790505b5093508067ffffffffffffffff8111156106ba576106ba61195e565b6040519080825280602002602001820160405280156106e3578160200160208202803683370190505b50925060005b818110156108e5576000816106ff600186611abc565b6107099190611abc565b905060006003828154811061072057610720611acf565b90600052602060002090600502016040518060a00160405290816000820160009054906101000a90046001600160a01b03166001600160a01b03166001600160a01b03168152602001600182015481526020016002820154815260200160038201805461078c90611974565b80601f01602080910402602001604051908101604052809291908181526020018280546107b890611974565b80156108055780601f106107da57610100808354040283529160200191610805565b820191906000526020600020905b8154815290600101906020018083116107e857829003601f168201915b50505050508152602001600482015481525050905080600001518a848151811061083157610831611acf565b60200260200101906001600160a01b031690816001600160a01b031681525050806020015189848151811061086857610868611acf565b602002602001018181525050806040015188848151811061088b5761088b611acf565b60200260200101818152505080606001518784815181106108ae576108ae611acf565b602002602001018190525080608001518684815181106108d0576108d0611acf565b602090810291909101015250506001016106e9565b50505091939590929450565b600080549081908061090283611ae5565b9091555050600280549060006109178361192c565b90915550503360009081526005602052604081208054916109378361192c565b90915550503360009081526006602052604081208054916109578361192c565b90915550506040805160a08101825233815260208082018481526000805484860190815285518087019096526009865268191958dc995b595b9d60ba1b938601939093526060840194855242608085015260038054600181018255915283517fc2575a0e9e593c00f959f8c92f12db2869c3395a3b0502d05e2516446f71f85b600590920291820180546001600160a01b0319166001600160a01b0390921691909117815591517fc2575a0e9e593c00f959f8c92f12db2869c3395a3b0502d05e2516446f71f85c82015591517fc2575a0e9e593c00f959f8c92f12db2869c3395a3b0502d05e2516446f71f85d83015592519192917fc2575a0e9e593c00f959f8c92f12db2869c3395a3b0502d05e2516446f71f85e90910190610a7c90826119fd565b5060809190910151600490910155600054604080518381526020810192909252429082015233907f3820966baea75319a12e777644e711e3a75f7dde56ab4a410c32689d0c1686ea906060015b60405180910390a2610adc600054611492565b50565b60008111610b2f5760405162461bcd60e51b815260206004820152601d60248201527f416d6f756e74206d7573742062652067726561746572207468616e20300000006044820152606401610368565b6064811115610b805760405162461bcd60e51b815260206004820152601a60248201527f416d6f756e7420746f6f206c6172676520286d617820313030290000000000006044820152606401610368565b6000805490829080610b928385611b02565b909155505060028054906000610ba78361192c565b90915550503360009081526005602052604081208054849290610bcb908490611945565b9091555050336000908152600660205260408120805491610beb8361192c565b919050555060036040518060a00160405280336001600160a01b03168152602001838152602001600054815260200184604051602001610c4791906c64656372656d656e745f62795f60981b8152600d810191909152602d0190565b60408051808303601f1901815291815290825242602092830152835460018082018655600095865294839020845160059092020180546001600160a01b0319166001600160a01b03909216919091178155918301519382019390935591810151600283015560608101519091906003820190610cc390826119fd565b5060809190910151600490910155600054604080518381526020810192909252429082015233907f3820966baea75319a12e777644e711e3a75f7dde56ab4a410c32689d0c1686ea90606001610552565b6001600160a01b03811660009081526004602090815260408083205460058352818420546006909352908320549092610d4d8385611b02565b90509193509193565b6060600080541315610d855750604080518082019091526008815267706f73697469766560c01b602082015290565b600080541215610db257506040805180820190915260088152676e6567617469766560c01b602082015290565b506040805180820190915260048152637a65726f60e01b602082015290565b60038181548110610de157600080fd5b600091825260209091206005909102018054600182015460028301546003840180546001600160a01b03909416955091939092909190610e2090611974565b80601f0160208091040260200160405190810160405280929190818152602001828054610e4c90611974565b8015610e995780601f10610e6e57610100808354040283529160200191610e99565b820191906000526020600020905b815481529060010190602001808311610e7c57829003601f168201915b5050505050908060040154905085565b6000805490819080610eba83611b29565b909155505060028054906000610ecf8361192c565b9091555050336000908152600460205260408120805491610eef8361192c565b9091555050336000908152600660205260408120805491610f0f8361192c565b90915550506040805160a081018252338152602080820184815260008054848601908152855180870190965260098652681a5b98dc995b595b9d60ba1b938601939093526060840194855242608085015260038054600181018255915283517fc2575a0e9e593c00f959f8c92f12db2869c3395a3b0502d05e2516446f71f85b600590920291820180546001600160a01b0319166001600160a01b0390921691909117815591517fc2575a0e9e593c00f959f8c92f12db2869c3395a3b0502d05e2516446f71f85c82015591517fc2575a0e9e593c00f959f8c92f12db2869c3395a3b0502d05e2516446f71f85d83015592519192917fc2575a0e9e593c00f959f8c92f12db2869c3395a3b0502d05e2516446f71f85e9091019061103490826119fd565b5060809190910151600490910155600054604080518381526020810192909252429082015233907f8ea313b89c9b92392d3eeeff9cabfa264692d1b9a1ab6726a02650e62380854990606001610ac9565b6001546001600160a01b031633146110af5760405162461bcd60e51b815260040161036890611b41565b600080548180556002805491926110c58361192c565b90915550506040805160a0810182523381526020808201848152600083850181815285518087019096526005808752641c995cd95d60da1b948701949094526060850195865242608086015260038054600181018255925284517fc2575a0e9e593c00f959f8c92f12db2869c3395a3b0502d05e2516446f71f85b9290940291820180546001600160a01b0319166001600160a01b0390951694909417845591517fc2575a0e9e593c00f959f8c92f12db2869c3395a3b0502d05e2516446f71f85c82015590517fc2575a0e9e593c00f959f8c92f12db2869c3395a3b0502d05e2516446f71f85d8201559251919290917fc2575a0e9e593c00f959f8c92f12db2869c3395a3b0502d05e2516446f71f85e909101906111e590826119fd565b50608091909101516004909101556040805182815242602082015233917fe33484f384dc157869f6b1ff8a46b09c6a24b622cb57ac5659055a65b6e1943c910160405180910390a250565b6000805460025460035491929091819061124b57600061124f565b6003545b6001549495939490936001600160a01b0390911692509050565b60006060600080600380549050116112b95760405162461bcd60e51b8152602060048201526013602482015272139bc818da185b99d95cc81b585919481e595d606a1b6044820152606401610368565b60038054600091906112cd90600190611abc565b815481106112dd576112dd611acf565b90600052602060002090600502016040518060a00160405290816000820160009054906101000a90046001600160a01b03166001600160a01b03166001600160a01b03168152602001600182015481526020016002820154815260200160038201805461134990611974565b80601f016020809104026020016040519081016040528092919081815260200182805461137590611974565b80156113c25780601f10611397576101008083540402835291602001916113c2565b820191906000526020600020905b8154815290600101906020018083116113a557829003601f168201915b5050509183525050600491909101546020909101528051606082015160809092015190969195509350915050565b6001546001600160a01b0316331461141a5760405162461bcd60e51b815260040161036890611b41565b6001600160a01b0381166114705760405162461bcd60e51b815260206004820181905260248201527f4e6577206f776e65722063616e6e6f74206265207a65726f20616464726573736044820152606401610368565b600180546001600160a01b0319166001600160a01b0392909216919091179055565b80600a036114ee57600080516020611b8383398151915281426040516114e39291909182526060602083018190526009908301526846697273742031302160b81b6080830152604082015260a00190565b60405180910390a150565b8060640361153e57600080516020611b8383398151915281426040516114e39291909182526060602083018190526008908301526743656e747572792160c01b6080830152604082015260a00190565b806103e80361159057600080516020611b8383398151915281426040516114e39291909182526060602083018190526009908301526854686f7573616e642160b81b6080830152604082015260a00190565b80600919036115e557600080516020611b8383398151915281426040516114e3929190918252606060208301819052600c908301526b4e656761746976652031302160a01b6080830152604082015260a00190565b806063190361163f57600080516020611b8383398151915281426040516114e3929190918252606060208301819052601190830152704e656761746976652043656e747572792160781b6080830152604082015260a00190565b8015801561164f57506003546001105b15610adc57600080516020611b8383398151915281426040516114e3929190918252606060208301819052600d908301526c4261636b20746f205a65726f2160981b6080830152604082015260a00190565b6000602082840312156116b357600080fd5b5035919050565b600081518084526020840193506020830160005b828110156116ec5781518652602095860195909101906001016116ce565b5093949350505050565b6000815180845260005b8181101561171c57602081850181015186830182015201611700565b506000602082860101526020601f19601f83011685010191505092915050565b600082825180855260208501945060208160051b8301016020850160005b8381101561178c57601f198584030188526117768383516116f6565b602098890198909350919091019060010161175a565b50909695505050505050565b60a08082528651908201819052600090602088019060c0840190835b818110156117db5783516001600160a01b03168352602093840193909201916001016117b4565b505083810360208501526117ef81896116ba565b915050828103604084015261180481876116ba565b90508281036060840152611818818661173c565b9050828103608084015261182c81856116ba565b98975050505050505050565b60006020828403121561184a57600080fd5b81356001600160a01b038116811461186157600080fd5b9392505050565b60208152600061186160208301846116f6565b60018060a01b038616815284602082015283604082015260a0606082015260006118a860a08301856116f6565b90508260808301529695505050505050565b6001600160a01b03841681526060602082018190526000906118de908301856116f6565b9050826040830152949350505050565b634e487b7160e01b600052601160045260246000fd5b8082018281126000831280158216821582161715611924576119246118ee565b505092915050565b60006001820161193e5761193e6118ee565b5060010190565b80820180821115611958576119586118ee565b92915050565b634e487b7160e01b600052604160045260246000fd5b600181811c9082168061198857607f821691505b6020821081036119a857634e487b7160e01b600052602260045260246000fd5b50919050565b601f8211156119f857806000526020600020601f840160051c810160208510156119d55750805b601f840160051c820191505b818110156119f557600081556001016119e1565b50505b505050565b815167ffffffffffffffff811115611a1757611a1761195e565b611a2b81611a258454611974565b846119ae565b6020601f821160018114611a5f5760008315611a475750848201515b600019600385901b1c1916600184901b1784556119f5565b600084815260208120601f198516915b82811015611a8f5787850151825560209485019460019092019101611a6f565b5084821015611aad5786840151600019600387901b60f8161c191681555b50505050600190811b01905550565b81810381811115611958576119586118ee565b634e487b7160e01b600052603260045260246000fd5b6000600160ff1b8201611afa57611afa6118ee565b506000190190565b8181036000831280158383131683831282161715611b2257611b226118ee565b5092915050565b60006001600160ff1b01820161193e5761193e6118ee565b60208082526021908201527f4f6e6c79206f776e65722063616e2063616c6c20746869732066756e6374696f6040820152603760f91b60608201526080019056fe36241cd26bb8a74762dcdd8e58f5d383e100d793584047ec7b770dc5408ba948a2646970667358221220f6b78acb536e69325fc0c3e81993a8498bee8899b50890e30e3b5cebb1543e9b64736f6c634300081c0033",
          "opcodes": "PUSH1 0x80 PUSH1 0x40 MSTORE CALLVALUE DUP1 ISZERO PUSH1 0xF JUMPI PUSH1 0x0 DUP1 REVERT JUMPDEST POP PUSH1 0x1 DUP1 SLOAD PUSH1 0x1 PUSH1 0x1 PUSH1 0xA0 SHL SUB NOT AND CALLER OR SWAP1 SSTORE PUSH1 0x0 DUP1 DUP1 SSTORE PUSH1 0x2 SSTORE PUSH2 0x1BD8 DUP1 PUSH2 0x39 PUSH1 0x0 CODECOPY PUSH1 0x0 RETURN INVALID PUSH1 0x80 PUSH1 0x40 MSTORE CALLVALUE DUP1 ISZERO PUSH2 0x10 JUMPI PUSH1 0x0 DUP1 REVERT JUMPDEST POP PUSH1 0x4 CALLDATASIZE LT PUSH2 0x12C JUMPI PUSH1 0x0 CALLDATALOAD PUSH1 0xE0 SHR DUP1 PUSH4 0xA7A38F0B GT PUSH2 0xAD JUMPI DUP1 PUSH4 0xD53D5007 GT PUSH2 0x71 JUMPI DUP1 PUSH4 0xD53D5007 EQ PUSH2 0x299 JUMPI DUP1 PUSH4 0xD826F88F EQ PUSH2 0x2B9 JUMPI DUP1 PUSH4 0xDFE6B5D6 EQ PUSH2 0x2C1 JUMPI DUP1 PUSH4 0xEFD79930 EQ PUSH2 0x2F2 JUMPI DUP1 PUSH4 0xF2FDE38B EQ PUSH2 0x309 JUMPI PUSH1 0x0 DUP1 REVERT JUMPDEST DUP1 PUSH4 0xA7A38F0B EQ PUSH2 0x23C JUMPI DUP1 PUSH4 0xA843651E EQ PUSH2 0x260 JUMPI DUP1 PUSH4 0xA87D942C EQ PUSH2 0x269 JUMPI DUP1 PUSH4 0xB895C260 EQ PUSH2 0x271 JUMPI DUP1 PUSH4 0xD09DE08A EQ PUSH2 0x291 JUMPI PUSH1 0x0 DUP1 REVERT JUMPDEST DUP1 PUSH4 0x4E43603A GT PUSH2 0xF4 JUMPI DUP1 PUSH4 0x4E43603A EQ PUSH2 0x1A1 JUMPI DUP1 PUSH4 0x5478F468 EQ PUSH2 0x1D4 JUMPI DUP1 PUSH4 0x62F02AC2 EQ PUSH2 0x1DC JUMPI DUP1 PUSH4 0x8B8E41DD EQ PUSH2 0x1F1 JUMPI DUP1 PUSH4 0x8DA5CB5B EQ PUSH2 0x211 JUMPI PUSH1 0x0 DUP1 REVERT JUMPDEST DUP1 PUSH4 0x3DF179C EQ PUSH2 0x131 JUMPI DUP1 PUSH4 0x6661ABD EQ PUSH2 0x146 JUMPI DUP1 PUSH4 0x1A85ADBB EQ PUSH2 0x162 JUMPI DUP1 PUSH4 0x2BAECEB7 EQ PUSH2 0x186 JUMPI DUP1 PUSH4 0x3721B1D8 EQ PUSH2 0x18E JUMPI JUMPDEST PUSH1 0x0 DUP1 REVERT JUMPDEST PUSH2 0x144 PUSH2 0x13F CALLDATASIZE PUSH1 0x4 PUSH2 0x16A1 JUMP JUMPDEST PUSH2 0x31C JUMP JUMPDEST STOP JUMPDEST PUSH2 0x14F PUSH1 0x0 SLOAD DUP2 JUMP JUMPDEST PUSH1 0x40 MLOAD SWAP1 DUP2 MSTORE PUSH1 0x20 ADD JUMPDEST PUSH1 0x40 MLOAD DUP1 SWAP2 SUB SWAP1 RETURN JUMPDEST PUSH2 0x175 PUSH2 0x170 CALLDATASIZE PUSH1 0x4 PUSH2 0x16A1 JUMP JUMPDEST PUSH2 0x569 JUMP JUMPDEST PUSH1 0x40 MLOAD PUSH2 0x159 SWAP6 SWAP5 SWAP4 SWAP3 SWAP2 SWAP1 PUSH2 0x1798 JUMP JUMPDEST PUSH2 0x144 PUSH2 0x8F1 JUMP JUMPDEST PUSH2 0x144 PUSH2 0x19C CALLDATASIZE PUSH1 0x4 PUSH2 0x16A1 JUMP JUMPDEST PUSH2 0xADF JUMP JUMPDEST PUSH2 0x1B4 PUSH2 0x1AF CALLDATASIZE PUSH1 0x4 PUSH2 0x1838 JUMP JUMPDEST PUSH2 0xD14 JUMP JUMPDEST PUSH1 0x40 DUP1 MLOAD SWAP5 DUP6 MSTORE PUSH1 0x20 DUP6 ADD SWAP4 SWAP1 SWAP4 MSTORE SWAP2 DUP4 ADD MSTORE PUSH1 0x60 DUP3 ADD MSTORE PUSH1 0x80 ADD PUSH2 0x159 JUMP JUMPDEST PUSH1 0x3 SLOAD PUSH2 0x14F JUMP JUMPDEST PUSH2 0x1E4 PUSH2 0xD56 JUMP JUMPDEST PUSH1 0x40 MLOAD PUSH2 0x159 SWAP2 SWAP1 PUSH2 0x1868 JUMP JUMPDEST PUSH2 0x14F PUSH2 0x1FF CALLDATASIZE PUSH1 0x4 PUSH2 0x1838 JUMP JUMPDEST PUSH1 0x4 PUSH1 0x20 MSTORE PUSH1 0x0 SWAP1 DUP2 MSTORE PUSH1 0x40 SWAP1 KECCAK256 SLOAD DUP2 JUMP JUMPDEST PUSH1 0x1 SLOAD PUSH2 0x224 SWAP1 PUSH1 0x1 PUSH1 0x1 PUSH1 0xA0 SHL SUB AND DUP2 JUMP JUMPDEST PUSH1 0x40 MLOAD PUSH1 0x1 PUSH1 0x1 PUSH1 0xA0 SHL SUB SWAP1 SWAP2 AND DUP2 MSTORE PUSH1 0x20 ADD PUSH2 0x159 JUMP JUMPDEST PUSH2 0x24F PUSH2 0x24A CALLDATASIZE PUSH1 0x4 PUSH2 0x16A1 JUMP JUMPDEST PUSH2 0xDD1 JUMP JUMPDEST PUSH1 0x40 MLOAD PUSH2 0x159 SWAP6 SWAP5 SWAP4 SWAP3 SWAP2 SWAP1 PUSH2 0x187B JUMP JUMPDEST PUSH2 0x14F PUSH1 0x2 SLOAD DUP2 JUMP JUMPDEST PUSH1 0x0 SLOAD PUSH2 0x14F JUMP JUMPDEST PUSH2 0x14F PUSH2 0x27F CALLDATASIZE PUSH1 0x4 PUSH2 0x1838 JUMP JUMPDEST PUSH1 0x5 PUSH1 0x20 MSTORE PUSH1 0x0 SWAP1 DUP2 MSTORE PUSH1 0x40 SWAP1 KECCAK256 SLOAD DUP2 JUMP JUMPDEST PUSH2 0x144 PUSH2 0xEA9 JUMP JUMPDEST PUSH2 0x14F PUSH2 0x2A7 CALLDATASIZE PUSH1 0x4 PUSH2 0x1838 JUMP JUMPDEST PUSH1 0x6 PUSH1 0x20 MSTORE PUSH1 0x0 SWAP1 DUP2 MSTORE PUSH1 0x40 SWAP1 KECCAK256 SLOAD DUP2 JUMP JUMPDEST PUSH2 0x144 PUSH2 0x1085 JUMP JUMPDEST PUSH2 0x2C9 PUSH2 0x1230 JUMP JUMPDEST PUSH1 0x40 DUP1 MLOAD SWAP5 DUP6 MSTORE PUSH1 0x20 DUP6 ADD SWAP4 SWAP1 SWAP4 MSTORE SWAP2 DUP4 ADD MSTORE PUSH1 0x1 PUSH1 0x1 PUSH1 0xA0 SHL SUB AND PUSH1 0x60 DUP3 ADD MSTORE PUSH1 0x80 ADD PUSH2 0x159 JUMP JUMPDEST PUSH2 0x2FA PUSH2 0x1269 JUMP JUMPDEST PUSH1 0x40 MLOAD PUSH2 0x159 SWAP4 SWAP3 SWAP2 SWAP1 PUSH2 0x18BA JUMP JUMPDEST PUSH2 0x144 PUSH2 0x317 CALLDATASIZE PUSH1 0x4 PUSH2 0x1838 JUMP JUMPDEST PUSH2 0x13F0 JUMP JUMPDEST PUSH1 0x0 DUP2 GT PUSH2 0x371 JUMPI PUSH1 0x40 MLOAD PUSH3 0x461BCD PUSH1 0xE5 SHL DUP2 MSTORE PUSH1 0x20 PUSH1 0x4 DUP3 ADD MSTORE PUSH1 0x1D PUSH1 0x24 DUP3 ADD MSTORE PUSH32 0x416D6F756E74206D7573742062652067726561746572207468616E2030000000 PUSH1 0x44 DUP3 ADD MSTORE PUSH1 0x64 ADD JUMPDEST PUSH1 0x40 MLOAD DUP1 SWAP2 SUB SWAP1 REVERT JUMPDEST PUSH1 0x64 DUP2 GT ISZERO PUSH2 0x3C2 JUMPI PUSH1 0x40 MLOAD PUSH3 0x461BCD PUSH1 0xE5 SHL DUP2 MSTORE PUSH1 0x20 PUSH1 0x4 DUP3 ADD MSTORE PUSH1 0x1A PUSH1 0x24 DUP3 ADD MSTORE PUSH32 0x416D6F756E7420746F6F206C6172676520286D61782031303029000000000000 PUSH1 0x44 DUP3 ADD MSTORE PUSH1 0x64 ADD PUSH2 0x368 JUMP JUMPDEST PUSH1 0x0 DUP1 SLOAD SWAP1 DUP3 SWAP1 DUP1 PUSH2 0x3D4 DUP4 DUP6 PUSH2 0x1904 JUMP JUMPDEST SWAP1 SWAP2 SSTORE POP POP PUSH1 0x2 DUP1 SLOAD SWAP1 PUSH1 0x0 PUSH2 0x3E9 DUP4 PUSH2 0x192C JUMP JUMPDEST SWAP1 SWAP2 SSTORE POP POP CALLER PUSH1 0x0 SWAP1 DUP2 MSTORE PUSH1 0x4 PUSH1 0x20 MSTORE PUSH1 0x40 DUP2 KECCAK256 DUP1 SLOAD DUP5 SWAP3 SWAP1 PUSH2 0x40D SWAP1 DUP5 SWAP1 PUSH2 0x1945 JUMP JUMPDEST SWAP1 SWAP2 SSTORE POP POP CALLER PUSH1 0x0 SWAP1 DUP2 MSTORE PUSH1 0x6 PUSH1 0x20 MSTORE PUSH1 0x40 DUP2 KECCAK256 DUP1 SLOAD SWAP2 PUSH2 0x42D DUP4 PUSH2 0x192C JUMP JUMPDEST SWAP2 SWAP1 POP SSTORE POP PUSH1 0x3 PUSH1 0x40 MLOAD DUP1 PUSH1 0xA0 ADD PUSH1 0x40 MSTORE DUP1 CALLER PUSH1 0x1 PUSH1 0x1 PUSH1 0xA0 SHL SUB AND DUP2 MSTORE PUSH1 0x20 ADD DUP4 DUP2 MSTORE PUSH1 0x20 ADD PUSH1 0x0 SLOAD DUP2 MSTORE PUSH1 0x20 ADD DUP5 PUSH1 0x40 MLOAD PUSH1 0x20 ADD PUSH2 0x489 SWAP2 SWAP1 PUSH13 0x696E6372656D656E745F62795F PUSH1 0x98 SHL DUP2 MSTORE PUSH1 0xD DUP2 ADD SWAP2 SWAP1 SWAP2 MSTORE PUSH1 0x2D ADD SWAP1 JUMP JUMPDEST PUSH1 0x40 DUP1 MLOAD DUP1 DUP4 SUB PUSH1 0x1F NOT ADD DUP2 MSTORE SWAP2 DUP2 MSTORE SWAP1 DUP3 MSTORE TIMESTAMP PUSH1 0x20 SWAP3 DUP4 ADD MSTORE DUP4 SLOAD PUSH1 0x1 DUP1 DUP3 ADD DUP7 SSTORE PUSH1 0x0 SWAP6 DUP7 MSTORE SWAP5 DUP4 SWAP1 KECCAK256 DUP5 MLOAD PUSH1 0x5 SWAP1 SWAP3 MUL ADD DUP1 SLOAD PUSH1 0x1 PUSH1 0x1 PUSH1 0xA0 SHL SUB NOT AND PUSH1 0x1 PUSH1 0x1 PUSH1 0xA0 SHL SUB SWAP1 SWAP3 AND SWAP2 SWAP1 SWAP2 OR DUP2 SSTORE SWAP2 DUP4 ADD MLOAD SWAP4 DUP3 ADD SWAP4 SWAP1 SWAP4 SSTORE SWAP2 DUP2 ADD MLOAD PUSH1 0x2 DUP4 ADD SSTORE PUSH1 0x60 DUP2 ADD MLOAD SWAP1 SWAP2 SWAP1 PUSH1 0x3 DUP3 ADD SWAP1 PUSH2 0x505 SWAP1 DUP3 PUSH2 0x19FD JUMP JUMPDEST POP PUSH1 0x80 SWAP2 SWAP1 SWAP2 ADD MLOAD PUSH1 0x4 SWAP1 SWAP2 ADD SSTORE PUSH1 0x0 SLOAD PUSH1 0x40 DUP1 MLOAD DUP4 DUP2 MSTORE PUSH1 0x20 DUP2 ADD SWAP3 SWAP1 SWAP3 MSTORE TIMESTAMP SWAP1 DUP3 ADD MSTORE CALLER SWAP1 PUSH32 0x8EA313B89C9B92392D3EEEFF9CABFA264692D1B9A1AB6726A02650E623808549 SWAP1 PUSH1 0x60 ADD JUMPDEST PUSH1 0x40 MLOAD DUP1 SWAP2 SUB SWAP1 LOG2 PUSH2 0x565 PUSH1 0x0 SLOAD PUSH2 0x1492 JUMP JUMPDEST POP POP JUMP JUMPDEST PUSH1 0x3 SLOAD PUSH1 0x60 SWAP1 DUP2 SWAP1 DUP2 SWAP1 DUP2 SWAP1 DUP2 SWAP1 DUP7 DUP2 DUP2 GT ISZERO PUSH2 0x583 JUMPI POP DUP1 JUMPDEST DUP1 PUSH8 0xFFFFFFFFFFFFFFFF DUP2 GT ISZERO PUSH2 0x59C JUMPI PUSH2 0x59C PUSH2 0x195E JUMP JUMPDEST PUSH1 0x40 MLOAD SWAP1 DUP1 DUP3 MSTORE DUP1 PUSH1 0x20 MUL PUSH1 0x20 ADD DUP3 ADD PUSH1 0x40 MSTORE DUP1 ISZERO PUSH2 0x5C5 JUMPI DUP2 PUSH1 0x20 ADD PUSH1 0x20 DUP3 MUL DUP1 CALLDATASIZE DUP4 CALLDATACOPY ADD SWAP1 POP JUMPDEST POP SWAP7 POP DUP1 PUSH8 0xFFFFFFFFFFFFFFFF DUP2 GT ISZERO PUSH2 0x5E1 JUMPI PUSH2 0x5E1 PUSH2 0x195E JUMP JUMPDEST PUSH1 0x40 MLOAD SWAP1 DUP1 DUP3 MSTORE DUP1 PUSH1 0x20 MUL PUSH1 0x20 ADD DUP3 ADD PUSH1 0x40 MSTORE DUP1 ISZERO PUSH2 0x60A JUMPI DUP2 PUSH1 0x20 ADD PUSH1 0x20 DUP3 MUL DUP1 CALLDATASIZE DUP4 CALLDATACOPY ADD SWAP1 POP JUMPDEST POP SWAP6 POP DUP1 PUSH8 0xFFFFFFFFFFFFFFFF DUP2 GT ISZERO PUSH2 0x626 JUMPI PUSH2 0x626 PUSH2 0x195E JUMP JUMPDEST PUSH1 0x40 MLOAD SWAP1 DUP1 DUP3 MSTORE DUP1 PUSH1 0x20 MUL PUSH1 0x20 ADD DUP3 ADD PUSH1 0x40 MSTORE DUP1 ISZERO PUSH2 0x64F JUMPI DUP2 PUSH1 0x20 ADD PUSH1 0x20 DUP3 MUL DUP1 CALLDATASIZE DUP4 CALLDATACOPY ADD SWAP1 POP JUMPDEST POP SWAP5 POP DUP1 PUSH8 0xFFFFFFFFFFFFFFFF DUP2 GT ISZERO PUSH2 0x66B JUMPI PUSH2 0x66B PUSH2 0x195E JUMP JUMPDEST PUSH1 0x40 MLOAD SWAP1 DUP1 DUP3 MSTORE DUP1 PUSH1 0x20 MUL PUSH1 0x20 ADD DUP3 ADD PUSH1 0x40 MSTORE DUP1 ISZERO PUSH2 0x69E JUMPI DUP2 PUSH1 0x20 ADD JUMPDEST PUSH1 0x60 DUP2 MSTORE PUSH1 0x20 ADD SWAP1 PUSH1 0x1 SWAP1 SUB SWAP1 DUP2 PUSH2 0x689 JUMPI SWAP1 POP JUMPDEST POP SWAP4 POP DUP1 PUSH8 0xFFFFFFFFFFFFFFFF DUP2 GT ISZERO PUSH2 0x6BA JUMPI PUSH2 0x6BA PUSH2 0x195E JUMP JUMPDEST PUSH1 0x40 MLOAD SWAP1 DUP1 DUP3 MSTORE DUP1 PUSH1 0x20 MUL PUSH1 0x20 ADD DUP3 ADD PUSH1 0x40 MSTORE DUP1 ISZERO PUSH2 0x6E3 JUMPI DUP2 PUSH1 0x20 ADD PUSH1 0x20 DUP3 MUL DUP1 CALLDATASIZE DUP4 CALLDATACOPY ADD SWAP1 POP JUMPDEST POP SWAP3 POP PUSH1 0x0 JUMPDEST DUP2 DUP2 LT ISZERO PUSH2 0x8E5 JUMPI PUSH1 0x0 DUP2 PUSH2 0x6FF PUSH1 0x1 DUP7 PUSH2 0x1ABC JUMP JUMPDEST PUSH2 0x709 SWAP2 SWAP1 PUSH2 0x1ABC JUMP JUMPDEST SWAP1 POP PUSH1 0x0 PUSH1 0x3 DUP3 DUP2 SLOAD DUP2 LT PUSH2 0x720 JUMPI PUSH2 0x720 PUSH2 0x1ACF JUMP JUMPDEST SWAP1 PUSH1 0x0 MSTORE PUSH1 0x20 PUSH1 0x0 KECCAK256 SWAP1 PUSH1 0x5 MUL ADD PUSH1 0x40 MLOAD DUP1 PUSH1 0xA0 ADD PUSH1 0x40 MSTORE SWAP1 DUP2 PUSH1 0x0 DUP3 ADD PUSH1 0x0 SWAP1 SLOAD SWAP1 PUSH2 0x100 EXP SWAP1 DIV PUSH1 0x1 PUSH1 0x1 PUSH1 0xA0 SHL SUB AND PUSH1 0x1 PUSH1 0x1 PUSH1 0xA0 SHL SUB AND PUSH1 0x1 PUSH1 0x1 PUSH1 0xA0 SHL SUB AND DUP2 MSTORE PUSH1 0x20 ADD PUSH1 0x1 DUP3 ADD SLOAD DUP2 MSTORE PUSH1 0x20 ADD PUSH1 0x2 DUP3 ADD SLOAD DUP2 MSTORE PUSH1 0x20 ADD PUSH1 0x3 DUP3 ADD DUP1 SLOAD PUSH2 0x78C SWAP1 PUSH2 0x1974 JUMP JUMPDEST DUP1 PUSH1 0x1F ADD PUSH1 0x20 DUP1 SWAP2 DIV MUL PUSH1 0x20 ADD PUSH1 0x40 MLOAD SWAP1 DUP2 ADD PUSH1 0x40 MSTORE DUP1 SWAP3 SWAP2 SWAP1 DUP2 DUP2 MSTORE PUSH1 0x20 ADD DUP3 DUP1 SLOAD PUSH2 0x7B8 SWAP1 PUSH2 0x1974 JUMP JUMPDEST DUP1 ISZERO PUSH2 0x805 JUMPI DUP1 PUSH1 0x1F LT PUSH2 0x7DA JUMPI PUSH2 0x100 DUP1 DUP4 SLOAD DIV MUL DUP4 MSTORE SWAP2 PUSH1 0x20 ADD SWAP2 PUSH2 0x805 JUMP JUMPDEST DUP3 ADD SWAP2 SWAP1 PUSH1 0x0 MSTORE PUSH1 0x20 PUSH1 0x0 KECCAK256 SWAP1 JUMPDEST DUP2 SLOAD DUP2 MSTORE SWAP1 PUSH1 0x1 ADD SWAP1 PUSH1 0x20 ADD DUP1 DUP4 GT PUSH2 0x7E8 JUMPI DUP3 SWAP1 SUB PUSH1 0x1F AND DUP3 ADD SWAP2 JUMPDEST POP POP POP POP POP DUP2 MSTORE PUSH1 0x20 ADD PUSH1 0x4 DUP3 ADD SLOAD DUP2 MSTORE POP POP SWAP1 POP DUP1 PUSH1 0x0 ADD MLOAD DUP11 DUP5 DUP2 MLOAD DUP2 LT PUSH2 0x831 JUMPI PUSH2 0x831 PUSH2 0x1ACF JUMP JUMPDEST PUSH1 0x20 MUL PUSH1 0x20 ADD ADD SWAP1 PUSH1 0x1 PUSH1 0x1 PUSH1 0xA0 SHL SUB AND SWAP1 DUP2 PUSH1 0x1 PUSH1 0x1 PUSH1 0xA0 SHL SUB AND DUP2 MSTORE POP POP DUP1 PUSH1 0x20 ADD MLOAD DUP10 DUP5 DUP2 MLOAD DUP2 LT PUSH2 0x868 JUMPI PUSH2 0x868 PUSH2 0x1ACF JUMP JUMPDEST PUSH1 0x20 MUL PUSH1 0x20 ADD ADD DUP2 DUP2 MSTORE POP POP DUP1 PUSH1 0x40 ADD MLOAD DUP9 DUP5 DUP2 MLOAD DUP2 LT PUSH2 0x88B JUMPI PUSH2 0x88B PUSH2 0x1ACF JUMP JUMPDEST PUSH1 0x20 MUL PUSH1 0x20 ADD ADD DUP2 DUP2 MSTORE POP POP DUP1 PUSH1 0x60 ADD MLOAD DUP8 DUP5 DUP2 MLOAD DUP2 LT PUSH2 0x8AE JUMPI PUSH2 0x8AE PUSH2 0x1ACF JUMP JUMPDEST PUSH1 0x20 MUL PUSH1 0x20 ADD ADD DUP2 SWAP1 MSTORE POP DUP1 PUSH1 0x80 ADD MLOAD DUP7 DUP5 DUP2 MLOAD DUP2 LT PUSH2 0x8D0 JUMPI PUSH2 0x8D0 PUSH2 0x1ACF JUMP JUMPDEST PUSH1 0x20 SWAP1 DUP2 MUL SWAP2 SWAP1 SWAP2 ADD ADD MSTORE POP POP PUSH1 0x1 ADD PUSH2 0x6E9 JUMP JUMPDEST POP POP POP SWAP2 SWAP4 SWAP6 SWAP1 SWAP3 SWAP5 POP JUMP JUMPDEST PUSH1 0x0 DUP1 SLOAD SWAP1 DUP2 SWAP1 DUP1 PUSH2 0x902 DUP4 PUSH2 0x1AE5 JUMP JUMPDEST SWAP1 SWAP2 SSTORE POP POP PUSH1 0x2 DUP1 SLOAD SWAP1 PUSH1 0x0 PUSH2 0x917 DUP4 PUSH2 0x192C JUMP JUMPDEST SWAP1 SWAP2 SSTORE POP POP CALLER PUSH1 0x0 SWAP1 DUP2 MSTORE PUSH1 0x5 PUSH1 0x20 MSTORE PUSH1 0x40 DUP2 KECCAK256 DUP1 SLOAD SWAP2 PUSH2 0x937 DUP4 PUSH2 0x192C JUMP JUMPDEST SWAP1 SWAP2 SSTORE POP POP CALLER PUSH1 0x0 SWAP1 DUP2 MSTORE PUSH1 0x6 PUSH1 0x20 MSTORE PUSH1 0x40 DUP2 KECCAK256 DUP1 SLOAD SWAP2 PUSH2 0x957 DUP4 PUSH2 0x192C JUMP JUMPDEST SWAP1 SWAP2 SSTORE POP POP PUSH1 0x40 DUP1 MLOAD PUSH1 0xA0 DUP2 ADD DUP3 MSTORE CALLER DUP2 MSTORE PUSH1 0x20 DUP1 DUP3 ADD DUP5 DUP2 MSTORE PUSH1 0x0 DUP1 SLOAD DUP5 DUP7 ADD SWAP1 DUP2 MSTORE DUP6 MLOAD DUP1 DUP8 ADD SWAP1 SWAP7 MSTORE PUSH1 0x9 DUP7 MSTORE PUSH9 0x191958DC995B595B9D PUSH1 0xBA SHL SWAP4 DUP7 ADD SWAP4 SWAP1 SWAP4 MSTORE PUSH1 0x60 DUP5 ADD SWAP5 DUP6 MSTORE TIMESTAMP PUSH1 0x80 DUP6 ADD MSTORE PUSH1 0x3 DUP1 SLOAD PUSH1 0x1 DUP2 ADD DUP3 SSTORE SWAP2 MSTORE DUP4 MLOAD PUSH32 0xC2575A0E9E593C00F959F8C92F12DB2869C3395A3B0502D05E2516446F71F85B PUSH1 0x5 SWAP1 SWAP3 MUL SWAP2 DUP3 ADD DUP1 SLOAD PUSH1 0x1 PUSH1 0x1 PUSH1 0xA0 SHL SUB NOT AND PUSH1 0x1 PUSH1 0x1 PUSH1 0xA0 SHL SUB SWAP1 SWAP3 AND SWAP2 SWAP1 SWAP2 OR DUP2 SSTORE SWAP2 MLOAD PUSH32 0xC2575A0E9E593C00F959F8C92F12DB2869C3395A3B0502D05E2516446F71F85C DUP3 ADD SSTORE SWAP2 MLOAD PUSH32 0xC2575A0E9E593C00F959F8C92F12DB2869C3395A3B0502D05E2516446F71F85D DUP4 ADD SSTORE SWAP3 MLOAD SWAP2 SWAP3 SWAP2 PUSH32 0xC2575A0E9E593C00F959F8C92F12DB2869C3395A3B0502D05E2516446F71F85E SWAP1 SWAP2 ADD SWAP1 PUSH2 0xA7C SWAP1 DUP3 PUSH2 0x19FD JUMP JUMPDEST POP PUSH1 0x80 SWAP2 SWAP1 SWAP2 ADD MLOAD PUSH1 0x4 SWAP1 SWAP2 ADD SSTORE PUSH1 0x0 SLOAD PUSH1 0x40 DUP1 MLOAD DUP4 DUP2 MSTORE PUSH1 0x20 DUP2 ADD SWAP3 SWAP1 SWAP3 MSTORE TIMESTAMP SWAP1 DUP3 ADD MSTORE CALLER SWAP1 PUSH32 0x3820966BAEA75319A12E777644E711E3A75F7DDE56AB4A410C32689D0C1686EA SWAP1 PUSH1 0x60 ADD JUMPDEST PUSH1 0x40 MLOAD DUP1 SWAP2 SUB SWAP1 LOG2 PUSH2 0xADC PUSH1 0x0 SLOAD PUSH2 0x1492 JUMP JUMPDEST POP JUMP JUMPDEST PUSH1 0x0 DUP2 GT PUSH2 0xB2F JUMPI PUSH1 0x40 MLOAD PUSH3 0x461BCD PUSH1 0xE5 SHL DUP2 MSTORE PUSH1 0x20 PUSH1 0x4 DUP3 ADD MSTORE PUSH1 0x1D PUSH1 0x24 DUP3 ADD MSTORE PUSH32 0x416D6F756E74206D7573742062652067726561746572207468616E2030000000 PUSH1 0x44 DUP3 ADD MSTORE PUSH1 0x64 ADD PUSH2 0x368 JUMP JUMPDEST PUSH1 0x64 DUP2 GT ISZERO PUSH2 0xB80 JUMPI PUSH1 0x40 MLOAD PUSH3 0x461BCD PUSH1 0xE5 SHL DUP2 MSTORE PUSH1 0x20 PUSH1 0x4 DUP3 ADD MSTORE PUSH1 0x1A PUSH1 0x24 DUP3 ADD MSTORE PUSH32 0x416D6F756E7420746F6F206C6172676520286D61782031303029000000000000 PUSH1 0x44 DUP3 ADD MSTORE PUSH1 0x64 ADD PUSH2 0x368 JUMP JUMPDEST PUSH1 0x0 DUP1 SLOAD SWAP1 DUP3 SWAP1 DUP1 PUSH2 0xB92 DUP4 DUP6 PUSH2 0x1B02 JUMP JUMPDEST SWAP1 SWAP2 SSTORE POP POP PUSH1 0x2 DUP1 SLOAD SWAP1 PUSH1 0x0 PUSH2 0xBA7 DUP4 PUSH2 0x192C JUMP JUMPDEST SWAP1 SWAP2 SSTORE POP POP CALLER PUSH1 0x0 SWAP1 DUP2 MSTORE PUSH1 0x5 PUSH1 0x20 MSTORE PUSH1 0x40 DUP2 KECCAK256 DUP1 SLOAD DUP5 SWAP3 SWAP1 PUSH2 0xBCB SWAP1 DUP5 SWAP1 PUSH2 0x1945 JUMP JUMPDEST SWAP1 SWAP2 SSTORE POP POP CALLER PUSH1 0x0 SWAP1 DUP2 MSTORE PUSH1 0x6 PUSH1 0x20 MSTORE PUSH1 0x40 DUP2 KECCAK256 DUP1 SLOAD SWAP2 PUSH2 0xBEB DUP4 PUSH2 0x192C JUMP JUMPDEST SWAP2 SWAP1 POP SSTORE POP PUSH1 0x3 PUSH1 0x40 MLOAD DUP1 PUSH1 0xA0 ADD PUSH1 0x40 MSTORE DUP1 CALLER PUSH1 0x1 PUSH1 0x1 PUSH1 0xA0 SHL SUB AND DUP2 MSTORE PUSH1 0x20 ADD DUP4 DUP2 MSTORE PUSH1 0x20 ADD PUSH1 0x0 SLOAD DUP2 MSTORE PUSH1 0x20 ADD DUP5 PUSH1 0x40 MLOAD PUSH1 0x20 ADD PUSH2 0xC47 SWAP2 SWAP1 PUSH13 0x64656372656D656E745F62795F PUSH1 0x98 SHL DUP2 MSTORE PUSH1 0xD DUP2 ADD SWAP2 SWAP1 SWAP2 MSTORE PUSH1 0x2D ADD SWAP1 JUMP JUMPDEST PUSH1 0x40 DUP1 MLOAD DUP1 DUP4 SUB PUSH1 0x1F NOT ADD DUP2 MSTORE SWAP2 DUP2 MSTORE SWAP1 DUP3 MSTORE TIMESTAMP PUSH1 0x20 SWAP3 DUP4 ADD MSTORE DUP4 SLOAD PUSH1 0x1 DUP1 DUP3 ADD DUP7 SSTORE PUSH1 0x0 SWAP6 DUP7 MSTORE SWAP5 DUP4 SWAP1 KECCAK256 DUP5 MLOAD PUSH1 0x5 SWAP1 SWAP3 MUL ADD DUP1 SLOAD PUSH1 0x1 PUSH1 0x1 PUSH1 0xA0 SHL SUB NOT AND PUSH1 0x1 PUSH1 0x1 PUSH1 0xA0 SHL SUB SWAP1 SWAP3 AND SWAP2 SWAP1 SWAP2 OR DUP2 SSTORE SWAP2 DUP4 ADD MLOAD SWAP4 DUP3 ADD SWAP4 SWAP1 SWAP4 SSTORE SWAP2 DUP2 ADD MLOAD PUSH1 0x2 DUP4 ADD SSTORE PUSH1 0x60 DUP2 ADD MLOAD SWAP1 SWAP2 SWAP1 PUSH1 0x3 DUP3 ADD SWAP1 PUSH2 0xCC3 SWAP1 DUP3 PUSH2 0x19FD JUMP JUMPDEST POP PUSH1 0x80 SWAP2 SWAP1 SWAP2 ADD MLOAD PUSH1 0x4 SWAP1 SWAP2 ADD SSTORE PUSH1 0x0 SLOAD PUSH1 0x40 DUP1 MLOAD DUP4 DUP2 MSTORE PUSH1 0x20 DUP2 ADD SWAP3 SWAP1 SWAP3 MSTORE TIMESTAMP SWAP1 DUP3 ADD MSTORE CALLER SWAP1 PUSH32 0x3820966BAEA75319A12E777644E711E3A75F7DDE56AB4A410C32689D0C1686EA SWAP1 PUSH1 0x60 ADD PUSH2 0x552 JUMP JUMPDEST PUSH1 0x1 PUSH1 0x1 PUSH1 0xA0 SHL SUB DUP2 AND PUSH1 0x0 SWAP1 DUP2 MSTORE PUSH1 0x4 PUSH1 0x20 SWAP1 DUP2 MSTORE PUSH1 0x40 DUP1 DUP4 KECCAK256 SLOAD PUSH1 0x5 DUP4 MSTORE DUP2 DUP5 KECCAK256 SLOAD PUSH1 0x6 SWAP1 SWAP4 MSTORE SWAP1 DUP4 KECCAK256 SLOAD SWAP1 SWAP3 PUSH2 0xD4D DUP4 DUP6 PUSH2 0x1B02 JUMP JUMPDEST SWAP1 POP SWAP2 SWAP4 POP SWAP2 SWAP4 JUMP JUMPDEST PUSH1 0x60 PUSH1 0x0 DUP1 SLOAD SGT ISZERO PUSH2 0xD85 JUMPI POP PUSH1 0x40 DUP1 MLOAD DUP1 DUP3 ADD SWAP1 SWAP2 MSTORE PUSH1 0x8 DUP2 MSTORE PUSH8 0x706F736974697665 PUSH1 0xC0 SHL PUSH1 0x20 DUP3 ADD MSTORE SWAP1 JUMP JUMPDEST PUSH1 0x0 DUP1 SLOAD SLT ISZERO PUSH2 0xDB2 JUMPI POP PUSH1 0x40 DUP1 MLOAD DUP1 DUP3 ADD SWAP1 SWAP2 MSTORE PUSH1 0x8 DUP2 MSTORE PUSH8 0x6E65676174697665 PUSH1 0xC0 SHL PUSH1 0x20 DUP3 ADD MSTORE SWAP1 JUMP JUMPDEST POP PUSH1 0x40 DUP1 MLOAD DUP1 DUP3 ADD SWAP1 SWAP2 MSTORE PUSH1 0x4 DUP2 MSTORE PUSH4 0x7A65726F PUSH1 0xE0 SHL PUSH1 0x20 DUP3 ADD MSTORE SWAP1 JUMP JUMPDEST PUSH1 0x3 DUP2 DUP2 SLOAD DUP2 LT PUSH2 0xDE1 JUMPI PUSH1 0x0 DUP1 REVERT JUMPDEST PUSH1 0x0 SWAP2 DUP3 MSTORE PUSH1 0x20 SWAP1 SWAP2 KECCAK256 PUSH1 0x5 SWAP1 SWAP2 MUL ADD DUP1 SLOAD PUSH1 0x1 DUP3 ADD SLOAD PUSH1 0x2 DUP4 ADD SLOAD PUSH1 0x3 DUP5 ADD DUP1 SLOAD PUSH1 0x1 PUSH1 0x1 PUSH1 0xA0 SHL SUB SWAP1 SWAP5 AND SWAP6 POP SWAP2 SWAP4 SWAP1 SWAP3 SWAP1 SWAP2 SWAP1 PUSH2 0xE20 SWAP1 PUSH2 0x1974 JUMP JUMPDEST DUP1 PUSH1 0x1F ADD PUSH1 0x20 DUP1 SWAP2 DIV MUL PUSH1 0x20 ADD PUSH1 0x40 MLOAD SWAP1 DUP2 ADD PUSH1 0x40 MSTORE DUP1 SWAP3 SWAP2 SWAP1 DUP2 DUP2 MSTORE PUSH1 0x20 ADD DUP3 DUP1 SLOAD PUSH2 0xE4C SWAP1 PUSH2 0x1974 JUMP JUMPDEST DUP1 ISZERO PUSH2 0xE99 JUMPI DUP1 PUSH1 0x1F LT PUSH2 0xE6E JUMPI PUSH2 0x100 DUP1 DUP4 SLOAD DIV MUL DUP4 MSTORE SWAP2 PUSH1 0x20 ADD SWAP2 PUSH2 0xE99 JUMP JUMPDEST DUP3 ADD SWAP2 SWAP1 PUSH1 0x0 MSTORE PUSH1 0x20 PUSH1 0x0 KECCAK256 SWAP1 JUMPDEST DUP2 SLOAD DUP2 MSTORE SWAP1 PUSH1 0x1 ADD SWAP1 PUSH1 0x20 ADD DUP1 DUP4 GT PUSH2 0xE7C JUMPI DUP3 SWAP1 SUB PUSH1 0x1F AND DUP3 ADD SWAP2 JUMPDEST POP POP POP POP POP SWAP1 DUP1 PUSH1 0x4 ADD SLOAD SWAP1 POP DUP6 JUMP JUMPDEST PUSH1 0x0 DUP1 SLOAD SWAP1 DUP2 SWAP1 DUP1 PUSH2 0xEBA DUP4 PUSH2 0x1B29 JUMP JUMPDEST SWAP1 SWAP2 SSTORE POP POP PUSH1 0x2 DUP1 SLOAD SWAP1 PUSH1 0x0 PUSH2 0xECF DUP4 PUSH2 0x192C JUMP JUMPDEST SWAP1 SWAP2 SSTORE POP POP CALLER PUSH1 0x0 SWAP1 DUP2 MSTORE PUSH1 0x4 PUSH1 0x20 MSTORE PUSH1 0x40 DUP2 KECCAK256 DUP1 SLOAD SWAP2 PUSH2 0xEEF DUP4 PUSH2 0x192C JUMP JUMPDEST SWAP1 SWAP2 SSTORE POP POP CALLER PUSH1 0x0 SWAP1 DUP2 MSTORE PUSH1 0x6 PUSH1 0x20 MSTORE PUSH1 0x40 DUP2 KECCAK256 DUP1 SLOAD SWAP2 PUSH2 0xF0F DUP4 PUSH2 0x192C JUMP JUMPDEST SWAP1 SWAP2 SSTORE POP POP PUSH1 0x40 DUP1 MLOAD PUSH1 0xA0 DUP2 ADD DUP3 MSTORE CALLER DUP2 MSTORE PUSH1 0x20 DUP1 DUP3 ADD DUP5 DUP2 MSTORE PUSH1 0x0 DUP1 SLOAD DUP5 DUP7 ADD SWAP1 DUP2 MSTORE DUP6 MLOAD DUP1 DUP8 ADD SWAP1 SWAP7 MSTORE PUSH1 0x9 DUP7 MSTORE PUSH9 0x1A5B98DC995B595B9D PUSH1 0xBA SHL SWAP4 DUP7 ADD SWAP4 SWAP1 SWAP4 MSTORE PUSH1 0x60 DUP5 ADD SWAP5 DUP6 MSTORE TIMESTAMP PUSH1 0x80 DUP6 ADD MSTORE PUSH1 0x3 DUP1 SLOAD PUSH1 0x1 DUP2 ADD DUP3 SSTORE SWAP2 MSTORE DUP4 MLOAD PUSH32 0xC2575A0E9E593C00F959F8C92F12DB2869C3395A3B0502D05E2516446F71F85B PUSH1 0x5 SWAP1 SWAP3 MUL SWAP2 DUP3 ADD DUP1 SLOAD PUSH1 0x1 PUSH1 0x1 PUSH1 0xA0 SHL SUB NOT AND PUSH1 0x1 PUSH1 0x1 PUSH1 0xA0 SHL SUB SWAP1 SWAP3 AND SWAP2 SWAP1 SWAP2 OR DUP2 SSTORE SWAP2 MLOAD PUSH32 0xC2575A0E9E593C00F959F8C92F12DB2869C3395A3B0502D05E2516446F71F85C DUP3 ADD SSTORE SWAP2 MLOAD PUSH32 0xC2575A0E9E593C00F959F8C92F12DB2869C3395A3B0502D05E2516446F71F85D DUP4 ADD SSTORE SWAP3 MLOAD SWAP2 SWAP3 SWAP2 PUSH32 0xC2575A0E9E593C00F959F8C92F12DB2869C3395A3B0502D05E2516446F71F85E SWAP1 SWAP2 ADD SWAP1 PUSH2 0x1034 SWAP1 DUP3 PUSH2 0x19FD JUMP JUMPDEST POP PUSH1 0x80 SWAP2 SWAP1 SWAP2 ADD MLOAD PUSH1 0x4 SWAP1 SWAP2 ADD SSTORE PUSH1 0x0 SLOAD PUSH1 0x40 DUP1 MLOAD DUP4 DUP2 MSTORE PUSH1 0x20 DUP2 ADD SWAP3 SWAP1 SWAP3 MSTORE TIMESTAMP SWAP1 DUP3 ADD MSTORE CALLER SWAP1 PUSH32 0x8EA313B89C9B92392D3EEEFF9CABFA264692D1B9A1AB6726A02650E623808549 SWAP1 PUSH1 0x60 ADD PUSH2 0xAC9 JUMP JUMPDEST PUSH1 0x1 SLOAD PUSH1 0x1 PUSH1 0x1 PUSH1 0xA0 SHL SUB AND CALLER EQ PUSH2 0x10AF JUMPI PUSH1 0x40 MLOAD PUSH3 0x461BCD PUSH1 0xE5 SHL DUP2 MSTORE PUSH1 0x4 ADD PUSH2 0x368 SWAP1 PUSH2 0x1B41 JUMP JUMPDEST PUSH1 0x0 DUP1 SLOAD DUP2 DUP1 SSTORE PUSH1 0x2 DUP1 SLOAD SWAP2 SWAP3 PUSH2 0x10C5 DUP4 PUSH2 0x192C JUMP JUMPDEST SWAP1 SWAP2 SSTORE POP POP PUSH1 0x40 DUP1 MLOAD PUSH1 0xA0 DUP2 ADD DUP3 MSTORE CALLER DUP2 MSTORE PUSH1 0x20 DUP1 DUP3 ADD DUP5 DUP2 MSTORE PUSH1 0x0 DUP4 DUP6 ADD DUP2 DUP2 MSTORE DUP6 MLOAD DUP1 DUP8 ADD SWAP1 SWAP7 MSTORE PUSH1 0x5 DUP1 DUP8 MSTORE PUSH5 0x1C995CD95D PUSH1 0xDA SHL SWAP5 DUP8 ADD SWAP5 SWAP1 SWAP5 MSTORE PUSH1 0x60 DUP6 ADD SWAP6 DUP7 MSTORE TIMESTAMP PUSH1 0x80 DUP7 ADD MSTORE PUSH1 0x3 DUP1 SLOAD PUSH1 0x1 DUP2 ADD DUP3 SSTORE SWAP3 MSTORE DUP5 MLOAD PUSH32 0xC2575A0E9E593C00F959F8C92F12DB2869C3395A3B0502D05E2516446F71F85B SWAP3 SWAP1 SWAP5 MUL SWAP2 DUP3 ADD DUP1 SLOAD PUSH1 0x1 PUSH1 0x1 PUSH1 0xA0 SHL SUB NOT AND PUSH1 0x1 PUSH1 0x1 PUSH1 0xA0 SHL SUB SWAP1 SWAP6 AND SWAP5 SWAP1 SWAP5 OR DUP5 SSTORE SWAP2 MLOAD PUSH32 0xC2575A0E9E593C00F959F8C92F12DB2869C3395A3B0502D05E2516446F71F85C DUP3 ADD SSTORE SWAP1 MLOAD PUSH32 0xC2575A0E9E593C00F959F8C92F12DB2869C3395A3B0502D05E2516446F71F85D DUP3 ADD SSTORE SWAP3 MLOAD SWAP2 SWAP3 SWAP1 SWAP2 PUSH32 0xC2575A0E9E593C00F959F8C92F12DB2869C3395A3B0502D05E2516446F71F85E SWAP1 SWAP2 ADD SWAP1 PUSH2 0x11E5 SWAP1 DUP3 PUSH2 0x19FD JUMP JUMPDEST POP PUSH1 0x80 SWAP2 SWAP1 SWAP2 ADD MLOAD PUSH1 0x4 SWAP1 SWAP2 ADD SSTORE PUSH1 0x40 DUP1 MLOAD DUP3 DUP2 MSTORE TIMESTAMP PUSH1 0x20 DUP3 ADD MSTORE CALLER SWAP2 PUSH32 0xE33484F384DC157869F6B1FF8A46B09C6A24B622CB57AC5659055A65B6E1943C SWAP2 ADD PUSH1 0x40 MLOAD DUP1 SWAP2 SUB SWAP1 LOG2 POP JUMP JUMPDEST PUSH1 0x0 DUP1 SLOAD PUSH1 0x2 SLOAD PUSH1 0x3 SLOAD SWAP2 SWAP3 SWAP1 SWAP2 DUP2 SWAP1 PUSH2 0x124B JUMPI PUSH1 0x0 PUSH2 0x124F JUMP JUMPDEST PUSH1 0x3 SLOAD JUMPDEST PUSH1 0x1 SLOAD SWAP5 SWAP6 SWAP4 SWAP5 SWAP1 SWAP4 PUSH1 0x1 PUSH1 0x1 PUSH1 0xA0 SHL SUB SWAP1 SWAP2 AND SWAP3 POP SWAP1 POP JUMP JUMPDEST PUSH1 0x0 PUSH1 0x60 PUSH1 0x0 DUP1 PUSH1 0x3 DUP1 SLOAD SWAP1 POP GT PUSH2 0x12B9 JUMPI PUSH1 0x40 MLOAD PUSH3 0x461BCD PUSH1 0xE5 SHL DUP2 MSTORE PUSH1 0x20 PUSH1 0x4 DUP3 ADD MSTORE PUSH1 0x13 PUSH1 0x24 DUP3 ADD MSTORE PUSH19 0x139BC818DA185B99D95CC81B585919481E595D PUSH1 0x6A SHL PUSH1 0x44 DUP3 ADD MSTORE PUSH1 0x64 ADD PUSH2 0x368 JUMP JUMPDEST PUSH1 0x3 DUP1 SLOAD PUSH1 0x0 SWAP2 SWAP1 PUSH2 0x12CD SWAP1 PUSH1 0x1 SWAP1 PUSH2 0x1ABC JUMP JUMPDEST DUP2 SLOAD DUP2 LT PUSH2 0x12DD JUMPI PUSH2 0x12DD PUSH2 0x1ACF JUMP JUMPDEST SWAP1 PUSH1 0x0 MSTORE PUSH1 0x20 PUSH1 0x0 KECCAK256 SWAP1 PUSH1 0x5 MUL ADD PUSH1 0x40 MLOAD DUP1 PUSH1 0xA0 ADD PUSH1 0x40 MSTORE SWAP1 DUP2 PUSH1 0x0 DUP3 ADD PUSH1 0x0 SWAP1 SLOAD SWAP1 PUSH2 0x100 EXP SWAP1 DIV PUSH1 0x1 PUSH1 0x1 PUSH1 0xA0 SHL SUB AND PUSH1 0x1 PUSH1 0x1 PUSH1 0xA0 SHL SUB AND PUSH1 0x1 PUSH1 0x1 PUSH1 0xA0 SHL SUB AND DUP2 MSTORE PUSH1 0x20 ADD PUSH1 0x1 DUP3 ADD SLOAD DUP2 MSTORE PUSH1 0x20 ADD PUSH1 0x2 DUP3 ADD SLOAD DUP2 MSTORE PUSH1 0x20 ADD PUSH1 0x3 DUP3 ADD DUP1 SLOAD PUSH2 0x1349 SWAP1 PUSH2 0x1974 JUMP JUMPDEST DUP1 PUSH1 0x1F ADD PUSH1 0x20 DUP1 SWAP2 DIV MUL PUSH1 0x20 ADD PUSH1 0x40 MLOAD SWAP1 DUP2 ADD PUSH1 0x40 MSTORE DUP1 SWAP3 SWAP2 SWAP1 DUP2 DUP2 MSTORE PUSH1 0x20 ADD DUP3 DUP1 SLOAD PUSH2 0x1375 SWAP1 PUSH2 0x1974 JUMP JUMPDEST DUP1 ISZERO PUSH2 0x13C2 JUMPI DUP1 PUSH1 0x1F LT PUSH2 0x1397 JUMPI PUSH2 0x100 DUP1 DUP4 SLOAD DIV MUL DUP4 MSTORE SWAP2 PUSH1 0x20 ADD SWAP2 PUSH2 0x13C2 JUMP JUMPDEST DUP3 ADD SWAP2 SWAP1 PUSH1 0x0 MSTORE PUSH1 0x20 PUSH1 0x0 KECCAK256 SWAP1 JUMPDEST DUP2 SLOAD DUP2 MSTORE SWAP1 PUSH1 0x1 ADD SWAP1 PUSH1 0x20 ADD DUP1 DUP4 GT PUSH2 0x13A5 JUMPI DUP3 SWAP1 SUB PUSH1 0x1F AND DUP3 ADD SWAP2 JUMPDEST POP POP POP SWAP2 DUP4 MSTORE POP POP PUSH1 0x4 SWAP2 SWAP1 SWAP2 ADD SLOAD PUSH1 0x20 SWAP1 SWAP2 ADD MSTORE DUP1 MLOAD PUSH1 0x60 DUP3 ADD MLOAD PUSH1 0x80 SWAP1 SWAP3 ADD MLOAD SWAP1 SWAP7 SWAP2 SWAP6 POP SWAP4 POP SWAP2 POP POP JUMP JUMPDEST PUSH1 0x1 SLOAD PUSH1 0x1 PUSH1 0x1 PUSH1 0xA0 SHL SUB AND CALLER EQ PUSH2 0x141A JUMPI PUSH1 0x40 MLOAD PUSH3 0x461BCD PUSH1 0xE5 SHL DUP2 MSTORE PUSH1 0x4 ADD PUSH2 0x368 SWAP1 PUSH2 0x1B41 JUMP JUMPDEST PUSH1 0x1 PUSH1 0x1 PUSH1 0xA0 SHL SUB DUP2 AND PUSH2 0x1470 JUMPI PUSH1 0x40 MLOAD PUSH3 0x461BCD PUSH1 0xE5 SHL DUP2 MSTORE PUSH1 0x20 PUSH1 0x4 DUP3 ADD DUP2 SWAP1 MSTORE PUSH1 0x24 DUP3 ADD MSTORE PUSH32 0x4E6577206F776E65722063616E6E6F74206265207A65726F2061646472657373 PUSH1 0x44 DUP3 ADD MSTORE PUSH1 0x64 ADD PUSH2 0x368 JUMP JUMPDEST PUSH1 0x1 DUP1 SLOAD PUSH1 0x1 PUSH1 0x1 PUSH1 0xA0 SHL SUB NOT AND PUSH1 0x1 PUSH1 0x1 PUSH1 0xA0 SHL SUB SWAP3 SWAP1 SWAP3 AND SWAP2 SWAP1 SWAP2 OR SWAP1 SSTORE JUMP JUMPDEST DUP1 PUSH1 0xA SUB PUSH2 0x14EE JUMPI PUSH1 0x0 DUP1 MLOAD PUSH1 0x20 PUSH2 0x1B83 DUP4 CODECOPY DUP2 MLOAD SWAP2 MSTORE DUP2 TIMESTAMP PUSH1 0x40 MLOAD PUSH2 0x14E3 SWAP3 SWAP2 SWAP1 SWAP2 DUP3 MSTORE PUSH1 0x60 PUSH1 0x20 DUP4 ADD DUP2 SWAP1 MSTORE PUSH1 0x9 SWAP1 DUP4 ADD MSTORE PUSH9 0x466972737420313021 PUSH1 0xB8 SHL PUSH1 0x80 DUP4 ADD MSTORE PUSH1 0x40 DUP3 ADD MSTORE PUSH1 0xA0 ADD SWAP1 JUMP JUMPDEST PUSH1 0x40 MLOAD DUP1 SWAP2 SUB SWAP1 LOG1 POP JUMP JUMPDEST DUP1 PUSH1 0x64 SUB PUSH2 0x153E JUMPI PUSH1 0x0 DUP1 MLOAD PUSH1 0x20 PUSH2 0x1B83 DUP4 CODECOPY DUP2 MLOAD SWAP2 MSTORE DUP2 TIMESTAMP PUSH1 0x40 MLOAD PUSH2 0x14E3 SWAP3 SWAP2 SWAP1 SWAP2 DUP3 MSTORE PUSH1 0x60 PUSH1 0x20 DUP4 ADD DUP2 SWAP1 MSTORE PUSH1 0x8 SWAP1 DUP4 ADD MSTORE PUSH8 0x43656E7475727921 PUSH1 0xC0 SHL PUSH1 0x80 DUP4 ADD MSTORE PUSH1 0x40 DUP3 ADD MSTORE PUSH1 0xA0 ADD SWAP1 JUMP JUMPDEST DUP1 PUSH2 0x3E8 SUB PUSH2 0x1590 JUMPI PUSH1 0x0 DUP1 MLOAD PUSH1 0x20 PUSH2 0x1B83 DUP4 CODECOPY DUP2 MLOAD SWAP2 MSTORE DUP2 TIMESTAMP PUSH1 0x40 MLOAD PUSH2 0x14E3 SWAP3 SWAP2 SWAP1 SWAP2 DUP3 MSTORE PUSH1 0x60 PUSH1 0x20 DUP4 ADD DUP2 SWAP1 MSTORE PUSH1 0x9 SWAP1 DUP4 ADD MSTORE PUSH9 0x54686F7573616E6421 PUSH1 0xB8 SHL PUSH1 0x80 DUP4 ADD MSTORE PUSH1 0x40 DUP3 ADD MSTORE PUSH1 0xA0 ADD SWAP1 JUMP JUMPDEST DUP1 PUSH1 0x9 NOT SUB PUSH2 0x15E5 JUMPI PUSH1 0x0 DUP1 MLOAD PUSH1 0x20 PUSH2 0x1B83 DUP4 CODECOPY DUP2 MLOAD SWAP2 MSTORE DUP2 TIMESTAMP PUSH1 0x40 MLOAD PUSH2 0x14E3 SWAP3 SWAP2 SWAP1 SWAP2 DUP3 MSTORE PUSH1 0x60 PUSH1 0x20 DUP4 ADD DUP2 SWAP1 MSTORE PUSH1 0xC SWAP1 DUP4 ADD MSTORE PUSH12 0x4E6567617469766520313021 PUSH1 0xA0 SHL PUSH1 0x80 DUP4 ADD MSTORE PUSH1 0x40 DUP3 ADD MSTORE PUSH1 0xA0 ADD SWAP1 JUMP JUMPDEST DUP1 PUSH1 0x63 NOT SUB PUSH2 0x163F JUMPI PUSH1 0x0 DUP1 MLOAD PUSH1 0x20 PUSH2 0x1B83 DUP4 CODECOPY DUP2 MLOAD SWAP2 MSTORE DUP2 TIMESTAMP PUSH1 0x40 MLOAD PUSH2 0x14E3 SWAP3 SWAP2 SWAP1 SWAP2 DUP3 MSTORE PUSH1 0x60 PUSH1 0x20 DUP4 ADD DUP2 SWAP1 MSTORE PUSH1 0x11 SWAP1 DUP4 ADD MSTORE PUSH17 0x4E656761746976652043656E7475727921 PUSH1 0x78 SHL PUSH1 0x80 DUP4 ADD MSTORE PUSH1 0x40 DUP3 ADD MSTORE PUSH1 0xA0 ADD SWAP1 JUMP JUMPDEST DUP1 ISZERO DUP1 ISZERO PUSH2 0x164F JUMPI POP PUSH1 0x3 SLOAD PUSH1 0x1 LT JUMPDEST ISZERO PUSH2 0xADC JUMPI PUSH1 0x0 DUP1 MLOAD PUSH1 0x20 PUSH2 0x1B83 DUP4 CODECOPY DUP2 MLOAD SWAP2 MSTORE DUP2 TIMESTAMP PUSH1 0x40 MLOAD PUSH2 0x14E3 SWAP3 SWAP2 SWAP1 SWAP2 DUP3 MSTORE PUSH1 0x60 PUSH1 0x20 DUP4 ADD DUP2 SWAP1 MSTORE PUSH1 0xD SWAP1 DUP4 ADD MSTORE PUSH13 0x4261636B20746F205A65726F21 PUSH1 0x98 SHL PUSH1 0x80 DUP4 ADD MSTORE PUSH1 0x40 DUP3 ADD MSTORE PUSH1 0xA0 ADD SWAP1 JUMP JUMPDEST PUSH1 0x0 PUSH1 0x20 DUP3 DUP5 SUB SLT ISZERO PUSH2 0x16B3 JUMPI PUSH1 0x0 DUP1 REVERT JUMPDEST POP CALLDATALOAD SWAP2 SWAP1 POP JUMP JUMPDEST PUSH1 0x0 DUP2 MLOAD DUP1 DUP5 MSTORE PUSH1 0x20 DUP5 ADD SWAP4 POP PUSH1 0x20 DUP4 ADD PUSH1 0x0 JUMPDEST DUP3 DUP2 LT ISZERO PUSH2 0x16EC JUMPI DUP2 MLOAD DUP7 MSTORE PUSH1 0x20 SWAP6 DUP7 ADD SWAP6 SWAP1 SWAP2 ADD SWAP1 PUSH1 0x1 ADD PUSH2 0x16CE JUMP JUMPDEST POP SWAP4 SWAP5 SWAP4 POP POP POP POP JUMP JUMPDEST PUSH1 0x0 DUP2 MLOAD DUP1 DUP5 MSTORE PUSH1 0x0 JUMPDEST DUP2 DUP2 LT ISZERO PUSH2 0x171C JUMPI PUSH1 0x20 DUP2 DUP6 ADD DUP2 ADD MLOAD DUP7 DUP4 ADD DUP3 ADD MSTORE ADD PUSH2 0x1700 JUMP JUMPDEST POP PUSH1 0x0 PUSH1 0x20 DUP3 DUP7 ADD ADD MSTORE PUSH1 0x20 PUSH1 0x1F NOT PUSH1 0x1F DUP4 ADD AND DUP6 ADD ADD SWAP2 POP POP SWAP3 SWAP2 POP POP JUMP JUMPDEST PUSH1 0x0 DUP3 DUP3 MLOAD DUP1 DUP6 MSTORE PUSH1 0x20 DUP6 ADD SWAP5 POP PUSH1 0x20 DUP2 PUSH1 0x5 SHL DUP4 ADD ADD PUSH1 0x20 DUP6 ADD PUSH1 0x0 JUMPDEST DUP4 DUP2 LT ISZERO PUSH2 0x178C JUMPI PUSH1 0x1F NOT DUP6 DUP5 SUB ADD DUP9 MSTORE PUSH2 0x1776 DUP4 DUP4 MLOAD PUSH2 0x16F6 JUMP JUMPDEST PUSH1 0x20 SWAP9 DUP10 ADD SWAP9 SWAP1 SWAP4 POP SWAP2 SWAP1 SWAP2 ADD SWAP1 PUSH1 0x1 ADD PUSH2 0x175A JUMP JUMPDEST POP SWAP1 SWAP7 SWAP6 POP POP POP POP POP POP JUMP JUMPDEST PUSH1 0xA0 DUP1 DUP3 MSTORE DUP7 MLOAD SWAP1 DUP3 ADD DUP2 SWAP1 MSTORE PUSH1 0x0 SWAP1 PUSH1 0x20 DUP9 ADD SWAP1 PUSH1 0xC0 DUP5 ADD SWAP1 DUP4 JUMPDEST DUP2 DUP2 LT ISZERO PUSH2 0x17DB JUMPI DUP4 MLOAD PUSH1 0x1 PUSH1 0x1 PUSH1 0xA0 SHL SUB AND DUP4 MSTORE PUSH1 0x20 SWAP4 DUP5 ADD SWAP4 SWAP1 SWAP3 ADD SWAP2 PUSH1 0x1 ADD PUSH2 0x17B4 JUMP JUMPDEST POP POP DUP4 DUP2 SUB PUSH1 0x20 DUP6 ADD MSTORE PUSH2 0x17EF DUP2 DUP10 PUSH2 0x16BA JUMP JUMPDEST SWAP2 POP POP DUP3 DUP2 SUB PUSH1 0x40 DUP5 ADD MSTORE PUSH2 0x1804 DUP2 DUP8 PUSH2 0x16BA JUMP JUMPDEST SWAP1 POP DUP3 DUP2 SUB PUSH1 0x60 DUP5 ADD MSTORE PUSH2 0x1818 DUP2 DUP7 PUSH2 0x173C JUMP JUMPDEST SWAP1 POP DUP3 DUP2 SUB PUSH1 0x80 DUP5 ADD MSTORE PUSH2 0x182C DUP2 DUP6 PUSH2 0x16BA JUMP JUMPDEST SWAP9 SWAP8 POP POP POP POP POP POP POP POP JUMP JUMPDEST PUSH1 0x0 PUSH1 0x20 DUP3 DUP5 SUB SLT ISZERO PUSH2 0x184A JUMPI PUSH1 0x0 DUP1 REVERT JUMPDEST DUP2 CALLDATALOAD PUSH1 0x1 PUSH1 0x1 PUSH1 0xA0 SHL SUB DUP2 AND DUP2 EQ PUSH2 0x1861 JUMPI PUSH1 0x0 DUP1 REVERT JUMPDEST SWAP4 SWAP3 POP POP POP JUMP JUMPDEST PUSH1 0x20 DUP2 MSTORE PUSH1 0x0 PUSH2 0x1861 PUSH1 0x20 DUP4 ADD DUP5 PUSH2 0x16F6 JUMP JUMPDEST PUSH1 0x1 DUP1 PUSH1 0xA0 SHL SUB DUP7 AND DUP2 MSTORE DUP5 PUSH1 0x20 DUP3 ADD MSTORE DUP4 PUSH1 0x40 DUP3 ADD MSTORE PUSH1 0xA0 PUSH1 0x60 DUP3 ADD MSTORE PUSH1 0x0 PUSH2 0x18A8 PUSH1 0xA0 DUP4 ADD DUP6 PUSH2 0x16F6 JUMP JUMPDEST SWAP1 POP DUP3 PUSH1 0x80 DUP4 ADD MSTORE SWAP7 SWAP6 POP POP POP POP POP POP JUMP JUMPDEST PUSH1 0x1 PUSH1 0x1 PUSH1 0xA0 SHL SUB DUP5 AND DUP2 MSTORE PUSH1 0x60 PUSH1 0x20 DUP3 ADD DUP2 SWAP1 MSTORE PUSH1 0x0 SWAP1 PUSH2 0x18DE SWAP1 DUP4 ADD DUP6 PUSH2 0x16F6 JUMP JUMPDEST SWAP1 POP DUP3 PUSH1 0x40 DUP4 ADD MSTORE SWAP5 SWAP4 POP POP POP POP JUMP JUMPDEST PUSH4 0x4E487B71 PUSH1 0xE0 SHL PUSH1 0x0 MSTORE PUSH1 0x11 PUSH1 0x4 MSTORE PUSH1 0x24 PUSH1 0x0 REVERT JUMPDEST DUP1 DUP3 ADD DUP3 DUP2 SLT PUSH1 0x0 DUP4 SLT DUP1 ISZERO DUP3 AND DUP3 ISZERO DUP3 AND OR ISZERO PUSH2 0x1924 JUMPI PUSH2 0x1924 PUSH2 0x18EE JUMP JUMPDEST POP POP SWAP3 SWAP2 POP POP JUMP JUMPDEST PUSH1 0x0 PUSH1 0x1 DUP3 ADD PUSH2 0x193E JUMPI PUSH2 0x193E PUSH2 0x18EE JUMP JUMPDEST POP PUSH1 0x1 ADD SWAP1 JUMP JUMPDEST DUP1 DUP3 ADD DUP1 DUP3 GT ISZERO PUSH2 0x1958 JUMPI PUSH2 0x1958 PUSH2 0x18EE JUMP JUMPDEST SWAP3 SWAP2 POP POP JUMP JUMPDEST PUSH4 0x4E487B71 PUSH1 0xE0 SHL PUSH1 0x0 MSTORE PUSH1 0x41 PUSH1 0x4 MSTORE PUSH1 0x24 PUSH1 0x0 REVERT JUMPDEST PUSH1 0x1 DUP2 DUP2 SHR SWAP1 DUP3 AND DUP1 PUSH2 0x1988 JUMPI PUSH1 0x7F DUP3 AND SWAP2 POP JUMPDEST PUSH1 0x20 DUP3 LT DUP2 SUB PUSH2 0x19A8 JUMPI PUSH4 0x4E487B71 PUSH1 0xE0 SHL PUSH1 0x0 MSTORE PUSH1 0x22 PUSH1 0x4 MSTORE PUSH1 0x24 PUSH1 0x0 REVERT JUMPDEST POP SWAP2 SWAP1 POP JUMP JUMPDEST PUSH1 0x1F DUP3 GT ISZERO PUSH2 0x19F8 JUMPI DUP1 PUSH1 0x0 MSTORE PUSH1 0x20 PUSH1 0x0 KECCAK256 PUSH1 0x1F DUP5 ADD PUSH1 0x5 SHR DUP2 ADD PUSH1 0x20 DUP6 LT ISZERO PUSH2 0x19D5 JUMPI POP DUP1 JUMPDEST PUSH1 0x1F DUP5 ADD PUSH1 0x5 SHR DUP3 ADD SWAP2 POP JUMPDEST DUP2 DUP2 LT ISZERO PUSH2 0x19F5 JUMPI PUSH1 0x0 DUP2 SSTORE PUSH1 0x1 ADD PUSH2 0x19E1 JUMP JUMPDEST POP POP JUMPDEST POP POP POP JUMP JUMPDEST DUP2 MLOAD PUSH8 0xFFFFFFFFFFFFFFFF DUP2 GT ISZERO PUSH2 0x1A17 JUMPI PUSH2 0x1A17 PUSH2 0x195E JUMP JUMPDEST PUSH2 0x1A2B DUP2 PUSH2 0x1A25 DUP5 SLOAD PUSH2 0x1974 JUMP JUMPDEST DUP5 PUSH2 0x19AE JUMP JUMPDEST PUSH1 0x20 PUSH1 0x1F DUP3 GT PUSH1 0x1 DUP2 EQ PUSH2 0x1A5F JUMPI PUSH1 0x0 DUP4 ISZERO PUSH2 0x1A47 JUMPI POP DUP5 DUP3 ADD MLOAD JUMPDEST PUSH1 0x0 NOT PUSH1 0x3 DUP6 SWAP1 SHL SHR NOT AND PUSH1 0x1 DUP5 SWAP1 SHL OR DUP5 SSTORE PUSH2 0x19F5 JUMP JUMPDEST PUSH1 0x0 DUP5 DUP2 MSTORE PUSH1 0x20 DUP2 KECCAK256 PUSH1 0x1F NOT DUP6 AND SWAP2 JUMPDEST DUP3 DUP2 LT ISZERO PUSH2 0x1A8F JUMPI DUP8 DUP6 ADD MLOAD DUP3 SSTORE PUSH1 0x20 SWAP5 DUP6 ADD SWAP5 PUSH1 0x1 SWAP1 SWAP3 ADD SWAP2 ADD PUSH2 0x1A6F JUMP JUMPDEST POP DUP5 DUP3 LT ISZERO PUSH2 0x1AAD JUMPI DUP7 DUP5 ADD MLOAD PUSH1 0x0 NOT PUSH1 0x3 DUP8 SWAP1 SHL PUSH1 0xF8 AND SHR NOT AND DUP2 SSTORE JUMPDEST POP POP POP POP PUSH1 0x1 SWAP1 DUP2 SHL ADD SWAP1 SSTORE POP JUMP JUMPDEST DUP2 DUP2 SUB DUP2 DUP2 GT ISZERO PUSH2 0x1958 JUMPI PUSH2 0x1958 PUSH2 0x18EE JUMP JUMPDEST PUSH4 0x4E487B71 PUSH1 0xE0 SHL PUSH1 0x0 MSTORE PUSH1 0x32 PUSH1 0x4 MSTORE PUSH1 0x24 PUSH1 0x0 REVERT JUMPDEST PUSH1 0x0 PUSH1 0x1 PUSH1 0xFF SHL DUP3 ADD PUSH2 0x1AFA JUMPI PUSH2 0x1AFA PUSH2 0x18EE JUMP JUMPDEST POP PUSH1 0x0 NOT ADD SWAP1 JUMP JUMPDEST DUP2 DUP2 SUB PUSH1 0x0 DUP4 SLT DUP1 ISZERO DUP4 DUP4 SGT AND DUP4 DUP4 SLT DUP3 AND OR ISZERO PUSH2 0x1B22 JUMPI PUSH2 0x1B22 PUSH2 0x18EE JUMP JUMPDEST POP SWAP3 SWAP2 POP POP JUMP JUMPDEST PUSH1 0x0 PUSH1 0x1 PUSH1 0x1 PUSH1 0xFF SHL ADD DUP3 ADD PUSH2 0x193E JUMPI PUSH2 0x193E PUSH2 0x18EE JUMP JUMPDEST PUSH1 0x20 DUP1 DUP3 MSTORE PUSH1 0x21 SWAP1 DUP3 ADD MSTORE PUSH32 0x4F6E6C79206F776E65722063616E2063616C6C20746869732066756E6374696F PUSH1 0x40 DUP3 ADD MSTORE PUSH1 0x37 PUSH1 0xF9 SHL PUSH1 0x60 DUP3 ADD MSTORE PUSH1 0x80 ADD SWAP1 JUMP INVALID CALLDATASIZE 0x24 SHR 0xD2 PUSH12 0xB8A74762DCDD8E58F5D383E1 STOP 0xD7 SWAP4 PC BLOCKHASH SELFBALANCE 0xEC PUSH28 0x770DC5408BA948A2646970667358221220F6B78ACB536E69325FC0C3 0xE8 NOT SWAP4 0xA8 BLOBHASH DUP12 0xEE DUP9 SWAP10 0xB5 ADDMOD SWAP1 0xE3 0xE EXTCODESIZE TLOAD 0xEB 0xB1 SLOAD RETURNDATACOPY SWAP12 PUSH5 0x736F6C6343 STOP ADDMOD SHR STOP CALLER "
        },
        "methodIdentifiers": {
          "count()": "06661abd",
          "decrement()": "2baeceb7",
          "decrementBy(uint256)": "3721b1d8",
          "getContractStats()": "dfe6b5d6",
          "getCount()": "a87d942c",
          "getCountStatus()": "62f02ac2",
          "getHistoryLength()": "5478f468",
          "getLastUser()": "efd79930",
          "getLatestChanges(uint256)": "1a85adbb",
          "getUserStats(address)": "4e43603a",
          "history(uint256)": "a7a38f0b",
          "increment()": "d09de08a",
          "incrementBy(uint256)": "03df179c",
          "owner()": "8da5cb5b",
          "reset()": "d826f88f",
          "totalInteractions()": "a843651e",
          "transferOwnership(address)": "f2fde38b",
          "userDecrements(address)": "b895c260",
          "userIncrements(address)": "8b8e41dd",
          "userTotalInteractions(address)": "d53d5007"
        }
      }
    }
  }
}