{
  "contracts/TodoList.sol": {
    "TodoList": {
      "abi": [
        {
          "inputs": [],
          "stateMutability": "nonpayable",
          "type": "constructor"
        },
        {
          "anonymous": false,
          "inputs": [
            {
              "indexed": true,
              "internalType": "uint256",
              "name": "taskId",
              "type": "uint256"
            },
            {
              "indexed": true,
              "internalType": "address",
              "name": "owner",
              "type": "address"
            },
            {
              "indexed": false,
              "internalType": "uint256",
              "name": "timestamp",
              "type": "uint256"
            }
          ],
          "name": "TaskCompleted",
          "type": "event"
        },
        {
          "anonymous": false,
          "inputs": [
            {
              "indexed": true,
              "internalType": "uint256",
              "name": "taskId",
              "type": "uint256"
            },
            {
              "indexed": true,
              "internalType": "address",
              "name": "owner",
              "type": "address"
            },
            {
              "indexed": false,
              "internalType": "string",
              "name": "title",
              "type": "string"
            },
            {
              "indexed": false,
              "internalType": "enum TodoList.Priority",
              "name": "priority",
              "type": "uint8"
            },
            {
              "indexed": false,
              "internalType": "uint256",
              "name": "dueDate",
              "type": "uint256"
            },
            {
              "indexed": false,
              "internalType": "uint256",
              "name": "timestamp",
              "type": "uint256"
            }
          ],
          "name": "TaskCreated",
          "type": "event"
        },
        {
          "anonymous": false,
          "inputs": [
            {
              "indexed": true,
              "internalType": "uint256",
              "name": "taskId",
              "type": "uint256"
            },
            {
              "indexed": true,
              "internalType": "address",
              "name": "owner",
              "type": "address"
            },
            {
              "indexed": false,
              "internalType": "uint256",
              "name": "timestamp",
              "type": "uint256"
            }
          ],
          "name": "TaskDeleted",
          "type": "event"
        },
        {
          "anonymous": false,
          "inputs": [
            {
              "indexed": true,
              "internalType": "uint256",
              "name": "taskId",
              "type": "uint256"
            },
            {
              "indexed": true,
              "internalType": "address",
              "name": "owner",
              "type": "address"
            },
            {
              "indexed": false,
              "internalType": "enum TodoList.Status",
              "name": "oldStatus",
              "type": "uint8"
            },
            {
              "indexed": false,
              "internalType": "enum TodoList.Status",
              "name": "newStatus",
              "type": "uint8"
            },
            {
              "indexed": false,
              "internalType": "uint256",
              "name": "timestamp",
              "type": "uint256"
            }
          ],
          "name": "TaskUpdated",
          "type": "event"
        },
        {
          "inputs": [
            {
              "internalType": "uint256",
              "name": "_taskId",
              "type": "uint256"
            }
          ],
          "name": "cancelTask",
          "outputs": [],
          "stateMutability": "nonpayable",
          "type": "function"
        },
        {
          "inputs": [
            {
              "internalType": "address",
              "name": "",
              "type": "address"
            }
          ],
          "name": "cancelledTasks",
          "outputs": [
            {
              "internalType": "uint256",
              "name": "",
              "type": "uint256"
            }
          ],
          "stateMutability": "view",
          "type": "function"
        },
        {
          "inputs": [
            {
              "internalType": "uint256",
              "name": "_taskId",
              "type": "uint256"
            }
          ],
          "name": "completeTask",
          "outputs": [],
          "stateMutability": "nonpayable",
          "type": "function"
        },
        {
          "inputs": [
            {
              "internalType": "address",
              "name": "",
              "type": "address"
            }
          ],
          "name": "completedTasks",
          "outputs": [
            {
              "internalType": "uint256",
              "name": "",
              "type": "uint256"
            }
          ],
          "stateMutability": "view",
          "type": "function"
        },
        {
          "inputs": [
            {
              "internalType": "string",
              "name": "_title",
              "type": "string"
            },
            {
              "internalType": "string",
              "name": "_description",
              "type": "string"
            },
            {
              "internalType": "enum TodoList.Priority",
              "name": "_priority",
              "type": "uint8"
            },
            {
              "internalType": "uint256",
              "name": "_dueDate",
              "type": "uint256"
            }
          ],
          "name": "createTask",
          "outputs": [
            {
              "internalType": "uint256",
              "name": "",
              "type": "uint256"
            }
          ],
          "stateMutability": "nonpayable",
          "type": "function"
        },
        {
          "inputs": [
            {
              "internalType": "uint256",
              "name": "_taskId",
              "type": "uint256"
            }
          ],
          "name": "deleteTask",
          "outputs": [],
          "stateMutability": "nonpayable",
          "type": "function"
        },
        {
          "inputs": [
            {
              "internalType": "address",
              "name": "_user",
              "type": "address"
            }
          ],
          "name": "getCompletionRate",
          "outputs": [
            {
              "internalType": "uint256",
              "name": "",
              "type": "uint256"
            }
          ],
          "stateMutability": "view",
          "type": "function"
        },
        {
          "inputs": [],
          "name": "getContractStats",
          "outputs": [
            {
              "internalType": "uint256",
              "name": "totalTasksCreated",
              "type": "uint256"
            },
            {
              "internalType": "uint256",
              "name": "activeUsers",
              "type": "uint256"
            },
            {
              "internalType": "uint256",
              "name": "totalCompletedTasks",
              "type": "uint256"
            }
          ],
          "stateMutability": "view",
          "type": "function"
        },
        {
          "inputs": [
            {
              "internalType": "address",
              "name": "_user",
              "type": "address"
            }
          ],
          "name": "getOverdueTasks",
          "outputs": [
            {
              "internalType": "uint256[]",
              "name": "",
              "type": "uint256[]"
            }
          ],
          "stateMutability": "view",
          "type": "function"
        },
        {
          "inputs": [
            {
              "internalType": "uint256",
              "name": "_taskId",
              "type": "uint256"
            }
          ],
          "name": "getTask",
          "outputs": [
            {
              "internalType": "uint256",
              "name": "id",
              "type": "uint256"
            },
            {
              "internalType": "string",
              "name": "title",
              "type": "string"
            },
            {
              "internalType": "string",
              "name": "description",
              "type": "string"
            },
            {
              "internalType": "enum TodoList.Priority",
              "name": "priority",
              "type": "uint8"
            },
            {
              "internalType": "enum TodoList.Status",
              "name": "status",
              "type": "uint8"
            },
            {
              "internalType": "uint256",
              "name": "createdAt",
              "type": "uint256"
            },
            {
              "internalType": "uint256",
              "name": "updatedAt",
              "type": "uint256"
            },
            {
              "internalType": "uint256",
              "name": "dueDate",
              "type": "uint256"
            },
            {
              "internalType": "address",
              "name": "owner",
              "type": "address"
            }
          ],
          "stateMutability": "view",
          "type": "function"
        },
        {
          "inputs": [
            {
              "internalType": "address",
              "name": "_user",
              "type": "address"
            }
          ],
          "name": "getUserStats",
          "outputs": [
            {
              "internalType": "uint256",
              "name": "total",
              "type": "uint256"
            },
            {
              "internalType": "uint256",
              "name": "completed",
              "type": "uint256"
            },
            {
              "internalType": "uint256",
              "name": "pending",
              "type": "uint256"
            },
            {
              "internalType": "uint256",
              "name": "inProgress",
              "type": "uint256"
            },
            {
              "internalType": "uint256",
              "name": "cancelled",
              "type": "uint256"
            },
            {
              "internalType": "uint256",
              "name": "overdue",
              "type": "uint256"
            }
          ],
          "stateMutability": "view",
          "type": "function"
        },
        {
          "inputs": [
            {
              "internalType": "address",
              "name": "_user",
              "type": "address"
            }
          ],
          "name": "getUserTasks",
          "outputs": [
            {
              "internalType": "uint256[]",
              "name": "",
              "type": "uint256[]"
            }
          ],
          "stateMutability": "view",
          "type": "function"
        },
        {
          "inputs": [
            {
              "internalType": "address",
              "name": "_user",
              "type": "address"
            },
            {
              "internalType": "enum TodoList.Priority",
              "name": "_priority",
              "type": "uint8"
            }
          ],
          "name": "getUserTasksByPriority",
          "outputs": [
            {
              "internalType": "uint256[]",
              "name": "",
              "type": "uint256[]"
            }
          ],
          "stateMutability": "view",
          "type": "function"
        },
        {
          "inputs": [
            {
              "internalType": "address",
              "name": "_user",
              "type": "address"
            },
            {
              "internalType": "enum TodoList.Status",
              "name": "_status",
              "type": "uint8"
            }
          ],
          "name": "getUserTasksByStatus",
          "outputs": [
            {
              "internalType": "uint256[]",
              "name": "",
              "type": "uint256[]"
            }
          ],
          "stateMutability": "view",
          "type": "function"
        },
        {
          "inputs": [
            {
              "internalType": "address",
              "name": "",
              "type": "address"
            }
          ],
          "name": "inProgressTasks",
          "outputs": [
            {
              "internalType": "uint256",
              "name": "",
              "type": "uint256"
            }
          ],
          "stateMutability": "view",
          "type": "function"
        },
        {
          "inputs": [
            {
              "internalType": "uint256",
              "name": "_taskId",
              "type": "uint256"
            }
          ],
          "name": "isTaskOverdue",
          "outputs": [
            {
              "internalType": "bool",
              "name": "",
              "type": "bool"
            }
          ],
          "stateMutability": "view",
          "type": "function"
        },
        {
          "inputs": [
            {
              "internalType": "address",
              "name": "",
              "type": "address"
            }
          ],
          "name": "pendingTasks",
          "outputs": [
            {
              "internalType": "uint256",
              "name": "",
              "type": "uint256"
            }
          ],
          "stateMutability": "view",
          "type": "function"
        },
        {
          "inputs": [
            {
              "internalType": "enum TodoList.Priority",
              "name": "_priority",
              "type": "uint8"
            }
          ],
          "name": "priorityToString",
          "outputs": [
            {
              "internalType": "string",
              "name": "",
              "type": "string"
            }
          ],
          "stateMutability": "pure",
          "type": "function"
        },
        {
          "inputs": [
            {
              "internalType": "uint256",
              "name": "_taskId",
              "type": "uint256"
            }
          ],
          "name": "startTask",
          "outputs": [],
          "stateMutability": "nonpayable",
          "type": "function"
        },
        {
          "inputs": [
            {
              "internalType": "enum TodoList.Status",
              "name": "_status",
              "type": "uint8"
            }
          ],
          "name": "statusToString",
          "outputs": [
            {
              "internalType": "string",
              "name": "",
              "type": "string"
            }
          ],
          "stateMutability": "pure",
          "type": "function"
        },
        {
          "inputs": [
            {
              "internalType": "uint256",
              "name": "",
              "type": "uint256"
            }
          ],
          "name": "tasks",
          "outputs": [
            {
              "internalType": "uint256",
              "name": "id",
              "type": "uint256"
            },
            {
              "internalType": "string",
              "name": "title",
              "type": "string"
            },
            {
              "internalType": "string",
              "name": "description",
              "type": "string"
            },
            {
              "internalType": "enum TodoList.Priority",
              "name": "priority",
              "type": "uint8"
            },
            {
              "internalType": "enum TodoList.Status",
              "name": "status",
              "type": "uint8"
            },
            {
              "internalType": "uint256",
              "name": "createdAt",
              "type": "uint256"
            },
            {
              "internalType": "uint256",
              "name": "updatedAt",
              "type": "uint256"
            },
            {
              "internalType": "uint256",
              "name": "dueDate",
              "type": "uint256"
            },
            {
              "internalType": "address",
              "name": "owner",
              "type": "address"
            },
            {
              "internalType": "bool",
              "name": "exists",
              "type": "bool"
            }
          ],
          "stateMutability": "view",
          "type": "function"
        },
        {
          "inputs": [],
          "name": "totalTasks",
          "outputs": [
            {
              "internalType": "uint256",
              "name": "",
              "type": "uint256"
            }
          ],
          "stateMutability": "view",
          "type": "function"
        },
        {
          "inputs": [
            {
              "internalType": "uint256",
              "name": "_taskId",
              "type": "uint256"
            },
            {
              "internalType": "string",
              "name": "_title",
              "type": "string"
            },
            {
              "internalType": "string",
              "name": "_description",
              "type": "string"
            },
            {
              "internalType": "enum TodoList.Priority",
              "name": "_priority",
              "type": "uint8"
            },
            {
              "internalType": "uint256",
              "name": "_dueDate",
              "type": "uint256"
            }
          ],
          "name": "updateTask",
          "outputs": [],
          "stateMutability": "nonpayable",
          "type": "function"
        },
        {
          "inputs": [
            {
              "internalType": "uint256",
              "name": "_taskId",
              "type": "uint256"
            },
            {
              "internalType": "enum TodoList.Status",
              "name": "_newStatus",
              "type": "uint8"
            }
          ],
          "name": "updateTaskStatus",
          "outputs": [],
          "stateMutability": "nonpayable",
          "type": "function"
        },
        {
          "inputs": [
            {
              "internalType": "address",
              "name": "",
              "type": "address"
            }
          ],
          "name": "userTaskCount",
          "outputs": [
            {
              "internalType": "uint256",
              "name": "",
              "type": "uint256"
            }
          ],
          "stateMutability": "view",
          "type": "function"
        },
        {
          "inputs": [
            {
              "internalType": "address",
              "name": "",
              "type": "address"
            },
            {
              "internalType": "uint256",
              "name": "",
              "type": "uint256"
            }
          ],
          "name": "userTasks",
          "outputs": [
            {
              "internalType": "uint256",
              "name": "",
              "type": "uint256"
            }
          ],
          "stateMutability": "view",
          "type": "function"
        }
      ],
      "evm": {
        "bytecode": {
          "linkReferences": {},
          "object": "6080604052348015600f57600080fd5b5060008055612b94806100236000396000f3fe608060405234801561001057600080fd5b506004361061018e5760003560e01c806394eaf4fa116100de578063ac444c5611610097578063d937963e11610071578063d937963e146103fa578063dde157281461041a578063dfe6b5d61461042d578063e1e295581461044d57600080fd5b8063ac444c56146103be578063c343c410146103d1578063d22c81e5146103f157600080fd5b806394eaf4fa1461032f57806395d576601461034f578063994a0bba14610362578063a3c28ba614610375578063ab7e91fe14610388578063ab9b6811146103ab57600080fd5b80635f9443261161014b57806372efb5311161012557806372efb531146102c05780637eec20a8146102d35780638c90f327146102e65780638d9776721461030657600080fd5b80635f9443261461027a57806366873a551461028d5780636d7b7fc9146102a057600080fd5b8063075a8bbd1461019357806312ead59d146101bc5780631d65e77e146101dd5780634e43603a14610205578063560f31921461024557806358f9e7411461025a575b600080fd5b6101a66101a13660046123f0565b610460565b6040516101b39190612412565b60405180910390f35b6101cf6101ca366004612508565b61088b565b6040519081526020016101b3565b6101f06101eb366004612589565b610bc5565b6040516101b39998979695949392919061261c565b6102186102133660046123f0565b610e80565b604080519687526020870195909552938501929092526060840152608083015260a082015260c0016101b3565b610258610253366004612589565b610ed8565b005b6101cf6102683660046123f0565b60036020526000908152604090205481565b610258610288366004612589565b611097565b6101cf61029b366004612699565b611119565b6102b36102ae3660046126c3565b61114a565b6040516101b391906126e0565b6101a66102ce3660046126f3565b611267565b6102586102e1366004612589565b6114b7565b6101cf6102f43660046123f0565b60056020526000908152604090205481565b610319610314366004612589565b611535565b6040516101b39a9998979695949392919061272a565b6101cf61033d3660046123f0565b60066020526000908152604090205481565b6101a661035d3660046123f0565b6116a9565b6102b36103703660046126c3565b611715565b6101cf6103833660046123f0565b6117fe565b61039b610396366004612589565b61185e565b60405190151581526020016101b3565b6102586103b93660046127b2565b611af4565b6101a66103cc3660046126f3565b611cdd565b6101cf6103df3660046123f0565b60046020526000908152604090205481565b6101cf60005481565b6101cf6104083660046123f0565b60076020526000908152604090205481565b6102586104283660046127d7565b611f20565b6000805460408051918252602082018390528101919091526060016101b3565b61025861045b366004612589565b612165565b6001600160a01b03811660009081526002602090815260408083208054825181850281018501909352808352606094938301828280156104bf57602002820191906000526020600020905b8154815260200190600101908083116104ab575b50505050509050600081516001600160401b038111156104e1576104e1612455565b60405190808252806020026020018201604052801561050a578160200160208202803683370190505b5090506000805b83518110156107f05760006001600086848151811061053257610532612862565b60200260200101518152602001908152602001600020604051806101400160405290816000820154815260200160018201805461056e90612878565b80601f016020809104026020016040519081016040528092919081815260200182805461059a90612878565b80156105e75780601f106105bc576101008083540402835291602001916105e7565b820191906000526020600020905b8154815290600101906020018083116105ca57829003601f168201915b5050505050815260200160028201805461060090612878565b80601f016020809104026020016040519081016040528092919081815260200182805461062c90612878565b80156106795780601f1061064e57610100808354040283529160200191610679565b820191906000526020600020905b81548152906001019060200180831161065c57829003601f168201915b505050918352505060038281015460209092019160ff16908111156106a0576106a06125e8565b60038111156106b1576106b16125e8565b81526020016003820160019054906101000a900460ff1660038111156106d9576106d96125e8565b60038111156106ea576106ea6125e8565b81526004820154602082015260058201546040820152600682015460608201526007909101546001600160a01b0381166080830152600160a01b900460ff16151560a090910152610120810151909150801561074a575060008160e00151115b80156107595750428160e00151105b801561077b5750600281608001516003811115610778576107786125e8565b14155b801561079d575060038160800151600381111561079a5761079a6125e8565b14155b156107e7578482815181106107b4576107b4612862565b60200260200101518484815181106107ce576107ce612862565b6020908102919091010152826107e3816128c2565b9350505b50600101610511565b506000816001600160401b0381111561080b5761080b612455565b604051908082528060200260200182016040528015610834578160200160208202803683370190505b50905060005b828110156108815783818151811061085457610854612862565b602002602001015182828151811061086e5761086e612862565b602090810291909101015260010161083a565b5095945050505050565b6000808551116108da5760405162461bcd60e51b81526020600482015260156024820152745469746c652063616e6e6f7420626520656d70747960581b60448201526064015b60405180910390fd5b60648551111561092c5760405162461bcd60e51b815260206004820152601e60248201527f5469746c6520746f6f206c6f6e6720286d61782031303020636861727329000060448201526064016108d1565b6101f48451111561094f5760405162461bcd60e51b81526004016108d1906128db565b81158061095b57504282115b6109a75760405162461bcd60e51b815260206004820152601e60248201527f4475652064617465206d75737420626520696e2074686520667574757265000060448201526064016108d1565b6000805490806109b6836128c2565b91905055506000805490506040518061014001604052808281526020018781526020018681526020018560038111156109f1576109f16125e8565b81526020016000815242602080830182905260408084019290925260608301879052336080840152600160a090930183905260008581528382529190912083518155908301519091820190610a46908261296b565b5060408201516002820190610a5b908261296b565b5060608201518160030160006101000a81548160ff02191690836003811115610a8657610a866125e8565b021790555060808201518160030160016101000a81548160ff02191690836003811115610ab557610ab56125e8565b021790555060a0820151600482015560c0820151600582015560e0820151600682015561010082015160079091018054610120909301511515600160a01b026001600160a81b03199093166001600160a01b039092169190911791909117905533600081815260026020908152604080832080546001810182559084528284200185905592825260039052908120805491610b4f836128c2565b9091555050336000908152600560205260408120805491610b6f836128c2565b9190505550336001600160a01b0316817f8086434e0886a8185730499f2e829ca81c9dc4a2186489efc9ec33827134fdbe88878742604051610bb49493929190612a29565b60405180910390a395945050505050565b6000606080600080600080600080896001600082815260200190815260200160002060070160149054906101000a900460ff16610c145760405162461bcd60e51b81526004016108d190612a62565b60008b815260016020818152604080842081516101408101909252805482529283018054919392840191610c4790612878565b80601f0160208091040260200160405190810160405280929190818152602001828054610c7390612878565b8015610cc05780601f10610c9557610100808354040283529160200191610cc0565b820191906000526020600020905b815481529060010190602001808311610ca357829003601f168201915b50505050508152602001600282018054610cd990612878565b80601f0160208091040260200160405190810160405280929190818152602001828054610d0590612878565b8015610d525780601f10610d2757610100808354040283529160200191610d52565b820191906000526020600020905b815481529060010190602001808311610d3557829003601f168201915b505050918352505060038281015460209092019160ff1690811115610d7957610d796125e8565b6003811115610d8a57610d8a6125e8565b81526020016003820160019054906101000a900460ff166003811115610db257610db26125e8565b6003811115610dc357610dc36125e8565b81526020016004820154815260200160058201548152602001600682015481526020016007820160009054906101000a90046001600160a01b03166001600160a01b03166001600160a01b031681526020016007820160149054906101000a900460ff1615151515815250509050806000015181602001518260400151836060015184608001518560a001518660c001518760e001518861010001519a509a509a509a509a509a509a509a509a5050509193959799909294969850565b6001600160a01b038116600090815260036020908152604080832054600483528184205460058452828520546006855283862054600790955292852054919490939190610ecc87610460565b51905091939550919395565b6000818152600160205260409020600701548190600160a01b900460ff16610f125760405162461bcd60e51b81526004016108d190612a62565b6000818152600160205260409020600701546001600160a01b03163314610f4b5760405162461bcd60e51b81526004016108d190612a8f565b60008281526001602052604090206003810154610f71903390610100900460ff166121e3565b336000908152600360205260408120805491610f8c83612abb565b9091555050336000908152600260205260408120905b815481101561104c5784828281548110610fbe57610fbe612862565b9060005260206000200154036110445781548290610fde90600190612ad2565b81548110610fee57610fee612862565b906000526020600020015482828154811061100b5761100b612862565b90600052602060002001819055508180548061102957611029612ae5565b6001900381819060005260206000200160009055905561104c565b600101610fa2565b50604051428152339085907f0752dde00495a9fda916c836f0f9e13b19edac46a7eebef960aa0a5cdb7736ca9060200160405180910390a350600701805460ff60a01b191690555050565b6000818152600160205260409020600701548190600160a01b900460ff166110d15760405162461bcd60e51b81526004016108d190612a62565b6000818152600160205260409020600701546001600160a01b0316331461110a5760405162461bcd60e51b81526004016108d190612a8f565b611115826001611af4565b5050565b6002602052816000526040600020818154811061113557600080fd5b90600052602060002001600091509150505481565b60606000826003811115611160576111606125e8565b0361118857505060408051808201909152600781526650656e64696e6760c81b602082015290565b600182600381111561119c5761119c6125e8565b036111c857505060408051808201909152600b81526a496e2050726f677265737360a81b602082015290565b60028260038111156111dc576111dc6125e8565b0361120657505060408051808201909152600981526810dbdb5c1b195d195960ba1b602082015290565b600382600381111561121a5761121a6125e8565b0361124457505060408051808201909152600981526810d85b98d95b1b195960ba1b602082015290565b50506040805180820190915260078152662ab735b737bbb760c91b602082015290565b6001600160a01b03821660009081526002602090815260408083208054825181850281018501909352808352606094938301828280156112c657602002820191906000526020600020905b8154815260200190600101908083116112b2575b50505050509050600081516001600160401b038111156112e8576112e8612455565b604051908082528060200260200182016040528015611311578160200160208202803683370190505b5090506000805b8351811015611419576001600085838151811061133757611337612862565b6020026020010151815260200190815260200160002060070160149054906101000a900460ff1680156113c75750856003811115611377576113776125e8565b6001600086848151811061138d5761138d612862565b6020026020010151815260200190815260200160002060030160019054906101000a900460ff1660038111156113c5576113c56125e8565b145b15611411578381815181106113de576113de612862565b60200260200101518383815181106113f8576113f8612862565b60209081029190910101528161140d816128c2565b9250505b600101611318565b506000816001600160401b0381111561143457611434612455565b60405190808252806020026020018201604052801561145d578160200160208202803683370190505b50905060005b828110156114aa5783818151811061147d5761147d612862565b602002602001015182828151811061149757611497612862565b6020908102919091010152600101611463565b5093505050505b92915050565b6000818152600160205260409020600701548190600160a01b900460ff166114f15760405162461bcd60e51b81526004016108d190612a62565b6000818152600160205260409020600701546001600160a01b0316331461152a5760405162461bcd60e51b81526004016108d190612a8f565b611115826003611af4565b60016020819052600091825260409091208054918101805461155690612878565b80601f016020809104026020016040519081016040528092919081815260200182805461158290612878565b80156115cf5780601f106115a4576101008083540402835291602001916115cf565b820191906000526020600020905b8154815290600101906020018083116115b257829003601f168201915b5050505050908060020180546115e490612878565b80601f016020809104026020016040519081016040528092919081815260200182805461161090612878565b801561165d5780601f106116325761010080835404028352916020019161165d565b820191906000526020600020905b81548152906001019060200180831161164057829003601f168201915b5050506003840154600485015460058601546006870154600790970154959660ff8085169761010090950481169650929450909290916001600160a01b03821691600160a01b9004168a565b6001600160a01b03811660009081526002602090815260409182902080548351818402810184019094528084526060939283018282801561170957602002820191906000526020600020905b8154815260200190600101908083116116f5575b50505050509050919050565b6060600082600381111561172b5761172b6125e8565b0361174f5750506040805180820190915260038152624c6f7760e81b602082015290565b6001826003811115611763576117636125e8565b0361178a5750506040805180820190915260068152654d656469756d60d01b602082015290565b600282600381111561179e5761179e6125e8565b036117c3575050604080518082019091526004815263090d2ced60e31b602082015290565b60038260038111156117d7576117d76125e8565b03611244575050604080518082019091526006815265155c99d95b9d60d21b602082015290565b6001600160a01b0381166000908152600360205260408120548082036118275750600092915050565b6001600160a01b0383166000908152600460205260409020548161184c826064612afb565b6118569190612b12565b949350505050565b6000818152600160205260408120600701548290600160a01b900460ff166118985760405162461bcd60e51b81526004016108d190612a62565b6000838152600160208181526040808420815161014081019092528054825292830180549193928401916118cb90612878565b80601f01602080910402602001604051908101604052809291908181526020018280546118f790612878565b80156119445780601f1061191957610100808354040283529160200191611944565b820191906000526020600020905b81548152906001019060200180831161192757829003601f168201915b5050505050815260200160028201805461195d90612878565b80601f016020809104026020016040519081016040528092919081815260200182805461198990612878565b80156119d65780601f106119ab576101008083540402835291602001916119d6565b820191906000526020600020905b8154815290600101906020018083116119b957829003601f168201915b505050918352505060038281015460209092019160ff16908111156119fd576119fd6125e8565b6003811115611a0e57611a0e6125e8565b81526020016003820160019054906101000a900460ff166003811115611a3657611a366125e8565b6003811115611a4757611a476125e8565b81526004820154602082015260058201546040820152600682015460608201526007909101546001600160a01b0381166080830152600160a01b900460ff16151560a09091015260e081015190915015801590611aa75750428160e00151105b8015611ac95750600281608001516003811115611ac657611ac66125e8565b14155b80156118565750600381608001516003811115611ae857611ae86125e8565b14159250505b50919050565b6000828152600160205260409020600701548290600160a01b900460ff16611b2e5760405162461bcd60e51b81526004016108d190612a62565b6000818152600160205260409020600701546001600160a01b03163314611b675760405162461bcd60e51b81526004016108d190612a8f565b6000838152600160205260409020600380820154610100900460ff16908490811115611b9557611b956125e8565b816003811115611ba757611ba76125e8565b03611c005760405162461bcd60e51b815260206004820152602360248201527f53746174757320697320616c72656164792073657420746f20746869732076616044820152626c756560e81b60648201526084016108d1565b611c0a33826121e3565b611c1433856122e0565b838260030160016101000a81548160ff02191690836003811115611c3a57611c3a6125e8565b02179055504260058301819055604051339187917f7af449c5513ace8082fbf5bc8068c777c02d75162353333ea2b10aeb1ebd063691611c7d9186918a91612b34565b60405180910390a36002846003811115611c9957611c996125e8565b03611cd657604051428152339086907f843af93d40addceac6932508439844b897d4df9e971db326d557e3cdaa9f3ebf9060200160405180910390a35b5050505050565b6001600160a01b0382166000908152600260209081526040808320805482518185028101850190935280835260609493830182828015611d3c57602002820191906000526020600020905b815481526020019060010190808311611d28575b50505050509050600081516001600160401b03811115611d5e57611d5e612455565b604051908082528060200260200182016040528015611d87578160200160208202803683370190505b5090506000805b8351811015611e8f5760016000858381518110611dad57611dad612862565b6020026020010151815260200190815260200160002060070160149054906101000a900460ff168015611e3d5750856003811115611ded57611ded6125e8565b60016000868481518110611e0357611e03612862565b6020026020010151815260200190815260200160002060030160009054906101000a900460ff166003811115611e3b57611e3b6125e8565b145b15611e8757838181518110611e5457611e54612862565b6020026020010151838381518110611e6e57611e6e612862565b602090810291909101015281611e83816128c2565b9250505b600101611d8e565b506000816001600160401b03811115611eaa57611eaa612455565b604051908082528060200260200182016040528015611ed3578160200160208202803683370190505b50905060005b828110156114aa57838181518110611ef357611ef3612862565b6020026020010151828281518110611f0d57611f0d612862565b6020908102919091010152600101611ed9565b6000858152600160205260409020600701548590600160a01b900460ff16611f5a5760405162461bcd60e51b81526004016108d190612a62565b6000818152600160205260409020600701546001600160a01b03163314611f935760405162461bcd60e51b81526004016108d190612a8f565b6000855111611fdc5760405162461bcd60e51b81526020600482015260156024820152745469746c652063616e6e6f7420626520656d70747960581b60448201526064016108d1565b60648551111561202e5760405162461bcd60e51b815260206004820152601e60248201527f5469746c6520746f6f206c6f6e6720286d61782031303020636861727329000060448201526064016108d1565b6101f4845111156120515760405162461bcd60e51b81526004016108d1906128db565b81158061205d57504282115b6120a95760405162461bcd60e51b815260206004820152601e60248201527f4475652064617465206d75737420626520696e2074686520667574757265000060448201526064016108d1565b60008681526001602081905260409091209081016120c7878261296b565b50600281016120d6868261296b565b50838160030160006101000a81548160ff021916908360038111156120fd576120fd6125e8565b0217905550600681018390554260058201819055600382015460405133928a927f7af449c5513ace8082fbf5bc8068c777c02d75162353333ea2b10aeb1ebd0636926121549261010090920460ff16918291612b34565b60405180910390a350505050505050565b6000818152600160205260409020600701548190600160a01b900460ff1661219f5760405162461bcd60e51b81526004016108d190612a62565b6000818152600160205260409020600701546001600160a01b031633146121d85760405162461bcd60e51b81526004016108d190612a8f565b611115826002611af4565b60008160038111156121f7576121f76125e8565b03612229576001600160a01b038216600090815260056020526040812080549161222083612abb565b91905055505050565b600181600381111561223d5761223d6125e8565b03612266576001600160a01b038216600090815260066020526040812080549161222083612abb565b600281600381111561227a5761227a6125e8565b036122a3576001600160a01b038216600090815260046020526040812080549161222083612abb565b60038160038111156122b7576122b76125e8565b03611115576001600160a01b038216600090815260076020526040812080549161222083612abb565b60008160038111156122f4576122f46125e8565b0361231d576001600160a01b0382166000908152600560205260408120805491612220836128c2565b6001816003811115612331576123316125e8565b0361235a576001600160a01b0382166000908152600660205260408120805491612220836128c2565b600281600381111561236e5761236e6125e8565b03612397576001600160a01b0382166000908152600460205260408120805491612220836128c2565b60038160038111156123ab576123ab6125e8565b03611115576001600160a01b0382166000908152600760205260408120805491612220836128c2565b80356001600160a01b03811681146123eb57600080fd5b919050565b60006020828403121561240257600080fd5b61240b826123d4565b9392505050565b602080825282518282018190526000918401906040840190835b8181101561244a57835183526020938401939092019160010161242c565b509095945050505050565b634e487b7160e01b600052604160045260246000fd5b600082601f83011261247c57600080fd5b81356001600160401b0381111561249557612495612455565b604051601f8201601f19908116603f011681016001600160401b03811182821017156124c3576124c3612455565b6040528181528382016020018510156124db57600080fd5b816020850160208301376000918101602001919091529392505050565b6004811061250557600080fd5b50565b6000806000806080858703121561251e57600080fd5b84356001600160401b0381111561253457600080fd5b6125408782880161246b565b94505060208501356001600160401b0381111561255c57600080fd5b6125688782880161246b565b9350506040850135612579816124f8565b9396929550929360600135925050565b60006020828403121561259b57600080fd5b5035919050565b6000815180845260005b818110156125c8576020818501810151868301820152016125ac565b506000602082860101526020601f19601f83011685010191505092915050565b634e487b7160e01b600052602160045260246000fd5b6004811061250557634e487b7160e01b600052602160045260246000fd5b8981526101206020820152600061263761012083018b6125a2565b8281036040840152612649818b6125a2565b915050612655886125fe565b876060830152612664876125fe565b608082019690965260a081019490945260c084019290925260e08301526001600160a01b031661010090910152949350505050565b600080604083850312156126ac57600080fd5b6126b5836123d4565b946020939093013593505050565b6000602082840312156126d557600080fd5b813561240b816124f8565b60208152600061240b60208301846125a2565b6000806040838503121561270657600080fd5b61270f836123d4565b9150602083013561271f816124f8565b809150509250929050565b8a81526101406020820152600061274561014083018c6125a2565b8281036040840152612757818c6125a2565b915050612763896125fe565b886060830152612772886125fe565b608082019790975260a081019590955260c085019390935260e08401919091526001600160a01b0316610100830152151561012090910152949350505050565b600080604083850312156127c557600080fd5b82359150602083013561271f816124f8565b600080600080600060a086880312156127ef57600080fd5b8535945060208601356001600160401b0381111561280c57600080fd5b6128188882890161246b565b94505060408601356001600160401b0381111561283457600080fd5b6128408882890161246b565b9350506060860135612851816124f8565b949793965091946080013592915050565b634e487b7160e01b600052603260045260246000fd5b600181811c9082168061288c57607f821691505b602082108103611aee57634e487b7160e01b600052602260045260246000fd5b634e487b7160e01b600052601160045260246000fd5b6000600182016128d4576128d46128ac565b5060010190565b60208082526024908201527f4465736372697074696f6e20746f6f206c6f6e6720286d6178203530302063686040820152636172732960e01b606082015260800190565b601f82111561296657806000526020600020601f840160051c810160208510156129465750805b601f840160051c820191505b81811015611cd65760008155600101612952565b505050565b81516001600160401b0381111561298457612984612455565b612998816129928454612878565b8461291f565b6020601f8211600181146129cc57600083156129b45750848201515b600019600385901b1c1916600184901b178455611cd6565b600084815260208120601f198516915b828110156129fc57878501518255602094850194600190920191016129dc565b5084821015612a1a5786840151600019600387901b60f8161c191681555b50505050600190811b01905550565b608081526000612a3c60808301876125a2565b9050612a47856125fe565b84602083015283604083015282606083015295945050505050565b60208082526013908201527215185cdac8191bd95cc81b9bdd08195e1a5cdd606a1b604082015260600190565b6020808252601290820152712737ba103a3432903a30b9b59037bbb732b960711b604082015260600190565b600081612aca57612aca6128ac565b506000190190565b818103818111156114b1576114b16128ac565b634e487b7160e01b600052603160045260246000fd5b80820281158282048414176114b1576114b16128ac565b600082612b2f57634e487b7160e01b600052601260045260246000fd5b500490565b60608101612b41856125fe565b848252612b4d846125fe565b60208201939093526040015291905056fea2646970667358221220bea110284005c69ae5abb059da638de3c92fe2d4b39f7eedce597ba8200c894964736f6c634300081c0033",
          "opcodes": "PUSH1 0x80 PUSH1 0x40 MSTORE CALLVALUE DUP1 ISZERO PUSH1 0xF JUMPI PUSH1 0x0 DUP1 REVERT JUMPDEST POP PUSH1 0x0 DUP1 SSTORE PUSH2 0x2B94 DUP1 PUSH2 0x23 PUSH1 0x0 CODECOPY PUSH1 0x0 RETURN INVALID PUSH1 0x80 PUSH1 0x40 MSTORE CALLVALUE DUP1 ISZERO PUSH2 0x10 JUMPI PUSH1 0x0 DUP1 REVERT JUMPDEST POP PUSH1 0x4 CALLDATASIZE LT PUSH2 0x18E JUMPI PUSH1 0x0 CALLDATALOAD PUSH1 0xE0 SHR DUP1 PUSH4 0x94EAF4FA GT PUSH2 0xDE JUMPI DUP1 PUSH4 0xAC444C56 GT PUSH2 0x97 JUMPI DUP1 PUSH4 0xD937963E GT PUSH2 0x71 JUMPI DUP1 PUSH4 0xD937963E EQ PUSH2 0x3FA JUMPI DUP1 PUSH4 0xDDE15728 EQ PUSH2 0x41A JUMPI DUP1 PUSH4 0xDFE6B5D6 EQ PUSH2 0x42D JUMPI DUP1 PUSH4 0xE1E29558 EQ PUSH2 0x44D JUMPI PUSH1 0x0 DUP1 REVERT JUMPDEST DUP1 PUSH4 0xAC444C56 EQ PUSH2 0x3BE JUMPI DUP1 PUSH4 0xC343C410 EQ PUSH2 0x3D1 JUMPI DUP1 PUSH4 0xD22C81E5 EQ PUSH2 0x3F1 JUMPI PUSH1 0x0 DUP1 REVERT JUMPDEST DUP1 PUSH4 0x94EAF4FA EQ PUSH2 0x32F JUMPI DUP1 PUSH4 0x95D57660 EQ PUSH2 0x34F JUMPI DUP1 PUSH4 0x994A0BBA EQ PUSH2 0x362 JUMPI DUP1 PUSH4 0xA3C28BA6 EQ PUSH2 0x375 JUMPI DUP1 PUSH4 0xAB7E91FE EQ PUSH2 0x388 JUMPI DUP1 PUSH4 0xAB9B6811 EQ PUSH2 0x3AB JUMPI PUSH1 0x0 DUP1 REVERT JUMPDEST DUP1 PUSH4 0x5F944326 GT PUSH2 0x14B JUMPI DUP1 PUSH4 0x72EFB531 GT PUSH2 0x125 JUMPI DUP1 PUSH4 0x72EFB531 EQ PUSH2 0x2C0 JUMPI DUP1 PUSH4 0x7EEC20A8 EQ PUSH2 0x2D3 JUMPI DUP1 PUSH4 0x8C90F327 EQ PUSH2 0x2E6 JUMPI DUP1 PUSH4 0x8D977672 EQ PUSH2 0x306 JUMPI PUSH1 0x0 DUP1 REVERT JUMPDEST DUP1 PUSH4 0x5F944326 EQ PUSH2 0x27A JUMPI DUP1 PUSH4 0x66873A55 EQ PUSH2 0x28D JUMPI DUP1 PUSH4 0x6D7B7FC9 EQ PUSH2 0x2A0 JUMPI PUSH1 0x0 DUP1 REVERT JUMPDEST DUP1 PUSH4 0x75A8BBD EQ PUSH2 0x193 JUMPI DUP1 PUSH4 0x12EAD59D EQ PUSH2 0x1BC JUMPI DUP1 PUSH4 0x1D65E77E EQ PUSH2 0x1DD JUMPI DUP1 PUSH4 0x4E43603A EQ PUSH2 0x205 JUMPI DUP1 PUSH4 0x560F3192 EQ PUSH2 0x245 JUMPI DUP1 PUSH4 0x58F9E741 EQ PUSH2 0x25A JUMPI JUMPDEST PUSH1 0x0 DUP1 REVERT JUMPDEST PUSH2 0x1A6 PUSH2 0x1A1 CALLDATASIZE PUSH1 0x4 PUSH2 0x23F0 JUMP JUMPDEST PUSH2 0x460 JUMP JUMPDEST PUSH1 0x40 MLOAD PUSH2 0x1B3 SWAP2 SWAP1 PUSH2 0x2412 JUMP JUMPDEST PUSH1 0x40 MLOAD DUP1 SWAP2 SUB SWAP1 RETURN JUMPDEST PUSH2 0x1CF PUSH2 0x1CA CALLDATASIZE PUSH1 0x4 PUSH2 0x2508 JUMP JUMPDEST PUSH2 0x88B JUMP JUMPDEST PUSH1 0x40 MLOAD SWAP1 DUP2 MSTORE PUSH1 0x20 ADD PUSH2 0x1B3 JUMP JUMPDEST PUSH2 0x1F0 PUSH2 0x1EB CALLDATASIZE PUSH1 0x4 PUSH2 0x2589 JUMP JUMPDEST PUSH2 0xBC5 JUMP JUMPDEST PUSH1 0x40 MLOAD PUSH2 0x1B3 SWAP10 SWAP9 SWAP8 SWAP7 SWAP6 SWAP5 SWAP4 SWAP3 SWAP2 SWAP1 PUSH2 0x261C JUMP JUMPDEST PUSH2 0x218 PUSH2 0x213 CALLDATASIZE PUSH1 0x4 PUSH2 0x23F0 JUMP JUMPDEST PUSH2 0xE80 JUMP JUMPDEST PUSH1 0x40 DUP1 MLOAD SWAP7 DUP8 MSTORE PUSH1 0x20 DUP8 ADD SWAP6 SWAP1 SWAP6 MSTORE SWAP4 DUP6 ADD SWAP3 SWAP1 SWAP3 MSTORE PUSH1 0x60 DUP5 ADD MSTORE PUSH1 0x80 DUP4 ADD MSTORE PUSH1 0xA0 DUP3 ADD MSTORE PUSH1 0xC0 ADD PUSH2 0x1B3 JUMP JUMPDEST PUSH2 0x258 PUSH2 0x253 CALLDATASIZE PUSH1 0x4 PUSH2 0x2589 JUMP JUMPDEST PUSH2 0xED8 JUMP JUMPDEST STOP JUMPDEST PUSH2 0x1CF PUSH2 0x268 CALLDATASIZE PUSH1 0x4 PUSH2 0x23F0 JUMP JUMPDEST PUSH1 0x3 PUSH1 0x20 MSTORE PUSH1 0x0 SWAP1 DUP2 MSTORE PUSH1 0x40 SWAP1 KECCAK256 SLOAD DUP2 JUMP JUMPDEST PUSH2 0x258 PUSH2 0x288 CALLDATASIZE PUSH1 0x4 PUSH2 0x2589 JUMP JUMPDEST PUSH2 0x1097 JUMP JUMPDEST PUSH2 0x1CF PUSH2 0x29B CALLDATASIZE PUSH1 0x4 PUSH2 0x2699 JUMP JUMPDEST PUSH2 0x1119 JUMP JUMPDEST PUSH2 0x2B3 PUSH2 0x2AE CALLDATASIZE PUSH1 0x4 PUSH2 0x26C3 JUMP JUMPDEST PUSH2 0x114A JUMP JUMPDEST PUSH1 0x40 MLOAD PUSH2 0x1B3 SWAP2 SWAP1 PUSH2 0x26E0 JUMP JUMPDEST PUSH2 0x1A6 PUSH2 0x2CE CALLDATASIZE PUSH1 0x4 PUSH2 0x26F3 JUMP JUMPDEST PUSH2 0x1267 JUMP JUMPDEST PUSH2 0x258 PUSH2 0x2E1 CALLDATASIZE PUSH1 0x4 PUSH2 0x2589 JUMP JUMPDEST PUSH2 0x14B7 JUMP JUMPDEST PUSH2 0x1CF PUSH2 0x2F4 CALLDATASIZE PUSH1 0x4 PUSH2 0x23F0 JUMP JUMPDEST PUSH1 0x5 PUSH1 0x20 MSTORE PUSH1 0x0 SWAP1 DUP2 MSTORE PUSH1 0x40 SWAP1 KECCAK256 SLOAD DUP2 JUMP JUMPDEST PUSH2 0x319 PUSH2 0x314 CALLDATASIZE PUSH1 0x4 PUSH2 0x2589 JUMP JUMPDEST PUSH2 0x1535 JUMP JUMPDEST PUSH1 0x40 MLOAD PUSH2 0x1B3 SWAP11 SWAP10 SWAP9 SWAP8 SWAP7 SWAP6 SWAP5 SWAP4 SWAP3 SWAP2 SWAP1 PUSH2 0x272A JUMP JUMPDEST PUSH2 0x1CF PUSH2 0x33D CALLDATASIZE PUSH1 0x4 PUSH2 0x23F0 JUMP JUMPDEST PUSH1 0x6 PUSH1 0x20 MSTORE PUSH1 0x0 SWAP1 DUP2 MSTORE PUSH1 0x40 SWAP1 KECCAK256 SLOAD DUP2 JUMP JUMPDEST PUSH2 0x1A6 PUSH2 0x35D CALLDATASIZE PUSH1 0x4 PUSH2 0x23F0 JUMP JUMPDEST PUSH2 0x16A9 JUMP JUMPDEST PUSH2 0x2B3 PUSH2 0x370 CALLDATASIZE PUSH1 0x4 PUSH2 0x26C3 JUMP JUMPDEST PUSH2 0x1715 JUMP JUMPDEST PUSH2 0x1CF PUSH2 0x383 CALLDATASIZE PUSH1 0x4 PUSH2 0x23F0 JUMP JUMPDEST PUSH2 0x17FE JUMP JUMPDEST PUSH2 0x39B PUSH2 0x396 CALLDATASIZE PUSH1 0x4 PUSH2 0x2589 JUMP JUMPDEST PUSH2 0x185E JUMP JUMPDEST PUSH1 0x40 MLOAD SWAP1 ISZERO ISZERO DUP2 MSTORE PUSH1 0x20 ADD PUSH2 0x1B3 JUMP JUMPDEST PUSH2 0x258 PUSH2 0x3B9 CALLDATASIZE PUSH1 0x4 PUSH2 0x27B2 JUMP JUMPDEST PUSH2 0x1AF4 JUMP JUMPDEST PUSH2 0x1A6 PUSH2 0x3CC CALLDATASIZE PUSH1 0x4 PUSH2 0x26F3 JUMP JUMPDEST PUSH2 0x1CDD JUMP JUMPDEST PUSH2 0x1CF PUSH2 0x3DF CALLDATASIZE PUSH1 0x4 PUSH2 0x23F0 JUMP JUMPDEST PUSH1 0x4 PUSH1 0x20 MSTORE PUSH1 0x0 SWAP1 DUP2 MSTORE PUSH1 0x40 SWAP1 KECCAK256 SLOAD DUP2 JUMP JUMPDEST PUSH2 0x1CF PUSH1 0x0 SLOAD DUP2 JUMP JUMPDEST PUSH2 0x1CF PUSH2 0x408 CALLDATASIZE PUSH1 0x4 PUSH2 0x23F0 JUMP JUMPDEST PUSH1 0x7 PUSH1 0x20 MSTORE PUSH1 0x0 SWAP1 DUP2 MSTORE PUSH1 0x40 SWAP1 KECCAK256 SLOAD DUP2 JUMP JUMPDEST PUSH2 0x258 PUSH2 0x428 CALLDATASIZE PUSH1 0x4 PUSH2 0x27D7 JUMP JUMPDEST PUSH2 0x1F20 JUMP JUMPDEST PUSH1 0x0 DUP1 SLOAD PUSH1 0x40 DUP1 MLOAD SWAP2 DUP3 MSTORE PUSH1 0x20 DUP3 ADD DUP4 SWAP1 MSTORE DUP2 ADD SWAP2 SWAP1 SWAP2 MSTORE PUSH1 0x60 ADD PUSH2 0x1B3 JUMP JUMPDEST PUSH2 0x258 PUSH2 0x45B CALLDATASIZE PUSH1 0x4 PUSH2 0x2589 JUMP JUMPDEST PUSH2 0x2165 JUMP JUMPDEST PUSH1 0x1 PUSH1 0x1 PUSH1 0xA0 SHL SUB DUP2 AND PUSH1 0x0 SWAP1 DUP2 MSTORE PUSH1 0x2 PUSH1 0x20 SWAP1 DUP2 MSTORE PUSH1 0x40 DUP1 DUP4 KECCAK256 DUP1 SLOAD DUP3 MLOAD DUP2 DUP6 MUL DUP2 ADD DUP6 ADD SWAP1 SWAP4 MSTORE DUP1 DUP4 MSTORE PUSH1 0x60 SWAP5 SWAP4 DUP4 ADD DUP3 DUP3 DUP1 ISZERO PUSH2 0x4BF JUMPI PUSH1 0x20 MUL DUP3 ADD SWAP2 SWAP1 PUSH1 0x0 MSTORE PUSH1 0x20 PUSH1 0x0 KECCAK256 SWAP1 JUMPDEST DUP2 SLOAD DUP2 MSTORE PUSH1 0x20 ADD SWAP1 PUSH1 0x1 ADD SWAP1 DUP1 DUP4 GT PUSH2 0x4AB JUMPI JUMPDEST POP POP POP POP POP SWAP1 POP PUSH1 0x0 DUP2 MLOAD PUSH1 0x1 PUSH1 0x1 PUSH1 0x40 SHL SUB DUP2 GT ISZERO PUSH2 0x4E1 JUMPI PUSH2 0x4E1 PUSH2 0x2455 JUMP JUMPDEST PUSH1 0x40 MLOAD SWAP1 DUP1 DUP3 MSTORE DUP1 PUSH1 0x20 MUL PUSH1 0x20 ADD DUP3 ADD PUSH1 0x40 MSTORE DUP1 ISZERO PUSH2 0x50A JUMPI DUP2 PUSH1 0x20 ADD PUSH1 0x20 DUP3 MUL DUP1 CALLDATASIZE DUP4 CALLDATACOPY ADD SWAP1 POP JUMPDEST POP SWAP1 POP PUSH1 0x0 DUP1 JUMPDEST DUP4 MLOAD DUP2 LT ISZERO PUSH2 0x7F0 JUMPI PUSH1 0x0 PUSH1 0x1 PUSH1 0x0 DUP7 DUP5 DUP2 MLOAD DUP2 LT PUSH2 0x532 JUMPI PUSH2 0x532 PUSH2 0x2862 JUMP JUMPDEST PUSH1 0x20 MUL PUSH1 0x20 ADD ADD MLOAD DUP2 MSTORE PUSH1 0x20 ADD SWAP1 DUP2 MSTORE PUSH1 0x20 ADD PUSH1 0x0 KECCAK256 PUSH1 0x40 MLOAD DUP1 PUSH2 0x140 ADD PUSH1 0x40 MSTORE SWAP1 DUP2 PUSH1 0x0 DUP3 ADD SLOAD DUP2 MSTORE PUSH1 0x20 ADD PUSH1 0x1 DUP3 ADD DUP1 SLOAD PUSH2 0x56E SWAP1 PUSH2 0x2878 JUMP JUMPDEST DUP1 PUSH1 0x1F ADD PUSH1 0x20 DUP1 SWAP2 DIV MUL PUSH1 0x20 ADD PUSH1 0x40 MLOAD SWAP1 DUP2 ADD PUSH1 0x40 MSTORE DUP1 SWAP3 SWAP2 SWAP1 DUP2 DUP2 MSTORE PUSH1 0x20 ADD DUP3 DUP1 SLOAD PUSH2 0x59A SWAP1 PUSH2 0x2878 JUMP JUMPDEST DUP1 ISZERO PUSH2 0x5E7 JUMPI DUP1 PUSH1 0x1F LT PUSH2 0x5BC JUMPI PUSH2 0x100 DUP1 DUP4 SLOAD DIV MUL DUP4 MSTORE SWAP2 PUSH1 0x20 ADD SWAP2 PUSH2 0x5E7 JUMP JUMPDEST DUP3 ADD SWAP2 SWAP1 PUSH1 0x0 MSTORE PUSH1 0x20 PUSH1 0x0 KECCAK256 SWAP1 JUMPDEST DUP2 SLOAD DUP2 MSTORE SWAP1 PUSH1 0x1 ADD SWAP1 PUSH1 0x20 ADD DUP1 DUP4 GT PUSH2 0x5CA JUMPI DUP3 SWAP1 SUB PUSH1 0x1F AND DUP3 ADD SWAP2 JUMPDEST POP POP POP POP POP DUP2 MSTORE PUSH1 0x20 ADD PUSH1 0x2 DUP3 ADD DUP1 SLOAD PUSH2 0x600 SWAP1 PUSH2 0x2878 JUMP JUMPDEST DUP1 PUSH1 0x1F ADD PUSH1 0x20 DUP1 SWAP2 DIV MUL PUSH1 0x20 ADD PUSH1 0x40 MLOAD SWAP1 DUP2 ADD PUSH1 0x40 MSTORE DUP1 SWAP3 SWAP2 SWAP1 DUP2 DUP2 MSTORE PUSH1 0x20 ADD DUP3 DUP1 SLOAD PUSH2 0x62C SWAP1 PUSH2 0x2878 JUMP JUMPDEST DUP1 ISZERO PUSH2 0x679 JUMPI DUP1 PUSH1 0x1F LT PUSH2 0x64E JUMPI PUSH2 0x100 DUP1 DUP4 SLOAD DIV MUL DUP4 MSTORE SWAP2 PUSH1 0x20 ADD SWAP2 PUSH2 0x679 JUMP JUMPDEST DUP3 ADD SWAP2 SWAP1 PUSH1 0x0 MSTORE PUSH1 0x20 PUSH1 0x0 KECCAK256 SWAP1 JUMPDEST DUP2 SLOAD DUP2 MSTORE SWAP1 PUSH1 0x1 ADD SWAP1 PUSH1 0x20 ADD DUP1 DUP4 GT PUSH2 0x65C JUMPI DUP3 SWAP1 SUB PUSH1 0x1F AND DUP3 ADD SWAP2 JUMPDEST POP POP POP SWAP2 DUP4 MSTORE POP POP PUSH1 0x3 DUP3 DUP2 ADD SLOAD PUSH1 0x20 SWAP1 SWAP3 ADD SWAP2 PUSH1 0xFF AND SWAP1 DUP2 GT ISZERO PUSH2 0x6A0 JUMPI PUSH2 0x6A0 PUSH2 0x25E8 JUMP JUMPDEST PUSH1 0x3 DUP2 GT ISZERO PUSH2 0x6B1 JUMPI PUSH2 0x6B1 PUSH2 0x25E8 JUMP JUMPDEST DUP2 MSTORE PUSH1 0x20 ADD PUSH1 0x3 DUP3 ADD PUSH1 0x1 SWAP1 SLOAD SWAP1 PUSH2 0x100 EXP SWAP1 DIV PUSH1 0xFF AND PUSH1 0x3 DUP2 GT ISZERO PUSH2 0x6D9 JUMPI PUSH2 0x6D9 PUSH2 0x25E8 JUMP JUMPDEST PUSH1 0x3 DUP2 GT ISZERO PUSH2 0x6EA JUMPI PUSH2 0x6EA PUSH2 0x25E8 JUMP JUMPDEST DUP2 MSTORE PUSH1 0x4 DUP3 ADD SLOAD PUSH1 0x20 DUP3 ADD MSTORE PUSH1 0x5 DUP3 ADD SLOAD PUSH1 0x40 DUP3 ADD MSTORE PUSH1 0x6 DUP3 ADD SLOAD PUSH1 0x60 DUP3 ADD MSTORE PUSH1 0x7 SWAP1 SWAP2 ADD SLOAD PUSH1 0x1 PUSH1 0x1 PUSH1 0xA0 SHL SUB DUP2 AND PUSH1 0x80 DUP4 ADD MSTORE PUSH1 0x1 PUSH1 0xA0 SHL SWAP1 DIV PUSH1 0xFF AND ISZERO ISZERO PUSH1 0xA0 SWAP1 SWAP2 ADD MSTORE PUSH2 0x120 DUP2 ADD MLOAD SWAP1 SWAP2 POP DUP1 ISZERO PUSH2 0x74A JUMPI POP PUSH1 0x0 DUP2 PUSH1 0xE0 ADD MLOAD GT JUMPDEST DUP1 ISZERO PUSH2 0x759 JUMPI POP TIMESTAMP DUP2 PUSH1 0xE0 ADD MLOAD LT JUMPDEST DUP1 ISZERO PUSH2 0x77B JUMPI POP PUSH1 0x2 DUP2 PUSH1 0x80 ADD MLOAD PUSH1 0x3 DUP2 GT ISZERO PUSH2 0x778 JUMPI PUSH2 0x778 PUSH2 0x25E8 JUMP JUMPDEST EQ ISZERO JUMPDEST DUP1 ISZERO PUSH2 0x79D JUMPI POP PUSH1 0x3 DUP2 PUSH1 0x80 ADD MLOAD PUSH1 0x3 DUP2 GT ISZERO PUSH2 0x79A JUMPI PUSH2 0x79A PUSH2 0x25E8 JUMP JUMPDEST EQ ISZERO JUMPDEST ISZERO PUSH2 0x7E7 JUMPI DUP5 DUP3 DUP2 MLOAD DUP2 LT PUSH2 0x7B4 JUMPI PUSH2 0x7B4 PUSH2 0x2862 JUMP JUMPDEST PUSH1 0x20 MUL PUSH1 0x20 ADD ADD MLOAD DUP5 DUP5 DUP2 MLOAD DUP2 LT PUSH2 0x7CE JUMPI PUSH2 0x7CE PUSH2 0x2862 JUMP JUMPDEST PUSH1 0x20 SWAP1 DUP2 MUL SWAP2 SWAP1 SWAP2 ADD ADD MSTORE DUP3 PUSH2 0x7E3 DUP2 PUSH2 0x28C2 JUMP JUMPDEST SWAP4 POP POP JUMPDEST POP PUSH1 0x1 ADD PUSH2 0x511 JUMP JUMPDEST POP PUSH1 0x0 DUP2 PUSH1 0x1 PUSH1 0x1 PUSH1 0x40 SHL SUB DUP2 GT ISZERO PUSH2 0x80B JUMPI PUSH2 0x80B PUSH2 0x2455 JUMP JUMPDEST PUSH1 0x40 MLOAD SWAP1 DUP1 DUP3 MSTORE DUP1 PUSH1 0x20 MUL PUSH1 0x20 ADD DUP3 ADD PUSH1 0x40 MSTORE DUP1 ISZERO PUSH2 0x834 JUMPI DUP2 PUSH1 0x20 ADD PUSH1 0x20 DUP3 MUL DUP1 CALLDATASIZE DUP4 CALLDATACOPY ADD SWAP1 POP JUMPDEST POP SWAP1 POP PUSH1 0x0 JUMPDEST DUP3 DUP2 LT ISZERO PUSH2 0x881 JUMPI DUP4 DUP2 DUP2 MLOAD DUP2 LT PUSH2 0x854 JUMPI PUSH2 0x854 PUSH2 0x2862 JUMP JUMPDEST PUSH1 0x20 MUL PUSH1 0x20 ADD ADD MLOAD DUP3 DUP3 DUP2 MLOAD DUP2 LT PUSH2 0x86E JUMPI PUSH2 0x86E PUSH2 0x2862 JUMP JUMPDEST PUSH1 0x20 SWAP1 DUP2 MUL SWAP2 SWAP1 SWAP2 ADD ADD MSTORE PUSH1 0x1 ADD PUSH2 0x83A JUMP JUMPDEST POP SWAP6 SWAP5 POP POP POP POP POP JUMP JUMPDEST PUSH1 0x0 DUP1 DUP6 MLOAD GT PUSH2 0x8DA JUMPI PUSH1 0x40 MLOAD PUSH3 0x461BCD PUSH1 0xE5 SHL DUP2 MSTORE PUSH1 0x20 PUSH1 0x4 DUP3 ADD MSTORE PUSH1 0x15 PUSH1 0x24 DUP3 ADD MSTORE PUSH21 0x5469746C652063616E6E6F7420626520656D707479 PUSH1 0x58 SHL PUSH1 0x44 DUP3 ADD MSTORE PUSH1 0x64 ADD JUMPDEST PUSH1 0x40 MLOAD DUP1 SWAP2 SUB SWAP1 REVERT JUMPDEST PUSH1 0x64 DUP6 MLOAD GT ISZERO PUSH2 0x92C JUMPI PUSH1 0x40 MLOAD PUSH3 0x461BCD PUSH1 0xE5 SHL DUP2 MSTORE PUSH1 0x20 PUSH1 0x4 DUP3 ADD MSTORE PUSH1 0x1E PUSH1 0x24 DUP3 ADD MSTORE PUSH32 0x5469746C6520746F6F206C6F6E6720286D617820313030206368617273290000 PUSH1 0x44 DUP3 ADD MSTORE PUSH1 0x64 ADD PUSH2 0x8D1 JUMP JUMPDEST PUSH2 0x1F4 DUP5 MLOAD GT ISZERO PUSH2 0x94F JUMPI PUSH1 0x40 MLOAD PUSH3 0x461BCD PUSH1 0xE5 SHL DUP2 MSTORE PUSH1 0x4 ADD PUSH2 0x8D1 SWAP1 PUSH2 0x28DB JUMP JUMPDEST DUP2 ISZERO DUP1 PUSH2 0x95B JUMPI POP TIMESTAMP DUP3 GT JUMPDEST PUSH2 0x9A7 JUMPI PUSH1 0x40 MLOAD PUSH3 0x461BCD PUSH1 0xE5 SHL DUP2 MSTORE PUSH1 0x20 PUSH1 0x4 DUP3 ADD MSTORE PUSH1 0x1E PUSH1 0x24 DUP3 ADD MSTORE PUSH32 0x4475652064617465206D75737420626520696E20746865206675747572650000 PUSH1 0x44 DUP3 ADD MSTORE PUSH1 0x64 ADD PUSH2 0x8D1 JUMP JUMPDEST PUSH1 0x0 DUP1 SLOAD SWAP1 DUP1 PUSH2 0x9B6 DUP4 PUSH2 0x28C2 JUMP JUMPDEST SWAP2 SWAP1 POP SSTORE POP PUSH1 0x0 DUP1 SLOAD SWAP1 POP PUSH1 0x40 MLOAD DUP1 PUSH2 0x140 ADD PUSH1 0x40 MSTORE DUP1 DUP3 DUP2 MSTORE PUSH1 0x20 ADD DUP8 DUP2 MSTORE PUSH1 0x20 ADD DUP7 DUP2 MSTORE PUSH1 0x20 ADD DUP6 PUSH1 0x3 DUP2 GT ISZERO PUSH2 0x9F1 JUMPI PUSH2 0x9F1 PUSH2 0x25E8 JUMP JUMPDEST DUP2 MSTORE PUSH1 0x20 ADD PUSH1 0x0 DUP2 MSTORE TIMESTAMP PUSH1 0x20 DUP1 DUP4 ADD DUP3 SWAP1 MSTORE PUSH1 0x40 DUP1 DUP5 ADD SWAP3 SWAP1 SWAP3 MSTORE PUSH1 0x60 DUP4 ADD DUP8 SWAP1 MSTORE CALLER PUSH1 0x80 DUP5 ADD MSTORE PUSH1 0x1 PUSH1 0xA0 SWAP1 SWAP4 ADD DUP4 SWAP1 MSTORE PUSH1 0x0 DUP6 DUP2 MSTORE DUP4 DUP3 MSTORE SWAP2 SWAP1 SWAP2 KECCAK256 DUP4 MLOAD DUP2 SSTORE SWAP1 DUP4 ADD MLOAD SWAP1 SWAP2 DUP3 ADD SWAP1 PUSH2 0xA46 SWAP1 DUP3 PUSH2 0x296B JUMP JUMPDEST POP PUSH1 0x40 DUP3 ADD MLOAD PUSH1 0x2 DUP3 ADD SWAP1 PUSH2 0xA5B SWAP1 DUP3 PUSH2 0x296B JUMP JUMPDEST POP PUSH1 0x60 DUP3 ADD MLOAD DUP2 PUSH1 0x3 ADD PUSH1 0x0 PUSH2 0x100 EXP DUP2 SLOAD DUP2 PUSH1 0xFF MUL NOT AND SWAP1 DUP4 PUSH1 0x3 DUP2 GT ISZERO PUSH2 0xA86 JUMPI PUSH2 0xA86 PUSH2 0x25E8 JUMP JUMPDEST MUL OR SWAP1 SSTORE POP PUSH1 0x80 DUP3 ADD MLOAD DUP2 PUSH1 0x3 ADD PUSH1 0x1 PUSH2 0x100 EXP DUP2 SLOAD DUP2 PUSH1 0xFF MUL NOT AND SWAP1 DUP4 PUSH1 0x3 DUP2 GT ISZERO PUSH2 0xAB5 JUMPI PUSH2 0xAB5 PUSH2 0x25E8 JUMP JUMPDEST MUL OR SWAP1 SSTORE POP PUSH1 0xA0 DUP3 ADD MLOAD PUSH1 0x4 DUP3 ADD SSTORE PUSH1 0xC0 DUP3 ADD MLOAD PUSH1 0x5 DUP3 ADD SSTORE PUSH1 0xE0 DUP3 ADD MLOAD PUSH1 0x6 DUP3 ADD SSTORE PUSH2 0x100 DUP3 ADD MLOAD PUSH1 0x7 SWAP1 SWAP2 ADD DUP1 SLOAD PUSH2 0x120 SWAP1 SWAP4 ADD MLOAD ISZERO ISZERO PUSH1 0x1 PUSH1 0xA0 SHL MUL PUSH1 0x1 PUSH1 0x1 PUSH1 0xA8 SHL SUB NOT SWAP1 SWAP4 AND PUSH1 0x1 PUSH1 0x1 PUSH1 0xA0 SHL SUB SWAP1 SWAP3 AND SWAP2 SWAP1 SWAP2 OR SWAP2 SWAP1 SWAP2 OR SWAP1 SSTORE CALLER PUSH1 0x0 DUP2 DUP2 MSTORE PUSH1 0x2 PUSH1 0x20 SWAP1 DUP2 MSTORE PUSH1 0x40 DUP1 DUP4 KECCAK256 DUP1 SLOAD PUSH1 0x1 DUP2 ADD DUP3 SSTORE SWAP1 DUP5 MSTORE DUP3 DUP5 KECCAK256 ADD DUP6 SWAP1 SSTORE SWAP3 DUP3 MSTORE PUSH1 0x3 SWAP1 MSTORE SWAP1 DUP2 KECCAK256 DUP1 SLOAD SWAP2 PUSH2 0xB4F DUP4 PUSH2 0x28C2 JUMP JUMPDEST SWAP1 SWAP2 SSTORE POP POP CALLER PUSH1 0x0 SWAP1 DUP2 MSTORE PUSH1 0x5 PUSH1 0x20 MSTORE PUSH1 0x40 DUP2 KECCAK256 DUP1 SLOAD SWAP2 PUSH2 0xB6F DUP4 PUSH2 0x28C2 JUMP JUMPDEST SWAP2 SWAP1 POP SSTORE POP CALLER PUSH1 0x1 PUSH1 0x1 PUSH1 0xA0 SHL SUB AND DUP2 PUSH32 0x8086434E0886A8185730499F2E829CA81C9DC4A2186489EFC9EC33827134FDBE DUP9 DUP8 DUP8 TIMESTAMP PUSH1 0x40 MLOAD PUSH2 0xBB4 SWAP5 SWAP4 SWAP3 SWAP2 SWAP1 PUSH2 0x2A29 JUMP JUMPDEST PUSH1 0x40 MLOAD DUP1 SWAP2 SUB SWAP1 LOG3 SWAP6 SWAP5 POP POP POP POP POP JUMP JUMPDEST PUSH1 0x0 PUSH1 0x60 DUP1 PUSH1 0x0 DUP1 PUSH1 0x0 DUP1 PUSH1 0x0 DUP1 DUP10 PUSH1 0x1 PUSH1 0x0 DUP3 DUP2 MSTORE PUSH1 0x20 ADD SWAP1 DUP2 MSTORE PUSH1 0x20 ADD PUSH1 0x0 KECCAK256 PUSH1 0x7 ADD PUSH1 0x14 SWAP1 SLOAD SWAP1 PUSH2 0x100 EXP SWAP1 DIV PUSH1 0xFF AND PUSH2 0xC14 JUMPI PUSH1 0x40 MLOAD PUSH3 0x461BCD PUSH1 0xE5 SHL DUP2 MSTORE PUSH1 0x4 ADD PUSH2 0x8D1 SWAP1 PUSH2 0x2A62 JUMP JUMPDEST PUSH1 0x0 DUP12 DUP2 MSTORE PUSH1 0x1 PUSH1 0x20 DUP2 DUP2 MSTORE PUSH1 0x40 DUP1 DUP5 KECCAK256 DUP2 MLOAD PUSH2 0x140 DUP2 ADD SWAP1 SWAP3 MSTORE DUP1 SLOAD DUP3 MSTORE SWAP3 DUP4 ADD DUP1 SLOAD SWAP2 SWAP4 SWAP3 DUP5 ADD SWAP2 PUSH2 0xC47 SWAP1 PUSH2 0x2878 JUMP JUMPDEST DUP1 PUSH1 0x1F ADD PUSH1 0x20 DUP1 SWAP2 DIV MUL PUSH1 0x20 ADD PUSH1 0x40 MLOAD SWAP1 DUP2 ADD PUSH1 0x40 MSTORE DUP1 SWAP3 SWAP2 SWAP1 DUP2 DUP2 MSTORE PUSH1 0x20 ADD DUP3 DUP1 SLOAD PUSH2 0xC73 SWAP1 PUSH2 0x2878 JUMP JUMPDEST DUP1 ISZERO PUSH2 0xCC0 JUMPI DUP1 PUSH1 0x1F LT PUSH2 0xC95 JUMPI PUSH2 0x100 DUP1 DUP4 SLOAD DIV MUL DUP4 MSTORE SWAP2 PUSH1 0x20 ADD SWAP2 PUSH2 0xCC0 JUMP JUMPDEST DUP3 ADD SWAP2 SWAP1 PUSH1 0x0 MSTORE PUSH1 0x20 PUSH1 0x0 KECCAK256 SWAP1 JUMPDEST DUP2 SLOAD DUP2 MSTORE SWAP1 PUSH1 0x1 ADD SWAP1 PUSH1 0x20 ADD DUP1 DUP4 GT PUSH2 0xCA3 JUMPI DUP3 SWAP1 SUB PUSH1 0x1F AND DUP3 ADD SWAP2 JUMPDEST POP POP POP POP POP DUP2 MSTORE PUSH1 0x20 ADD PUSH1 0x2 DUP3 ADD DUP1 SLOAD PUSH2 0xCD9 SWAP1 PUSH2 0x2878 JUMP JUMPDEST DUP1 PUSH1 0x1F ADD PUSH1 0x20 DUP1 SWAP2 DIV MUL PUSH1 0x20 ADD PUSH1 0x40 MLOAD SWAP1 DUP2 ADD PUSH1 0x40 MSTORE DUP1 SWAP3 SWAP2 SWAP1 DUP2 DUP2 MSTORE PUSH1 0x20 ADD DUP3 DUP1 SLOAD PUSH2 0xD05 SWAP1 PUSH2 0x2878 JUMP JUMPDEST DUP1 ISZERO PUSH2 0xD52 JUMPI DUP1 PUSH1 0x1F LT PUSH2 0xD27 JUMPI PUSH2 0x100 DUP1 DUP4 SLOAD DIV MUL DUP4 MSTORE SWAP2 PUSH1 0x20 ADD SWAP2 PUSH2 0xD52 JUMP JUMPDEST DUP3 ADD SWAP2 SWAP1 PUSH1 0x0 MSTORE PUSH1 0x20 PUSH1 0x0 KECCAK256 SWAP1 JUMPDEST DUP2 SLOAD DUP2 MSTORE SWAP1 PUSH1 0x1 ADD SWAP1 PUSH1 0x20 ADD DUP1 DUP4 GT PUSH2 0xD35 JUMPI DUP3 SWAP1 SUB PUSH1 0x1F AND DUP3 ADD SWAP2 JUMPDEST POP POP POP SWAP2 DUP4 MSTORE POP POP PUSH1 0x3 DUP3 DUP2 ADD SLOAD PUSH1 0x20 SWAP1 SWAP3 ADD SWAP2 PUSH1 0xFF AND SWAP1 DUP2 GT ISZERO PUSH2 0xD79 JUMPI PUSH2 0xD79 PUSH2 0x25E8 JUMP JUMPDEST PUSH1 0x3 DUP2 GT ISZERO PUSH2 0xD8A JUMPI PUSH2 0xD8A PUSH2 0x25E8 JUMP JUMPDEST DUP2 MSTORE PUSH1 0x20 ADD PUSH1 0x3 DUP3 ADD PUSH1 0x1 SWAP1 SLOAD SWAP1 PUSH2 0x100 EXP SWAP1 DIV PUSH1 0xFF AND PUSH1 0x3 DUP2 GT ISZERO PUSH2 0xDB2 JUMPI PUSH2 0xDB2 PUSH2 0x25E8 JUMP JUMPDEST PUSH1 0x3 DUP2 GT ISZERO PUSH2 0xDC3 JUMPI PUSH2 0xDC3 PUSH2 0x25E8 JUMP JUMPDEST DUP2 MSTORE PUSH1 0x20 ADD PUSH1 0x4 DUP3 ADD SLOAD DUP2 MSTORE PUSH1 0x20 ADD PUSH1 0x5 DUP3 ADD SLOAD DUP2 MSTORE PUSH1 0x20 ADD PUSH1 0x6 DUP3 ADD SLOAD DUP2 MSTORE PUSH1 0x20 ADD PUSH1 0x7 DUP3 ADD PUSH1 0x0 SWAP1 SLOAD SWAP1 PUSH2 0x100 EXP SWAP1 DIV PUSH1 0x1 PUSH1 0x1 PUSH1 0xA0 SHL SUB AND PUSH1 0x1 PUSH1 0x1 PUSH1 0xA0 SHL SUB AND PUSH1 0x1 PUSH1 0x1 PUSH1 0xA0 SHL SUB AND DUP2 MSTORE PUSH1 0x20 ADD PUSH1 0x7 DUP3 ADD PUSH1 0x14 SWAP1 SLOAD SWAP1 PUSH2 0x100 EXP SWAP1 DIV PUSH1 0xFF AND ISZERO ISZERO ISZERO ISZERO DUP2 MSTORE POP POP SWAP1 POP DUP1 PUSH1 0x0 ADD MLOAD DUP2 PUSH1 0x20 ADD MLOAD DUP3 PUSH1 0x40 ADD MLOAD DUP4 PUSH1 0x60 ADD MLOAD DUP5 PUSH1 0x80 ADD MLOAD DUP6 PUSH1 0xA0 ADD MLOAD DUP7 PUSH1 0xC0 ADD MLOAD DUP8 PUSH1 0xE0 ADD MLOAD DUP9 PUSH2 0x100 ADD MLOAD SWAP11 POP SWAP11 POP SWAP11 POP SWAP11 POP SWAP11 POP SWAP11 POP SWAP11 POP SWAP11 POP SWAP11 POP POP POP SWAP2 SWAP4 SWAP6 SWAP8 SWAP10 SWAP1 SWAP3 SWAP5 SWAP7 SWAP9 POP JUMP JUMPDEST PUSH1 0x1 PUSH1 0x1 PUSH1 0xA0 SHL SUB DUP2 AND PUSH1 0x0 SWAP1 DUP2 MSTORE PUSH1 0x3 PUSH1 0x20 SWAP1 DUP2 MSTORE PUSH1 0x40 DUP1 DUP4 KECCAK256 SLOAD PUSH1 0x4 DUP4 MSTORE DUP2 DUP5 KECCAK256 SLOAD PUSH1 0x5 DUP5 MSTORE DUP3 DUP6 KECCAK256 SLOAD PUSH1 0x6 DUP6 MSTORE DUP4 DUP7 KECCAK256 SLOAD PUSH1 0x7 SWAP1 SWAP6 MSTORE SWAP3 DUP6 KECCAK256 SLOAD SWAP2 SWAP5 SWAP1 SWAP4 SWAP2 SWAP1 PUSH2 0xECC DUP8 PUSH2 0x460 JUMP JUMPDEST MLOAD SWAP1 POP SWAP2 SWAP4 SWAP6 POP SWAP2 SWAP4 SWAP6 JUMP JUMPDEST PUSH1 0x0 DUP2 DUP2 MSTORE PUSH1 0x1 PUSH1 0x20 MSTORE PUSH1 0x40 SWAP1 KECCAK256 PUSH1 0x7 ADD SLOAD DUP2 SWAP1 PUSH1 0x1 PUSH1 0xA0 SHL SWAP1 DIV PUSH1 0xFF AND PUSH2 0xF12 JUMPI PUSH1 0x40 MLOAD PUSH3 0x461BCD PUSH1 0xE5 SHL DUP2 MSTORE PUSH1 0x4 ADD PUSH2 0x8D1 SWAP1 PUSH2 0x2A62 JUMP JUMPDEST PUSH1 0x0 DUP2 DUP2 MSTORE PUSH1 0x1 PUSH1 0x20 MSTORE PUSH1 0x40 SWAP1 KECCAK256 PUSH1 0x7 ADD SLOAD PUSH1 0x1 PUSH1 0x1 PUSH1 0xA0 SHL SUB AND CALLER EQ PUSH2 0xF4B JUMPI PUSH1 0x40 MLOAD PUSH3 0x461BCD PUSH1 0xE5 SHL DUP2 MSTORE PUSH1 0x4 ADD PUSH2 0x8D1 SWAP1 PUSH2 0x2A8F JUMP JUMPDEST PUSH1 0x0 DUP3 DUP2 MSTORE PUSH1 0x1 PUSH1 0x20 MSTORE PUSH1 0x40 SWAP1 KECCAK256 PUSH1 0x3 DUP2 ADD SLOAD PUSH2 0xF71 SWAP1 CALLER SWAP1 PUSH2 0x100 SWAP1 DIV PUSH1 0xFF AND PUSH2 0x21E3 JUMP JUMPDEST CALLER PUSH1 0x0 SWAP1 DUP2 MSTORE PUSH1 0x3 PUSH1 0x20 MSTORE PUSH1 0x40 DUP2 KECCAK256 DUP1 SLOAD SWAP2 PUSH2 0xF8C DUP4 PUSH2 0x2ABB JUMP JUMPDEST SWAP1 SWAP2 SSTORE POP POP CALLER PUSH1 0x0 SWAP1 DUP2 MSTORE PUSH1 0x2 PUSH1 0x20 MSTORE PUSH1 0x40 DUP2 KECCAK256 SWAP1 JUMPDEST DUP2 SLOAD DUP2 LT ISZERO PUSH2 0x104C JUMPI DUP5 DUP3 DUP3 DUP2 SLOAD DUP2 LT PUSH2 0xFBE JUMPI PUSH2 0xFBE PUSH2 0x2862 JUMP JUMPDEST SWAP1 PUSH1 0x0 MSTORE PUSH1 0x20 PUSH1 0x0 KECCAK256 ADD SLOAD SUB PUSH2 0x1044 JUMPI DUP2 SLOAD DUP3 SWAP1 PUSH2 0xFDE SWAP1 PUSH1 0x1 SWAP1 PUSH2 0x2AD2 JUMP JUMPDEST DUP2 SLOAD DUP2 LT PUSH2 0xFEE JUMPI PUSH2 0xFEE PUSH2 0x2862 JUMP JUMPDEST SWAP1 PUSH1 0x0 MSTORE PUSH1 0x20 PUSH1 0x0 KECCAK256 ADD SLOAD DUP3 DUP3 DUP2 SLOAD DUP2 LT PUSH2 0x100B JUMPI PUSH2 0x100B PUSH2 0x2862 JUMP JUMPDEST SWAP1 PUSH1 0x0 MSTORE PUSH1 0x20 PUSH1 0x0 KECCAK256 ADD DUP2 SWAP1 SSTORE POP DUP2 DUP1 SLOAD DUP1 PUSH2 0x1029 JUMPI PUSH2 0x1029 PUSH2 0x2AE5 JUMP JUMPDEST PUSH1 0x1 SWAP1 SUB DUP2 DUP2 SWAP1 PUSH1 0x0 MSTORE PUSH1 0x20 PUSH1 0x0 KECCAK256 ADD PUSH1 0x0 SWAP1 SSTORE SWAP1 SSTORE PUSH2 0x104C JUMP JUMPDEST PUSH1 0x1 ADD PUSH2 0xFA2 JUMP JUMPDEST POP PUSH1 0x40 MLOAD TIMESTAMP DUP2 MSTORE CALLER SWAP1 DUP6 SWAP1 PUSH32 0x752DDE00495A9FDA916C836F0F9E13B19EDAC46A7EEBEF960AA0A5CDB7736CA SWAP1 PUSH1 0x20 ADD PUSH1 0x40 MLOAD DUP1 SWAP2 SUB SWAP1 LOG3 POP PUSH1 0x7 ADD DUP1 SLOAD PUSH1 0xFF PUSH1 0xA0 SHL NOT AND SWAP1 SSTORE POP POP JUMP JUMPDEST PUSH1 0x0 DUP2 DUP2 MSTORE PUSH1 0x1 PUSH1 0x20 MSTORE PUSH1 0x40 SWAP1 KECCAK256 PUSH1 0x7 ADD SLOAD DUP2 SWAP1 PUSH1 0x1 PUSH1 0xA0 SHL SWAP1 DIV PUSH1 0xFF AND PUSH2 0x10D1 JUMPI PUSH1 0x40 MLOAD PUSH3 0x461BCD PUSH1 0xE5 SHL DUP2 MSTORE PUSH1 0x4 ADD PUSH2 0x8D1 SWAP1 PUSH2 0x2A62 JUMP JUMPDEST PUSH1 0x0 DUP2 DUP2 MSTORE PUSH1 0x1 PUSH1 0x20 MSTORE PUSH1 0x40 SWAP1 KECCAK256 PUSH1 0x7 ADD SLOAD PUSH1 0x1 PUSH1 0x1 PUSH1 0xA0 SHL SUB AND CALLER EQ PUSH2 0x110A JUMPI PUSH1 0x40 MLOAD PUSH3 0x461BCD PUSH1 0xE5 SHL DUP2 MSTORE PUSH1 0x4 ADD PUSH2 0x8D1 SWAP1 PUSH2 0x2A8F JUMP JUMPDEST PUSH2 0x1115 DUP3 PUSH1 0x1 PUSH2 0x1AF4 JUMP JUMPDEST POP POP JUMP JUMPDEST PUSH1 0x2 PUSH1 0x20 MSTORE DUP2 PUSH1 0x0 MSTORE PUSH1 0x40 PUSH1 0x0 KECCAK256 DUP2 DUP2 SLOAD DUP2 LT PUSH2 0x1135 JUMPI PUSH1 0x0 DUP1 REVERT JUMPDEST SWAP1 PUSH1 0x0 MSTORE PUSH1 0x20 PUSH1 0x0 KECCAK256 ADD PUSH1 0x0 SWAP2 POP SWAP2 POP POP SLOAD DUP2 JUMP JUMPDEST PUSH1 0x60 PUSH1 0x0 DUP3 PUSH1 0x3 DUP2 GT ISZERO PUSH2 0x1160 JUMPI PUSH2 0x1160 PUSH2 0x25E8 JUMP JUMPDEST SUB PUSH2 0x1188 JUMPI POP POP PUSH1 0x40 DUP1 MLOAD DUP1 DUP3 ADD SWAP1 SWAP2 MSTORE PUSH1 0x7 DUP2 MSTORE PUSH7 0x50656E64696E67 PUSH1 0xC8 SHL PUSH1 0x20 DUP3 ADD MSTORE SWAP1 JUMP JUMPDEST PUSH1 0x1 DUP3 PUSH1 0x3 DUP2 GT ISZERO PUSH2 0x119C JUMPI PUSH2 0x119C PUSH2 0x25E8 JUMP JUMPDEST SUB PUSH2 0x11C8 JUMPI POP POP PUSH1 0x40 DUP1 MLOAD DUP1 DUP3 ADD SWAP1 SWAP2 MSTORE PUSH1 0xB DUP2 MSTORE PUSH11 0x496E2050726F6772657373 PUSH1 0xA8 SHL PUSH1 0x20 DUP3 ADD MSTORE SWAP1 JUMP JUMPDEST PUSH1 0x2 DUP3 PUSH1 0x3 DUP2 GT ISZERO PUSH2 0x11DC JUMPI PUSH2 0x11DC PUSH2 0x25E8 JUMP JUMPDEST SUB PUSH2 0x1206 JUMPI POP POP PUSH1 0x40 DUP1 MLOAD DUP1 DUP3 ADD SWAP1 SWAP2 MSTORE PUSH1 0x9 DUP2 MSTORE PUSH9 0x10DBDB5C1B195D1959 PUSH1 0xBA SHL PUSH1 0x20 DUP3 ADD MSTORE SWAP1 JUMP JUMPDEST PUSH1 0x3 DUP3 PUSH1 0x3 DUP2 GT ISZERO PUSH2 0x121A JUMPI PUSH2 0x121A PUSH2 0x25E8 JUMP JUMPDEST SUB PUSH2 0x1244 JUMPI POP POP PUSH1 0x40 DUP1 MLOAD DUP1 DUP3 ADD SWAP1 SWAP2 MSTORE PUSH1 0x9 DUP2 MSTORE PUSH9 0x10D85B98D95B1B1959 PUSH1 0xBA SHL PUSH1 0x20 DUP3 ADD MSTORE SWAP1 JUMP JUMPDEST POP POP PUSH1 0x40 DUP1 MLOAD DUP1 DUP3 ADD SWAP1 SWAP2 MSTORE PUSH1 0x7 DUP2 MSTORE PUSH7 0x2AB735B737BBB7 PUSH1 0xC9 SHL PUSH1 0x20 DUP3 ADD MSTORE SWAP1 JUMP JUMPDEST PUSH1 0x1 PUSH1 0x1 PUSH1 0xA0 SHL SUB DUP3 AND PUSH1 0x0 SWAP1 DUP2 MSTORE PUSH1 0x2 PUSH1 0x20 SWAP1 DUP2 MSTORE PUSH1 0x40 DUP1 DUP4 KECCAK256 DUP1 SLOAD DUP3 MLOAD DUP2 DUP6 MUL DUP2 ADD DUP6 ADD SWAP1 SWAP4 MSTORE DUP1 DUP4 MSTORE PUSH1 0x60 SWAP5 SWAP4 DUP4 ADD DUP3 DUP3 DUP1 ISZERO PUSH2 0x12C6 JUMPI PUSH1 0x20 MUL DUP3 ADD SWAP2 SWAP1 PUSH1 0x0 MSTORE PUSH1 0x20 PUSH1 0x0 KECCAK256 SWAP1 JUMPDEST DUP2 SLOAD DUP2 MSTORE PUSH1 0x20 ADD SWAP1 PUSH1 0x1 ADD SWAP1 DUP1 DUP4 GT PUSH2 0x12B2 JUMPI JUMPDEST POP POP POP POP POP SWAP1 POP PUSH1 0x0 DUP2 MLOAD PUSH1 0x1 PUSH1 0x1 PUSH1 0x40 SHL SUB DUP2 GT ISZERO PUSH2 0x12E8 JUMPI PUSH2 0x12E8 PUSH2 0x2455 JUMP JUMPDEST PUSH1 0x40 MLOAD SWAP1 DUP1 DUP3 MSTORE DUP1 PUSH1 0x20 MUL PUSH1 0x20 ADD DUP3 ADD PUSH1 0x40 MSTORE DUP1 ISZERO PUSH2 0x1311 JUMPI DUP2 PUSH1 0x20 ADD PUSH1 0x20 DUP3 MUL DUP1 CALLDATASIZE DUP4 CALLDATACOPY ADD SWAP1 POP JUMPDEST POP SWAP1 POP PUSH1 0x0 DUP1 JUMPDEST DUP4 MLOAD DUP2 LT ISZERO PUSH2 0x1419 JUMPI PUSH1 0x1 PUSH1 0x0 DUP6 DUP4 DUP2 MLOAD DUP2 LT PUSH2 0x1337 JUMPI PUSH2 0x1337 PUSH2 0x2862 JUMP JUMPDEST PUSH1 0x20 MUL PUSH1 0x20 ADD ADD MLOAD DUP2 MSTORE PUSH1 0x20 ADD SWAP1 DUP2 MSTORE PUSH1 0x20 ADD PUSH1 0x0 KECCAK256 PUSH1 0x7 ADD PUSH1 0x14 SWAP1 SLOAD SWAP1 PUSH2 0x100 EXP SWAP1 DIV PUSH1 0xFF AND DUP1 ISZERO PUSH2 0x13C7 JUMPI POP DUP6 PUSH1 0x3 DUP2 GT ISZERO PUSH2 0x1377 JUMPI PUSH2 0x1377 PUSH2 0x25E8 JUMP JUMPDEST PUSH1 0x1 PUSH1 0x0 DUP7 DUP5 DUP2 MLOAD DUP2 LT PUSH2 0x138D JUMPI PUSH2 0x138D PUSH2 0x2862 JUMP JUMPDEST PUSH1 0x20 MUL PUSH1 0x20 ADD ADD MLOAD DUP2 MSTORE PUSH1 0x20 ADD SWAP1 DUP2 MSTORE PUSH1 0x20 ADD PUSH1 0x0 KECCAK256 PUSH1 0x3 ADD PUSH1 0x1 SWAP1 SLOAD SWAP1 PUSH2 0x100 EXP SWAP1 DIV PUSH1 0xFF AND PUSH1 0x3 DUP2 GT ISZERO PUSH2 0x13C5 JUMPI PUSH2 0x13C5 PUSH2 0x25E8 JUMP JUMPDEST EQ JUMPDEST ISZERO PUSH2 0x1411 JUMPI DUP4 DUP2 DUP2 MLOAD DUP2 LT PUSH2 0x13DE JUMPI PUSH2 0x13DE PUSH2 0x2862 JUMP JUMPDEST PUSH1 0x20 MUL PUSH1 0x20 ADD ADD MLOAD DUP4 DUP4 DUP2 MLOAD DUP2 LT PUSH2 0x13F8 JUMPI PUSH2 0x13F8 PUSH2 0x2862 JUMP JUMPDEST PUSH1 0x20 SWAP1 DUP2 MUL SWAP2 SWAP1 SWAP2 ADD ADD MSTORE DUP2 PUSH2 0x140D DUP2 PUSH2 0x28C2 JUMP JUMPDEST SWAP3 POP POP JUMPDEST PUSH1 0x1 ADD PUSH2 0x1318 JUMP JUMPDEST POP PUSH1 0x0 DUP2 PUSH1 0x1 PUSH1 0x1 PUSH1 0x40 SHL SUB DUP2 GT ISZERO PUSH2 0x1434 JUMPI PUSH2 0x1434 PUSH2 0x2455 JUMP JUMPDEST PUSH1 0x40 MLOAD SWAP1 DUP1 DUP3 MSTORE DUP1 PUSH1 0x20 MUL PUSH1 0x20 ADD DUP3 ADD PUSH1 0x40 MSTORE DUP1 ISZERO PUSH2 0x145D JUMPI DUP2 PUSH1 0x20 ADD PUSH1 0x20 DUP3 MUL DUP1 CALLDATASIZE DUP4 CALLDATACOPY ADD SWAP1 POP JUMPDEST POP SWAP1 POP PUSH1 0x0 JUMPDEST DUP3 DUP2 LT ISZERO PUSH2 0x14AA JUMPI DUP4 DUP2 DUP2 MLOAD DUP2 LT PUSH2 0x147D JUMPI PUSH2 0x147D PUSH2 0x2862 JUMP JUMPDEST PUSH1 0x20 MUL PUSH1 0x20 ADD ADD MLOAD DUP3 DUP3 DUP2 MLOAD DUP2 LT PUSH2 0x1497 JUMPI PUSH2 0x1497 PUSH2 0x2862 JUMP JUMPDEST PUSH1 0x20 SWAP1 DUP2 MUL SWAP2 SWAP1 SWAP2 ADD ADD MSTORE PUSH1 0x1 ADD PUSH2 0x1463 JUMP JUMPDEST POP SWAP4 POP POP POP POP JUMPDEST SWAP3 SWAP2 POP POP JUMP JUMPDEST PUSH1 0x0 DUP2 DUP2 MSTORE PUSH1 0x1 PUSH1 0x20 MSTORE PUSH1 0x40 SWAP1 KECCAK256 PUSH1 0x7 ADD SLOAD DUP2 SWAP1 PUSH1 0x1 PUSH1 0xA0 SHL SWAP1 DIV PUSH1 0xFF AND PUSH2 0x14F1 JUMPI PUSH1 0x40 MLOAD PUSH3 0x461BCD PUSH1 0xE5 SHL DUP2 MSTORE PUSH1 0x4 ADD PUSH2 0x8D1 SWAP1 PUSH2 0x2A62 JUMP JUMPDEST PUSH1 0x0 DUP2 DUP2 MSTORE PUSH1 0x1 PUSH1 0x20 MSTORE PUSH1 0x40 SWAP1 KECCAK256 PUSH1 0x7 ADD SLOAD PUSH1 0x1 PUSH1 0x1 PUSH1 0xA0 SHL SUB AND CALLER EQ PUSH2 0x152A JUMPI PUSH1 0x40 MLOAD PUSH3 0x461BCD PUSH1 0xE5 SHL DUP2 MSTORE PUSH1 0x4 ADD PUSH2 0x8D1 SWAP1 PUSH2 0x2A8F JUMP JUMPDEST PUSH2 0x1115 DUP3 PUSH1 0x3 PUSH2 0x1AF4 JUMP JUMPDEST PUSH1 0x1 PUSH1 0x20 DUP2 SWAP1 MSTORE PUSH1 0x0 SWAP2 DUP3 MSTORE PUSH1 0x40 SWAP1 SWAP2 KECCAK256 DUP1 SLOAD SWAP2 DUP2 ADD DUP1 SLOAD PUSH2 0x1556 SWAP1 PUSH2 0x2878 JUMP JUMPDEST DUP1 PUSH1 0x1F ADD PUSH1 0x20 DUP1 SWAP2 DIV MUL PUSH1 0x20 ADD PUSH1 0x40 MLOAD SWAP1 DUP2 ADD PUSH1 0x40 MSTORE DUP1 SWAP3 SWAP2 SWAP1 DUP2 DUP2 MSTORE PUSH1 0x20 ADD DUP3 DUP1 SLOAD PUSH2 0x1582 SWAP1 PUSH2 0x2878 JUMP JUMPDEST DUP1 ISZERO PUSH2 0x15CF JUMPI DUP1 PUSH1 0x1F LT PUSH2 0x15A4 JUMPI PUSH2 0x100 DUP1 DUP4 SLOAD DIV MUL DUP4 MSTORE SWAP2 PUSH1 0x20 ADD SWAP2 PUSH2 0x15CF JUMP JUMPDEST DUP3 ADD SWAP2 SWAP1 PUSH1 0x0 MSTORE PUSH1 0x20 PUSH1 0x0 KECCAK256 SWAP1 JUMPDEST DUP2 SLOAD DUP2 MSTORE SWAP1 PUSH1 0x1 ADD SWAP1 PUSH1 0x20 ADD DUP1 DUP4 GT PUSH2 0x15B2 JUMPI DUP3 SWAP1 SUB PUSH1 0x1F AND DUP3 ADD SWAP2 JUMPDEST POP POP POP POP POP SWAP1 DUP1 PUSH1 0x2 ADD DUP1 SLOAD PUSH2 0x15E4 SWAP1 PUSH2 0x2878 JUMP JUMPDEST DUP1 PUSH1 0x1F ADD PUSH1 0x20 DUP1 SWAP2 DIV MUL PUSH1 0x20 ADD PUSH1 0x40 MLOAD SWAP1 DUP2 ADD PUSH1 0x40 MSTORE DUP1 SWAP3 SWAP2 SWAP1 DUP2 DUP2 MSTORE PUSH1 0x20 ADD DUP3 DUP1 SLOAD PUSH2 0x1610 SWAP1 PUSH2 0x2878 JUMP JUMPDEST DUP1 ISZERO PUSH2 0x165D JUMPI DUP1 PUSH1 0x1F LT PUSH2 0x1632 JUMPI PUSH2 0x100 DUP1 DUP4 SLOAD DIV MUL DUP4 MSTORE SWAP2 PUSH1 0x20 ADD SWAP2 PUSH2 0x165D JUMP JUMPDEST DUP3 ADD SWAP2 SWAP1 PUSH1 0x0 MSTORE PUSH1 0x20 PUSH1 0x0 KECCAK256 SWAP1 JUMPDEST DUP2 SLOAD DUP2 MSTORE SWAP1 PUSH1 0x1 ADD SWAP1 PUSH1 0x20 ADD DUP1 DUP4 GT PUSH2 0x1640 JUMPI DUP3 SWAP1 SUB PUSH1 0x1F AND DUP3 ADD SWAP2 JUMPDEST POP POP POP PUSH1 0x3 DUP5 ADD SLOAD PUSH1 0x4 DUP6 ADD SLOAD PUSH1 0x5 DUP7 ADD SLOAD PUSH1 0x6 DUP8 ADD SLOAD PUSH1 0x7 SWAP1 SWAP8 ADD SLOAD SWAP6 SWAP7 PUSH1 0xFF DUP1 DUP6 AND SWAP8 PUSH2 0x100 SWAP1 SWAP6 DIV DUP2 AND SWAP7 POP SWAP3 SWAP5 POP SWAP1 SWAP3 SWAP1 SWAP2 PUSH1 0x1 PUSH1 0x1 PUSH1 0xA0 SHL SUB DUP3 AND SWAP2 PUSH1 0x1 PUSH1 0xA0 SHL SWAP1 DIV AND DUP11 JUMP JUMPDEST PUSH1 0x1 PUSH1 0x1 PUSH1 0xA0 SHL SUB DUP2 AND PUSH1 0x0 SWAP1 DUP2 MSTORE PUSH1 0x2 PUSH1 0x20 SWAP1 DUP2 MSTORE PUSH1 0x40 SWAP2 DUP3 SWAP1 KECCAK256 DUP1 SLOAD DUP4 MLOAD DUP2 DUP5 MUL DUP2 ADD DUP5 ADD SWAP1 SWAP5 MSTORE DUP1 DUP5 MSTORE PUSH1 0x60 SWAP4 SWAP3 DUP4 ADD DUP3 DUP3 DUP1 ISZERO PUSH2 0x1709 JUMPI PUSH1 0x20 MUL DUP3 ADD SWAP2 SWAP1 PUSH1 0x0 MSTORE PUSH1 0x20 PUSH1 0x0 KECCAK256 SWAP1 JUMPDEST DUP2 SLOAD DUP2 MSTORE PUSH1 0x20 ADD SWAP1 PUSH1 0x1 ADD SWAP1 DUP1 DUP4 GT PUSH2 0x16F5 JUMPI JUMPDEST POP POP POP POP POP SWAP1 POP SWAP2 SWAP1 POP JUMP JUMPDEST PUSH1 0x60 PUSH1 0x0 DUP3 PUSH1 0x3 DUP2 GT ISZERO PUSH2 0x172B JUMPI PUSH2 0x172B PUSH2 0x25E8 JUMP JUMPDEST SUB PUSH2 0x174F JUMPI POP POP PUSH1 0x40 DUP1 MLOAD DUP1 DUP3 ADD SWAP1 SWAP2 MSTORE PUSH1 0x3 DUP2 MSTORE PUSH3 0x4C6F77 PUSH1 0xE8 SHL PUSH1 0x20 DUP3 ADD MSTORE SWAP1 JUMP JUMPDEST PUSH1 0x1 DUP3 PUSH1 0x3 DUP2 GT ISZERO PUSH2 0x1763 JUMPI PUSH2 0x1763 PUSH2 0x25E8 JUMP JUMPDEST SUB PUSH2 0x178A JUMPI POP POP PUSH1 0x40 DUP1 MLOAD DUP1 DUP3 ADD SWAP1 SWAP2 MSTORE PUSH1 0x6 DUP2 MSTORE PUSH6 0x4D656469756D PUSH1 0xD0 SHL PUSH1 0x20 DUP3 ADD MSTORE SWAP1 JUMP JUMPDEST PUSH1 0x2 DUP3 PUSH1 0x3 DUP2 GT ISZERO PUSH2 0x179E JUMPI PUSH2 0x179E PUSH2 0x25E8 JUMP JUMPDEST SUB PUSH2 0x17C3 JUMPI POP POP PUSH1 0x40 DUP1 MLOAD DUP1 DUP3 ADD SWAP1 SWAP2 MSTORE PUSH1 0x4 DUP2 MSTORE PUSH4 0x90D2CED PUSH1 0xE3 SHL PUSH1 0x20 DUP3 ADD MSTORE SWAP1 JUMP JUMPDEST PUSH1 0x3 DUP3 PUSH1 0x3 DUP2 GT ISZERO PUSH2 0x17D7 JUMPI PUSH2 0x17D7 PUSH2 0x25E8 JUMP JUMPDEST SUB PUSH2 0x1244 JUMPI POP POP PUSH1 0x40 DUP1 MLOAD DUP1 DUP3 ADD SWAP1 SWAP2 MSTORE PUSH1 0x6 DUP2 MSTORE PUSH6 0x155C99D95B9D PUSH1 0xD2 SHL PUSH1 0x20 DUP3 ADD MSTORE SWAP1 JUMP JUMPDEST PUSH1 0x1 PUSH1 0x1 PUSH1 0xA0 SHL SUB DUP2 AND PUSH1 0x0 SWAP1 DUP2 MSTORE PUSH1 0x3 PUSH1 0x20 MSTORE PUSH1 0x40 DUP2 KECCAK256 SLOAD DUP1 DUP3 SUB PUSH2 0x1827 JUMPI POP PUSH1 0x0 SWAP3 SWAP2 POP POP JUMP JUMPDEST PUSH1 0x1 PUSH1 0x1 PUSH1 0xA0 SHL SUB DUP4 AND PUSH1 0x0 SWAP1 DUP2 MSTORE PUSH1 0x4 PUSH1 0x20 MSTORE PUSH1 0x40 SWAP1 KECCAK256 SLOAD DUP2 PUSH2 0x184C DUP3 PUSH1 0x64 PUSH2 0x2AFB JUMP JUMPDEST PUSH2 0x1856 SWAP2 SWAP1 PUSH2 0x2B12 JUMP JUMPDEST SWAP5 SWAP4 POP POP POP POP JUMP JUMPDEST PUSH1 0x0 DUP2 DUP2 MSTORE PUSH1 0x1 PUSH1 0x20 MSTORE PUSH1 0x40 DUP2 KECCAK256 PUSH1 0x7 ADD SLOAD DUP3 SWAP1 PUSH1 0x1 PUSH1 0xA0 SHL SWAP1 DIV PUSH1 0xFF AND PUSH2 0x1898 JUMPI PUSH1 0x40 MLOAD PUSH3 0x461BCD PUSH1 0xE5 SHL DUP2 MSTORE PUSH1 0x4 ADD PUSH2 0x8D1 SWAP1 PUSH2 0x2A62 JUMP JUMPDEST PUSH1 0x0 DUP4 DUP2 MSTORE PUSH1 0x1 PUSH1 0x20 DUP2 DUP2 MSTORE PUSH1 0x40 DUP1 DUP5 KECCAK256 DUP2 MLOAD PUSH2 0x140 DUP2 ADD SWAP1 SWAP3 MSTORE DUP1 SLOAD DUP3 MSTORE SWAP3 DUP4 ADD DUP1 SLOAD SWAP2 SWAP4 SWAP3 DUP5 ADD SWAP2 PUSH2 0x18CB SWAP1 PUSH2 0x2878 JUMP JUMPDEST DUP1 PUSH1 0x1F ADD PUSH1 0x20 DUP1 SWAP2 DIV MUL PUSH1 0x20 ADD PUSH1 0x40 MLOAD SWAP1 DUP2 ADD PUSH1 0x40 MSTORE DUP1 SWAP3 SWAP2 SWAP1 DUP2 DUP2 MSTORE PUSH1 0x20 ADD DUP3 DUP1 SLOAD PUSH2 0x18F7 SWAP1 PUSH2 0x2878 JUMP JUMPDEST DUP1 ISZERO PUSH2 0x1944 JUMPI DUP1 PUSH1 0x1F LT PUSH2 0x1919 JUMPI PUSH2 0x100 DUP1 DUP4 SLOAD DIV MUL DUP4 MSTORE SWAP2 PUSH1 0x20 ADD SWAP2 PUSH2 0x1944 JUMP JUMPDEST DUP3 ADD SWAP2 SWAP1 PUSH1 0x0 MSTORE PUSH1 0x20 PUSH1 0x0 KECCAK256 SWAP1 JUMPDEST DUP2 SLOAD DUP2 MSTORE SWAP1 PUSH1 0x1 ADD SWAP1 PUSH1 0x20 ADD DUP1 DUP4 GT PUSH2 0x1927 JUMPI DUP3 SWAP1 SUB PUSH1 0x1F AND DUP3 ADD SWAP2 JUMPDEST POP POP POP POP POP DUP2 MSTORE PUSH1 0x20 ADD PUSH1 0x2 DUP3 ADD DUP1 SLOAD PUSH2 0x195D SWAP1 PUSH2 0x2878 JUMP JUMPDEST DUP1 PUSH1 0x1F ADD PUSH1 0x20 DUP1 SWAP2 DIV MUL PUSH1 0x20 ADD PUSH1 0x40 MLOAD SWAP1 DUP2 ADD PUSH1 0x40 MSTORE DUP1 SWAP3 SWAP2 SWAP1 DUP2 DUP2 MSTORE PUSH1 0x20 ADD DUP3 DUP1 SLOAD PUSH2 0x1989 SWAP1 PUSH2 0x2878 JUMP JUMPDEST DUP1 ISZERO PUSH2 0x19D6 JUMPI DUP1 PUSH1 0x1F LT PUSH2 0x19AB JUMPI PUSH2 0x100 DUP1 DUP4 SLOAD DIV MUL DUP4 MSTORE SWAP2 PUSH1 0x20 ADD SWAP2 PUSH2 0x19D6 JUMP JUMPDEST DUP3 ADD SWAP2 SWAP1 PUSH1 0x0 MSTORE PUSH1 0x20 PUSH1 0x0 KECCAK256 SWAP1 JUMPDEST DUP2 SLOAD DUP2 MSTORE SWAP1 PUSH1 0x1 ADD SWAP1 PUSH1 0x20 ADD DUP1 DUP4 GT PUSH2 0x19B9 JUMPI DUP3 SWAP1 SUB PUSH1 0x1F AND DUP3 ADD SWAP2 JUMPDEST POP POP POP SWAP2 DUP4 MSTORE POP POP PUSH1 0x3 DUP3 DUP2 ADD SLOAD PUSH1 0x20 SWAP1 SWAP3 ADD SWAP2 PUSH1 0xFF AND SWAP1 DUP2 GT ISZERO PUSH2 0x19FD JUMPI PUSH2 0x19FD PUSH2 0x25E8 JUMP JUMPDEST PUSH1 0x3 DUP2 GT ISZERO PUSH2 0x1A0E JUMPI PUSH2 0x1A0E PUSH2 0x25E8 JUMP JUMPDEST DUP2 MSTORE PUSH1 0x20 ADD PUSH1 0x3 DUP3 ADD PUSH1 0x1 SWAP1 SLOAD SWAP1 PUSH2 0x100 EXP SWAP1 DIV PUSH1 0xFF AND PUSH1 0x3 DUP2 GT ISZERO PUSH2 0x1A36 JUMPI PUSH2 0x1A36 PUSH2 0x25E8 JUMP JUMPDEST PUSH1 0x3 DUP2 GT ISZERO PUSH2 0x1A47 JUMPI PUSH2 0x1A47 PUSH2 0x25E8 JUMP JUMPDEST DUP2 MSTORE PUSH1 0x4 DUP3 ADD SLOAD PUSH1 0x20 DUP3 ADD MSTORE PUSH1 0x5 DUP3 ADD SLOAD PUSH1 0x40 DUP3 ADD MSTORE PUSH1 0x6 DUP3 ADD SLOAD PUSH1 0x60 DUP3 ADD MSTORE PUSH1 0x7 SWAP1 SWAP2 ADD SLOAD PUSH1 0x1 PUSH1 0x1 PUSH1 0xA0 SHL SUB DUP2 AND PUSH1 0x80 DUP4 ADD MSTORE PUSH1 0x1 PUSH1 0xA0 SHL SWAP1 DIV PUSH1 0xFF AND ISZERO ISZERO PUSH1 0xA0 SWAP1 SWAP2 ADD MSTORE PUSH1 0xE0 DUP2 ADD MLOAD SWAP1 SWAP2 POP ISZERO DUP1 ISZERO SWAP1 PUSH2 0x1AA7 JUMPI POP TIMESTAMP DUP2 PUSH1 0xE0 ADD MLOAD LT JUMPDEST DUP1 ISZERO PUSH2 0x1AC9 JUMPI POP PUSH1 0x2 DUP2 PUSH1 0x80 ADD MLOAD PUSH1 0x3 DUP2 GT ISZERO PUSH2 0x1AC6 JUMPI PUSH2 0x1AC6 PUSH2 0x25E8 JUMP JUMPDEST EQ ISZERO JUMPDEST DUP1 ISZERO PUSH2 0x1856 JUMPI POP PUSH1 0x3 DUP2 PUSH1 0x80 ADD MLOAD PUSH1 0x3 DUP2 GT ISZERO PUSH2 0x1AE8 JUMPI PUSH2 0x1AE8 PUSH2 0x25E8 JUMP JUMPDEST EQ ISZERO SWAP3 POP POP JUMPDEST POP SWAP2 SWAP1 POP JUMP JUMPDEST PUSH1 0x0 DUP3 DUP2 MSTORE PUSH1 0x1 PUSH1 0x20 MSTORE PUSH1 0x40 SWAP1 KECCAK256 PUSH1 0x7 ADD SLOAD DUP3 SWAP1 PUSH1 0x1 PUSH1 0xA0 SHL SWAP1 DIV PUSH1 0xFF AND PUSH2 0x1B2E JUMPI PUSH1 0x40 MLOAD PUSH3 0x461BCD PUSH1 0xE5 SHL DUP2 MSTORE PUSH1 0x4 ADD PUSH2 0x8D1 SWAP1 PUSH2 0x2A62 JUMP JUMPDEST PUSH1 0x0 DUP2 DUP2 MSTORE PUSH1 0x1 PUSH1 0x20 MSTORE PUSH1 0x40 SWAP1 KECCAK256 PUSH1 0x7 ADD SLOAD PUSH1 0x1 PUSH1 0x1 PUSH1 0xA0 SHL SUB AND CALLER EQ PUSH2 0x1B67 JUMPI PUSH1 0x40 MLOAD PUSH3 0x461BCD PUSH1 0xE5 SHL DUP2 MSTORE PUSH1 0x4 ADD PUSH2 0x8D1 SWAP1 PUSH2 0x2A8F JUMP JUMPDEST PUSH1 0x0 DUP4 DUP2 MSTORE PUSH1 0x1 PUSH1 0x20 MSTORE PUSH1 0x40 SWAP1 KECCAK256 PUSH1 0x3 DUP1 DUP3 ADD SLOAD PUSH2 0x100 SWAP1 DIV PUSH1 0xFF AND SWAP1 DUP5 SWAP1 DUP2 GT ISZERO PUSH2 0x1B95 JUMPI PUSH2 0x1B95 PUSH2 0x25E8 JUMP JUMPDEST DUP2 PUSH1 0x3 DUP2 GT ISZERO PUSH2 0x1BA7 JUMPI PUSH2 0x1BA7 PUSH2 0x25E8 JUMP JUMPDEST SUB PUSH2 0x1C00 JUMPI PUSH1 0x40 MLOAD PUSH3 0x461BCD PUSH1 0xE5 SHL DUP2 MSTORE PUSH1 0x20 PUSH1 0x4 DUP3 ADD MSTORE PUSH1 0x23 PUSH1 0x24 DUP3 ADD MSTORE PUSH32 0x53746174757320697320616C72656164792073657420746F2074686973207661 PUSH1 0x44 DUP3 ADD MSTORE PUSH3 0x6C7565 PUSH1 0xE8 SHL PUSH1 0x64 DUP3 ADD MSTORE PUSH1 0x84 ADD PUSH2 0x8D1 JUMP JUMPDEST PUSH2 0x1C0A CALLER DUP3 PUSH2 0x21E3 JUMP JUMPDEST PUSH2 0x1C14 CALLER DUP6 PUSH2 0x22E0 JUMP JUMPDEST DUP4 DUP3 PUSH1 0x3 ADD PUSH1 0x1 PUSH2 0x100 EXP DUP2 SLOAD DUP2 PUSH1 0xFF MUL NOT AND SWAP1 DUP4 PUSH1 0x3 DUP2 GT ISZERO PUSH2 0x1C3A JUMPI PUSH2 0x1C3A PUSH2 0x25E8 JUMP JUMPDEST MUL OR SWAP1 SSTORE POP TIMESTAMP PUSH1 0x5 DUP4 ADD DUP2 SWAP1 SSTORE PUSH1 0x40 MLOAD CALLER SWAP2 DUP8 SWAP2 PUSH32 0x7AF449C5513ACE8082FBF5BC8068C777C02D75162353333EA2B10AEB1EBD0636 SWAP2 PUSH2 0x1C7D SWAP2 DUP7 SWAP2 DUP11 SWAP2 PUSH2 0x2B34 JUMP JUMPDEST PUSH1 0x40 MLOAD DUP1 SWAP2 SUB SWAP1 LOG3 PUSH1 0x2 DUP5 PUSH1 0x3 DUP2 GT ISZERO PUSH2 0x1C99 JUMPI PUSH2 0x1C99 PUSH2 0x25E8 JUMP JUMPDEST SUB PUSH2 0x1CD6 JUMPI PUSH1 0x40 MLOAD TIMESTAMP DUP2 MSTORE CALLER SWAP1 DUP7 SWAP1 PUSH32 0x843AF93D40ADDCEAC6932508439844B897D4DF9E971DB326D557E3CDAA9F3EBF SWAP1 PUSH1 0x20 ADD PUSH1 0x40 MLOAD DUP1 SWAP2 SUB SWAP1 LOG3 JUMPDEST POP POP POP POP POP JUMP JUMPDEST PUSH1 0x1 PUSH1 0x1 PUSH1 0xA0 SHL SUB DUP3 AND PUSH1 0x0 SWAP1 DUP2 MSTORE PUSH1 0x2 PUSH1 0x20 SWAP1 DUP2 MSTORE PUSH1 0x40 DUP1 DUP4 KECCAK256 DUP1 SLOAD DUP3 MLOAD DUP2 DUP6 MUL DUP2 ADD DUP6 ADD SWAP1 SWAP4 MSTORE DUP1 DUP4 MSTORE PUSH1 0x60 SWAP5 SWAP4 DUP4 ADD DUP3 DUP3 DUP1 ISZERO PUSH2 0x1D3C JUMPI PUSH1 0x20 MUL DUP3 ADD SWAP2 SWAP1 PUSH1 0x0 MSTORE PUSH1 0x20 PUSH1 0x0 KECCAK256 SWAP1 JUMPDEST DUP2 SLOAD DUP2 MSTORE PUSH1 0x20 ADD SWAP1 PUSH1 0x1 ADD SWAP1 DUP1 DUP4 GT PUSH2 0x1D28 JUMPI JUMPDEST POP POP POP POP POP SWAP1 POP PUSH1 0x0 DUP2 MLOAD PUSH1 0x1 PUSH1 0x1 PUSH1 0x40 SHL SUB DUP2 GT ISZERO PUSH2 0x1D5E JUMPI PUSH2 0x1D5E PUSH2 0x2455 JUMP JUMPDEST PUSH1 0x40 MLOAD SWAP1 DUP1 DUP3 MSTORE DUP1 PUSH1 0x20 MUL PUSH1 0x20 ADD DUP3 ADD PUSH1 0x40 MSTORE DUP1 ISZERO PUSH2 0x1D87 JUMPI DUP2 PUSH1 0x20 ADD PUSH1 0x20 DUP3 MUL DUP1 CALLDATASIZE DUP4 CALLDATACOPY ADD SWAP1 POP JUMPDEST POP SWAP1 POP PUSH1 0x0 DUP1 JUMPDEST DUP4 MLOAD DUP2 LT ISZERO PUSH2 0x1E8F JUMPI PUSH1 0x1 PUSH1 0x0 DUP6 DUP4 DUP2 MLOAD DUP2 LT PUSH2 0x1DAD JUMPI PUSH2 0x1DAD PUSH2 0x2862 JUMP JUMPDEST PUSH1 0x20 MUL PUSH1 0x20 ADD ADD MLOAD DUP2 MSTORE PUSH1 0x20 ADD SWAP1 DUP2 MSTORE PUSH1 0x20 ADD PUSH1 0x0 KECCAK256 PUSH1 0x7 ADD PUSH1 0x14 SWAP1 SLOAD SWAP1 PUSH2 0x100 EXP SWAP1 DIV PUSH1 0xFF AND DUP1 ISZERO PUSH2 0x1E3D JUMPI POP DUP6 PUSH1 0x3 DUP2 GT ISZERO PUSH2 0x1DED JUMPI PUSH2 0x1DED PUSH2 0x25E8 JUMP JUMPDEST PUSH1 0x1 PUSH1 0x0 DUP7 DUP5 DUP2 MLOAD DUP2 LT PUSH2 0x1E03 JUMPI PUSH2 0x1E03 PUSH2 0x2862 JUMP JUMPDEST PUSH1 0x20 MUL PUSH1 0x20 ADD ADD MLOAD DUP2 MSTORE PUSH1 0x20 ADD SWAP1 DUP2 MSTORE PUSH1 0x20 ADD PUSH1 0x0 KECCAK256 PUSH1 0x3 ADD PUSH1 0x0 SWAP1 SLOAD SWAP1 PUSH2 0x100 EXP SWAP1 DIV PUSH1 0xFF AND PUSH1 0x3 DUP2 GT ISZERO PUSH2 0x1E3B JUMPI PUSH2 0x1E3B PUSH2 0x25E8 JUMP JUMPDEST EQ JUMPDEST ISZERO PUSH2 0x1E87 JUMPI DUP4 DUP2 DUP2 MLOAD DUP2 LT PUSH2 0x1E54 JUMPI PUSH2 0x1E54 PUSH2 0x2862 JUMP JUMPDEST PUSH1 0x20 MUL PUSH1 0x20 ADD ADD MLOAD DUP4 DUP4 DUP2 MLOAD DUP2 LT PUSH2 0x1E6E JUMPI PUSH2 0x1E6E PUSH2 0x2862 JUMP JUMPDEST PUSH1 0x20 SWAP1 DUP2 MUL SWAP2 SWAP1 SWAP2 ADD ADD MSTORE DUP2 PUSH2 0x1E83 DUP2 PUSH2 0x28C2 JUMP JUMPDEST SWAP3 POP POP JUMPDEST PUSH1 0x1 ADD PUSH2 0x1D8E JUMP JUMPDEST POP PUSH1 0x0 DUP2 PUSH1 0x1 PUSH1 0x1 PUSH1 0x40 SHL SUB DUP2 GT ISZERO PUSH2 0x1EAA JUMPI PUSH2 0x1EAA PUSH2 0x2455 JUMP JUMPDEST PUSH1 0x40 MLOAD SWAP1 DUP1 DUP3 MSTORE DUP1 PUSH1 0x20 MUL PUSH1 0x20 ADD DUP3 ADD PUSH1 0x40 MSTORE DUP1 ISZERO PUSH2 0x1ED3 JUMPI DUP2 PUSH1 0x20 ADD PUSH1 0x20 DUP3 MUL DUP1 CALLDATASIZE DUP4 CALLDATACOPY ADD SWAP1 POP JUMPDEST POP SWAP1 POP PUSH1 0x0 JUMPDEST DUP3 DUP2 LT ISZERO PUSH2 0x14AA JUMPI DUP4 DUP2 DUP2 MLOAD DUP2 LT PUSH2 0x1EF3 JUMPI PUSH2 0x1EF3 PUSH2 0x2862 JUMP JUMPDEST PUSH1 0x20 MUL PUSH1 0x20 ADD ADD MLOAD DUP3 DUP3 DUP2 MLOAD DUP2 LT PUSH2 0x1F0D JUMPI PUSH2 0x1F0D PUSH2 0x2862 JUMP JUMPDEST PUSH1 0x20 SWAP1 DUP2 MUL SWAP2 SWAP1 SWAP2 ADD ADD MSTORE PUSH1 0x1 ADD PUSH2 0x1ED9 JUMP JUMPDEST PUSH1 0x0 DUP6 DUP2 MSTORE PUSH1 0x1 PUSH1 0x20 MSTORE PUSH1 0x40 SWAP1 KECCAK256 PUSH1 0x7 ADD SLOAD DUP6 SWAP1 PUSH1 0x1 PUSH1 0xA0 SHL SWAP1 DIV PUSH1 0xFF AND PUSH2 0x1F5A JUMPI PUSH1 0x40 MLOAD PUSH3 0x461BCD PUSH1 0xE5 SHL DUP2 MSTORE PUSH1 0x4 ADD PUSH2 0x8D1 SWAP1 PUSH2 0x2A62 JUMP JUMPDEST PUSH1 0x0 DUP2 DUP2 MSTORE PUSH1 0x1 PUSH1 0x20 MSTORE PUSH1 0x40 SWAP1 KECCAK256 PUSH1 0x7 ADD SLOAD PUSH1 0x1 PUSH1 0x1 PUSH1 0xA0 SHL SUB AND CALLER EQ PUSH2 0x1F93 JUMPI PUSH1 0x40 MLOAD PUSH3 0x461BCD PUSH1 0xE5 SHL DUP2 MSTORE PUSH1 0x4 ADD PUSH2 0x8D1 SWAP1 PUSH2 0x2A8F JUMP JUMPDEST PUSH1 0x0 DUP6 MLOAD GT PUSH2 0x1FDC JUMPI PUSH1 0x40 MLOAD PUSH3 0x461BCD PUSH1 0xE5 SHL DUP2 MSTORE PUSH1 0x20 PUSH1 0x4 DUP3 ADD MSTORE PUSH1 0x15 PUSH1 0x24 DUP3 ADD MSTORE PUSH21 0x5469746C652063616E6E6F7420626520656D707479 PUSH1 0x58 SHL PUSH1 0x44 DUP3 ADD MSTORE PUSH1 0x64 ADD PUSH2 0x8D1 JUMP JUMPDEST PUSH1 0x64 DUP6 MLOAD GT ISZERO PUSH2 0x202E JUMPI PUSH1 0x40 MLOAD PUSH3 0x461BCD PUSH1 0xE5 SHL DUP2 MSTORE PUSH1 0x20 PUSH1 0x4 DUP3 ADD MSTORE PUSH1 0x1E PUSH1 0x24 DUP3 ADD MSTORE PUSH32 0x5469746C6520746F6F206C6F6E6720286D617820313030206368617273290000 PUSH1 0x44 DUP3 ADD MSTORE PUSH1 0x64 ADD PUSH2 0x8D1 JUMP JUMPDEST PUSH2 0x1F4 DUP5 MLOAD GT ISZERO PUSH2 0x2051 JUMPI PUSH1 0x40 MLOAD PUSH3 0x461BCD PUSH1 0xE5 SHL DUP2 MSTORE PUSH1 0x4 ADD PUSH2 0x8D1 SWAP1 PUSH2 0x28DB JUMP JUMPDEST DUP2 ISZERO DUP1 PUSH2 0x205D JUMPI POP TIMESTAMP DUP3 GT JUMPDEST PUSH2 0x20A9 JUMPI PUSH1 0x40 MLOAD PUSH3 0x461BCD PUSH1 0xE5 SHL DUP2 MSTORE PUSH1 0x20 PUSH1 0x4 DUP3 ADD MSTORE PUSH1 0x1E PUSH1 0x24 DUP3 ADD MSTORE PUSH32 0x4475652064617465206D75737420626520696E20746865206675747572650000 PUSH1 0x44 DUP3 ADD MSTORE PUSH1 0x64 ADD PUSH2 0x8D1 JUMP JUMPDEST PUSH1 0x0 DUP7 DUP2 MSTORE PUSH1 0x1 PUSH1 0x20 DUP2 SWAP1 MSTORE PUSH1 0x40 SWAP1 SWAP2 KECCAK256 SWAP1 DUP2 ADD PUSH2 0x20C7 DUP8 DUP3 PUSH2 0x296B JUMP JUMPDEST POP PUSH1 0x2 DUP2 ADD PUSH2 0x20D6 DUP7 DUP3 PUSH2 0x296B JUMP JUMPDEST POP DUP4 DUP2 PUSH1 0x3 ADD PUSH1 0x0 PUSH2 0x100 EXP DUP2 SLOAD DUP2 PUSH1 0xFF MUL NOT AND SWAP1 DUP4 PUSH1 0x3 DUP2 GT ISZERO PUSH2 0x20FD JUMPI PUSH2 0x20FD PUSH2 0x25E8 JUMP JUMPDEST MUL OR SWAP1 SSTORE POP PUSH1 0x6 DUP2 ADD DUP4 SWAP1 SSTORE TIMESTAMP PUSH1 0x5 DUP3 ADD DUP2 SWAP1 SSTORE PUSH1 0x3 DUP3 ADD SLOAD PUSH1 0x40 MLOAD CALLER SWAP3 DUP11 SWAP3 PUSH32 0x7AF449C5513ACE8082FBF5BC8068C777C02D75162353333EA2B10AEB1EBD0636 SWAP3 PUSH2 0x2154 SWAP3 PUSH2 0x100 SWAP1 SWAP3 DIV PUSH1 0xFF AND SWAP2 DUP3 SWAP2 PUSH2 0x2B34 JUMP JUMPDEST PUSH1 0x40 MLOAD DUP1 SWAP2 SUB SWAP1 LOG3 POP POP POP POP POP POP POP JUMP JUMPDEST PUSH1 0x0 DUP2 DUP2 MSTORE PUSH1 0x1 PUSH1 0x20 MSTORE PUSH1 0x40 SWAP1 KECCAK256 PUSH1 0x7 ADD SLOAD DUP2 SWAP1 PUSH1 0x1 PUSH1 0xA0 SHL SWAP1 DIV PUSH1 0xFF AND PUSH2 0x219F JUMPI PUSH1 0x40 MLOAD PUSH3 0x461BCD PUSH1 0xE5 SHL DUP2 MSTORE PUSH1 0x4 ADD PUSH2 0x8D1 SWAP1 PUSH2 0x2A62 JUMP JUMPDEST PUSH1 0x0 DUP2 DUP2 MSTORE PUSH1 0x1 PUSH1 0x20 MSTORE PUSH1 0x40 SWAP1 KECCAK256 PUSH1 0x7 ADD SLOAD PUSH1 0x1 PUSH1 0x1 PUSH1 0xA0 SHL SUB AND CALLER EQ PUSH2 0x21D8 JUMPI PUSH1 0x40 MLOAD PUSH3 0x461BCD PUSH1 0xE5 SHL DUP2 MSTORE PUSH1 0x4 ADD PUSH2 0x8D1 SWAP1 PUSH2 0x2A8F JUMP JUMPDEST PUSH2 0x1115 DUP3 PUSH1 0x2 PUSH2 0x1AF4 JUMP JUMPDEST PUSH1 0x0 DUP2 PUSH1 0x3 DUP2 GT ISZERO PUSH2 0x21F7 JUMPI PUSH2 0x21F7 PUSH2 0x25E8 JUMP JUMPDEST SUB PUSH2 0x2229 JUMPI PUSH1 0x1 PUSH1 0x1 PUSH1 0xA0 SHL SUB DUP3 AND PUSH1 0x0 SWAP1 DUP2 MSTORE PUSH1 0x5 PUSH1 0x20 MSTORE PUSH1 0x40 DUP2 KECCAK256 DUP1 SLOAD SWAP2 PUSH2 0x2220 DUP4 PUSH2 0x2ABB JUMP JUMPDEST SWAP2 SWAP1 POP SSTORE POP POP POP JUMP JUMPDEST PUSH1 0x1 DUP2 PUSH1 0x3 DUP2 GT ISZERO PUSH2 0x223D JUMPI PUSH2 0x223D PUSH2 0x25E8 JUMP JUMPDEST SUB PUSH2 0x2266 JUMPI PUSH1 0x1 PUSH1 0x1 PUSH1 0xA0 SHL SUB DUP3 AND PUSH1 0x0 SWAP1 DUP2 MSTORE PUSH1 0x6 PUSH1 0x20 MSTORE PUSH1 0x40 DUP2 KECCAK256 DUP1 SLOAD SWAP2 PUSH2 0x2220 DUP4 PUSH2 0x2ABB JUMP JUMPDEST PUSH1 0x2 DUP2 PUSH1 0x3 DUP2 GT ISZERO PUSH2 0x227A JUMPI PUSH2 0x227A PUSH2 0x25E8 JUMP JUMPDEST SUB PUSH2 0x22A3 JUMPI PUSH1 0x1 PUSH1 0x1 PUSH1 0xA0 SHL SUB DUP3 AND PUSH1 0x0 SWAP1 DUP2 MSTORE PUSH1 0x4 PUSH1 0x20 MSTORE PUSH1 0x40 DUP2 KECCAK256 DUP1 SLOAD SWAP2 PUSH2 0x2220 DUP4 PUSH2 0x2ABB JUMP JUMPDEST PUSH1 0x3 DUP2 PUSH1 0x3 DUP2 GT ISZERO PUSH2 0x22B7 JUMPI PUSH2 0x22B7 PUSH2 0x25E8 JUMP JUMPDEST SUB PUSH2 0x1115 JUMPI PUSH1 0x1 PUSH1 0x1 PUSH1 0xA0 SHL SUB DUP3 AND PUSH1 0x0 SWAP1 DUP2 MSTORE PUSH1 0x7 PUSH1 0x20 MSTORE PUSH1 0x40 DUP2 KECCAK256 DUP1 SLOAD SWAP2 PUSH2 0x2220 DUP4 PUSH2 0x2ABB JUMP JUMPDEST PUSH1 0x0 DUP2 PUSH1 0x3 DUP2 GT ISZERO PUSH2 0x22F4 JUMPI PUSH2 0x22F4 PUSH2 0x25E8 JUMP JUMPDEST SUB PUSH2 0x231D JUMPI PUSH1 0x1 PUSH1 0x1 PUSH1 0xA0 SHL SUB DUP3 AND PUSH1 0x0 SWAP1 DUP2 MSTORE PUSH1 0x5 PUSH1 0x20 MSTORE PUSH1 0x40 DUP2 KECCAK256 DUP1 SLOAD SWAP2 PUSH2 0x2220 DUP4 PUSH2 0x28C2 JUMP JUMPDEST PUSH1 0x1 DUP2 PUSH1 0x3 DUP2 GT ISZERO PUSH2 0x2331 JUMPI PUSH2 0x2331 PUSH2 0x25E8 JUMP JUMPDEST SUB PUSH2 0x235A JUMPI PUSH1 0x1 PUSH1 0x1 PUSH1 0xA0 SHL SUB DUP3 AND PUSH1 0x0 SWAP1 DUP2 MSTORE PUSH1 0x6 PUSH1 0x20 MSTORE PUSH1 0x40 DUP2 KECCAK256 DUP1 SLOAD SWAP2 PUSH2 0x2220 DUP4 PUSH2 0x28C2 JUMP JUMPDEST PUSH1 0x2 DUP2 PUSH1 0x3 DUP2 GT ISZERO PUSH2 0x236E JUMPI PUSH2 0x236E PUSH2 0x25E8 JUMP JUMPDEST SUB PUSH2 0x2397 JUMPI PUSH1 0x1 PUSH1 0x1 PUSH1 0xA0 SHL SUB DUP3 AND PUSH1 0x0 SWAP1 DUP2 MSTORE PUSH1 0x4 PUSH1 0x20 MSTORE PUSH1 0x40 DUP2 KECCAK256 DUP1 SLOAD SWAP2 PUSH2 0x2220 DUP4 PUSH2 0x28C2 JUMP JUMPDEST PUSH1 0x3 DUP2 PUSH1 0x3 DUP2 GT ISZERO PUSH2 0x23AB JUMPI PUSH2 0x23AB PUSH2 0x25E8 JUMP JUMPDEST SUB PUSH2 0x1115 JUMPI PUSH1 0x1 PUSH1 0x1 PUSH1 0xA0 SHL SUB DUP3 AND PUSH1 0x0 SWAP1 DUP2 MSTORE PUSH1 0x7 PUSH1 0x20 MSTORE PUSH1 0x40 DUP2 KECCAK256 DUP1 SLOAD SWAP2 PUSH2 0x2220 DUP4 PUSH2 0x28C2 JUMP JUMPDEST DUP1 CALLDATALOAD PUSH1 0x1 PUSH1 0x1 PUSH1 0xA0 SHL SUB DUP2 AND DUP2 EQ PUSH2 0x23EB JUMPI PUSH1 0x0 DUP1 REVERT JUMPDEST SWAP2 SWAP1 POP JUMP JUMPDEST PUSH1 0x0 PUSH1 0x20 DUP3 DUP5 SUB SLT ISZERO PUSH2 0x2402 JUMPI PUSH1 0x0 DUP1 REVERT JUMPDEST PUSH2 0x240B DUP3 PUSH2 0x23D4 JUMP JUMPDEST SWAP4 SWAP3 POP POP POP JUMP JUMPDEST PUSH1 0x20 DUP1 DUP3 MSTORE DUP3 MLOAD DUP3 DUP3 ADD DUP2 SWAP1 MSTORE PUSH1 0x0 SWAP2 DUP5 ADD SWAP1 PUSH1 0x40 DUP5 ADD SWAP1 DUP4 JUMPDEST DUP2 DUP2 LT ISZERO PUSH2 0x244A JUMPI DUP4 MLOAD DUP4 MSTORE PUSH1 0x20 SWAP4 DUP5 ADD SWAP4 SWAP1 SWAP3 ADD SWAP2 PUSH1 0x1 ADD PUSH2 0x242C JUMP JUMPDEST POP SWAP1 SWAP6 SWAP5 POP POP POP POP POP JUMP JUMPDEST PUSH4 0x4E487B71 PUSH1 0xE0 SHL PUSH1 0x0 MSTORE PUSH1 0x41 PUSH1 0x4 MSTORE PUSH1 0x24 PUSH1 0x0 REVERT JUMPDEST PUSH1 0x0 DUP3 PUSH1 0x1F DUP4 ADD SLT PUSH2 0x247C JUMPI PUSH1 0x0 DUP1 REVERT JUMPDEST DUP2 CALLDATALOAD PUSH1 0x1 PUSH1 0x1 PUSH1 0x40 SHL SUB DUP2 GT ISZERO PUSH2 0x2495 JUMPI PUSH2 0x2495 PUSH2 0x2455 JUMP JUMPDEST PUSH1 0x40 MLOAD PUSH1 0x1F DUP3 ADD PUSH1 0x1F NOT SWAP1 DUP2 AND PUSH1 0x3F ADD AND DUP2 ADD PUSH1 0x1 PUSH1 0x1 PUSH1 0x40 SHL SUB DUP2 GT DUP3 DUP3 LT OR ISZERO PUSH2 0x24C3 JUMPI PUSH2 0x24C3 PUSH2 0x2455 JUMP JUMPDEST PUSH1 0x40 MSTORE DUP2 DUP2 MSTORE DUP4 DUP3 ADD PUSH1 0x20 ADD DUP6 LT ISZERO PUSH2 0x24DB JUMPI PUSH1 0x0 DUP1 REVERT JUMPDEST DUP2 PUSH1 0x20 DUP6 ADD PUSH1 0x20 DUP4 ADD CALLDATACOPY PUSH1 0x0 SWAP2 DUP2 ADD PUSH1 0x20 ADD SWAP2 SWAP1 SWAP2 MSTORE SWAP4 SWAP3 POP POP POP JUMP JUMPDEST PUSH1 0x4 DUP2 LT PUSH2 0x2505 JUMPI PUSH1 0x0 DUP1 REVERT JUMPDEST POP JUMP JUMPDEST PUSH1 0x0 DUP1 PUSH1 0x0 DUP1 PUSH1 0x80 DUP6 DUP8 SUB SLT ISZERO PUSH2 0x251E JUMPI PUSH1 0x0 DUP1 REVERT JUMPDEST DUP5 CALLDATALOAD PUSH1 0x1 PUSH1 0x1 PUSH1 0x40 SHL SUB DUP2 GT ISZERO PUSH2 0x2534 JUMPI PUSH1 0x0 DUP1 REVERT JUMPDEST PUSH2 0x2540 DUP8 DUP3 DUP9 ADD PUSH2 0x246B JUMP JUMPDEST SWAP5 POP POP PUSH1 0x20 DUP6 ADD CALLDATALOAD PUSH1 0x1 PUSH1 0x1 PUSH1 0x40 SHL SUB DUP2 GT ISZERO PUSH2 0x255C JUMPI PUSH1 0x0 DUP1 REVERT JUMPDEST PUSH2 0x2568 DUP8 DUP3 DUP9 ADD PUSH2 0x246B JUMP JUMPDEST SWAP4 POP POP PUSH1 0x40 DUP6 ADD CALLDATALOAD PUSH2 0x2579 DUP2 PUSH2 0x24F8 JUMP JUMPDEST SWAP4 SWAP7 SWAP3 SWAP6 POP SWAP3 SWAP4 PUSH1 0x60 ADD CALLDATALOAD SWAP3 POP POP JUMP JUMPDEST PUSH1 0x0 PUSH1 0x20 DUP3 DUP5 SUB SLT ISZERO PUSH2 0x259B JUMPI PUSH1 0x0 DUP1 REVERT JUMPDEST POP CALLDATALOAD SWAP2 SWAP1 POP JUMP JUMPDEST PUSH1 0x0 DUP2 MLOAD DUP1 DUP5 MSTORE PUSH1 0x0 JUMPDEST DUP2 DUP2 LT ISZERO PUSH2 0x25C8 JUMPI PUSH1 0x20 DUP2 DUP6 ADD DUP2 ADD MLOAD DUP7 DUP4 ADD DUP3 ADD MSTORE ADD PUSH2 0x25AC JUMP JUMPDEST POP PUSH1 0x0 PUSH1 0x20 DUP3 DUP7 ADD ADD MSTORE PUSH1 0x20 PUSH1 0x1F NOT PUSH1 0x1F DUP4 ADD AND DUP6 ADD ADD SWAP2 POP POP SWAP3 SWAP2 POP POP JUMP JUMPDEST PUSH4 0x4E487B71 PUSH1 0xE0 SHL PUSH1 0x0 MSTORE PUSH1 0x21 PUSH1 0x4 MSTORE PUSH1 0x24 PUSH1 0x0 REVERT JUMPDEST PUSH1 0x4 DUP2 LT PUSH2 0x2505 JUMPI PUSH4 0x4E487B71 PUSH1 0xE0 SHL PUSH1 0x0 MSTORE PUSH1 0x21 PUSH1 0x4 MSTORE PUSH1 0x24 PUSH1 0x0 REVERT JUMPDEST DUP10 DUP2 MSTORE PUSH2 0x120 PUSH1 0x20 DUP3 ADD MSTORE PUSH1 0x0 PUSH2 0x2637 PUSH2 0x120 DUP4 ADD DUP12 PUSH2 0x25A2 JUMP JUMPDEST DUP3 DUP2 SUB PUSH1 0x40 DUP5 ADD MSTORE PUSH2 0x2649 DUP2 DUP12 PUSH2 0x25A2 JUMP JUMPDEST SWAP2 POP POP PUSH2 0x2655 DUP9 PUSH2 0x25FE JUMP JUMPDEST DUP8 PUSH1 0x60 DUP4 ADD MSTORE PUSH2 0x2664 DUP8 PUSH2 0x25FE JUMP JUMPDEST PUSH1 0x80 DUP3 ADD SWAP7 SWAP1 SWAP7 MSTORE PUSH1 0xA0 DUP2 ADD SWAP5 SWAP1 SWAP5 MSTORE PUSH1 0xC0 DUP5 ADD SWAP3 SWAP1 SWAP3 MSTORE PUSH1 0xE0 DUP4 ADD MSTORE PUSH1 0x1 PUSH1 0x1 PUSH1 0xA0 SHL SUB AND PUSH2 0x100 SWAP1 SWAP2 ADD MSTORE SWAP5 SWAP4 POP POP POP POP JUMP JUMPDEST PUSH1 0x0 DUP1 PUSH1 0x40 DUP4 DUP6 SUB SLT ISZERO PUSH2 0x26AC JUMPI PUSH1 0x0 DUP1 REVERT JUMPDEST PUSH2 0x26B5 DUP4 PUSH2 0x23D4 JUMP JUMPDEST SWAP5 PUSH1 0x20 SWAP4 SWAP1 SWAP4 ADD CALLDATALOAD SWAP4 POP POP POP JUMP JUMPDEST PUSH1 0x0 PUSH1 0x20 DUP3 DUP5 SUB SLT ISZERO PUSH2 0x26D5 JUMPI PUSH1 0x0 DUP1 REVERT JUMPDEST DUP2 CALLDATALOAD PUSH2 0x240B DUP2 PUSH2 0x24F8 JUMP JUMPDEST PUSH1 0x20 DUP2 MSTORE PUSH1 0x0 PUSH2 0x240B PUSH1 0x20 DUP4 ADD DUP5 PUSH2 0x25A2 JUMP JUMPDEST PUSH1 0x0 DUP1 PUSH1 0x40 DUP4 DUP6 SUB SLT ISZERO PUSH2 0x2706 JUMPI PUSH1 0x0 DUP1 REVERT JUMPDEST PUSH2 0x270F DUP4 PUSH2 0x23D4 JUMP JUMPDEST SWAP2 POP PUSH1 0x20 DUP4 ADD CALLDATALOAD PUSH2 0x271F DUP2 PUSH2 0x24F8 JUMP JUMPDEST DUP1 SWAP2 POP POP SWAP3 POP SWAP3 SWAP1 POP JUMP JUMPDEST DUP11 DUP2 MSTORE PUSH2 0x140 PUSH1 0x20 DUP3 ADD MSTORE PUSH1 0x0 PUSH2 0x2745 PUSH2 0x140 DUP4 ADD DUP13 PUSH2 0x25A2 JUMP JUMPDEST DUP3 DUP2 SUB PUSH1 0x40 DUP5 ADD MSTORE PUSH2 0x2757 DUP2 DUP13 PUSH2 0x25A2 JUMP JUMPDEST SWAP2 POP POP PUSH2 0x2763 DUP10 PUSH2 0x25FE JUMP JUMPDEST DUP9 PUSH1 0x60 DUP4 ADD MSTORE PUSH2 0x2772 DUP9 PUSH2 0x25FE JUMP JUMPDEST PUSH1 0x80 DUP3 ADD SWAP8 SWAP1 SWAP8 MSTORE PUSH1 0xA0 DUP2 ADD SWAP6 SWAP1 SWAP6 MSTORE PUSH1 0xC0 DUP6 ADD SWAP4 SWAP1 SWAP4 MSTORE PUSH1 0xE0 DUP5 ADD SWAP2 SWAP1 SWAP2 MSTORE PUSH1 0x1 PUSH1 0x1 PUSH1 0xA0 SHL SUB AND PUSH2 0x100 DUP4 ADD MSTORE ISZERO ISZERO PUSH2 0x120 SWAP1 SWAP2 ADD MSTORE SWAP5 SWAP4 POP POP POP POP JUMP JUMPDEST PUSH1 0x0 DUP1 PUSH1 0x40 DUP4 DUP6 SUB SLT ISZERO PUSH2 0x27C5 JUMPI PUSH1 0x0 DUP1 REVERT JUMPDEST DUP3 CALLDATALOAD SWAP2 POP PUSH1 0x20 DUP4 ADD CALLDATALOAD PUSH2 0x271F DUP2 PUSH2 0x24F8 JUMP JUMPDEST PUSH1 0x0 DUP1 PUSH1 0x0 DUP1 PUSH1 0x0 PUSH1 0xA0 DUP7 DUP9 SUB SLT ISZERO PUSH2 0x27EF JUMPI PUSH1 0x0 DUP1 REVERT JUMPDEST DUP6 CALLDATALOAD SWAP5 POP PUSH1 0x20 DUP7 ADD CALLDATALOAD PUSH1 0x1 PUSH1 0x1 PUSH1 0x40 SHL SUB DUP2 GT ISZERO PUSH2 0x280C JUMPI PUSH1 0x0 DUP1 REVERT JUMPDEST PUSH2 0x2818 DUP9 DUP3 DUP10 ADD PUSH2 0x246B JUMP JUMPDEST SWAP5 POP POP PUSH1 0x40 DUP7 ADD CALLDATALOAD PUSH1 0x1 PUSH1 0x1 PUSH1 0x40 SHL SUB DUP2 GT ISZERO PUSH2 0x2834 JUMPI PUSH1 0x0 DUP1 REVERT JUMPDEST PUSH2 0x2840 DUP9 DUP3 DUP10 ADD PUSH2 0x246B JUMP JUMPDEST SWAP4 POP POP PUSH1 0x60 DUP7 ADD CALLDATALOAD PUSH2 0x2851 DUP2 PUSH2 0x24F8 JUMP JUMPDEST SWAP5 SWAP8 SWAP4 SWAP7 POP SWAP2 SWAP5 PUSH1 0x80 ADD CALLDATALOAD SWAP3 SWAP2 POP POP JUMP JUMPDEST PUSH4 0x4E487B71 PUSH1 0xE0 SHL PUSH1 0x0 MSTORE PUSH1 0x32 PUSH1 0x4 MSTORE PUSH1 0x24 PUSH1 0x0 REVERT JUMPDEST PUSH1 0x1 DUP2 DUP2 SHR SWAP1 DUP3 AND DUP1 PUSH2 0x288C JUMPI PUSH1 0x7F DUP3 AND SWAP2 POP JUMPDEST PUSH1 0x20 DUP3 LT DUP2 SUB PUSH2 0x1AEE JUMPI PUSH4 0x4E487B71 PUSH1 0xE0 SHL PUSH1 0x0 MSTORE PUSH1 0x22 PUSH1 0x4 MSTORE PUSH1 0x24 PUSH1 0x0 REVERT JUMPDEST PUSH4 0x4E487B71 PUSH1 0xE0 SHL PUSH1 0x0 MSTORE PUSH1 0x11 PUSH1 0x4 MSTORE PUSH1 0x24 PUSH1 0x0 REVERT JUMPDEST PUSH1 0x0 PUSH1 0x1 DUP3 ADD PUSH2 0x28D4 JUMPI PUSH2 0x28D4 PUSH2 0x28AC JUMP JUMPDEST POP PUSH1 0x1 ADD SWAP1 JUMP JUMPDEST PUSH1 0x20 DUP1 DUP3 MSTORE PUSH1 0x24 SWAP1 DUP3 ADD MSTORE PUSH32 0x4465736372697074696F6E20746F6F206C6F6E6720286D617820353030206368 PUSH1 0x40 DUP3 ADD MSTORE PUSH4 0x61727329 PUSH1 0xE0 SHL PUSH1 0x60 DUP3 ADD MSTORE PUSH1 0x80 ADD SWAP1 JUMP JUMPDEST PUSH1 0x1F DUP3 GT ISZERO PUSH2 0x2966 JUMPI DUP1 PUSH1 0x0 MSTORE PUSH1 0x20 PUSH1 0x0 KECCAK256 PUSH1 0x1F DUP5 ADD PUSH1 0x5 SHR DUP2 ADD PUSH1 0x20 DUP6 LT ISZERO PUSH2 0x2946 JUMPI POP DUP1 JUMPDEST PUSH1 0x1F DUP5 ADD PUSH1 0x5 SHR DUP3 ADD SWAP2 POP JUMPDEST DUP2 DUP2 LT ISZERO PUSH2 0x1CD6 JUMPI PUSH1 0x0 DUP2 SSTORE PUSH1 0x1 ADD PUSH2 0x2952 JUMP JUMPDEST POP POP POP JUMP JUMPDEST DUP2 MLOAD PUSH1 0x1 PUSH1 0x1 PUSH1 0x40 SHL SUB DUP2 GT ISZERO PUSH2 0x2984 JUMPI PUSH2 0x2984 PUSH2 0x2455 JUMP JUMPDEST PUSH2 0x2998 DUP2 PUSH2 0x2992 DUP5 SLOAD PUSH2 0x2878 JUMP JUMPDEST DUP5 PUSH2 0x291F JUMP JUMPDEST PUSH1 0x20 PUSH1 0x1F DUP3 GT PUSH1 0x1 DUP2 EQ PUSH2 0x29CC JUMPI PUSH1 0x0 DUP4 ISZERO PUSH2 0x29B4 JUMPI POP DUP5 DUP3 ADD MLOAD JUMPDEST PUSH1 0x0 NOT PUSH1 0x3 DUP6 SWAP1 SHL SHR NOT AND PUSH1 0x1 DUP5 SWAP1 SHL OR DUP5 SSTORE PUSH2 0x1CD6 JUMP JUMPDEST PUSH1 0x0 DUP5 DUP2 MSTORE PUSH1 0x20 DUP2 KECCAK256 PUSH1 0x1F NOT DUP6 AND SWAP2 JUMPDEST DUP3 DUP2 LT ISZERO PUSH2 0x29FC JUMPI DUP8 DUP6 ADD MLOAD DUP3 SSTORE PUSH1 0x20 SWAP5 DUP6 ADD SWAP5 PUSH1 0x1 SWAP1 SWAP3 ADD SWAP2 ADD PUSH2 0x29DC JUMP JUMPDEST POP DUP5 DUP3 LT ISZERO PUSH2 0x2A1A JUMPI DUP7 DUP5 ADD MLOAD PUSH1 0x0 NOT PUSH1 0x3 DUP8 SWAP1 SHL PUSH1 0xF8 AND SHR NOT AND DUP2 SSTORE JUMPDEST POP POP POP POP PUSH1 0x1 SWAP1 DUP2 SHL ADD SWAP1 SSTORE POP JUMP JUMPDEST PUSH1 0x80 DUP2 MSTORE PUSH1 0x0 PUSH2 0x2A3C PUSH1 0x80 DUP4 ADD DUP8 PUSH2 0x25A2 JUMP JUMPDEST SWAP1 POP PUSH2 0x2A47 DUP6 PUSH2 0x25FE JUMP JUMPDEST DUP5 PUSH1 0x20 DUP4 ADD MSTORE DUP4 PUSH1 0x40 DUP4 ADD MSTORE DUP3 PUSH1 0x60 DUP4 ADD MSTORE SWAP6 SWAP5 POP POP POP POP POP JUMP JUMPDEST PUSH1 0x20 DUP1 DUP3 MSTORE PUSH1 0x13 SWAP1 DUP3 ADD MSTORE PUSH19 0x15185CDAC8191BD95CC81B9BDD08195E1A5CDD PUSH1 0x6A SHL PUSH1 0x40 DUP3 ADD MSTORE PUSH1 0x60 ADD SWAP1 JUMP JUMPDEST PUSH1 0x20 DUP1 DUP3 MSTORE PUSH1 0x12 SWAP1 DUP3 ADD MSTORE PUSH18 0x2737BA103A3432903A30B9B59037BBB732B9 PUSH1 0x71 SHL PUSH1 0x40 DUP3 ADD MSTORE PUSH1 0x60 ADD SWAP1 JUMP JUMPDEST PUSH1 0x0 DUP2 PUSH2 0x2ACA JUMPI PUSH2 0x2ACA PUSH2 0x28AC JUMP JUMPDEST POP PUSH1 0x0 NOT ADD SWAP1 JUMP JUMPDEST DUP2 DUP2 SUB DUP2 DUP2 GT ISZERO PUSH2 0x14B1 JUMPI PUSH2 0x14B1 PUSH2 0x28AC JUMP JUMPDEST PUSH4 0x4E487B71 PUSH1 0xE0 SHL PUSH1 0x0 MSTORE PUSH1 0x31 PUSH1 0x4 MSTORE PUSH1 0x24 PUSH1 0x0 REVERT JUMPDEST DUP1 DUP3 MUL DUP2 ISZERO DUP3 DUP3 DIV DUP5 EQ OR PUSH2 0x14B1 JUMPI PUSH2 0x14B1 PUSH2 0x28AC JUMP JUMPDEST PUSH1 0x0 DUP3 PUSH2 0x2B2F JUMPI PUSH4 0x4E487B71 PUSH1 0xE0 SHL PUSH1 0x0 MSTORE PUSH1 0x12 PUSH1 0x4 MSTORE PUSH1 0x24 PUSH1 0x0 REVERT JUMPDEST POP DIV SWAP1 JUMP JUMPDEST PUSH1 0x60 DUP2 ADD PUSH2 0x2B41 DUP6 PUSH2 0x25FE JUMP JUMPDEST DUP5 DUP3 MSTORE PUSH2 0x2B4D DUP5 PUSH2 0x25FE JUMP JUMPDEST PUSH1 0x20 DUP3 ADD SWAP4 SWAP1 SWAP4 MSTORE PUSH1 0x40 ADD MSTORE SWAP2 SWAP1 POP JUMP INVALID LOG2 PUSH5 0x6970667358 0x22 SLT KECCAK256 0xBE LOG1 LT 0x28 BLOCKHASH SDIV 0xC6 SWAP11 0xE5 0xAB 0xB0 MSIZE 0xDA PUSH4 0x8DE3C92F 0xE2 0xD4 0xB3 SWAP16 PUSH31 0xEDCE597BA8200C894964736F6C634300081C00330000000000000000000000 "
        },
        "methodIdentifiers": {
          "cancelTask(uint256)": "7eec20a8",
          "cancelledTasks(address)": "d937963e",
          "completeTask(uint256)": "e1e29558",
          "completedTasks(address)": "c343c410",
          "createTask(string,string,uint8,uint256)": "12ead59d",
          "deleteTask(uint256)": "560f3192",
          "getCompletionRate(address)": "a3c28ba6",
          "getContractStats()": "dfe6b5d6",
          "getOverdueTasks(address)": "075a8bbd",
          "getTask(uint256)": "1d65e77e",
          "getUserStats(address)": "4e43603a",
          "getUserTasks(address)": "95d57660",
          "getUserTasksByPriority(address,uint8)": "ac444c56",
          "getUserTasksByStatus(address,uint8)": "72efb531",
          "inProgressTasks(address)": "94eaf4fa",
          "isTaskOverdue(uint256)": "ab7e91fe",
          "pendingTasks(address)": "8c90f327",
          "priorityToString(uint8)": "994a0bba",
          "startTask(uint256)": "5f944326",
          "statusToString(uint8)": "6d7b7fc9",
          "tasks(uint256)": "8d977672",
          "totalTasks()": "d22c81e5",
          "updateTask(uint256,string,string,uint8,uint256)": "dde15728",
          "updateTaskStatus(uint256,uint8)": "ab9b6811",
          "userTaskCount(address)": "58f9e741",
          "userTasks(address,uint256)": "66873a55"
        }
      }
    }
  }
}