{
  "contracts/RandomNumberGenerator.sol": {
    "RandomNumberGenerator": {
      "abi": [
        {
          "inputs": [],
          "stateMutability": "nonpayable",
          "type": "constructor"
        },
        {
          "anonymous": false,
          "inputs": [
            {
              "indexed": true,
              "internalType": "uint256",
              "name": "requestId",
              "type": "uint256"
            },
            {
              "indexed": true,
              "internalType": "address",
              "name": "requester",
              "type": "address"
            },
            {
              "indexed": false,
              "internalType": "uint256",
              "name": "randomNumber",
              "type": "uint256"
            },
            {
              "indexed": false,
              "internalType": "uint256",
              "name": "minRange",
              "type": "uint256"
            },
            {
              "indexed": false,
              "internalType": "uint256",
              "name": "maxRange",
              "type": "uint256"
            }
          ],
          "name": "RandomNumberGenerated",
          "type": "event"
        },
        {
          "anonymous": false,
          "inputs": [
            {
              "indexed": false,
              "internalType": "bytes32",
              "name": "newSeed",
              "type": "bytes32"
            }
          ],
          "name": "SeedUpdated",
          "type": "event"
        },
        {
          "inputs": [],
          "name": "flipCoin",
          "outputs": [
            {
              "internalType": "uint256",
              "name": "",
              "type": "uint256"
            }
          ],
          "stateMutability": "nonpayable",
          "type": "function"
        },
        {
          "inputs": [],
          "name": "generateLotteryNumbers",
          "outputs": [
            {
              "internalType": "uint256[]",
              "name": "",
              "type": "uint256[]"
            }
          ],
          "stateMutability": "nonpayable",
          "type": "function"
        },
        {
          "inputs": [
            {
              "internalType": "uint256",
              "name": "_count",
              "type": "uint256"
            },
            {
              "internalType": "uint256",
              "name": "_min",
              "type": "uint256"
            },
            {
              "internalType": "uint256",
              "name": "_max",
              "type": "uint256"
            }
          ],
          "name": "generateMultipleRandom",
          "outputs": [
            {
              "internalType": "uint256[]",
              "name": "",
              "type": "uint256[]"
            }
          ],
          "stateMutability": "nonpayable",
          "type": "function"
        },
        {
          "inputs": [],
          "name": "generateRandom",
          "outputs": [
            {
              "internalType": "uint256",
              "name": "",
              "type": "uint256"
            }
          ],
          "stateMutability": "nonpayable",
          "type": "function"
        },
        {
          "inputs": [
            {
              "internalType": "uint256",
              "name": "_min",
              "type": "uint256"
            },
            {
              "internalType": "uint256",
              "name": "_max",
              "type": "uint256"
            }
          ],
          "name": "generateRandomInRange",
          "outputs": [
            {
              "internalType": "uint256",
              "name": "",
              "type": "uint256"
            }
          ],
          "stateMutability": "nonpayable",
          "type": "function"
        },
        {
          "inputs": [],
          "name": "getCurrentNonce",
          "outputs": [
            {
              "internalType": "uint256",
              "name": "",
              "type": "uint256"
            }
          ],
          "stateMutability": "view",
          "type": "function"
        },
        {
          "inputs": [
            {
              "internalType": "uint256",
              "name": "_min",
              "type": "uint256"
            },
            {
              "internalType": "uint256",
              "name": "_max",
              "type": "uint256"
            }
          ],
          "name": "getDistributionAnalysis",
          "outputs": [
            {
              "internalType": "uint256[]",
              "name": "numbers",
              "type": "uint256[]"
            },
            {
              "internalType": "uint256[]",
              "name": "counts",
              "type": "uint256[]"
            }
          ],
          "stateMutability": "view",
          "type": "function"
        },
        {
          "inputs": [],
          "name": "getPlatformStats",
          "outputs": [
            {
              "internalType": "uint256",
              "name": "totalRandomNumbers",
              "type": "uint256"
            },
            {
              "internalType": "uint256",
              "name": "totalUsers",
              "type": "uint256"
            },
            {
              "internalType": "uint256",
              "name": "averageRequestsPerUser",
              "type": "uint256"
            }
          ],
          "stateMutability": "view",
          "type": "function"
        },
        {
          "inputs": [
            {
              "internalType": "uint256",
              "name": "_requestId",
              "type": "uint256"
            }
          ],
          "name": "getRandomRequest",
          "outputs": [
            {
              "internalType": "uint256",
              "name": "id",
              "type": "uint256"
            },
            {
              "internalType": "address",
              "name": "requester",
              "type": "address"
            },
            {
              "internalType": "uint256",
              "name": "randomNumber",
              "type": "uint256"
            },
            {
              "internalType": "uint256",
              "name": "minRange",
              "type": "uint256"
            },
            {
              "internalType": "uint256",
              "name": "maxRange",
              "type": "uint256"
            },
            {
              "internalType": "uint256",
              "name": "timestamp",
              "type": "uint256"
            },
            {
              "internalType": "bytes32",
              "name": "seed",
              "type": "bytes32"
            }
          ],
          "stateMutability": "view",
          "type": "function"
        },
        {
          "inputs": [],
          "name": "getRecentNumbers",
          "outputs": [
            {
              "internalType": "uint256[]",
              "name": "",
              "type": "uint256[]"
            }
          ],
          "stateMutability": "view",
          "type": "function"
        },
        {
          "inputs": [],
          "name": "getTotalRequests",
          "outputs": [
            {
              "internalType": "uint256",
              "name": "",
              "type": "uint256"
            }
          ],
          "stateMutability": "view",
          "type": "function"
        },
        {
          "inputs": [
            {
              "internalType": "address",
              "name": "_user",
              "type": "address"
            }
          ],
          "name": "getUserRequests",
          "outputs": [
            {
              "internalType": "uint256[]",
              "name": "",
              "type": "uint256[]"
            }
          ],
          "stateMutability": "view",
          "type": "function"
        },
        {
          "inputs": [
            {
              "internalType": "address",
              "name": "_user",
              "type": "address"
            }
          ],
          "name": "getUserStats",
          "outputs": [
            {
              "internalType": "uint256",
              "name": "totalRequests",
              "type": "uint256"
            },
            {
              "internalType": "uint256",
              "name": "averageNumber",
              "type": "uint256"
            },
            {
              "internalType": "uint256",
              "name": "highestNumber",
              "type": "uint256"
            },
            {
              "internalType": "uint256",
              "name": "lowestNumber",
              "type": "uint256"
            }
          ],
          "stateMutability": "view",
          "type": "function"
        },
        {
          "inputs": [
            {
              "internalType": "uint256",
              "name": "",
              "type": "uint256"
            }
          ],
          "name": "randomRequests",
          "outputs": [
            {
              "internalType": "uint256",
              "name": "id",
              "type": "uint256"
            },
            {
              "internalType": "address",
              "name": "requester",
              "type": "address"
            },
            {
              "internalType": "uint256",
              "name": "randomNumber",
              "type": "uint256"
            },
            {
              "internalType": "uint256",
              "name": "minRange",
              "type": "uint256"
            },
            {
              "internalType": "uint256",
              "name": "maxRange",
              "type": "uint256"
            },
            {
              "internalType": "uint256",
              "name": "timestamp",
              "type": "uint256"
            },
            {
              "internalType": "bytes32",
              "name": "seed",
              "type": "bytes32"
            }
          ],
          "stateMutability": "view",
          "type": "function"
        },
        {
          "inputs": [],
          "name": "rollDice",
          "outputs": [
            {
              "internalType": "uint256",
              "name": "",
              "type": "uint256"
            }
          ],
          "stateMutability": "nonpayable",
          "type": "function"
        },
        {
          "inputs": [],
          "name": "totalRequests",
          "outputs": [
            {
              "internalType": "uint256",
              "name": "",
              "type": "uint256"
            }
          ],
          "stateMutability": "view",
          "type": "function"
        },
        {
          "inputs": [
            {
              "internalType": "address",
              "name": "",
              "type": "address"
            }
          ],
          "name": "userRequestCount",
          "outputs": [
            {
              "internalType": "uint256",
              "name": "",
              "type": "uint256"
            }
          ],
          "stateMutability": "view",
          "type": "function"
        },
        {
          "inputs": [
            {
              "internalType": "address",
              "name": "",
              "type": "address"
            },
            {
              "internalType": "uint256",
              "name": "",
              "type": "uint256"
            }
          ],
          "name": "userRequests",
          "outputs": [
            {
              "internalType": "uint256",
              "name": "",
              "type": "uint256"
            }
          ],
          "stateMutability": "view",
          "type": "function"
        },
        {
          "inputs": [
            {
              "internalType": "uint256",
              "name": "_requestId",
              "type": "uint256"
            }
          ],
          "name": "verifyRandomNumber",
          "outputs": [
            {
              "internalType": "bool",
              "name": "",
              "type": "bool"
            }
          ],
          "stateMutability": "view",
          "type": "function"
        }
      ],
      "evm": {
        "bytecode": {
          "linkReferences": {},
          "object": "6080346068576001600055426020820190815244604083015233606090811b908301526054825260808201916001600160401b0383118184101760525782604052519020600255611764908161006e8239f35b634e487b7160e01b600052604160045260246000fd5b600080fdfe6080604052600436101561001257600080fd5b6000803560e01c806302e4af01146110af5780630cc06d4c1461100e578063136d888314610f73578063263cb6b614610f1c5780633a60c38614610efe5780634c25489214610dcd5780634e43603a14610d91578063799ae22314610be257806381aba07b146109dd578063837e7cc6146108005780638aea61dc146101af578063aa488d7e1461071a578063aae31df31461064e578063b337cf74146105c8578063ca067ad01461053c578063cf8941f4146101cd578063f0e22d52146101af578063f1a731b1146101295763f94c04fc146100ee57600080fd5b34610126576020366003190112610126576020906040906001600160a01b03610115611292565b168152600583522054604051908152f35b80fd5b503461012657610138366112db565b906101448282106113b3565b6127106101518284611379565b1161016a5760209161016291611555565b604051908152f35b60405162461bcd60e51b815260206004820152601b60248201527f52616e676520746f6f206c6172676520286d61782031303030302900000000006044820152606490fd5b50346101265780600319360112610126576020600154604051908152f35b50346101265780600319360112610126576040516101ec60e08261130d565b6006815260c0366020830137604051610640610208818361130d565b60318252601f1901366020830137829060001943014381119040903360601b91603194603115945b600682106102e5578888815b6006811061025e576040516020808252819061025a9082018561125e565b0390f35b600181018082116102d1575b6006811061027b575060010161023c565b6001906102888385611386565b516102938286611386565b51106102a0575b0161026a565b6102aa8385611386565b516102b58286611386565b516102c08587611386565b526102cb8286611386565b5261029a565b634e487b7160e01b84526011600452602484fd5b8897929394959697508860015b156104e9575b50889061030660025461139a565b86816002556104d557604051602081019142835244604083015289606083015260748201528660948201526094815261034060b48261130d565b5190208a6104d5576000896104c1575089810660010190816001116104ab576000549061036c8261139a565b60005560066040519161037e836112f1565b8383528d6020840190338252604085018781526060860190600182526080870192835260a087019342855260c08801958652886000526003602052604060002097518855600188019060018060a01b039051166001600160601b0360a01b8254161790555160028701555160038601555160048501555160058401555191015533600052600460205260406000208054600160401b81101561049557610429916001820181556112ad565b81549060031b9083821b91600019901b19161790553360005260056020526040600020610456815461139a565b905561046360015461139a565b60015560405190828252600160208301528b604083015260008051602061170f83398151915260603393a390916102f2565b634e487b7160e01b600052604160045260246000fd5b634e487b7160e01b600052601160045260246000fd5b634e487b7160e01b81526012600452602490fd5b634e487b7160e01b8b52601160045260248bfd5b60001981018181116104d5576104ff9083611386565b516102f8579297969594939290919060001981018181116104d55790600161052981949386611386565b52610534828b611386565b520190610230565b5034610126576020366003190112610126576040906004358152600360205220805461025a60018060a01b0360018401541692600281015490600381015460048201549060066005840154930154936040519788978893909796959260c0959260e0860199865260018060a01b0316602086015260408501526060840152608083015260a08201520152565b5034610126576020366003190112610126576001600160a01b036105ea611292565b168152600460205260408120604051918260208354918281520192825260208220915b8181106106385761025a856106248187038261130d565b60405191829160208352602083019061125e565b825484526020909301926001928301920161060d565b50346101265760203660031901126101265760409060043580151580610710575b6106789061150a565b81526003602052206040519061068d826112f1565b805480835260018201546001600160a01b03166020808501829052600284015460408087018290526003860154606080890182905260048801546080808b0182905260058a015460a0808d018290526006909b015460c09c8d0181905286519a8b52978a019890985293880194909452860152840152928201529182015260e090f35b508154811061066f565b503461012657602036600319011261012657600435801515806107f6575b6107419061150a565b8152600360205260408120906040519061075a826112f1565b8254825260018060a01b03600184015416602083015260c06107b46002850154936040810194855260038601549581876060819401526006600483015492836080840152600581015460a084015201549485910152611379565b91600183018093116107e25750926107d16107d79260209561154b565b90611410565b905114604051908152f35b634e487b7160e01b81526011600452602490fd5b5081548110610738565b503461012657806003193601126101265761081c60025461139a565b8060025560001943014381116109c9576040519060208201924284524460408401523360601b606084015260748301524060948201526094815261086160b48261130d565b51902090806107e2575060068106600101806001116104ab57600054916108878361139a565b600055600660405191610899836112f1565b84835260208301338152604084018581526060850160018152608086019185835260a087019342855260c08801958652896000526003602052604060002097518855600188019060018060a01b039051166001600160601b0360a01b82541617905551600287015551600386015551600485015551600584015551910155336000526004602052604060002091825492600160401b84101561049557836109479160016020960181556112ad565b81549060031b9083821b91600019901b191617905533600052600583526040600020610973815461139a565b905561098060015461139a565b600155604051908282526001848301526006604083015260008051602061170f83398151915260603393a3604051908152f35b634e487b7160e01b600052601260045260246000fd5b634e487b7160e01b83526011600452602483fd5b5034610126576109ec366112db565b9182821015610bad576064610a018385611379565b11610b6857610a108284611379565b60018101809111610b5457610a2481611347565b93610a2e82611347565b93835b838110610b36575083549360015b858110610a7057610a628761025a8a60405193849360408552604085019061125e565b90838203602085015261125e565b8060019183526003602052604083208460405191610a8d836112f1565b80548352848060a01b0385820154166020840152878260028301549485604082015260038401549081606082015260c06006600487015496876080850152600581015460a08501520154910152149182610b2c575b5050610af1575b505001610a3f565b610afa91611379565b868110610b08575b84610ae9565b610b25610b1e610b18838d611386565b5161139a565b918b611386565b5238610b02565b1490508738610ae2565b80610b4360019284611410565b610b4d8289611386565b5201610a31565b634e487b7160e01b82526011600452602482fd5b60405162461bcd60e51b815260206004820152601c60248201527f52616e676520746f6f206c6172676520666f7220616e616c79736973000000006044820152606490fd5b60405162461bcd60e51b815260206004820152600d60248201526c496e76616c69642072616e676560981b6044820152606490fd5b5034610126578060031936011261012657610bfe60025461139a565b8060025560001943014381116109c9576040519060208201924284524460408401523360601b6060840152607483015240609482015260948152610c4360b48261130d565b519020816001926107e25750600080546001831692610c618261139a565b8355600660405191610c72836112f1565b83835260208301338152604084018781526060850187815260808601918a835260a087019342855260c08801958652888a52600360205260408a20975188558b88019060018060a01b039051166001600160601b0360a01b8254161790555160028701555160038601555160048501555160058401555191015533825260046020526040822093845494600160401b861015610d7d5785610d1991836020980181556112ad565b81549060031b9084821b91600019901b19161790553383526005855260408320610d43815461139a565b9055610d4f815461139a565b81556040519284845285840152604083015260008051602061170f83398151915260603393a3604051908152f35b634e487b7160e01b84526041600452602484fd5b5034610126576020366003190112610126576080610db5610db0611292565b61141d565b91604051938452602084015260408301526060820152f35b50346101265760603660031901126101265760043560443560243582151580610ef3575b15610eae57610e018282106113b3565b6103e8610e0e8284611379565b11610e5957610e1c83611347565b935b838110610e3b576040516020808252819061025a9082018861125e565b600190610e488484611555565b610e528288611386565b5201610e1e565b60405162461bcd60e51b815260206004820152602760248201527f52616e676520746f6f206c6172676520666f72206d756c7469706c652067656e60448201526632b930ba34b7b760c91b6064820152608490fd5b60405162461bcd60e51b815260206004820152601e60248201527f436f756e74206d757374206265206265747765656e203120616e6420313000006044820152606490fd5b50600a831115610df1565b50346101265780600319360112610126576020600254604051908152f35b503461012657604036600319011261012657610f36611292565b6001600160a01b0316815260046020526040812080546024359290831015610126576020610f6484846112ad565b90549060031b1c604051908152f35b50346101265780600319360112610126578060018154905b818110610fc75750508115610fc25750610fa7816001546113a9565b60015460408051918252602082019390935291820152606090f35b610fa7565b808352600360209081526040808520600101546001600160a01b031685526005909152832054610ffa575b600101610f8b565b9261100660019161139a565b939050610ff2565b5034610126578060031936011261012657600154600a8110156110a7575b61103581611347565b82549091906000198101908111845b838110611061576040516020808252819061025a9082018861125e565b81611093578061107360019285611379565b87526003602052600260408820015461108c8288611386565b5201611044565b634e487b7160e01b86526011600452602486fd5b50600a61102c565b50346101265780600319360112610126576110cb60025461139a565b8060025560001943014381116109c9576040519060208201924284524460408401523360601b606084015260748301524060948201526094815261111060b48261130d565b519020905060648106600101806001116104ab57600054916111318361139a565b600055600660405191611143836112f1565b8483526020830133815260408401858152606085016001815260808601916064835260a087019342855260c08801958652896000526003602052604060002097518855600188019060018060a01b039051166001600160601b0360a01b82541617905551600287015551600386015551600485015551600584015551910155336000526004602052604060002091825492600160401b84101561049557836111f29160016020960181556112ad565b81549060031b9083821b91600019901b19161790553360005260058352604060002061121e815461139a565b905561122b60015461139a565b600155604051908282526001848301526064604083015260008051602061170f83398151915260603393a3604051908152f35b906020808351928381520192019060005b81811061127c5750505090565b825184526020938401939092019160010161126f565b600435906001600160a01b03821682036112a857565b600080fd5b80548210156112c55760005260206000200190600090565b634e487b7160e01b600052603260045260246000fd5b60409060031901126112a8576004359060243590565b60e0810190811067ffffffffffffffff82111761049557604052565b90601f8019910116810190811067ffffffffffffffff82111761049557604052565b67ffffffffffffffff81116104955760051b60200190565b906113518261132f565b61135e604051918261130d565b828152809261136f601f199161132f565b0190602036910137565b919082039182116104ab57565b80518210156112c55760209160051b010190565b60001981146104ab5760010190565b81156109b3570490565b156113ba57565b60405162461bcd60e51b815260206004820152602860248201527f496e76616c69642072616e67653a206d696e206d757374206265206c657373206044820152670e8d0c2dc40dac2f60c31b6064820152608490fd5b919082018092116104ab57565b60018060a01b031660005260046020526040600020906040518083602082955493848152019060005260206000209260005b8181106114f15750506114649250038361130d565b8151156114e557600060001981805b85518110156114cd576114868187611386565b5160005260036020526114a26002604060002001548095611410565b938281116114c5575b8381106114bc575b50600101611473565b925060016114b3565b9150816114ab565b509290916114dd908551906113a9565b935193929190565b60009150819081908190565b845483526001948501948794506020909301920161144f565b1561151157565b60405162461bcd60e51b8152602060048201526012602482015271125b9d985b1a59081c995c5d595cdd08125160721b6044820152606490fd5b81156109b3570690565b61156060025461139a565b8060025560001943014381116104ab576040519060208201924284524460408401523360601b60608401526074830152406094820152609481526115a560b48261130d565b5190206115b28284611379565b600181018091116104ab576115ca6115d0918361154b565b83611410565b92600054916115de8361139a565b6000556006604051916115f0836112f1565b848352602083013381526040840188815260608501888152608086019187835260a087019342855260c08801958652896000526003602052604060002097518855600188019060018060a01b039051166001600160601b0360a01b82541617905551600287015551600386015551600485015551600584015551910155336000526004602052604060002090815490600160401b821015610495576116ad8260008051602061170f833981519152946001611708950181556112ad565b81549060031b9086821b91600019901b191617905533600052600560205260406000206116da815461139a565b90556116e760015461139a565b60015560408051878152602081019690965285015233939081906060820190565b0390a39056feeca23ef6c506152c00726da573a5937a5ed2819f65dde260ddfe1787600e80f3a264697066735822122083a722fd6cf9e56848922ce777d50cfe53570707bdfd7528a15c509f0f788d9264736f6c634300081c0033",
          "opcodes": "PUSH1 0x80 CALLVALUE PUSH1 0x68 JUMPI PUSH1 0x1 PUSH1 0x0 SSTORE TIMESTAMP PUSH1 0x20 DUP3 ADD SWAP1 DUP2 MSTORE PREVRANDAO PUSH1 0x40 DUP4 ADD MSTORE CALLER PUSH1 0x60 SWAP1 DUP2 SHL SWAP1 DUP4 ADD MSTORE PUSH1 0x54 DUP3 MSTORE PUSH1 0x80 DUP3 ADD SWAP2 PUSH1 0x1 PUSH1 0x1 PUSH1 0x40 SHL SUB DUP4 GT DUP2 DUP5 LT OR PUSH1 0x52 JUMPI DUP3 PUSH1 0x40 MSTORE MLOAD SWAP1 KECCAK256 PUSH1 0x2 SSTORE PUSH2 0x1764 SWAP1 DUP2 PUSH2 0x6E DUP3 CODECOPY RETURN JUMPDEST PUSH4 0x4E487B71 PUSH1 0xE0 SHL PUSH1 0x0 MSTORE PUSH1 0x41 PUSH1 0x4 MSTORE PUSH1 0x24 PUSH1 0x0 REVERT JUMPDEST PUSH1 0x0 DUP1 REVERT INVALID PUSH1 0x80 PUSH1 0x40 MSTORE PUSH1 0x4 CALLDATASIZE LT ISZERO PUSH2 0x12 JUMPI PUSH1 0x0 DUP1 REVERT JUMPDEST PUSH1 0x0 DUP1 CALLDATALOAD PUSH1 0xE0 SHR DUP1 PUSH4 0x2E4AF01 EQ PUSH2 0x10AF JUMPI DUP1 PUSH4 0xCC06D4C EQ PUSH2 0x100E JUMPI DUP1 PUSH4 0x136D8883 EQ PUSH2 0xF73 JUMPI DUP1 PUSH4 0x263CB6B6 EQ PUSH2 0xF1C JUMPI DUP1 PUSH4 0x3A60C386 EQ PUSH2 0xEFE JUMPI DUP1 PUSH4 0x4C254892 EQ PUSH2 0xDCD JUMPI DUP1 PUSH4 0x4E43603A EQ PUSH2 0xD91 JUMPI DUP1 PUSH4 0x799AE223 EQ PUSH2 0xBE2 JUMPI DUP1 PUSH4 0x81ABA07B EQ PUSH2 0x9DD JUMPI DUP1 PUSH4 0x837E7CC6 EQ PUSH2 0x800 JUMPI DUP1 PUSH4 0x8AEA61DC EQ PUSH2 0x1AF JUMPI DUP1 PUSH4 0xAA488D7E EQ PUSH2 0x71A JUMPI DUP1 PUSH4 0xAAE31DF3 EQ PUSH2 0x64E JUMPI DUP1 PUSH4 0xB337CF74 EQ PUSH2 0x5C8 JUMPI DUP1 PUSH4 0xCA067AD0 EQ PUSH2 0x53C JUMPI DUP1 PUSH4 0xCF8941F4 EQ PUSH2 0x1CD JUMPI DUP1 PUSH4 0xF0E22D52 EQ PUSH2 0x1AF JUMPI DUP1 PUSH4 0xF1A731B1 EQ PUSH2 0x129 JUMPI PUSH4 0xF94C04FC EQ PUSH2 0xEE JUMPI PUSH1 0x0 DUP1 REVERT JUMPDEST CALLVALUE PUSH2 0x126 JUMPI PUSH1 0x20 CALLDATASIZE PUSH1 0x3 NOT ADD SLT PUSH2 0x126 JUMPI PUSH1 0x20 SWAP1 PUSH1 0x40 SWAP1 PUSH1 0x1 PUSH1 0x1 PUSH1 0xA0 SHL SUB PUSH2 0x115 PUSH2 0x1292 JUMP JUMPDEST AND DUP2 MSTORE PUSH1 0x5 DUP4 MSTORE KECCAK256 SLOAD PUSH1 0x40 MLOAD SWAP1 DUP2 MSTORE RETURN JUMPDEST DUP1 REVERT JUMPDEST POP CALLVALUE PUSH2 0x126 JUMPI PUSH2 0x138 CALLDATASIZE PUSH2 0x12DB JUMP JUMPDEST SWAP1 PUSH2 0x144 DUP3 DUP3 LT PUSH2 0x13B3 JUMP JUMPDEST PUSH2 0x2710 PUSH2 0x151 DUP3 DUP5 PUSH2 0x1379 JUMP JUMPDEST GT PUSH2 0x16A JUMPI PUSH1 0x20 SWAP2 PUSH2 0x162 SWAP2 PUSH2 0x1555 JUMP JUMPDEST PUSH1 0x40 MLOAD SWAP1 DUP2 MSTORE RETURN JUMPDEST PUSH1 0x40 MLOAD PUSH3 0x461BCD PUSH1 0xE5 SHL DUP2 MSTORE PUSH1 0x20 PUSH1 0x4 DUP3 ADD MSTORE PUSH1 0x1B PUSH1 0x24 DUP3 ADD MSTORE PUSH32 0x52616E676520746F6F206C6172676520286D6178203130303030290000000000 PUSH1 0x44 DUP3 ADD MSTORE PUSH1 0x64 SWAP1 REVERT JUMPDEST POP CALLVALUE PUSH2 0x126 JUMPI DUP1 PUSH1 0x3 NOT CALLDATASIZE ADD SLT PUSH2 0x126 JUMPI PUSH1 0x20 PUSH1 0x1 SLOAD PUSH1 0x40 MLOAD SWAP1 DUP2 MSTORE RETURN JUMPDEST POP CALLVALUE PUSH2 0x126 JUMPI DUP1 PUSH1 0x3 NOT CALLDATASIZE ADD SLT PUSH2 0x126 JUMPI PUSH1 0x40 MLOAD PUSH2 0x1EC PUSH1 0xE0 DUP3 PUSH2 0x130D JUMP JUMPDEST PUSH1 0x6 DUP2 MSTORE PUSH1 0xC0 CALLDATASIZE PUSH1 0x20 DUP4 ADD CALLDATACOPY PUSH1 0x40 MLOAD PUSH2 0x640 PUSH2 0x208 DUP2 DUP4 PUSH2 0x130D JUMP JUMPDEST PUSH1 0x31 DUP3 MSTORE PUSH1 0x1F NOT ADD CALLDATASIZE PUSH1 0x20 DUP4 ADD CALLDATACOPY DUP3 SWAP1 PUSH1 0x0 NOT NUMBER ADD NUMBER DUP2 GT SWAP1 BLOCKHASH SWAP1 CALLER PUSH1 0x60 SHL SWAP2 PUSH1 0x31 SWAP5 PUSH1 0x31 ISZERO SWAP5 JUMPDEST PUSH1 0x6 DUP3 LT PUSH2 0x2E5 JUMPI DUP9 DUP9 DUP2 JUMPDEST PUSH1 0x6 DUP2 LT PUSH2 0x25E JUMPI PUSH1 0x40 MLOAD PUSH1 0x20 DUP1 DUP3 MSTORE DUP2 SWAP1 PUSH2 0x25A SWAP1 DUP3 ADD DUP6 PUSH2 0x125E JUMP JUMPDEST SUB SWAP1 RETURN JUMPDEST PUSH1 0x1 DUP2 ADD DUP1 DUP3 GT PUSH2 0x2D1 JUMPI JUMPDEST PUSH1 0x6 DUP2 LT PUSH2 0x27B JUMPI POP PUSH1 0x1 ADD PUSH2 0x23C JUMP JUMPDEST PUSH1 0x1 SWAP1 PUSH2 0x288 DUP4 DUP6 PUSH2 0x1386 JUMP JUMPDEST MLOAD PUSH2 0x293 DUP3 DUP7 PUSH2 0x1386 JUMP JUMPDEST MLOAD LT PUSH2 0x2A0 JUMPI JUMPDEST ADD PUSH2 0x26A JUMP JUMPDEST PUSH2 0x2AA DUP4 DUP6 PUSH2 0x1386 JUMP JUMPDEST MLOAD PUSH2 0x2B5 DUP3 DUP7 PUSH2 0x1386 JUMP JUMPDEST MLOAD PUSH2 0x2C0 DUP6 DUP8 PUSH2 0x1386 JUMP JUMPDEST MSTORE PUSH2 0x2CB DUP3 DUP7 PUSH2 0x1386 JUMP JUMPDEST MSTORE PUSH2 0x29A JUMP JUMPDEST PUSH4 0x4E487B71 PUSH1 0xE0 SHL DUP5 MSTORE PUSH1 0x11 PUSH1 0x4 MSTORE PUSH1 0x24 DUP5 REVERT JUMPDEST DUP9 SWAP8 SWAP3 SWAP4 SWAP5 SWAP6 SWAP7 SWAP8 POP DUP9 PUSH1 0x1 JUMPDEST ISZERO PUSH2 0x4E9 JUMPI JUMPDEST POP DUP9 SWAP1 PUSH2 0x306 PUSH1 0x2 SLOAD PUSH2 0x139A JUMP JUMPDEST DUP7 DUP2 PUSH1 0x2 SSTORE PUSH2 0x4D5 JUMPI PUSH1 0x40 MLOAD PUSH1 0x20 DUP2 ADD SWAP2 TIMESTAMP DUP4 MSTORE PREVRANDAO PUSH1 0x40 DUP4 ADD MSTORE DUP10 PUSH1 0x60 DUP4 ADD MSTORE PUSH1 0x74 DUP3 ADD MSTORE DUP7 PUSH1 0x94 DUP3 ADD MSTORE PUSH1 0x94 DUP2 MSTORE PUSH2 0x340 PUSH1 0xB4 DUP3 PUSH2 0x130D JUMP JUMPDEST MLOAD SWAP1 KECCAK256 DUP11 PUSH2 0x4D5 JUMPI PUSH1 0x0 DUP10 PUSH2 0x4C1 JUMPI POP DUP10 DUP2 MOD PUSH1 0x1 ADD SWAP1 DUP2 PUSH1 0x1 GT PUSH2 0x4AB JUMPI PUSH1 0x0 SLOAD SWAP1 PUSH2 0x36C DUP3 PUSH2 0x139A JUMP JUMPDEST PUSH1 0x0 SSTORE PUSH1 0x6 PUSH1 0x40 MLOAD SWAP2 PUSH2 0x37E DUP4 PUSH2 0x12F1 JUMP JUMPDEST DUP4 DUP4 MSTORE DUP14 PUSH1 0x20 DUP5 ADD SWAP1 CALLER DUP3 MSTORE PUSH1 0x40 DUP6 ADD DUP8 DUP2 MSTORE PUSH1 0x60 DUP7 ADD SWAP1 PUSH1 0x1 DUP3 MSTORE PUSH1 0x80 DUP8 ADD SWAP3 DUP4 MSTORE PUSH1 0xA0 DUP8 ADD SWAP4 TIMESTAMP DUP6 MSTORE PUSH1 0xC0 DUP9 ADD SWAP6 DUP7 MSTORE DUP9 PUSH1 0x0 MSTORE PUSH1 0x3 PUSH1 0x20 MSTORE PUSH1 0x40 PUSH1 0x0 KECCAK256 SWAP8 MLOAD DUP9 SSTORE PUSH1 0x1 DUP9 ADD SWAP1 PUSH1 0x1 DUP1 PUSH1 0xA0 SHL SUB SWAP1 MLOAD AND PUSH1 0x1 PUSH1 0x1 PUSH1 0x60 SHL SUB PUSH1 0xA0 SHL DUP3 SLOAD AND OR SWAP1 SSTORE MLOAD PUSH1 0x2 DUP8 ADD SSTORE MLOAD PUSH1 0x3 DUP7 ADD SSTORE MLOAD PUSH1 0x4 DUP6 ADD SSTORE MLOAD PUSH1 0x5 DUP5 ADD SSTORE MLOAD SWAP2 ADD SSTORE CALLER PUSH1 0x0 MSTORE PUSH1 0x4 PUSH1 0x20 MSTORE PUSH1 0x40 PUSH1 0x0 KECCAK256 DUP1 SLOAD PUSH1 0x1 PUSH1 0x40 SHL DUP2 LT ISZERO PUSH2 0x495 JUMPI PUSH2 0x429 SWAP2 PUSH1 0x1 DUP3 ADD DUP2 SSTORE PUSH2 0x12AD JUMP JUMPDEST DUP2 SLOAD SWAP1 PUSH1 0x3 SHL SWAP1 DUP4 DUP3 SHL SWAP2 PUSH1 0x0 NOT SWAP1 SHL NOT AND OR SWAP1 SSTORE CALLER PUSH1 0x0 MSTORE PUSH1 0x5 PUSH1 0x20 MSTORE PUSH1 0x40 PUSH1 0x0 KECCAK256 PUSH2 0x456 DUP2 SLOAD PUSH2 0x139A JUMP JUMPDEST SWAP1 SSTORE PUSH2 0x463 PUSH1 0x1 SLOAD PUSH2 0x139A JUMP JUMPDEST PUSH1 0x1 SSTORE PUSH1 0x40 MLOAD SWAP1 DUP3 DUP3 MSTORE PUSH1 0x1 PUSH1 0x20 DUP4 ADD MSTORE DUP12 PUSH1 0x40 DUP4 ADD MSTORE PUSH1 0x0 DUP1 MLOAD PUSH1 0x20 PUSH2 0x170F DUP4 CODECOPY DUP2 MLOAD SWAP2 MSTORE PUSH1 0x60 CALLER SWAP4 LOG3 SWAP1 SWAP2 PUSH2 0x2F2 JUMP JUMPDEST PUSH4 0x4E487B71 PUSH1 0xE0 SHL PUSH1 0x0 MSTORE PUSH1 0x41 PUSH1 0x4 MSTORE PUSH1 0x24 PUSH1 0x0 REVERT JUMPDEST PUSH4 0x4E487B71 PUSH1 0xE0 SHL PUSH1 0x0 MSTORE PUSH1 0x11 PUSH1 0x4 MSTORE PUSH1 0x24 PUSH1 0x0 REVERT JUMPDEST PUSH4 0x4E487B71 PUSH1 0xE0 SHL DUP2 MSTORE PUSH1 0x12 PUSH1 0x4 MSTORE PUSH1 0x24 SWAP1 REVERT JUMPDEST PUSH4 0x4E487B71 PUSH1 0xE0 SHL DUP12 MSTORE PUSH1 0x11 PUSH1 0x4 MSTORE PUSH1 0x24 DUP12 REVERT JUMPDEST PUSH1 0x0 NOT DUP2 ADD DUP2 DUP2 GT PUSH2 0x4D5 JUMPI PUSH2 0x4FF SWAP1 DUP4 PUSH2 0x1386 JUMP JUMPDEST MLOAD PUSH2 0x2F8 JUMPI SWAP3 SWAP8 SWAP7 SWAP6 SWAP5 SWAP4 SWAP3 SWAP1 SWAP2 SWAP1 PUSH1 0x0 NOT DUP2 ADD DUP2 DUP2 GT PUSH2 0x4D5 JUMPI SWAP1 PUSH1 0x1 PUSH2 0x529 DUP2 SWAP5 SWAP4 DUP7 PUSH2 0x1386 JUMP JUMPDEST MSTORE PUSH2 0x534 DUP3 DUP12 PUSH2 0x1386 JUMP JUMPDEST MSTORE ADD SWAP1 PUSH2 0x230 JUMP JUMPDEST POP CALLVALUE PUSH2 0x126 JUMPI PUSH1 0x20 CALLDATASIZE PUSH1 0x3 NOT ADD SLT PUSH2 0x126 JUMPI PUSH1 0x40 SWAP1 PUSH1 0x4 CALLDATALOAD DUP2 MSTORE PUSH1 0x3 PUSH1 0x20 MSTORE KECCAK256 DUP1 SLOAD PUSH2 0x25A PUSH1 0x1 DUP1 PUSH1 0xA0 SHL SUB PUSH1 0x1 DUP5 ADD SLOAD AND SWAP3 PUSH1 0x2 DUP2 ADD SLOAD SWAP1 PUSH1 0x3 DUP2 ADD SLOAD PUSH1 0x4 DUP3 ADD SLOAD SWAP1 PUSH1 0x6 PUSH1 0x5 DUP5 ADD SLOAD SWAP4 ADD SLOAD SWAP4 PUSH1 0x40 MLOAD SWAP8 DUP9 SWAP8 DUP9 SWAP4 SWAP1 SWAP8 SWAP7 SWAP6 SWAP3 PUSH1 0xC0 SWAP6 SWAP3 PUSH1 0xE0 DUP7 ADD SWAP10 DUP7 MSTORE PUSH1 0x1 DUP1 PUSH1 0xA0 SHL SUB AND PUSH1 0x20 DUP7 ADD MSTORE PUSH1 0x40 DUP6 ADD MSTORE PUSH1 0x60 DUP5 ADD MSTORE PUSH1 0x80 DUP4 ADD MSTORE PUSH1 0xA0 DUP3 ADD MSTORE ADD MSTORE JUMP JUMPDEST POP CALLVALUE PUSH2 0x126 JUMPI PUSH1 0x20 CALLDATASIZE PUSH1 0x3 NOT ADD SLT PUSH2 0x126 JUMPI PUSH1 0x1 PUSH1 0x1 PUSH1 0xA0 SHL SUB PUSH2 0x5EA PUSH2 0x1292 JUMP JUMPDEST AND DUP2 MSTORE PUSH1 0x4 PUSH1 0x20 MSTORE PUSH1 0x40 DUP2 KECCAK256 PUSH1 0x40 MLOAD SWAP2 DUP3 PUSH1 0x20 DUP4 SLOAD SWAP2 DUP3 DUP2 MSTORE ADD SWAP3 DUP3 MSTORE PUSH1 0x20 DUP3 KECCAK256 SWAP2 JUMPDEST DUP2 DUP2 LT PUSH2 0x638 JUMPI PUSH2 0x25A DUP6 PUSH2 0x624 DUP2 DUP8 SUB DUP3 PUSH2 0x130D JUMP JUMPDEST PUSH1 0x40 MLOAD SWAP2 DUP3 SWAP2 PUSH1 0x20 DUP4 MSTORE PUSH1 0x20 DUP4 ADD SWAP1 PUSH2 0x125E JUMP JUMPDEST DUP3 SLOAD DUP5 MSTORE PUSH1 0x20 SWAP1 SWAP4 ADD SWAP3 PUSH1 0x1 SWAP3 DUP4 ADD SWAP3 ADD PUSH2 0x60D JUMP JUMPDEST POP CALLVALUE PUSH2 0x126 JUMPI PUSH1 0x20 CALLDATASIZE PUSH1 0x3 NOT ADD SLT PUSH2 0x126 JUMPI PUSH1 0x40 SWAP1 PUSH1 0x4 CALLDATALOAD DUP1 ISZERO ISZERO DUP1 PUSH2 0x710 JUMPI JUMPDEST PUSH2 0x678 SWAP1 PUSH2 0x150A JUMP JUMPDEST DUP2 MSTORE PUSH1 0x3 PUSH1 0x20 MSTORE KECCAK256 PUSH1 0x40 MLOAD SWAP1 PUSH2 0x68D DUP3 PUSH2 0x12F1 JUMP JUMPDEST DUP1 SLOAD DUP1 DUP4 MSTORE PUSH1 0x1 DUP3 ADD SLOAD PUSH1 0x1 PUSH1 0x1 PUSH1 0xA0 SHL SUB AND PUSH1 0x20 DUP1 DUP6 ADD DUP3 SWAP1 MSTORE PUSH1 0x2 DUP5 ADD SLOAD PUSH1 0x40 DUP1 DUP8 ADD DUP3 SWAP1 MSTORE PUSH1 0x3 DUP7 ADD SLOAD PUSH1 0x60 DUP1 DUP10 ADD DUP3 SWAP1 MSTORE PUSH1 0x4 DUP9 ADD SLOAD PUSH1 0x80 DUP1 DUP12 ADD DUP3 SWAP1 MSTORE PUSH1 0x5 DUP11 ADD SLOAD PUSH1 0xA0 DUP1 DUP14 ADD DUP3 SWAP1 MSTORE PUSH1 0x6 SWAP1 SWAP12 ADD SLOAD PUSH1 0xC0 SWAP13 DUP14 ADD DUP2 SWAP1 MSTORE DUP7 MLOAD SWAP11 DUP12 MSTORE SWAP8 DUP11 ADD SWAP9 SWAP1 SWAP9 MSTORE SWAP4 DUP9 ADD SWAP5 SWAP1 SWAP5 MSTORE DUP7 ADD MSTORE DUP5 ADD MSTORE SWAP3 DUP3 ADD MSTORE SWAP2 DUP3 ADD MSTORE PUSH1 0xE0 SWAP1 RETURN JUMPDEST POP DUP2 SLOAD DUP2 LT PUSH2 0x66F JUMP JUMPDEST POP CALLVALUE PUSH2 0x126 JUMPI PUSH1 0x20 CALLDATASIZE PUSH1 0x3 NOT ADD SLT PUSH2 0x126 JUMPI PUSH1 0x4 CALLDATALOAD DUP1 ISZERO ISZERO DUP1 PUSH2 0x7F6 JUMPI JUMPDEST PUSH2 0x741 SWAP1 PUSH2 0x150A JUMP JUMPDEST DUP2 MSTORE PUSH1 0x3 PUSH1 0x20 MSTORE PUSH1 0x40 DUP2 KECCAK256 SWAP1 PUSH1 0x40 MLOAD SWAP1 PUSH2 0x75A DUP3 PUSH2 0x12F1 JUMP JUMPDEST DUP3 SLOAD DUP3 MSTORE PUSH1 0x1 DUP1 PUSH1 0xA0 SHL SUB PUSH1 0x1 DUP5 ADD SLOAD AND PUSH1 0x20 DUP4 ADD MSTORE PUSH1 0xC0 PUSH2 0x7B4 PUSH1 0x2 DUP6 ADD SLOAD SWAP4 PUSH1 0x40 DUP2 ADD SWAP5 DUP6 MSTORE PUSH1 0x3 DUP7 ADD SLOAD SWAP6 DUP2 DUP8 PUSH1 0x60 DUP2 SWAP5 ADD MSTORE PUSH1 0x6 PUSH1 0x4 DUP4 ADD SLOAD SWAP3 DUP4 PUSH1 0x80 DUP5 ADD MSTORE PUSH1 0x5 DUP2 ADD SLOAD PUSH1 0xA0 DUP5 ADD MSTORE ADD SLOAD SWAP5 DUP6 SWAP2 ADD MSTORE PUSH2 0x1379 JUMP JUMPDEST SWAP2 PUSH1 0x1 DUP4 ADD DUP1 SWAP4 GT PUSH2 0x7E2 JUMPI POP SWAP3 PUSH2 0x7D1 PUSH2 0x7D7 SWAP3 PUSH1 0x20 SWAP6 PUSH2 0x154B JUMP JUMPDEST SWAP1 PUSH2 0x1410 JUMP JUMPDEST SWAP1 MLOAD EQ PUSH1 0x40 MLOAD SWAP1 DUP2 MSTORE RETURN JUMPDEST PUSH4 0x4E487B71 PUSH1 0xE0 SHL DUP2 MSTORE PUSH1 0x11 PUSH1 0x4 MSTORE PUSH1 0x24 SWAP1 REVERT JUMPDEST POP DUP2 SLOAD DUP2 LT PUSH2 0x738 JUMP JUMPDEST POP CALLVALUE PUSH2 0x126 JUMPI DUP1 PUSH1 0x3 NOT CALLDATASIZE ADD SLT PUSH2 0x126 JUMPI PUSH2 0x81C PUSH1 0x2 SLOAD PUSH2 0x139A JUMP JUMPDEST DUP1 PUSH1 0x2 SSTORE PUSH1 0x0 NOT NUMBER ADD NUMBER DUP2 GT PUSH2 0x9C9 JUMPI PUSH1 0x40 MLOAD SWAP1 PUSH1 0x20 DUP3 ADD SWAP3 TIMESTAMP DUP5 MSTORE PREVRANDAO PUSH1 0x40 DUP5 ADD MSTORE CALLER PUSH1 0x60 SHL PUSH1 0x60 DUP5 ADD MSTORE PUSH1 0x74 DUP4 ADD MSTORE BLOCKHASH PUSH1 0x94 DUP3 ADD MSTORE PUSH1 0x94 DUP2 MSTORE PUSH2 0x861 PUSH1 0xB4 DUP3 PUSH2 0x130D JUMP JUMPDEST MLOAD SWAP1 KECCAK256 SWAP1 DUP1 PUSH2 0x7E2 JUMPI POP PUSH1 0x6 DUP2 MOD PUSH1 0x1 ADD DUP1 PUSH1 0x1 GT PUSH2 0x4AB JUMPI PUSH1 0x0 SLOAD SWAP2 PUSH2 0x887 DUP4 PUSH2 0x139A JUMP JUMPDEST PUSH1 0x0 SSTORE PUSH1 0x6 PUSH1 0x40 MLOAD SWAP2 PUSH2 0x899 DUP4 PUSH2 0x12F1 JUMP JUMPDEST DUP5 DUP4 MSTORE PUSH1 0x20 DUP4 ADD CALLER DUP2 MSTORE PUSH1 0x40 DUP5 ADD DUP6 DUP2 MSTORE PUSH1 0x60 DUP6 ADD PUSH1 0x1 DUP2 MSTORE PUSH1 0x80 DUP7 ADD SWAP2 DUP6 DUP4 MSTORE PUSH1 0xA0 DUP8 ADD SWAP4 TIMESTAMP DUP6 MSTORE PUSH1 0xC0 DUP9 ADD SWAP6 DUP7 MSTORE DUP10 PUSH1 0x0 MSTORE PUSH1 0x3 PUSH1 0x20 MSTORE PUSH1 0x40 PUSH1 0x0 KECCAK256 SWAP8 MLOAD DUP9 SSTORE PUSH1 0x1 DUP9 ADD SWAP1 PUSH1 0x1 DUP1 PUSH1 0xA0 SHL SUB SWAP1 MLOAD AND PUSH1 0x1 PUSH1 0x1 PUSH1 0x60 SHL SUB PUSH1 0xA0 SHL DUP3 SLOAD AND OR SWAP1 SSTORE MLOAD PUSH1 0x2 DUP8 ADD SSTORE MLOAD PUSH1 0x3 DUP7 ADD SSTORE MLOAD PUSH1 0x4 DUP6 ADD SSTORE MLOAD PUSH1 0x5 DUP5 ADD SSTORE MLOAD SWAP2 ADD SSTORE CALLER PUSH1 0x0 MSTORE PUSH1 0x4 PUSH1 0x20 MSTORE PUSH1 0x40 PUSH1 0x0 KECCAK256 SWAP2 DUP3 SLOAD SWAP3 PUSH1 0x1 PUSH1 0x40 SHL DUP5 LT ISZERO PUSH2 0x495 JUMPI DUP4 PUSH2 0x947 SWAP2 PUSH1 0x1 PUSH1 0x20 SWAP7 ADD DUP2 SSTORE PUSH2 0x12AD JUMP JUMPDEST DUP2 SLOAD SWAP1 PUSH1 0x3 SHL SWAP1 DUP4 DUP3 SHL SWAP2 PUSH1 0x0 NOT SWAP1 SHL NOT AND OR SWAP1 SSTORE CALLER PUSH1 0x0 MSTORE PUSH1 0x5 DUP4 MSTORE PUSH1 0x40 PUSH1 0x0 KECCAK256 PUSH2 0x973 DUP2 SLOAD PUSH2 0x139A JUMP JUMPDEST SWAP1 SSTORE PUSH2 0x980 PUSH1 0x1 SLOAD PUSH2 0x139A JUMP JUMPDEST PUSH1 0x1 SSTORE PUSH1 0x40 MLOAD SWAP1 DUP3 DUP3 MSTORE PUSH1 0x1 DUP5 DUP4 ADD MSTORE PUSH1 0x6 PUSH1 0x40 DUP4 ADD MSTORE PUSH1 0x0 DUP1 MLOAD PUSH1 0x20 PUSH2 0x170F DUP4 CODECOPY DUP2 MLOAD SWAP2 MSTORE PUSH1 0x60 CALLER SWAP4 LOG3 PUSH1 0x40 MLOAD SWAP1 DUP2 MSTORE RETURN JUMPDEST PUSH4 0x4E487B71 PUSH1 0xE0 SHL PUSH1 0x0 MSTORE PUSH1 0x12 PUSH1 0x4 MSTORE PUSH1 0x24 PUSH1 0x0 REVERT JUMPDEST PUSH4 0x4E487B71 PUSH1 0xE0 SHL DUP4 MSTORE PUSH1 0x11 PUSH1 0x4 MSTORE PUSH1 0x24 DUP4 REVERT JUMPDEST POP CALLVALUE PUSH2 0x126 JUMPI PUSH2 0x9EC CALLDATASIZE PUSH2 0x12DB JUMP JUMPDEST SWAP2 DUP3 DUP3 LT ISZERO PUSH2 0xBAD JUMPI PUSH1 0x64 PUSH2 0xA01 DUP4 DUP6 PUSH2 0x1379 JUMP JUMPDEST GT PUSH2 0xB68 JUMPI PUSH2 0xA10 DUP3 DUP5 PUSH2 0x1379 JUMP JUMPDEST PUSH1 0x1 DUP2 ADD DUP1 SWAP2 GT PUSH2 0xB54 JUMPI PUSH2 0xA24 DUP2 PUSH2 0x1347 JUMP JUMPDEST SWAP4 PUSH2 0xA2E DUP3 PUSH2 0x1347 JUMP JUMPDEST SWAP4 DUP4 JUMPDEST DUP4 DUP2 LT PUSH2 0xB36 JUMPI POP DUP4 SLOAD SWAP4 PUSH1 0x1 JUMPDEST DUP6 DUP2 LT PUSH2 0xA70 JUMPI PUSH2 0xA62 DUP8 PUSH2 0x25A DUP11 PUSH1 0x40 MLOAD SWAP4 DUP5 SWAP4 PUSH1 0x40 DUP6 MSTORE PUSH1 0x40 DUP6 ADD SWAP1 PUSH2 0x125E JUMP JUMPDEST SWAP1 DUP4 DUP3 SUB PUSH1 0x20 DUP6 ADD MSTORE PUSH2 0x125E JUMP JUMPDEST DUP1 PUSH1 0x1 SWAP2 DUP4 MSTORE PUSH1 0x3 PUSH1 0x20 MSTORE PUSH1 0x40 DUP4 KECCAK256 DUP5 PUSH1 0x40 MLOAD SWAP2 PUSH2 0xA8D DUP4 PUSH2 0x12F1 JUMP JUMPDEST DUP1 SLOAD DUP4 MSTORE DUP5 DUP1 PUSH1 0xA0 SHL SUB DUP6 DUP3 ADD SLOAD AND PUSH1 0x20 DUP5 ADD MSTORE DUP8 DUP3 PUSH1 0x2 DUP4 ADD SLOAD SWAP5 DUP6 PUSH1 0x40 DUP3 ADD MSTORE PUSH1 0x3 DUP5 ADD SLOAD SWAP1 DUP2 PUSH1 0x60 DUP3 ADD MSTORE PUSH1 0xC0 PUSH1 0x6 PUSH1 0x4 DUP8 ADD SLOAD SWAP7 DUP8 PUSH1 0x80 DUP6 ADD MSTORE PUSH1 0x5 DUP2 ADD SLOAD PUSH1 0xA0 DUP6 ADD MSTORE ADD SLOAD SWAP2 ADD MSTORE EQ SWAP2 DUP3 PUSH2 0xB2C JUMPI JUMPDEST POP POP PUSH2 0xAF1 JUMPI JUMPDEST POP POP ADD PUSH2 0xA3F JUMP JUMPDEST PUSH2 0xAFA SWAP2 PUSH2 0x1379 JUMP JUMPDEST DUP7 DUP2 LT PUSH2 0xB08 JUMPI JUMPDEST DUP5 PUSH2 0xAE9 JUMP JUMPDEST PUSH2 0xB25 PUSH2 0xB1E PUSH2 0xB18 DUP4 DUP14 PUSH2 0x1386 JUMP JUMPDEST MLOAD PUSH2 0x139A JUMP JUMPDEST SWAP2 DUP12 PUSH2 0x1386 JUMP JUMPDEST MSTORE CODESIZE PUSH2 0xB02 JUMP JUMPDEST EQ SWAP1 POP DUP8 CODESIZE PUSH2 0xAE2 JUMP JUMPDEST DUP1 PUSH2 0xB43 PUSH1 0x1 SWAP3 DUP5 PUSH2 0x1410 JUMP JUMPDEST PUSH2 0xB4D DUP3 DUP10 PUSH2 0x1386 JUMP JUMPDEST MSTORE ADD PUSH2 0xA31 JUMP JUMPDEST PUSH4 0x4E487B71 PUSH1 0xE0 SHL DUP3 MSTORE PUSH1 0x11 PUSH1 0x4 MSTORE PUSH1 0x24 DUP3 REVERT JUMPDEST PUSH1 0x40 MLOAD PUSH3 0x461BCD PUSH1 0xE5 SHL DUP2 MSTORE PUSH1 0x20 PUSH1 0x4 DUP3 ADD MSTORE PUSH1 0x1C PUSH1 0x24 DUP3 ADD MSTORE PUSH32 0x52616E676520746F6F206C6172676520666F7220616E616C7973697300000000 PUSH1 0x44 DUP3 ADD MSTORE PUSH1 0x64 SWAP1 REVERT JUMPDEST PUSH1 0x40 MLOAD PUSH3 0x461BCD PUSH1 0xE5 SHL DUP2 MSTORE PUSH1 0x20 PUSH1 0x4 DUP3 ADD MSTORE PUSH1 0xD PUSH1 0x24 DUP3 ADD MSTORE PUSH13 0x496E76616C69642072616E6765 PUSH1 0x98 SHL PUSH1 0x44 DUP3 ADD MSTORE PUSH1 0x64 SWAP1 REVERT JUMPDEST POP CALLVALUE PUSH2 0x126 JUMPI DUP1 PUSH1 0x3 NOT CALLDATASIZE ADD SLT PUSH2 0x126 JUMPI PUSH2 0xBFE PUSH1 0x2 SLOAD PUSH2 0x139A JUMP JUMPDEST DUP1 PUSH1 0x2 SSTORE PUSH1 0x0 NOT NUMBER ADD NUMBER DUP2 GT PUSH2 0x9C9 JUMPI PUSH1 0x40 MLOAD SWAP1 PUSH1 0x20 DUP3 ADD SWAP3 TIMESTAMP DUP5 MSTORE PREVRANDAO PUSH1 0x40 DUP5 ADD MSTORE CALLER PUSH1 0x60 SHL PUSH1 0x60 DUP5 ADD MSTORE PUSH1 0x74 DUP4 ADD MSTORE BLOCKHASH PUSH1 0x94 DUP3 ADD MSTORE PUSH1 0x94 DUP2 MSTORE PUSH2 0xC43 PUSH1 0xB4 DUP3 PUSH2 0x130D JUMP JUMPDEST MLOAD SWAP1 KECCAK256 DUP2 PUSH1 0x1 SWAP3 PUSH2 0x7E2 JUMPI POP PUSH1 0x0 DUP1 SLOAD PUSH1 0x1 DUP4 AND SWAP3 PUSH2 0xC61 DUP3 PUSH2 0x139A JUMP JUMPDEST DUP4 SSTORE PUSH1 0x6 PUSH1 0x40 MLOAD SWAP2 PUSH2 0xC72 DUP4 PUSH2 0x12F1 JUMP JUMPDEST DUP4 DUP4 MSTORE PUSH1 0x20 DUP4 ADD CALLER DUP2 MSTORE PUSH1 0x40 DUP5 ADD DUP8 DUP2 MSTORE PUSH1 0x60 DUP6 ADD DUP8 DUP2 MSTORE PUSH1 0x80 DUP7 ADD SWAP2 DUP11 DUP4 MSTORE PUSH1 0xA0 DUP8 ADD SWAP4 TIMESTAMP DUP6 MSTORE PUSH1 0xC0 DUP9 ADD SWAP6 DUP7 MSTORE DUP9 DUP11 MSTORE PUSH1 0x3 PUSH1 0x20 MSTORE PUSH1 0x40 DUP11 KECCAK256 SWAP8 MLOAD DUP9 SSTORE DUP12 DUP9 ADD SWAP1 PUSH1 0x1 DUP1 PUSH1 0xA0 SHL SUB SWAP1 MLOAD AND PUSH1 0x1 PUSH1 0x1 PUSH1 0x60 SHL SUB PUSH1 0xA0 SHL DUP3 SLOAD AND OR SWAP1 SSTORE MLOAD PUSH1 0x2 DUP8 ADD SSTORE MLOAD PUSH1 0x3 DUP7 ADD SSTORE MLOAD PUSH1 0x4 DUP6 ADD SSTORE MLOAD PUSH1 0x5 DUP5 ADD SSTORE MLOAD SWAP2 ADD SSTORE CALLER DUP3 MSTORE PUSH1 0x4 PUSH1 0x20 MSTORE PUSH1 0x40 DUP3 KECCAK256 SWAP4 DUP5 SLOAD SWAP5 PUSH1 0x1 PUSH1 0x40 SHL DUP7 LT ISZERO PUSH2 0xD7D JUMPI DUP6 PUSH2 0xD19 SWAP2 DUP4 PUSH1 0x20 SWAP9 ADD DUP2 SSTORE PUSH2 0x12AD JUMP JUMPDEST DUP2 SLOAD SWAP1 PUSH1 0x3 SHL SWAP1 DUP5 DUP3 SHL SWAP2 PUSH1 0x0 NOT SWAP1 SHL NOT AND OR SWAP1 SSTORE CALLER DUP4 MSTORE PUSH1 0x5 DUP6 MSTORE PUSH1 0x40 DUP4 KECCAK256 PUSH2 0xD43 DUP2 SLOAD PUSH2 0x139A JUMP JUMPDEST SWAP1 SSTORE PUSH2 0xD4F DUP2 SLOAD PUSH2 0x139A JUMP JUMPDEST DUP2 SSTORE PUSH1 0x40 MLOAD SWAP3 DUP5 DUP5 MSTORE DUP6 DUP5 ADD MSTORE PUSH1 0x40 DUP4 ADD MSTORE PUSH1 0x0 DUP1 MLOAD PUSH1 0x20 PUSH2 0x170F DUP4 CODECOPY DUP2 MLOAD SWAP2 MSTORE PUSH1 0x60 CALLER SWAP4 LOG3 PUSH1 0x40 MLOAD SWAP1 DUP2 MSTORE RETURN JUMPDEST PUSH4 0x4E487B71 PUSH1 0xE0 SHL DUP5 MSTORE PUSH1 0x41 PUSH1 0x4 MSTORE PUSH1 0x24 DUP5 REVERT JUMPDEST POP CALLVALUE PUSH2 0x126 JUMPI PUSH1 0x20 CALLDATASIZE PUSH1 0x3 NOT ADD SLT PUSH2 0x126 JUMPI PUSH1 0x80 PUSH2 0xDB5 PUSH2 0xDB0 PUSH2 0x1292 JUMP JUMPDEST PUSH2 0x141D JUMP JUMPDEST SWAP2 PUSH1 0x40 MLOAD SWAP4 DUP5 MSTORE PUSH1 0x20 DUP5 ADD MSTORE PUSH1 0x40 DUP4 ADD MSTORE PUSH1 0x60 DUP3 ADD MSTORE RETURN JUMPDEST POP CALLVALUE PUSH2 0x126 JUMPI PUSH1 0x60 CALLDATASIZE PUSH1 0x3 NOT ADD SLT PUSH2 0x126 JUMPI PUSH1 0x4 CALLDATALOAD PUSH1 0x44 CALLDATALOAD PUSH1 0x24 CALLDATALOAD DUP3 ISZERO ISZERO DUP1 PUSH2 0xEF3 JUMPI JUMPDEST ISZERO PUSH2 0xEAE JUMPI PUSH2 0xE01 DUP3 DUP3 LT PUSH2 0x13B3 JUMP JUMPDEST PUSH2 0x3E8 PUSH2 0xE0E DUP3 DUP5 PUSH2 0x1379 JUMP JUMPDEST GT PUSH2 0xE59 JUMPI PUSH2 0xE1C DUP4 PUSH2 0x1347 JUMP JUMPDEST SWAP4 JUMPDEST DUP4 DUP2 LT PUSH2 0xE3B JUMPI PUSH1 0x40 MLOAD PUSH1 0x20 DUP1 DUP3 MSTORE DUP2 SWAP1 PUSH2 0x25A SWAP1 DUP3 ADD DUP9 PUSH2 0x125E JUMP JUMPDEST PUSH1 0x1 SWAP1 PUSH2 0xE48 DUP5 DUP5 PUSH2 0x1555 JUMP JUMPDEST PUSH2 0xE52 DUP3 DUP9 PUSH2 0x1386 JUMP JUMPDEST MSTORE ADD PUSH2 0xE1E JUMP JUMPDEST PUSH1 0x40 MLOAD PUSH3 0x461BCD PUSH1 0xE5 SHL DUP2 MSTORE PUSH1 0x20 PUSH1 0x4 DUP3 ADD MSTORE PUSH1 0x27 PUSH1 0x24 DUP3 ADD MSTORE PUSH32 0x52616E676520746F6F206C6172676520666F72206D756C7469706C652067656E PUSH1 0x44 DUP3 ADD MSTORE PUSH7 0x32B930BA34B7B7 PUSH1 0xC9 SHL PUSH1 0x64 DUP3 ADD MSTORE PUSH1 0x84 SWAP1 REVERT JUMPDEST PUSH1 0x40 MLOAD PUSH3 0x461BCD PUSH1 0xE5 SHL DUP2 MSTORE PUSH1 0x20 PUSH1 0x4 DUP3 ADD MSTORE PUSH1 0x1E PUSH1 0x24 DUP3 ADD MSTORE PUSH32 0x436F756E74206D757374206265206265747765656E203120616E642031300000 PUSH1 0x44 DUP3 ADD MSTORE PUSH1 0x64 SWAP1 REVERT JUMPDEST POP PUSH1 0xA DUP4 GT ISZERO PUSH2 0xDF1 JUMP JUMPDEST POP CALLVALUE PUSH2 0x126 JUMPI DUP1 PUSH1 0x3 NOT CALLDATASIZE ADD SLT PUSH2 0x126 JUMPI PUSH1 0x20 PUSH1 0x2 SLOAD PUSH1 0x40 MLOAD SWAP1 DUP2 MSTORE RETURN JUMPDEST POP CALLVALUE PUSH2 0x126 JUMPI PUSH1 0x40 CALLDATASIZE PUSH1 0x3 NOT ADD SLT PUSH2 0x126 JUMPI PUSH2 0xF36 PUSH2 0x1292 JUMP JUMPDEST PUSH1 0x1 PUSH1 0x1 PUSH1 0xA0 SHL SUB AND DUP2 MSTORE PUSH1 0x4 PUSH1 0x20 MSTORE PUSH1 0x40 DUP2 KECCAK256 DUP1 SLOAD PUSH1 0x24 CALLDATALOAD SWAP3 SWAP1 DUP4 LT ISZERO PUSH2 0x126 JUMPI PUSH1 0x20 PUSH2 0xF64 DUP5 DUP5 PUSH2 0x12AD JUMP JUMPDEST SWAP1 SLOAD SWAP1 PUSH1 0x3 SHL SHR PUSH1 0x40 MLOAD SWAP1 DUP2 MSTORE RETURN JUMPDEST POP CALLVALUE PUSH2 0x126 JUMPI DUP1 PUSH1 0x3 NOT CALLDATASIZE ADD SLT PUSH2 0x126 JUMPI DUP1 PUSH1 0x1 DUP2 SLOAD SWAP1 JUMPDEST DUP2 DUP2 LT PUSH2 0xFC7 JUMPI POP POP DUP2 ISZERO PUSH2 0xFC2 JUMPI POP PUSH2 0xFA7 DUP2 PUSH1 0x1 SLOAD PUSH2 0x13A9 JUMP JUMPDEST PUSH1 0x1 SLOAD PUSH1 0x40 DUP1 MLOAD SWAP2 DUP3 MSTORE PUSH1 0x20 DUP3 ADD SWAP4 SWAP1 SWAP4 MSTORE SWAP2 DUP3 ADD MSTORE PUSH1 0x60 SWAP1 RETURN JUMPDEST PUSH2 0xFA7 JUMP JUMPDEST DUP1 DUP4 MSTORE PUSH1 0x3 PUSH1 0x20 SWAP1 DUP2 MSTORE PUSH1 0x40 DUP1 DUP6 KECCAK256 PUSH1 0x1 ADD SLOAD PUSH1 0x1 PUSH1 0x1 PUSH1 0xA0 SHL SUB AND DUP6 MSTORE PUSH1 0x5 SWAP1 SWAP2 MSTORE DUP4 KECCAK256 SLOAD PUSH2 0xFFA JUMPI JUMPDEST PUSH1 0x1 ADD PUSH2 0xF8B JUMP JUMPDEST SWAP3 PUSH2 0x1006 PUSH1 0x1 SWAP2 PUSH2 0x139A JUMP JUMPDEST SWAP4 SWAP1 POP PUSH2 0xFF2 JUMP JUMPDEST POP CALLVALUE PUSH2 0x126 JUMPI DUP1 PUSH1 0x3 NOT CALLDATASIZE ADD SLT PUSH2 0x126 JUMPI PUSH1 0x1 SLOAD PUSH1 0xA DUP2 LT ISZERO PUSH2 0x10A7 JUMPI JUMPDEST PUSH2 0x1035 DUP2 PUSH2 0x1347 JUMP JUMPDEST DUP3 SLOAD SWAP1 SWAP2 SWAP1 PUSH1 0x0 NOT DUP2 ADD SWAP1 DUP2 GT DUP5 JUMPDEST DUP4 DUP2 LT PUSH2 0x1061 JUMPI PUSH1 0x40 MLOAD PUSH1 0x20 DUP1 DUP3 MSTORE DUP2 SWAP1 PUSH2 0x25A SWAP1 DUP3 ADD DUP9 PUSH2 0x125E JUMP JUMPDEST DUP2 PUSH2 0x1093 JUMPI DUP1 PUSH2 0x1073 PUSH1 0x1 SWAP3 DUP6 PUSH2 0x1379 JUMP JUMPDEST DUP8 MSTORE PUSH1 0x3 PUSH1 0x20 MSTORE PUSH1 0x2 PUSH1 0x40 DUP9 KECCAK256 ADD SLOAD PUSH2 0x108C DUP3 DUP9 PUSH2 0x1386 JUMP JUMPDEST MSTORE ADD PUSH2 0x1044 JUMP JUMPDEST PUSH4 0x4E487B71 PUSH1 0xE0 SHL DUP7 MSTORE PUSH1 0x11 PUSH1 0x4 MSTORE PUSH1 0x24 DUP7 REVERT JUMPDEST POP PUSH1 0xA PUSH2 0x102C JUMP JUMPDEST POP CALLVALUE PUSH2 0x126 JUMPI DUP1 PUSH1 0x3 NOT CALLDATASIZE ADD SLT PUSH2 0x126 JUMPI PUSH2 0x10CB PUSH1 0x2 SLOAD PUSH2 0x139A JUMP JUMPDEST DUP1 PUSH1 0x2 SSTORE PUSH1 0x0 NOT NUMBER ADD NUMBER DUP2 GT PUSH2 0x9C9 JUMPI PUSH1 0x40 MLOAD SWAP1 PUSH1 0x20 DUP3 ADD SWAP3 TIMESTAMP DUP5 MSTORE PREVRANDAO PUSH1 0x40 DUP5 ADD MSTORE CALLER PUSH1 0x60 SHL PUSH1 0x60 DUP5 ADD MSTORE PUSH1 0x74 DUP4 ADD MSTORE BLOCKHASH PUSH1 0x94 DUP3 ADD MSTORE PUSH1 0x94 DUP2 MSTORE PUSH2 0x1110 PUSH1 0xB4 DUP3 PUSH2 0x130D JUMP JUMPDEST MLOAD SWAP1 KECCAK256 SWAP1 POP PUSH1 0x64 DUP2 MOD PUSH1 0x1 ADD DUP1 PUSH1 0x1 GT PUSH2 0x4AB JUMPI PUSH1 0x0 SLOAD SWAP2 PUSH2 0x1131 DUP4 PUSH2 0x139A JUMP JUMPDEST PUSH1 0x0 SSTORE PUSH1 0x6 PUSH1 0x40 MLOAD SWAP2 PUSH2 0x1143 DUP4 PUSH2 0x12F1 JUMP JUMPDEST DUP5 DUP4 MSTORE PUSH1 0x20 DUP4 ADD CALLER DUP2 MSTORE PUSH1 0x40 DUP5 ADD DUP6 DUP2 MSTORE PUSH1 0x60 DUP6 ADD PUSH1 0x1 DUP2 MSTORE PUSH1 0x80 DUP7 ADD SWAP2 PUSH1 0x64 DUP4 MSTORE PUSH1 0xA0 DUP8 ADD SWAP4 TIMESTAMP DUP6 MSTORE PUSH1 0xC0 DUP9 ADD SWAP6 DUP7 MSTORE DUP10 PUSH1 0x0 MSTORE PUSH1 0x3 PUSH1 0x20 MSTORE PUSH1 0x40 PUSH1 0x0 KECCAK256 SWAP8 MLOAD DUP9 SSTORE PUSH1 0x1 DUP9 ADD SWAP1 PUSH1 0x1 DUP1 PUSH1 0xA0 SHL SUB SWAP1 MLOAD AND PUSH1 0x1 PUSH1 0x1 PUSH1 0x60 SHL SUB PUSH1 0xA0 SHL DUP3 SLOAD AND OR SWAP1 SSTORE MLOAD PUSH1 0x2 DUP8 ADD SSTORE MLOAD PUSH1 0x3 DUP7 ADD SSTORE MLOAD PUSH1 0x4 DUP6 ADD SSTORE MLOAD PUSH1 0x5 DUP5 ADD SSTORE MLOAD SWAP2 ADD SSTORE CALLER PUSH1 0x0 MSTORE PUSH1 0x4 PUSH1 0x20 MSTORE PUSH1 0x40 PUSH1 0x0 KECCAK256 SWAP2 DUP3 SLOAD SWAP3 PUSH1 0x1 PUSH1 0x40 SHL DUP5 LT ISZERO PUSH2 0x495 JUMPI DUP4 PUSH2 0x11F2 SWAP2 PUSH1 0x1 PUSH1 0x20 SWAP7 ADD DUP2 SSTORE PUSH2 0x12AD JUMP JUMPDEST DUP2 SLOAD SWAP1 PUSH1 0x3 SHL SWAP1 DUP4 DUP3 SHL SWAP2 PUSH1 0x0 NOT SWAP1 SHL NOT AND OR SWAP1 SSTORE CALLER PUSH1 0x0 MSTORE PUSH1 0x5 DUP4 MSTORE PUSH1 0x40 PUSH1 0x0 KECCAK256 PUSH2 0x121E DUP2 SLOAD PUSH2 0x139A JUMP JUMPDEST SWAP1 SSTORE PUSH2 0x122B PUSH1 0x1 SLOAD PUSH2 0x139A JUMP JUMPDEST PUSH1 0x1 SSTORE PUSH1 0x40 MLOAD SWAP1 DUP3 DUP3 MSTORE PUSH1 0x1 DUP5 DUP4 ADD MSTORE PUSH1 0x64 PUSH1 0x40 DUP4 ADD MSTORE PUSH1 0x0 DUP1 MLOAD PUSH1 0x20 PUSH2 0x170F DUP4 CODECOPY DUP2 MLOAD SWAP2 MSTORE PUSH1 0x60 CALLER SWAP4 LOG3 PUSH1 0x40 MLOAD SWAP1 DUP2 MSTORE RETURN JUMPDEST SWAP1 PUSH1 0x20 DUP1 DUP4 MLOAD SWAP3 DUP4 DUP2 MSTORE ADD SWAP3 ADD SWAP1 PUSH1 0x0 JUMPDEST DUP2 DUP2 LT PUSH2 0x127C JUMPI POP POP POP SWAP1 JUMP JUMPDEST DUP3 MLOAD DUP5 MSTORE PUSH1 0x20 SWAP4 DUP5 ADD SWAP4 SWAP1 SWAP3 ADD SWAP2 PUSH1 0x1 ADD PUSH2 0x126F JUMP JUMPDEST PUSH1 0x4 CALLDATALOAD SWAP1 PUSH1 0x1 PUSH1 0x1 PUSH1 0xA0 SHL SUB DUP3 AND DUP3 SUB PUSH2 0x12A8 JUMPI JUMP JUMPDEST PUSH1 0x0 DUP1 REVERT JUMPDEST DUP1 SLOAD DUP3 LT ISZERO PUSH2 0x12C5 JUMPI PUSH1 0x0 MSTORE PUSH1 0x20 PUSH1 0x0 KECCAK256 ADD SWAP1 PUSH1 0x0 SWAP1 JUMP JUMPDEST PUSH4 0x4E487B71 PUSH1 0xE0 SHL PUSH1 0x0 MSTORE PUSH1 0x32 PUSH1 0x4 MSTORE PUSH1 0x24 PUSH1 0x0 REVERT JUMPDEST PUSH1 0x40 SWAP1 PUSH1 0x3 NOT ADD SLT PUSH2 0x12A8 JUMPI PUSH1 0x4 CALLDATALOAD SWAP1 PUSH1 0x24 CALLDATALOAD SWAP1 JUMP JUMPDEST PUSH1 0xE0 DUP2 ADD SWAP1 DUP2 LT PUSH8 0xFFFFFFFFFFFFFFFF DUP3 GT OR PUSH2 0x495 JUMPI PUSH1 0x40 MSTORE JUMP JUMPDEST SWAP1 PUSH1 0x1F DUP1 NOT SWAP2 ADD AND DUP2 ADD SWAP1 DUP2 LT PUSH8 0xFFFFFFFFFFFFFFFF DUP3 GT OR PUSH2 0x495 JUMPI PUSH1 0x40 MSTORE JUMP JUMPDEST PUSH8 0xFFFFFFFFFFFFFFFF DUP2 GT PUSH2 0x495 JUMPI PUSH1 0x5 SHL PUSH1 0x20 ADD SWAP1 JUMP JUMPDEST SWAP1 PUSH2 0x1351 DUP3 PUSH2 0x132F JUMP JUMPDEST PUSH2 0x135E PUSH1 0x40 MLOAD SWAP2 DUP3 PUSH2 0x130D JUMP JUMPDEST DUP3 DUP2 MSTORE DUP1 SWAP3 PUSH2 0x136F PUSH1 0x1F NOT SWAP2 PUSH2 0x132F JUMP JUMPDEST ADD SWAP1 PUSH1 0x20 CALLDATASIZE SWAP2 ADD CALLDATACOPY JUMP JUMPDEST SWAP2 SWAP1 DUP3 SUB SWAP2 DUP3 GT PUSH2 0x4AB JUMPI JUMP JUMPDEST DUP1 MLOAD DUP3 LT ISZERO PUSH2 0x12C5 JUMPI PUSH1 0x20 SWAP2 PUSH1 0x5 SHL ADD ADD SWAP1 JUMP JUMPDEST PUSH1 0x0 NOT DUP2 EQ PUSH2 0x4AB JUMPI PUSH1 0x1 ADD SWAP1 JUMP JUMPDEST DUP2 ISZERO PUSH2 0x9B3 JUMPI DIV SWAP1 JUMP JUMPDEST ISZERO PUSH2 0x13BA JUMPI JUMP JUMPDEST PUSH1 0x40 MLOAD PUSH3 0x461BCD PUSH1 0xE5 SHL DUP2 MSTORE PUSH1 0x20 PUSH1 0x4 DUP3 ADD MSTORE PUSH1 0x28 PUSH1 0x24 DUP3 ADD MSTORE PUSH32 0x496E76616C69642072616E67653A206D696E206D757374206265206C65737320 PUSH1 0x44 DUP3 ADD MSTORE PUSH8 0xE8D0C2DC40DAC2F PUSH1 0xC3 SHL PUSH1 0x64 DUP3 ADD MSTORE PUSH1 0x84 SWAP1 REVERT JUMPDEST SWAP2 SWAP1 DUP3 ADD DUP1 SWAP3 GT PUSH2 0x4AB JUMPI JUMP JUMPDEST PUSH1 0x1 DUP1 PUSH1 0xA0 SHL SUB AND PUSH1 0x0 MSTORE PUSH1 0x4 PUSH1 0x20 MSTORE PUSH1 0x40 PUSH1 0x0 KECCAK256 SWAP1 PUSH1 0x40 MLOAD DUP1 DUP4 PUSH1 0x20 DUP3 SWAP6 SLOAD SWAP4 DUP5 DUP2 MSTORE ADD SWAP1 PUSH1 0x0 MSTORE PUSH1 0x20 PUSH1 0x0 KECCAK256 SWAP3 PUSH1 0x0 JUMPDEST DUP2 DUP2 LT PUSH2 0x14F1 JUMPI POP POP PUSH2 0x1464 SWAP3 POP SUB DUP4 PUSH2 0x130D JUMP JUMPDEST DUP2 MLOAD ISZERO PUSH2 0x14E5 JUMPI PUSH1 0x0 PUSH1 0x0 NOT DUP2 DUP1 JUMPDEST DUP6 MLOAD DUP2 LT ISZERO PUSH2 0x14CD JUMPI PUSH2 0x1486 DUP2 DUP8 PUSH2 0x1386 JUMP JUMPDEST MLOAD PUSH1 0x0 MSTORE PUSH1 0x3 PUSH1 0x20 MSTORE PUSH2 0x14A2 PUSH1 0x2 PUSH1 0x40 PUSH1 0x0 KECCAK256 ADD SLOAD DUP1 SWAP6 PUSH2 0x1410 JUMP JUMPDEST SWAP4 DUP3 DUP2 GT PUSH2 0x14C5 JUMPI JUMPDEST DUP4 DUP2 LT PUSH2 0x14BC JUMPI JUMPDEST POP PUSH1 0x1 ADD PUSH2 0x1473 JUMP JUMPDEST SWAP3 POP PUSH1 0x1 PUSH2 0x14B3 JUMP JUMPDEST SWAP2 POP DUP2 PUSH2 0x14AB JUMP JUMPDEST POP SWAP3 SWAP1 SWAP2 PUSH2 0x14DD SWAP1 DUP6 MLOAD SWAP1 PUSH2 0x13A9 JUMP JUMPDEST SWAP4 MLOAD SWAP4 SWAP3 SWAP2 SWAP1 JUMP JUMPDEST PUSH1 0x0 SWAP2 POP DUP2 SWAP1 DUP2 SWAP1 DUP2 SWAP1 JUMP JUMPDEST DUP5 SLOAD DUP4 MSTORE PUSH1 0x1 SWAP5 DUP6 ADD SWAP5 DUP8 SWAP5 POP PUSH1 0x20 SWAP1 SWAP4 ADD SWAP3 ADD PUSH2 0x144F JUMP JUMPDEST ISZERO PUSH2 0x1511 JUMPI JUMP JUMPDEST PUSH1 0x40 MLOAD PUSH3 0x461BCD PUSH1 0xE5 SHL DUP2 MSTORE PUSH1 0x20 PUSH1 0x4 DUP3 ADD MSTORE PUSH1 0x12 PUSH1 0x24 DUP3 ADD MSTORE PUSH18 0x125B9D985B1A59081C995C5D595CDD081251 PUSH1 0x72 SHL PUSH1 0x44 DUP3 ADD MSTORE PUSH1 0x64 SWAP1 REVERT JUMPDEST DUP2 ISZERO PUSH2 0x9B3 JUMPI MOD SWAP1 JUMP JUMPDEST PUSH2 0x1560 PUSH1 0x2 SLOAD PUSH2 0x139A JUMP JUMPDEST DUP1 PUSH1 0x2 SSTORE PUSH1 0x0 NOT NUMBER ADD NUMBER DUP2 GT PUSH2 0x4AB JUMPI PUSH1 0x40 MLOAD SWAP1 PUSH1 0x20 DUP3 ADD SWAP3 TIMESTAMP DUP5 MSTORE PREVRANDAO PUSH1 0x40 DUP5 ADD MSTORE CALLER PUSH1 0x60 SHL PUSH1 0x60 DUP5 ADD MSTORE PUSH1 0x74 DUP4 ADD MSTORE BLOCKHASH PUSH1 0x94 DUP3 ADD MSTORE PUSH1 0x94 DUP2 MSTORE PUSH2 0x15A5 PUSH1 0xB4 DUP3 PUSH2 0x130D JUMP JUMPDEST MLOAD SWAP1 KECCAK256 PUSH2 0x15B2 DUP3 DUP5 PUSH2 0x1379 JUMP JUMPDEST PUSH1 0x1 DUP2 ADD DUP1 SWAP2 GT PUSH2 0x4AB JUMPI PUSH2 0x15CA PUSH2 0x15D0 SWAP2 DUP4 PUSH2 0x154B JUMP JUMPDEST DUP4 PUSH2 0x1410 JUMP JUMPDEST SWAP3 PUSH1 0x0 SLOAD SWAP2 PUSH2 0x15DE DUP4 PUSH2 0x139A JUMP JUMPDEST PUSH1 0x0 SSTORE PUSH1 0x6 PUSH1 0x40 MLOAD SWAP2 PUSH2 0x15F0 DUP4 PUSH2 0x12F1 JUMP JUMPDEST DUP5 DUP4 MSTORE PUSH1 0x20 DUP4 ADD CALLER DUP2 MSTORE PUSH1 0x40 DUP5 ADD DUP9 DUP2 MSTORE PUSH1 0x60 DUP6 ADD DUP9 DUP2 MSTORE PUSH1 0x80 DUP7 ADD SWAP2 DUP8 DUP4 MSTORE PUSH1 0xA0 DUP8 ADD SWAP4 TIMESTAMP DUP6 MSTORE PUSH1 0xC0 DUP9 ADD SWAP6 DUP7 MSTORE DUP10 PUSH1 0x0 MSTORE PUSH1 0x3 PUSH1 0x20 MSTORE PUSH1 0x40 PUSH1 0x0 KECCAK256 SWAP8 MLOAD DUP9 SSTORE PUSH1 0x1 DUP9 ADD SWAP1 PUSH1 0x1 DUP1 PUSH1 0xA0 SHL SUB SWAP1 MLOAD AND PUSH1 0x1 PUSH1 0x1 PUSH1 0x60 SHL SUB PUSH1 0xA0 SHL DUP3 SLOAD AND OR SWAP1 SSTORE MLOAD PUSH1 0x2 DUP8 ADD SSTORE MLOAD PUSH1 0x3 DUP7 ADD SSTORE MLOAD PUSH1 0x4 DUP6 ADD SSTORE MLOAD PUSH1 0x5 DUP5 ADD SSTORE MLOAD SWAP2 ADD SSTORE CALLER PUSH1 0x0 MSTORE PUSH1 0x4 PUSH1 0x20 MSTORE PUSH1 0x40 PUSH1 0x0 KECCAK256 SWAP1 DUP2 SLOAD SWAP1 PUSH1 0x1 PUSH1 0x40 SHL DUP3 LT ISZERO PUSH2 0x495 JUMPI PUSH2 0x16AD DUP3 PUSH1 0x0 DUP1 MLOAD PUSH1 0x20 PUSH2 0x170F DUP4 CODECOPY DUP2 MLOAD SWAP2 MSTORE SWAP5 PUSH1 0x1 PUSH2 0x1708 SWAP6 ADD DUP2 SSTORE PUSH2 0x12AD JUMP JUMPDEST DUP2 SLOAD SWAP1 PUSH1 0x3 SHL SWAP1 DUP7 DUP3 SHL SWAP2 PUSH1 0x0 NOT SWAP1 SHL NOT AND OR SWAP1 SSTORE CALLER PUSH1 0x0 MSTORE PUSH1 0x5 PUSH1 0x20 MSTORE PUSH1 0x40 PUSH1 0x0 KECCAK256 PUSH2 0x16DA DUP2 SLOAD PUSH2 0x139A JUMP JUMPDEST SWAP1 SSTORE PUSH2 0x16E7 PUSH1 0x1 SLOAD PUSH2 0x139A JUMP JUMPDEST PUSH1 0x1 SSTORE PUSH1 0x40 DUP1 MLOAD DUP8 DUP2 MSTORE PUSH1 0x20 DUP2 ADD SWAP7 SWAP1 SWAP7 MSTORE DUP6 ADD MSTORE CALLER SWAP4 SWAP1 DUP2 SWAP1 PUSH1 0x60 DUP3 ADD SWAP1 JUMP JUMPDEST SUB SWAP1 LOG3 SWAP1 JUMP INVALID 0xEC LOG2 RETURNDATACOPY 0xF6 0xC5 MOD ISZERO 0x2C STOP PUSH19 0x6DA573A5937A5ED2819F65DDE260DDFE178760 0xE DUP1 RETURN LOG2 PUSH5 0x6970667358 0x22 SLT KECCAK256 DUP4 0xA7 0x22 REVERT PUSH13 0xF9E56848922CE777D50CFE5357 SMOD SMOD 0xBD REVERT PUSH22 0x28A15C509F0F788D9264736F6C634300081C00330000 "
        },
        "methodIdentifiers": {
          "flipCoin()": "799ae223",
          "generateLotteryNumbers()": "cf8941f4",
          "generateMultipleRandom(uint256,uint256,uint256)": "4c254892",
          "generateRandom()": "02e4af01",
          "generateRandomInRange(uint256,uint256)": "f1a731b1",
          "getCurrentNonce()": "3a60c386",
          "getDistributionAnalysis(uint256,uint256)": "81aba07b",
          "getPlatformStats()": "136d8883",
          "getRandomRequest(uint256)": "aae31df3",
          "getRecentNumbers()": "0cc06d4c",
          "getTotalRequests()": "f0e22d52",
          "getUserRequests(address)": "b337cf74",
          "getUserStats(address)": "4e43603a",
          "randomRequests(uint256)": "ca067ad0",
          "rollDice()": "837e7cc6",
          "totalRequests()": "8aea61dc",
          "userRequestCount(address)": "f94c04fc",
          "userRequests(address,uint256)": "263cb6b6",
          "verifyRandomNumber(uint256)": "aa488d7e"
        }
      }
    }
  }
}