{
  "contracts/TimeLockMultiSig.sol": {
    "TimeLockMultiSig": {
      "abi": [
        {
          "inputs": [
            {
              "internalType": "address[]",
              "name": "_owners",
              "type": "address[]"
            },
            {
              "internalType": "uint256",
              "name": "_threshold",
              "type": "uint256"
            },
            {
              "internalType": "uint256",
              "name": "_timeLockDelay",
              "type": "uint256"
            },
            {
              "internalType": "uint256",
              "name": "_dailyLimit",
              "type": "uint256"
            },
            {
              "internalType": "uint256",
              "name": "_instantLimit",
              "type": "uint256"
            }
          ],
          "stateMutability": "nonpayable",
          "type": "constructor"
        },
        {
          "inputs": [],
          "name": "EnforcedPause",
          "type": "error"
        },
        {
          "inputs": [],
          "name": "ExpectedPause",
          "type": "error"
        },
        {
          "inputs": [],
          "name": "ReentrancyGuardReentrantCall",
          "type": "error"
        },
        {
          "anonymous": false,
          "inputs": [
            {
              "indexed": false,
              "internalType": "uint256",
              "name": "oldLimit",
              "type": "uint256"
            },
            {
              "indexed": false,
              "internalType": "uint256",
              "name": "newLimit",
              "type": "uint256"
            }
          ],
          "name": "DailyLimitChanged",
          "type": "event"
        },
        {
          "anonymous": false,
          "inputs": [
            {
              "indexed": false,
              "internalType": "uint256",
              "name": "newResetTime",
              "type": "uint256"
            }
          ],
          "name": "DailyLimitReset",
          "type": "event"
        },
        {
          "anonymous": false,
          "inputs": [
            {
              "indexed": true,
              "internalType": "address",
              "name": "sender",
              "type": "address"
            },
            {
              "indexed": false,
              "internalType": "uint256",
              "name": "value",
              "type": "uint256"
            }
          ],
          "name": "Deposit",
          "type": "event"
        },
        {
          "anonymous": false,
          "inputs": [
            {
              "indexed": true,
              "internalType": "address",
              "name": "activator",
              "type": "address"
            }
          ],
          "name": "EmergencyModeActivated",
          "type": "event"
        },
        {
          "anonymous": false,
          "inputs": [
            {
              "indexed": true,
              "internalType": "address",
              "name": "deactivator",
              "type": "address"
            }
          ],
          "name": "EmergencyModeDeactivated",
          "type": "event"
        },
        {
          "anonymous": false,
          "inputs": [
            {
              "indexed": true,
              "internalType": "address",
              "name": "newOwner",
              "type": "address"
            }
          ],
          "name": "EmergencyRecoveryExecuted",
          "type": "event"
        },
        {
          "anonymous": false,
          "inputs": [
            {
              "indexed": true,
              "internalType": "address",
              "name": "owner",
              "type": "address"
            }
          ],
          "name": "OwnerAdded",
          "type": "event"
        },
        {
          "anonymous": false,
          "inputs": [
            {
              "indexed": true,
              "internalType": "address",
              "name": "owner",
              "type": "address"
            }
          ],
          "name": "OwnerRemoved",
          "type": "event"
        },
        {
          "anonymous": false,
          "inputs": [
            {
              "indexed": false,
              "internalType": "address",
              "name": "account",
              "type": "address"
            }
          ],
          "name": "Paused",
          "type": "event"
        },
        {
          "anonymous": false,
          "inputs": [
            {
              "indexed": true,
              "internalType": "uint256",
              "name": "proposalId",
              "type": "uint256"
            },
            {
              "indexed": false,
              "internalType": "bool",
              "name": "success",
              "type": "bool"
            }
          ],
          "name": "ProposalExecuted",
          "type": "event"
        },
        {
          "anonymous": false,
          "inputs": [
            {
              "indexed": true,
              "internalType": "uint256",
              "name": "proposalId",
              "type": "uint256"
            },
            {
              "indexed": false,
              "internalType": "enum TimeLockMultiSig.ProposalType",
              "name": "proposalType",
              "type": "uint8"
            },
            {
              "indexed": true,
              "internalType": "address",
              "name": "proposer",
              "type": "address"
            },
            {
              "indexed": false,
              "internalType": "string",
              "name": "description",
              "type": "string"
            }
          ],
          "name": "ProposalSubmitted",
          "type": "event"
        },
        {
          "anonymous": false,
          "inputs": [
            {
              "indexed": false,
              "internalType": "uint256",
              "name": "oldThreshold",
              "type": "uint256"
            },
            {
              "indexed": false,
              "internalType": "uint256",
              "name": "newThreshold",
              "type": "uint256"
            }
          ],
          "name": "ThresholdChanged",
          "type": "event"
        },
        {
          "anonymous": false,
          "inputs": [
            {
              "indexed": false,
              "internalType": "uint256",
              "name": "oldTimeLock",
              "type": "uint256"
            },
            {
              "indexed": false,
              "internalType": "uint256",
              "name": "newTimeLock",
              "type": "uint256"
            }
          ],
          "name": "TimeLockChanged",
          "type": "event"
        },
        {
          "anonymous": false,
          "inputs": [
            {
              "indexed": true,
              "internalType": "uint256",
              "name": "transactionId",
              "type": "uint256"
            }
          ],
          "name": "TransactionCancelled",
          "type": "event"
        },
        {
          "anonymous": false,
          "inputs": [
            {
              "indexed": true,
              "internalType": "uint256",
              "name": "transactionId",
              "type": "uint256"
            },
            {
              "indexed": true,
              "internalType": "address",
              "name": "owner",
              "type": "address"
            },
            {
              "indexed": false,
              "internalType": "uint256",
              "name": "confirmations",
              "type": "uint256"
            }
          ],
          "name": "TransactionConfirmed",
          "type": "event"
        },
        {
          "anonymous": false,
          "inputs": [
            {
              "indexed": true,
              "internalType": "uint256",
              "name": "transactionId",
              "type": "uint256"
            },
            {
              "indexed": true,
              "internalType": "address",
              "name": "to",
              "type": "address"
            },
            {
              "indexed": false,
              "internalType": "uint256",
              "name": "value",
              "type": "uint256"
            },
            {
              "indexed": false,
              "internalType": "bool",
              "name": "success",
              "type": "bool"
            }
          ],
          "name": "TransactionExecuted",
          "type": "event"
        },
        {
          "anonymous": false,
          "inputs": [
            {
              "indexed": true,
              "internalType": "uint256",
              "name": "transactionId",
              "type": "uint256"
            },
            {
              "indexed": false,
              "internalType": "uint256",
              "name": "executeAfter",
              "type": "uint256"
            }
          ],
          "name": "TransactionQueued",
          "type": "event"
        },
        {
          "anonymous": false,
          "inputs": [
            {
              "indexed": true,
              "internalType": "uint256",
              "name": "transactionId",
              "type": "uint256"
            },
            {
              "indexed": true,
              "internalType": "address",
              "name": "proposer",
              "type": "address"
            },
            {
              "indexed": true,
              "internalType": "address",
              "name": "to",
              "type": "address"
            },
            {
              "indexed": false,
              "internalType": "uint256",
              "name": "value",
              "type": "uint256"
            },
            {
              "indexed": false,
              "internalType": "string",
              "name": "description",
              "type": "string"
            }
          ],
          "name": "TransactionSubmitted",
          "type": "event"
        },
        {
          "anonymous": false,
          "inputs": [
            {
              "indexed": false,
              "internalType": "address",
              "name": "account",
              "type": "address"
            }
          ],
          "name": "Unpaused",
          "type": "event"
        },
        {
          "inputs": [],
          "name": "EMERGENCY_TIMEOUT",
          "outputs": [
            {
              "internalType": "uint256",
              "name": "",
              "type": "uint256"
            }
          ],
          "stateMutability": "view",
          "type": "function"
        },
        {
          "inputs": [],
          "name": "MAX_OWNERS",
          "outputs": [
            {
              "internalType": "uint256",
              "name": "",
              "type": "uint256"
            }
          ],
          "stateMutability": "view",
          "type": "function"
        },
        {
          "inputs": [],
          "name": "MAX_TIME_LOCK",
          "outputs": [
            {
              "internalType": "uint256",
              "name": "",
              "type": "uint256"
            }
          ],
          "stateMutability": "view",
          "type": "function"
        },
        {
          "inputs": [],
          "name": "MIN_THRESHOLD",
          "outputs": [
            {
              "internalType": "uint256",
              "name": "",
              "type": "uint256"
            }
          ],
          "stateMutability": "view",
          "type": "function"
        },
        {
          "inputs": [],
          "name": "MIN_TIME_LOCK",
          "outputs": [
            {
              "internalType": "uint256",
              "name": "",
              "type": "uint256"
            }
          ],
          "stateMutability": "view",
          "type": "function"
        },
        {
          "inputs": [],
          "name": "activateEmergencyMode",
          "outputs": [],
          "stateMutability": "nonpayable",
          "type": "function"
        },
        {
          "inputs": [
            {
              "internalType": "uint256",
              "name": "",
              "type": "uint256"
            }
          ],
          "name": "activeProposals",
          "outputs": [
            {
              "internalType": "uint256",
              "name": "",
              "type": "uint256"
            }
          ],
          "stateMutability": "view",
          "type": "function"
        },
        {
          "inputs": [
            {
              "internalType": "address",
              "name": "guardian",
              "type": "address"
            }
          ],
          "name": "addGuardian",
          "outputs": [],
          "stateMutability": "nonpayable",
          "type": "function"
        },
        {
          "inputs": [
            {
              "internalType": "uint256",
              "name": "transactionId",
              "type": "uint256"
            }
          ],
          "name": "cancelTransaction",
          "outputs": [],
          "stateMutability": "nonpayable",
          "type": "function"
        },
        {
          "inputs": [
            {
              "internalType": "uint256",
              "name": "proposalId",
              "type": "uint256"
            }
          ],
          "name": "confirmProposal",
          "outputs": [],
          "stateMutability": "nonpayable",
          "type": "function"
        },
        {
          "inputs": [
            {
              "internalType": "uint256",
              "name": "transactionId",
              "type": "uint256"
            }
          ],
          "name": "confirmTransaction",
          "outputs": [],
          "stateMutability": "nonpayable",
          "type": "function"
        },
        {
          "inputs": [],
          "name": "dailyLimit",
          "outputs": [
            {
              "internalType": "uint256",
              "name": "limit",
              "type": "uint256"
            },
            {
              "internalType": "uint256",
              "name": "spent",
              "type": "uint256"
            },
            {
              "internalType": "uint256",
              "name": "lastResetTime",
              "type": "uint256"
            }
          ],
          "stateMutability": "view",
          "type": "function"
        },
        {
          "inputs": [],
          "name": "deactivateEmergencyMode",
          "outputs": [],
          "stateMutability": "nonpayable",
          "type": "function"
        },
        {
          "inputs": [],
          "name": "emergencyActivatedAt",
          "outputs": [
            {
              "internalType": "uint256",
              "name": "",
              "type": "uint256"
            }
          ],
          "stateMutability": "view",
          "type": "function"
        },
        {
          "inputs": [],
          "name": "emergencyMode",
          "outputs": [
            {
              "internalType": "bool",
              "name": "",
              "type": "bool"
            }
          ],
          "stateMutability": "view",
          "type": "function"
        },
        {
          "inputs": [],
          "name": "emergencyRecoveryAddress",
          "outputs": [
            {
              "internalType": "address",
              "name": "",
              "type": "address"
            }
          ],
          "stateMutability": "view",
          "type": "function"
        },
        {
          "inputs": [],
          "name": "emergencyTimeLock",
          "outputs": [
            {
              "internalType": "uint256",
              "name": "",
              "type": "uint256"
            }
          ],
          "stateMutability": "view",
          "type": "function"
        },
        {
          "inputs": [
            {
              "internalType": "uint256",
              "name": "proposalId",
              "type": "uint256"
            }
          ],
          "name": "executeProposal",
          "outputs": [],
          "stateMutability": "nonpayable",
          "type": "function"
        },
        {
          "inputs": [
            {
              "internalType": "uint256",
              "name": "transactionId",
              "type": "uint256"
            }
          ],
          "name": "executeTransaction",
          "outputs": [],
          "stateMutability": "nonpayable",
          "type": "function"
        },
        {
          "inputs": [],
          "name": "getActiveProposals",
          "outputs": [
            {
              "internalType": "uint256[]",
              "name": "",
              "type": "uint256[]"
            }
          ],
          "stateMutability": "view",
          "type": "function"
        },
        {
          "inputs": [],
          "name": "getOwners",
          "outputs": [
            {
              "internalType": "address[]",
              "name": "",
              "type": "address[]"
            }
          ],
          "stateMutability": "view",
          "type": "function"
        },
        {
          "inputs": [],
          "name": "getPendingTransactions",
          "outputs": [
            {
              "internalType": "uint256[]",
              "name": "",
              "type": "uint256[]"
            }
          ],
          "stateMutability": "view",
          "type": "function"
        },
        {
          "inputs": [
            {
              "internalType": "uint256",
              "name": "proposalId",
              "type": "uint256"
            }
          ],
          "name": "getProposal",
          "outputs": [
            {
              "internalType": "enum TimeLockMultiSig.ProposalType",
              "name": "proposalType",
              "type": "uint8"
            },
            {
              "internalType": "address",
              "name": "target",
              "type": "address"
            },
            {
              "internalType": "uint256",
              "name": "value",
              "type": "uint256"
            },
            {
              "internalType": "uint256",
              "name": "confirmations",
              "type": "uint256"
            },
            {
              "internalType": "enum TimeLockMultiSig.TransactionStatus",
              "name": "status",
              "type": "uint8"
            },
            {
              "internalType": "address",
              "name": "proposer",
              "type": "address"
            },
            {
              "internalType": "string",
              "name": "description",
              "type": "string"
            }
          ],
          "stateMutability": "view",
          "type": "function"
        },
        {
          "inputs": [],
          "name": "getQueuedTransactions",
          "outputs": [
            {
              "internalType": "uint256[]",
              "name": "",
              "type": "uint256[]"
            }
          ],
          "stateMutability": "view",
          "type": "function"
        },
        {
          "inputs": [
            {
              "internalType": "uint256",
              "name": "transactionId",
              "type": "uint256"
            }
          ],
          "name": "getTransaction",
          "outputs": [
            {
              "internalType": "address",
              "name": "to",
              "type": "address"
            },
            {
              "internalType": "uint256",
              "name": "value",
              "type": "uint256"
            },
            {
              "internalType": "bytes",
              "name": "data",
              "type": "bytes"
            },
            {
              "internalType": "uint256",
              "name": "confirmations",
              "type": "uint256"
            },
            {
              "internalType": "enum TimeLockMultiSig.TransactionStatus",
              "name": "status",
              "type": "uint8"
            },
            {
              "internalType": "address",
              "name": "proposer",
              "type": "address"
            },
            {
              "internalType": "string",
              "name": "description",
              "type": "string"
            }
          ],
          "stateMutability": "view",
          "type": "function"
        },
        {
          "inputs": [],
          "name": "getWalletStats",
          "outputs": [
            {
              "internalType": "uint256",
              "name": "ownerCount",
              "type": "uint256"
            },
            {
              "internalType": "uint256",
              "name": "currentThreshold",
              "type": "uint256"
            },
            {
              "internalType": "uint256",
              "name": "balance",
              "type": "uint256"
            },
            {
              "internalType": "uint256",
              "name": "pendingCount",
              "type": "uint256"
            },
            {
              "internalType": "uint256",
              "name": "queuedCount",
              "type": "uint256"
            },
            {
              "internalType": "uint256",
              "name": "dailySpent",
              "type": "uint256"
            },
            {
              "internalType": "uint256",
              "name": "dailyRemaining",
              "type": "uint256"
            },
            {
              "internalType": "bool",
              "name": "isEmergencyActive",
              "type": "bool"
            }
          ],
          "stateMutability": "view",
          "type": "function"
        },
        {
          "inputs": [],
          "name": "instantTransactionLimit",
          "outputs": [
            {
              "internalType": "uint256",
              "name": "",
              "type": "uint256"
            }
          ],
          "stateMutability": "view",
          "type": "function"
        },
        {
          "inputs": [
            {
              "internalType": "uint256",
              "name": "transactionId",
              "type": "uint256"
            },
            {
              "internalType": "address",
              "name": "owner",
              "type": "address"
            }
          ],
          "name": "isConfirmed",
          "outputs": [
            {
              "internalType": "bool",
              "name": "",
              "type": "bool"
            }
          ],
          "stateMutability": "view",
          "type": "function"
        },
        {
          "inputs": [
            {
              "internalType": "address",
              "name": "",
              "type": "address"
            }
          ],
          "name": "isGuardian",
          "outputs": [
            {
              "internalType": "bool",
              "name": "",
              "type": "bool"
            }
          ],
          "stateMutability": "view",
          "type": "function"
        },
        {
          "inputs": [
            {
              "internalType": "address",
              "name": "",
              "type": "address"
            }
          ],
          "name": "isOwner",
          "outputs": [
            {
              "internalType": "bool",
              "name": "",
              "type": "bool"
            }
          ],
          "stateMutability": "view",
          "type": "function"
        },
        {
          "inputs": [
            {
              "internalType": "uint256",
              "name": "proposalId",
              "type": "uint256"
            },
            {
              "internalType": "address",
              "name": "owner",
              "type": "address"
            }
          ],
          "name": "isProposalConfirmed",
          "outputs": [
            {
              "internalType": "bool",
              "name": "",
              "type": "bool"
            }
          ],
          "stateMutability": "view",
          "type": "function"
        },
        {
          "inputs": [
            {
              "internalType": "uint256",
              "name": "",
              "type": "uint256"
            }
          ],
          "name": "owners",
          "outputs": [
            {
              "internalType": "address",
              "name": "",
              "type": "address"
            }
          ],
          "stateMutability": "view",
          "type": "function"
        },
        {
          "inputs": [],
          "name": "paused",
          "outputs": [
            {
              "internalType": "bool",
              "name": "",
              "type": "bool"
            }
          ],
          "stateMutability": "view",
          "type": "function"
        },
        {
          "inputs": [
            {
              "internalType": "uint256",
              "name": "",
              "type": "uint256"
            }
          ],
          "name": "pendingTransactions",
          "outputs": [
            {
              "internalType": "uint256",
              "name": "",
              "type": "uint256"
            }
          ],
          "stateMutability": "view",
          "type": "function"
        },
        {
          "inputs": [],
          "name": "proposalCount",
          "outputs": [
            {
              "internalType": "uint256",
              "name": "",
              "type": "uint256"
            }
          ],
          "stateMutability": "view",
          "type": "function"
        },
        {
          "inputs": [
            {
              "internalType": "uint256",
              "name": "",
              "type": "uint256"
            }
          ],
          "name": "proposals",
          "outputs": [
            {
              "internalType": "uint256",
              "name": "id",
              "type": "uint256"
            },
            {
              "internalType": "enum TimeLockMultiSig.ProposalType",
              "name": "proposalType",
              "type": "uint8"
            },
            {
              "internalType": "address",
              "name": "target",
              "type": "address"
            },
            {
              "internalType": "uint256",
              "name": "value",
              "type": "uint256"
            },
            {
              "internalType": "bytes",
              "name": "data",
              "type": "bytes"
            },
            {
              "internalType": "uint256",
              "name": "confirmations",
              "type": "uint256"
            },
            {
              "internalType": "uint256",
              "name": "queuedAt",
              "type": "uint256"
            },
            {
              "internalType": "uint256",
              "name": "executeAfter",
              "type": "uint256"
            },
            {
              "internalType": "enum TimeLockMultiSig.TransactionStatus",
              "name": "status",
              "type": "uint8"
            },
            {
              "internalType": "address",
              "name": "proposer",
              "type": "address"
            },
            {
              "internalType": "string",
              "name": "description",
              "type": "string"
            }
          ],
          "stateMutability": "view",
          "type": "function"
        },
        {
          "inputs": [
            {
              "internalType": "uint256",
              "name": "",
              "type": "uint256"
            }
          ],
          "name": "queuedTransactions",
          "outputs": [
            {
              "internalType": "uint256",
              "name": "",
              "type": "uint256"
            }
          ],
          "stateMutability": "view",
          "type": "function"
        },
        {
          "inputs": [
            {
              "internalType": "address",
              "name": "guardian",
              "type": "address"
            }
          ],
          "name": "removeGuardian",
          "outputs": [],
          "stateMutability": "nonpayable",
          "type": "function"
        },
        {
          "inputs": [
            {
              "internalType": "enum TimeLockMultiSig.ProposalType",
              "name": "proposalType",
              "type": "uint8"
            },
            {
              "internalType": "address",
              "name": "target",
              "type": "address"
            },
            {
              "internalType": "uint256",
              "name": "value",
              "type": "uint256"
            },
            {
              "internalType": "bytes",
              "name": "data",
              "type": "bytes"
            },
            {
              "internalType": "string",
              "name": "description",
              "type": "string"
            }
          ],
          "name": "submitProposal",
          "outputs": [
            {
              "internalType": "uint256",
              "name": "",
              "type": "uint256"
            }
          ],
          "stateMutability": "nonpayable",
          "type": "function"
        },
        {
          "inputs": [
            {
              "internalType": "address",
              "name": "to",
              "type": "address"
            },
            {
              "internalType": "uint256",
              "name": "value",
              "type": "uint256"
            },
            {
              "internalType": "bytes",
              "name": "data",
              "type": "bytes"
            },
            {
              "internalType": "string",
              "name": "description",
              "type": "string"
            }
          ],
          "name": "submitTransaction",
          "outputs": [
            {
              "internalType": "uint256",
              "name": "",
              "type": "uint256"
            }
          ],
          "stateMutability": "nonpayable",
          "type": "function"
        },
        {
          "inputs": [],
          "name": "threshold",
          "outputs": [
            {
              "internalType": "uint256",
              "name": "",
              "type": "uint256"
            }
          ],
          "stateMutability": "view",
          "type": "function"
        },
        {
          "inputs": [],
          "name": "timeLockDelay",
          "outputs": [
            {
              "internalType": "uint256",
              "name": "",
              "type": "uint256"
            }
          ],
          "stateMutability": "view",
          "type": "function"
        },
        {
          "inputs": [],
          "name": "transactionCount",
          "outputs": [
            {
              "internalType": "uint256",
              "name": "",
              "type": "uint256"
            }
          ],
          "stateMutability": "view",
          "type": "function"
        },
        {
          "inputs": [
            {
              "internalType": "uint256",
              "name": "",
              "type": "uint256"
            }
          ],
          "name": "transactions",
          "outputs": [
            {
              "internalType": "uint256",
              "name": "id",
              "type": "uint256"
            },
            {
              "internalType": "address",
              "name": "to",
              "type": "address"
            },
            {
              "internalType": "uint256",
              "name": "value",
              "type": "uint256"
            },
            {
              "internalType": "bytes",
              "name": "data",
              "type": "bytes"
            },
            {
              "internalType": "uint256",
              "name": "confirmations",
              "type": "uint256"
            },
            {
              "internalType": "uint256",
              "name": "queuedAt",
              "type": "uint256"
            },
            {
              "internalType": "uint256",
              "name": "executeAfter",
              "type": "uint256"
            },
            {
              "internalType": "enum TimeLockMultiSig.TransactionStatus",
              "name": "status",
              "type": "uint8"
            },
            {
              "internalType": "address",
              "name": "proposer",
              "type": "address"
            },
            {
              "internalType": "string",
              "name": "description",
              "type": "string"
            }
          ],
          "stateMutability": "view",
          "type": "function"
        },
        {
          "stateMutability": "payable",
          "type": "receive"
        }
      ],
      "evm": {
        "bytecode": {
          "linkReferences": {},
          "object": "6080604052346105a3576137c080380380610019816105a8565b92833981019060a0818303126105a35780516001600160401b0381116105a357810182601f820112156105a3578051926001600160401b038411610221578360051b9160208061006a8186016105a8565b8097815201938201019182116105a357602001915b8183106105835750505060208101516040820151906080606084015193015192600160005584511561053e57601485511161050757600182106104ce578451821161049457610e10831061044f5762278d008311610415578084116103c65760005b85518110156102b3576001600160a01b036100fc82886105cd565b51161561026e576001600160a01b0361011582886105cd565b5116600052600360205260ff60406000205416610237576001600160a01b0361013e82886105cd565b511690600254916801000000000000000083101561022157600183018060025583101561020b5760026000527f405787fa12a823e0f2b7631cc41b3ba8828b3321ca811111fa75cd3aa3bb5ace90920180546001600160a01b0319169092179091556001906001600160a01b036101b582896105cd565b5116600052600360205260406000208260ff19825416179055818060a01b036101de82896105cd565b51167f994a936646fe87ffe4f1e469d3d6aa417d6b855598397f323de5b449f765f0c3600080a2016100e1565b634e487b7160e01b600052603260045260246000fd5b634e487b7160e01b600052604160045260246000fd5b60405162461bcd60e51b815260206004820152600f60248201526e223ab83634b1b0ba329037bbb732b960891b6044820152606490fd5b60405162461bcd60e51b815260206004820152601560248201527f496e76616c6964206f776e6572206164647265737300000000000000000000006044820152606490fd5b508382600555836006558360011b848104600214851517156103b0576007556008556040519160608301906001600160401b03821184831017610221577f070dc0f9e511fdc888935179b3eba0bb274ccb33e0572454d85d32a70219dd62947f3164947cf0f49f08dd0cd80e671535b1e11590d347c55dcaa97ba3c24a96b33a604080969381947f8dce199a9d83266352e70738b2dda1e7299a0ce43f7e5b9161c7ad6d571d47e996835287815260006020820152824291015286601055600060115542601255815190600082526020820152a1815190600082526020820152a1815190600082526020820152a16040516131de90816105e28239f35b634e487b7160e01b600052601160045260246000fd5b60405162461bcd60e51b815260206004820152602160248201527f496e7374616e74206c696d69742065786365656473206461696c79206c696d696044820152601d60fa1b6064820152608490fd5b60405162461bcd60e51b815260206004820152601260248201527154696d65206c6f636b20746f6f206c6f6e6760701b6044820152606490fd5b60405162461bcd60e51b815260206004820152601360248201527f54696d65206c6f636b20746f6f2073686f7274000000000000000000000000006044820152606490fd5b60405162461bcd60e51b81526020600482015260126024820152710a8d0e4cae6d0ded8c840e8dede40d0d2ced60731b6044820152606490fd5b60405162461bcd60e51b81526020600482015260116024820152705468726573686f6c6420746f6f206c6f7760781b6044820152606490fd5b60405162461bcd60e51b815260206004820152600f60248201526e546f6f206d616e79206f776e65727360881b6044820152606490fd5b60405162461bcd60e51b815260206004820152601b60248201527f4174206c65617374206f6e65206f776e657220726571756972656400000000006044820152606490fd5b82516001600160a01b03811681036105a35781526020928301920161007f565b600080fd5b6040519190601f01601f191682016001600160401b0381118382101761022157604052565b805182101561020b5760209160051b01019056fe6080806040526004361015610049575b50361561001b57600080fd5b6040513481527fe1fffcc4923d04b559f4d29a8bfc6cda04eb5b0d3c460751c2402c5c5cc9109c60203392a2005b60003560e01c908163013cf08b14611fd457508063025e7c2714611f925780630905f56014611f6f5780630b8bb14614611f535780630c68ba2114611f145780630d61b51914611d115780630deef0de14611cf357806324210cce14611ca35780632f54bf6e14611c645780633380c0d814611aee57806333ea3dc814611a2c5780633d63f21514611a0e57806342cde4e8146119f057806346e24b08146114ed5780635584c4f9146114765780635af06e8f146113dd5780635c975abb146113ba57806363a8374d14611391578063657ed0481461131a57806367eeba0c146112eb578063714041561461127c5780637e0f3d5b14610e325780637f2640761461023a57806380f59a6514610de25780638bbc644614610dc45780638c67a0c214610d9757806399b20eaf14610cdb5780639ace38c214610be9578063a0e67e2b14610b1d578063a526d83b14610a2b578063b77bf60014610a0d578063bd11c4c0146109f1578063c01a8c84146107e9578063c7f758a814610733578063ced8cdec14610715578063d009601014610626578063d11db83f1461059f578063d176e93a14610576578063da35c66414610558578063df744ead1461053b578063e40824f814610503578063ee22610b14610372578063f4a4f4d21461023f5763faa9f7dd1461023a573861000f565b612364565b3461036d57602036600319011261036d5760043533600052600360205261026d60ff60406000205416612382565b61027a600d5482106123bd565b600052600e60205260406000206007810160ff81541660058110156103575761031b573360009081526008830160208190526040909120546102bf9060ff1615612631565b33600090815260209190915260409020805460ff191660011790556004820180546102e990612520565b80915560055411156102f757005b600160ff19825416179055426005820155600661031660075442612671565b910155005b60405162461bcd60e51b815260206004820152601460248201527350726f706f73616c206e6f742070656e64696e6760601b6044820152606490fd5b634e487b7160e01b600052602160045260246000fd5b600080fd5b3461036d57602036600319011261036d5760043533600052600360205260ff6040600020541680156104eb575b156104b5576103b1600954821061244d565b6103b961267e565b6103c1612e7d565b80600052600a602052604060002060ff6007820154166005811015610357576001036104775760066103f7910154421015612409565b60ff6013541615801561045f575b1561041a5761041390612e9a565b6001600055005b60405162461bcd60e51b815260206004820152601b60248201527f456d657267656e6379206d6f6465207265737472696374696f6e7300000000006044820152606490fd5b5033600052600460205260ff60406000205416610405565b60405162461bcd60e51b8152602060048201526016602482015275151c985b9cd858dd1a5bdb881b9bdd081c5d595d595960521b6044820152606490fd5b60405162461bcd60e51b815260206004820152600e60248201526d139bdd08185d5d1a1bdc9a5e995960921b6044820152606490fd5b5033600052600460205260ff6040600020541661039f565b3461036d57602036600319011261036d57600435600f5481101561036d5761052c602091612234565b90549060031b1c604051908152f35b3461036d57600036600319011261036d576020604051610e108152f35b3461036d57600036600319011261036d576020600d54604051908152f35b3461036d57602036600319011261036d57600435600c5481101561036d5761052c60209161226a565b3461036d57600036600319011261036d57604051806020600b54918281520190600b6000527f0175b7a638427703f0dbe7bb9bbf987a2551717b34e79f33b5b1008d1fa01db99060005b8181106106105761060c8561060081870382612186565b6040519182918261232a565b0390f35b82548452602090930192600192830192016105e9565b3461036d57600036600319011261036d5733600052600460205261065160ff604060002054166125a8565b60135460ff81166106d05760ff191660011760135542601455610672612e7d565b600160ff19815416176001557f62e78cea01bee320cd4e420270b5ea74000d11b0c9f74754ebdbfc544b05a2586020604051338152a1337f43f3e8d1092da4d3201e4d117b99bf80e75127516bc6523bd8cdb4464a923cde600080a2005b60405162461bcd60e51b815260206004820152601d60248201527f456d657267656e6379206d6f646520616c7265616479206163746976650000006044820152606490fd5b3461036d57600036600319011261036d576020600754604051908152f35b3461036d57602036600319011261036d57600435600052600e6020526040600020600181015461060c600960028401549360048101546107896007830154926107826040518096819301612103565b0384612186565b604051958561079c8860ff8199166121a8565b60081c6001600160a01b03166020870152604086015260608501526107c76080850160ff83166121f6565b60081c6001600160a01b031660a084015260e060c084018190528301906121b5565b3461036d57602036600319011261036d5760043533600052600360205261081760ff60406000205416612382565b610824600954821061244d565b61083360ff6013541615612499565b61083b612e7d565b80600052600a602052604060002060ff6007820154166005811015610357576109ac578060086004920160018060a01b0333166000528060205261088760ff6040600020541615612631565b33600090815260209190915260409020805460ff191660011790550180546108ae90612520565b809155604051818152827f9c1a063ce0c61e289e64b8d5f01accc47d7a8b7760ee0fe1e22b3047329e474260203393a360055411156108e957005b80600052600a60205260406000206002810154600854811115908161099c575b5080610988575b15610921575061091f90612e9a565b005b60208160077ffe650b96407e08305d97daaeccdf13b06b403609fba5b82c1d3c39951a6dcbae9301600160ff198254161790554260058201556006610967815442612671565b910190815561097584612e07565b61097e84612581565b54604051908152a2005b5061099660038201546120c9565b15610910565b6109a691506130ff565b83610909565b60405162461bcd60e51b815260206004820152601760248201527f5472616e73616374696f6e206e6f742070656e64696e670000000000000000006044820152606490fd5b3461036d57600036600319011261036d57602060405160018152f35b3461036d57600036600319011261036d576020600954604051908152f35b3461036d57602036600319011261036d57610a4461229d565b336000526003602052610a5e60ff60406000205416612382565b6001600160a01b03168015610ad85780600052600460205260ff60406000205416610a9e576000908152600460205260409020805460ff19166001179055005b60405162461bcd60e51b815260206004820152601260248201527120b63932b0b23c90309033bab0b93234b0b760711b6044820152606490fd5b60405162461bcd60e51b815260206004820152601860248201527f496e76616c696420677561726469616e206164647265737300000000000000006044820152606490fd5b3461036d57600036600319011261036d576040518060206002549283815201809260026000527f405787fa12a823e0f2b7631cc41b3ba8828b3321ca811111fa75cd3aa3bb5ace9060005b818110610bca5750505081610b7e910382612186565b6040519182916020830190602084525180915260408301919060005b818110610ba8575050500390f35b82516001600160a01b0316845285945060209384019390920191600101610b9a565b82546001600160a01b0316845260209093019260019283019201610b68565b3461036d57602036600319011261036d57600435600052600a6020526040600020805461060c60018060a01b0360018401541692600960028201549160405192610c4184610c3a8160038601612103565b0385612186565b600482015493610c9b600584015491600685015493610c76600787015496610c6f604051809a819301612103565b0388612186565b6040519a8b9a8b5260208b015260408a015261014060608a01526101408901906121b5565b94608088015260a087015260c0860152610cbb60e0860160ff83166121f6565b60081c6001600160a01b03166101008501528382036101208501526121b5565b3461036d57600036600319011261036d57336000526003602052610d0660ff60406000205416612382565b601354610d1560ff82166125e5565b60ff1916601355600060145560015460ff811615610d865760ff19166001557f5db9ee0a495bf2e6ff9c91a7834c1ba4fdd244a5e8aa4e537bd38aeae4b073aa6020604051338152a1337fbd95437b04432c9bbcf6d10c00e0e1cdc482151ffe5da10870858d456ee9fc23600080a2005b638dfc202b60e01b60005260046000fd5b3461036d57600036600319011261036d5760135460405160089190911c6001600160a01b03168152602090f35b3461036d57600036600319011261036d576020600654604051908152f35b3461036d57604036600319011261036d57610dfb6122b3565b600435600052600a60205260086040600020019060018060a01b0316600052602052602060ff604060002054166040519015158152f35b3461036d5760a036600319011261036d57600435600681101561036d57610e576122b3565b9060643567ffffffffffffffff811161036d57610e789036906004016122e5565b9060843567ffffffffffffffff811161036d57610e999036906004016122e5565b90336000526003602052610eb460ff60406000205416612382565b610ec0825115156124dd565b600d5492610ecd84612520565b600d556000848152600e602052604081208581556001810180546001600160a81b03191660ff86161760089890981b610100600160a81b031697909717909655949060443560028301558051600383019167ffffffffffffffff821161126857610f4182610f3b85546120c9565b8561252f565b602090601f8311600114611201579180610f769260099695948b926111f6575b50508160011b916000199060031b1c19161790565b90555b600481018690556007810180546001600160a81b0319163360081b610100600160a81b031617905501825167ffffffffffffffff81116111e257610fc781610fc184546120c9565b8461252f565b6020601f8211600114611182579080610ff5928891611177575b508160011b916000199060031b1c19161790565b90555b600f54600160401b811015611163578391611059836110408460017f826634dd138e1b3e8aca3c148431a77bfca9c0af429fa1654b58c4d4db87beae9601600f55600f612285565b90919082549060031b91821b91600019901b1916179055565b61106660405180926121a8565b604060208201528061107d339560408301906121b5565b0390a3338252600360205261109860ff604084205416612382565b6110a5600d5482106123bd565b808252600e602052604082206007810160ff815416600581101561114f5761031b573384526008820160208181526040862054909591906110e99060ff1615612631565b338252855260408120805460ff1916600117905560048301805461110c90612520565b8091556005541115611124575b505050604051908152f35b50600160ff19825416179055426005820155600661114460075442612671565b910155828080611119565b634e487b7160e01b85526021600452602485fd5b634e487b7160e01b85526041600452602485fd5b905085015188610fe1565b82875280872090601f198316885b8181106111ca575090836001949392106111b1575b5050811b019055610ff8565b86015160001960f88460031b161c1916905587806111a5565b9192602060018192868b015181550194019201611190565b634e487b7160e01b86526041600452602486fd5b015190508a80610f61565b8389528189209190601f1984168a5b818110611250575091600193918560099897969410611237575b505050811b019055610f79565b015160001960f88460031b161c1916905589808061122a565b92936020600181928786015181550195019301611210565b634e487b7160e01b88526041600452602488fd5b3461036d57602036600319011261036d5761129561229d565b3360005260036020526112af60ff60406000205416612382565b6001600160a01b03166000818152600460205260409020546112d39060ff166125a8565b6000908152600460205260409020805460ff19169055005b3461036d57600036600319011261036d5760606010546011546012549060405192835260208301526040820152f35b3461036d57600036600319011261036d57604051806020600c54918281520190600c6000527fdf6966c971051c3d54ec59162606531493a51404a002842f56009d7e5cf4a8c79060005b81811061137b5761060c8561060081870382612186565b8254845260209093019260019283019201611364565b3461036d57602036600319011261036d57600435600b5481101561036d5761052c60209161224f565b3461036d57600036600319011261036d57602060ff600154166040519015158152f35b3461036d57600036600319011261036d576011546010546000919080821061144d575061010091506000905b600254916005549147600b54600c549160ff6013541695604051978852602088015260408701526060860152608085015260a084015260c0830152151560e0820152f35b81810390811161146257610100925090611409565b634e487b7160e01b83526011600452602483fd5b3461036d57600036600319011261036d57604051806020600f54918281520190600f6000527f8d1108e10bcb7c27dddfc02ed9d693a074039d026cf4ea4240b40f7d581ac8029060005b8181106114d75761060c8561060081870382612186565b82548452602090930192600192830192016114c0565b3461036d57608036600319011261036d5761150661229d565b60243560443567ffffffffffffffff811161036d576115299036906004016122e5565b9160643567ffffffffffffffff811161036d5761154a9036906004016122e5565b9033600052600360205261156560ff60406000205416612382565b61157460ff6013541615612499565b61157c612e7d565b6001600160a01b03169182156119b757611598825115156124dd565b600954936115a585612520565b60095584600052600a60205260406000209085825560018201856bffffffffffffffffffffffff60a01b825416179055826002830155600382019080519067ffffffffffffffff82116118d25761160082610f3b85546120c9565b602090601f831160011461194c5791806116359260099695946000926111f65750508160011b916000199060031b1c19161790565b90555b600060048201556007810180546001600160a81b0319163360081b610100600160a81b031617905501825167ffffffffffffffff81116118d25761168081610fc184546120c9565b6020601f82116001146118e85790806116ae9260009161117757508160011b916000199060031b1c19161790565b90555b600b54600160401b8110156118d25784916116f9836110408460017fc6195fcf58e6acce82991308bf8a73dd756e99bca1b71404402b07600d2c337e9601600b55600b612285565b6040519081526040602082015280611716339560408301906121b5565b0390a433600052600360205261173360ff60406000205416612382565b611740600954821061244d565b61174f60ff6013541615612499565b611757612e7d565b80600052600a60205260406000209060ff6007830154166005811015610357576109ac5760048260086020940160018060a01b0333166000528085526117a560ff6040600020541615612631565b33600090815290855260409020805460ff191660011790550180546117c990612520565b809155604051818152827f9c1a063ce0c61e289e64b8d5f01accc47d7a8b7760ee0fe1e22b3047329e4742853393a3600554111561180a575b604051908152f35b80600052600a8252806040600020600281015460085481111590816118c2575b50806118ae575b15611845575061184090612e9a565b611802565b838160077ffe650b96407e08305d97daaeccdf13b06b403609fba5b82c1d3c39951a6dcbae9301600160ff19825416179055426005820155600661188a815442612671565b910190815561189884612e07565b6118a184612581565b54604051908152a2611802565b506118bc60038201546120c9565b15611831565b6118cc91506130ff565b8561182a565b634e487b7160e01b600052604160045260246000fd5b601f1982169083600052806000209160005b8181106119345750908360019493921061191b575b5050811b0190556116b1565b86015160001960f88460031b161c19169055878061190f565b9192602060018192868b0151815501940192016118fa565b90601f1983169184600052816000209260005b81811061199f575091600193918560099897969410611986575b505050811b019055611638565b015160001960f88460031b161c19169055898080611979565b9293602060018192878601518155019501930161195f565b60405162461bcd60e51b8152602060048201526011602482015270125b9d985b1a59081c9958da5c1a595b9d607a1b6044820152606490fd5b3461036d57600036600319011261036d576020600554604051908152f35b3461036d57600036600319011261036d576020601454604051908152f35b3461036d57602036600319011261036d57600435600052600a602052604060002060018060a01b0360018201541661060c6002830154926009600482015491611aba600782015491611a9c60405191611a8c836107828160038501612103565b610c3a6040518097819301612103565b6040519788978852602088015260e0604088015260e08701906121b5565b926060860152611ad06080860160ff83166121f6565b60081c6001600160a01b031660a085015283820360c08501526121b5565b3461036d57602036600319011261036d57600435336000526003602052611b1c60ff60406000205416612382565b611b29600954821061244d565b80600052600a60205260406000206007810190815460ff81166005811015610357578015908115611c59575b5015611c14573360089190911c6001600160a01b031614908115611c04575b5015611bbf57805460ff19166003179055611bb1565b7f956fb32199d8b882b2039a14e1be35ab14f7a80b9089fc223f14b43937173e60600080a2005b611bba81612d8c565b611b8a565b60405162461bcd60e51b815260206004820152601860248201527f4e6f7420617574686f72697a656420746f2063616e63656c00000000000000006044820152606490fd5b6004915001546005541183611b74565b60405162461bcd60e51b815260206004820152601960248201527f43616e6e6f742063616e63656c207472616e73616374696f6e000000000000006044820152606490fd5b600191501485611b55565b3461036d57602036600319011261036d576001600160a01b03611c8561229d565b166000526003602052602060ff604060002054166040519015158152f35b3461036d57604036600319011261036d57611cbc6122b3565b600435600052600e60205260086040600020019060018060a01b0316600052602052602060ff604060002054166040519015158152f35b3461036d57600036600319011261036d576020600854604051908152f35b3461036d57602036600319011261036d57600435336000526003602052611d3f60ff60406000205416612382565b611d4c600d5482106123bd565b611d5461267e565b80600052600e6020526040600020600781019060ff825416600581101561035757600103611ed9576006611d8c910154421015612409565b805460ff19166002179055611da0816126a0565b9060005b600f549081811015611ed25782611dba82612234565b90549060031b1c14611dd0576001915001611da4565b6000198201918211611ebc57611040611deb611df893612234565b90549060031b1c91612234565b600f548015611ea65760001901611e24611e1382600f612285565b8154906000199060031b1b19169055565b600f555b7f948f4a9cd986f1118c3fbd459f7a22b23c0693e1ca3ef06a6a8be5aa7d39cc03602060405193159384158152a2611e61576001600055005b60405162461bcd60e51b815260206004820152601960248201527f50726f706f73616c20657865637574696f6e206661696c6564000000000000006044820152606490fd5b634e487b7160e01b600052603160045260246000fd5b634e487b7160e01b600052601160045260246000fd5b5050611e28565b60405162461bcd60e51b8152602060048201526013602482015272141c9bdc1bdcd85b081b9bdd081c5d595d5959606a1b6044820152606490fd5b3461036d57602036600319011261036d576001600160a01b03611f3561229d565b166000526004602052602060ff604060002054166040519015158152f35b3461036d57600036600319011261036d57602060405160148152f35b3461036d57600036600319011261036d57602060ff601354166040519015158152f35b3461036d57602036600319011261036d5760043560025481101561036d57611fbb602091612203565b905460405160039290921b1c6001600160a01b03168152f35b3461036d57602036600319011261036d57600435600052600e60205260406000209061060c8254916009600185015494600281015461201a84610c3a8160038601612103565b600482015493612088600584015491600685015493612048600787015496610c6f604051809a819301612103565b6040519a8b9a8b5261206060208c0160ff83166121a8565b60081c6001600160a01b031660408b015260608a015261016060808a018190528901906121b5565b9460a088015260c087015260e08601526120a9610100860160ff83166121f6565b60081c6001600160a01b03166101208501528382036101408501526121b5565b90600182811c921680156120f9575b60208310146120e357565b634e487b7160e01b600052602260045260246000fd5b91607f16916120d8565b60009291815491612113836120c9565b8083529260018116908115612169575060011461212f57505050565b60009081526020812093945091925b83831061214f575060209250010190565b60018160209294939454838587010152019101919061213e565b915050602093945060ff929192191683830152151560051b010190565b90601f8019910116810190811067ffffffffffffffff8211176118d257604052565b9060068210156103575752565b919082519283825260005b8481106121e1575050826000602080949584010152601f8019910116010190565b806020809284010151828286010152016121c0565b9060058210156103575752565b60025481101561221e57600260005260206000200190600090565b634e487b7160e01b600052603260045260246000fd5b600f5481101561221e57600f60005260206000200190600090565b600b5481101561221e57600b60005260206000200190600090565b600c5481101561221e57600c60005260206000200190600090565b805482101561221e5760005260206000200190600090565b600435906001600160a01b038216820361036d57565b602435906001600160a01b038216820361036d57565b67ffffffffffffffff81116118d257601f01601f191660200190565b81601f8201121561036d576020813591016122ff826122c9565b9261230d6040519485612186565b8284528282011161036d5781600092602092838601378301015290565b602060408183019282815284518094520192019060005b81811061234e5750505090565b8251845260209384019390920191600101612341565b3461036d57600036600319011261036d57602060405162278d008152f35b1561238957565b60405162461bcd60e51b815260206004820152600c60248201526b2737ba1030b71037bbb732b960a11b6044820152606490fd5b156123c457565b60405162461bcd60e51b815260206004820152601760248201527f50726f706f73616c20646f6573206e6f742065786973740000000000000000006044820152606490fd5b1561241057565b60405162461bcd60e51b8152602060048201526015602482015274151a5b59481b1bd8dac81b9bdd08195e1c1a5c9959605a1b6044820152606490fd5b1561245457565b60405162461bcd60e51b815260206004820152601a60248201527f5472616e73616374696f6e20646f6573206e6f742065786973740000000000006044820152606490fd5b156124a057565b60405162461bcd60e51b8152602060048201526015602482015274456d657267656e6379206d6f64652061637469766560581b6044820152606490fd5b156124e457565b60405162461bcd60e51b815260206004820152601460248201527311195cd8dc9a5c1d1a5bdb881c995c5d5a5c995960621b6044820152606490fd5b6000198114611ebc5760010190565b601f821161253c57505050565b6000526020600020906020601f840160051c83019310612577575b601f0160051c01905b81811061256b575050565b60008155600101612560565b9091508190612557565b600c5490600160401b8210156118d2576110408260016125a69401600c55600c612285565b565b156125af57565b60405162461bcd60e51b815260206004820152600e60248201526d2737ba10309033bab0b93234b0b760911b6044820152606490fd5b156125ec57565b60405162461bcd60e51b815260206004820152601960248201527f456d657267656e6379206d6f6465206e6f7420616374697665000000000000006044820152606490fd5b1561263857565b60405162461bcd60e51b8152602060048201526011602482015270105b1c9958591e4818dbdb999a5c9b5959607a1b6044820152606490fd5b91908201809211611ebc57565b60026000541461268f576002600055565b633ee5aeb560e01b60005260046000fd5b600052600e60205260406000206001810190815460ff811690600682101561035757816127f8575050905460081c6001600160a01b0316905080156127bb5780600052600360205260ff60406000205416612783576014600254101561274c57612709816130da565b8060005260036020526040600020600160ff198254161790557f994a936646fe87ffe4f1e469d3d6aa417d6b855598397f323de5b449f765f0c3600080a2600190565b60405162461bcd60e51b815260206004820152600f60248201526e546f6f206d616e79206f776e65727360881b6044820152606490fd5b60405162461bcd60e51b815260206004820152601060248201526f20b63932b0b23c9030b71037bbb732b960811b6044820152606490fd5b60405162461bcd60e51b8152602060048201526015602482015274496e76616c6964206f776e6572206164647265737360581b6044820152606490fd5b60006001830361298f575050505060018060a01b03905460081c1680600052600360205261282d60ff60406000205416612382565b600254600554101561293e5760005b6002549081811015612937578261285282612203565b905460039190911b1c6001600160a01b03161461287357600191500161283c565b6000198201918211611ebc576128a661288e6128ca93612203565b905460039190911b1c6001600160a01b031691612203565b81546001600160a01b0393841660039290921b91821b9390911b1916919091179055565b6002548015611ea657600019016128e081612203565b81549060018060a01b039060031b1b191690556002555b806000526003602052604060002060ff1981541690557f58619076adf5bb0943d100ef88d52d7c3fd691b19d3a9071b555b651fbf418da600080a2600190565b50506128f7565b60405162461bcd60e51b815260206004820152602360248201527f43616e6e6f742072656d6f7665206f776e65722062656c6f77207468726573686044820152621bdb1960ea1b6064820152608490fd5b509192509060028203612a625750506002015460018110612a295760025481116129ef5760407f3164947cf0f49f08dd0cd80e671535b1e11590d347c55dcaa97ba3c24a96b33a91600554908060055582519182526020820152a1600190565b60405162461bcd60e51b81526020600482015260126024820152710a8d0e4cae6d0ded8c840e8dede40d0d2ced60731b6044820152606490fd5b60405162461bcd60e51b81526020600482015260116024820152705468726573686f6c6420746f6f206c6f7760781b6044820152606490fd5b600060038303612b4d5750505060020154610e108110612b125762278d008111612ad857600654816006558160011b9082820460021483151715611ebc577f8dce199a9d83266352e70738b2dda1e7299a0ce43f7e5b9161c7ad6d571d47e99260409260075582519182526020820152a1600190565b60405162461bcd60e51b815260206004820152601260248201527154696d65206c6f636b20746f6f206c6f6e6760701b6044820152606490fd5b60405162461bcd60e51b8152602060048201526013602482015272151a5b59481b1bd8dac81d1bdbc81cda1bdc9d606a1b6044820152606490fd5b5060048203612b98575050604060027f070dc0f9e511fdc888935179b3eba0bb274ccb33e0572454d85d32a70219dd62920154601054908060105582519182526020820152a1600190565b600093925090600514612bac575060009150565b60018060a01b039060081c1690612bc760ff601354166125e5565b60145462278d008101809111612d78574210612d33578115612cee57825b600254811015612c225780612bfb600192612203565b838060a01b0391549060031b1c16855260036020526040852060ff19815416905501612be5565b50916002548160025580612c8e575b507f3cd81efff0c5b8f185819f4f2797c283c28d720b183fcd99a74acb247501508f90612c5d836130da565b828152600360205260408120600160ff19825416179055600160055560ff19601354166013558060145580a2600190565b600282527f405787fa12a823e0f2b7631cc41b3ba8828b3321ca811111fa75cd3aa3bb5ace017f405787fa12a823e0f2b7631cc41b3ba8828b3321ca811111fa75cd3aa3bb5ace5b818110612ce35750612c31565b828155600101612cd6565b60405162461bcd60e51b815260206004820152601860248201527f496e76616c6964207265636f76657279206164647265737300000000000000006044820152606490fd5b60405162461bcd60e51b815260206004820152601d60248201527f456d657267656e63792074696d656f7574206e6f7420726561636865640000006044820152606490fd5b634e487b7160e01b84526011600452602484fd5b60005b600c5480821015612e025782612da48361226a565b90549060031b1c14612db95750600101612d8f565b600019810192508211611ebc57611040612dd5612de29361226a565b90549060031b1c9161226a565b600c548015611ea65760001901612dfd611e1382600c612285565b600c55565b505050565b60005b600b5480821015612e025782612e1f8361224f565b90549060031b1c14612e345750600101612e0a565b600019810192508211611ebc57611040612e50612e5d9361224f565b90549060031b1c9161224f565b600b548015611ea65760001901612e78611e1382600b612285565b600b55565b60ff60015416612e8957565b63d93c066560e01b60005260046000fd5b80600052600a602052604060002060028101612eb6815461312a565b1561309e5747815411613062576007820192600260ff19855416178455600183019260018060a01b03845416906003845491019060405191600090805490612efd826120c9565b916001811690811561304b5750600114613016575b5050916000939181859403925af1923d15613011573d612f31816122c9565b90612f3f6040519283612186565b8152600060203d92013e5b60ff8554166005811015610357577fb0be8a894e2b39dc602e289bf49d4cd432ec8cf3359700bf249fbcc98110b5d39160409160010361300357612f8d84612d8c565b5493548151908152941580156020870152946001600160a01b0390941693a3612fb35750565b805460ff1916600117905560405162461bcd60e51b815260206004820152601c60248201527f5472616e73616374696f6e20657865637574696f6e206661696c6564000000006044820152606490fd5b61300c84612e07565b612f8d565b612f4a565b90915060005260206000206000905b82821061303757505082018183612f12565b600181602092548488015201910190613025565b60ff19168652505080151502830190508183612f12565b60405162461bcd60e51b8152602060048201526014602482015273496e73756666696369656e742062616c616e636560601b6044820152606490fd5b60405162461bcd60e51b815260206004820152601460248201527311185a5b1e481b1a5b5a5d08195e18d95959195960621b6044820152606490fd5b60025490600160401b8210156118d2576128a68260016125a694016002556002612285565b601254620151808101809111611ebc574210156131225761312290601154612671565b601054101590565b601254620151808101809111611ebc57421015613170575b601154906131508183612671565b601054106131695761316191612671565b601155600190565b5050600090565b6000601155426012557f450d69a307fe727c4d16c9aa74048123badcca4d9a3070218b80892e26ee3a166020604051428152a161314256fea2646970667358221220f4a3e1d115a7bc69408d21b1fc92ef2016d987e282c65c659776e60eb54b486b64736f6c634300081c0033",
          "opcodes": "PUSH1 0x80 PUSH1 0x40 MSTORE CALLVALUE PUSH2 0x5A3 JUMPI PUSH2 0x37C0 DUP1 CODESIZE SUB DUP1 PUSH2 0x19 DUP2 PUSH2 0x5A8 JUMP JUMPDEST SWAP3 DUP4 CODECOPY DUP2 ADD SWAP1 PUSH1 0xA0 DUP2 DUP4 SUB SLT PUSH2 0x5A3 JUMPI DUP1 MLOAD PUSH1 0x1 PUSH1 0x1 PUSH1 0x40 SHL SUB DUP2 GT PUSH2 0x5A3 JUMPI DUP2 ADD DUP3 PUSH1 0x1F DUP3 ADD SLT ISZERO PUSH2 0x5A3 JUMPI DUP1 MLOAD SWAP3 PUSH1 0x1 PUSH1 0x1 PUSH1 0x40 SHL SUB DUP5 GT PUSH2 0x221 JUMPI DUP4 PUSH1 0x5 SHL SWAP2 PUSH1 0x20 DUP1 PUSH2 0x6A DUP2 DUP7 ADD PUSH2 0x5A8 JUMP JUMPDEST DUP1 SWAP8 DUP2 MSTORE ADD SWAP4 DUP3 ADD ADD SWAP2 DUP3 GT PUSH2 0x5A3 JUMPI PUSH1 0x20 ADD SWAP2 JUMPDEST DUP2 DUP4 LT PUSH2 0x583 JUMPI POP POP POP PUSH1 0x20 DUP2 ADD MLOAD PUSH1 0x40 DUP3 ADD MLOAD SWAP1 PUSH1 0x80 PUSH1 0x60 DUP5 ADD MLOAD SWAP4 ADD MLOAD SWAP3 PUSH1 0x1 PUSH1 0x0 SSTORE DUP5 MLOAD ISZERO PUSH2 0x53E JUMPI PUSH1 0x14 DUP6 MLOAD GT PUSH2 0x507 JUMPI PUSH1 0x1 DUP3 LT PUSH2 0x4CE JUMPI DUP5 MLOAD DUP3 GT PUSH2 0x494 JUMPI PUSH2 0xE10 DUP4 LT PUSH2 0x44F JUMPI PUSH3 0x278D00 DUP4 GT PUSH2 0x415 JUMPI DUP1 DUP5 GT PUSH2 0x3C6 JUMPI PUSH1 0x0 JUMPDEST DUP6 MLOAD DUP2 LT ISZERO PUSH2 0x2B3 JUMPI PUSH1 0x1 PUSH1 0x1 PUSH1 0xA0 SHL SUB PUSH2 0xFC DUP3 DUP9 PUSH2 0x5CD JUMP JUMPDEST MLOAD AND ISZERO PUSH2 0x26E JUMPI PUSH1 0x1 PUSH1 0x1 PUSH1 0xA0 SHL SUB PUSH2 0x115 DUP3 DUP9 PUSH2 0x5CD JUMP JUMPDEST MLOAD AND PUSH1 0x0 MSTORE PUSH1 0x3 PUSH1 0x20 MSTORE PUSH1 0xFF PUSH1 0x40 PUSH1 0x0 KECCAK256 SLOAD AND PUSH2 0x237 JUMPI PUSH1 0x1 PUSH1 0x1 PUSH1 0xA0 SHL SUB PUSH2 0x13E DUP3 DUP9 PUSH2 0x5CD JUMP JUMPDEST MLOAD AND SWAP1 PUSH1 0x2 SLOAD SWAP2 PUSH9 0x10000000000000000 DUP4 LT ISZERO PUSH2 0x221 JUMPI PUSH1 0x1 DUP4 ADD DUP1 PUSH1 0x2 SSTORE DUP4 LT ISZERO PUSH2 0x20B JUMPI PUSH1 0x2 PUSH1 0x0 MSTORE PUSH32 0x405787FA12A823E0F2B7631CC41B3BA8828B3321CA811111FA75CD3AA3BB5ACE SWAP1 SWAP3 ADD DUP1 SLOAD PUSH1 0x1 PUSH1 0x1 PUSH1 0xA0 SHL SUB NOT AND SWAP1 SWAP3 OR SWAP1 SWAP2 SSTORE PUSH1 0x1 SWAP1 PUSH1 0x1 PUSH1 0x1 PUSH1 0xA0 SHL SUB PUSH2 0x1B5 DUP3 DUP10 PUSH2 0x5CD JUMP JUMPDEST MLOAD AND PUSH1 0x0 MSTORE PUSH1 0x3 PUSH1 0x20 MSTORE PUSH1 0x40 PUSH1 0x0 KECCAK256 DUP3 PUSH1 0xFF NOT DUP3 SLOAD AND OR SWAP1 SSTORE DUP2 DUP1 PUSH1 0xA0 SHL SUB PUSH2 0x1DE DUP3 DUP10 PUSH2 0x5CD JUMP JUMPDEST MLOAD AND PUSH32 0x994A936646FE87FFE4F1E469D3D6AA417D6B855598397F323DE5B449F765F0C3 PUSH1 0x0 DUP1 LOG2 ADD PUSH2 0xE1 JUMP JUMPDEST PUSH4 0x4E487B71 PUSH1 0xE0 SHL PUSH1 0x0 MSTORE PUSH1 0x32 PUSH1 0x4 MSTORE PUSH1 0x24 PUSH1 0x0 REVERT JUMPDEST PUSH4 0x4E487B71 PUSH1 0xE0 SHL PUSH1 0x0 MSTORE PUSH1 0x41 PUSH1 0x4 MSTORE PUSH1 0x24 PUSH1 0x0 REVERT JUMPDEST PUSH1 0x40 MLOAD PUSH3 0x461BCD PUSH1 0xE5 SHL DUP2 MSTORE PUSH1 0x20 PUSH1 0x4 DUP3 ADD MSTORE PUSH1 0xF PUSH1 0x24 DUP3 ADD MSTORE PUSH15 0x223AB83634B1B0BA329037BBB732B9 PUSH1 0x89 SHL PUSH1 0x44 DUP3 ADD MSTORE PUSH1 0x64 SWAP1 REVERT JUMPDEST PUSH1 0x40 MLOAD PUSH3 0x461BCD PUSH1 0xE5 SHL DUP2 MSTORE PUSH1 0x20 PUSH1 0x4 DUP3 ADD MSTORE PUSH1 0x15 PUSH1 0x24 DUP3 ADD MSTORE PUSH32 0x496E76616C6964206F776E657220616464726573730000000000000000000000 PUSH1 0x44 DUP3 ADD MSTORE PUSH1 0x64 SWAP1 REVERT JUMPDEST POP DUP4 DUP3 PUSH1 0x5 SSTORE DUP4 PUSH1 0x6 SSTORE DUP4 PUSH1 0x1 SHL DUP5 DUP2 DIV PUSH1 0x2 EQ DUP6 ISZERO OR ISZERO PUSH2 0x3B0 JUMPI PUSH1 0x7 SSTORE PUSH1 0x8 SSTORE PUSH1 0x40 MLOAD SWAP2 PUSH1 0x60 DUP4 ADD SWAP1 PUSH1 0x1 PUSH1 0x1 PUSH1 0x40 SHL SUB DUP3 GT DUP5 DUP4 LT OR PUSH2 0x221 JUMPI PUSH32 0x70DC0F9E511FDC888935179B3EBA0BB274CCB33E0572454D85D32A70219DD62 SWAP5 PUSH32 0x3164947CF0F49F08DD0CD80E671535B1E11590D347C55DCAA97BA3C24A96B33A PUSH1 0x40 DUP1 SWAP7 SWAP4 DUP2 SWAP5 PUSH32 0x8DCE199A9D83266352E70738B2DDA1E7299A0CE43F7E5B9161C7AD6D571D47E9 SWAP7 DUP4 MSTORE DUP8 DUP2 MSTORE PUSH1 0x0 PUSH1 0x20 DUP3 ADD MSTORE DUP3 TIMESTAMP SWAP2 ADD MSTORE DUP7 PUSH1 0x10 SSTORE PUSH1 0x0 PUSH1 0x11 SSTORE TIMESTAMP PUSH1 0x12 SSTORE DUP2 MLOAD SWAP1 PUSH1 0x0 DUP3 MSTORE PUSH1 0x20 DUP3 ADD MSTORE LOG1 DUP2 MLOAD SWAP1 PUSH1 0x0 DUP3 MSTORE PUSH1 0x20 DUP3 ADD MSTORE LOG1 DUP2 MLOAD SWAP1 PUSH1 0x0 DUP3 MSTORE PUSH1 0x20 DUP3 ADD MSTORE LOG1 PUSH1 0x40 MLOAD PUSH2 0x31DE SWAP1 DUP2 PUSH2 0x5E2 DUP3 CODECOPY RETURN JUMPDEST PUSH4 0x4E487B71 PUSH1 0xE0 SHL PUSH1 0x0 MSTORE PUSH1 0x11 PUSH1 0x4 MSTORE PUSH1 0x24 PUSH1 0x0 REVERT JUMPDEST PUSH1 0x40 MLOAD PUSH3 0x461BCD PUSH1 0xE5 SHL DUP2 MSTORE PUSH1 0x20 PUSH1 0x4 DUP3 ADD MSTORE PUSH1 0x21 PUSH1 0x24 DUP3 ADD MSTORE PUSH32 0x496E7374616E74206C696D69742065786365656473206461696C79206C696D69 PUSH1 0x44 DUP3 ADD MSTORE PUSH1 0x1D PUSH1 0xFA SHL PUSH1 0x64 DUP3 ADD MSTORE PUSH1 0x84 SWAP1 REVERT JUMPDEST PUSH1 0x40 MLOAD PUSH3 0x461BCD PUSH1 0xE5 SHL DUP2 MSTORE PUSH1 0x20 PUSH1 0x4 DUP3 ADD MSTORE PUSH1 0x12 PUSH1 0x24 DUP3 ADD MSTORE PUSH18 0x54696D65206C6F636B20746F6F206C6F6E67 PUSH1 0x70 SHL PUSH1 0x44 DUP3 ADD MSTORE PUSH1 0x64 SWAP1 REVERT JUMPDEST PUSH1 0x40 MLOAD PUSH3 0x461BCD PUSH1 0xE5 SHL DUP2 MSTORE PUSH1 0x20 PUSH1 0x4 DUP3 ADD MSTORE PUSH1 0x13 PUSH1 0x24 DUP3 ADD MSTORE PUSH32 0x54696D65206C6F636B20746F6F2073686F727400000000000000000000000000 PUSH1 0x44 DUP3 ADD MSTORE PUSH1 0x64 SWAP1 REVERT JUMPDEST PUSH1 0x40 MLOAD PUSH3 0x461BCD PUSH1 0xE5 SHL DUP2 MSTORE PUSH1 0x20 PUSH1 0x4 DUP3 ADD MSTORE PUSH1 0x12 PUSH1 0x24 DUP3 ADD MSTORE PUSH18 0xA8D0E4CAE6D0DED8C840E8DEDE40D0D2CED PUSH1 0x73 SHL PUSH1 0x44 DUP3 ADD MSTORE PUSH1 0x64 SWAP1 REVERT JUMPDEST PUSH1 0x40 MLOAD PUSH3 0x461BCD PUSH1 0xE5 SHL DUP2 MSTORE PUSH1 0x20 PUSH1 0x4 DUP3 ADD MSTORE PUSH1 0x11 PUSH1 0x24 DUP3 ADD MSTORE PUSH17 0x5468726573686F6C6420746F6F206C6F77 PUSH1 0x78 SHL PUSH1 0x44 DUP3 ADD MSTORE PUSH1 0x64 SWAP1 REVERT JUMPDEST PUSH1 0x40 MLOAD PUSH3 0x461BCD PUSH1 0xE5 SHL DUP2 MSTORE PUSH1 0x20 PUSH1 0x4 DUP3 ADD MSTORE PUSH1 0xF PUSH1 0x24 DUP3 ADD MSTORE PUSH15 0x546F6F206D616E79206F776E657273 PUSH1 0x88 SHL PUSH1 0x44 DUP3 ADD MSTORE PUSH1 0x64 SWAP1 REVERT JUMPDEST PUSH1 0x40 MLOAD PUSH3 0x461BCD PUSH1 0xE5 SHL DUP2 MSTORE PUSH1 0x20 PUSH1 0x4 DUP3 ADD MSTORE PUSH1 0x1B PUSH1 0x24 DUP3 ADD MSTORE PUSH32 0x4174206C65617374206F6E65206F776E65722072657175697265640000000000 PUSH1 0x44 DUP3 ADD MSTORE PUSH1 0x64 SWAP1 REVERT JUMPDEST DUP3 MLOAD PUSH1 0x1 PUSH1 0x1 PUSH1 0xA0 SHL SUB DUP2 AND DUP2 SUB PUSH2 0x5A3 JUMPI DUP2 MSTORE PUSH1 0x20 SWAP3 DUP4 ADD SWAP3 ADD PUSH2 0x7F JUMP JUMPDEST PUSH1 0x0 DUP1 REVERT JUMPDEST PUSH1 0x40 MLOAD SWAP2 SWAP1 PUSH1 0x1F ADD PUSH1 0x1F NOT AND DUP3 ADD PUSH1 0x1 PUSH1 0x1 PUSH1 0x40 SHL SUB DUP2 GT DUP4 DUP3 LT OR PUSH2 0x221 JUMPI PUSH1 0x40 MSTORE JUMP JUMPDEST DUP1 MLOAD DUP3 LT ISZERO PUSH2 0x20B JUMPI PUSH1 0x20 SWAP2 PUSH1 0x5 SHL ADD ADD SWAP1 JUMP INVALID PUSH1 0x80 DUP1 PUSH1 0x40 MSTORE PUSH1 0x4 CALLDATASIZE LT ISZERO PUSH2 0x49 JUMPI JUMPDEST POP CALLDATASIZE ISZERO PUSH2 0x1B JUMPI PUSH1 0x0 DUP1 REVERT JUMPDEST PUSH1 0x40 MLOAD CALLVALUE DUP2 MSTORE PUSH32 0xE1FFFCC4923D04B559F4D29A8BFC6CDA04EB5B0D3C460751C2402C5C5CC9109C PUSH1 0x20 CALLER SWAP3 LOG2 STOP JUMPDEST PUSH1 0x0 CALLDATALOAD PUSH1 0xE0 SHR SWAP1 DUP2 PUSH4 0x13CF08B EQ PUSH2 0x1FD4 JUMPI POP DUP1 PUSH4 0x25E7C27 EQ PUSH2 0x1F92 JUMPI DUP1 PUSH4 0x905F560 EQ PUSH2 0x1F6F JUMPI DUP1 PUSH4 0xB8BB146 EQ PUSH2 0x1F53 JUMPI DUP1 PUSH4 0xC68BA21 EQ PUSH2 0x1F14 JUMPI DUP1 PUSH4 0xD61B519 EQ PUSH2 0x1D11 JUMPI DUP1 PUSH4 0xDEEF0DE EQ PUSH2 0x1CF3 JUMPI DUP1 PUSH4 0x24210CCE EQ PUSH2 0x1CA3 JUMPI DUP1 PUSH4 0x2F54BF6E EQ PUSH2 0x1C64 JUMPI DUP1 PUSH4 0x3380C0D8 EQ PUSH2 0x1AEE JUMPI DUP1 PUSH4 0x33EA3DC8 EQ PUSH2 0x1A2C JUMPI DUP1 PUSH4 0x3D63F215 EQ PUSH2 0x1A0E JUMPI DUP1 PUSH4 0x42CDE4E8 EQ PUSH2 0x19F0 JUMPI DUP1 PUSH4 0x46E24B08 EQ PUSH2 0x14ED JUMPI DUP1 PUSH4 0x5584C4F9 EQ PUSH2 0x1476 JUMPI DUP1 PUSH4 0x5AF06E8F EQ PUSH2 0x13DD JUMPI DUP1 PUSH4 0x5C975ABB EQ PUSH2 0x13BA JUMPI DUP1 PUSH4 0x63A8374D EQ PUSH2 0x1391 JUMPI DUP1 PUSH4 0x657ED048 EQ PUSH2 0x131A JUMPI DUP1 PUSH4 0x67EEBA0C EQ PUSH2 0x12EB JUMPI DUP1 PUSH4 0x71404156 EQ PUSH2 0x127C JUMPI DUP1 PUSH4 0x7E0F3D5B EQ PUSH2 0xE32 JUMPI DUP1 PUSH4 0x7F264076 EQ PUSH2 0x23A JUMPI DUP1 PUSH4 0x80F59A65 EQ PUSH2 0xDE2 JUMPI DUP1 PUSH4 0x8BBC6446 EQ PUSH2 0xDC4 JUMPI DUP1 PUSH4 0x8C67A0C2 EQ PUSH2 0xD97 JUMPI DUP1 PUSH4 0x99B20EAF EQ PUSH2 0xCDB JUMPI DUP1 PUSH4 0x9ACE38C2 EQ PUSH2 0xBE9 JUMPI DUP1 PUSH4 0xA0E67E2B EQ PUSH2 0xB1D JUMPI DUP1 PUSH4 0xA526D83B EQ PUSH2 0xA2B JUMPI DUP1 PUSH4 0xB77BF600 EQ PUSH2 0xA0D JUMPI DUP1 PUSH4 0xBD11C4C0 EQ PUSH2 0x9F1 JUMPI DUP1 PUSH4 0xC01A8C84 EQ PUSH2 0x7E9 JUMPI DUP1 PUSH4 0xC7F758A8 EQ PUSH2 0x733 JUMPI DUP1 PUSH4 0xCED8CDEC EQ PUSH2 0x715 JUMPI DUP1 PUSH4 0xD0096010 EQ PUSH2 0x626 JUMPI DUP1 PUSH4 0xD11DB83F EQ PUSH2 0x59F JUMPI DUP1 PUSH4 0xD176E93A EQ PUSH2 0x576 JUMPI DUP1 PUSH4 0xDA35C664 EQ PUSH2 0x558 JUMPI DUP1 PUSH4 0xDF744EAD EQ PUSH2 0x53B JUMPI DUP1 PUSH4 0xE40824F8 EQ PUSH2 0x503 JUMPI DUP1 PUSH4 0xEE22610B EQ PUSH2 0x372 JUMPI DUP1 PUSH4 0xF4A4F4D2 EQ PUSH2 0x23F JUMPI PUSH4 0xFAA9F7DD EQ PUSH2 0x23A JUMPI CODESIZE PUSH2 0xF JUMP JUMPDEST PUSH2 0x2364 JUMP JUMPDEST CALLVALUE PUSH2 0x36D JUMPI PUSH1 0x20 CALLDATASIZE PUSH1 0x3 NOT ADD SLT PUSH2 0x36D JUMPI PUSH1 0x4 CALLDATALOAD CALLER PUSH1 0x0 MSTORE PUSH1 0x3 PUSH1 0x20 MSTORE PUSH2 0x26D PUSH1 0xFF PUSH1 0x40 PUSH1 0x0 KECCAK256 SLOAD AND PUSH2 0x2382 JUMP JUMPDEST PUSH2 0x27A PUSH1 0xD SLOAD DUP3 LT PUSH2 0x23BD JUMP JUMPDEST PUSH1 0x0 MSTORE PUSH1 0xE PUSH1 0x20 MSTORE PUSH1 0x40 PUSH1 0x0 KECCAK256 PUSH1 0x7 DUP2 ADD PUSH1 0xFF DUP2 SLOAD AND PUSH1 0x5 DUP2 LT ISZERO PUSH2 0x357 JUMPI PUSH2 0x31B JUMPI CALLER PUSH1 0x0 SWAP1 DUP2 MSTORE PUSH1 0x8 DUP4 ADD PUSH1 0x20 DUP2 SWAP1 MSTORE PUSH1 0x40 SWAP1 SWAP2 KECCAK256 SLOAD PUSH2 0x2BF SWAP1 PUSH1 0xFF AND ISZERO PUSH2 0x2631 JUMP JUMPDEST CALLER PUSH1 0x0 SWAP1 DUP2 MSTORE PUSH1 0x20 SWAP2 SWAP1 SWAP2 MSTORE PUSH1 0x40 SWAP1 KECCAK256 DUP1 SLOAD PUSH1 0xFF NOT AND PUSH1 0x1 OR SWAP1 SSTORE PUSH1 0x4 DUP3 ADD DUP1 SLOAD PUSH2 0x2E9 SWAP1 PUSH2 0x2520 JUMP JUMPDEST DUP1 SWAP2 SSTORE PUSH1 0x5 SLOAD GT ISZERO PUSH2 0x2F7 JUMPI STOP JUMPDEST PUSH1 0x1 PUSH1 0xFF NOT DUP3 SLOAD AND OR SWAP1 SSTORE TIMESTAMP PUSH1 0x5 DUP3 ADD SSTORE PUSH1 0x6 PUSH2 0x316 PUSH1 0x7 SLOAD TIMESTAMP PUSH2 0x2671 JUMP JUMPDEST SWAP2 ADD SSTORE STOP JUMPDEST PUSH1 0x40 MLOAD PUSH3 0x461BCD PUSH1 0xE5 SHL DUP2 MSTORE PUSH1 0x20 PUSH1 0x4 DUP3 ADD MSTORE PUSH1 0x14 PUSH1 0x24 DUP3 ADD MSTORE PUSH20 0x50726F706F73616C206E6F742070656E64696E67 PUSH1 0x60 SHL PUSH1 0x44 DUP3 ADD MSTORE PUSH1 0x64 SWAP1 REVERT JUMPDEST PUSH4 0x4E487B71 PUSH1 0xE0 SHL PUSH1 0x0 MSTORE PUSH1 0x21 PUSH1 0x4 MSTORE PUSH1 0x24 PUSH1 0x0 REVERT JUMPDEST PUSH1 0x0 DUP1 REVERT JUMPDEST CALLVALUE PUSH2 0x36D JUMPI PUSH1 0x20 CALLDATASIZE PUSH1 0x3 NOT ADD SLT PUSH2 0x36D JUMPI PUSH1 0x4 CALLDATALOAD CALLER PUSH1 0x0 MSTORE PUSH1 0x3 PUSH1 0x20 MSTORE PUSH1 0xFF PUSH1 0x40 PUSH1 0x0 KECCAK256 SLOAD AND DUP1 ISZERO PUSH2 0x4EB JUMPI JUMPDEST ISZERO PUSH2 0x4B5 JUMPI PUSH2 0x3B1 PUSH1 0x9 SLOAD DUP3 LT PUSH2 0x244D JUMP JUMPDEST PUSH2 0x3B9 PUSH2 0x267E JUMP JUMPDEST PUSH2 0x3C1 PUSH2 0x2E7D JUMP JUMPDEST DUP1 PUSH1 0x0 MSTORE PUSH1 0xA PUSH1 0x20 MSTORE PUSH1 0x40 PUSH1 0x0 KECCAK256 PUSH1 0xFF PUSH1 0x7 DUP3 ADD SLOAD AND PUSH1 0x5 DUP2 LT ISZERO PUSH2 0x357 JUMPI PUSH1 0x1 SUB PUSH2 0x477 JUMPI PUSH1 0x6 PUSH2 0x3F7 SWAP2 ADD SLOAD TIMESTAMP LT ISZERO PUSH2 0x2409 JUMP JUMPDEST PUSH1 0xFF PUSH1 0x13 SLOAD AND ISZERO DUP1 ISZERO PUSH2 0x45F JUMPI JUMPDEST ISZERO PUSH2 0x41A JUMPI PUSH2 0x413 SWAP1 PUSH2 0x2E9A JUMP JUMPDEST PUSH1 0x1 PUSH1 0x0 SSTORE STOP JUMPDEST PUSH1 0x40 MLOAD PUSH3 0x461BCD PUSH1 0xE5 SHL DUP2 MSTORE PUSH1 0x20 PUSH1 0x4 DUP3 ADD MSTORE PUSH1 0x1B PUSH1 0x24 DUP3 ADD MSTORE PUSH32 0x456D657267656E6379206D6F6465207265737472696374696F6E730000000000 PUSH1 0x44 DUP3 ADD MSTORE PUSH1 0x64 SWAP1 REVERT JUMPDEST POP CALLER PUSH1 0x0 MSTORE PUSH1 0x4 PUSH1 0x20 MSTORE PUSH1 0xFF PUSH1 0x40 PUSH1 0x0 KECCAK256 SLOAD AND PUSH2 0x405 JUMP JUMPDEST PUSH1 0x40 MLOAD PUSH3 0x461BCD PUSH1 0xE5 SHL DUP2 MSTORE PUSH1 0x20 PUSH1 0x4 DUP3 ADD MSTORE PUSH1 0x16 PUSH1 0x24 DUP3 ADD MSTORE PUSH22 0x151C985B9CD858DD1A5BDB881B9BDD081C5D595D5959 PUSH1 0x52 SHL PUSH1 0x44 DUP3 ADD MSTORE PUSH1 0x64 SWAP1 REVERT JUMPDEST PUSH1 0x40 MLOAD PUSH3 0x461BCD PUSH1 0xE5 SHL DUP2 MSTORE PUSH1 0x20 PUSH1 0x4 DUP3 ADD MSTORE PUSH1 0xE PUSH1 0x24 DUP3 ADD MSTORE PUSH14 0x139BDD08185D5D1A1BDC9A5E9959 PUSH1 0x92 SHL PUSH1 0x44 DUP3 ADD MSTORE PUSH1 0x64 SWAP1 REVERT JUMPDEST POP CALLER PUSH1 0x0 MSTORE PUSH1 0x4 PUSH1 0x20 MSTORE PUSH1 0xFF PUSH1 0x40 PUSH1 0x0 KECCAK256 SLOAD AND PUSH2 0x39F JUMP JUMPDEST CALLVALUE PUSH2 0x36D JUMPI PUSH1 0x20 CALLDATASIZE PUSH1 0x3 NOT ADD SLT PUSH2 0x36D JUMPI PUSH1 0x4 CALLDATALOAD PUSH1 0xF SLOAD DUP2 LT ISZERO PUSH2 0x36D JUMPI PUSH2 0x52C PUSH1 0x20 SWAP2 PUSH2 0x2234 JUMP JUMPDEST SWAP1 SLOAD SWAP1 PUSH1 0x3 SHL SHR PUSH1 0x40 MLOAD SWAP1 DUP2 MSTORE RETURN JUMPDEST CALLVALUE PUSH2 0x36D JUMPI PUSH1 0x0 CALLDATASIZE PUSH1 0x3 NOT ADD SLT PUSH2 0x36D JUMPI PUSH1 0x20 PUSH1 0x40 MLOAD PUSH2 0xE10 DUP2 MSTORE RETURN JUMPDEST CALLVALUE PUSH2 0x36D JUMPI PUSH1 0x0 CALLDATASIZE PUSH1 0x3 NOT ADD SLT PUSH2 0x36D JUMPI PUSH1 0x20 PUSH1 0xD SLOAD PUSH1 0x40 MLOAD SWAP1 DUP2 MSTORE RETURN JUMPDEST CALLVALUE PUSH2 0x36D JUMPI PUSH1 0x20 CALLDATASIZE PUSH1 0x3 NOT ADD SLT PUSH2 0x36D JUMPI PUSH1 0x4 CALLDATALOAD PUSH1 0xC SLOAD DUP2 LT ISZERO PUSH2 0x36D JUMPI PUSH2 0x52C PUSH1 0x20 SWAP2 PUSH2 0x226A JUMP JUMPDEST CALLVALUE PUSH2 0x36D JUMPI PUSH1 0x0 CALLDATASIZE PUSH1 0x3 NOT ADD SLT PUSH2 0x36D JUMPI PUSH1 0x40 MLOAD DUP1 PUSH1 0x20 PUSH1 0xB SLOAD SWAP2 DUP3 DUP2 MSTORE ADD SWAP1 PUSH1 0xB PUSH1 0x0 MSTORE PUSH32 0x175B7A638427703F0DBE7BB9BBF987A2551717B34E79F33B5B1008D1FA01DB9 SWAP1 PUSH1 0x0 JUMPDEST DUP2 DUP2 LT PUSH2 0x610 JUMPI PUSH2 0x60C DUP6 PUSH2 0x600 DUP2 DUP8 SUB DUP3 PUSH2 0x2186 JUMP JUMPDEST PUSH1 0x40 MLOAD SWAP2 DUP3 SWAP2 DUP3 PUSH2 0x232A JUMP JUMPDEST SUB SWAP1 RETURN JUMPDEST DUP3 SLOAD DUP5 MSTORE PUSH1 0x20 SWAP1 SWAP4 ADD SWAP3 PUSH1 0x1 SWAP3 DUP4 ADD SWAP3 ADD PUSH2 0x5E9 JUMP JUMPDEST CALLVALUE PUSH2 0x36D JUMPI PUSH1 0x0 CALLDATASIZE PUSH1 0x3 NOT ADD SLT PUSH2 0x36D JUMPI CALLER PUSH1 0x0 MSTORE PUSH1 0x4 PUSH1 0x20 MSTORE PUSH2 0x651 PUSH1 0xFF PUSH1 0x40 PUSH1 0x0 KECCAK256 SLOAD AND PUSH2 0x25A8 JUMP JUMPDEST PUSH1 0x13 SLOAD PUSH1 0xFF DUP2 AND PUSH2 0x6D0 JUMPI PUSH1 0xFF NOT AND PUSH1 0x1 OR PUSH1 0x13 SSTORE TIMESTAMP PUSH1 0x14 SSTORE PUSH2 0x672 PUSH2 0x2E7D JUMP JUMPDEST PUSH1 0x1 PUSH1 0xFF NOT DUP2 SLOAD AND OR PUSH1 0x1 SSTORE PUSH32 0x62E78CEA01BEE320CD4E420270B5EA74000D11B0C9F74754EBDBFC544B05A258 PUSH1 0x20 PUSH1 0x40 MLOAD CALLER DUP2 MSTORE LOG1 CALLER PUSH32 0x43F3E8D1092DA4D3201E4D117B99BF80E75127516BC6523BD8CDB4464A923CDE PUSH1 0x0 DUP1 LOG2 STOP JUMPDEST PUSH1 0x40 MLOAD PUSH3 0x461BCD PUSH1 0xE5 SHL DUP2 MSTORE PUSH1 0x20 PUSH1 0x4 DUP3 ADD MSTORE PUSH1 0x1D PUSH1 0x24 DUP3 ADD MSTORE PUSH32 0x456D657267656E6379206D6F646520616C726561647920616374697665000000 PUSH1 0x44 DUP3 ADD MSTORE PUSH1 0x64 SWAP1 REVERT JUMPDEST CALLVALUE PUSH2 0x36D JUMPI PUSH1 0x0 CALLDATASIZE PUSH1 0x3 NOT ADD SLT PUSH2 0x36D JUMPI PUSH1 0x20 PUSH1 0x7 SLOAD PUSH1 0x40 MLOAD SWAP1 DUP2 MSTORE RETURN JUMPDEST CALLVALUE PUSH2 0x36D JUMPI PUSH1 0x20 CALLDATASIZE PUSH1 0x3 NOT ADD SLT PUSH2 0x36D JUMPI PUSH1 0x4 CALLDATALOAD PUSH1 0x0 MSTORE PUSH1 0xE PUSH1 0x20 MSTORE PUSH1 0x40 PUSH1 0x0 KECCAK256 PUSH1 0x1 DUP2 ADD SLOAD PUSH2 0x60C PUSH1 0x9 PUSH1 0x2 DUP5 ADD SLOAD SWAP4 PUSH1 0x4 DUP2 ADD SLOAD PUSH2 0x789 PUSH1 0x7 DUP4 ADD SLOAD SWAP3 PUSH2 0x782 PUSH1 0x40 MLOAD DUP1 SWAP7 DUP2 SWAP4 ADD PUSH2 0x2103 JUMP JUMPDEST SUB DUP5 PUSH2 0x2186 JUMP JUMPDEST PUSH1 0x40 MLOAD SWAP6 DUP6 PUSH2 0x79C DUP9 PUSH1 0xFF DUP2 SWAP10 AND PUSH2 0x21A8 JUMP JUMPDEST PUSH1 0x8 SHR PUSH1 0x1 PUSH1 0x1 PUSH1 0xA0 SHL SUB AND PUSH1 0x20 DUP8 ADD MSTORE PUSH1 0x40 DUP7 ADD MSTORE PUSH1 0x60 DUP6 ADD MSTORE PUSH2 0x7C7 PUSH1 0x80 DUP6 ADD PUSH1 0xFF DUP4 AND PUSH2 0x21F6 JUMP JUMPDEST PUSH1 0x8 SHR PUSH1 0x1 PUSH1 0x1 PUSH1 0xA0 SHL SUB AND PUSH1 0xA0 DUP5 ADD MSTORE PUSH1 0xE0 PUSH1 0xC0 DUP5 ADD DUP2 SWAP1 MSTORE DUP4 ADD SWAP1 PUSH2 0x21B5 JUMP JUMPDEST CALLVALUE PUSH2 0x36D JUMPI PUSH1 0x20 CALLDATASIZE PUSH1 0x3 NOT ADD SLT PUSH2 0x36D JUMPI PUSH1 0x4 CALLDATALOAD CALLER PUSH1 0x0 MSTORE PUSH1 0x3 PUSH1 0x20 MSTORE PUSH2 0x817 PUSH1 0xFF PUSH1 0x40 PUSH1 0x0 KECCAK256 SLOAD AND PUSH2 0x2382 JUMP JUMPDEST PUSH2 0x824 PUSH1 0x9 SLOAD DUP3 LT PUSH2 0x244D JUMP JUMPDEST PUSH2 0x833 PUSH1 0xFF PUSH1 0x13 SLOAD AND ISZERO PUSH2 0x2499 JUMP JUMPDEST PUSH2 0x83B PUSH2 0x2E7D JUMP JUMPDEST DUP1 PUSH1 0x0 MSTORE PUSH1 0xA PUSH1 0x20 MSTORE PUSH1 0x40 PUSH1 0x0 KECCAK256 PUSH1 0xFF PUSH1 0x7 DUP3 ADD SLOAD AND PUSH1 0x5 DUP2 LT ISZERO PUSH2 0x357 JUMPI PUSH2 0x9AC JUMPI DUP1 PUSH1 0x8 PUSH1 0x4 SWAP3 ADD PUSH1 0x1 DUP1 PUSH1 0xA0 SHL SUB CALLER AND PUSH1 0x0 MSTORE DUP1 PUSH1 0x20 MSTORE PUSH2 0x887 PUSH1 0xFF PUSH1 0x40 PUSH1 0x0 KECCAK256 SLOAD AND ISZERO PUSH2 0x2631 JUMP JUMPDEST CALLER PUSH1 0x0 SWAP1 DUP2 MSTORE PUSH1 0x20 SWAP2 SWAP1 SWAP2 MSTORE PUSH1 0x40 SWAP1 KECCAK256 DUP1 SLOAD PUSH1 0xFF NOT AND PUSH1 0x1 OR SWAP1 SSTORE ADD DUP1 SLOAD PUSH2 0x8AE SWAP1 PUSH2 0x2520 JUMP JUMPDEST DUP1 SWAP2 SSTORE PUSH1 0x40 MLOAD DUP2 DUP2 MSTORE DUP3 PUSH32 0x9C1A063CE0C61E289E64B8D5F01ACCC47D7A8B7760EE0FE1E22B3047329E4742 PUSH1 0x20 CALLER SWAP4 LOG3 PUSH1 0x5 SLOAD GT ISZERO PUSH2 0x8E9 JUMPI STOP JUMPDEST DUP1 PUSH1 0x0 MSTORE PUSH1 0xA PUSH1 0x20 MSTORE PUSH1 0x40 PUSH1 0x0 KECCAK256 PUSH1 0x2 DUP2 ADD SLOAD PUSH1 0x8 SLOAD DUP2 GT ISZERO SWAP1 DUP2 PUSH2 0x99C JUMPI JUMPDEST POP DUP1 PUSH2 0x988 JUMPI JUMPDEST ISZERO PUSH2 0x921 JUMPI POP PUSH2 0x91F SWAP1 PUSH2 0x2E9A JUMP JUMPDEST STOP JUMPDEST PUSH1 0x20 DUP2 PUSH1 0x7 PUSH32 0xFE650B96407E08305D97DAAECCDF13B06B403609FBA5B82C1D3C39951A6DCBAE SWAP4 ADD PUSH1 0x1 PUSH1 0xFF NOT DUP3 SLOAD AND OR SWAP1 SSTORE TIMESTAMP PUSH1 0x5 DUP3 ADD SSTORE PUSH1 0x6 PUSH2 0x967 DUP2 SLOAD TIMESTAMP PUSH2 0x2671 JUMP JUMPDEST SWAP2 ADD SWAP1 DUP2 SSTORE PUSH2 0x975 DUP5 PUSH2 0x2E07 JUMP JUMPDEST PUSH2 0x97E DUP5 PUSH2 0x2581 JUMP JUMPDEST SLOAD PUSH1 0x40 MLOAD SWAP1 DUP2 MSTORE LOG2 STOP JUMPDEST POP PUSH2 0x996 PUSH1 0x3 DUP3 ADD SLOAD PUSH2 0x20C9 JUMP JUMPDEST ISZERO PUSH2 0x910 JUMP JUMPDEST PUSH2 0x9A6 SWAP2 POP PUSH2 0x30FF JUMP JUMPDEST DUP4 PUSH2 0x909 JUMP JUMPDEST PUSH1 0x40 MLOAD PUSH3 0x461BCD PUSH1 0xE5 SHL DUP2 MSTORE PUSH1 0x20 PUSH1 0x4 DUP3 ADD MSTORE PUSH1 0x17 PUSH1 0x24 DUP3 ADD MSTORE PUSH32 0x5472616E73616374696F6E206E6F742070656E64696E67000000000000000000 PUSH1 0x44 DUP3 ADD MSTORE PUSH1 0x64 SWAP1 REVERT JUMPDEST CALLVALUE PUSH2 0x36D JUMPI PUSH1 0x0 CALLDATASIZE PUSH1 0x3 NOT ADD SLT PUSH2 0x36D JUMPI PUSH1 0x20 PUSH1 0x40 MLOAD PUSH1 0x1 DUP2 MSTORE RETURN JUMPDEST CALLVALUE PUSH2 0x36D JUMPI PUSH1 0x0 CALLDATASIZE PUSH1 0x3 NOT ADD SLT PUSH2 0x36D JUMPI PUSH1 0x20 PUSH1 0x9 SLOAD PUSH1 0x40 MLOAD SWAP1 DUP2 MSTORE RETURN JUMPDEST CALLVALUE PUSH2 0x36D JUMPI PUSH1 0x20 CALLDATASIZE PUSH1 0x3 NOT ADD SLT PUSH2 0x36D JUMPI PUSH2 0xA44 PUSH2 0x229D JUMP JUMPDEST CALLER PUSH1 0x0 MSTORE PUSH1 0x3 PUSH1 0x20 MSTORE PUSH2 0xA5E PUSH1 0xFF PUSH1 0x40 PUSH1 0x0 KECCAK256 SLOAD AND PUSH2 0x2382 JUMP JUMPDEST PUSH1 0x1 PUSH1 0x1 PUSH1 0xA0 SHL SUB AND DUP1 ISZERO PUSH2 0xAD8 JUMPI DUP1 PUSH1 0x0 MSTORE PUSH1 0x4 PUSH1 0x20 MSTORE PUSH1 0xFF PUSH1 0x40 PUSH1 0x0 KECCAK256 SLOAD AND PUSH2 0xA9E JUMPI PUSH1 0x0 SWAP1 DUP2 MSTORE PUSH1 0x4 PUSH1 0x20 MSTORE PUSH1 0x40 SWAP1 KECCAK256 DUP1 SLOAD PUSH1 0xFF NOT AND PUSH1 0x1 OR SWAP1 SSTORE STOP JUMPDEST PUSH1 0x40 MLOAD PUSH3 0x461BCD PUSH1 0xE5 SHL DUP2 MSTORE PUSH1 0x20 PUSH1 0x4 DUP3 ADD MSTORE PUSH1 0x12 PUSH1 0x24 DUP3 ADD MSTORE PUSH18 0x20B63932B0B23C90309033BAB0B93234B0B7 PUSH1 0x71 SHL PUSH1 0x44 DUP3 ADD MSTORE PUSH1 0x64 SWAP1 REVERT JUMPDEST PUSH1 0x40 MLOAD PUSH3 0x461BCD PUSH1 0xE5 SHL DUP2 MSTORE PUSH1 0x20 PUSH1 0x4 DUP3 ADD MSTORE PUSH1 0x18 PUSH1 0x24 DUP3 ADD MSTORE PUSH32 0x496E76616C696420677561726469616E20616464726573730000000000000000 PUSH1 0x44 DUP3 ADD MSTORE PUSH1 0x64 SWAP1 REVERT JUMPDEST CALLVALUE PUSH2 0x36D JUMPI PUSH1 0x0 CALLDATASIZE PUSH1 0x3 NOT ADD SLT PUSH2 0x36D JUMPI PUSH1 0x40 MLOAD DUP1 PUSH1 0x20 PUSH1 0x2 SLOAD SWAP3 DUP4 DUP2 MSTORE ADD DUP1 SWAP3 PUSH1 0x2 PUSH1 0x0 MSTORE PUSH32 0x405787FA12A823E0F2B7631CC41B3BA8828B3321CA811111FA75CD3AA3BB5ACE SWAP1 PUSH1 0x0 JUMPDEST DUP2 DUP2 LT PUSH2 0xBCA JUMPI POP POP POP DUP2 PUSH2 0xB7E SWAP2 SUB DUP3 PUSH2 0x2186 JUMP JUMPDEST PUSH1 0x40 MLOAD SWAP2 DUP3 SWAP2 PUSH1 0x20 DUP4 ADD SWAP1 PUSH1 0x20 DUP5 MSTORE MLOAD DUP1 SWAP2 MSTORE PUSH1 0x40 DUP4 ADD SWAP2 SWAP1 PUSH1 0x0 JUMPDEST DUP2 DUP2 LT PUSH2 0xBA8 JUMPI POP POP POP SUB SWAP1 RETURN JUMPDEST DUP3 MLOAD PUSH1 0x1 PUSH1 0x1 PUSH1 0xA0 SHL SUB AND DUP5 MSTORE DUP6 SWAP5 POP PUSH1 0x20 SWAP4 DUP5 ADD SWAP4 SWAP1 SWAP3 ADD SWAP2 PUSH1 0x1 ADD PUSH2 0xB9A JUMP JUMPDEST DUP3 SLOAD PUSH1 0x1 PUSH1 0x1 PUSH1 0xA0 SHL SUB AND DUP5 MSTORE PUSH1 0x20 SWAP1 SWAP4 ADD SWAP3 PUSH1 0x1 SWAP3 DUP4 ADD SWAP3 ADD PUSH2 0xB68 JUMP JUMPDEST CALLVALUE PUSH2 0x36D JUMPI PUSH1 0x20 CALLDATASIZE PUSH1 0x3 NOT ADD SLT PUSH2 0x36D JUMPI PUSH1 0x4 CALLDATALOAD PUSH1 0x0 MSTORE PUSH1 0xA PUSH1 0x20 MSTORE PUSH1 0x40 PUSH1 0x0 KECCAK256 DUP1 SLOAD PUSH2 0x60C PUSH1 0x1 DUP1 PUSH1 0xA0 SHL SUB PUSH1 0x1 DUP5 ADD SLOAD AND SWAP3 PUSH1 0x9 PUSH1 0x2 DUP3 ADD SLOAD SWAP2 PUSH1 0x40 MLOAD SWAP3 PUSH2 0xC41 DUP5 PUSH2 0xC3A DUP2 PUSH1 0x3 DUP7 ADD PUSH2 0x2103 JUMP JUMPDEST SUB DUP6 PUSH2 0x2186 JUMP JUMPDEST PUSH1 0x4 DUP3 ADD SLOAD SWAP4 PUSH2 0xC9B PUSH1 0x5 DUP5 ADD SLOAD SWAP2 PUSH1 0x6 DUP6 ADD SLOAD SWAP4 PUSH2 0xC76 PUSH1 0x7 DUP8 ADD SLOAD SWAP7 PUSH2 0xC6F PUSH1 0x40 MLOAD DUP1 SWAP11 DUP2 SWAP4 ADD PUSH2 0x2103 JUMP JUMPDEST SUB DUP9 PUSH2 0x2186 JUMP JUMPDEST PUSH1 0x40 MLOAD SWAP11 DUP12 SWAP11 DUP12 MSTORE PUSH1 0x20 DUP12 ADD MSTORE PUSH1 0x40 DUP11 ADD MSTORE PUSH2 0x140 PUSH1 0x60 DUP11 ADD MSTORE PUSH2 0x140 DUP10 ADD SWAP1 PUSH2 0x21B5 JUMP JUMPDEST SWAP5 PUSH1 0x80 DUP9 ADD MSTORE PUSH1 0xA0 DUP8 ADD MSTORE PUSH1 0xC0 DUP7 ADD MSTORE PUSH2 0xCBB PUSH1 0xE0 DUP7 ADD PUSH1 0xFF DUP4 AND PUSH2 0x21F6 JUMP JUMPDEST PUSH1 0x8 SHR PUSH1 0x1 PUSH1 0x1 PUSH1 0xA0 SHL SUB AND PUSH2 0x100 DUP6 ADD MSTORE DUP4 DUP3 SUB PUSH2 0x120 DUP6 ADD MSTORE PUSH2 0x21B5 JUMP JUMPDEST CALLVALUE PUSH2 0x36D JUMPI PUSH1 0x0 CALLDATASIZE PUSH1 0x3 NOT ADD SLT PUSH2 0x36D JUMPI CALLER PUSH1 0x0 MSTORE PUSH1 0x3 PUSH1 0x20 MSTORE PUSH2 0xD06 PUSH1 0xFF PUSH1 0x40 PUSH1 0x0 KECCAK256 SLOAD AND PUSH2 0x2382 JUMP JUMPDEST PUSH1 0x13 SLOAD PUSH2 0xD15 PUSH1 0xFF DUP3 AND PUSH2 0x25E5 JUMP JUMPDEST PUSH1 0xFF NOT AND PUSH1 0x13 SSTORE PUSH1 0x0 PUSH1 0x14 SSTORE PUSH1 0x1 SLOAD PUSH1 0xFF DUP2 AND ISZERO PUSH2 0xD86 JUMPI PUSH1 0xFF NOT AND PUSH1 0x1 SSTORE PUSH32 0x5DB9EE0A495BF2E6FF9C91A7834C1BA4FDD244A5E8AA4E537BD38AEAE4B073AA PUSH1 0x20 PUSH1 0x40 MLOAD CALLER DUP2 MSTORE LOG1 CALLER PUSH32 0xBD95437B04432C9BBCF6D10C00E0E1CDC482151FFE5DA10870858D456EE9FC23 PUSH1 0x0 DUP1 LOG2 STOP JUMPDEST PUSH4 0x8DFC202B PUSH1 0xE0 SHL PUSH1 0x0 MSTORE PUSH1 0x4 PUSH1 0x0 REVERT JUMPDEST CALLVALUE PUSH2 0x36D JUMPI PUSH1 0x0 CALLDATASIZE PUSH1 0x3 NOT ADD SLT PUSH2 0x36D JUMPI PUSH1 0x13 SLOAD PUSH1 0x40 MLOAD PUSH1 0x8 SWAP2 SWAP1 SWAP2 SHR PUSH1 0x1 PUSH1 0x1 PUSH1 0xA0 SHL SUB AND DUP2 MSTORE PUSH1 0x20 SWAP1 RETURN JUMPDEST CALLVALUE PUSH2 0x36D JUMPI PUSH1 0x0 CALLDATASIZE PUSH1 0x3 NOT ADD SLT PUSH2 0x36D JUMPI PUSH1 0x20 PUSH1 0x6 SLOAD PUSH1 0x40 MLOAD SWAP1 DUP2 MSTORE RETURN JUMPDEST CALLVALUE PUSH2 0x36D JUMPI PUSH1 0x40 CALLDATASIZE PUSH1 0x3 NOT ADD SLT PUSH2 0x36D JUMPI PUSH2 0xDFB PUSH2 0x22B3 JUMP JUMPDEST PUSH1 0x4 CALLDATALOAD PUSH1 0x0 MSTORE PUSH1 0xA PUSH1 0x20 MSTORE PUSH1 0x8 PUSH1 0x40 PUSH1 0x0 KECCAK256 ADD SWAP1 PUSH1 0x1 DUP1 PUSH1 0xA0 SHL SUB AND PUSH1 0x0 MSTORE PUSH1 0x20 MSTORE PUSH1 0x20 PUSH1 0xFF PUSH1 0x40 PUSH1 0x0 KECCAK256 SLOAD AND PUSH1 0x40 MLOAD SWAP1 ISZERO ISZERO DUP2 MSTORE RETURN JUMPDEST CALLVALUE PUSH2 0x36D JUMPI PUSH1 0xA0 CALLDATASIZE PUSH1 0x3 NOT ADD SLT PUSH2 0x36D JUMPI PUSH1 0x4 CALLDATALOAD PUSH1 0x6 DUP2 LT ISZERO PUSH2 0x36D JUMPI PUSH2 0xE57 PUSH2 0x22B3 JUMP JUMPDEST SWAP1 PUSH1 0x64 CALLDATALOAD PUSH8 0xFFFFFFFFFFFFFFFF DUP2 GT PUSH2 0x36D JUMPI PUSH2 0xE78 SWAP1 CALLDATASIZE SWAP1 PUSH1 0x4 ADD PUSH2 0x22E5 JUMP JUMPDEST SWAP1 PUSH1 0x84 CALLDATALOAD PUSH8 0xFFFFFFFFFFFFFFFF DUP2 GT PUSH2 0x36D JUMPI PUSH2 0xE99 SWAP1 CALLDATASIZE SWAP1 PUSH1 0x4 ADD PUSH2 0x22E5 JUMP JUMPDEST SWAP1 CALLER PUSH1 0x0 MSTORE PUSH1 0x3 PUSH1 0x20 MSTORE PUSH2 0xEB4 PUSH1 0xFF PUSH1 0x40 PUSH1 0x0 KECCAK256 SLOAD AND PUSH2 0x2382 JUMP JUMPDEST PUSH2 0xEC0 DUP3 MLOAD ISZERO ISZERO PUSH2 0x24DD JUMP JUMPDEST PUSH1 0xD SLOAD SWAP3 PUSH2 0xECD DUP5 PUSH2 0x2520 JUMP JUMPDEST PUSH1 0xD SSTORE PUSH1 0x0 DUP5 DUP2 MSTORE PUSH1 0xE PUSH1 0x20 MSTORE PUSH1 0x40 DUP2 KECCAK256 DUP6 DUP2 SSTORE PUSH1 0x1 DUP2 ADD DUP1 SLOAD PUSH1 0x1 PUSH1 0x1 PUSH1 0xA8 SHL SUB NOT AND PUSH1 0xFF DUP7 AND OR PUSH1 0x8 SWAP9 SWAP1 SWAP9 SHL PUSH2 0x100 PUSH1 0x1 PUSH1 0xA8 SHL SUB AND SWAP8 SWAP1 SWAP8 OR SWAP1 SWAP7 SSTORE SWAP5 SWAP1 PUSH1 0x44 CALLDATALOAD PUSH1 0x2 DUP4 ADD SSTORE DUP1 MLOAD PUSH1 0x3 DUP4 ADD SWAP2 PUSH8 0xFFFFFFFFFFFFFFFF DUP3 GT PUSH2 0x1268 JUMPI PUSH2 0xF41 DUP3 PUSH2 0xF3B DUP6 SLOAD PUSH2 0x20C9 JUMP JUMPDEST DUP6 PUSH2 0x252F JUMP JUMPDEST PUSH1 0x20 SWAP1 PUSH1 0x1F DUP4 GT PUSH1 0x1 EQ PUSH2 0x1201 JUMPI SWAP2 DUP1 PUSH2 0xF76 SWAP3 PUSH1 0x9 SWAP7 SWAP6 SWAP5 DUP12 SWAP3 PUSH2 0x11F6 JUMPI JUMPDEST POP POP DUP2 PUSH1 0x1 SHL SWAP2 PUSH1 0x0 NOT SWAP1 PUSH1 0x3 SHL SHR NOT AND OR SWAP1 JUMP JUMPDEST SWAP1 SSTORE JUMPDEST PUSH1 0x4 DUP2 ADD DUP7 SWAP1 SSTORE PUSH1 0x7 DUP2 ADD DUP1 SLOAD PUSH1 0x1 PUSH1 0x1 PUSH1 0xA8 SHL SUB NOT AND CALLER PUSH1 0x8 SHL PUSH2 0x100 PUSH1 0x1 PUSH1 0xA8 SHL SUB AND OR SWAP1 SSTORE ADD DUP3 MLOAD PUSH8 0xFFFFFFFFFFFFFFFF DUP2 GT PUSH2 0x11E2 JUMPI PUSH2 0xFC7 DUP2 PUSH2 0xFC1 DUP5 SLOAD PUSH2 0x20C9 JUMP JUMPDEST DUP5 PUSH2 0x252F JUMP JUMPDEST PUSH1 0x20 PUSH1 0x1F DUP3 GT PUSH1 0x1 EQ PUSH2 0x1182 JUMPI SWAP1 DUP1 PUSH2 0xFF5 SWAP3 DUP9 SWAP2 PUSH2 0x1177 JUMPI JUMPDEST POP DUP2 PUSH1 0x1 SHL SWAP2 PUSH1 0x0 NOT SWAP1 PUSH1 0x3 SHL SHR NOT AND OR SWAP1 JUMP JUMPDEST SWAP1 SSTORE JUMPDEST PUSH1 0xF SLOAD PUSH1 0x1 PUSH1 0x40 SHL DUP2 LT ISZERO PUSH2 0x1163 JUMPI DUP4 SWAP2 PUSH2 0x1059 DUP4 PUSH2 0x1040 DUP5 PUSH1 0x1 PUSH32 0x826634DD138E1B3E8ACA3C148431A77BFCA9C0AF429FA1654B58C4D4DB87BEAE SWAP7 ADD PUSH1 0xF SSTORE PUSH1 0xF PUSH2 0x2285 JUMP JUMPDEST SWAP1 SWAP2 SWAP1 DUP3 SLOAD SWAP1 PUSH1 0x3 SHL SWAP2 DUP3 SHL SWAP2 PUSH1 0x0 NOT SWAP1 SHL NOT AND OR SWAP1 SSTORE JUMP JUMPDEST PUSH2 0x1066 PUSH1 0x40 MLOAD DUP1 SWAP3 PUSH2 0x21A8 JUMP JUMPDEST PUSH1 0x40 PUSH1 0x20 DUP3 ADD MSTORE DUP1 PUSH2 0x107D CALLER SWAP6 PUSH1 0x40 DUP4 ADD SWAP1 PUSH2 0x21B5 JUMP JUMPDEST SUB SWAP1 LOG3 CALLER DUP3 MSTORE PUSH1 0x3 PUSH1 0x20 MSTORE PUSH2 0x1098 PUSH1 0xFF PUSH1 0x40 DUP5 KECCAK256 SLOAD AND PUSH2 0x2382 JUMP JUMPDEST PUSH2 0x10A5 PUSH1 0xD SLOAD DUP3 LT PUSH2 0x23BD JUMP JUMPDEST DUP1 DUP3 MSTORE PUSH1 0xE PUSH1 0x20 MSTORE PUSH1 0x40 DUP3 KECCAK256 PUSH1 0x7 DUP2 ADD PUSH1 0xFF DUP2 SLOAD AND PUSH1 0x5 DUP2 LT ISZERO PUSH2 0x114F JUMPI PUSH2 0x31B JUMPI CALLER DUP5 MSTORE PUSH1 0x8 DUP3 ADD PUSH1 0x20 DUP2 DUP2 MSTORE PUSH1 0x40 DUP7 KECCAK256 SLOAD SWAP1 SWAP6 SWAP2 SWAP1 PUSH2 0x10E9 SWAP1 PUSH1 0xFF AND ISZERO PUSH2 0x2631 JUMP JUMPDEST CALLER DUP3 MSTORE DUP6 MSTORE PUSH1 0x40 DUP2 KECCAK256 DUP1 SLOAD PUSH1 0xFF NOT AND PUSH1 0x1 OR SWAP1 SSTORE PUSH1 0x4 DUP4 ADD DUP1 SLOAD PUSH2 0x110C SWAP1 PUSH2 0x2520 JUMP JUMPDEST DUP1 SWAP2 SSTORE PUSH1 0x5 SLOAD GT ISZERO PUSH2 0x1124 JUMPI JUMPDEST POP POP POP PUSH1 0x40 MLOAD SWAP1 DUP2 MSTORE RETURN JUMPDEST POP PUSH1 0x1 PUSH1 0xFF NOT DUP3 SLOAD AND OR SWAP1 SSTORE TIMESTAMP PUSH1 0x5 DUP3 ADD SSTORE PUSH1 0x6 PUSH2 0x1144 PUSH1 0x7 SLOAD TIMESTAMP PUSH2 0x2671 JUMP JUMPDEST SWAP2 ADD SSTORE DUP3 DUP1 DUP1 PUSH2 0x1119 JUMP JUMPDEST PUSH4 0x4E487B71 PUSH1 0xE0 SHL DUP6 MSTORE PUSH1 0x21 PUSH1 0x4 MSTORE PUSH1 0x24 DUP6 REVERT JUMPDEST PUSH4 0x4E487B71 PUSH1 0xE0 SHL DUP6 MSTORE PUSH1 0x41 PUSH1 0x4 MSTORE PUSH1 0x24 DUP6 REVERT JUMPDEST SWAP1 POP DUP6 ADD MLOAD DUP9 PUSH2 0xFE1 JUMP JUMPDEST DUP3 DUP8 MSTORE DUP1 DUP8 KECCAK256 SWAP1 PUSH1 0x1F NOT DUP4 AND DUP9 JUMPDEST DUP2 DUP2 LT PUSH2 0x11CA JUMPI POP SWAP1 DUP4 PUSH1 0x1 SWAP5 SWAP4 SWAP3 LT PUSH2 0x11B1 JUMPI JUMPDEST POP POP DUP2 SHL ADD SWAP1 SSTORE PUSH2 0xFF8 JUMP JUMPDEST DUP7 ADD MLOAD PUSH1 0x0 NOT PUSH1 0xF8 DUP5 PUSH1 0x3 SHL AND SHR NOT AND SWAP1 SSTORE DUP8 DUP1 PUSH2 0x11A5 JUMP JUMPDEST SWAP2 SWAP3 PUSH1 0x20 PUSH1 0x1 DUP2 SWAP3 DUP7 DUP12 ADD MLOAD DUP2 SSTORE ADD SWAP5 ADD SWAP3 ADD PUSH2 0x1190 JUMP JUMPDEST PUSH4 0x4E487B71 PUSH1 0xE0 SHL DUP7 MSTORE PUSH1 0x41 PUSH1 0x4 MSTORE PUSH1 0x24 DUP7 REVERT JUMPDEST ADD MLOAD SWAP1 POP DUP11 DUP1 PUSH2 0xF61 JUMP JUMPDEST DUP4 DUP10 MSTORE DUP2 DUP10 KECCAK256 SWAP2 SWAP1 PUSH1 0x1F NOT DUP5 AND DUP11 JUMPDEST DUP2 DUP2 LT PUSH2 0x1250 JUMPI POP SWAP2 PUSH1 0x1 SWAP4 SWAP2 DUP6 PUSH1 0x9 SWAP9 SWAP8 SWAP7 SWAP5 LT PUSH2 0x1237 JUMPI JUMPDEST POP POP POP DUP2 SHL ADD SWAP1 SSTORE PUSH2 0xF79 JUMP JUMPDEST ADD MLOAD PUSH1 0x0 NOT PUSH1 0xF8 DUP5 PUSH1 0x3 SHL AND SHR NOT AND SWAP1 SSTORE DUP10 DUP1 DUP1 PUSH2 0x122A JUMP JUMPDEST SWAP3 SWAP4 PUSH1 0x20 PUSH1 0x1 DUP2 SWAP3 DUP8 DUP7 ADD MLOAD DUP2 SSTORE ADD SWAP6 ADD SWAP4 ADD PUSH2 0x1210 JUMP JUMPDEST PUSH4 0x4E487B71 PUSH1 0xE0 SHL DUP9 MSTORE PUSH1 0x41 PUSH1 0x4 MSTORE PUSH1 0x24 DUP9 REVERT JUMPDEST CALLVALUE PUSH2 0x36D JUMPI PUSH1 0x20 CALLDATASIZE PUSH1 0x3 NOT ADD SLT PUSH2 0x36D JUMPI PUSH2 0x1295 PUSH2 0x229D JUMP JUMPDEST CALLER PUSH1 0x0 MSTORE PUSH1 0x3 PUSH1 0x20 MSTORE PUSH2 0x12AF PUSH1 0xFF PUSH1 0x40 PUSH1 0x0 KECCAK256 SLOAD AND PUSH2 0x2382 JUMP JUMPDEST PUSH1 0x1 PUSH1 0x1 PUSH1 0xA0 SHL SUB AND PUSH1 0x0 DUP2 DUP2 MSTORE PUSH1 0x4 PUSH1 0x20 MSTORE PUSH1 0x40 SWAP1 KECCAK256 SLOAD PUSH2 0x12D3 SWAP1 PUSH1 0xFF AND PUSH2 0x25A8 JUMP JUMPDEST PUSH1 0x0 SWAP1 DUP2 MSTORE PUSH1 0x4 PUSH1 0x20 MSTORE PUSH1 0x40 SWAP1 KECCAK256 DUP1 SLOAD PUSH1 0xFF NOT AND SWAP1 SSTORE STOP JUMPDEST CALLVALUE PUSH2 0x36D JUMPI PUSH1 0x0 CALLDATASIZE PUSH1 0x3 NOT ADD SLT PUSH2 0x36D JUMPI PUSH1 0x60 PUSH1 0x10 SLOAD PUSH1 0x11 SLOAD PUSH1 0x12 SLOAD SWAP1 PUSH1 0x40 MLOAD SWAP3 DUP4 MSTORE PUSH1 0x20 DUP4 ADD MSTORE PUSH1 0x40 DUP3 ADD MSTORE RETURN JUMPDEST CALLVALUE PUSH2 0x36D JUMPI PUSH1 0x0 CALLDATASIZE PUSH1 0x3 NOT ADD SLT PUSH2 0x36D JUMPI PUSH1 0x40 MLOAD DUP1 PUSH1 0x20 PUSH1 0xC SLOAD SWAP2 DUP3 DUP2 MSTORE ADD SWAP1 PUSH1 0xC PUSH1 0x0 MSTORE PUSH32 0xDF6966C971051C3D54EC59162606531493A51404A002842F56009D7E5CF4A8C7 SWAP1 PUSH1 0x0 JUMPDEST DUP2 DUP2 LT PUSH2 0x137B JUMPI PUSH2 0x60C DUP6 PUSH2 0x600 DUP2 DUP8 SUB DUP3 PUSH2 0x2186 JUMP JUMPDEST DUP3 SLOAD DUP5 MSTORE PUSH1 0x20 SWAP1 SWAP4 ADD SWAP3 PUSH1 0x1 SWAP3 DUP4 ADD SWAP3 ADD PUSH2 0x1364 JUMP JUMPDEST CALLVALUE PUSH2 0x36D JUMPI PUSH1 0x20 CALLDATASIZE PUSH1 0x3 NOT ADD SLT PUSH2 0x36D JUMPI PUSH1 0x4 CALLDATALOAD PUSH1 0xB SLOAD DUP2 LT ISZERO PUSH2 0x36D JUMPI PUSH2 0x52C PUSH1 0x20 SWAP2 PUSH2 0x224F JUMP JUMPDEST CALLVALUE PUSH2 0x36D JUMPI PUSH1 0x0 CALLDATASIZE PUSH1 0x3 NOT ADD SLT PUSH2 0x36D JUMPI PUSH1 0x20 PUSH1 0xFF PUSH1 0x1 SLOAD AND PUSH1 0x40 MLOAD SWAP1 ISZERO ISZERO DUP2 MSTORE RETURN JUMPDEST CALLVALUE PUSH2 0x36D JUMPI PUSH1 0x0 CALLDATASIZE PUSH1 0x3 NOT ADD SLT PUSH2 0x36D JUMPI PUSH1 0x11 SLOAD PUSH1 0x10 SLOAD PUSH1 0x0 SWAP2 SWAP1 DUP1 DUP3 LT PUSH2 0x144D JUMPI POP PUSH2 0x100 SWAP2 POP PUSH1 0x0 SWAP1 JUMPDEST PUSH1 0x2 SLOAD SWAP2 PUSH1 0x5 SLOAD SWAP2 SELFBALANCE PUSH1 0xB SLOAD PUSH1 0xC SLOAD SWAP2 PUSH1 0xFF PUSH1 0x13 SLOAD AND SWAP6 PUSH1 0x40 MLOAD SWAP8 DUP9 MSTORE PUSH1 0x20 DUP9 ADD MSTORE PUSH1 0x40 DUP8 ADD MSTORE PUSH1 0x60 DUP7 ADD MSTORE PUSH1 0x80 DUP6 ADD MSTORE PUSH1 0xA0 DUP5 ADD MSTORE PUSH1 0xC0 DUP4 ADD MSTORE ISZERO ISZERO PUSH1 0xE0 DUP3 ADD MSTORE RETURN JUMPDEST DUP2 DUP2 SUB SWAP1 DUP2 GT PUSH2 0x1462 JUMPI PUSH2 0x100 SWAP3 POP SWAP1 PUSH2 0x1409 JUMP JUMPDEST PUSH4 0x4E487B71 PUSH1 0xE0 SHL DUP4 MSTORE PUSH1 0x11 PUSH1 0x4 MSTORE PUSH1 0x24 DUP4 REVERT JUMPDEST CALLVALUE PUSH2 0x36D JUMPI PUSH1 0x0 CALLDATASIZE PUSH1 0x3 NOT ADD SLT PUSH2 0x36D JUMPI PUSH1 0x40 MLOAD DUP1 PUSH1 0x20 PUSH1 0xF SLOAD SWAP2 DUP3 DUP2 MSTORE ADD SWAP1 PUSH1 0xF PUSH1 0x0 MSTORE PUSH32 0x8D1108E10BCB7C27DDDFC02ED9D693A074039D026CF4EA4240B40F7D581AC802 SWAP1 PUSH1 0x0 JUMPDEST DUP2 DUP2 LT PUSH2 0x14D7 JUMPI PUSH2 0x60C DUP6 PUSH2 0x600 DUP2 DUP8 SUB DUP3 PUSH2 0x2186 JUMP JUMPDEST DUP3 SLOAD DUP5 MSTORE PUSH1 0x20 SWAP1 SWAP4 ADD SWAP3 PUSH1 0x1 SWAP3 DUP4 ADD SWAP3 ADD PUSH2 0x14C0 JUMP JUMPDEST CALLVALUE PUSH2 0x36D JUMPI PUSH1 0x80 CALLDATASIZE PUSH1 0x3 NOT ADD SLT PUSH2 0x36D JUMPI PUSH2 0x1506 PUSH2 0x229D JUMP JUMPDEST PUSH1 0x24 CALLDATALOAD PUSH1 0x44 CALLDATALOAD PUSH8 0xFFFFFFFFFFFFFFFF DUP2 GT PUSH2 0x36D JUMPI PUSH2 0x1529 SWAP1 CALLDATASIZE SWAP1 PUSH1 0x4 ADD PUSH2 0x22E5 JUMP JUMPDEST SWAP2 PUSH1 0x64 CALLDATALOAD PUSH8 0xFFFFFFFFFFFFFFFF DUP2 GT PUSH2 0x36D JUMPI PUSH2 0x154A SWAP1 CALLDATASIZE SWAP1 PUSH1 0x4 ADD PUSH2 0x22E5 JUMP JUMPDEST SWAP1 CALLER PUSH1 0x0 MSTORE PUSH1 0x3 PUSH1 0x20 MSTORE PUSH2 0x1565 PUSH1 0xFF PUSH1 0x40 PUSH1 0x0 KECCAK256 SLOAD AND PUSH2 0x2382 JUMP JUMPDEST PUSH2 0x1574 PUSH1 0xFF PUSH1 0x13 SLOAD AND ISZERO PUSH2 0x2499 JUMP JUMPDEST PUSH2 0x157C PUSH2 0x2E7D JUMP JUMPDEST PUSH1 0x1 PUSH1 0x1 PUSH1 0xA0 SHL SUB AND SWAP2 DUP3 ISZERO PUSH2 0x19B7 JUMPI PUSH2 0x1598 DUP3 MLOAD ISZERO ISZERO PUSH2 0x24DD JUMP JUMPDEST PUSH1 0x9 SLOAD SWAP4 PUSH2 0x15A5 DUP6 PUSH2 0x2520 JUMP JUMPDEST PUSH1 0x9 SSTORE DUP5 PUSH1 0x0 MSTORE PUSH1 0xA PUSH1 0x20 MSTORE PUSH1 0x40 PUSH1 0x0 KECCAK256 SWAP1 DUP6 DUP3 SSTORE PUSH1 0x1 DUP3 ADD DUP6 PUSH12 0xFFFFFFFFFFFFFFFFFFFFFFFF PUSH1 0xA0 SHL DUP3 SLOAD AND OR SWAP1 SSTORE DUP3 PUSH1 0x2 DUP4 ADD SSTORE PUSH1 0x3 DUP3 ADD SWAP1 DUP1 MLOAD SWAP1 PUSH8 0xFFFFFFFFFFFFFFFF DUP3 GT PUSH2 0x18D2 JUMPI PUSH2 0x1600 DUP3 PUSH2 0xF3B DUP6 SLOAD PUSH2 0x20C9 JUMP JUMPDEST PUSH1 0x20 SWAP1 PUSH1 0x1F DUP4 GT PUSH1 0x1 EQ PUSH2 0x194C JUMPI SWAP2 DUP1 PUSH2 0x1635 SWAP3 PUSH1 0x9 SWAP7 SWAP6 SWAP5 PUSH1 0x0 SWAP3 PUSH2 0x11F6 JUMPI POP POP DUP2 PUSH1 0x1 SHL SWAP2 PUSH1 0x0 NOT SWAP1 PUSH1 0x3 SHL SHR NOT AND OR SWAP1 JUMP JUMPDEST SWAP1 SSTORE JUMPDEST PUSH1 0x0 PUSH1 0x4 DUP3 ADD SSTORE PUSH1 0x7 DUP2 ADD DUP1 SLOAD PUSH1 0x1 PUSH1 0x1 PUSH1 0xA8 SHL SUB NOT AND CALLER PUSH1 0x8 SHL PUSH2 0x100 PUSH1 0x1 PUSH1 0xA8 SHL SUB AND OR SWAP1 SSTORE ADD DUP3 MLOAD PUSH8 0xFFFFFFFFFFFFFFFF DUP2 GT PUSH2 0x18D2 JUMPI PUSH2 0x1680 DUP2 PUSH2 0xFC1 DUP5 SLOAD PUSH2 0x20C9 JUMP JUMPDEST PUSH1 0x20 PUSH1 0x1F DUP3 GT PUSH1 0x1 EQ PUSH2 0x18E8 JUMPI SWAP1 DUP1 PUSH2 0x16AE SWAP3 PUSH1 0x0 SWAP2 PUSH2 0x1177 JUMPI POP DUP2 PUSH1 0x1 SHL SWAP2 PUSH1 0x0 NOT SWAP1 PUSH1 0x3 SHL SHR NOT AND OR SWAP1 JUMP JUMPDEST SWAP1 SSTORE JUMPDEST PUSH1 0xB SLOAD PUSH1 0x1 PUSH1 0x40 SHL DUP2 LT ISZERO PUSH2 0x18D2 JUMPI DUP5 SWAP2 PUSH2 0x16F9 DUP4 PUSH2 0x1040 DUP5 PUSH1 0x1 PUSH32 0xC6195FCF58E6ACCE82991308BF8A73DD756E99BCA1B71404402B07600D2C337E SWAP7 ADD PUSH1 0xB SSTORE PUSH1 0xB PUSH2 0x2285 JUMP JUMPDEST PUSH1 0x40 MLOAD SWAP1 DUP2 MSTORE PUSH1 0x40 PUSH1 0x20 DUP3 ADD MSTORE DUP1 PUSH2 0x1716 CALLER SWAP6 PUSH1 0x40 DUP4 ADD SWAP1 PUSH2 0x21B5 JUMP JUMPDEST SUB SWAP1 LOG4 CALLER PUSH1 0x0 MSTORE PUSH1 0x3 PUSH1 0x20 MSTORE PUSH2 0x1733 PUSH1 0xFF PUSH1 0x40 PUSH1 0x0 KECCAK256 SLOAD AND PUSH2 0x2382 JUMP JUMPDEST PUSH2 0x1740 PUSH1 0x9 SLOAD DUP3 LT PUSH2 0x244D JUMP JUMPDEST PUSH2 0x174F PUSH1 0xFF PUSH1 0x13 SLOAD AND ISZERO PUSH2 0x2499 JUMP JUMPDEST PUSH2 0x1757 PUSH2 0x2E7D JUMP JUMPDEST DUP1 PUSH1 0x0 MSTORE PUSH1 0xA PUSH1 0x20 MSTORE PUSH1 0x40 PUSH1 0x0 KECCAK256 SWAP1 PUSH1 0xFF PUSH1 0x7 DUP4 ADD SLOAD AND PUSH1 0x5 DUP2 LT ISZERO PUSH2 0x357 JUMPI PUSH2 0x9AC JUMPI PUSH1 0x4 DUP3 PUSH1 0x8 PUSH1 0x20 SWAP5 ADD PUSH1 0x1 DUP1 PUSH1 0xA0 SHL SUB CALLER AND PUSH1 0x0 MSTORE DUP1 DUP6 MSTORE PUSH2 0x17A5 PUSH1 0xFF PUSH1 0x40 PUSH1 0x0 KECCAK256 SLOAD AND ISZERO PUSH2 0x2631 JUMP JUMPDEST CALLER PUSH1 0x0 SWAP1 DUP2 MSTORE SWAP1 DUP6 MSTORE PUSH1 0x40 SWAP1 KECCAK256 DUP1 SLOAD PUSH1 0xFF NOT AND PUSH1 0x1 OR SWAP1 SSTORE ADD DUP1 SLOAD PUSH2 0x17C9 SWAP1 PUSH2 0x2520 JUMP JUMPDEST DUP1 SWAP2 SSTORE PUSH1 0x40 MLOAD DUP2 DUP2 MSTORE DUP3 PUSH32 0x9C1A063CE0C61E289E64B8D5F01ACCC47D7A8B7760EE0FE1E22B3047329E4742 DUP6 CALLER SWAP4 LOG3 PUSH1 0x5 SLOAD GT ISZERO PUSH2 0x180A JUMPI JUMPDEST PUSH1 0x40 MLOAD SWAP1 DUP2 MSTORE RETURN JUMPDEST DUP1 PUSH1 0x0 MSTORE PUSH1 0xA DUP3 MSTORE DUP1 PUSH1 0x40 PUSH1 0x0 KECCAK256 PUSH1 0x2 DUP2 ADD SLOAD PUSH1 0x8 SLOAD DUP2 GT ISZERO SWAP1 DUP2 PUSH2 0x18C2 JUMPI JUMPDEST POP DUP1 PUSH2 0x18AE JUMPI JUMPDEST ISZERO PUSH2 0x1845 JUMPI POP PUSH2 0x1840 SWAP1 PUSH2 0x2E9A JUMP JUMPDEST PUSH2 0x1802 JUMP JUMPDEST DUP4 DUP2 PUSH1 0x7 PUSH32 0xFE650B96407E08305D97DAAECCDF13B06B403609FBA5B82C1D3C39951A6DCBAE SWAP4 ADD PUSH1 0x1 PUSH1 0xFF NOT DUP3 SLOAD AND OR SWAP1 SSTORE TIMESTAMP PUSH1 0x5 DUP3 ADD SSTORE PUSH1 0x6 PUSH2 0x188A DUP2 SLOAD TIMESTAMP PUSH2 0x2671 JUMP JUMPDEST SWAP2 ADD SWAP1 DUP2 SSTORE PUSH2 0x1898 DUP5 PUSH2 0x2E07 JUMP JUMPDEST PUSH2 0x18A1 DUP5 PUSH2 0x2581 JUMP JUMPDEST SLOAD PUSH1 0x40 MLOAD SWAP1 DUP2 MSTORE LOG2 PUSH2 0x1802 JUMP JUMPDEST POP PUSH2 0x18BC PUSH1 0x3 DUP3 ADD SLOAD PUSH2 0x20C9 JUMP JUMPDEST ISZERO PUSH2 0x1831 JUMP JUMPDEST PUSH2 0x18CC SWAP2 POP PUSH2 0x30FF JUMP JUMPDEST DUP6 PUSH2 0x182A JUMP JUMPDEST PUSH4 0x4E487B71 PUSH1 0xE0 SHL PUSH1 0x0 MSTORE PUSH1 0x41 PUSH1 0x4 MSTORE PUSH1 0x24 PUSH1 0x0 REVERT JUMPDEST PUSH1 0x1F NOT DUP3 AND SWAP1 DUP4 PUSH1 0x0 MSTORE DUP1 PUSH1 0x0 KECCAK256 SWAP2 PUSH1 0x0 JUMPDEST DUP2 DUP2 LT PUSH2 0x1934 JUMPI POP SWAP1 DUP4 PUSH1 0x1 SWAP5 SWAP4 SWAP3 LT PUSH2 0x191B JUMPI JUMPDEST POP POP DUP2 SHL ADD SWAP1 SSTORE PUSH2 0x16B1 JUMP JUMPDEST DUP7 ADD MLOAD PUSH1 0x0 NOT PUSH1 0xF8 DUP5 PUSH1 0x3 SHL AND SHR NOT AND SWAP1 SSTORE DUP8 DUP1 PUSH2 0x190F JUMP JUMPDEST SWAP2 SWAP3 PUSH1 0x20 PUSH1 0x1 DUP2 SWAP3 DUP7 DUP12 ADD MLOAD DUP2 SSTORE ADD SWAP5 ADD SWAP3 ADD PUSH2 0x18FA JUMP JUMPDEST SWAP1 PUSH1 0x1F NOT DUP4 AND SWAP2 DUP5 PUSH1 0x0 MSTORE DUP2 PUSH1 0x0 KECCAK256 SWAP3 PUSH1 0x0 JUMPDEST DUP2 DUP2 LT PUSH2 0x199F JUMPI POP SWAP2 PUSH1 0x1 SWAP4 SWAP2 DUP6 PUSH1 0x9 SWAP9 SWAP8 SWAP7 SWAP5 LT PUSH2 0x1986 JUMPI JUMPDEST POP POP POP DUP2 SHL ADD SWAP1 SSTORE PUSH2 0x1638 JUMP JUMPDEST ADD MLOAD PUSH1 0x0 NOT PUSH1 0xF8 DUP5 PUSH1 0x3 SHL AND SHR NOT AND SWAP1 SSTORE DUP10 DUP1 DUP1 PUSH2 0x1979 JUMP JUMPDEST SWAP3 SWAP4 PUSH1 0x20 PUSH1 0x1 DUP2 SWAP3 DUP8 DUP7 ADD MLOAD DUP2 SSTORE ADD SWAP6 ADD SWAP4 ADD PUSH2 0x195F JUMP JUMPDEST PUSH1 0x40 MLOAD PUSH3 0x461BCD PUSH1 0xE5 SHL DUP2 MSTORE PUSH1 0x20 PUSH1 0x4 DUP3 ADD MSTORE PUSH1 0x11 PUSH1 0x24 DUP3 ADD MSTORE PUSH17 0x125B9D985B1A59081C9958DA5C1A595B9D PUSH1 0x7A SHL PUSH1 0x44 DUP3 ADD MSTORE PUSH1 0x64 SWAP1 REVERT JUMPDEST CALLVALUE PUSH2 0x36D JUMPI PUSH1 0x0 CALLDATASIZE PUSH1 0x3 NOT ADD SLT PUSH2 0x36D JUMPI PUSH1 0x20 PUSH1 0x5 SLOAD PUSH1 0x40 MLOAD SWAP1 DUP2 MSTORE RETURN JUMPDEST CALLVALUE PUSH2 0x36D JUMPI PUSH1 0x0 CALLDATASIZE PUSH1 0x3 NOT ADD SLT PUSH2 0x36D JUMPI PUSH1 0x20 PUSH1 0x14 SLOAD PUSH1 0x40 MLOAD SWAP1 DUP2 MSTORE RETURN JUMPDEST CALLVALUE PUSH2 0x36D JUMPI PUSH1 0x20 CALLDATASIZE PUSH1 0x3 NOT ADD SLT PUSH2 0x36D JUMPI PUSH1 0x4 CALLDATALOAD PUSH1 0x0 MSTORE PUSH1 0xA PUSH1 0x20 MSTORE PUSH1 0x40 PUSH1 0x0 KECCAK256 PUSH1 0x1 DUP1 PUSH1 0xA0 SHL SUB PUSH1 0x1 DUP3 ADD SLOAD AND PUSH2 0x60C PUSH1 0x2 DUP4 ADD SLOAD SWAP3 PUSH1 0x9 PUSH1 0x4 DUP3 ADD SLOAD SWAP2 PUSH2 0x1ABA PUSH1 0x7 DUP3 ADD SLOAD SWAP2 PUSH2 0x1A9C PUSH1 0x40 MLOAD SWAP2 PUSH2 0x1A8C DUP4 PUSH2 0x782 DUP2 PUSH1 0x3 DUP6 ADD PUSH2 0x2103 JUMP JUMPDEST PUSH2 0xC3A PUSH1 0x40 MLOAD DUP1 SWAP8 DUP2 SWAP4 ADD PUSH2 0x2103 JUMP JUMPDEST PUSH1 0x40 MLOAD SWAP8 DUP9 SWAP8 DUP9 MSTORE PUSH1 0x20 DUP9 ADD MSTORE PUSH1 0xE0 PUSH1 0x40 DUP9 ADD MSTORE PUSH1 0xE0 DUP8 ADD SWAP1 PUSH2 0x21B5 JUMP JUMPDEST SWAP3 PUSH1 0x60 DUP7 ADD MSTORE PUSH2 0x1AD0 PUSH1 0x80 DUP7 ADD PUSH1 0xFF DUP4 AND PUSH2 0x21F6 JUMP JUMPDEST PUSH1 0x8 SHR PUSH1 0x1 PUSH1 0x1 PUSH1 0xA0 SHL SUB AND PUSH1 0xA0 DUP6 ADD MSTORE DUP4 DUP3 SUB PUSH1 0xC0 DUP6 ADD MSTORE PUSH2 0x21B5 JUMP JUMPDEST CALLVALUE PUSH2 0x36D JUMPI PUSH1 0x20 CALLDATASIZE PUSH1 0x3 NOT ADD SLT PUSH2 0x36D JUMPI PUSH1 0x4 CALLDATALOAD CALLER PUSH1 0x0 MSTORE PUSH1 0x3 PUSH1 0x20 MSTORE PUSH2 0x1B1C PUSH1 0xFF PUSH1 0x40 PUSH1 0x0 KECCAK256 SLOAD AND PUSH2 0x2382 JUMP JUMPDEST PUSH2 0x1B29 PUSH1 0x9 SLOAD DUP3 LT PUSH2 0x244D JUMP JUMPDEST DUP1 PUSH1 0x0 MSTORE PUSH1 0xA PUSH1 0x20 MSTORE PUSH1 0x40 PUSH1 0x0 KECCAK256 PUSH1 0x7 DUP2 ADD SWAP1 DUP2 SLOAD PUSH1 0xFF DUP2 AND PUSH1 0x5 DUP2 LT ISZERO PUSH2 0x357 JUMPI DUP1 ISZERO SWAP1 DUP2 ISZERO PUSH2 0x1C59 JUMPI JUMPDEST POP ISZERO PUSH2 0x1C14 JUMPI CALLER PUSH1 0x8 SWAP2 SWAP1 SWAP2 SHR PUSH1 0x1 PUSH1 0x1 PUSH1 0xA0 SHL SUB AND EQ SWAP1 DUP2 ISZERO PUSH2 0x1C04 JUMPI JUMPDEST POP ISZERO PUSH2 0x1BBF JUMPI DUP1 SLOAD PUSH1 0xFF NOT AND PUSH1 0x3 OR SWAP1 SSTORE PUSH2 0x1BB1 JUMP JUMPDEST PUSH32 0x956FB32199D8B882B2039A14E1BE35AB14F7A80B9089FC223F14B43937173E60 PUSH1 0x0 DUP1 LOG2 STOP JUMPDEST PUSH2 0x1BBA DUP2 PUSH2 0x2D8C JUMP JUMPDEST PUSH2 0x1B8A JUMP JUMPDEST PUSH1 0x40 MLOAD PUSH3 0x461BCD PUSH1 0xE5 SHL DUP2 MSTORE PUSH1 0x20 PUSH1 0x4 DUP3 ADD MSTORE PUSH1 0x18 PUSH1 0x24 DUP3 ADD MSTORE PUSH32 0x4E6F7420617574686F72697A656420746F2063616E63656C0000000000000000 PUSH1 0x44 DUP3 ADD MSTORE PUSH1 0x64 SWAP1 REVERT JUMPDEST PUSH1 0x4 SWAP2 POP ADD SLOAD PUSH1 0x5 SLOAD GT DUP4 PUSH2 0x1B74 JUMP JUMPDEST PUSH1 0x40 MLOAD PUSH3 0x461BCD PUSH1 0xE5 SHL DUP2 MSTORE PUSH1 0x20 PUSH1 0x4 DUP3 ADD MSTORE PUSH1 0x19 PUSH1 0x24 DUP3 ADD MSTORE PUSH32 0x43616E6E6F742063616E63656C207472616E73616374696F6E00000000000000 PUSH1 0x44 DUP3 ADD MSTORE PUSH1 0x64 SWAP1 REVERT JUMPDEST PUSH1 0x1 SWAP2 POP EQ DUP6 PUSH2 0x1B55 JUMP JUMPDEST CALLVALUE PUSH2 0x36D JUMPI PUSH1 0x20 CALLDATASIZE PUSH1 0x3 NOT ADD SLT PUSH2 0x36D JUMPI PUSH1 0x1 PUSH1 0x1 PUSH1 0xA0 SHL SUB PUSH2 0x1C85 PUSH2 0x229D JUMP JUMPDEST AND PUSH1 0x0 MSTORE PUSH1 0x3 PUSH1 0x20 MSTORE PUSH1 0x20 PUSH1 0xFF PUSH1 0x40 PUSH1 0x0 KECCAK256 SLOAD AND PUSH1 0x40 MLOAD SWAP1 ISZERO ISZERO DUP2 MSTORE RETURN JUMPDEST CALLVALUE PUSH2 0x36D JUMPI PUSH1 0x40 CALLDATASIZE PUSH1 0x3 NOT ADD SLT PUSH2 0x36D JUMPI PUSH2 0x1CBC PUSH2 0x22B3 JUMP JUMPDEST PUSH1 0x4 CALLDATALOAD PUSH1 0x0 MSTORE PUSH1 0xE PUSH1 0x20 MSTORE PUSH1 0x8 PUSH1 0x40 PUSH1 0x0 KECCAK256 ADD SWAP1 PUSH1 0x1 DUP1 PUSH1 0xA0 SHL SUB AND PUSH1 0x0 MSTORE PUSH1 0x20 MSTORE PUSH1 0x20 PUSH1 0xFF PUSH1 0x40 PUSH1 0x0 KECCAK256 SLOAD AND PUSH1 0x40 MLOAD SWAP1 ISZERO ISZERO DUP2 MSTORE RETURN JUMPDEST CALLVALUE PUSH2 0x36D JUMPI PUSH1 0x0 CALLDATASIZE PUSH1 0x3 NOT ADD SLT PUSH2 0x36D JUMPI PUSH1 0x20 PUSH1 0x8 SLOAD PUSH1 0x40 MLOAD SWAP1 DUP2 MSTORE RETURN JUMPDEST CALLVALUE PUSH2 0x36D JUMPI PUSH1 0x20 CALLDATASIZE PUSH1 0x3 NOT ADD SLT PUSH2 0x36D JUMPI PUSH1 0x4 CALLDATALOAD CALLER PUSH1 0x0 MSTORE PUSH1 0x3 PUSH1 0x20 MSTORE PUSH2 0x1D3F PUSH1 0xFF PUSH1 0x40 PUSH1 0x0 KECCAK256 SLOAD AND PUSH2 0x2382 JUMP JUMPDEST PUSH2 0x1D4C PUSH1 0xD SLOAD DUP3 LT PUSH2 0x23BD JUMP JUMPDEST PUSH2 0x1D54 PUSH2 0x267E JUMP JUMPDEST DUP1 PUSH1 0x0 MSTORE PUSH1 0xE PUSH1 0x20 MSTORE PUSH1 0x40 PUSH1 0x0 KECCAK256 PUSH1 0x7 DUP2 ADD SWAP1 PUSH1 0xFF DUP3 SLOAD AND PUSH1 0x5 DUP2 LT ISZERO PUSH2 0x357 JUMPI PUSH1 0x1 SUB PUSH2 0x1ED9 JUMPI PUSH1 0x6 PUSH2 0x1D8C SWAP2 ADD SLOAD TIMESTAMP LT ISZERO PUSH2 0x2409 JUMP JUMPDEST DUP1 SLOAD PUSH1 0xFF NOT AND PUSH1 0x2 OR SWAP1 SSTORE PUSH2 0x1DA0 DUP2 PUSH2 0x26A0 JUMP JUMPDEST SWAP1 PUSH1 0x0 JUMPDEST PUSH1 0xF SLOAD SWAP1 DUP2 DUP2 LT ISZERO PUSH2 0x1ED2 JUMPI DUP3 PUSH2 0x1DBA DUP3 PUSH2 0x2234 JUMP JUMPDEST SWAP1 SLOAD SWAP1 PUSH1 0x3 SHL SHR EQ PUSH2 0x1DD0 JUMPI PUSH1 0x1 SWAP2 POP ADD PUSH2 0x1DA4 JUMP JUMPDEST PUSH1 0x0 NOT DUP3 ADD SWAP2 DUP3 GT PUSH2 0x1EBC JUMPI PUSH2 0x1040 PUSH2 0x1DEB PUSH2 0x1DF8 SWAP4 PUSH2 0x2234 JUMP JUMPDEST SWAP1 SLOAD SWAP1 PUSH1 0x3 SHL SHR SWAP2 PUSH2 0x2234 JUMP JUMPDEST PUSH1 0xF SLOAD DUP1 ISZERO PUSH2 0x1EA6 JUMPI PUSH1 0x0 NOT ADD PUSH2 0x1E24 PUSH2 0x1E13 DUP3 PUSH1 0xF PUSH2 0x2285 JUMP JUMPDEST DUP2 SLOAD SWAP1 PUSH1 0x0 NOT SWAP1 PUSH1 0x3 SHL SHL NOT AND SWAP1 SSTORE JUMP JUMPDEST PUSH1 0xF SSTORE JUMPDEST PUSH32 0x948F4A9CD986F1118C3FBD459F7A22B23C0693E1CA3EF06A6A8BE5AA7D39CC03 PUSH1 0x20 PUSH1 0x40 MLOAD SWAP4 ISZERO SWAP4 DUP5 ISZERO DUP2 MSTORE LOG2 PUSH2 0x1E61 JUMPI PUSH1 0x1 PUSH1 0x0 SSTORE STOP JUMPDEST PUSH1 0x40 MLOAD PUSH3 0x461BCD PUSH1 0xE5 SHL DUP2 MSTORE PUSH1 0x20 PUSH1 0x4 DUP3 ADD MSTORE PUSH1 0x19 PUSH1 0x24 DUP3 ADD MSTORE PUSH32 0x50726F706F73616C20657865637574696F6E206661696C656400000000000000 PUSH1 0x44 DUP3 ADD MSTORE PUSH1 0x64 SWAP1 REVERT JUMPDEST PUSH4 0x4E487B71 PUSH1 0xE0 SHL PUSH1 0x0 MSTORE PUSH1 0x31 PUSH1 0x4 MSTORE PUSH1 0x24 PUSH1 0x0 REVERT JUMPDEST PUSH4 0x4E487B71 PUSH1 0xE0 SHL PUSH1 0x0 MSTORE PUSH1 0x11 PUSH1 0x4 MSTORE PUSH1 0x24 PUSH1 0x0 REVERT JUMPDEST POP POP PUSH2 0x1E28 JUMP JUMPDEST PUSH1 0x40 MLOAD PUSH3 0x461BCD PUSH1 0xE5 SHL DUP2 MSTORE PUSH1 0x20 PUSH1 0x4 DUP3 ADD MSTORE PUSH1 0x13 PUSH1 0x24 DUP3 ADD MSTORE PUSH19 0x141C9BDC1BDCD85B081B9BDD081C5D595D5959 PUSH1 0x6A SHL PUSH1 0x44 DUP3 ADD MSTORE PUSH1 0x64 SWAP1 REVERT JUMPDEST CALLVALUE PUSH2 0x36D JUMPI PUSH1 0x20 CALLDATASIZE PUSH1 0x3 NOT ADD SLT PUSH2 0x36D JUMPI PUSH1 0x1 PUSH1 0x1 PUSH1 0xA0 SHL SUB PUSH2 0x1F35 PUSH2 0x229D JUMP JUMPDEST AND PUSH1 0x0 MSTORE PUSH1 0x4 PUSH1 0x20 MSTORE PUSH1 0x20 PUSH1 0xFF PUSH1 0x40 PUSH1 0x0 KECCAK256 SLOAD AND PUSH1 0x40 MLOAD SWAP1 ISZERO ISZERO DUP2 MSTORE RETURN JUMPDEST CALLVALUE PUSH2 0x36D JUMPI PUSH1 0x0 CALLDATASIZE PUSH1 0x3 NOT ADD SLT PUSH2 0x36D JUMPI PUSH1 0x20 PUSH1 0x40 MLOAD PUSH1 0x14 DUP2 MSTORE RETURN JUMPDEST CALLVALUE PUSH2 0x36D JUMPI PUSH1 0x0 CALLDATASIZE PUSH1 0x3 NOT ADD SLT PUSH2 0x36D JUMPI PUSH1 0x20 PUSH1 0xFF PUSH1 0x13 SLOAD AND PUSH1 0x40 MLOAD SWAP1 ISZERO ISZERO DUP2 MSTORE RETURN JUMPDEST CALLVALUE PUSH2 0x36D JUMPI PUSH1 0x20 CALLDATASIZE PUSH1 0x3 NOT ADD SLT PUSH2 0x36D JUMPI PUSH1 0x4 CALLDATALOAD PUSH1 0x2 SLOAD DUP2 LT ISZERO PUSH2 0x36D JUMPI PUSH2 0x1FBB PUSH1 0x20 SWAP2 PUSH2 0x2203 JUMP JUMPDEST SWAP1 SLOAD PUSH1 0x40 MLOAD PUSH1 0x3 SWAP3 SWAP1 SWAP3 SHL SHR PUSH1 0x1 PUSH1 0x1 PUSH1 0xA0 SHL SUB AND DUP2 MSTORE RETURN JUMPDEST CALLVALUE PUSH2 0x36D JUMPI PUSH1 0x20 CALLDATASIZE PUSH1 0x3 NOT ADD SLT PUSH2 0x36D JUMPI PUSH1 0x4 CALLDATALOAD PUSH1 0x0 MSTORE PUSH1 0xE PUSH1 0x20 MSTORE PUSH1 0x40 PUSH1 0x0 KECCAK256 SWAP1 PUSH2 0x60C DUP3 SLOAD SWAP2 PUSH1 0x9 PUSH1 0x1 DUP6 ADD SLOAD SWAP5 PUSH1 0x2 DUP2 ADD SLOAD PUSH2 0x201A DUP5 PUSH2 0xC3A DUP2 PUSH1 0x3 DUP7 ADD PUSH2 0x2103 JUMP JUMPDEST PUSH1 0x4 DUP3 ADD SLOAD SWAP4 PUSH2 0x2088 PUSH1 0x5 DUP5 ADD SLOAD SWAP2 PUSH1 0x6 DUP6 ADD SLOAD SWAP4 PUSH2 0x2048 PUSH1 0x7 DUP8 ADD SLOAD SWAP7 PUSH2 0xC6F PUSH1 0x40 MLOAD DUP1 SWAP11 DUP2 SWAP4 ADD PUSH2 0x2103 JUMP JUMPDEST PUSH1 0x40 MLOAD SWAP11 DUP12 SWAP11 DUP12 MSTORE PUSH2 0x2060 PUSH1 0x20 DUP13 ADD PUSH1 0xFF DUP4 AND PUSH2 0x21A8 JUMP JUMPDEST PUSH1 0x8 SHR PUSH1 0x1 PUSH1 0x1 PUSH1 0xA0 SHL SUB AND PUSH1 0x40 DUP12 ADD MSTORE PUSH1 0x60 DUP11 ADD MSTORE PUSH2 0x160 PUSH1 0x80 DUP11 ADD DUP2 SWAP1 MSTORE DUP10 ADD SWAP1 PUSH2 0x21B5 JUMP JUMPDEST SWAP5 PUSH1 0xA0 DUP9 ADD MSTORE PUSH1 0xC0 DUP8 ADD MSTORE PUSH1 0xE0 DUP7 ADD MSTORE PUSH2 0x20A9 PUSH2 0x100 DUP7 ADD PUSH1 0xFF DUP4 AND PUSH2 0x21F6 JUMP JUMPDEST PUSH1 0x8 SHR PUSH1 0x1 PUSH1 0x1 PUSH1 0xA0 SHL SUB AND PUSH2 0x120 DUP6 ADD MSTORE DUP4 DUP3 SUB PUSH2 0x140 DUP6 ADD MSTORE PUSH2 0x21B5 JUMP JUMPDEST SWAP1 PUSH1 0x1 DUP3 DUP2 SHR SWAP3 AND DUP1 ISZERO PUSH2 0x20F9 JUMPI JUMPDEST PUSH1 0x20 DUP4 LT EQ PUSH2 0x20E3 JUMPI JUMP JUMPDEST PUSH4 0x4E487B71 PUSH1 0xE0 SHL PUSH1 0x0 MSTORE PUSH1 0x22 PUSH1 0x4 MSTORE PUSH1 0x24 PUSH1 0x0 REVERT JUMPDEST SWAP2 PUSH1 0x7F AND SWAP2 PUSH2 0x20D8 JUMP JUMPDEST PUSH1 0x0 SWAP3 SWAP2 DUP2 SLOAD SWAP2 PUSH2 0x2113 DUP4 PUSH2 0x20C9 JUMP JUMPDEST DUP1 DUP4 MSTORE SWAP3 PUSH1 0x1 DUP2 AND SWAP1 DUP2 ISZERO PUSH2 0x2169 JUMPI POP PUSH1 0x1 EQ PUSH2 0x212F JUMPI POP POP POP JUMP JUMPDEST PUSH1 0x0 SWAP1 DUP2 MSTORE PUSH1 0x20 DUP2 KECCAK256 SWAP4 SWAP5 POP SWAP2 SWAP3 JUMPDEST DUP4 DUP4 LT PUSH2 0x214F JUMPI POP PUSH1 0x20 SWAP3 POP ADD ADD SWAP1 JUMP JUMPDEST PUSH1 0x1 DUP2 PUSH1 0x20 SWAP3 SWAP5 SWAP4 SWAP5 SLOAD DUP4 DUP6 DUP8 ADD ADD MSTORE ADD SWAP2 ADD SWAP2 SWAP1 PUSH2 0x213E JUMP JUMPDEST SWAP2 POP POP PUSH1 0x20 SWAP4 SWAP5 POP PUSH1 0xFF SWAP3 SWAP2 SWAP3 NOT AND DUP4 DUP4 ADD MSTORE ISZERO ISZERO PUSH1 0x5 SHL ADD ADD SWAP1 JUMP JUMPDEST SWAP1 PUSH1 0x1F DUP1 NOT SWAP2 ADD AND DUP2 ADD SWAP1 DUP2 LT PUSH8 0xFFFFFFFFFFFFFFFF DUP3 GT OR PUSH2 0x18D2 JUMPI PUSH1 0x40 MSTORE JUMP JUMPDEST SWAP1 PUSH1 0x6 DUP3 LT ISZERO PUSH2 0x357 JUMPI MSTORE JUMP JUMPDEST SWAP2 SWAP1 DUP3 MLOAD SWAP3 DUP4 DUP3 MSTORE PUSH1 0x0 JUMPDEST DUP5 DUP2 LT PUSH2 0x21E1 JUMPI POP POP DUP3 PUSH1 0x0 PUSH1 0x20 DUP1 SWAP5 SWAP6 DUP5 ADD ADD MSTORE PUSH1 0x1F DUP1 NOT SWAP2 ADD AND ADD ADD SWAP1 JUMP JUMPDEST DUP1 PUSH1 0x20 DUP1 SWAP3 DUP5 ADD ADD MLOAD DUP3 DUP3 DUP7 ADD ADD MSTORE ADD PUSH2 0x21C0 JUMP JUMPDEST SWAP1 PUSH1 0x5 DUP3 LT ISZERO PUSH2 0x357 JUMPI MSTORE JUMP JUMPDEST PUSH1 0x2 SLOAD DUP2 LT ISZERO PUSH2 0x221E JUMPI PUSH1 0x2 PUSH1 0x0 MSTORE PUSH1 0x20 PUSH1 0x0 KECCAK256 ADD SWAP1 PUSH1 0x0 SWAP1 JUMP JUMPDEST PUSH4 0x4E487B71 PUSH1 0xE0 SHL PUSH1 0x0 MSTORE PUSH1 0x32 PUSH1 0x4 MSTORE PUSH1 0x24 PUSH1 0x0 REVERT JUMPDEST PUSH1 0xF SLOAD DUP2 LT ISZERO PUSH2 0x221E JUMPI PUSH1 0xF PUSH1 0x0 MSTORE PUSH1 0x20 PUSH1 0x0 KECCAK256 ADD SWAP1 PUSH1 0x0 SWAP1 JUMP JUMPDEST PUSH1 0xB SLOAD DUP2 LT ISZERO PUSH2 0x221E JUMPI PUSH1 0xB PUSH1 0x0 MSTORE PUSH1 0x20 PUSH1 0x0 KECCAK256 ADD SWAP1 PUSH1 0x0 SWAP1 JUMP JUMPDEST PUSH1 0xC SLOAD DUP2 LT ISZERO PUSH2 0x221E JUMPI PUSH1 0xC PUSH1 0x0 MSTORE PUSH1 0x20 PUSH1 0x0 KECCAK256 ADD SWAP1 PUSH1 0x0 SWAP1 JUMP JUMPDEST DUP1 SLOAD DUP3 LT ISZERO PUSH2 0x221E JUMPI PUSH1 0x0 MSTORE PUSH1 0x20 PUSH1 0x0 KECCAK256 ADD SWAP1 PUSH1 0x0 SWAP1 JUMP JUMPDEST PUSH1 0x4 CALLDATALOAD SWAP1 PUSH1 0x1 PUSH1 0x1 PUSH1 0xA0 SHL SUB DUP3 AND DUP3 SUB PUSH2 0x36D JUMPI JUMP JUMPDEST PUSH1 0x24 CALLDATALOAD SWAP1 PUSH1 0x1 PUSH1 0x1 PUSH1 0xA0 SHL SUB DUP3 AND DUP3 SUB PUSH2 0x36D JUMPI JUMP JUMPDEST PUSH8 0xFFFFFFFFFFFFFFFF DUP2 GT PUSH2 0x18D2 JUMPI PUSH1 0x1F ADD PUSH1 0x1F NOT AND PUSH1 0x20 ADD SWAP1 JUMP JUMPDEST DUP2 PUSH1 0x1F DUP3 ADD SLT ISZERO PUSH2 0x36D JUMPI PUSH1 0x20 DUP2 CALLDATALOAD SWAP2 ADD PUSH2 0x22FF DUP3 PUSH2 0x22C9 JUMP JUMPDEST SWAP3 PUSH2 0x230D PUSH1 0x40 MLOAD SWAP5 DUP6 PUSH2 0x2186 JUMP JUMPDEST DUP3 DUP5 MSTORE DUP3 DUP3 ADD GT PUSH2 0x36D JUMPI DUP2 PUSH1 0x0 SWAP3 PUSH1 0x20 SWAP3 DUP4 DUP7 ADD CALLDATACOPY DUP4 ADD ADD MSTORE SWAP1 JUMP JUMPDEST PUSH1 0x20 PUSH1 0x40 DUP2 DUP4 ADD SWAP3 DUP3 DUP2 MSTORE DUP5 MLOAD DUP1 SWAP5 MSTORE ADD SWAP3 ADD SWAP1 PUSH1 0x0 JUMPDEST DUP2 DUP2 LT PUSH2 0x234E JUMPI POP POP POP SWAP1 JUMP JUMPDEST DUP3 MLOAD DUP5 MSTORE PUSH1 0x20 SWAP4 DUP5 ADD SWAP4 SWAP1 SWAP3 ADD SWAP2 PUSH1 0x1 ADD PUSH2 0x2341 JUMP JUMPDEST CALLVALUE PUSH2 0x36D JUMPI PUSH1 0x0 CALLDATASIZE PUSH1 0x3 NOT ADD SLT PUSH2 0x36D JUMPI PUSH1 0x20 PUSH1 0x40 MLOAD PUSH3 0x278D00 DUP2 MSTORE RETURN JUMPDEST ISZERO PUSH2 0x2389 JUMPI JUMP JUMPDEST PUSH1 0x40 MLOAD PUSH3 0x461BCD PUSH1 0xE5 SHL DUP2 MSTORE PUSH1 0x20 PUSH1 0x4 DUP3 ADD MSTORE PUSH1 0xC PUSH1 0x24 DUP3 ADD MSTORE PUSH12 0x2737BA1030B71037BBB732B9 PUSH1 0xA1 SHL PUSH1 0x44 DUP3 ADD MSTORE PUSH1 0x64 SWAP1 REVERT JUMPDEST ISZERO PUSH2 0x23C4 JUMPI JUMP JUMPDEST PUSH1 0x40 MLOAD PUSH3 0x461BCD PUSH1 0xE5 SHL DUP2 MSTORE PUSH1 0x20 PUSH1 0x4 DUP3 ADD MSTORE PUSH1 0x17 PUSH1 0x24 DUP3 ADD MSTORE PUSH32 0x50726F706F73616C20646F6573206E6F74206578697374000000000000000000 PUSH1 0x44 DUP3 ADD MSTORE PUSH1 0x64 SWAP1 REVERT JUMPDEST ISZERO PUSH2 0x2410 JUMPI JUMP JUMPDEST PUSH1 0x40 MLOAD PUSH3 0x461BCD PUSH1 0xE5 SHL DUP2 MSTORE PUSH1 0x20 PUSH1 0x4 DUP3 ADD MSTORE PUSH1 0x15 PUSH1 0x24 DUP3 ADD MSTORE PUSH21 0x151A5B59481B1BD8DAC81B9BDD08195E1C1A5C9959 PUSH1 0x5A SHL PUSH1 0x44 DUP3 ADD MSTORE PUSH1 0x64 SWAP1 REVERT JUMPDEST ISZERO PUSH2 0x2454 JUMPI JUMP JUMPDEST PUSH1 0x40 MLOAD PUSH3 0x461BCD PUSH1 0xE5 SHL DUP2 MSTORE PUSH1 0x20 PUSH1 0x4 DUP3 ADD MSTORE PUSH1 0x1A PUSH1 0x24 DUP3 ADD MSTORE PUSH32 0x5472616E73616374696F6E20646F6573206E6F74206578697374000000000000 PUSH1 0x44 DUP3 ADD MSTORE PUSH1 0x64 SWAP1 REVERT JUMPDEST ISZERO PUSH2 0x24A0 JUMPI JUMP JUMPDEST PUSH1 0x40 MLOAD PUSH3 0x461BCD PUSH1 0xE5 SHL DUP2 MSTORE PUSH1 0x20 PUSH1 0x4 DUP3 ADD MSTORE PUSH1 0x15 PUSH1 0x24 DUP3 ADD MSTORE PUSH21 0x456D657267656E6379206D6F646520616374697665 PUSH1 0x58 SHL PUSH1 0x44 DUP3 ADD MSTORE PUSH1 0x64 SWAP1 REVERT JUMPDEST ISZERO PUSH2 0x24E4 JUMPI JUMP JUMPDEST PUSH1 0x40 MLOAD PUSH3 0x461BCD PUSH1 0xE5 SHL DUP2 MSTORE PUSH1 0x20 PUSH1 0x4 DUP3 ADD MSTORE PUSH1 0x14 PUSH1 0x24 DUP3 ADD MSTORE PUSH20 0x11195CD8DC9A5C1D1A5BDB881C995C5D5A5C9959 PUSH1 0x62 SHL PUSH1 0x44 DUP3 ADD MSTORE PUSH1 0x64 SWAP1 REVERT JUMPDEST PUSH1 0x0 NOT DUP2 EQ PUSH2 0x1EBC JUMPI PUSH1 0x1 ADD SWAP1 JUMP JUMPDEST PUSH1 0x1F DUP3 GT PUSH2 0x253C JUMPI POP POP POP JUMP JUMPDEST PUSH1 0x0 MSTORE PUSH1 0x20 PUSH1 0x0 KECCAK256 SWAP1 PUSH1 0x20 PUSH1 0x1F DUP5 ADD PUSH1 0x5 SHR DUP4 ADD SWAP4 LT PUSH2 0x2577 JUMPI JUMPDEST PUSH1 0x1F ADD PUSH1 0x5 SHR ADD SWAP1 JUMPDEST DUP2 DUP2 LT PUSH2 0x256B JUMPI POP POP JUMP JUMPDEST PUSH1 0x0 DUP2 SSTORE PUSH1 0x1 ADD PUSH2 0x2560 JUMP JUMPDEST SWAP1 SWAP2 POP DUP2 SWAP1 PUSH2 0x2557 JUMP JUMPDEST PUSH1 0xC SLOAD SWAP1 PUSH1 0x1 PUSH1 0x40 SHL DUP3 LT ISZERO PUSH2 0x18D2 JUMPI PUSH2 0x1040 DUP3 PUSH1 0x1 PUSH2 0x25A6 SWAP5 ADD PUSH1 0xC SSTORE PUSH1 0xC PUSH2 0x2285 JUMP JUMPDEST JUMP JUMPDEST ISZERO PUSH2 0x25AF JUMPI JUMP JUMPDEST PUSH1 0x40 MLOAD PUSH3 0x461BCD PUSH1 0xE5 SHL DUP2 MSTORE PUSH1 0x20 PUSH1 0x4 DUP3 ADD MSTORE PUSH1 0xE PUSH1 0x24 DUP3 ADD MSTORE PUSH14 0x2737BA10309033BAB0B93234B0B7 PUSH1 0x91 SHL PUSH1 0x44 DUP3 ADD MSTORE PUSH1 0x64 SWAP1 REVERT JUMPDEST ISZERO PUSH2 0x25EC JUMPI JUMP JUMPDEST PUSH1 0x40 MLOAD PUSH3 0x461BCD PUSH1 0xE5 SHL DUP2 MSTORE PUSH1 0x20 PUSH1 0x4 DUP3 ADD MSTORE PUSH1 0x19 PUSH1 0x24 DUP3 ADD MSTORE PUSH32 0x456D657267656E6379206D6F6465206E6F742061637469766500000000000000 PUSH1 0x44 DUP3 ADD MSTORE PUSH1 0x64 SWAP1 REVERT JUMPDEST ISZERO PUSH2 0x2638 JUMPI JUMP JUMPDEST PUSH1 0x40 MLOAD PUSH3 0x461BCD PUSH1 0xE5 SHL DUP2 MSTORE PUSH1 0x20 PUSH1 0x4 DUP3 ADD MSTORE PUSH1 0x11 PUSH1 0x24 DUP3 ADD MSTORE PUSH17 0x105B1C9958591E4818DBDB999A5C9B5959 PUSH1 0x7A SHL PUSH1 0x44 DUP3 ADD MSTORE PUSH1 0x64 SWAP1 REVERT JUMPDEST SWAP2 SWAP1 DUP3 ADD DUP1 SWAP3 GT PUSH2 0x1EBC JUMPI JUMP JUMPDEST PUSH1 0x2 PUSH1 0x0 SLOAD EQ PUSH2 0x268F JUMPI PUSH1 0x2 PUSH1 0x0 SSTORE JUMP JUMPDEST PUSH4 0x3EE5AEB5 PUSH1 0xE0 SHL PUSH1 0x0 MSTORE PUSH1 0x4 PUSH1 0x0 REVERT JUMPDEST PUSH1 0x0 MSTORE PUSH1 0xE PUSH1 0x20 MSTORE PUSH1 0x40 PUSH1 0x0 KECCAK256 PUSH1 0x1 DUP2 ADD SWAP1 DUP2 SLOAD PUSH1 0xFF DUP2 AND SWAP1 PUSH1 0x6 DUP3 LT ISZERO PUSH2 0x357 JUMPI DUP2 PUSH2 0x27F8 JUMPI POP POP SWAP1 SLOAD PUSH1 0x8 SHR PUSH1 0x1 PUSH1 0x1 PUSH1 0xA0 SHL SUB AND SWAP1 POP DUP1 ISZERO PUSH2 0x27BB JUMPI DUP1 PUSH1 0x0 MSTORE PUSH1 0x3 PUSH1 0x20 MSTORE PUSH1 0xFF PUSH1 0x40 PUSH1 0x0 KECCAK256 SLOAD AND PUSH2 0x2783 JUMPI PUSH1 0x14 PUSH1 0x2 SLOAD LT ISZERO PUSH2 0x274C JUMPI PUSH2 0x2709 DUP2 PUSH2 0x30DA JUMP JUMPDEST DUP1 PUSH1 0x0 MSTORE PUSH1 0x3 PUSH1 0x20 MSTORE PUSH1 0x40 PUSH1 0x0 KECCAK256 PUSH1 0x1 PUSH1 0xFF NOT DUP3 SLOAD AND OR SWAP1 SSTORE PUSH32 0x994A936646FE87FFE4F1E469D3D6AA417D6B855598397F323DE5B449F765F0C3 PUSH1 0x0 DUP1 LOG2 PUSH1 0x1 SWAP1 JUMP JUMPDEST PUSH1 0x40 MLOAD PUSH3 0x461BCD PUSH1 0xE5 SHL DUP2 MSTORE PUSH1 0x20 PUSH1 0x4 DUP3 ADD MSTORE PUSH1 0xF PUSH1 0x24 DUP3 ADD MSTORE PUSH15 0x546F6F206D616E79206F776E657273 PUSH1 0x88 SHL PUSH1 0x44 DUP3 ADD MSTORE PUSH1 0x64 SWAP1 REVERT JUMPDEST PUSH1 0x40 MLOAD PUSH3 0x461BCD PUSH1 0xE5 SHL DUP2 MSTORE PUSH1 0x20 PUSH1 0x4 DUP3 ADD MSTORE PUSH1 0x10 PUSH1 0x24 DUP3 ADD MSTORE PUSH16 0x20B63932B0B23C9030B71037BBB732B9 PUSH1 0x81 SHL PUSH1 0x44 DUP3 ADD MSTORE PUSH1 0x64 SWAP1 REVERT JUMPDEST PUSH1 0x40 MLOAD PUSH3 0x461BCD PUSH1 0xE5 SHL DUP2 MSTORE PUSH1 0x20 PUSH1 0x4 DUP3 ADD MSTORE PUSH1 0x15 PUSH1 0x24 DUP3 ADD MSTORE PUSH21 0x496E76616C6964206F776E65722061646472657373 PUSH1 0x58 SHL PUSH1 0x44 DUP3 ADD MSTORE PUSH1 0x64 SWAP1 REVERT JUMPDEST PUSH1 0x0 PUSH1 0x1 DUP4 SUB PUSH2 0x298F JUMPI POP POP POP POP PUSH1 0x1 DUP1 PUSH1 0xA0 SHL SUB SWAP1 SLOAD PUSH1 0x8 SHR AND DUP1 PUSH1 0x0 MSTORE PUSH1 0x3 PUSH1 0x20 MSTORE PUSH2 0x282D PUSH1 0xFF PUSH1 0x40 PUSH1 0x0 KECCAK256 SLOAD AND PUSH2 0x2382 JUMP JUMPDEST PUSH1 0x2 SLOAD PUSH1 0x5 SLOAD LT ISZERO PUSH2 0x293E JUMPI PUSH1 0x0 JUMPDEST PUSH1 0x2 SLOAD SWAP1 DUP2 DUP2 LT ISZERO PUSH2 0x2937 JUMPI DUP3 PUSH2 0x2852 DUP3 PUSH2 0x2203 JUMP JUMPDEST SWAP1 SLOAD PUSH1 0x3 SWAP2 SWAP1 SWAP2 SHL SHR PUSH1 0x1 PUSH1 0x1 PUSH1 0xA0 SHL SUB AND EQ PUSH2 0x2873 JUMPI PUSH1 0x1 SWAP2 POP ADD PUSH2 0x283C JUMP JUMPDEST PUSH1 0x0 NOT DUP3 ADD SWAP2 DUP3 GT PUSH2 0x1EBC JUMPI PUSH2 0x28A6 PUSH2 0x288E PUSH2 0x28CA SWAP4 PUSH2 0x2203 JUMP JUMPDEST SWAP1 SLOAD PUSH1 0x3 SWAP2 SWAP1 SWAP2 SHL SHR PUSH1 0x1 PUSH1 0x1 PUSH1 0xA0 SHL SUB AND SWAP2 PUSH2 0x2203 JUMP JUMPDEST DUP2 SLOAD PUSH1 0x1 PUSH1 0x1 PUSH1 0xA0 SHL SUB SWAP4 DUP5 AND PUSH1 0x3 SWAP3 SWAP1 SWAP3 SHL SWAP2 DUP3 SHL SWAP4 SWAP1 SWAP2 SHL NOT AND SWAP2 SWAP1 SWAP2 OR SWAP1 SSTORE JUMP JUMPDEST PUSH1 0x2 SLOAD DUP1 ISZERO PUSH2 0x1EA6 JUMPI PUSH1 0x0 NOT ADD PUSH2 0x28E0 DUP2 PUSH2 0x2203 JUMP JUMPDEST DUP2 SLOAD SWAP1 PUSH1 0x1 DUP1 PUSH1 0xA0 SHL SUB SWAP1 PUSH1 0x3 SHL SHL NOT AND SWAP1 SSTORE PUSH1 0x2 SSTORE JUMPDEST DUP1 PUSH1 0x0 MSTORE PUSH1 0x3 PUSH1 0x20 MSTORE PUSH1 0x40 PUSH1 0x0 KECCAK256 PUSH1 0xFF NOT DUP2 SLOAD AND SWAP1 SSTORE PUSH32 0x58619076ADF5BB0943D100EF88D52D7C3FD691B19D3A9071B555B651FBF418DA PUSH1 0x0 DUP1 LOG2 PUSH1 0x1 SWAP1 JUMP JUMPDEST POP POP PUSH2 0x28F7 JUMP JUMPDEST PUSH1 0x40 MLOAD PUSH3 0x461BCD PUSH1 0xE5 SHL DUP2 MSTORE PUSH1 0x20 PUSH1 0x4 DUP3 ADD MSTORE PUSH1 0x23 PUSH1 0x24 DUP3 ADD MSTORE PUSH32 0x43616E6E6F742072656D6F7665206F776E65722062656C6F7720746872657368 PUSH1 0x44 DUP3 ADD MSTORE PUSH3 0x1BDB19 PUSH1 0xEA SHL PUSH1 0x64 DUP3 ADD MSTORE PUSH1 0x84 SWAP1 REVERT JUMPDEST POP SWAP2 SWAP3 POP SWAP1 PUSH1 0x2 DUP3 SUB PUSH2 0x2A62 JUMPI POP POP PUSH1 0x2 ADD SLOAD PUSH1 0x1 DUP2 LT PUSH2 0x2A29 JUMPI PUSH1 0x2 SLOAD DUP2 GT PUSH2 0x29EF JUMPI PUSH1 0x40 PUSH32 0x3164947CF0F49F08DD0CD80E671535B1E11590D347C55DCAA97BA3C24A96B33A SWAP2 PUSH1 0x5 SLOAD SWAP1 DUP1 PUSH1 0x5 SSTORE DUP3 MLOAD SWAP2 DUP3 MSTORE PUSH1 0x20 DUP3 ADD MSTORE LOG1 PUSH1 0x1 SWAP1 JUMP JUMPDEST PUSH1 0x40 MLOAD PUSH3 0x461BCD PUSH1 0xE5 SHL DUP2 MSTORE PUSH1 0x20 PUSH1 0x4 DUP3 ADD MSTORE PUSH1 0x12 PUSH1 0x24 DUP3 ADD MSTORE PUSH18 0xA8D0E4CAE6D0DED8C840E8DEDE40D0D2CED PUSH1 0x73 SHL PUSH1 0x44 DUP3 ADD MSTORE PUSH1 0x64 SWAP1 REVERT JUMPDEST PUSH1 0x40 MLOAD PUSH3 0x461BCD PUSH1 0xE5 SHL DUP2 MSTORE PUSH1 0x20 PUSH1 0x4 DUP3 ADD MSTORE PUSH1 0x11 PUSH1 0x24 DUP3 ADD MSTORE PUSH17 0x5468726573686F6C6420746F6F206C6F77 PUSH1 0x78 SHL PUSH1 0x44 DUP3 ADD MSTORE PUSH1 0x64 SWAP1 REVERT JUMPDEST PUSH1 0x0 PUSH1 0x3 DUP4 SUB PUSH2 0x2B4D JUMPI POP POP POP PUSH1 0x2 ADD SLOAD PUSH2 0xE10 DUP2 LT PUSH2 0x2B12 JUMPI PUSH3 0x278D00 DUP2 GT PUSH2 0x2AD8 JUMPI PUSH1 0x6 SLOAD DUP2 PUSH1 0x6 SSTORE DUP2 PUSH1 0x1 SHL SWAP1 DUP3 DUP3 DIV PUSH1 0x2 EQ DUP4 ISZERO OR ISZERO PUSH2 0x1EBC JUMPI PUSH32 0x8DCE199A9D83266352E70738B2DDA1E7299A0CE43F7E5B9161C7AD6D571D47E9 SWAP3 PUSH1 0x40 SWAP3 PUSH1 0x7 SSTORE DUP3 MLOAD SWAP2 DUP3 MSTORE PUSH1 0x20 DUP3 ADD MSTORE LOG1 PUSH1 0x1 SWAP1 JUMP JUMPDEST PUSH1 0x40 MLOAD PUSH3 0x461BCD PUSH1 0xE5 SHL DUP2 MSTORE PUSH1 0x20 PUSH1 0x4 DUP3 ADD MSTORE PUSH1 0x12 PUSH1 0x24 DUP3 ADD MSTORE PUSH18 0x54696D65206C6F636B20746F6F206C6F6E67 PUSH1 0x70 SHL PUSH1 0x44 DUP3 ADD MSTORE PUSH1 0x64 SWAP1 REVERT JUMPDEST PUSH1 0x40 MLOAD PUSH3 0x461BCD PUSH1 0xE5 SHL DUP2 MSTORE PUSH1 0x20 PUSH1 0x4 DUP3 ADD MSTORE PUSH1 0x13 PUSH1 0x24 DUP3 ADD MSTORE PUSH19 0x151A5B59481B1BD8DAC81D1BDBC81CDA1BDC9D PUSH1 0x6A SHL PUSH1 0x44 DUP3 ADD MSTORE PUSH1 0x64 SWAP1 REVERT JUMPDEST POP PUSH1 0x4 DUP3 SUB PUSH2 0x2B98 JUMPI POP POP PUSH1 0x40 PUSH1 0x2 PUSH32 0x70DC0F9E511FDC888935179B3EBA0BB274CCB33E0572454D85D32A70219DD62 SWAP3 ADD SLOAD PUSH1 0x10 SLOAD SWAP1 DUP1 PUSH1 0x10 SSTORE DUP3 MLOAD SWAP2 DUP3 MSTORE PUSH1 0x20 DUP3 ADD MSTORE LOG1 PUSH1 0x1 SWAP1 JUMP JUMPDEST PUSH1 0x0 SWAP4 SWAP3 POP SWAP1 PUSH1 0x5 EQ PUSH2 0x2BAC JUMPI POP PUSH1 0x0 SWAP2 POP JUMP JUMPDEST PUSH1 0x1 DUP1 PUSH1 0xA0 SHL SUB SWAP1 PUSH1 0x8 SHR AND SWAP1 PUSH2 0x2BC7 PUSH1 0xFF PUSH1 0x13 SLOAD AND PUSH2 0x25E5 JUMP JUMPDEST PUSH1 0x14 SLOAD PUSH3 0x278D00 DUP2 ADD DUP1 SWAP2 GT PUSH2 0x2D78 JUMPI TIMESTAMP LT PUSH2 0x2D33 JUMPI DUP2 ISZERO PUSH2 0x2CEE JUMPI DUP3 JUMPDEST PUSH1 0x2 SLOAD DUP2 LT ISZERO PUSH2 0x2C22 JUMPI DUP1 PUSH2 0x2BFB PUSH1 0x1 SWAP3 PUSH2 0x2203 JUMP JUMPDEST DUP4 DUP1 PUSH1 0xA0 SHL SUB SWAP2 SLOAD SWAP1 PUSH1 0x3 SHL SHR AND DUP6 MSTORE PUSH1 0x3 PUSH1 0x20 MSTORE PUSH1 0x40 DUP6 KECCAK256 PUSH1 0xFF NOT DUP2 SLOAD AND SWAP1 SSTORE ADD PUSH2 0x2BE5 JUMP JUMPDEST POP SWAP2 PUSH1 0x2 SLOAD DUP2 PUSH1 0x2 SSTORE DUP1 PUSH2 0x2C8E JUMPI JUMPDEST POP PUSH32 0x3CD81EFFF0C5B8F185819F4F2797C283C28D720B183FCD99A74ACB247501508F SWAP1 PUSH2 0x2C5D DUP4 PUSH2 0x30DA JUMP JUMPDEST DUP3 DUP2 MSTORE PUSH1 0x3 PUSH1 0x20 MSTORE PUSH1 0x40 DUP2 KECCAK256 PUSH1 0x1 PUSH1 0xFF NOT DUP3 SLOAD AND OR SWAP1 SSTORE PUSH1 0x1 PUSH1 0x5 SSTORE PUSH1 0xFF NOT PUSH1 0x13 SLOAD AND PUSH1 0x13 SSTORE DUP1 PUSH1 0x14 SSTORE DUP1 LOG2 PUSH1 0x1 SWAP1 JUMP JUMPDEST PUSH1 0x2 DUP3 MSTORE PUSH32 0x405787FA12A823E0F2B7631CC41B3BA8828B3321CA811111FA75CD3AA3BB5ACE ADD PUSH32 0x405787FA12A823E0F2B7631CC41B3BA8828B3321CA811111FA75CD3AA3BB5ACE JUMPDEST DUP2 DUP2 LT PUSH2 0x2CE3 JUMPI POP PUSH2 0x2C31 JUMP JUMPDEST DUP3 DUP2 SSTORE PUSH1 0x1 ADD PUSH2 0x2CD6 JUMP JUMPDEST PUSH1 0x40 MLOAD PUSH3 0x461BCD PUSH1 0xE5 SHL DUP2 MSTORE PUSH1 0x20 PUSH1 0x4 DUP3 ADD MSTORE PUSH1 0x18 PUSH1 0x24 DUP3 ADD MSTORE PUSH32 0x496E76616C6964207265636F7665727920616464726573730000000000000000 PUSH1 0x44 DUP3 ADD MSTORE PUSH1 0x64 SWAP1 REVERT JUMPDEST PUSH1 0x40 MLOAD PUSH3 0x461BCD PUSH1 0xE5 SHL DUP2 MSTORE PUSH1 0x20 PUSH1 0x4 DUP3 ADD MSTORE PUSH1 0x1D PUSH1 0x24 DUP3 ADD MSTORE PUSH32 0x456D657267656E63792074696D656F7574206E6F742072656163686564000000 PUSH1 0x44 DUP3 ADD MSTORE PUSH1 0x64 SWAP1 REVERT JUMPDEST PUSH4 0x4E487B71 PUSH1 0xE0 SHL DUP5 MSTORE PUSH1 0x11 PUSH1 0x4 MSTORE PUSH1 0x24 DUP5 REVERT JUMPDEST PUSH1 0x0 JUMPDEST PUSH1 0xC SLOAD DUP1 DUP3 LT ISZERO PUSH2 0x2E02 JUMPI DUP3 PUSH2 0x2DA4 DUP4 PUSH2 0x226A JUMP JUMPDEST SWAP1 SLOAD SWAP1 PUSH1 0x3 SHL SHR EQ PUSH2 0x2DB9 JUMPI POP PUSH1 0x1 ADD PUSH2 0x2D8F JUMP JUMPDEST PUSH1 0x0 NOT DUP2 ADD SWAP3 POP DUP3 GT PUSH2 0x1EBC JUMPI PUSH2 0x1040 PUSH2 0x2DD5 PUSH2 0x2DE2 SWAP4 PUSH2 0x226A JUMP JUMPDEST SWAP1 SLOAD SWAP1 PUSH1 0x3 SHL SHR SWAP2 PUSH2 0x226A JUMP JUMPDEST PUSH1 0xC SLOAD DUP1 ISZERO PUSH2 0x1EA6 JUMPI PUSH1 0x0 NOT ADD PUSH2 0x2DFD PUSH2 0x1E13 DUP3 PUSH1 0xC PUSH2 0x2285 JUMP JUMPDEST PUSH1 0xC SSTORE JUMP JUMPDEST POP POP POP JUMP JUMPDEST PUSH1 0x0 JUMPDEST PUSH1 0xB SLOAD DUP1 DUP3 LT ISZERO PUSH2 0x2E02 JUMPI DUP3 PUSH2 0x2E1F DUP4 PUSH2 0x224F JUMP JUMPDEST SWAP1 SLOAD SWAP1 PUSH1 0x3 SHL SHR EQ PUSH2 0x2E34 JUMPI POP PUSH1 0x1 ADD PUSH2 0x2E0A JUMP JUMPDEST PUSH1 0x0 NOT DUP2 ADD SWAP3 POP DUP3 GT PUSH2 0x1EBC JUMPI PUSH2 0x1040 PUSH2 0x2E50 PUSH2 0x2E5D SWAP4 PUSH2 0x224F JUMP JUMPDEST SWAP1 SLOAD SWAP1 PUSH1 0x3 SHL SHR SWAP2 PUSH2 0x224F JUMP JUMPDEST PUSH1 0xB SLOAD DUP1 ISZERO PUSH2 0x1EA6 JUMPI PUSH1 0x0 NOT ADD PUSH2 0x2E78 PUSH2 0x1E13 DUP3 PUSH1 0xB PUSH2 0x2285 JUMP JUMPDEST PUSH1 0xB SSTORE JUMP JUMPDEST PUSH1 0xFF PUSH1 0x1 SLOAD AND PUSH2 0x2E89 JUMPI JUMP JUMPDEST PUSH4 0xD93C0665 PUSH1 0xE0 SHL PUSH1 0x0 MSTORE PUSH1 0x4 PUSH1 0x0 REVERT JUMPDEST DUP1 PUSH1 0x0 MSTORE PUSH1 0xA PUSH1 0x20 MSTORE PUSH1 0x40 PUSH1 0x0 KECCAK256 PUSH1 0x2 DUP2 ADD PUSH2 0x2EB6 DUP2 SLOAD PUSH2 0x312A JUMP JUMPDEST ISZERO PUSH2 0x309E JUMPI SELFBALANCE DUP2 SLOAD GT PUSH2 0x3062 JUMPI PUSH1 0x7 DUP3 ADD SWAP3 PUSH1 0x2 PUSH1 0xFF NOT DUP6 SLOAD AND OR DUP5 SSTORE PUSH1 0x1 DUP4 ADD SWAP3 PUSH1 0x1 DUP1 PUSH1 0xA0 SHL SUB DUP5 SLOAD AND SWAP1 PUSH1 0x3 DUP5 SLOAD SWAP2 ADD SWAP1 PUSH1 0x40 MLOAD SWAP2 PUSH1 0x0 SWAP1 DUP1 SLOAD SWAP1 PUSH2 0x2EFD DUP3 PUSH2 0x20C9 JUMP JUMPDEST SWAP2 PUSH1 0x1 DUP2 AND SWAP1 DUP2 ISZERO PUSH2 0x304B JUMPI POP PUSH1 0x1 EQ PUSH2 0x3016 JUMPI JUMPDEST POP POP SWAP2 PUSH1 0x0 SWAP4 SWAP2 DUP2 DUP6 SWAP5 SUB SWAP3 GAS CALL SWAP3 RETURNDATASIZE ISZERO PUSH2 0x3011 JUMPI RETURNDATASIZE PUSH2 0x2F31 DUP2 PUSH2 0x22C9 JUMP JUMPDEST SWAP1 PUSH2 0x2F3F PUSH1 0x40 MLOAD SWAP3 DUP4 PUSH2 0x2186 JUMP JUMPDEST DUP2 MSTORE PUSH1 0x0 PUSH1 0x20 RETURNDATASIZE SWAP3 ADD RETURNDATACOPY JUMPDEST PUSH1 0xFF DUP6 SLOAD AND PUSH1 0x5 DUP2 LT ISZERO PUSH2 0x357 JUMPI PUSH32 0xB0BE8A894E2B39DC602E289BF49D4CD432EC8CF3359700BF249FBCC98110B5D3 SWAP2 PUSH1 0x40 SWAP2 PUSH1 0x1 SUB PUSH2 0x3003 JUMPI PUSH2 0x2F8D DUP5 PUSH2 0x2D8C JUMP JUMPDEST SLOAD SWAP4 SLOAD DUP2 MLOAD SWAP1 DUP2 MSTORE SWAP5 ISZERO DUP1 ISZERO PUSH1 0x20 DUP8 ADD MSTORE SWAP5 PUSH1 0x1 PUSH1 0x1 PUSH1 0xA0 SHL SUB SWAP1 SWAP5 AND SWAP4 LOG3 PUSH2 0x2FB3 JUMPI POP JUMP JUMPDEST DUP1 SLOAD PUSH1 0xFF NOT AND PUSH1 0x1 OR SWAP1 SSTORE PUSH1 0x40 MLOAD PUSH3 0x461BCD PUSH1 0xE5 SHL DUP2 MSTORE PUSH1 0x20 PUSH1 0x4 DUP3 ADD MSTORE PUSH1 0x1C PUSH1 0x24 DUP3 ADD MSTORE PUSH32 0x5472616E73616374696F6E20657865637574696F6E206661696C656400000000 PUSH1 0x44 DUP3 ADD MSTORE PUSH1 0x64 SWAP1 REVERT JUMPDEST PUSH2 0x300C DUP5 PUSH2 0x2E07 JUMP JUMPDEST PUSH2 0x2F8D JUMP JUMPDEST PUSH2 0x2F4A JUMP JUMPDEST SWAP1 SWAP2 POP PUSH1 0x0 MSTORE PUSH1 0x20 PUSH1 0x0 KECCAK256 PUSH1 0x0 SWAP1 JUMPDEST DUP3 DUP3 LT PUSH2 0x3037 JUMPI POP POP DUP3 ADD DUP2 DUP4 PUSH2 0x2F12 JUMP JUMPDEST PUSH1 0x1 DUP2 PUSH1 0x20 SWAP3 SLOAD DUP5 DUP9 ADD MSTORE ADD SWAP2 ADD SWAP1 PUSH2 0x3025 JUMP JUMPDEST PUSH1 0xFF NOT AND DUP7 MSTORE POP POP DUP1 ISZERO ISZERO MUL DUP4 ADD SWAP1 POP DUP2 DUP4 PUSH2 0x2F12 JUMP JUMPDEST PUSH1 0x40 MLOAD PUSH3 0x461BCD PUSH1 0xE5 SHL DUP2 MSTORE PUSH1 0x20 PUSH1 0x4 DUP3 ADD MSTORE PUSH1 0x14 PUSH1 0x24 DUP3 ADD MSTORE PUSH20 0x496E73756666696369656E742062616C616E6365 PUSH1 0x60 SHL PUSH1 0x44 DUP3 ADD MSTORE PUSH1 0x64 SWAP1 REVERT JUMPDEST PUSH1 0x40 MLOAD PUSH3 0x461BCD PUSH1 0xE5 SHL DUP2 MSTORE PUSH1 0x20 PUSH1 0x4 DUP3 ADD MSTORE PUSH1 0x14 PUSH1 0x24 DUP3 ADD MSTORE PUSH20 0x11185A5B1E481B1A5B5A5D08195E18D959591959 PUSH1 0x62 SHL PUSH1 0x44 DUP3 ADD MSTORE PUSH1 0x64 SWAP1 REVERT JUMPDEST PUSH1 0x2 SLOAD SWAP1 PUSH1 0x1 PUSH1 0x40 SHL DUP3 LT ISZERO PUSH2 0x18D2 JUMPI PUSH2 0x28A6 DUP3 PUSH1 0x1 PUSH2 0x25A6 SWAP5 ADD PUSH1 0x2 SSTORE PUSH1 0x2 PUSH2 0x2285 JUMP JUMPDEST PUSH1 0x12 SLOAD PUSH3 0x15180 DUP2 ADD DUP1 SWAP2 GT PUSH2 0x1EBC JUMPI TIMESTAMP LT ISZERO PUSH2 0x3122 JUMPI PUSH2 0x3122 SWAP1 PUSH1 0x11 SLOAD PUSH2 0x2671 JUMP JUMPDEST PUSH1 0x10 SLOAD LT ISZERO SWAP1 JUMP JUMPDEST PUSH1 0x12 SLOAD PUSH3 0x15180 DUP2 ADD DUP1 SWAP2 GT PUSH2 0x1EBC JUMPI TIMESTAMP LT ISZERO PUSH2 0x3170 JUMPI JUMPDEST PUSH1 0x11 SLOAD SWAP1 PUSH2 0x3150 DUP2 DUP4 PUSH2 0x2671 JUMP JUMPDEST PUSH1 0x10 SLOAD LT PUSH2 0x3169 JUMPI PUSH2 0x3161 SWAP2 PUSH2 0x2671 JUMP JUMPDEST PUSH1 0x11 SSTORE PUSH1 0x1 SWAP1 JUMP JUMPDEST POP POP PUSH1 0x0 SWAP1 JUMP JUMPDEST PUSH1 0x0 PUSH1 0x11 SSTORE TIMESTAMP PUSH1 0x12 SSTORE PUSH32 0x450D69A307FE727C4D16C9AA74048123BADCCA4D9A3070218B80892E26EE3A16 PUSH1 0x20 PUSH1 0x40 MLOAD TIMESTAMP DUP2 MSTORE LOG1 PUSH2 0x3142 JUMP INVALID LOG2 PUSH5 0x6970667358 0x22 SLT KECCAK256 DELEGATECALL LOG3 0xE1 0xD1 ISZERO 0xA7 0xBC PUSH10 0x408D21B1FC92EF2016D9 DUP8 0xE2 DUP3 0xC6 TLOAD PUSH6 0x9776E60EB54B BASEFEE PUSH12 0x64736F6C634300081C003300 "
        },
        "methodIdentifiers": {
          "EMERGENCY_TIMEOUT()": "7f264076",
          "MAX_OWNERS()": "0b8bb146",
          "MAX_TIME_LOCK()": "faa9f7dd",
          "MIN_THRESHOLD()": "bd11c4c0",
          "MIN_TIME_LOCK()": "df744ead",
          "activateEmergencyMode()": "d0096010",
          "activeProposals(uint256)": "e40824f8",
          "addGuardian(address)": "a526d83b",
          "cancelTransaction(uint256)": "3380c0d8",
          "confirmProposal(uint256)": "f4a4f4d2",
          "confirmTransaction(uint256)": "c01a8c84",
          "dailyLimit()": "67eeba0c",
          "deactivateEmergencyMode()": "99b20eaf",
          "emergencyActivatedAt()": "3d63f215",
          "emergencyMode()": "0905f560",
          "emergencyRecoveryAddress()": "8c67a0c2",
          "emergencyTimeLock()": "ced8cdec",
          "executeProposal(uint256)": "0d61b519",
          "executeTransaction(uint256)": "ee22610b",
          "getActiveProposals()": "5584c4f9",
          "getOwners()": "a0e67e2b",
          "getPendingTransactions()": "d11db83f",
          "getProposal(uint256)": "c7f758a8",
          "getQueuedTransactions()": "657ed048",
          "getTransaction(uint256)": "33ea3dc8",
          "getWalletStats()": "5af06e8f",
          "instantTransactionLimit()": "0deef0de",
          "isConfirmed(uint256,address)": "80f59a65",
          "isGuardian(address)": "0c68ba21",
          "isOwner(address)": "2f54bf6e",
          "isProposalConfirmed(uint256,address)": "24210cce",
          "owners(uint256)": "025e7c27",
          "paused()": "5c975abb",
          "pendingTransactions(uint256)": "63a8374d",
          "proposalCount()": "da35c664",
          "proposals(uint256)": "013cf08b",
          "queuedTransactions(uint256)": "d176e93a",
          "removeGuardian(address)": "71404156",
          "submitProposal(uint8,address,uint256,bytes,string)": "7e0f3d5b",
          "submitTransaction(address,uint256,bytes,string)": "46e24b08",
          "threshold()": "42cde4e8",
          "timeLockDelay()": "8bbc6446",
          "transactionCount()": "b77bf600",
          "transactions(uint256)": "9ace38c2"
        }
      }
    }
  }
}